:020000040800F2
:10000000F8290020A1E20008DDDB0008DFDB0008A2
:10001000E1DB0008E3DB0008E5DB0008000000008E
:10002000000000000000000000000000E7DB000806
:10003000E9DB000800000000EBDB0008EDDB000856
:1000400051E5000855E5000859E500085DE50008A0
:1000500061E5000865E5000869E500086DE5000850
:1000600071E5000875E5000879E500087DE5000800
:1000700081E50008FDDB000885E5000807DC0008D5
:1000800089E500088DE5000891E5000895E5000880
:1000900099E500089DE50008A1E50008A5E5000830
:1000A000A9E50008ADE50008B1E50008B5E50008E0
:1000B000B9E500080000000000000000BDE50008F0
:1000C000C1E50008C5E50008C9E50008CDE5000860
:1000D000D1E5000811DC0008D5E500081BDC0008AC
:1000E000D9E5000825DC0008000000000000000041
:1000F0000000000000000000000000000000000000
:1001000000000000DDE5000800000000E1E5000857
:100110000000000000000000E5E50008E9E5000837
:10012000EDE50008F1E50008F5E50008F9E500084F
:10013000FDE50008000000000000000000000000D5
:1001400001E6000805E6000809E600080DE60008DB
:1001500011E600082FDC000839DC000815E600086D
:1001600019E600081DE6000821E60008000000006E
:1001700025E6000829E600082DE60008000000003A
:1001800031E6000835E6000839E6000801000120E4
:10019000704730B587B004001421002202AD28005A
:1001A00001F08EF8DFF8A00BD0E90023CDE90023A1
:1001B00002A80090DFF8945B2978684600F053FAB3
:1001C00028786870BDF80410009800F042FDDFF850
:1001D000800B8078042809D12878022803DA28784F
:1001E000401C287001E00020287001E000202870E9
:1001F000DFF8005C0221280001F095F803212800B7
:1002000001F0A0F82100C9B2280001F09BF80120FC
:1002100007B030BD10B50400DFF8D01B8888002877
:1002200010D0DFF8CC0B02888B889A4208D10021CD
:1002300001800221DFF8BC0B01F075F8012008E015
:10024000898801802100C9B2DFF8A80B01F07AF893
:10025000012010BD2DE9F041040000250026DFF843
:100260008C7BB88803283DDB3868B988084410F8CF
:10027000010C3968BA88114411F8021C51EA0021B6
:100280000E00B988891E386801F077F8050028004B
:10029000310080B289B288421DD10321DFF8540BAE
:1002A00001F050F83868007806280DD1DFF89C8AF4
:1002B000012198F8010000F0EFF998F80120D7E942
:1002C000000100F0D9F913E00021DFF8800A40783E
:1002D00000F0E2F90CE00021DFF8700A407800F04D
:1002E000DBF905E00021DFF8640A407800F0D4F97A
:1002F000DFF8580A407800F035F80221DFF8F40AF8
:1003000001F032F80120BDE8F0810100DFF8380C7F
:100310000278032A01D0042202700120704710B530
:1003200004002100C9B2DFF8240C01F00BF8012011
:1003300010BD10B504002100C9B2DFF8100C01F0A7
:1003400001F8012010BD10B50400DFF8AC0A01F07F
:10035000F5F92100C9B2DFF8F40B00F0F3FF01203A
:1003600010BD000038B504002000C0B2002847D1FD
:10037000DFF8305C95ED010ABDEEC00A10EE100A00
:1003800000F0A4F885ED010A95ED010A00F008F9E6
:1003900085ED030A95ED020A00F064F985ED040A83
:1003A00095ED040AD5ED060A30EE200A85ED040A23
:1003B00095ED030AD5ED050A30EE200AB5EE400AA8
:1003C000F1EE10FA02D50020E86018E095ED030A7E
:1003D000D5ED050A30EE200ADFEDA10AB4EE600A81
:1003E000F1EE10FA03DBDFF8000BE86007E095EDB3
:1003F000030AD5ED050A30EE200A85ED030AFFE772
:10040000DFF8A05B2878002807D10020686095ED10
:10041000010A00F0C5F885ED030A2878002807D105
:100420000020A86095ED020A00F01CF985ED030A92
:1004300031BD2DE9F04100242500EDB20A2D43DA4B
:1004400000252E00F6B2092E3CDA2E00F6B201EBA2
:10045000860676682F00FFB251F82770BE422FDA69
:1004600000262F00FFB251F82770AC465FFA8CFCD3
:1004700001EB8C0CDCF804C0AE465FFA8EFE41F84E
:100480002EC0AC465FFA8CFC01EB8C0CCCF80470EF
:10049000AC465FFA8CFC50F82CC0AE465FFA8EFE7C
:1004A00000EB8E0EDEF804E0A8465FFA88F840F80C
:1004B00028E0AE465FFA8EFE00EB8E0ECEF804C04A
:1004C0006D1CBEE7641CB7E7BDE8F08138B52DEDC3
:1004D000028B04009FEDB48ADFF8CC1A087800285C
:1004E0002AD10120087000210800C0B20A2815DABC
:1004F0000800C0B2DFF83C2C0B00DBB242F823004E
:10050000DFF8A82A0800C0B252F82000002803D162
:100510000800C0B242F82040491CE5E7DFF88C5AD9
:10052000092300222900DFF80C0CFFF782FF95ED6C
:10053000050AB8EEC00A30E000200100C9B20A295D
:100540001EDADFF8F01B0200D2B251F82220092A8D
:100550000BD100220300DBB241F82320DFF84C1A54
:100560000200D2B241F8224008E00200D2B251F8B3
:100570002220521C0300DBB241F82320401CDCE7A0
:10058000DFF8285A092300222900DFF8A80BFFF71B
:1005900050FF95ED050AB8EEC00ABDEC028B31BDE7
:1005A000F0EE400A9FEDB21A9FEDB23ADFED7E3ACF
:1005B000F5EE400AF1EE10FA40D0F0EE603A9FED11
:1005C000AE0ADFF8B00B90ED004A34EE634AB4EEA9
:1005D000404AF1EE10FA08DA90ED004A33EEC44AD0
:1005E000B4EE404AF1EE10FA03DB9FEDC10A21EEB2
:1005F000001ADFF8A40A90ED000AF0EE401ADFF8C6
:100600009C1A91ED000A30EE010AB0EE402A32EE5B
:10061000030A82EE000AF0EE402A33EEE10AB0EE61
:10062000614A00EE224A80ED004AB7EE000A30EE41
:10063000620A20EE020A81ED000A08E0DFF85C0A97
:100640005FF07E510160DFF8500A00210160DFF8A1
:10065000480ADFF8201B02680A6090ED000A704724
:1006600001006041704738B504000D002900C9B28F
:10067000200000F01BF831BD70B504000D0016001D
:1006800020000078C0B2062805D13200D2B2200086
:10069000290000F08BF870BD38B504000D0029006A
:1006A000C9B22000C0B200F0E9F831BD3EB5040087
:1006B0000D002800C0B2002809D0022819D00FD39D
:1006C000042833D01ED3062858D043D36AE0042030
:1006D0000090012303220621200000F06CFE61E05F
:1006E00001200090662303220621200000F063FE13
:1006F00058E004200090362303220621200000F059
:100700005AFE4FE0DFF8FC0A818802290DD101680A
:1007100001918088022190FBF1F080B20090362395
:1007200006220621200000F094FE3BE0DFF8D40A08
:10073000818802290DD1016801918088022190FBF6
:10074000F1F080B20090382306220621200000F04C
:1007500080FE27E0DFF8AC0A818802290DD101680C
:1007600001918088022190FBF1F080B200903E233D
:1007700006220621200000F06CFE13E0DFF8840A58
:10078000818802290DD1016801918088022190FBA6
:10079000F1F080B200903F2306220621200000F0F5
:1007A00058FEFFE737BD0000000000002DE9F843C8
:1007B00004000D0016000020ADF8000000273000F6
:1007C000C0B2002807D0401E21D0401E2CD0401EB1
:1007D000032847D949E00320ADF800000422694608
:1007E000200000F003FA8046DFF81C9A19F104019A
:1007F000404601F0E3F804226946200000F0F6F9D3
:10080000070019F10801380001F0D8F82DE00320A5
:10081000ADF8000002226946200000F0E7F9070069
:10082000DFF8E409476220E00320ADF8000004226D
:100830006946200000F0DAF98046DFF8CC9940469E
:1008400000B200F0A9F9A9F81C00042269462000B2
:1008500000F0CCF90700380000B200F0B2F9A9F8B6
:10086000200002E000F046F8FFE7BDE8F183000059
:1008700095BFD63317B7D138CDCC4C3E0200D2B29B
:10088000002A062A1BD80A00D2B2012A0ED1DFF8AC
:10089000142700235370012313700200D2B2002AE0
:1008A0000CD10122DFF86439DA7007E0DFF8F426B2
:1008B0005378032B02DA53785B1C5370FFE7DFF8A1
:1008C000E4365A78002A12D05A78032A0FDB002225
:1008D0001A7000225A6000229A6000229A83002235
:1008E0001A8400225A620022DFF82039DA70704739
:1008F00000007A4480B50320DFF84C16087004210C
:10090000DFF8480600F030FD01BD80B5DFF80009D2
:100910000078DFF8381408700220DFF82C16087011
:100920000421DFF8280600F00DFD01BD2DE9F0419E
:1009300004000D0016002F00DFF8C888404601F0C3
:100940006FF9300080B2022802D004280BD01DE0DD
:100950007878D8F8001008703878D8F80010487007
:10096000A8F8046015E07878D8F800100870387896
:10097000D8F800104870F878D8F800108870B87867
:10098000D8F80010C870A8F8046002E00020A8F8A9
:100990000400DFF87C0804700120DFF87818087084
:1009A000BDE8F08170B402000223080040B20128C3
:1009B00028D1002004001D00E4B2EDB2AC421CD2EC
:1009C000DFF8544815000600F6B234F916602DB26F
:1009D000B54210D10500EDB21E00F6B2761EB5424A
:1009E00003D1C0B234F910003BE0C0B204EB4000C8
:1009F000B0F9020035E0401CDCE7DFF81C08B0F974
:100A000000002EE008005FF0FF3440B2A04224D185
:100A1000002420001D00C0B2EDB2A84218D2DFF8B9
:100A2000F80715002600F6B230F916602DB2B5426F
:100A30000CD12500EDB2002D02D1B0F9000010E07C
:100A4000E4B200EB440030F9020C0AE0641CE0E779
:100A5000DFF8C407B0F9000003E0DFF8BC07B0F925
:100A6000000070BC704770B402000523080040B25B
:100A7000012828D1002004001D00E4B2EDB2AC42F0
:100A80001CD2DFF8984715000600F6B234F916605C
:100A90002DB2B54210D10500EDB21E00F6B2761EA1
:100AA000B54203D1C0B234F910003BE0C0B204EB50
:100AB0004000B0F9020035E0401CDCE7DFF85C07DD
:100AC000B0F900002EE008005FF0FF3440B2A04211
:100AD00024D1002420001D00C0B2EDB2A84218D2DB
:100AE000DFF8380715002600F6B230F916602DB28F
:100AF000B5420CD12500EDB2002D02D1B0F90000B5
:100B000010E0E4B200EB440030F9020C0AE0641C8F
:100B1000E0E7DFF80807B0F9000003E0DFF8FC06C3
:100B2000B0F9000070BC704730B401000222002010
:100B300003001400DBB2E4B2A3420ED20B00DFF8D4
:100B4000D8460500EDB234F915401BB2A34202D1DC
:100B5000C0B200B202E0401CEAE7002030BC70479F
:100B600030B401000522002003001400DBB2E4B21F
:100B7000A3420ED20B00DFF8A4460500EDB234F913
:100B800015401BB2A34202D1C0B200B202E0401C29
:100B9000EAE7002030BC704701000222080000B2E2
:100BA00000280CD408001300DBB200B21BB298423C
:100BB00005DADFF8640609B230F9110000E0002020
:100BC000704701000522080000B200280CD408007C
:100BD0001300DBB200B21BB2984205DADFF83C0624
:100BE00009B230F9110000E000207047F0B40300B2
:100BF00000200C881500EDB2042D16D12500ADB2F1
:100C00001D44AE782500ADB21D44ED7855EA0625A9
:100C10002600B6B29E5D2700BFB21F447F7857EA18
:100C2000062757EA054738000DE01500EDB2022D02
:100C300009D12500ADB25D5D2600B6B21E447678BE
:100C400056EA052630000D8855FA82F50D80F0BC75
:100C5000704770B504000D00DFF8C46501224FF441
:100C60008051300001F041FA0A2001F05FFA4FF4A0
:100C70007A732A0092B22100DFF8A80501F0A7FAE2
:100C800000224FF48051300001F02FFA70BD2DE9A1
:100C9000F0412DED028B8EB0F0EE408AB0EE608A0E
:100CA000322100226C46200000F00AFB00270024BD
:100CB0000025DFF8F082C8ED058A88ED068A98EDF8
:100CC000050A00F053FF060098ED060A00F04EFFFB
:100CD000804668463100090E3A00D2B281547F1C2A
:100CE0003100090C3A00D2B281547F1C3100090A4C
:100CF0003A00D2B281547F1C3900C9B246547F1CDD
:100D00004146090E3A00D2B281547F1C4146090C7B
:100D10003A00D2B281547F1C4146090A3A00D2B24D
:100D200081547F1C3900C9B200F801807F1C3A0051
:100D3000D2B292B26946DFF8F00402F0BFFA0EB008
:100D4000BDEC028BBDE8F081F8E40008DE25002050
:100D50005C25002070B500240025DFF8CC04007865
:100D6000C0B2FF283AD0DFF8C4040178C9B209063E
:100D7000DFF8BC040078C0B251EA0041DFF8B404E7
:100D80000078C0B251EA0021DFF8AC040078C0B2AC
:100D900001430C00DFF8A4040178C9B20906DFF8AA
:100DA000A0040078C0B251EA0041DFF8980400784E
:100DB000C0B251EA0021DFF890040078C0B20143CC
:100DC0000D00DFF8446416F11401200000F0F6FD78
:100DD00016F11801280000F0F1FD05E0DFF8280405
:100DE000002141610021816170BD00009C0900204B
:100DF000DC250020A80400204C25002070B500242C
:100E00000025DFF84C040078C0B2FF283DD0DFF8A1
:100E10003C64DFF8400400783070DFF83C0401786F
:100E2000C9B20906DFF834040078C0B251EA0041C3
:100E3000DFF82C040078C0B251EA0021DFF8240466
:100E40000078C0B201430C00DFF81C040178C9B27D
:100E50000906DFF818040078C0B251EA0041DFF853
:100E600010040078C0B251EA0021DFF808040078CD
:100E7000C0B201430D0016F10801200000F09EFDF4
:100E8000311D280000F09AFD09E0DFF8C0030021C1
:100E90000170DFF8E4138160DFF8E013416070BD9A
:100EA00078B591B004000D003C21002202AE300064
:100EB00000F006FA0020ADF8040003211A2002F029
:100EC0005FFB0B2000900023DFF8B42301A902A8E8
:100ED00000F05EFD4FF47A73BDF8042002A9D148FA
:100EE00001F075F912B070BD0000604178B591B0A5
:100EF00004000D003C21002202AE300000F0E0F9B9
:100F00000020ADF80400C84802F0A8F9D04802F06B
:100F1000A5F9CE4800210170DFF860138160D64941
:100F200041600D2000900023D64A01A902A800F0DC
:100F30002FFD4FF47A73BDF8042002A9B94801F0DF
:100F400046F912B070BD0000C8240020E80400205B
:100F500038B590B004000D0003A8CB49322202F04E
:100F60001FFDCA48D0E90023CDE9012303A8019061
:100F70000023C748027802A903A800F094FC0220CD
:100F8000009000237CA202A903A800F001FD4FF409
:100F90007A73BDF808200199A24801F018F911B040
:100FA00030BD00007C240020E925002054240020CE
:100FB000F8B504000D0000262068007830283ADBE0
:100FC000206800783A2836DA002700200100C9B2EC
:100FD000A28889B291420FD221680200D2B2895C04
:100FE000302905DB21680200D2B2895C3A2900DB96
:100FF00002E07F1C401CE9E73900C9B2206800F01C
:101000007FFD0600B6F5807F0DD2A1484178300003
:10101000C0B202F0B5FA4FF47A73022278A1814887
:1010200001F0D5F80EE04FF47A73052299497D4816
:1010300001F0CDF806E04FF47A730522954979481E
:1010400001F0C5F8F1BD38B590B004000D0003A85B
:101050009149322202F0A4FC9048D0E90023CDE966
:10106000012303A8019000238948427802A903A81C
:1010700000F019FC0220009000233FA202A903A85F
:1010800000F086FC4FF47A73BDF80820019965489A
:1010900001F09DF811B030BDB4250020800500207E
:1010A000F8B504000D00002620680078302839DBF0
:1010B000206800783A2835DA002700200100C9B2FC
:1010C000A28889B291420FD221680200D2B2895C13
:1010D000302905DB21680200D2B2895C3A2900DBA5
:1010E00002E07F1C401CE9E73900C9B2206800F02B
:1010F00007FD06000C2E0DD23100C9B264480078FD
:1011000002F03EFA4FF47A7302223DA1454801F005
:101110005EF80EE04FF47A7305225E49414801F013
:1011200056F806E04FF47A7305225A493D4801F01B
:101130004EF8F1BD2C24002080B5FFF70BFEFFF721
:101140005DFE57485749C0F8A4135749C0F8B41377
:101150005649C0F8C4135649C0F8D4135549C0F8CD
:10116000E4135549C0F8F41302F07DFC02F06CFC66
:1011700001BD0000B82500200D0A000070B5002058
:10118000002400252800C0B2082836DA4B4E28007B
:10119000C0B200013044407801282CD10120040065
:1011A0002800C0B200013044406800280ED002F090
:1011B0007DFC2900C9B2090131444968401A29005F
:1011C000C9B2090131448968884214D3002029003A
:1011D000C9B209013144487002F068FC2900C9B263
:1011E0000901314448602800C0B22900C9B2090190
:1011F0003144C96888476D1CC4E72000C0B270BD87
:101200004F4B0000680500207C240020B025002002
:10121000E8250020C8240020700500207405002067
:1012200000080048041F0020000802080208020805
:101230000308020804080208050802080608020854
:101240000708020808080208090802087825002093
:10125000001002080210020803100208041002081D
:1012600005100208061002080710020808100208FC
:10127000091002080A100208000048420000164443
:1012800020E30008D0E00008F4DC000800E50008D6
:10129000EC090020F0E4000828DD000808E500085B
:1012A0008C050020A10E0008ED0E0008510F00086B
:1012B000B10F000847100008A1100008E804002042
:1012C00062F30F2262F31F42401810F0030308D0AC
:1012D000C91A1FD3DB0748BF00F8012D28BF20F82B
:1012E000022D130030B414461546103928BF20E9EA
:1012F0003C00FAD8490728BF20E90C0048BF40F855
:10130000042D890028BF20F8022D48BF00F8012DC8
:1013100030BC7047C91818BF00F8012DCB0728BF93
:1013200000F8012D7047020001200B00DBB21B0109
:101330001344587000200B00DBB21B0113445860AB
:101340000120704738B504000D0001202900C9B202
:1013500009012144487002F0A9FB2900C9B2090122
:1013600021444860012032BD020000200B00DBB2A6
:101370001B01134458700120704730B403004FF62E
:10138000FF7000248C4213DA1A5D50400822002AB4
:101390000CD0C50706D580B2400880F4204090F0FC
:1013A000010001E080B24008521EF0E7641CE9E74A
:1013B00080B230BC70472DE9F84305000E001700DD
:1013C0009846089C5FF000092868494689B246544F
:1013D00019F101092868494689B2475419F10109F0
:1013E000404680B2000A29684A4692B2885419F1F0
:1013F00001092868494689B200F8018019F10109FC
:10140000200080B2000A29684A4692B2885419F135
:1014100001092868494689B2445419F1010949462D
:1014200089B22868FFF7A9FF010028684A4692B2EE
:10143000815419F10109080080B2000A2A684B465C
:101440009BB2D05419F10109A5F804900120BDE820
:10145000F2832DE9F84F06000F00904699460A9D49
:10146000DDF82CA0002400213068220092B28754BD
:10147000641C3068220092B200F80280641C484666
:1014800080B2000A326823009BB2D054641C3068DA
:10149000220092B200F80290641C4046C0B20628B6
:1014A00002D0102807D01CE0280080B2012801D00B
:1014B000002040E015E0280080B2000A32682300D6
:1014C0009BB2D054641C3068220092B28554641CD4
:1014D0002800C0B24000326823009BB2D054641C84
:1014E000FFE75FF0000B584680B2290089B2B0EBED
:1014F000410F0BDA584680B21AF80000316822001A
:1015000092B28854641C1BF1010BECE7210089B2F4
:101510003068FFF732FF01003068220092B2815438
:10152000641C080080B2000A326823009BB2D054C9
:10153000641CB4800120BDE8F28F2DE9F84F05004E
:101540000E00170098460A9CDDF82C905FF0000B07
:10155000002029685A4692B28E541BF1010B29686B
:101560005A4692B28F541BF1010B2100C9B24900B7
:101570002A685B469BB2D1541BF1010B5FF0000A55
:10158000504680B2210089B2B0EB410F0CDA5046D0
:1015900080B219F8000029685A4692B288541BF1AB
:1015A000010B1AF1010AEBE7594689B22868FFF7E7
:1015B000E4FE010028685A4692B281541BF1010BE7
:1015C000080080B2000A2A685B469BB2D0541BF127
:1015D000010BA5F804B00120BDE8F28F2DE9F84F0A
:1015E00005000E00170098460A9CDDF82C905FF06D
:1015F000000B5FF0000A2868594689B246541BF177
:10160000010B2868594689B247541BF1010B40462B
:1016100080B2000A29685A4692B288541BF1010B25
:101620002868594689B200F801801BF1010B380087
:10163000C0B2062802D010281DD02CE0200080B2B5
:10164000012801D000203EE000208246504680B2B2
:10165000210089B2B0EB410F0CDA504680B219F884
:10166000000029685A4692B288541BF1010B1AF106
:10167000010AEBE70FE0200080B2000A29685A4611
:1016800092B288541BF1010B2868594689B2445420
:101690001BF1010BFFE7594689B22868FFF76DFE81
:1016A000010028685A4692B281541BF1010B0800D0
:1016B00080B2000A2A685B469BB2D0541BF1010B32
:1016C000A5F804B00120BDE8F28F38B50400002C65
:1016D00001D1012031E04CF6CC402168086045F290
:1016E000555021680860606821684860A0682168DA
:1016F000886002F0DBF905002068C06810F0070F71
:101700000DD002F0D3F9401B41F602018842F3D319
:101710002068C06810F0070FEED003200DE02068AD
:101720000069E168884203D0E0682168086103E04D
:101730004AF6AA2021680860002032BD01004AF65E
:10174000AA200A6810600020704730B4002513E01A
:1017500050F8042BD30744BFA9F101039A18091FBD
:10176000042942F8045BFAD213468C0744BF158063
:101770009B1CC90748BF1D7050F8041B0029E7D106
:1017800030BC704701000800C0B2002801D1012020
:1017900021E00800C0B2FF2801D10A201BE00800A8
:1017A000C0B2FE2801D1642015E00800C0B2FD28B7
:1017B00002D14FF47A700EE00800C0B2FC2802D1CA
:1017C00042F2107007E00800C0B2FB2802D1DFF837
:1017D000980300E0012070472DE9F24F82469346BE
:1017E000002000210A260027B046B946009A158835
:1017F000BBF1000F08D5DBF100042D202A0092B2C6
:101800000AF802006D1C00E05C4620000021424600
:101810004B4602F051F9002901D1002808D0A6FB5F
:10182000080106FB091107FB081180468946ECE711
:10183000404649460A22002302F03EF906000F0006
:10184000002F01D1002E28D02000002132003B00C3
:1018500002F032F93030290089B20AF801006D1C1B
:10186000A0465FF000092000002132003B0002F09A
:1018700023F9A6FB002306FB013307FB0033B8EB7B
:10188000020079EB03010400300039000A22002332
:1018900002F012F906000F00D2E700980580280038
:1018A000C0B2BDE8F28F2DE9FE4F06000F00904652
:1018B0000020ADF800000020002400215FF0000BA4
:1018C000B7F80090B8F1000F02D5D8F1000500E09C
:1018D0004546424639003000FFF77EFFB7F800A0CA
:1018E000002D4FD09DF80800FFF74CFF01008D42FE
:1018F00005D20A2045431BF1010B002DF7D15846B4
:10190000C0B2002821D050460200D2B2324412F8B0
:10191000012C2D2A06D00200D2B24B4692B29BB2C5
:101920009A4208D130220300DBB2F2541AF1010AC4
:10193000BBF1010BE3E70200D2B2324412F8012CF2
:101940000300DBB2F254401EDEE70A20B1FBF0F4E4
:1019500050468346002C15D00A20B4FBF0F45846BC
:10196000C0B2304410F8010C5946C9B27054BBF1F2
:10197000010B002CEED12E205946C9B270541AF139
:10198000010AE7E7A7F800A05046C0B2BDE8FE8F05
:10199000F0B4049C00252E00B6B2A6420BD20E88ED
:1019A000771C0F802F00BFB217FA83F7D75DB6B24E
:1019B00087556D1CEFE7F0BC704700002DE9F34F31
:1019C00081B02DED028B9FED658A00240125002654
:1019D000F7EE008A00273800C0B2202864DA0398A6
:1019E000F84010F0010004003800C0B2172829DACE
:1019F00018EE900A02F078F982468B462000C0B2B9
:101A000002F096F9804689463800C0B2D0F117003E
:101A10005FF0FF31484302F099F941EC110B9FED63
:101A2000500B02F0A8F951EC100B42464B4602F065
:101A3000ABF952465B4602F079FA02F035FB08EE4C
:101A4000900A2FE03800C0B21F2824DA3000C0B25C
:101A500002F06EF982468B462000C0B202F068F9AF
:101A6000804689463800C0B2173802F06FF941EC61
:101A7000110B9FED3B0B02F07EF951EC100B42462F
:101A80004B4602F081F952465B4602F04FFA02F0F3
:101A90003FFB060006E02000C0B2012802D15FF043
:101AA000FF3005007F1C96E7280040B202F04EF997
:101AB000804689463000C0B27F3802F047F941ECD9
:101AC000110B9FED270B02F056F951EC100B42461B
:101AD0004B4602F059F98046894618EE900A02F00A
:101AE00003F942464B4602F04FF902F0DDFA00EEF0
:101AF000100A049880ED000ABDEC028BBDE8F78F58
:101B000070B4030000220024002000252A000E00EB
:101B1000D2B2F6B2B2421FD22A00D2B29A5C302AB6
:101B20000ADB2A00D2B29A5C3A2A05DA2A00D2B23B
:101B30009A5C303A140001E0002214002A00D2B26C
:101B4000002A03D12200D2B2100003E00A2250433F
:101B500050FA84F06D1CD9E770BC7047000000009B
:101B60000000000000000040A086010010B42DED30
:101B7000010A00206A460023042B07D2D45C190016
:101B8000C9B2C9008C4020435B1CF5E712BC70470A
:101B900038B504000D00DFF8FC010168200000F0FA
:101BA00006F8A84201D3012000E0002032BD8142A6
:101BB00004D25FF0FF32101A081800E0081A7047CC
:101BC00038B52DED048B08EE100A0C001500DFED82
:101BD000438A2800C0B2FB2810DBB8EEC89A280060
:101BE000C0B24042C0B200F08BF829EE009A00214A
:101BF0002000B0EE490A00F0B1F80EE0B8EEC89A45
:101C00002800C0B200F07CF889EE009A2900C9B221
:101C10002000B0EE490A00F0A1F8BDEC048B31BD04
:101C200010B400210A00838892B29A4206D20022A0
:101C300003680C00A4B21A55491CF3E70022828005
:101C400010BC704710B4040013005A1E9BB2002B46
:101C500002D02170641CF7E710BC704770B5040017
:101C60000D001600DFF8240100782100C9B2884277
:101C700009D3DFF824211068002804D0310089B28C
:101C800028001268904770BD38B504000D00280088
:101C900002F05CFA020092B229002000C0B2FFF705
:101CA000DDFF31BD70B504000D00280002F04EFAD2
:101CB000020092B229002000C0B2FFF7CFFFDFF888
:101CC000DC603068002807D0280002F03FFA0100ED
:101CD00089B228003268904770BD00000000000003
:101CE00030B404000D0013005A1E9BB2002B04D028
:101CF0002B7823706D1C641CF5E730BC7047000026
:101D000010B504002000C0B2FB2816DB2000C0B2D2
:101D1000D0F5807002F01AF841EC110B9FED200B0A
:101D200002F029F853EC102B0020194902F02AFA8E
:101D300002F0BAF900EE100A0FE02000C0B201F084
:101D4000F7FF41EC110B9FED160B02F014F851EC6C
:101D5000100B02F0A9F900EE100A10BD38B52DEDF8
:101D6000028B82B0B0EE408A04000D0018EE100A1B
:101D700001F0BAFFCDE900012A000B49200002F072
:101D800025FB02B0BDEC028B31BD0000F009002044
:101D90000000F03FC4250020CC250020C8250020ED
:101DA000000000000000244040E50008F8B40300F3
:101DB00000250868E840002800F0D78001260F6859
:101DC00016FA05F007403A00002A00F0CC800879A6
:101DD00010F00300012804D0087910F00300022855
:101DE0001DD19F685FF0030C2800C0B240001CFAB0
:101DF00000FC37EA0C07D1F80CC02800C0B2400044
:101E00001CFA00FC5CEA07079F605868AE40B043CC
:101E10004E68C6F30016AE40304304005C6008799B
:101E200010F0030003280ED0DE6803272800C0B29C
:101E300040008740BE438F682800C0B24000874002
:101E40003E433400DC60087910F00300022818D10A
:101E50002800C00803EB8000066A0F2715F0070072
:101E6000C0B280008740BE430F6915F00700C0B2C2
:101E7000800087403E4334002800C00803EB800008
:101E800004621E6803272800C0B240008740BE439A
:101E90000F7917F003072800C0B2400087403E4387
:101EA00034001C60486810F4403F5CD095480668D8
:101EB00056F001060660006810F0010000900098DE
:101EC000914F2800800857F820605FF00F0C15F044
:101ED0000300C0B280001CFA00FC36EA0C06B3F125
:101EE000904F01D1002414E08848834201D101249D
:101EF0000FE08748834201D102240AE085488342EB
:101F000001D1032405E08448834201D1042400E088
:101F1000072415F00300C0B2800084402643280047
:101F2000800847F820607D4C206890434F68FF028E
:101F300000D5104320607A4E346894434F68BF0246
:101F400000D514433460774E306890434F68BF0328
:101F500000D510433060744E346894434F68FF03DB
:101F600000D5144334606D1C23E7F1BC70472DE9A4
:101F7000F041030000250800E840002800F0A88098
:101F8000012616FA05F008400200002A00F09E80A3
:101F9000DFF874C1280080085CF820000F2715F0D6
:101FA000030E5FFA8EFE5FEA8E0E17FA0EFE1EEA31
:101FB00000000400B3F1904F02D15FF0000E19E071
:101FC0005248834202D15FF0010E13E05048834231
:101FD00002D15FF0020E0DE04E48834202D15FF065
:101FE000030E07E04C48834202D15FF0040E01E08B
:101FF0005FF0070E15F00300C0B280001EFA00FE6D
:1020000074452CD14848D0F800E03EEA020EC0F8F2
:1020100000E04448D0F800E03EEA020EC0F800E0DC
:102020003F48D0F800E03EEA020EC0F800E03B482E
:10203000D0F800E03EEA020EC0F800E015F0030020
:10204000C0B2800017FA00F00400280080085CF895
:102050002000A043AE465FEA9E0E4CF82E005FF0D3
:10206000030C1868AE465FFA8EFE5FEA4E0E1CFA4D
:102070000EFE5EEA000018602800C00803EB800E28
:102080002800C00803EB8000D0F8208015F007007E
:10209000C0B28000874038EA0707CEF82070986801
:1020A0002F00FFB27F001CFA07F7B843986058680A
:1020B000AE4030EA06065E60DE682800C0B240002E
:1020C0001CFA00FC36EA0C0CC3F80CC06D1C52E77D
:1020D000BDE8F081020010690B009BB2184201D0EC
:1020E000012000E00020C0B270471300DBB2002BDB
:1020F00003D00B009BB2836102E00B009BB28362B2
:1021000070470000601002400800014000040048D1
:1021100000080048000C0048001000480804014076
:102120000C040140040401400004014070B50400A7
:1021300001F0BCFC0500260016F1010F02D0044896
:102140000078361801F0B2FC401BB042FAD370BDE3
:10215000EF09002010B50400002C01D1012035E06A
:10216000A0690028FFD1E06F002805D1002084F885
:102170007800200002F0A2F92420E06720680068BF
:102180004008400021680860606A002802D02000F2
:1021900000F038FC200000F0B9FA012801D101203C
:1021A00014E02068406830F490402168486020685E
:1021B000806830F02A00216888602068006850F04C
:1021C000010021680860200000F089FC10BD2DE9A5
:1021D000FC4706000D0017009846F06F202859D1E3
:1021E000002D03D0380080B2002801D1012052E038
:1021F0000020C6F884002120F06701F057FC8146DA
:10220000A6F85070A6F85270B068B0F5805F05D19E
:102210003069002802D10024AA4602E02C005FF0B9
:10222000000AB6F85200002822D0CDF800804B46B4
:1022300000228021300000F0BBFC002803D02020C9
:10224000F067032027E0002C08D1BAF80000C00591
:10225000C00D316808851AF1020A03E02078316860
:102260000885641CB6F85200401EA6F85200D8E754
:10227000CDF800804B4600224021300000F098FC51
:10228000002803D02020F067032004E02020F0671E
:10229000002000E00220BDE8F68770B505000C00C4
:1022A0001600D5F88000202824D1002C03D030005F
:1022B00080B2002801D101201DE000202866286896
:1022C000DFF8441488420ED02868406800020AD51E
:1022D000286850E8000F50F0806001002A6842E84A
:1022E00000100028F4D1320092B22100280000F042
:1022F000AEFC00E0022070BD70B50400E56FD4F8BC
:10230000806020688068000624D5212D22D12068B5
:10231000083050E8000F30F080000100206810F114
:10232000080242E800100028F1D1206F00280ED0EA
:10233000206F02F05FFB002809D0206F02F02CFC18
:10234000202804D11020C4F8840003202CE02000B1
:1023500000F053FD20688068400624D5222E22D14B
:102360002068083050E8000F30F04000010020687D
:1023700010F1080242E800100028F1D1606F002837
:102380000ED0606F02F036FB002809D0606F02F0BB
:1023900003FC202804D11020C4F88400032003E0AB
:1023A000200000F038FD002070BD2DE9F047060048
:1023B0003068C7693068D0F800803068D0F808907D
:1023C00040F60F043C40002C0BD1B80609D55FEA5B
:1023D000886006D5B06E002802D03000B16E884704
:1023E0008FE1002C00F0AA805FEAC97005D4DFF805
:1023F0000C0618EA000F00F0A18017F00100C0B22F
:1024000000280BD05FEAC85008D501203168086267
:10241000D6F8840050F00100C6F88400B8070DD546
:1024200019F00100C0B2002808D00220316808620B
:10243000D6F8840050F00400C6F8840078070DD563
:1024400019F00100C0B2002808D0042031680862E9
:10245000D6F8840050F00200C6F88400380710D582
:102460005FEA886004D419F00100C0B2002808D0E7
:10247000082031680862D6F8840050F00800C6F8D9
:10248000840038050CD55FEA481009D54FF4006088
:1024900031680862D6F8840050F02000C6F8840045
:1024A000D6F88400002848D0B80608D55FEA8860CE
:1024B00005D5B06E002802D03000B16E8847D6F83E
:1024C0008400050030688068400602D415F0280FAB
:1024D0002DD0300000F09FFC30688068400622D587
:1024E0003068083050E8000F30F0400001003068DC
:1024F00010F1080242E800100028F1D1706F0028A6
:102500000DD0DFF8FC04716F8863706F02F09CFAE5
:10251000002812D0706F716F896B88470DE0300012
:1025200002F08EFB09E0300002F08AFB05E030008B
:1025300002F086FB0020C6F88400E2E0306E01283D
:1025400040F0BD80F80640F1BA805FEAC86040F113
:10255000B6801020316808623068806840066DD50A
:10256000706F0068D0F804A0504680B2002852D0A6
:102570005046B6F8581080B288424CD2A6F85AA0FD
:10258000706F00680068800639D4306850E8000F2A
:1025900030F480700100326842E800100028F4D165
:1025A0003068083050E8000F4008400001003068F3
:1025B00010F1080242E800100028F1D1306808301C
:1025C00050E8000F30F040000100306810F10802C0
:1025D00042E800100028F1D12020C6F88000002039
:1025E0003066306850E8000F30F0100001003268AB
:1025F00042E800100028F4D1706F02F0FBF90220CD
:102600007066B6F85810B6F85A00091A89B2300048
:1026100002F0F8FA11E05046B6F8581080B288423D
:102620000BD1706F00680068800606D502207066C6
:10263000B6F85810300002F0E5FA62E0B6F858003B
:10264000B6F85AA0B0EB0A0AB6F85A00002835D0FE
:10265000504680B2002831D0306850E8000F30F486
:1026600090700100326842E800100028F4D1306810
:10267000083050E8000F400840000100306810F1B9
:10268000080242E800100028F1D12020C6F880009E
:10269000002030660020B066306850E8000F30F04F
:1026A00010000100326842E800100028F4D1022036
:1026B0007066514689B2300002F0A4FA21E0F802B7
:1026C0000AD55FEA492007D55FF4801031680862B7
:1026D000300002F045FB14E0380609D55FEA0860D7
:1026E00006D5F06E002802D03000F16E884708E071
:1026F000780606D55FEA486003D5300000F055FC47
:10270000FFE7BDE8F0870000008000402DE9F047BA
:1027100004000026DFF8A81920688842FFD0A268CC
:102720002069024360690243E0690243206803684C
:10273000DFF8900903401343206803602068436872
:1027400033F44053E068034320684360D4F81880B2
:102750002068884202D0206A50EA08082068806811
:1027600030F4306058EA0000226890602068DFF89A
:10277000482A904216D1DFF8440A006810F003009E
:10278000002805D0022805D006D3032806D007E08C
:10279000012760E002275EE004275CE008275AE09A
:1027A000102758E02068DFF8182A904217D1DFF888
:1027B0000C0A006810F00C00002806D0042808D08D
:1027C000082804D00C2806D007E0002743E00227A1
:1027D00041E004273FE008273DE010273BE0206868
:1027E000DFF8E029904217D1DFF8D009006810F037
:1027F0003000002806D0102808D0202804D0302827
:1028000006D007E0002726E0022724E0042722E084
:10281000082720E010271EE0206888421AD1DFF840
:102820009C09006810F44060002809D0B0F5806F62
:102830000AD0B0F5006F05D0B0F5406F06D007E0C4
:10284000002708E0022706E0042704E0082702E04A
:10285000102700E010272068884246D13800C0B217
:10286000002806D0022808D0042809D008280BD058
:102870000DE002F0E5FE81460DE0DFF84C990AE03C
:1028800002F071FE814606E04FF4004903E05FF07C
:10289000000901200600B9F1000F00F0A580616871
:1028A00003204143894505D361684FF4805041437B
:1028B000494502D20120060096E04FF4807260681C
:1028C00040080021E2FB09016268002301F0F4F8EE
:1028D0000500B5F5407F05D3B5F5801F02D220680D
:1028E000C56081E0012006007EE0E069B0F5004FA0
:1028F00041D13800C0B2002808D001280AD00228EF
:102900000CD004280DD008280FD011E002F098FE5A
:10291000814611E002F0A1FE81460DE0DFF8A898A3
:102920000AE002F020FE814606E04FF4004903E091
:102930005FF0000901200600B9F1000F54D0606873
:10294000400810EB49006168B0FBF1F00500102D64
:102950000ED3B5F5803F0BD24FF6F0712940C5F389
:10296000420001438A46504680B22168C8603BE07D
:102970000120060038E03800C0B2002808D0012845
:102980000AD002280CD004280DD008280FD011E05E
:1029900002F056FE814611E002F05FFE81460DE036
:1029A000DFF824980AE002F0DEFD814606E04FF4ED
:1029B000004903E05FF0000901200600B9F1000FB3
:1029C00012D0606819EB50006168B0FBF1F00500AF
:1029D000102D07D3B5F5803F04D2280080B22168BE
:1029E000C86001E0012006000020A0660020E0662B
:1029F0003000C0B2BDE8F0870000000020010004F4
:102A0000912F000890F82410090707D501684A683B
:102A100032F40042416B0A4301684A6090F8241086
:102A2000C90707D501684A6832F40032816A0A434F
:102A300001684A6090F82410890707D501684A6840
:102A400032F48032C16A0A4301684A6090F8241067
:102A5000490707D501684A6832F48022016B0A43AE
:102A600001684A6090F82410C90607D501688A6891
:102A700032F48052816B0A4301688A6090F8241016
:102A8000890607D501688A6832F40052C16B0A438F
:102A900001688A6090F82410490613D501684A68D5
:102AA00032F48012016C0A4301684A60016CB1F58E
:102AB000801F07D101684A6832F4C002416C0A43A2
:102AC00001684A6090F82410090607D501684A6831
:102AD00032F40022816C0A4301684A60704738B5BD
:102AE00004000020C4F8840000F0E0FF0500206826
:102AF000006800071DD57FF07E4000902B0000226B
:102B00005FF40011200000F053F8002811D0206875
:102B100050E8000F30F080000100226842E8001009
:102B20000028F4D12020E067002084F878000320FA
:102B30003DE02068006840072CD57FF07E40009083
:102B40002B0000225FF48001200000F031F8002803
:102B500020D0206850E8000F30F490700100226807
:102B600042E800100028F4D12068083050E8000F37
:102B7000400840000100206810F1080242E80010FF
:102B80000028F1D12020C4F88000002084F87800CB
:102B900003200CE02020E0672020C4F88000002003
:102BA000206600206066002084F87800002032BD96
:102BB0002DE9F04105000E0090461F00069C286894
:102BC000C0693040B04201D1012000E00020414600
:102BD000C9B2884238D114F1010FF0D000F066FF7D
:102BE000C01B844201D3002C01D103202DE02868B2
:102BF00000684007E3D5802EE1D0402EDFD0286862
:102C0000C06900070DD5082029680862280000F077
:102C100002F90820C5F88400002085F8780001201A
:102C200013E02868C0690005C9D54FF40060296821
:102C30000862280000F0EFF82020C5F8840000208A
:102C400085F87800032000E00020BDE8F08130B472
:102C500003005965A3F85820A3F85A20002098666D
:102C60009868B0F5805F0BD11869002804D140F254
:102C7000FF10A3F85C0023E0FF20A3F85C001FE036
:102C8000986800280AD11869002803D1FF20A3F80A
:102C90005C0015E07F20A3F85C0011E09868B0F1BB
:102CA000805F0AD11869002803D17F20A3F85C0057
:102CB00006E03F20A3F85C0002E00020A3F85C00DF
:102CC0000020C3F884002220C3F880001868083070
:102CD00050E8000F50F001000400186810F10805DA
:102CE00045E800400028F1D19868B0F5805F06D132
:102CF0001869002803D10FF2D130986602E00FF274
:102D0000D5209866186900280BD0186850E8000F85
:102D100050F4907004001D6845E800400028F4D18C
:102D20000AE0186850E8000F50F0200004001D6809
:102D300045E800400028F4D1002030BC704770B551
:102D400004000D0016006565A4F858600020C4F862
:102D500084002220C4F88000606F002821D00FF288
:102D60001510616FC8620FF2B110616F08630FF246
:102D7000D110616F48630020616F886333009BB29C
:102D8000626D206810F12401606F01F0E7FD0028FA
:102D900007D01020C4F884002020C4F8800001204F
:102DA0002AE0206900280AD0206850E8000F50F47B
:102DB00080700100226842E800100028F4D12068E9
:102DC000083050E8000F50F001000100206810F1B9
:102DD000080242E800100028F1D12068083050E8CD
:102DE000000F50F040000100206810F1080242E896
:102DF00000100028F1D1002070BD016851E8001FCB
:102E000031F0C0010A00036843E800210029F4D131
:102E10002021C1677047016851E8001F31F49071AB
:102E20000A00036843E800210029F4D10168083151
:102E300051E8001F490849000A00016811F1080320
:102E400043E800210029F1D1016E01290AD101686E
:102E500051E8001F31F010010A00036843E8002127
:102E60000029F4D12021C0F8801000210166002142
:102E70008166704738B50400A56A2068006880063E
:102E80003AD40020A5F85A00286850E8000F30F422
:102E9000807001002A6842E800100028F4D12868F8
:102EA000083050E8000F400840000100286810F189
:102EB000080242E800100028F1D12868083050E8E4
:102EC000000F30F040000100286810F1080242E8CD
:102ED00000100028F1D12020C5F88000286E0128BC
:102EE0000AD1286850E8000F30F0100001002A686D
:102EF00042E800100028F4D100206866286E0128FE
:102F000005D1B5F85810280001F07CFE02E0280039
:102F100001F05EFE31BD000038B50400A56A012055
:102F20006866286E012807D1B5F85810490889B29B
:102F3000280001F067FE02E0280002F011FC31BD1C
:102F4000F8B50400A56AEE6FD5F88070286880682F
:102F5000000607D5212E05D10020A5F85200280033
:102F6000FFF74BFF28688068400607D5222F05D160
:102F70000020A5F85A002800FFF74DFFD5F884007F
:102F800050F01000C5F88400280001F059FEF1BD92
:102F900038B50400A56A0020A5F85A000020A5F85D
:102FA0005200280001F04CFE31BD10B5040020682D
:102FB00050E8000F30F040000100226842E80010A5
:102FC0000028F4D12020E0670020E066200002F015
:102FD000C8FB10BD70B50500B5F85C60D5F8800081
:102FE000222866D12868808C040016EA0400696DE6
:102FF0000870686D401C6865B5F85A00401EA5F859
:103000005A00B5F85A00002859D1286850E8000F36
:1030100030F4907001002A6842E800100028F4D1D2
:103020002868083050E8000F400840000100286878
:1030300010F1080242E800100028F1D12020C5F864
:1030400080000020A8660020686628681C49884225
:103050000ED02868406800020AD5286850E8000FA2
:1030600030F0806001002A6842E800100028F4D1A6
:10307000286E012819D100202866286850E8000F22
:1030800030F0100001002A6842E800100028F4D156
:103090002868C069C00602D5102029680862B5F802
:1030A0005810280001F0AEFD09E0280001F090FD65
:1030B00005E02868008B50F008002968088370BD7F
:1030C00000800040F369FFEFF8B50500B5F85C70CB
:1030D000D5F88000222867D12868808C0400686DAC
:1030E000060017EA04003080686D801C6865B5F83A
:1030F0005A00401EA5F85A00B5F85A00002859D1C8
:10310000286850E8000F30F4907001002A6842E807
:1031100000100028F4D12868083050E8000F40085B
:1031200040000100286810F1080242E80010002861
:10313000F1D12020C5F880000020A8660020686634
:103140002868224988420ED02868406800020AD5C3
:10315000286850E8000F30F0806001002A6842E8DB
:1031600000100028F4D1286E012819D1002028660B
:10317000286850E8000F30F0100001002A6842E88B
:1031800000100028F4D12868C069C00602D51020BC
:1031900029680862B5F85810280001F033FD09E0ED
:1031A000280001F015FD05E02868008B50F00800AC
:1031B00029680883F1BD00000038014088100240F2
:1031C00000440040004800400024F400008000401B
:1031D0002DE9F74F82B000265FF0000A5FF0000B88
:1031E00054465D46002000900127DDF80C80DDF894
:1031F0000890049810F0070F2BD10498C008002104
:1032000082468B4602F006FB4FF47A7002F01AFBFE
:1032100000200600300080B20021594517D801D3A4
:10322000504514D2D8E9000104000D0022002B0003
:103230004946002002F096FA07003800C0B2012883
:1032400005D019F1080918F10808761CE2E702F028
:10325000F2FA3800C0B205B0BDE8F08F70B50400D6
:10326000012502F0D7FA06004FF47A7002F0EAFA6C
:103270003000C0B200280FD1C4F3CC20B0F5807F5D
:1032800005D20121C4F3CC2002F048FB04E0012167
:10329000C4F3CC2002F042FB4FF47A7002F0D2FA71
:1032A00005000548016831F00201016002F0C3FA2F
:1032B0002800C0B270BD0000142002402DE9F0418A
:1032C000C0B004000D00160000274FF480710022EA
:1032D000E8464046FDF7F4FF2000FFF7BFFFA520BA
:1032E0008DF8000030008DF801005FF000084046C6
:1032F000310080B289B288420AD2404680B2285C4E
:103300006946424692B21144887018F10108EEE70E
:10331000B61C300080B20821B6B20836361A90FBCF
:10332000F1F001FB0066320092B269462000FFF71F
:103330004FFF002801D0002000E0012040B0BDE890
:10334000F0810268531C0360117070470200002076
:10335000704730B40200DFF81C060023046885883B
:10336000635583885B1C8380DFF80C361B78046808
:103370008588635583885B1C8380012030BC70473F
:10338000F8B504000D00002000212E002268330053
:10339000DBB2D25C23683700FFB23B445F7857EA68
:1033A00002273A0092B2B2F5807F23DA380080B269
:1033B00000281FD0DFF8BC0521683200D2B2895C3A
:1033C00002688388D1548188491C81802168320039
:1033D000D2B21144497802688388D1548188491C4B
:1033E0008180DFF8940541783800C0B200F0C8F859
:1033F000012000E00020F2BD30B40200DFF87405C7
:10340000002304688588635583885B1C8380DFF80C
:1034100068355B7804688588635583885B1C838086
:10342000012030BC7047F8B504000D0000200021D9
:103430002E0022683300DBB2D25C23683700FFB273
:103440003B445F7857EA02273A0092B20B2A1FDA10
:10345000DFF8200521683200D2B2895C02688388D7
:10346000D1548188491C818021683200D2B2114434
:10347000497802688388D1548188491C8180390049
:10348000C9B2DFF8F404007800F07AF8012000E017
:103490000020F2BDF8B504000D000026DFF8DC04C2
:1034A00090ED010AFEF762FB0100DFF8C8040A0094
:1034B000120A03688788DA558288521C8280026863
:1034C0008388D1548288521C82800A00120E0368BD
:1034D0008788DA558288521C82800A00120C0368A1
:1034E0008788DA558288521C82800120F2BDF8B5A7
:1034F00004000D000026DFF8840490ED020AFEF7B8
:1035000035FB0100DFF86C040A00120A03688788A3
:10351000DA558288521C828002688388D15482885E
:10352000521C82800A00120E03688788DA5582884E
:10353000521C82800A00120C03688788DA55828840
:10354000521C82800120F2BD70B504000D00DFF82E
:103550003064012220213000FEF7C7FD0A20FEF76B
:10356000E5FD4FF47A732A0092B22100DFF81404CB
:10357000FEF72DFE002220213000FEF7B6FD70BDC3
:103580007CB504000D00082100226E463000FDF7D6
:1035900097FE0026DFF8E003047045706946027864
:1035A0003300DBB2CA54761C40783200D2B2885461
:1035B000761C3200D2B292B26946DFF8CC03FFF734
:1035C0007DFE73BDDFF8C0030078C0B2FF280AD0CB
:1035D000DFF8A403DFF8B41309780170DFF8B01343
:1035E0000978417005E0DFF890031A21017003218A
:1035F000417070472DE9F04F87B0040000275FF05D
:1036000000085FF000090025DFF88823D2E90001F7
:10361000CDE902010026DFF88023D2E90001CDE9DF
:103620000401DFF850A35046FEF7FAFAA0880828F4
:10363000C0F29B812068A188084410F8010C216821
:10364000A288114411F8021C51EA0021ADF81810AB
:10365000A188891E2068FDF790FEADF81A00BDF81C
:103660001A00BDF81810884240F07D81206800786B
:10367000C1490978884240F07681206880782168C5
:10368000CF7857EA002720684078032805D006281D
:103690006CD0102800F0C38061E1206800792168B7
:1036A000497951EA00210D005FF001084046C0B29F
:1036B000052836DA5FF01409DFF8E0B24046C0B200
:1036C00009FB00F058444068390089B2884225D18E
:1036D000280080B24146C9B209FB01F1594489680A
:1036E00088421BDB002100204246D2B209FB02F2D5
:1036F0005A44D268904701280FD14046C0B209FB16
:1037000000F0584480682D1A4046C0B209FB00F909
:103710000BEB09008068C71900E002E018F101080E
:10372000C4E7BAF8040000281FD0BAF80400022148
:1037300090FBF1F201FB1200002816D1DAF800002C
:103740000190BAF80400022190FBF1F080B20090E1
:103750003B009BB203222068017804A8FDF7EDFE30
:10376000BDF814100498FFF7EFFEFAE00420010002
:10377000C9B2A288921E91420EDA21680200D2B22A
:10378000895C029ABDF80C30D154BDF80C10491C6C
:10379000ADF80C10401CEAE75FF001084046C0B2EB
:1037A000052817DA14227D4B4046C0B25043184416
:1037B0004068390089B2884209D1002102A8C44674
:1037C0005FFA8CFC02FB0CF21A441269904718F164
:1037D0000108E3E7BAF8040000281FD0BAF8040093
:1037E000022190FBF1F201FB1200002816D1DAF859
:1037F00000000190BAF80400022190FBF1F080B2C1
:1038000000903B009BB206222068017804A8FDF7D7
:10381000E5FEBDF814100498FFF796FEA1E0002025
:103820000600206800792168497951EA00210D00DD
:1038300007200100C9B2A288921E91420EDA2168C7
:103840000200D2B2895C029ABDF80C30D154BDF8A6
:103850000C10491CADF80C10401CEAE7280080B29F
:1038600040002168897988424DD1BDF80C0021685B
:10387000897989B2884246D15FF001084046C0B2DA
:10388000052840DA5FF01409DFF810B14046C0B2F5
:1038900009FB00F058444068390089B288422FD1B2
:1038A000280080B24146C9B209FB01F15944896838
:1038B000884225DB310089B202A84246D2B209FB18
:1038C00002F25A4412699047012818D14046C0B20A
:1038D00009FB00F058448068400010FA86F6404624
:1038E000C0B209FB00F0584480682D1A4046C0B2AF
:1038F00009FB00F90BEB09008068C71900E002E042
:1039000018F10108BAE7BAF80400002826D0BAF87E
:103910000400022190FBF1F201FB120000281DD1EE
:10392000206880782168C97851EA00210F00DAF810
:1039300000000190BAF80400022190FBF1F080B27F
:1039400000903B009BB210222068017804A8FDF78C
:1039500045FEBDF814100498FFF7F6FD01E00020C5
:1039600004E0012002E0002000E0002007B0BDE8F4
:10397000F08F0000A0040020EC0900207C2400202F
:10398000000400487C1E002000000208020002081B
:1039900003000208E0E40008E8E400081004002046
:1039A00062B38B0708D0521E11F8013B00F8013BAF
:1039B00000F024808B07F6D1830740F0208000BF01
:1039C000103A07D330B4B1E83810103AA0E83810F4
:1039D000F9D230BC530724BFB1E80810A0E80810A2
:1039E00044BF51F8043B40F8043BD20724BF31F8F0
:1039F000022B20F8022B44BF0B7803707047121F74
:103A000017D35B0009D151F8043B20F8023B1B0C93
:103A1000121F20F8023BF6D20BE051F8043B00F8ED
:103A2000013B1B0A20F8023B1B0C121F00F8013B54
:103A3000F3D238BF121D521E24BF11F8013B00F80B
:103A4000013BF8D870472E0080B501221549164871
:103A5000FEF723FC00220121272002F03EF8272058
:103A600002F050F801BD704738B504000B480D490D
:103A70000A78036885885A558288521C8280828819
:103A800040F2FF139A4201D30022828001220648AD
:103A9000FEF703FC01200249087031BD9C0900209B
:103AA000EC250020EB250020041F002001480068C1
:103AB000704700BFA4250020BBBBE1B1B2F5803F39
:103AC00080F07E80022A1ED98C46B1FBF2F102FB07
:103AD00011C31B0443EA1043B3FBF2FC02FB1C338B
:103AE00080B240EA0343B3FBF2F002FB103240EA3B
:103AF0000C4000237047022A05D98446B0FBF2F03F
:103B000002FB10C270474AB105D100F0010249081A
:103B10005FEA3000704700220023704702F018B8B7
:103B20000B000200002100207047904271EB030C53
:103B3000F6D3B3F5803F2FD2F0B5B3FA83F7B1FADD
:103B400081F4A7F10F0E3D1B5340CEF1200602FA7F
:103B50000EF2F3415340B5F10F0746D80F3C2C4409
:103B60004140C4F12006A040F1414140B1FBF3F6D1
:103B700003FB1611A2FB0645001BA94102D2761ECB
:103B80008018594180EA010221FA0EF362FA0EF21E
:103B900000215A403046F0BD30B4B1FBF3FC03FBCA
:103BA0001C11A2FB0C45001BA94103D2ACF1010C76
:103BB0008018594130BC02460B46604600217047D0
:103BC000B2F1807F65D3F0B5B2FA82F7B1FA81F431
:103BD000C7F10F063D1B22FA06F307F1110EF24161
:103BE00020355A40B5F10F07B8D94140C4F120063D
:103BF000A040F1414140B1FBF3FC03FB1C11A2FBCF
:103C00000C45001BA94103D2BCF1010C801859419D
:103C10000F2F12D30F3FC90341EA5041B1FBF3F616
:103C200003FB1611A2FB0645D4EBC030A94102D21A
:103C3000761E8018594146EACC3C07B34140C7F193
:103C40002006B840F1414140B1FBF3F603FB1611E9
:103C5000A2FB0645001BA94102D2761E80185941DD
:103C600080EA010221FA0EF3C7F1200462FA0EF293
:103C70000CFA07F05A402CFA04F13043F0BD80EA08
:103C8000010221FA0EF3002162FA0EF260465A4058
:103C9000F0BD8C46B1FBF2F102FB11C31B0243EAFB
:103CA0001063B3FBF2FC02FB1C331B024CEA002046
:103CB00043EA1063B3FBF2FC02FB1C331B024CEA29
:103CC000002043EA1063B3FBF2FC02FB1C331B022F
:103CD0004CEA002043EA1063B3FBF2FC02FB1C3207
:103CE0004CEA002000237047C0F3C75181B1FF297F
:103CF00006D0C110400721F0E04101F1605170474A
:103D000041020CBF40F4E0016FF000410020704719
:103D100000F0004100020AD0B0FA80FC00FA0CF07A
:103D200001F16051A1EB0C5101EBD021400570472E
:103D3000014648B1B0FA80F18840C91CC1F58461E0
:103D4000090501EBD021400570470000C11768B19B
:103D50004840401AB0FA80F29040D21CC907C2F520
:103D6000846241EA025202EBD02140057047000014
:103D700041EC100B01BD80B553EC112B51EC100B35
:103D800001F0E8FEF4E70000B0B581EA030C0CF0A6
:103D9000004C40F2FF7515EA11541DBF15EA135788
:103DA000AC42AF4239E0E41923EA455343F48013AF
:103DB000C90241F0004141EA505EC7021100A7FB71
:103DC000020200284FF00000EEFB01204FF000013E
:103DD000E3FB072118BF42F00102401800214941CE
:103DE000E3FB0E01A4F580640F0302D252004041B0
:103DF000494154F101046CDD470872F1004250F171
:103E0000000051EB0451A1F580115CBF41EA0C01A7
:103E1000B0BD4CEA05510020B0BD05EA1357AC42D5
:103E200014BFAF4241E050EA410E1CBF52EA430EBC
:103E300002E061460020B0BD24423C441BD15FEA51
:103E4000070EF6D0090302BF01460020AEF1140EA2
:103E5000B1FA81F7AEEB070401FA07FE0C37C7F1A0
:103E6000200100FA07F7C8404EEA000E23EA455346
:103E700043F48013A2E733F00043B3FA83F704BF9F
:103E8000B2FA82FE77440B3FE41BB7F1200E2FBF3E
:103E900002FA0EF3BB40C7F1200E22FA0EFE38BF25
:103EA00043EA0E03BA40641C82E750EA410E14BF95
:103EB00052EA430E6FF000014FF4001717EB430F67
:103EC0008ABF194617EB410FB5E74CEA05510020B0
:103ED000B0BDD4F10104B4F120070FDAC4F120071A
:103EE000520828BF42F0010210FA07F501FA07F75D
:103EF000E1BF2A43E0403843E1400FE0352C98DC35
:103F0000C7F1200452EA400220FA07F218BF42F03B
:103F1000010231FA07F0A1400A43002172F1004288
:103F200050F1000051EB0C01B0BD000070B44FF037
:103F3000004591EA030F42F18B816B40841A71EBCB
:103F4000030604D26E40001BB141121973414FF4B5
:103F5000001C1CEB410F34BF7CEB430683E00C0DCF
:103F6000A4EB1356362E00F37C80012E45EAC323C2
:103F700041DC43EA525312BFD20292025B0824058D
:103F800045EAC12141EA5051D2EBC020994125D4E4
:103F900007D1B0FA80F610FA06F162D00020203680
:103FA00008E0B1FA81F6B140C6F1200220FA02F22F
:103FB0001143B0404FEAF474B4EB465434F00106B8
:103FC0004FEA74040AD8D6F50016760D04F00044C2
:103FD000F04061FA06F25040F1404840C00A40EA21
:103FE000415021F0004128BF5FEA500550F1000028
:103FF00044EBD12135E0DB0A45EAC121C90AB6F11B
:1040000020050EDD42EA0242120CC5F1200603FA39
:1040100006F6EB4042EA06056D42984161F1000167
:104020000DE062FA06F5F240554063FA06FC82EABA
:104030000C02F3405A406D42904161EB030111F4D0
:10404000801F05D1641E620502D06D0040414941C8
:1040500021F48011430875F1004350F1000041EB59
:10406000045170BC70471CEB410F15D223F0004384
:1040700052EA43060BD04FEA4C0CBCEB410F04D87C
:104080000C0D661E342EB7DDEBE7801A994150EA1D
:10409000410608BF0021E4E708BF1CEB430F28BF1F
:1040A0006FF00001DDE7000001F000428B1AA3F180
:1040B0006051B1F5801F0ADBB1F17F6F1FD242EA78
:1040C000C102C10071F1004142EB507070470B1505
:1040D000C3F10903212B10D2890241EA90518002D9
:1040E0000128494141F0004121FA03F0C3F12003C6
:1040F000994071F1004150417047100070476FF0D6
:10410000000013EB103F5CBF000E42EAC050704746
:10411000C1F30A5340F2FE329B1A14DDD3F120039F
:104120004FEAE17208DDC90241EA505141F0004016
:10413000D84080185040704703F2E13010B1D243AC
:1041400082F00040704700207047000000F101033A
:10415000810704D010F8011B820781B1FAD10268EF
:10416000A2F10131914311F0803104BF50F8042FC6
:10417000F6E709BAB1FA81F100EBD100401CC01A90
:1041800070470000F0B540F2FF7581EA030C0CF0B7
:10419000004C15EA11541DBF15EA1357AC42AF424B
:1041A000E5E0BC41C1F31301C3F31303801A994145
:1041B00043F4801304D2641E4000494180185941E1
:1041C000C90241EA5051B1FBF3F603FB1611A2FB01
:1041D0000675D7EBC020A94102D2761E801859413E
:1041E000C90241EA5051B1FBF3FE03FB1E11A2FBD1
:1041F0000E75D7EBC020A94103D2AEF1010E801895
:104200005941890241EA9051760546EA8E2EB1FB6A
:10421000F3F603FB1611A2FB0675D7EB8020A9412C
:1042200002D2761E80185941C90241EA50514EEA25
:10423000060EB1FBF3F603FB1611A2FB0675D7EBD6
:10424000C020A94102D2761E80185941C90241EA14
:104250005051B1FBF3F703FB1711A2FB0735D3EB6A
:10426000C020A94167F100070CBF004247F00107D9
:1042700066F3D5274FEA1E31B80814F5806412DDC5
:10428000BD0775F1004250EB0E5051EB045111F592
:10429000801F5CBF41EA0C01F0BD4CF07F6141F032
:1042A000E0410020F0BDBD076D0840EA0E5041F42A
:1042B0008011D4F10104B4F120060ADAC4F1200619
:1042C0000200E04001FA06F3E1401843B240154312
:1042D0000EE0342C13DCC6F1200445EA40056D08DD
:1042E00020FA06F2154321FA06F0A1400D43002101
:1042F00075F1004250F1000051EB0C01F0BD0020BF
:104300005FEA0C01F0BDCFB992185B41B3FA83F7B5
:1043100004BFB2FA82F6BF190B3FB7F120062FBFD8
:1043200002FA06F3BB40C7F1200622FA06F638BFB0
:104330003343BA401CB1E419641E33E77F4231F0C5
:104340000041B1FA81F404BFB0FA80F6A4190B3C25
:10435000B4F120062FBF00FA06F1A140C4F12006F7
:1043600020FA06F638BF3143A0403C1B1AE7AC42A6
:104370001ABF05EA1357AF4212E050EA41061CBFCC
:1043800052EA4306BFE750EA4107304661461CBF88
:1043900041EA0551F0BD52EA430C08BFC143F0BDEC
:1043A00000204FF4001616EB410F98BF16EB430F99
:1043B00008BF16EB410F24BFC14305E016EB430FC6
:1043C0000CBF61464CEA0551F0BD00000CB430B59D
:1043D00083B00A4606A9029104460025019400957F
:1043E00002AB01A9084878441E3001F09BFF019AF6
:1043F000157000284EBF04460198041B204603B0E8
:1044000030BC5DF80CFB00BF3BEFFFFF80B5D4482C
:10441000D44901605FF4E1314160002181600021F5
:10442000C160002101610C214161002181610021F5
:10443000016200214162FDF78DFE002801D002F0EB
:10444000B5FF01BD80B5C848C84901604FF4165199
:104450004160002181600021C160002101610C21C7
:104460004161002181610021C161002101620021BF
:104470004162FDF76FFE002801D002F097FF01BDF9
:1044800080B5BB48BB4901604FF416514160002123
:1044900081600021C160002101610C214161002186
:1044A00081610021C1610021016200214162FDF7AB
:1044B00051FE002801D002F079FF01BD38B59EB051
:1044C000040014220021684602F072FF60220021DD
:1044D00006A802F06DFF2068A249884252D1202030
:1044E00006900020119006A802F06CFF002801D071
:1044F00002F05CFFA048016851F001010160006812
:1045000010F00100059005989C48016851F00201E7
:104510000160006810F00200059005984FF44060BB
:1045200000900220019000200290032003900820B8
:10453000049069469248FDF739FC924D92482860F4
:10454000042068600020A8600020E86080202861C6
:10455000002068610020A8610020E8610020286236
:10456000280000F021F9002801D002F01FFF656744
:10457000AC6200220021462001F0AFFA462001F093
:10458000C1FAABE020687949884251D101200690F8
:1045900000200E9006A802F015FF002801D002F0BE
:1045A00005FF7A48016851F480410160006810F409
:1045B0008040059005987148016851F00201016042
:1045C000006810F0020005900598C02000900220BD
:1045D0000190002002900320039007200490694678
:1045E0006748FDF7E3FB6A4D6A482860022068606F
:1045F0000020A8600020E860802028610020686119
:104600000020A8610020E86100202862280000F056
:10461000CBF8002801D002F0C9FE6567AC62002229
:104620000021252001F059FA252001F06BFA55E010
:1046300020685049884251D10420069000201090F3
:1046400006A802F0BFFE002801D002F0AFFE5248DB
:10465000016851F480210160006810F48020059009
:1046600005984648016851F004010160006810F0A7
:104670000400059005984FF44060009002200190DE
:1046800000200290032003900720049069464348CD
:10469000FDF78CFB424D43482860022068600020F3
:1046A000A8600020E8608020286100206861002068
:1046B000A8610020E86100202862280000F074F85A
:1046C000002801D002F072FE6567AC620022002172
:1046D000272001F002FA272001F014FA1FB030BDA4
:1046E00010B5040020681F49884210D12248016893
:1046F0004908490001604FF440612148FDF737FC4B
:10470000606F00F0C1F8462001F003FA27E020684E
:10471000164988420FD11D48016831F4804101607B
:10472000C0211748FDF723FC606F00F0ADF825208D
:1047300001F0EFF913E020680E4988420FD11648C6
:10474000016831F4802101604FF440611348FDF7A6
:104750000EFC606F00F098F8272001F0DAF910BD28
:10476000F41D0020008000407C1E00200038014025
:10477000041F0020004800405C1002404C10024022
:1047800000040048282300208004024060100240FA
:1047900070230020580002405810024000080048D2
:1047A000B82300203000024030B40100002901D1BC
:1047B000012067E00868624A90420AD20A686148AC
:1047C00082181420B2FBF0F0800048645E48086450
:1047D00009E00A685D4882181420B2FBF0F08000FE
:1047E00048645B480864022081F825000868026874
:1047F0006FF30E128B68C868034308690343486966
:10480000034388690343C8690343086A03431A439F
:10481000086802608868B0F5804F2AD0086C4A4B5F
:10482000984213D14B4803680F2491F8445015F077
:104830001C05AC40A343036003684C6891F84450E6
:1048400015F01C05AC402343036012E042480368A6
:104850000F2491F8445015F01C05AC40A3430360AD
:1048600003684C6891F8445015F01C05AC40234394
:1048700003600020C863012081F82500002081F832
:104880002400002030BC704710B40100002901D181
:10489000012053E008680068400840000A68106082
:1048A0000868274A90420AD20A68264882181420CB
:1048B000B2FBF0F0800048642348086409E00A680D
:1048C000224882181420B2FBF0F08000486420488F
:1048D000086400200A681060012091F8442012F05A
:1048E0001C0290400A6C5060086C174A90420AD132
:1048F000184802680F2391F8444014F01C04A340A8
:104900009A43026009E0144802680F2391F844407A
:1049100014F01C04A3409A4302600020C8620020E7
:10492000086300204863002088630020C8630020DB
:1049300081F82500002081F82400002010BC704779
:1049400008040240F8FFFDBF00000240F8FBFDBF75
:1049500000040240A8000240A80402402DE9F041F2
:1049600004000D0016001F005FF0000894F82400FA
:10497000012801D102203BE0012084F8240094F8B2
:10498000250001282DD1022084F825000020E063B5
:104990002068006840084000216808603B00320041
:1049A0002900200000F0FAF8206B002806D02068CB
:1049B000006850F00E00216808600BE02068006875
:1049C00030F00400216808602068006850F00A0098
:1049D000216808602068006850F0010021680860C4
:1049E00004E0002084F82400022080464046C0B243
:1049F000BDE8F0810100002291F82500022806D0D0
:104A00000420C863002081F8240001201BE008680E
:104A1000006830F00E000B681860086800684008F5
:104A200040000B681860012091F8443013F01C031B
:104A300098400B6C5860012081F82500002081F817
:104A400024001000C0B2704738B50400002594F867
:104A50002500022804D00420E063012005001FE0A7
:104A60002068006830F00E00216808602068006847
:104A70004008400021680860012094F8441011F0BB
:104A80001C018840216C4860012084F8250000202A
:104A900084F82400A06B002802D02000A16B884776
:104AA0002800C0B232BD70B50400206C05682068D3
:104AB0000668042094F8441011F01C0110FA01F16A
:104AC0000D4219D0710717D521680968890605D4E8
:104AD0002168096831F004012268116094F84410DB
:104AE00011F01C018840216C4860206B002852D0D6
:104AF0002000216B88474EE0022094F8441011F00A
:104B00001C0110FA01F10D421FD0B1071DD521681B
:104B10000968890608D42168096831F00A01226809
:104B20001160012184F8251094F8441011F01C0143
:104B30008840216C4860002084F82400E06A002846
:104B400029D02000E16A884725E0082094F8441025
:104B500011F01C01884005421DD030071BD520688C
:104B6000006830F00E0021680860012094F84410BD
:104B700011F01C018840216C48600120E063012095
:104B800084F82500002084F82400606B002802D0FF
:104B90002000616B884770BDC06B704730B4012442
:104BA00090F8445015F01C05AC40056C6C6004682E
:104BB00063608468102C04D10468A2600468E1601A
:104BC00003E00468A1600468E26030BC7047000044
:104BD00038B50400404D20682968884202D1012080
:104BE00002F0D6FF20683D490968884202D10120C1
:104BF00003F0E6F820682968884202D10120FEF718
:104C000033FF31BD70B504000D00334E20683168AC
:104C1000884203D1280080B202F0BAFF20682F49F1
:104C20000968884203D1280080B203F0C9F82068DF
:104C30003168884203D1280080B2FEF715FF70BDAD
:104C400010B50400244821680268914202D1002175
:104C5000234A11702168214A1268914202D102212F
:104C60001F4A117021680068814202D104201C494A
:104C7000087002211B48FCF756FB10BD1CB5184CF0
:104C800020780090184B00220021032003F0C0F888
:104C9000207800280ED102F074FF14480188491CC6
:104CA00001800188142903DB0021018002F04CFF00
:104CB00002F04EFF20782078022803D103F07FF81D
:104CC00003F06EF820782078042803D1FEF7CBFE9D
:104CD000FEF7BAFE13BD0000041F00207C1E00205A
:104CE000F0250020900300203CDF0008E025002094
:104CF00070B505000C001600D5F8800020282DD1D5
:104D0000002C03D0300080B2002801D1012026E021
:104D10000120286600206866320092B22100280037
:104D2000FEF70DF801000800C0B2002813D1286E6C
:104D300001280ED110202A681062286850E8000F60
:104D400050F0100002002B6843E800200028F4D146
:104D500001E0012001000800C0B200E0022070BDA7
:104D6000704700002DE9FE4F0500002D01D1012004
:104D70003AE3DFF80499D9F8004014F00C04DFF8A6
:104D80001889D8F8007017F003072878C00640F19A
:104D9000C680002C03D00C2C7AD1012F78D1DFF8FB
:104DA000D4A8DAF80000800704D5A869002801D14A
:104DB000012019E3DAF80000000704D5DAF8000052
:104DC00010F0F00005E0DFF860090068000910F05D
:104DD000F000296A88421ED2286A00F05FFC002891
:104DE00001D0012000E3DAF8000050F00800CAF812
:104DF0000000DAF8001031F0F001286A0143CAF827
:104E00000010DFF82809016831F47F41EA6951EAAE
:104E1000022101601FE0DAF8000050F00800CAF833
:104E20000000DAF8001031F0F001286A0143CAF8F6
:104E30000010DFF8F808016831F47F41EA6951EAAF
:104E400002210160002C06D1286A00F027FC00280E
:104E500001D00120C8E200F086FBDFF8D418D9F8B1
:104E60000020C2F30312895C11F01F01C840DFF873
:104E70000C180860DFF80808006803F0E7F88DF800
:104E800000009DF80000002849D09DF80000ABE22A
:104E9000A86900282DD0DFF8DC97D9F8000050F081
:104EA0000100C9F80000FEF701FE0600D9F8000075
:104EB000800706D4FEF7FAFD801B0328F6D30320F3
:104EC00092E2D9F8000050F00800C9F80000D9F8C3
:104ED000001031F0F001286A0143C9F80010DFF832
:104EE0004C08016831F47F41EA6951EA022101600E
:104EF00015E0DFF88097D9F8000040084000C9F8B5
:104F00000000FEF7D3FD0600D9F80000800706D5A3
:104F1000FEF7CCFD801B0328F6D3032064E228783B
:104F2000C00754D5082C03D00C2C0BD1032F09D16A
:104F3000DFF840070068800349D56868002846D13B
:104F4000012051E26868B0F5803F06D1DFF8240700
:104F5000016851F48031016018E06868B0F5A02F55
:104F60000AD1DFF81007016851F48021016001685F
:104F700051F48031016009E0DFF8F806016831F48E
:104F800080310160016831F4802101606868002887
:104F90000ED0FEF78BFD0600DFF8D8060068800310
:104FA00015D4FEF783FD801B6528F5D303201BE293
:104FB000FEF77CFD0600DFF8BC060068800306D51E
:104FC000FEF774FD801B6528F5D303200CE22878DA
:104FD000800752D5042C03D00C2C15D1022F13D1ED
:104FE000DFF890060068400504D5E868002801D184
:104FF0000120F9E1DFF83407016831F0F8512A693E
:1050000051EA0261016038E0E86800281FD0DFF84B
:105010006496D9F8000050F48070C9F80000FEF7DB
:1050200045FD0600D9F80000400506D4FEF73EFD18
:10503000801B0328F6D30320D6E1DFF8F0060168D1
:1050400031F0F8512A6951EA0261016015E0DFF898
:105050002496D9F8000030F48070C9F80000FEF7FB
:1050600025FD0600D9F80000400506D5FEF71EFD17
:10507000801B0328F6D30320B6E1287800072ED53D
:105080006869002815D0DFF8A096D9F8000050F024
:105090000100C9F80000FEF709FD0600D9F800007C
:1050A00080071CD4FEF702FD801B0328F6D30320E3
:1050B0009AE1DFF87496D9F8000040084000C9F87A
:1050C0000000FEF7F3FC0600D9F80000800706D5C3
:1050D000FEF7ECFC801B0328F6D3032084E128783C
:1050E000400740F181805FF00009DFF848A6DAF858
:1050F0000000C0000DD4DAF8000050F08050CAF86B
:105100000000DAF8000010F08050019001980120B2
:105110008146DFF824B6DBF80000C00513D4DBF8C5
:10512000000050F48070CBF80000FEF7BFFC0600D2
:10513000DBF80000C00506D4FEF7B8FC801B03288E
:10514000F6D3032050E1A868012806D1DFF8EC056A
:10515000016851F00101016017E0A86805280AD133
:10516000DFF8D805016851F004010160016851F0D1
:105170000101016009E0DFF8C40501684908490040
:105180000160016831F004010160A868002810D0B6
:10519000FEF78CFC0600DFF8A4050068800719D430
:1051A000FEF784FC801B41F289318842F3D303204F
:1051B0001AE1FEF77BFC0600DFF880050068800737
:1051C00008D5FEF773FC801B41F289318842F3D386
:1051D000032009E14846C0B2012805D1DAF80000F1
:1051E00030F08050CAF80000287880062ED5686A12
:1051F000002815D0DFF84895D9F8000050F00100DC
:10520000C9F80000FEF752FC0600D9F8000080073C
:105210001CD4FEF74BFC801B0328F6D30320E3E0ED
:10522000DFF81C95D9F8000040084000C9F80000DC
:10523000FEF73CFC0600D9F80000800706D5FEF713
:1052400035FC801B0328F6D30320CDE0A86A002894
:1052500000F0C980A86A022840F0A380D8F80000B6
:10526000070017F00300E96A884222D117F07000A6
:10527000296B491EB0EB011F1BD117F4FE40696B6F
:10528000B0EB012F15D117F07840A96BB0EBC16FCF
:105290000FD117F4C000E96B4908491EB0EB415F1C
:1052A00007D117F0C060296C4908491EB0EB416F67
:1052B00057D00C2C53D0DFF8BCA3DAF80000400123
:1052C00001D5012090E0DAF8000030F08070CAF8D3
:1052D0000000FEF7EBFB8146DAF80000800107D5FD
:1052E000FEF7E4FBB0EB09000328F5D303207BE0D5
:1052F000D8F80010DFF84C040140E86A0143286B3D
:10530000401E51EA0011686B51EA0021E86B400829
:10531000401E51EA4051286C4008401E51EA40614D
:10532000A86B51EAC061C8F80010DAF8000050F02C
:105330008070CAF80000D8F8000050F08070C8F8FB
:105340000000FEF7B3FB0600DAF8000080014AD443
:10535000FEF7ACFB801B0328F6D3032044E00120BA
:1053600042E0DFF81093D9F8000080013BD4D9F86F
:10537000000050F08070C9F80000D8F8000050F02C
:105380008070C8F80000FEF791FB0600D9F8000015
:10539000800128D4FEF78AFB801B0328F6D3032064
:1053A00022E00C2C1DD0DFF8CC92D9F8000030F0B0
:1053B0008070C9F80000FEF779FB0600D9F80000FC
:1053C000800106D5FEF772FB801B0328F6D303206D
:1053D0000AE0D8F80010DFF870030140C8F80010A8
:1053E00001E0012000E00020BDE8FE8F2DE9F04142
:1053F00004000D00002C01D10120B2E0DFF84C7355
:10540000386810F00700A8420BD23868C008C00006
:1054100028433860386810F00700A84201D0012006
:105420009FE0207880070DD5DFF84C12086810F057
:10543000F000A268904205D20A6832F0F002A0683B
:1054400002430A602078C00742D56068032806D16D
:10545000DFF82002006880011CD4012081E0606830
:10546000022806D1DFF80C020068800312D4012064
:1054700077E06068002806D1DFF8F801006880074F
:1054800008D401206DE0DFF8EC010068400501D48C
:10549000012066E0DFF8E081D8F800108908890073
:1054A00060680143C8F80010FEF700FB0600D8F85A
:1054B000000010F00C006168B0EB810F08D0FEF71F
:1054C000F5FA801B41F289318842F0D3032048E08D
:1054D000207880070CD56849A0680A6812F0F002AD
:1054E000904205D20A6832F0F002A06802430A60D6
:1054F000386810F0070085420BD23868C008C00039
:1055000028433860386810F00700A84201D0012015
:1055100027E02078400706D557490A6832F4E06250
:10552000E06802430A602078000707D55248016806
:1055300031F46051226951EAC201016000F013F8B0
:10554000DFF8EC114C4A1268C2F30312895C11F0C7
:105550001F01C840494908604948006802F076FDCB
:10556000C0B2BDE8F0812DE9F0410026002042499B
:10557000096811F00C01DFF820C1DCF8007017F0A9
:105580000307002903D00C291AD1012F18D1DFF805
:10559000E4E0DEF800805FEA087806D4DFF888E10E
:1055A000DEF800E0CEF3032E03E0DEF800E0CEF3F9
:1055B000031E674E56F82E6000290CD130000AE019
:1055C000042903D1DFF88CE1704604E0082902D1F8
:1055D000DFF884E170460C292DD1DCF800E01EF0E4
:1055E000030E73469E46BEF1020F03D0BEF1030FB9
:1055F00003D005E0DFF85CE103E0DFF85CE100E008
:10560000B646DCF80020C2F30212521C1500DCF88A
:105610000020C2F3062202FB0EFEBEFBF5F2DCF810
:1056200000C0CCF3416C1CF1010C5FEA4C0C6446E9
:10563000B2FBF4FC6046BDE8F0811048006870479A
:1056400080B5FFF7FAFF45490B4A1268C2F3022200
:10565000895C11F01F01C84002BD80B5FFF7EDFF66
:105660003E49054A1268C2F3C222895C11F01F014B
:10567000C84002BD00100240081002408C03002008
:10568000680300202849086810F07E400A6852F438
:1056900000020A60704700000C1002407CB5040054
:1056A0000025244E3068C00003D502F0FFFC010045
:1056B0000FE0306850F080503060306810F080505B
:1056C0000090009802F0F2FC0100306830F0805049
:1056D0003060B1F5007F09D1812C15D3A12C02D304
:1056E0000220050010E0012005000DE0812C02D30E
:1056F0000320050008E0802C02D10220050003E011
:10570000702C01D10120050010480268D208D20097
:105710002A430260006810F00700A84201D001206F
:1057200000E0002076BD000094100240041002400A
:10573000C0E0000858100240007000409010024085
:10574000981002408C809D01FCFFEEFE002002407C
:105750005CDD00080024F40000127A00D8E40008A0
:10576000704770472DE9F84F82468B4614001D00A4
:105770000026DFF884713878012801D1022047E043
:10578000012038704CF25038404600F05BF88146FA
:105790004846C0B2002837D100207860DFF85C01AD
:1057A0000168490506D5016831F480610160022075
:1057B000387701E000203877BAF1000F07D12200D6
:1057C0002B00584600F071F8012006000FE0BAF1F6
:1057D000010F02D0BAF1020F09D12100584600F0A2
:1057E00071F8BAF1020F02D15FF480200600404642
:1057F00000F028F88146002E04D0DFF8040101688B
:10580000B143016000F09FF8002038704846C0B2F4
:10581000BDE8F28F00203A490A68002A09D53C4ABF
:105820003C4B13603C4B13600968002901D50121F2
:105830000800C0B270473248016851F00041016071
:105840000020704770B50400FEF730F905002D4ABE
:105850001068C00309D514F1010FF8D0FEF726F93E
:10586000401BA042F3D303201EE0116826480140EC
:10587000002913D0204843680B43436011F0404F88
:1058800005D0224B1E6811F0404006431E60880080
:1058900002D021F040401060012005E01068C007F0
:1058A00001D501201060002070BD10B414490C68AF
:1058B00054F001040C600260BFF36F8F011D0B6098
:1058C00010BC704770B4402304000D000C4A1668E9
:1058D00056F480261660EFF3108272B62E682660AA
:1058E000241D2D1D5B1E1E00F6B2002EF6D182F384
:1058F000108870BC704700006C030020002002403C
:105900001420024010200240FAC302001820024076
:105910000820024023016745AB89EFCD10B4DFF8C2
:105920009820136833F47E73C40014F4FF64234397
:105930001360136853F002031360136853F4803349
:10594000136010BC7047DFF86800017F0A00D2B214
:10595000012A03D00A00D2B2032A11D1DFF8542061
:10596000136833F400731360136853F40063136017
:10597000136833F400631360136853F40073136007
:105980000A00D2B2022A03D00A00D2B2032A0CD1F2
:10599000084A136853F480531360136833F4805338
:1059A0001360136853F4806313600022027770471A
:1059B0006C030020002002401420024010B410F0BC
:1059C0000703DFF8684122684FF6FF010A40DFF85D
:1059D000601151EA03210A43226010BC7047DFF8CE
:1059E0004C010068C0F3022070470000010049B27A
:1059F00000290AD4012210F01F018A40DFF8341177
:105A000003005BB25B0941F823207047010049B2F3
:105A100000290DD4012210F01F018A4046490300DD
:105A20005BB25B0941F82320BFF34F8FBFF36F8F49
:105A3000704710B4020052B2002A05D40A013F4B4D
:105A4000040064B21A5508E00A013D4B040064B238
:105A500014F00F04234403F8042C10BC704770B4F6
:105A6000030013F00704D4F10700052801D3042034
:105A700001E0D4F10700251D072D01D2002500E02B
:105A8000E51E012616FA00F0401E0140A94016FA54
:105A900005F56D1E2A401143080070BC704710B513
:105AA0000400601EB0F1807F01D301200EE0601E73
:105AB000244908600F215FF0FF30FFF7BAFF002094
:105AC00021490860072021490860002010BD10B559
:105AD00004002000FFF772FF10BD2DE9F041040023
