:020000040800F2
:10000000802A0020DDE000081DDA00081FDA000861
:1000100021DA000823DA000825DA000800000000D1
:1000200000000000000000000000000027DA0008C7
:1000300029DA0008000000002BDA00082DDA000899
:10004000A5E30008A9E30008ADE30008B1E3000858
:10005000B5E30008B9E30008BDE30008C1E3000808
:10006000C5E30008C9E30008CDE30008D1E30008B8
:10007000D5E300083DDA0008D9E3000847DA0008B4
:10008000DDE30008E1E30008E5E30008E9E3000838
:10009000EDE30008F1E30008F5E30008F9E30008E8
:1000A000FDE3000801E4000805E4000809E4000895
:1000B0000DE40008000000000000000011E400084A
:1000C00015E4000819E400081DE4000821E4000814
:1000D00025E4000851DA000829E400085BDA00088A
:1000E0002DE4000865DA00080000000000000000B0
:1000F0000000000000000000000000000000000000
:100100000000000031E400080000000035E40008B1
:10011000000000000000000039E400083DE4000891
:1001200041E4000845E4000849E400084DE4000803
:1001300051E4000800000000000000000000000082
:1001400055E4000859E400085DE4000861E4000893
:1001500065E400086FDA000879DA000869E400084D
:100160006DE4000871E4000875E400080000000078
:1001700079E400087DE4000881E400080000000044
:1001800085E4000889E400088DE4000810B5040047
:100190000121DFF8AC0C01F018F9012010BD30B5D9
:1001A00087B004001421002202AD280001F028F9D4
:1001B000DFF8C40BD0E90023CDE9002302A80090AA
:1001C000DFF8B85B2978684600F098F928786870FD
:1001D000BDF80410009800F0B0FDDFF8A40B8078A3
:1001E000042809D12878022803DA2878401C2870CE
:1001F00001E00020287001E000202870DFF8405C5A
:100200000221280001F0D2F80321280001F0DDF8D6
:100210002100C9B2280001F0D8F8012007B030BD94
:1002200010B50400DFF81C1C8888002810D0DFF807
:10023000180C02888B889A4208D100210180032182
:10024000DFF8FC0B01F0B2F8012008E0898801809A
:100250002100C9B2DFF8E80B01F0B7F8012010BDAA
:100260002DE9F041040000250026DFF8D87BB8888E
:1002700003283DDB3868B988084410F8010C396858
:10028000BA88114411F8021C51EA00210E00B98805
:10029000891E386801F0E7F805002800310080B2B7
:1002A00089B288421DD10821DFF8940B01F08DF846
:1002B0003868007801280DD1DFF8C08A012198F84C
:1002C000010000F034F998F80120D7E9000100F0AE
:1002D0001EF913E00021DFF8A40A407800F027F9A6
:1002E0000CE00021DFF8940A407800F020F905E0E6
:1002F0000021DFF8880A407800F019F9DFF87C0A5D
:10030000407800F093F80221DFF8340B01F06FF829
:100310000120BDE8F0810100DFF87C0C0278032A9F
:1003200001D0042202700120704710B504002100A2
:10033000C9B2DFF80C0B01F048F8012010BD10B570
:1003400004002100C9B2DFF8F80A01F03EF80120EC
:1003500010BD38B50400DFF8885B287800280DD17F
:1003600001220121DFF87C0B01F0E1FB0520DFF821
:10037000D01A88672878401C28700BE000220121E1
:10038000DFF8600B01F0D3FBFA20DFF8B41A8867BE
:10039000002028702100C9B2DFF8A40A01F015F886
:1003A000012032BD38B50400DFF83C1B0878002876
:1003B00020D101200870DFF8345B012210212800D1
:1003C00001F0B5FB00220821280001F0B0FB00225B
:1003D0000421DFF81C0B01F0AAFB4FF4FA60DFF8F0
:1003E000601AC1F8880001F0FDFB01F0A6FD01F0E4
:1003F00095FD13E00020087001220821DFF8EC0AC7
:1004000001F095FB01220421DFF8E40A01F08FFBE3
:100410004EF66020DFF8281AC1F888002100C9B222
:10042000DFF81C0A00F0D1FF012032BD38B52DEDF8
:10043000028B04009FEDB28A2000C0B2002842D196
:10044000DFF84C5C95ED010ADFEDAE0A20EE200AE4
:10045000BDEEC00A10EE100A00F0E0F985ED010AC9
:1004600095ED010A00F048FA85ED030A95ED020AC0
:1004700000F0A2FA85ED040A95ED040AD5ED060A0E
:1004800030EE200A85ED040A95ED030AD5ED050A44
:1004900030EE200AB0EE408A9FEDB80AB4EE408AF2
:1004A000F1EE10FA02DBB2EE0C0A09E0B5EE408A7A
:1004B000F1EE10FA02D59FED920A01E0B0EE480A83
:1004C00085ED030AFFE7DFF8C85B2878002807D12D
:1004D0000020686095ED010A00F00EFA85ED030A30
:1004E0002878002807D10020A86095ED020A00F0C6
:1004F00063FA85ED040ABDEC028B31BD38B504000A
:100500000D002900C9B2200000F01BF831BD70B504
:1005100004000D00160020000078C0B2012805D1AB
:100520003200D2B22000290000F088F870BD38B542
:1005300004000D002900C9B22000C0B200F0E4F8A8
:1005400031BD3EB504000D002800C0B2002809D01E
:10055000022819D00FD3042833D01ED3062858D030
:1005600043D36AE0042000900123032201212000EC
:1005700000F097FF61E00120009066230322012133
:10058000200000F08EFF58E0042000903623032264
:100590000121200000F085FF4FE0DFF8E00B8188AB
:1005A00002290DD1016801918088022190FBF1F0B0
:1005B00080B20090362306220121200000F0BFFF08
:1005C0003BE0DFF8B80B818802290DD10168019169
:1005D0008088022190FBF1F080B20090382306223F
:1005E0000121200000F0ABFF27E0DFF8900B8188AD
:1005F00002290DD1016801918088022190FBF1F060
:1006000080B200903E2306220121200000F097FFD7
:1006100013E0DFF8680B818802290DD10168019190
:100620008088022190FBF1F080B200903F230622E7
:100630000121200000F083FFFFE737BD2DE9F843DB
:1006400004000D0016000020ADF800000027300067
:10065000C0B2002807D0401E21D0401E2CD0401E22
:10066000032847D949E00320ADF800000422694679
:10067000200000F02FFB8046DFF8049B19F10401F5
:10068000404601F099FD04226946200000F022FB5B
:10069000070019F10801380001F08EFD2DE003205C
:1006A000ADF8000002226946200000F013FB0700AD
:1006B000DFF8CC0A476220E00320ADF800000422F6
:1006C0006946200000F006FB8046DFF8B49A4046F9
:1006D00000B200F0D5FAA9F81C00042269462000F7
:1006E00000F0F8FA0700380000B200F0DEFAA9F8CE
:1006F000200002E000F061F9FFE7BDE8F1830000AF
:10070000000000000000C8420200D2B2002A062AFF
:100710001BD80A00D2B2012A0ED1DFF874290023B7
:100720005370012313700200D2B2002A0CD10122AF
:10073000DFF8B43BDA7007E0DFF854295378032B75
:1007400002DA53785B1C5370FFE7DFF844395A78BC
:10075000002A12D05A78032A0FDB00221A700022D6
:100760005A6000229A6000229A8300221A84002292
:100770005A620022DFF8703BDA7070470100604176
:100780002DE9F04100242500EDB20A2D43DA0025C1
:100790002E00F6B2092E3CDA2E00F6B201EB8606E8
:1007A00076682F00FFB251F82770BE422FDA00267C
:1007B0002F00FFB251F82770AC465FFA8CFC01EBBA
:1007C0008C0CDCF804C0AE465FFA8EFE41F82EC0F9
:1007D000AC465FFA8CFC01EB8C0CCCF80470AC4698
:1007E0005FFA8CFC50F82CC0AE465FFA8EFE00EB30
:1007F0008E0EDEF804E0A8465FFA88F840F828E09C
:10080000AE465FFA8EFE00EB8E0ECEF804C06D1C75
:10081000BEE7641CB7E7BDE8F081000038B52DEDF8
:10082000028B04009FED928ADFF82C1A08780028CA
:100830002AD10120087000210800C0B20A2815DA68
:100840000800C0B2DFF8142A0B00DBB242F8230024
:10085000DFF80C2A0800C0B252F82000002803D1AB
:100860000800C0B242F82040491CE5E7DFF8F05923
:10087000092300222900DFF8E409FFF781FF95ED45
:10088000050AB8EEC00A30E000200100C9B20A290A
:100890001EDADFF8C8190200D2B251F82220092A64
:1008A0000BD100220300DBB241F82320DFF8B0199E
:1008B0000200D2B241F8224008E00200D2B251F860
:1008C0002220521C0300DBB241F82320401CDCE74D
:1008D000DFF88C59092300222900DFF88009FFF78F
:1008E0004FFF95ED050AB8EEC00ADFEDC70A80EEAE
:1008F000200ABDEC028B31BDF0EE400A9FED8E1A4E
:100900009FED8E3ADFED5A3AF5EE400AF1EE10FA1D
:1009100040D0F0EE603A9FED8A0ADFF8D40990EDFE
:10092000004A34EE634AB4EE404AF1EE10FA08DAB7
:1009300090ED004A33EEC44AB4EE404AF1EE10FAAC
:1009400003DB9FEDB20A21EE001ADFF8A80990ED53
:10095000000AF0EE401ADFF8A01991ED000A30EE1F
:10096000010AB0EE402A32EE030A82EE000AF0EEEF
:10097000402A33EEE10AB0EE614A00EE224A80EDF1
:10098000004AB7EE000A30EE620A20EE020A81ED5C
:10099000000A08E0DFF860095FF07E510160DFF8CF
:1009A000540900210160DFF84C09DFF8441902689E
:1009B0000A6090ED000A7047704780B50320DFF8A9
:1009C000D81508700421DFF8780400F010FD3220FB
:1009D00001F092FE01BD80B5DFF820090078DFF854
:1009E0009C1308700220DFF8B01508700421DFF8AE
:1009F000500400F0EAFC01BD2DE9F04104000D00B7
:100A000016002F00DFF87487404602F04FFA3000DE
:100A100080B2022802D004280BD01DE07878D8F8E4
:100A2000001008703878D8F800104870A8F80460F2
:100A300015E07878D8F8001008703878D8F80010E9
:100A40004870F878D8F800108870B878D8F8001096
:100A5000C870A8F8046002E00020A8F80400DFF8DD
:100A60009C0804700120DFF898180870BDE8F08138
:100A70000000000070B402000223080040B2012808
:100A800028D1002004001D00E4B2EDB2AC421CD21B
:100A9000DFF8704815000600F6B234F916602DB282
:100AA000B54210D10500EDB21E00F6B2761EB54279
:100AB00003D1C0B234F910003BE0C0B204EB4000F7
:100AC000B0F9020035E0401CDCE7DFF83808B0F987
:100AD00000002EE008005FF0FF3440B2A04224D1B5
:100AE000002420001D00C0B2EDB2A84218D2DFF8E9
:100AF000140815002600F6B230F916602DB2B54282
:100B00000CD12500EDB2002D02D1B0F9000010E0AB
:100B1000E4B200EB440030F9020C0AE0641CE0E7A8
:100B2000DFF8E007B0F9000003E0DFF8D807B0F91C
:100B3000000070BC7047000095BFD63317B7D1389E
:100B4000CDCC4C3E70B402000523080040B2012811
:100B500028D1002004001D00E4B2EDB2AC421CD24A
:100B6000DFF8A44715000600F6B234F916602DB27E
:100B7000B54210D10500EDB21E00F6B2761EB542A8
:100B800003D1C0B234F910003BE0C0B204EB400026
:100B9000B0F9020035E0401CDCE7DFF86C07B0F983
:100BA00000002EE008005FF0FF3440B2A04224D1E4
:100BB000002420001D00C0B2EDB2A84218D2DFF818
:100BC000480715002600F6B230F916602DB2B5427E
:100BD0000CD12500EDB2002D02D1B0F9000010E0DB
:100BE000E4B200EB440030F9020C0AE0641CE0E7D8
:100BF000DFF81407B0F9000003E0DFF80C07B0F9E4
:100C0000000070BC704700000000C84200007A4439
:100C100030B401000222002003001400DBB2E4B271
:100C2000A3420ED20B00DFF8DC460500EDB234F92A
:100C300015401BB2A34202D1C0B200B202E0401C78
:100C4000EAE7002030BC704730B4010005220020E4
:100C500003001400DBB2E4B2A3420ED20B00DFF8B3
:100C6000A8460500EDB234F915401BB2A34202D1EB
:100C7000C0B200B202E0401CEAE7002030BC70477E
:100C800001000222080000B200280CD40800130062
:100C9000DBB200B21BB2984205DADFF8680609B28F
:100CA00030F9110000E00020704701000522080023
:100CB00000B200280CD408001300DBB200B21BB253
:100CC000984205DADFF8400609B230F9110000E079
:100CD00000207047F0B4030000200C881500EDB22E
:100CE000042D16D12500ADB21D44AE782500ADB25D
:100CF0001D44ED7855EA06252600B6B29E5D270014
:100D0000BFB21F447F7857EA062757EA05473800E5
:100D10000DE01500EDB2022D09D12500ADB25D5DEB
:100D20002600B6B21E44767856EA052630000D88B5
:100D300055FA82F50D80F0BC704770B504000D00C7
:100D4000684E01224FF48051300000F0F0FE0A207E
:100D500002F072F901F0DAF84FF47A732A0092B2D5
:100D60002100DFF8A80502F0B8F900224FF4805105
:100D7000300000F0DCFE70BD40E300086626002075
:100D8000E42500202DE9F0412DED028B8EB0F0EE30
:100D9000408AB0EE608A322100226C46200000F0CA
:100DA0002FFB002700240025DFF8E482C8ED058A28
:100DB00088ED068A98ED050A01F0D6FA060098ED4E
:100DC000060A01F0D1FA804668463100090E3A0061
:100DD000D2B281547F1C3100090C3A00D2B2815446
:100DE0007F1C3100090A3A00D2B281547F1C3900BD
:100DF000C9B246547F1C4146090E3A00D2B2815412
:100E00007F1C4146090C3A00D2B281547F1C4146F6
:100E1000090A3A00D2B281547F1C3900C9B200F8E5
:100E200001807F1C3A00D2B292B26946DFF8E0043A
:100E300003F070F90EB0BDEC028BBDE8F08100004C
:100E400040050020040A00206426002070B500241C
:100E50000025DFF8BC040078C0B2FF283AD0DFF8E4
:100E6000B4040178C9B20906DFF8AC040078C0B256
:100E700051EA0041DFF8A4040078C0B251EA002131
:100E8000DFF89C040078C0B201430C00DFF8940442
:100E90000178C9B20906DFF890040078C0B251EABF
:100EA0000041DFF888040078C0B251EA0021DFF881
:100EB00080040078C0B201430D00DFF8C46216F16F
:100EC0001401200001F078F916F11801280001F052
:100ED00073F904E0AA48002141610021816170BDDD
:100EE00072260020000800487326002000040048F5
:100EF000000C004870B500240025DFF83C040078A1
:100F0000C0B2FF283DD0DFF82C64DFF83004007851
:100F10003070DFF82C040178C9B20906DFF8240428
:100F20000078C0B251EA0041DFF81C040078C0B27A
:100F300051EA0021DFF814040078C0B201430C002C
:100F4000DFF80C040178C9B20906DFF8080400785C
:100F5000C0B251EA0041DFF800040078C0B251EAA3
:100F60000021DFF8F8030078C0B201430D0016F14C
:100F70000801200001F020F9311D280001F01CF9C2
:100F800009E0DFF8B00300210170DFF8D4138160BD
:100F9000DFF8D013416070BD6025002078B591B0B6
:100FA00004000D003C21002202AE300000F028FABF
:100FB0000020ADF804000321012003F00DFA0B20FE
:100FC00000900023DFF8A02301A902A801F0DEF8B9
:100FD0004FF47A73BDF8042002A9DFF8900302F001
:100FE0007CF812B070BD78B591B004000D003C21C2
:100FF000002202AE300000F003FA0020ADF8040039
:10100000C34803F057F8CC4803F054F8C94800210E
:101010000170D4498160D24941600D2000900023C5
:10102000D34A01A902A801F0B1F84FF47A73BDF8D0
:10103000042002A9CD4802F050F812B070BD38B5B6
:1010400090B004000D0003A8CA49322203F0D4FB7B
:10105000C948D0E90023CDE9012303A8019000236A
:10106000C648027802A903A801F01BF802200090EC
:10107000002378A202A903A801F088F84FF47A733C
:10108000BDF808200199B94802F027F811B030BD29
:1010900014250020F8B504000D0000262068007813
:1010A00030283ADB206800783A2836DA002700201A
:1010B0000100C9B2A28889B291420FD22168020010
:1010C000D2B2895C302905DB21680200D2B2895C8A
:1010D0003A2900DB02E07F1C401CE9E73900C9B275
:1010E000206801F00BF90600B6F5807F0DD2A34809
:1010F00041783000C0B203F06FF94FF47A730222E6
:101100007AA19A4801F0E9FF0EE04FF47A730522C4
:101110009B49964801F0E1FF06E04FF47A730522FF
:101120009749924801F0D9FFF1BD38B590B004005D
:101130000D0003A89349322203F05EFB9248D0E9E8
:101140000023CDE9012303A8019000238B484278B6
:1011500002A903A800F0A5FF0220009000233DA2F1
:1011600002A903A801F012F84FF47A73BDF8082021
:1011700001997E4801F0B1FF11B030BDD0050020CB
:1011800014250020F8B504000D0000262068007822
:10119000302839DB206800783A2835DA002700202B
:1011A0000100C9B2A28889B291420FD2216802001F
:1011B000D2B2895C302905DB21680200D2B2895C99
:1011C0003A2900DB02E07F1C401CE9E73900C9B284
:1011D000206801F093F806000C2E0DD23100C9B240
:1011E0006648007803F0F8F84FF47A7302223FA1C2
:1011F0005E4801F072FF0EE04FF47A7305226049F9
:101200005A4801F06AFF06E04FF47A7305225C4900
:10121000564801F062FFF1BD80B5FFF717FEFFF7FA
:1012200069FE5A485A49C0F8A4135A49C0F8B41381
:101230005949C0F8C4135949C0F8D4135849C0F8E3
:10124000E4135849C0F8F41300F077FE00F066FE8E
:1012500001BD00000D0A000074260020C4240020F7
:10126000EC24002070B50020002400252800C0B226
:10127000092836DA4C4E2800C0B2000130444078CC
:1012800001282CD1012004002800C0B20001304404
:10129000406800280ED003F003FB2900C9B2090101
:1012A00031444968401A2900C9B2090131448968AA
:1012B000884214D300202900C9B209013144487082
:1012C00003F0EEFA2900C9B2090131444860280050
:1012D000C0B22900C9B209013144C96888476D1CF0
:1012E000C4E72000C0B270BD382600204F4B00007C
:1012F000402600203C260020E80500207126002022
:1013000060250020D8050020DC050020901F00206B
:10131000000802080208020803080208040802087C
:10132000050802080608020807080208080802085B
:101330000908020800260020001002080210020816
:101340000310020804100208051002080610020823
:101350000710020808100208091002080A10020803
:10136000000048420000164450E10008801E0020A2
:101370000CDF000834DB000848E30008540A0020B2
:1013800038E3000868DB000850E30008F40500209B
:101390009D0F0008E70F00083F1000089510000897
:1013A0002B110008851100084005002002000120D3
:1013B0000B00DBB21B011344587000200B00DBB2A2
:1013C0001B01134458600120704738B504000D001C
:1013D00001202900C9B209012144487003F060FAD4
:1013E0002900C9B2090121444860012032BD020030
:1013F00000200B00DBB21B01134458700120704722
:1014000062F30F2262F31F42401810F0030308D06A
:10141000C91A1FD3DB0748BF00F8012D28BF20F8E9
:10142000022D130030B414461546103928BF20E9A8
:101430003C00FAD8490728BF20E90C0048BF40F813
:10144000042D890028BF20F8022D48BF00F8012D87
:1014500030BC7047C91818BF00F8012DCB0728BF52
:1014600000F8012D704730B403004FF6FF700024E0
:101470008C4213DA1A5D50400822002A0CD0C507AE
:1014800006D580B2400880F4204090F0010001E0D1
:1014900080B24008521EF0E7641CE9E780B230BC1D
:1014A00070472DE9F84305000E0017009846089C88
:1014B0005FF000092868494689B2465419F10109CC
:1014C0002868494689B2475419F10109404680B25B
:1014D000000A29684A4692B2885419F1010928681D
:1014E000494689B200F8018019F10109200080B253
:1014F000000A29684A4692B2885419F101092868FD
:10150000494689B2445419F10109494689B228680B
:10151000FFF7A9FF010028684A4692B2815419F1E9
:101520000109080080B2000A2A684B469BB2D054D9
:1015300019F10109A5F804900120BDE8F2832DE915
:10154000F84F06000F00904699460A9DDDF82CA042
:10155000002400213068220092B28754641C306855
:10156000220092B200F80280641C484680B2000A51
:10157000326823009BB2D054641C3068220092B2BF
:1015800000F80290641C4046C0B2062802D0102821
:1015900007D01CE0280080B2012801D0002040E0E4
:1015A00015E0280080B2000A326823009BB2D054B4
:1015B000641C3068220092B28554641C2800C0B2BA
:1015C0004000326823009BB2D054641CFFE75FF0F8
:1015D000000B584680B2290089B2B0EB410F0BDAFC
:1015E000584680B21AF800003168220092B288543E
:1015F000641C1BF1010BECE7210089B23068FFF796
:1016000032FF01003068220092B28154641C08004D
:1016100080B2000A326823009BB2D054641CB480AC
:101620000120BDE8F28F2DE9F84F05000E001700EC
:1016300098460A9CDDF82C905FF0000B002029688A
:101640005A4692B28E541BF1010B29685A4692B247
:101650008F541BF1010B2100C9B249002A685B4677
:101660009BB2D1541BF1010B5FF0000A504680B2CF
:10167000210089B2B0EB410F0CDA504680B219F864
:10168000000029685A4692B288541BF1010B1AF1E6
:10169000010AEBE7594689B22868FFF7E4FE01002A
:1016A00028685A4692B281541BF1010B080080B29F
:1016B000000A2A685B469BB2D0541BF1010BA5F8C7
:1016C00004B00120BDE8F28F2DE9F84F05000E00AF
:1016D000170098460A9CDDF82C905FF0000B5FF035
:1016E000000A2868594689B246541BF1010B286844
:1016F000594689B247541BF1010B404680B2000A9B
:1017000029685A4692B288541BF1010B2868594641
:1017100089B200F801801BF1010B3800C0B2062825
:1017200002D010281DD02CE0200080B2012801D06A
:1017300000203EE000208246504680B2210089B25F
:10174000B0EB410F0CDA504680B219F8000029685E
:101750005A4692B288541BF1010B1AF1010AEBE7C9
:101760000FE0200080B2000A29685A4692B28854DD
:101770001BF1010B2868594689B244541BF1010B37
:10178000FFE7594689B22868FFF76DFE0100286817
:101790005A4692B281541BF1010B080080B2000A34
:1017A0002A685B469BB2D0541BF1010BA5F804B02C
:1017B0000120BDE8F28F30B4002513E050F8042B6F
:1017C000D30744BFA9F101039A18091F042942F85D
:1017D000045BFAD213468C0744BF15809B1CC907D3
:1017E00048BF1D7050F8041B0029E7D130BC70477A
:1017F000F8B4030000250868E840002800F0D7800E
:1018000001260F6816FA05F007403A00002A00F09A
:10181000CC80087910F00300012804D0087910F07A
:10182000030002281DD19F685FF0030C2800C0B29E
:1018300040001CFA00FC37EA0C07D1F80CC0280065
:10184000C0B240001CFA00FC5CEA07079F605868C1
:10185000AE40B0434E68C6F30016AE4030430400BD
:101860005C60087910F0030003280ED0DE680327BF
:101870002800C0B240008740BE438F682800C0B235
:10188000400087403E433400DC60087910F00300DC
:10189000022818D12800C00803EB8000066A0F2731
:1018A00015F00700C0B280008740BE430F6915F0F5
:1018B0000700C0B2800087403E4334002800C008C3
:1018C00003EB800004621E6803272800C0B24000BA
:1018D0008740BE430F7917F003072800C0B24000CD
:1018E00087403E4334001C60486810F4403F5CD0A1
:1018F0009548066856F001060660006810F0010081
:1019000000900098914F2800800857F820605FF001
:101910000F0C15F00300C0B280001CFA00FC36EA80
:101920000C06B3F1904F01D1002414E088488342A3
:1019300001D101240FE08748834201D102240AE04B
:101940008548834201D1032405E08448834201D1C4
:10195000042400E0072415F00300C0B28000844096
:1019600026432800800847F820607D4C206890437B
:101970004F68FF0200D5104320607A4E34689443CC
:101980004F68BF0200D514433460774E30689043EF
:101990004F68BF0300D510433060744E34689443E1
:1019A0004F68FF0300D5144334606D1C23E7F1BC7E
:1019B00070472DE9F041030000250800E8400028A9
:1019C00000F0A880012616FA05F008400200002A5F
:1019D00000F09E80DFF874C1280080085CF82000C9
:1019E0000F2715F0030E5FFA8EFE5FEA8E0E17FAD0
:1019F0000EFE1EEA00000400B3F1904F02D15FF02A
:101A0000000E19E05248834202D15FF0010E13E04C
:101A10005048834202D15FF0020E0DE04E488342EF
:101A200002D15FF0030E07E04C48834202D15FF021
:101A3000040E01E05FF0070E15F00300C0B2800055
:101A40001EFA00FE74452CD14848D0F800E03EEA6A
:101A5000020EC0F800E04448D0F800E03EEA020E72
:101A6000C0F800E03F48D0F800E03EEA020EC0F8BF
:101A700000E03B48D0F800E03EEA020EC0F800E08B
:101A800015F00300C0B2800017FA00F0040028002F
:101A900080085CF82000A043AE465FEA9E0E4CF83A
:101AA0002E005FF0030C1868AE465FFA8EFE5FEA08
:101AB0004E0E1CFA0EFE5EEA000018602800C008F8
:101AC00003EB800E2800C00803EB8000D0F82080D4
:101AD00015F00700C0B28000874038EA0707CEF84B
:101AE000207098682F00FFB27F001CFA07F7B843F8
:101AF00098605868AE4030EA06065E60DE682800EE
:101B0000C0B240001CFA00FC36EA0C0CC3F80CC052
:101B10006D1C52E7BDE8F081020010690B009BB21A
:101B2000184201D0012000E00020C0B2704713002D
:101B3000DBB2002B03D00B009BB2836102E00B00F1
:101B40009BB28362704700006010024008000140B1
:101B50000004004800080048000C0048001000483D
:101B6000080401400C040140040401400004014049
:101B700080B5D448D44901605FF4E131416000216F
:101B800081600021C160002101610C2141610021BF
:101B90008161002101620021416201F061FA0028A7
:101BA00001D002F0E2FE01BD80B5C848C84901601D
:101BB0004FF416514160002181600021C160002175
:101BC00001610C214161002181610021C16100217D
:101BD00001620021416201F043FA002801D002F0C5
:101BE000C4FE01BD80B5BB48BB4901604FF416512E
:101BF0004160002181600021C160002101610C2150
:101C00004161002181610021C16100210162002147
:101C1000416201F025FA002801D002F0A6FE01BDC4
:101C200038B59EB0040014220021684602F09FFEE1
:101C30006022002106A802F09AFE2068A24988428C
:101C400052D1202006900020119006A802F09AFEA2
:101C5000002801D002F089FEA048016851F001017E
:101C60000160006810F00100059005989C4801682B
:101C700051F002010160006810F002000590059823
:101C80004FF4406000900220019000200290032059
:101C900003900820049069469248FFF7A9FD924DF1
:101CA00092482860042068600020A8600020E86056
:101CB00080202861002068610020A8610020E86180
:101CC00000202862280003F0D1F8002801D002F09B
:101CD0004CFE6567AC6200220021462003F067FBE2
:101CE000462003F079FBABE020687949884251D166
:101CF0000120069000200E9006A802F043FE002866
:101D000001D002F032FE7A48016851F4804101604E
:101D1000006810F48040059005987148016851F002
:101D200002010160006810F0020005900598C020D3
:101D300000900220019000200290032003900720D1
:101D4000049069466748FFF753FD6A4D6A4828606A
:101D5000022068600020A8600020E86080202861E0
:101D6000002068610020A8610020E861002028624E
:101D7000280003F07BF8002801D002F0F6FD65672B
:101D8000AC6200220021252003F011FB252003F086
:101D900023FB55E020685049884251D10420069029
:101DA0000020109006A802F0EDFD002801D002F0FE
:101DB000DCFD5248016851F480210160006810F494
:101DC0008020059005984648016851F004010160A3
:101DD000006810F00400059005984FF440600090F2
:101DE000022001900020029003200390072004901D
:101DF00069464348FFF7FCFC424D434828600220F7
:101E000068600020A8600020E86080202861002031
:101E100068610020A8610020E86100202862280095
:101E200003F024F8002801D002F09FFD6567AC6242
:101E300000220021272003F0BAFA272003F0CCFA71
:101E40001FB030BD10B5040020681F49884210D172
:101E5000224801684908490001604FF44061214867
:101E6000FFF7A7FD606F03F071F8462003F0BBFA9F
:101E700027E02068164988420FD11D48016831F4D7
:101E800080410160C0211748FFF793FD606F03F0A8
:101E90005DF8252003F0A7FA13E020680E49884278
:101EA0000FD11648016831F4802101604FF4406180
:101EB0001348FFF77EFD606F03F048F8272003F01A
:101EC00092FA10BD801E002000800040081F0020F4
:101ED00000380140901F0020004800405C10024084
:101EE0004C10024000040048C0230020800402403F
:101EF00060100240082400205800024058100240A0
:101F000000080048502400203000024080B51848E6
:101F100000F0CCFF02201749087001BD80B50122F6
:101F20001549164801F03FF900220121272003F04E
:101F30003EFA272003F050FA01BD704738B504007F
:101F40000B480D490A78036885885A558288521CC7
:101F50008280828840F2FF139A4201D3002282805D
:101F60000122064801F01FF901200249087031BD25
:101F7000040A00207726002076260020901F0020EB
:101F800001000800C0B2002801D1012021E00800B2
:101F9000C0B2FF2801D10A201BE00800C0B2FE2811
:101FA00001D1642015E00800C0B2FD2802D14FF431
:101FB0007A700EE00800C0B2FC2802D142F2107024
:101FC00007E00800C0B2FB2802D1DFF8980300E068
:101FD000012070472DE9F24F8246934600200021F0
:101FE0000A260027B046B946009A1588BBF1000FB3
:101FF00008D5DBF100042D202A0092B20AF8020075
:102000006D1C00E05C462000002142464B4603F078
:1020100009FA002901D1002808D0A6FB080106FB17
:10202000091107FB081180468946ECE740464946FE
:102030000A22002303F0F6F906000F00002F01D159
:10204000002E28D02000002132003B0003F0EAF9E6
:102050003030290089B20AF801006D1CA0465FF0FB
:1020600000092000002132003B0003F0DBF9A6FB51
:10207000002306FB013307FB0033B8EB020079EBCA
:1020800003010400300039000A22002303F0CAF9DA
:1020900006000F00D2E7009805802800C0B2BDE816
:1020A000F28F2DE9FE4F06000F0090460020ADF89C
:1020B00000000020002400215FF0000BB7F8009022
:1020C000B8F1000F02D5D8F1000500E045464246C0
:1020D00039003000FFF77EFFB7F800A0002D4FD089
:1020E0009DF80800FFF74CFF01008D4205D20A2041
:1020F00045431BF1010B002DF7D15846C0B2002813
:1021000021D050460200D2B2324412F8012C2D2ABE
:1021100006D00200D2B24B4692B29BB29A4208D18C
:1021200030220300DBB2F2541AF1010ABBF1010BB9
:10213000E3E70200D2B2324412F8012C0300DBB212
:10214000F254401EDEE70A20B1FBF0F4504683460D
:10215000002C15D00A20B4FBF0F45846C0B230442D
:1021600010F8010C5946C9B27054BBF1010B002C98
:10217000EED12E205946C9B270541AF1010AE7E790
:10218000A7F800A05046C0B2BDE8FE8FF0B4049C92
:1021900000252E00B6B2A6420BD20E88771C0F8007
:1021A0002F00BFB217FA83F7D75DB6B287556D1C03
:1021B000EFE7F0BC704700002DE9F34F81B02DED43
:1021C000028B9FED658A002401250026F7EE008A28
:1021D00000273800C0B2202864DA0398F84010F0D5
:1021E000010004003800C0B2172829DA18EE900A5E
:1021F00003F030FA82468B462000C0B203F04EFA5C
:10220000804689463800C0B2D0F117005FF0FF3138
:10221000484303F051FA41EC110B9FED500B03F0D2
:1022200060FA51EC100B42464B4603F063FA5246FB
:102230005B4603F031FB03F0EDFB08EE900A2FE064
:102240003800C0B21F2824DA3000C0B203F026FAEA
:1022500082468B462000C0B203F020FA80468946B1
:102260003800C0B2173803F027FA41EC110B9FED8C
:102270003B0B03F036FA51EC100B42464B4603F091
:1022800039FA52465B4603F007FB03F0F7FB060002
:1022900006E02000C0B2012802D15FF0FF30050047
:1022A0007F1C96E7280040B203F006FA8046894674
:1022B0003000C0B27F3803F0FFF941EC110B9FED05
:1022C000270B03F00EFA51EC100B42464B4603F07D
:1022D00011FA8046894618EE900A03F0BBF942468F
:1022E0004B4603F007FA03F095FB00EE100A049842
:1022F00080ED000ABDEC028BBDE8F78F70B40300DF
:1023000000220024002000252A000E00D2B2F6B2DE
:10231000B2421FD22A00D2B29A5C302A0ADB2A00CB
:10232000D2B29A5C3A2A05DA2A00D2B29A5C303AE2
:10233000140001E0002214002A00D2B2002A03D1C6
:102340002200D2B2100003E00A22504350FA84F077
:102350006D1CD9E770BC7047000000000000000051
:1023600000000040A086010010B42DED010A0020FD
:102370006A460023042B07D2D45C1900C9B2C900F5
:102380008C4020435B1CF5E712BC704780B50022EF
:102390004FF40071DFF8040AFFF7C9FB00224FF485
:1023A00000715FF09040FFF7C2FB03F085FBDFF8A0
:1023B000F009DFF8F0194A1CC0F828210A1DC0F8FE
:1023C000402111F11002026211F11402826311F135
:1023D0000802C0F87021DFF8D02912F12403C0F8F8
:1023E000883112F11C03C0F8A031937F80F8BD3111
:1023F00012F12003C0F8D03192F8222080F8ED21AC
:1024000011F11802C0F818221C31C0F83012DFF8A0
:102410009C190968C0F87812DFF894190968C0F8A7
:10242000A81201BD38B5002000242000C0B2072842
:1024300035DADFF880592000C0B200012844407826
:1024400001282AD12000C0B2000128444068002899
:102450000ED002F025FA2100C9B2090129444968C9
:10246000401A2100C9B2090129448968884214D35D
:1024700000202100C9B209012944487002F010FA75
:102480002100C9B20901294448602000C0B22100DE
:10249000C9B209012944C9688847641CC5E70020FE
:1024A00032BD38B50400DFF81059687800281FD114
:1024B00000224FF40071DFF8E408FFF738FB002238
:1024C0004FF400715FF09040FFF731FB03F0F4FA36
:1024D00089200090202307220521DFF8E00803F07F
:1024E0003BFB012068700221DFF8C808FEF75EFFA1
:1024F000012032BD7CB50400DFF8C45828780028DC
:1025000003D0022823D003D33DE003F06DFC3AE072
:1025100003F0CCFC89200090202307220521DFF85E
:102520009C0803F019FBDFF89C2803212C2003F002
:102530002DFCDFF894280421082003F027FC03F089
:1025400024FD41F28830DFF86C1888611BE001201F
:10255000DFF86418487089200090202307220521A5
:10256000DFF8580803F0F8FADFF848680221300075
:10257000FEF71CFF03213000FEF718FF0421300096
:10258000FEF714FFFFE72878401C28702100C9B22D
:10259000DFF82008FEF719FF012076BD70B50400B2
:1025A00000F0BCF8DFF810586878012803D1A8784B
:1025B00000F01FFB04E00021DFF8F807FEF7F6FE4D
:1025C000DFF80808A9780278914207D0A97801704D
:1025D000DFF8FC070068DFF8FC170860A878082817
:1025E00012D1DFF8F0674FF4FA61306800F016FCA2
:1025F000012809D1DFF8D80700683060062215F1FC
:102600000801A81C00F0B2FC2100C9B2DFF8A40741
:10261000FEF7DBFE012070BD10B50400DFF8B8172F
:10262000DFF8B807006900F0F9FB012827D1DFF8CF
:10263000B0070178012905D1002101700020DFF8E1
:1026400078178870DFF89C070188491C018042F2E6
:102650001071DFF860272300DBB21B011A44926877
:10266000B1FBF2F102888A420DD300210180DFF82C
:1026700048178878002806D00020887003E00120E1
:10268000DFF85C1708702100C9B2DFF82807FEF7F1
:102690009CFE012010BD38B5040003F0E9FCDFF812
:1026A0003C57287A012808D10521DFF80807FEF7F2
:1026B0007DFEDFF81C07006828612100C9B2DFF841
:1026C000F406FEF782FE012032BD10B5040003F0CF
:1026D000B5FCDFF80807002101700021017201201C
:1026E00010BD10B5040000224FF40051DFF8AC0615
:1026F000FFF71DFA012010BD10B5040001224FF4B0
:102700000051DFF89806FFF712FADFF8A80621005B
:1027100089B281660621FEF758FE10BDDFF88406F7
:10272000DFF8C4160A784270DFF8C026497852F8FC
:10273000211041609FED1A0ADFF86C16D1ED010AF5
:1027400060EE800AFDEEE00AC0ED020AD1ED020A59
:1027500060EE800AFDEEE00AC0ED030AD1ED030A47
:1027600060EE800AFDEEE00AC0ED040AD1ED040A35
:1027700060EE800AFDEEE00AC0ED050AD1ED050A23
:1027800060EE800AFDEEE00AC0ED060AD1ED060A11
:1027900020EE800ABDEEC00A80ED070A70470000F7
:1027A0000000C8422DE9F84F8AB00600202100221F
:1027B00002AC2000FEF724FE0024002500208DF846
:1027C000050000208DF806001827DFF8D4853000BA
:1027D000C0B27843404490F815903000C0B27843BE
:1027E00040444068002842D001213000C0B200F0CF
:1027F000A9F900280ED13000C0B2784340444268A5
:102800003000C0B278434044017D4846C0B203F076
:10281000BDFA1EE05FF0000A3000C0B278434044C9
:10282000406804F06DFB5146C9B2814207D22020B6
:1028300002A95246D2B288541AF1010AECE702AA60
:102840003000C0B278434044017D4846C0B203F036
:102850009DFA3000C0B278434044406804F050FB19
:10286000DFF88C150979491C484310FA89F93000C2
:10287000C0B2784340448068002800F03A813000BC
:10288000C0B278434044007B00280BD002281ED001
:1028900012D3042830D024D3062845D036D30728B5
:1028A0003ED044E03000C0B27843404480680078B5
:1028B000002104000D003AE03000C0B278434044EB
:1028C000806890F90000C11704000D002FE030006F
:1028D000C0B27843404480680088002104000D00A5
:1028E00025E03000C0B2784340448068B0F9000071
:1028F000C11704000D001AE03000C0B27843404414
:1029000080680068002104000D0010E03000C0B2B3
:102910007843404480680068C11704000D0006E059
:1029200001208DF8050002E002208DF805009DF8D9
:10293000050000280CD13000C0B278434044407BF1
:1029400040420200D2B202A9200000F07FFA26E045
:102950009DF8050001281AD13000C0B278434044E8
:10296000806804F0CDFA202819D23000C0B2784334
:102970004044806804F0C4FA020092B23000C0B251
:1029800078434044816802A800F0F0FA07E0300084
:10299000C0B278434044806800788DF80800022176
:1029A0003000C0B200F0CEF8012823D13000C0B210
:1029B00078434044807DC0B200098DF806009DF840
:1029C00006000F2805D0202002A99DF80620885473
:1029D00010E05FF0000A02A804F092FA5146C9B272
:1029E000814207D2202002A95246D2B288541AF15D
:1029F000010AF0E73000C0B201285ED15FF0000AA2
:102A000000208DF804003000C0B278434044407B81
:102A1000002802D009208DF80400392000902E23D0
:102A200015220F21DFF8CC0304F086FA02A804F087
:102A300067FA8346DFF8B8030079401C00FB0BFB04
:102A40005846C0B2022190FBF1F01F280BDA58461D
:102A5000C0B2022190FBF1F0D0F140009DF80410CB
:102A600050FA81FA07E05846C0B2D0F15F009DF8F5
:102A7000041050FA81FA02AA3000C0B278434044F0
:102A8000007D401CC0B2DFF868134979D1EBC0016A
:102A9000491EC9B25046C0B204F0F8FB5AFA8BF096
:102AA0009DF80490B0EB09098920009020230722AB
:102AB0000521C24803F050F81BE089200090202334
:102AC00007220521BD4803F047F802AA3000C0B232
:102AD00078434044017D4846C0B203F057F902A84C
:102AE00004F00EFAC2490979491C484310FA89F0EA
:102AF00081463000C0B278434044006900281ED0AF
:102B00003000C0B2784340448068002817D03000BD
:102B1000C0B2784340448068B74988420FD0300043
:102B2000C0B27843404402693000C0B207FB00F7EE
:102B300008EB0700017D4846C0B203F027F90BB04F
:102B4000BDE8F08FF8B504000D0095492200D2B21F
:102B50001820424301EB0200817D2800C0B20140F1
:102B60002800C0B2814230D17C26A44F4FF4967128
:102B70002800C0B2704338442200D2B250F822007C
:102B800000F04CF901282BD12800C0B206FB00F65A
:102B900007EB06002100C9B28D4A126840F82120D7
:102BA00097492A00D2B21F2042430A442300DBB2D5
:102BB0002E00F6B21F20464301EB06002100C9B2E9
:102BC000405CD0F10100D0540AE08D492A00D2B215
:102BD0001F20424301EB02002100C9B200224254EF
:102BE0008749EDB21F20454301EB0500E4B2005DCB
:102BF000F2BD70B50400002603F058F900F077F834
:102C00002000C0B200F07DF82000C0B200F093F8C0
:102C10000025280080B21F2811DA61492A0092B2EB
:102C20001820424301EB0200C07D2100C9B2884256
:102C300003D12800C0B2FFF7B5FD6D1CE9E703F032
:102C4000A4F970BDF0B44271C47803792500EDB2E7
:102C5000AB420AD3F025524E2700FFB218235F4340
:102C600006EB07039D75641CEFE718234C4C857831
:102C70005D4325444679AE75002904D0857803FB71
:102C800005F323449960F0BC70472DE9F84F070025
:102C9000884691469A460A9E0B9DDDF830B00D9C01
:102CA00087F8008087F8019087F802A0FE703D71D8
:102CB0002200D2B259463800FFF7C4FFBDE8F18FB9
:102CC00010B4010000221000C0B204280CD2100081
:102CD000C0B2085C4B4B1400E4B21B5D984201D0BB
:102CE000002002E0521CEEE7012010BC704780B5C6
:102CF0000120009008237F220821002004F04AFBD5
:102D000001BD10B504002000C0B2002812D1264831
:102D10000078002807D11FA2214890F8441078209D
:102D200003F034F806E01CA21D4890F84410782007
:102D300003F02CF810BD0100C9B2072924D11949AC
:102D40000978002906D002290ED008D3042915D00D
:102D50000FD318E02C49124AC2F8C01218E02B49D0
:102D60000F4AC2F8C01213E029490D4AC2F8C01236
:102D70000EE028490A4AC2F8C01209E02649084A6A
:102D8000C2F8C01204E003E01F49054AC2F8C012AD
:102D900070470000200000004E00000000080048BE
:102DA000D8000020602500201425002058040020B1
:102DB0007C0000200C000020E425002008D800083A
:102DC0006B26002038E10008B0DD00086C260020EA
:102DD0004C26002028260020C02709009C25002022
:102DE0006D2600205E260020540A0020CC0400201E
:102DF000F4250020E0D50008560A00200C1D002014
:102E0000602300208400002088000020980000201B
:102E1000A8000020B8000020C800002038B5040039
:102E20000D00DFF8FC010168200000F006F8A84260
:102E300001D3012000E0002032BD814204D25FF0C6
:102E4000FF32101A081800E0081A704738B52DED47
:102E5000048B08EE100A0C001500DFED438A2800F1
:102E6000C0B2FB2810DBB8EEC89A2800C0B24042BE
:102E7000C0B200F08BF829EE009A00212000B0EEDD
:102E8000490A00F0B1F80EE0B8EEC89A2800C0B2C6
:102E900000F07CF889EE009A2900C9B22000B0EE5B
:102EA000490A00F0A1F8BDEC048B31BD10B400213B
:102EB0000A00838892B29A4206D2002203680C006C
:102EC000A4B21A55491CF3E70022828010BC704757
:102ED00010B4040013005A1E9BB2002B02D02170C4
:102EE000641CF7E710BC704770B504000D001600B5
:102EF000DFF8240100782100C9B2884209D3DFF845
:102F000024211068002804D0310089B228001268FA
:102F1000904770BD38B504000D00280003F0F0FFA5
:102F2000020092B229002000C0B2FFF7DDFF31BDE0
:102F300070B504000D00280003F0E2FF020092B219
:102F400029002000C0B2FFF7CFFFDFF8DC60306857
:102F5000002807D0280003F0D3FF010089B2280021
:102F60003268904770BD00000000000030B40400DB
:102F70000D0013005A1E9BB2002B04D02B78237037
:102F80006D1C641CF5E730BC7047000010B50400F0
:102F90002000C0B2FB2816DB2000C0B2D0F5807044
:102FA00002F08AFB41EC110B9FED200B02F099FB24
:102FB00053EC102B0020194904F086FA02F02AFD88
:102FC00000EE100A0FE02000C0B202F067FB41ECF7
:102FD000110B9FED160B02F084FB51EC100B02F06D
:102FE00019FD00EE100A10BD38B52DED028B82B030
:102FF000B0EE408A04000D0018EE100A02F02AFB21
:10300000CDE900012A000B49200004F081FB02B049
:10301000BDEC028B31BD0000580A00200000F03FDB
:103020004C260020542600205026002000000000DE
:103030000000244088E3000870B5040001F030FC73
:103040000500260016F1010F02D00448007836185A
:1030500001F026FC401BB042FAD370BD570A002095
:1030600010B50400002C01D1012035E0A069002832
:10307000FFD1E06F002805D1002084F878002000FF
:10308000FEF7CEFD2420E06720680068400840007D
:1030900021680860606A002802D0200000F0DEFB92
:1030A000200000F05FFA012801D1012014E020681F
:1030B000406830F49040216848602068806830F0B3
:1030C0002A00216888602068006850F001002168AB
:1030D0000860200000F02FFC10BD2DE9FC47060021
:1030E0000D0017009846F06F202859D1002D03D00D
:1030F000380080B2002801D1012052E00020C6F83B
:1031000084002120F06701F0CBFB8146A6F85070C7
:10311000A6F85270B068B0F5805F05D1306900281C
:1031200002D10024AA4602E02C005FF0000AB6F8A3
:103130005200002822D0CDF800804B46002280218A
:10314000300000F061FC002803D02020F06703204D
:1031500027E0002C08D1BAF80000C005C00D316886
:1031600008851AF1020A03E0207831680885641C9A
:10317000B6F85200401EA6F85200D8E7CDF80080FD
:103180004B4600224021300000F03EFC002803D0D6
:103190002020F067032004E02020F067002000E0FA
:1031A0000220BDE8F68770B505000C001600D5F8C2
:1031B0008000202824D1002C03D0300080B20028C9
:1031C00001D101201DE0002028662868DFF8901357
:1031D00088420ED02868406800020AD5286850E866
:1031E000000F50F0806001002A6842E800100028BB
:1031F000F4D1320092B22100280000F054FC00E02B
:10320000022070BD2DE9F04706003068C7693068BC
:10321000D0F800803068D0F8089040F60F043C40A9
:10322000002C0BD1B80609D55FEA886006D5B06ED0
:10323000002802D03000B16E88478FE1002C00F0EA
:10324000AA805FEAC97005D4DFF8080618EA000F03
:1032500000F0A18017F00100C0B200280BD05FEA97
:10326000C85008D5012031680862D6F8840050F0B3
:103270000100C6F88400B8070DD519F00100C0B2EE
:10328000002808D0022031680862D6F8840050F087
:103290000400C6F8840078070DD519F00100C0B20B
:1032A000002808D0042031680862D6F8840050F065
:1032B0000200C6F88400380710D55FEA886004D49D
:1032C00019F00100C0B2002808D008203168086257
:1032D000D6F8840050F00800C6F8840038050CD5F4
:1032E0005FEA481009D54FF4006031680862D6F8EB
:1032F000840050F02000C6F88400D6F8840000282E
:1033000048D0B80608D55FEA886005D5B06E0028B9
:1033100002D03000B16E8847D6F8840005003068CE
:103320008068400602D415F0280F2DD0300000F040
:103330009EFC30688068400622D53068083050E82E
:10334000000F30F040000100306810F1080242E840
:1033500000100028F1D1706F00280DD0DFF8F804BC
:10336000716F8863706F01F0D1FE002812D0706F0A
:10337000716F896B88470DE0300004F023FA09E093
:10338000300004F01FFA05E0300004F01BFA0020C2
:10339000C6F88400E2E0306E012840F0BD80F806F7
:1033A00040F1BA805FEAC86040F1B6801020316811
:1033B00008623068806840066DD5706F0068D0F88C
:1033C00004A0504680B2002852D05046B6F858109B
:1033D00080B288424CD2A6F85AA0706F006800688C
:1033E000800639D4306850E8000F30F48070010056
:1033F000326842E800100028F4D13068083050E804
:10340000000F400840000100306810F1080242E857
:1034100000100028F1D13068083050E8000F30F07B
:1034200040000100306810F1080242E80010002856
:10343000F1D12020C6F8800000203066306850E8C6
:10344000000F30F010000100326842E80010002840
:10345000F4D1706F01F030FE02207066B6F858109B
:10346000B6F85A00091A89B2300004F08CF911E05C
:103470005046B6F8581080B288420BD1706F006881
:103480000068800606D502207066B6F85810300035
:1034900004F079F962E0B6F85800B6F85AA0B0EB3B
:1034A0000A0AB6F85A00002835D0504680B20028E3
:1034B00031D0306850E8000F30F49070010032686D
:1034C00042E800100028F4D13068083050E8000FBE
:1034D000400840000100306810F1080242E8001086
:1034E0000028F1D12020C6F880000020306600209E
:1034F000B066306850E8000F30F01000010032680C
:1035000042E800100028F4D102207066514689B2CA
:10351000300004F038F921E0F8020AD55FEA4920CA
:1035200007D55FF4801031680862300004F0DCF9E0
:1035300014E0380609D55FEA086006D5F06E002869
:1035400002D03000F16E884708E0780606D55FEAC1
:10355000486003D5300000F054FCFFE7BDE8F08779
:10356000008000402DE9F04704000026DFF8A8198C
:1035700020688842FFD0A268206902436069024344
:10358000E069024320680368DFF8900903401343B1
:10359000206803602068436833F44053E0680343C5
:1035A00020684360D4F818802068884202D0206ADE
:1035B00050EA08082068806830F4306058EA00005B
:1035C000226890602068DFF8482A904216D1DFF820
:1035D000440A006810F00300002805D0022805D036
:1035E00006D3032806D007E0012760E002275EE04B
:1035F00004275CE008275AE0102758E02068DFF82D
:10360000182A904217D1DFF80C0A006810F00C005D
:10361000002806D0042808D0082804D00C2806D09A
:1036200007E0002743E0022741E004273FE00827A6
:103630003DE010273BE02068DFF8E029904217D1F9
:10364000DFF8D009006810F03000002806D01028FC
:1036500008D0202804D0302806D007E0002726E034
:10366000022724E0042722E0082720E010271EE09C
:10367000206888421AD1DFF89C09006810F4406085
:10368000002809D0B0F5806F0AD0B0F5006F05D0E2
:10369000B0F5406F06D007E0002708E0022706E0FB
:1036A000042704E0082702E0102700E01027206824
:1036B000884246D13800C0B2002806D0022808D07F
:1036C000042809D008280BD00DE004F07DFD8146C8
:1036D0000DE0DFF84C990AE004F009FD814606E0B0
:1036E0004FF4004903E05FF0000901200600B9F142
:1036F000000F00F0A580616803204143894505D390
:1037000061684FF480504143494502D201200600D0
:1037100096E04FF48072606840080021E2FB0901E6
:103720006268002301F07EFE0500B5F5407F05D3F9
:10373000B5F5801F02D22068C56081E00120060037
:103740007EE0E069B0F5004F41D13800C0B20028FA
:1037500008D001280AD002280CD004280DD008284F
:103760000FD011E004F030FD814611E004F039FD86
:1037700081460DE0DFF8A8980AE004F0B8FC814625
:1037800006E04FF4004903E05FF000090120060065
:10379000B9F1000F54D06068400810EB490061682F
:1037A000B0FBF1F00500102D0ED3B5F5803F0BD224
:1037B0004FF6F0712940C5F3420001438A46504656
:1037C00080B22168C8603BE00120060038E0380084
:1037D000C0B2002808D001280AD002280CD0042842
:1037E0000DD008280FD011E004F0EEFC814611E066
:1037F00004F0F7FC81460DE0DFF824980AE004F0BD
:1038000076FC814606E04FF4004903E05FF00009D2
:1038100001200600B9F1000F12D0606819EB5000CA
:103820006168B0FBF1F00500102D07D3B5F5803FBE
:1038300004D2280080B22168C86001E0012006009F
:103840000020A0660020E0663000C0B2BDE8F0872E
:103850000000000020010004E93D000890F8241059
:10386000090707D501684A6832F40042416B0A43F0
:1038700001684A6090F82410C90707D501684A68B2
:1038800032F40032816A0A4301684A6090F82410D9
:10389000890707D501684A6832F48032C16A0A4351
:1038A00001684A6090F82410490707D501684A6802
:1038B00032F48022016B0A4301684A6090F82410B8
:1038C000C90607D501688A6832F48052816B0A43C1
:1038D00001688A6090F82410890607D501688A6813
:1038E00032F40052C16B0A4301688A6090F82410D8
:1038F000490613D501684A6832F48012016C0A4304
:1039000001684A60016CB1F5801F07D101684A68FF
:1039100032F4C002416C0A4301684A6090F82410F6
:10392000090607D501684A6832F40022816C0A430F
:1039300001684A60704738B504000020C4F884006C
:1039400000F0AEFF05002068006800071DD57FF07D
:103950007E4000902B0000225FF40011200000F058
:1039600053F8002811D0206850E8000F30F0800094
:103970000100226842E800100028F4D12020E0670E
:10398000002084F8780003203DE0206800684007AC
:103990002CD57FF07E4000902B0000225FF4800148
:1039A000200000F031F8002820D0206850E8000FF7
:1039B00030F490700100226842E800100028F4D131
:1039C0002068083050E8000F4008400001002068DF
:1039D00010F1080242E800100028F1D12020C4F8BC
:1039E0008000002084F8780003200CE02020E067AD
:1039F0002020C4F88000002020660020606600209F
:103A000084F87800002032BD2DE9F04105000E0059
:103A100090461F00069C2868C0693040B04201D122
:103A2000012000E000204146C9B2884238D114F19B
:103A3000010FF0D000F034FFC01B844201D3002CF2
:103A400001D103202DE0286800684007E3D5802ECF
:103A5000E1D0402EDFD02868C06900070DD50820CE
:103A600029680862280000F002F90820C5F88400DF
:103A7000002085F87800012013E02868C06900055F
:103A8000C9D54FF4006029680862280000F0EFF8FB
:103A90002020C5F88400002085F87800032000E08D
:103AA0000020BDE8F08130B403005965A3F8582028
:103AB000A3F85A20002098669868B0F5805F0BD173
:103AC0001869002804D140F2FF10A3F85C0023E03D
:103AD000FF20A3F85C001FE0986800280AD118694D
:103AE000002803D1FF20A3F85C0015E07F20A3F895
:103AF0005C0011E09868B0F1805F0AD11869002875
:103B000003D17F20A3F85C0006E03F20A3F85C000F
:103B100002E00020A3F85C000020C3F8840022200B
:103B2000C3F880001868083050E8000F50F001001A
:103B30000400186810F1080545E800400028F1D19C
:103B40009868B0F5805F06D11869002803D10FF29C
:103B5000D130986602E00FF2D520986618690028E7
:103B60000BD0186850E8000F50F4907004001D68E6
:103B700045E800400028F4D10AE0186850E8000F3A
:103B800050F0200004001D6845E800400028F4D1F2
:103B9000002030BC704770B504000D00160065654C
:103BA000A4F858600020C4F884002220C4F88000E3
:103BB000606F002821D00FF21510616FC8620FF2FC
:103BC000B110616F08630FF2D110616F486300207C
:103BD000616F886333009BB2626D206810F124012D
:103BE000606F01F01DFA002807D01020C4F884008F
:103BF0002020C4F8800001202AE0206900280AD093
:103C0000206850E8000F50F480700100226842E8FC
:103C100000100028F4D12068083050E8000F50F060
:103C200001000100206810F1080242E8001000289D
:103C3000F1D12068083050E8000F50F0400001003A
:103C4000206810F1080242E800100028F1D100209D
:103C500070BD016851E8001F31F0C0010A0003681F
:103C600043E800210029F4D12021C1677047016891
:103C700051E8001F31F490710A00036843E8002105
:103C80000029F4D10168083151E8001F49084900B2
:103C90000A00016811F1080343E800210029F1D16D
:103CA000016E01290AD1016851E8001F31F01001AD
:103CB0000A00036843E800210029F4D12021C0F85C
:103CC00080100021016600218166704738B504002C
:103CD000A56A2068006880063AD40020A5F85A003A
:103CE000286850E8000F30F4807001002A6842E82C
:103CF00000100028F4D12868083050E8000F400870
:103D000040000100286810F1080242E80010002875
:103D1000F1D12868083050E8000F30F04000010071
:103D2000286810F1080242E800100028F1D1202094
:103D3000C5F88000286E01280AD1286850E8000FD5
:103D400030F0100001002A6842E800100028F4D189
:103D500000206866286E012805D1B5F858102800A3
:103D600003F011FD02E0280003F0F2FC31BD000079
:103D700038B50400A56A01206866286E012807D1BD
:103D8000B5F85810490889B2280003F0FCFC02E09D
:103D9000280004F0A9FA31BDF8B50400A56AEE6F59
:103DA000D5F8807028688068000607D5212E05D1D7
:103DB0000020A5F852002800FFF74BFF2868806814
:103DC000400607D5222F05D10020A5F85A0028006B
:103DD000FFF74DFFD5F8840050F01000C5F88400BF
:103DE000280003F0EFFCF1BD38B50400A56A0020FF
:103DF000A5F85A000020A5F85200280003F0E2FCC4
:103E000031BD10B50400206850E8000F30F04000CC
:103E10000100226842E800100028F4D12020E06769
:103E20000020E066200004F060FA10BD70B50500C7
:103E3000B5F85C60D5F88000222866D12868808CAF
:103E4000040016EA0400696D0870686D401C68651E
:103E5000B5F85A00401EA5F85A00B5F85A000028D7
:103E600059D1286850E8000F30F4907001002A689A
:103E700042E800100028F4D12868083050E8000F0C
:103E8000400840000100286810F1080242E80010D4
:103E90000028F1D12020C5F880000020A86600206D
:103EA000686628681C4988420ED02868406800026D
:103EB0000AD5286850E8000F30F0806001002A68B9
:103EC00042E800100028F4D1286E012819D1002002
:103ED0002866286850E8000F30F0100001002A68BA
:103EE00042E800100028F4D12868C069C00602D555
:103EF000102029680862B5F85810280003F043FC28
:103F000009E0280003F024FC05E02868008B50F04D
:103F100008002968088370BD00800040F369FFEF46
:103F2000F8B50500B5F85C70D5F88000222867D197
:103F30002868808C0400686D060017EA0400308051
:103F4000686D801C6865B5F85A00401EA5F85A00D7
:103F5000B5F85A00002859D1286850E8000F30F40D
:103F6000907001002A6842E800100028F4D1286807
:103F7000083050E8000F400840000100286810F1A8
:103F8000080242E800100028F1D12020C5F8800086
:103F90000020A866002068662868224988420ED062
:103FA0002868406800020AD5286850E8000F30F001
:103FB000806001002A6842E800100028F4D1286ED1
:103FC000012819D100202866286850E8000F30F039
:103FD000100001002A6842E800100028F4D1286887
:103FE000C069C00602D5102029680862B5F85810CB
:103FF000280003F0C8FB09E0280003F0A9FB05E056
:104000002868008B50F0080029680883F1BD000083
:104010000038014088100240004400400048004041
:104020000024F400008000402DE9F74F82B0002604
:104030005FF0000A5FF0000B54465D4600200090E0
:104040000127DDF80C80DDF80890049810F0070FC8
:104050002BD10498C008002182468B4604F09EF9BB
:104060004FF47A7004F0B2F900200600300080B2FC
:104070000021594517D801D3504514D2D8E9000181
:1040800004000D0022002B004946002004F02EF908
:1040900007003800C0B2012805D019F1080918F14D
:1040A0000808761CE2E704F08AF93800C0B205B0CF
:1040B000BDE8F08F70B50400012504F06FF906002B
:1040C0004FF47A7004F082F93000C0B200280FD1AA
:1040D000C4F3CC20B0F5807F05D20121C4F3CC20FD
:1040E00004F0E0F904E00121C4F3CC2004F0DAF993
:1040F0004FF47A7004F06AF905000548016831F060
:104100000201016004F05BF92800C0B270BD00003C
:10411000142002402DE9F041C0B004000D0016004B
:1041200000274FF480710022E8464046FDF768F909
:104130002000FFF7BFFFA5208DF8000030008DF8AC
:1041400001005FF000084046310080B289B2884229
:104150000AD2404680B2285C6946424692B2114477
:10416000887018F10108EEE7B61C300080B2082113
:10417000B6B20836361A90FBF1F001FB0066320049
:1041800092B269462000FFF74FFF002801D00020BF
:1041900000E0012040B0BDE8F0810268531C0360DC
:1041A0001170704702000020704730B40200DFF841
:1041B0001C06002304688588635583885B1C838004
:1041C000DFF80C361B7804688588635583885B1C90
:1041D0008380012030BC7047F8B504000D0000203A
:1041E00000212E0022683300DBB2D25C2368370046
:1041F000FFB23B445F7857EA02273A0092B2B2F529
:10420000807F23DA380080B200281FD0DFF8BC0599
:1042100021683200D2B2895C02688388D1548188D7
:10422000491C818021683200D2B211444978026869
:104230008388D1548188491C8180DFF894054178B6
:104240003800C0B200F0C8F8012000E00020F2BD44
:1042500030B40200DFF874050023046885886355D4
:1042600083885B1C8380DFF868355B780468858809
:10427000635583885B1C8380012030BC7047F8B590
:1042800004000D00002000212E0022683300DBB264
:10429000D25C23683700FFB23B445F7857EA0227BD
:1042A0003A0092B20B2A1FDADFF8200521683200AB
:1042B000D2B2895C02688388D1548188491C81808C
:1042C00021683200D2B21144497802688388D154FF
:1042D0008188491C81803900C9B2DFF8F404007874
:1042E00000F07AF8012000E00020F2BDF8B50400EB
:1042F0000D000026DFF8DC0490ED030AFEF734F829
:104300000100DFF8C8040A00120A03688788DA553A
:104310008288521C828002688388D1548288521C11
:1043200082800A00120E03688788DA558288521C40
:1043300082800A00120C03688788DA558288521C32
:1043400082800120F2BDF8B504000D000026DFF8E0
:10435000840490ED040AFEF707F80100DFF86C040E
:104360000A00120A03688788DA558288521C828004
:1043700002688388D1548288521C82800A00120EFF
:1043800003688788DA558288521C82800A00120CE2
:1043900003688788DA558288521C82800120F2BD2A
:1043A00070B504000D00DFF83064012220213000D8
:1043B000FDF7BDFB0A20FEF73FFE4FF47A732A009B
:1043C00092B22100DFF81404FEF787FE00222021BC
:1043D0003000FDF7ACFB70BD7CB504000D0008217A
:1043E00000226E463000FDF70BF80026DFF8E003F0
:1043F00004704570694602783300DBB2CA54761CFB
:1044000040783200D2B28854761C3200D2B292B2D6
:104410006946DFF8CC03FFF77DFE73BDDFF8C0030C
:104420000078C0B2FF280AD0DFF8A403DFF8B41385
:1044300009780170DFF8B0130978417005E0DFF802
:104440009003012101700321417070472DE9F04F65
:1044500087B0040000275FF000085FF00009002526
:10446000DFF88823D2E90001CDE902010026DFF858
:104470008023D2E90001CDE90401DFF850A35046C2
:10448000FEF714FDA0880828C0F29B812068A1884F
:10449000084410F8010C2168A288114411F8021C8C
:1044A00051EA0021ADF81810A188891E2068FCF798
:1044B000DAFFADF81A00BDF81A00BDF818108842EE
:1044C00040F07D8120680078C1490978884240F039
:1044D0007681206880782168CF7857EA00272068A5
:1044E0004078032805D006286CD0102800F0C3803F
:1044F00061E1206800792168497951EA00210D00C5
:104500005FF001084046C0B2052836DA5FF01409B2
:10451000DFF8E0B24046C0B209FB00F05844406802
:10452000390089B2884225D1280080B24146C9B2FB
:1045300009FB01F15944896888421BDB00210020F6
:104540004246D2B209FB02F25A44D268904701288F
:104550000FD14046C0B209FB00F0584480682D1AC4
:104560004046C0B209FB00F90BEB09008068C7198F
:1045700000E002E018F10108C4E7BAF804000028DE
:104580001FD0BAF80400022190FBF1F201FB1200E7
:10459000002816D1DAF800000190BAF804000221D0
:1045A00090FBF1F080B200903B009BB203222068A8
:1045B000017804A8FDF737F8BDF814100498FFF748
:1045C000EFFEFAE004200100C9B2A288921E9142D7
:1045D0000EDA21680200D2B2895C029ABDF80C3072
:1045E000D154BDF80C10491CADF80C10401CEAE782
:1045F0005FF001084046C0B2052817DA14227D4B4F
:104600004046C0B2504318444068390089B28842DD
:1046100009D1002102A8C4465FFA8CFC02FB0CF20F
:104620001A441269904718F10108E3E7BAF8040048
:1046300000281FD0BAF80400022190FBF1F201FB20
:104640001200002816D1DAF800000190BAF8040030
:10465000022190FBF1F080B200903B009BB2062259
:104660002068017804A8FDF72FF8BDF8141004980D
:10467000FFF796FEA1E0002006002068007921687F
:10468000497951EA00210D0007200100C9B2A28832
:10469000921E91420EDA21680200D2B2895C029A1F
:1046A000BDF80C30D154BDF80C10491CADF80C10FD
:1046B000401CEAE7280080B24000216889798842DE
:1046C0004DD1BDF80C002168897989B2884246D164
:1046D0005FF001084046C0B2052840DA5FF01409D7
:1046E000DFF810B14046C0B209FB00F05844406802
:1046F000390089B288422FD1280080B24146C9B220
:1047000009FB01F159448968884225DB310089B2EF
:1047100002A84246D2B209FB02F25A4412699047FB
:10472000012818D14046C0B209FB00F05844806807
:10473000400010FA86F64046C0B209FB00F058442B
:1047400080682D1A4046C0B209FB00F90BEB090046
:104750008068C71900E002E018F10108BAE7BAF86A
:104760000400002826D0BAF80400022190FBF1F2E0
:1047700001FB120000281DD1206880782168C978CB
:1047800051EA00210F00DAF800000190BAF80400A5
:10479000022190FBF1F080B200903B009BB210220E
:1047A0002068017804A8FCF78FFFBDF81410049866
:1047B000FFF7F6FD01E0002004E0012002E0002008
:1047C00000E0002007B0BDE8F08F0000F8040020F2
:1047D000540A00201425002000040048081F00206F
:1047E00000000208020002080300020828E3000893
:1047F00030E300086804002062B38B0708D0521E23
:1048000011F8013B00F8013B00F024808B07F6D142
:10481000830740F0208000BF103A07D330B4B1E8DE
:104820003810103AA0E83810F9D230BC530724BF32
:10483000B1E80810A0E8081044BF51F8043B40F864
:10484000043BD20724BF31F8022B20F8022B44BFCF
:104850000B7803707047121F17D35B0009D151F812
:10486000043B20F8023B1B0C121F20F8023BF6D23F
:104870000BE051F8043B00F8013B1B0A20F8023B17
:104880001B0C121F00F8013BF3D238BF121D521E41
:1048900024BF11F8013B00F8013BF8D870472E0007
:1048A00001480068704700BF2C26002080B503F047
:1048B00049FE00F011F803F057FE03F03DFFFDF74D
:1048C00057F903F069FF04F00FF8FDF76DF9FDF7F4
:1048D00089F904F0EFF8FEE710B596B04421002204
:1048E00005AC2000FCF78CFD142100226C46200052
:1048F000FCF786FD4FF4007004F0CCFA002801D0DC
:1049000000F033F81820059001200A9001200B9048
:1049100000200C9060200D9002200F90012010903C
:10492000012011902820129007201390022014904B
:104930000220159005A802F0D9FF002801D000F050
:1049400014F80F2000900320019000200290002016
:104950000390002004900421684603F00BFB00281C
:1049600001D000F002F816B010BD72B6FEE710B527
:10497000044610460A4601462046FCF741FD204603
:1049800010BD00002DE9F84F05005FF0000800277A
:104990002868000527D5686C00280DD0B0F5000FF9
:1049A00003D0B0F5400F0DD00DE0DFF8240301680F
:1049B00051F48031016008E00021281D00F092F9D7
:1049C000804602E001E0012080464046C0B2002857
:1049D00008D1DFF80C130A6832F44002686C024315
:1049E0000A6000E04746286880037AD55FF0000936
:1049F000DFF8E0A2DAF80000C0000DD4DAF8000019
:104A000050F08050CAF80000DAF8000010F0805032
:104A10000090009801208146DFF8BCB2DBF800006E
:104A200050F48070CBF80000FFF73AFF0600DBF887
:104A30000000C00506D4FFF733FF801B0328F6D320
:104A4000032080464046C0B200283FD1DFF88CB238
:104A5000DBF8000010F440700400002C15D0E86D65
:104A6000844212D0DBF8000030F440700400DBF820
:104A7000000050F48030CBF80000DBF8000030F488
:104A80008030CBF80000CBF80040E0070FD5FFF7EF
:104A900007FF0600DBF80000800708D4FFF700FFDF
:104AA000801B41F289318842F4D30320804640467E
:104AB000C0B2002808D1DBF8001031F44071E86D75
:104AC0000143CBF8001002E0474600E04746484665
:104AD000C0B2012805D1DAF8000030F08050CAF8E1
:104AE00000002878C00707D5DFF8F4110A6892089B
:104AF0009200286A02430A602878800707D5DFF809
:104B0000E0110A6832F00C02686A02430A602878F1
:104B1000400707D5DFF8C8110A6832F03002A86AEA
:104B200002430A602878800607D5DFF8B4110A68C6
:104B300032F44062E86A02430A602868800507D5BB
:104B4000DFF89C110A6832F44022E86B02430A60E5
:104B50002868400507D5DFF888110A6832F440124A
:104B6000286C02430A602878400607D5DFF87011E8
:104B70000A6832F44052286B02430A602878000623
:104B800007D5DFF85C110A6832F44042686B0243D3
:104B90000A602868C00507D5DFF844110A6832F4B6
:104BA0004032A86B02430A602868800420D5DFF8F1
:104BB00030110A6832F04062A86C02430A60A86CA7
:104BC000B0F1006F06D1DFF80801016851F48011DF
:104BD00001600DE0A86CB0F1806F09D10121281DA2
:104BE00000F080F880464046C0B2002800D047461A
:104BF0002868000320D5DFF8E8100A6832F0406228
:104C0000E86C02430A60E86CB0F1006F06D1DFF88F
:104C1000C000016851F4801101600DE0E86CB0F152
:104C2000806F09D10121281D00F05CF880464046C4
:104C3000C0B2002800D047462868400320D5DFF8DE
:104C4000A0100A6832F04062286D02430A60286DA5
:104C5000B0F1006F06D1DFF87800016851F48011DF
:104C600001600DE0286DB0F1806F09D10121281D90
:104C700000F038F880464046C0B2002800D04746D1
:104C80002868400415D5DFF858100A6832F0405201
:104C9000686D02430A60686DB0F1805F09D102213E
:104CA000281D00F01FF880464046C0B2002800D002
:104CB00047462868000407D5DFF824100A6832F058
:104CC0008042A86D02430A603800C0B2BDE8F28F8E
:104CD0000C1002405810024000700040901002403A
:104CE000881002402DE9F04105000C0000275949C9
:104CF000086810F0030F12D0086810F003002A684B
:104D0000904209D12868002806D00868C0F3021034
:104D1000401C6968884232D0012007002FE02868D3
:104D2000012804D01BD303280FD007D317E04A482B
:104D30000068800701D40120070012E0464800689F
:104D4000400501D4012007000BE0434802689203AC
:104D500004D40068400301D40120070001E00120D1
:104D600007003800C0B2002809D10A6832F0730287
:104D7000286802436868401E52EA00120A60380040
:104D8000C0B2002861D1DFF8D080D8F8000030F040
:104D90008060C8F80000FFF783FD0600D8F8000027
:104DA000000106D5FFF77CFD801B0328F6D3032006
:104DB00007003800C0B2002847D1002C0BD127498A
:104DC0000A6827480240A86852EA0022E86852EAC6
:104DD000C0620A601CE0012C0DD120490A682148FC
:104DE0000240A86852EA002228694008401E52EAA0
:104DF00040520A600CE019490A681B480240A86842
:104E000052EA002268694008401E52EA40620A6085
:104E1000D8F8000050F08060C8F80000FFF740FDAF
:104E20000600D8F80000000106D4FFF739FD801B0A
:104E30000328F6D3032007003800C0B2002804D1AD
:104E400006490A68A86902430A603800C0B2BDE892
:104E5000F08100000C1002400010024010100240CF
:104E6000FF80FF07FF809FFFFF80FFF930B4010044
:104E7000002901D1012067E00868624A90420AD205
:104E80000A68614882181420B2FBF0F08000486480
:104E90005E48086409E00A685D4882181420B2FB85
:104EA000F0F0800048645B480864022081F8250027
:104EB000086802686FF30E128B68C86803430869BC
:104EC00003434869034388690343C8690343086A85
:104ED00003431A43086802608868B0F5804F2AD0FF
:104EE000086C4A4B984213D14B4803680F2491F841
:104EF000445015F01C05AC40A343036003684C68A4
:104F000091F8445015F01C05AC402343036012E0B7
:104F1000424803680F2491F8445015F01C05AC403A
:104F2000A343036003684C6891F8445015F01C05D6
:104F3000AC40234303600020C863012081F82500B2
:104F4000002081F82400002030BC704710B401001C
:104F5000002901D1012053E00868006840084000A2
:104F60000A6810600868274A90420AD20A682648F0
:104F700082181420B2FBF0F08000486423480864D3
:104F800009E00A68224882181420B2FBF0F0800081
:104F900048642048086400200A681060012091F8E5
:104FA000442012F01C0290400A6C5060086C174AB2
:104FB00090420AD1184802680F2391F8444014F037
:104FC0001C04A3409A43026009E0144802680F23BE
:104FD00091F8444014F01C04A3409A43026000205E
:104FE000C862002008630020486300208863002016
:104FF000C863002081F82500002081F824000020EB
:1050000010BC704708040240F8FFFDBF00000240DA
:10501000F8FBFDBF00040240A8000240A8040240C3
:105020002DE9F04104000D0016001F005FF000089C
:1050300094F82400012801D102203BE0012084F8EB
:10504000240094F8250001282DD1022084F82500A1
:105050000020E06320680068400840002168086084
:105060003B0032002900200000F0F8F8206B0028F7
:1050700006D02068006850F00E00216808600BE040
:105080002068006830F0040021680860206800682B
:1050900050F00A00216808602068006850F00100A4
:1050A0002168086004E0002084F824000220804683
:1050B0004046C0B2BDE8F0810100002291F8250011
:1050C000022806D00420C863002081F824000120B3
:1050D0001BE00868006830F00E000B681860086874
:1050E0000068400840000B681860012091F84430C7
:1050F00013F01C0398400B6C5860012081F82500C8
:10510000002081F824001000C0B2704738B50400B8
:10511000002594F82500022804D00420E063012033
:1051200005001FE02068006830F00E00216808606C
:10513000206800684008400021680860012094F859
:10514000441011F01C018840216C4860012084F853
:105150002500002084F82400A06B002802D0200045
:10516000A16B88472800C0B232BD70B50400206C26
:10517000056820680668042094F8441011F01C01AA
:1051800010FA01F10D4219D0710717D5216809688D
:10519000890605D42168096831F00401226811608C
:1051A00094F8441011F01C018840216C4860206B79
:1051B000002852D02000216B88474EE0022094F84E
:1051C000441011F01C0110FA01F10D421FD0B1077B
:1051D0001DD521680968890608D42168096831F05D
:1051E0000A0122681160012184F8251094F8441006
:1051F00011F01C018840216C4860002084F82400D4
:10520000E06A002829D02000E16A884725E00820CC
:1052100094F8441011F01C01884005421DD030075D
:105220001BD52068006830F00E002168086001205E
:1052300094F8441011F01C018840216C4860012052
:10524000E063012084F82500002084F82400606BCE
:10525000002802D02000616B884770BD30B4012463
:1052600090F8445015F01C05AC40056C6C60046867
:1052700063608468102C04D10468A2600468E16053
:1052800003E00468A1600468E26030BC704700007D
:1052900010B410F00703DFF8684122684FF6FF01F1
:1052A0000A40DFF8601151EA03210A43226010BC72
:1052B0007047DFF84C010068C0F30220704700001F
:1052C000010049B200290AD4012210F01F018A40CE
:1052D000DFF8341103005BB25B0941F8232070470B
:1052E000010049B200290DD4012210F01F018A40AB
:1052F000464903005BB25B0941F82320BFF34F8F9F
:10530000BFF36F8F704710B4020052B2002A05D469
:105310000A013F4B040064B21A5508E00A013D4BF4
:10532000040064B214F00F04234403F8042C10BCEE
:10533000704770B4030013F00704D4F10700052888
:1053400001D3042001E0D4F10700251D072D01D26F
:10535000002500E0E51E012616FA00F0401E01407F
:10536000A94016FA05F56D1E2A401143080070BCCD
:10537000704710B50400601EB0F1807F01D301209A
:105380000EE0601E244908600F215FF0FF30FFF738
:10539000BAFF002021490860072021490860002049
:1053A00010BD10B504002000FFF772FF10BD2DE9FD
:1053B000F04104000D0016000027FFF77AFF804639
:1053C000320029004046FFF7B4FF0100200040B240
:1053D000FFF799FFBDE8F08110B50400200040B24E
:1053E000FFF76EFF10BD10B50400200040B2FFF7BC
:1053F00077FF10BD10B504002000FFF7BAFF10BD05
:105400000CED00E00000FA0500E100E080E100E0C2
:1054100000E400E018ED00E014E000E018E000E037
:1054200010E000E0BBBBE1B1B2F5803F80F07E80D0
:10543000022A1ED98C46B1FBF2F102FB11C31B04F8
:1054400043EA1043B3FBF2FC02FB1C3380B240EA98
:105450000343B3FBF2F002FB103240EA0C4000239E
:105460007047022A05D98446B0FBF2F002FB10C255
:1054700070474AB105D100F0010249085FEA3000E7
:10548000704700220023704703F048BD0B00020064
:10549000002100207047904271EB030CF6D3B3F566
:1054A000803F2FD2F0B5B3FA83F7B1FA81F4A7F1B8
:1054B0000F0E3D1B5340CEF1200602FA0EF2F341CF
:1054C0005340B5F10F0746D80F3C2C444140C4F17E
:1054D0002006A040F1414140B1FBF3F603FB161159
:1054E000A2FB0645001BA94102D2761E8018594135
:1054F00080EA010221FA0EF362FA0EF200215A400C
:105500003046F0BD30B4B1FBF3FC03FB1C11A2FB31
:105510000C45001BA94103D2ACF1010C8018594184
:1055200030BC02460B46604600217047B2F1807FD6
:1055300065D3F0B5B2FA82F7B1FA81F4C7F10F067C
:105540003D1B22FA06F307F1110EF24120355A40B5
:10555000B5F10F07B8D94140C4F12006A040F14190
:105560004140B1FBF3FC03FB1C11A2FB0C45001BEB
:10557000A94103D2BCF1010C801859410F2F12D35D
:105580000F3FC90341EA5041B1FBF3F603FB16118B
:10559000A2FB0645D4EBC030A94102D2761E80188A
:1055A000594146EACC3C07B34140C7F12006B84018
:1055B000F1414140B1FBF3F603FB1611A2FB064596
:1055C000001BA94102D2761E8018594180EA0102CF
:1055D00021FA0EF3C7F1200462FA0EF20CFA07F07A
:1055E0005A402CFA04F13043F0BD80EA010221FA5E
:1055F0000EF3002162FA0EF260465A40F0BD8C466E
:10560000B1FBF2F102FB11C31B0243EA1063B3FBCF
:10561000F2FC02FB1C331B024CEA002043EA10633D
:10562000B3FBF2FC02FB1C331B024CEA002043EAF2
:105630001063B3FBF2FC02FB1C331B024CEA00209C
:1056400043EA1063B3FBF2FC02FB1C324CEA00207D
:1056500000237047C0F3C75181B1FF2906D0C110A4
:10566000400721F0E04101F16051704741020CBF59
:1056700040F4E0016FF000410020704700F000416D
:1056800000020AD0B0FA80FC00FA0CF001F160517F
:10569000A1EB0C5101EBD02140057047014648B108
:1056A000B0FA80F18840C91CC1F58461090501EB9D
:1056B000D021400570470000C11768B14840401A2A
:1056C000B0FA80F29040D21CC907C2F5846241EA68
:1056D000025202EBD02140057047000041EC100B54
:1056E00001BD80B553EC112B51EC100B03F018FCED
:1056F000F4E70000B0B581EA030C0CF0004C40F276
:10570000FF7515EA11541DBF15EA1357AC42AF429D
:1057100039E0E41923EA455343F48013C90241F008
:10572000004141EA505EC7021100A7FB02020028B7
:105730004FF00000EEFB01204FF00001E3FB0721DA
:1057400018BF42F00102401800214941E3FB0E015D
:10575000A4F580640F0302D252004041494154F144
:1057600001046CDD470872F1004250F1000051EB7A
:105770000451A1F580115CBF41EA0C01B0BD4CEAB7
:1057800005510020B0BD05EA1357AC4214BFAF422B
:1057900041E050EA410E1CBF52EA430E02E061466E
:1057A0000020B0BD24423C441BD15FEA070EF6D076
:1057B000090302BF01460020AEF1140EB1FA81F7D1
:1057C000AEEB070401FA07FE0C37C7F1200100FA1F
:1057D00007F7C8404EEA000E23EA455343F480130E
:1057E000A2E733F00043B3FA83F704BFB2FA82FEB4
:1057F00077440B3FE41BB7F1200E2FBF02FA0EF3E4
:10580000BB40C7F1200E22FA0EFE38BF43EA0E035A
:10581000BA40641C82E750EA410E14BF52EA430EBC
:105820006FF000014FF4001717EB430F8ABF1946C2
:1058300017EB410FB5E74CEA05510020B0BDD4F19C
:105840000104B4F120070FDAC4F12007520828BF81
:1058500042F0010210FA07F501FA07F7E1BF2A4307
:10586000E0403843E1400FE0352C98DCC7F12004DC
:1058700052EA400220FA07F218BF42F0010231FA60
:1058800007F0A1400A43002172F1004250F10000EC
:1058900051EB0C01B0BD000070B44FF0004591EA2F
:1058A000030F43F1BB866B40841A71EB030604D2ED
:1058B0006E40001BB141121973414FF4001C1CEBE8
:1058C000410F34BF7CEB430683E00C0DA4EB135671
:1058D000362E00F37C80012E45EAC32341DC43EAE7
:1058E000525312BFD20292025B08240545EAC1213D
:1058F00041EA5051D2EBC020994125D407D1B0FAEA
:1059000080F610FA06F162D00020203608E0B1FAE5
:1059100081F6B140C6F1200220FA02F21143B040F4
:105920004FEAF474B4EB465434F001064FEA7404C1
:105930000AD8D6F50016760D04F00044F04061FA5E
:1059400006F25040F1404840C00A40EA415021F080
:10595000004128BF5FEA500550F1000044EBD1211F
:1059600035E0DB0A45EAC121C90AB6F120050EDDA2
:1059700042EA0242120CC5F1200603FA06F6EB4099
:1059800042EA06056D42984161F100010DE062FABC
:1059900006F5F240554063FA06FC82EA0C02F34039
:1059A0005A406D42904161EB030111F4801F05D113
:1059B000641E620502D06D004041494121F480110E
:1059C000430875F1004350F1000041EB045170BCF5
:1059D00070471CEB410F15D223F0004352EA4306F7
:1059E0000BD04FEA4C0CBCEB410F04D80C0D661EDB
:1059F000342EB7DDEBE7801A994150EA410608BF23
:105A00000021E4E708BF1CEB430F28BF6FF0000143
:105A1000DDE7000001F000428B1AA3F16051B1F5FF
:105A2000801F0ADBB1F17F6F1FD242EAC102C100C1
:105A300071F1004142EB507070470B15C3F109033F
:105A4000212B10D2890241EA90518002012849415C
:105A500041F0004121FA03F0C3F12003994071F1B4
:105A6000004150417047100070476FF0000013EB89
:105A7000103F5CBF000E42EAC0507047C1F30A53AA
:105A800040F2FE329B1A14DDD3F120034FEAE1729B
:105A900008DDC90241EA505141F00040D840801869
:105AA0005040704703F2E13010B1D24382F0004021
:105AB000704700207047000080B5012240211F4838
:105AC000FCF735F81E491F4800F002FA00F01CF8F8
:105AD000012000F003F800F097FA01BD704711B5FE
