:020000040800F2
:10000000982C0020EDF500086DEF00086FEF000858
:1000100071EF000873EF000875EF000800000000A2
:1000200000000000000000000000000077EF000862
:1000300079EF0008000000007BEF00087DEF00086A
:1000400035F9000839F900083DF9000841F90008C0
:1000500045F9000849F900084DF9000851F9000870
:1000600055F9000859F900085DF9000861F9000820
:1000700065F90008CDEF000869F90008D7EF00081E
:100080006DF9000871F9000875F9000879F90008A0
:100090007DF9000881F9000885F9000889F9000850
:1000A0008DF9000891F9000895F9000899F9000800
:1000B0009DF900080000000000000000A1F9000800
:1000C000A5F90008A9F90008ADF90008B1F9000880
:1000D000B5F90008E1EF0008B9F90008EBEF0008F6
:1000E000BDF90008F5EF0008000000000000000066
:1000F0000000000000000000000000000000000000
:1001000000000000C1F9000800000000C5F9000867
:100110000000000000000000C9F90008CDF9000847
:10012000D1F90008D5F90008D9F90008DDF900086F
:10013000E1F90008000000000000000000000000DD
:10014000E5F90008E9F90008EDF90008F1F90008FF
:10015000F5F90008FFEF000809F00008F9F90008B8
:10016000FDF9000801FA000805FA00080000000087
:1001700009FA00080DFA000811FA00080000000052
:1001800015FA000819FA00081DFA000880B553484E
:100190000078012806D0022807D0042808D00828B3
:1001A00009D00BE000F0A2F808E000F0B1FE05E095
:1001B00001F072F802E001F031FAFFE701BD2DE92C
:1001C000F0470024464D2888002804D02888401E87
:1001D0002880002080E0414E307A00287BD1202109
:1001E000404801F005FF002801D1012700E0002769
:1001F000DFF8F4800421404601F0FAFE002802D125
:100200005FF0010901E05FF000090221404601F0C2
:10021000EFFE002802D15FF0010A01E05FF0000A62
:100220000121404601F0E4FE002801D1012000E058
:10023000002057EA490757EA8A073C0054EAC004FD
:100240002000C0B2012805D0022803D0042801D024
:10025000082836D17068401C7060706850282FD311
:10026000347001203072DFF88C1C0868142801D229
:1002700019202880DFF8800C22000378D2B29A423D
:1002800019D10A68521C0A600A681E2A02D200218B
:10029000716014E00A68B42A02D2412171600EE054
:1002A0000A68F02A02D24621716008E04E2272608C
:1002B000F0220A6003E00022726000220A600470EB
:1002C00009E00020DFF8301C087028207060002052
:1002D000DFF8201C08603078BDE8F0879C270020FC
:1002E000702800200008004800040048F8B584B0D9
:1002F000DFF8084CA078002817D001283AD002284F
:100300006AD0032800F0FB80042800F07F810528D4
:1003100000F05A82062800F0DE82072800F0A98348
:10032000092800F0B08400F0E3BDDFF8D45B0020C2
:10033000E860DFF8D06B0A220021300001F0DEFE19
:1003400030203070302070703020B0703020F0706D
:10035000E8680001801CC0B203900296052001905D
:1003600004200090052300220121A01C02F0C3FC00
:1003700000F0BEBDDFF8880BC168491CC160C168D0
:1003800004291EDBDFF87C0B02F0D0FC012815D11C
:10039000A51C0622290014F1080001F0FDFEF12041
:1003A0000390002002900C2001900720009007236A
:1003B00000220221280002F09EFC0BE00020A07029
:1003C00008E0C0680001801C0200D2B20021A01C1D
:1003D00002F06EFC00F08CBD207907280AD0C0F036
:1003E0008C80092832D01BD30B285BD044D30C2837
:1003F0006ED082E0A51C0622290014F1080001F04D
:10040000CBFEF1200390002002900F2001900E20DF
:1004100000900E2300220321280002F06CFC6CE007
:10042000A51C0622290014F1080001F0B5FEF120F8
:1004300003900020029016200190132000901323B7
:1004400000220421280002F056FC56E0A51C0622DA
:10045000290014F1080001F09FFEF1200390002014
:1004600002901920019018200090182300220521E5
:10047000280002F040FC40E0A51C0622290014F1EF
:10048000080001F089FEF1200390002002901D2059
:1004900001901B2000901B2300220621280002F05F
:1004A0002AFC2AE0A51C0622290014F1080001F00C
:1004B00073FEF120039000200290222001901F2063
:1004C00000901F2300220721280002F014FC14E0F2
:1004D000A51C0622290014F1080001F05DFE002091
:1004E00003900020029025200190252000902523D4
:1004F00000220821280002F0FEFB00F0F9BC207960
:100500000E2802D00F2840D07EE0E078002802D0EC
:1005100001281FD038E0A61C0622310014F1080083
:1005200001F03AFEDFF8D859F220039015F10C00E3
:1005300002900F2001900E2000900E23E278521CB2
:10054000D2B20321300002F0D6FBDFF8BC094078BC
:10055000E86019E0A51C0622290014F1080001F04A
:100560001BFEF020039000200290282001902820FC
:100570000090282300220921280002F0BCFB012062
:10058000DFF884190870FFE73EE0E078002802D029
:1005900001281FD038E0A61C0622310014F1080003
:1005A00001F0FAFDDFF85859F220039015F10C0024
:1005B00002900F2001900F2000900F23E278521C30
:1005C000D2B20321300002F096FBDFF83C0940680C
:1005D000E86019E0A51C0622290014F1080001F0CA
:1005E000DBFDF020039000200290282001902820BD
:1005F0000090282300220921280002F07CFB012022
:10060000DFF804190870FFE700F072BC20791328A6
:1006100008D0C0F0D88015286DD04ED3162800F031
:10062000B580D0E0E078002802D0012820D043E057
:10063000A61C0622310014F1080001F0ADFDDFF820
:10064000C058F220039015F10C0002901620019082
:10065000132000901323E278521CD2B20421300000
:1006600002F049FBDFF8A408B0F91C00E86023E0C1
:10067000A51C0622290014F1080001F08DFDF020D0
:100680000390002002902820019028200090282329
:1006900000220921280002F02EFBDFF8F44BDFF8DE
:1006A0006008C06800B203F06FF9208002222100C8
:1006B000032003F05CF8FFE785E0A51C0622290073
:1006C00014F1080001F068FDF02003900020029072
:1006D00028200190282000902823002209212800AA
:1006E00002F009FBDFF8A81BFF200880022205208A
:1006F00003F03DF867E0E078002802D0012820D020
:1007000043E0A61C0622310014F1080001F044FD6C
:10071000DFF8EC57F220039015F10C000290162040
:100720000190132000901523E278521CD2B20421CC
:10073000300002F0E0FADFF8D407B0F92000E860FA
:1007400023E0A51C0622290014F1080001F024FD75
:10075000F020039000200290282001902820009093
:10076000282300220921280002F0C5FADFF8204BD7
:10077000DFF88C07C06800B203F022F92080022263
:100780002100042002F0F3FFFFE71CE0A51C062275
:10079000290014F1080001F0FFFCF0200390002074
:1007A000029028200190282000902823002209216F
:1007B000280002F0A0FADFF8D81AFF2008800222F1
:1007C000062002F0D4FF93E32079182802D01928DC
:1007D00040D07FE0E078002802D001281FD038E028
:1007E000A61C0622310014F1080001F0D5FCDFF848
:1007F0001057F220039015F10C000290192001907F
:10080000182000901823E278521CD2B20521300043
:1008100002F071FADFF8F006C069E86019E0A51C83
:100820000622290014F1080001F0B6FCF020039024
:1008300000200290282001902820009028230022E8
:100840000921280002F057FA0120DFF8BC160870D1
:10085000FFE73FE0E078002802D001281FD038E011
:10086000A61C0622310014F1080001F095FCDFF807
:100870009056F220039015F10C000290192001907F
:10088000182000901923E278521CD2B205213000C2
:1008900002F031FADFF87006006AE86019E0A51C82
:1008A0000622290014F1080001F076FCF0200390E4
:1008B0000020029028200190282000902823002268
:1008C0000921280002F017FA0120DFF83C16087011
:1008D000FFE7FFE70CE320791B2806D0C0F0C880B3
:1008E0001D2800F0858043D3C2E0E078002802D0C4
:1008F000012822D03BE0A71C0622390014F1080091
:1009000001F04AFCDFF8F85515F10C06F2200390CF
:1009100002961D2001901B2000901B23E278521CA0
:10092000D2B20621380002F0E6F9DFF86809007853
:10093000E860DFF8D405C66219E0A51C062229008C
:1009400014F1080001F028FCF02003900020029030
:100950002820019028200090282300220921280027
:1009600002F0C9F90120DFF8A0150870FFE77FE069
:10097000E078002802D001281FD038E0A61C06220B
:10098000310014F1080001F007FCDFF87455F22083
:10099000039015F10C0002901D2001901B20009087
:1009A0001C23E278521CD2B20621300002F0A3F9D7
:1009B000DFF85405406AE86019E0A51C062229000A
:1009C00014F1080001F0E8FBF020039000200290F1
:1009D00028200190282000902823002209212800A7
:1009E00002F089F90120DFF820150870FFE73FE0E9
:1009F000E078002802D001281FD038E0A61C06228B
:100A0000310014F1080001F0C7FBDFF8F454F220C4
:100A1000039015F10C0002901D2001901B20009006
:100A20001D23E278521CD2B20621300002F063F995
:100A3000DFF8D404806AE86019E0A51C06222900CA
:100A400014F1080001F0A8FBF020039000200290B0
:100A50002820019028200090282300220921280026
:100A600002F049F90120DFF8A0140870FFE7FFE762
:100A70003EE220791F2809D0C0F00481212800F02F
:100A8000858043D3222800F0C080FBE0E078002876
:100A900002D001281FD038E0A61C0622310014F134
:100AA000080001F079FBDFF85854F220039015F1AB
:100AB0000C000290222001901F2000901F23E2785A
:100AC000521CD2B20721300002F015F9DFF83804C9
:100AD000006BE86019E0A51C0622290014F108004B
:100AE00001F05AFBF0200390002002902820019092
:100AF00028200090282300220921280002F0FBF87A
:100B00000120DFF804140870FFE7BBE0E07800285C
:100B100002D001281FD038E0A61C0622310014F1B3
:100B2000080001F039FBDFF8D853F220039015F1EB
:100B30000C000290222001901F2000902023E278D8
:100B4000521CD2B20721300002F0D5F8DFF8B8030A
:100B5000406BE86019E0A51C0622290014F108008A
:100B600001F01AFBF0200390002002902820019051
:100B700028200090282300220921280002F0BBF839
:100B80000120DFF884130870FFE77BE0E07800289D
:100B900002D001281FD037E0A61C0622310014F134
:100BA000080001F0F9FADFF85853F220039015F12C
:100BB0000C000290222001901F2000902123E27857
:100BC000521CD2B20721300002F095F8DFF838034A
:100BD000806BE86018E0A51C0622290014F10800CB
:100BE00001F0DAFAF0200390002002902820019012
:100BF00028200090282300220921280002F07BF8F9
:100C00000120C1490870FFE73CE0E078002802D0ED
:100C100001281DD035E0A61C0622310014F1080081
:100C200001F0BAFAB64DF220039015F10C000290D3
:100C3000222001901F2000902223E278521CD2B281
:100C40000721300002F057F8AF48C06BE86018E0A9
:100C5000A51C0622290014F1080001F09DFAF020DD
:100C60000390002002902820019028200090282343
:100C700000220921280002F03EF80120A249087054
:100C8000FFE7FFE734E1207A03280AD0C0F02F8184
:100C9000052838D0C0F02881072800F0B08067D33D
:100CA00025E1322001F0D1FC032097490870A07A99
:100CB0000E2802D00F2809D024E0DFF84809417837
:100CC0008F48C068C0B203F088FE1BE0002001001E
:100CD000C9B20B290FDADFF830190200D2B251F88D
:100CE0002210874AD268914203D1DFF81819487060
:100CF00001E0401CEBE7DFF80C094178007803F0D5
:100D00006CFEFFE7F3E0804D03202870322001F0F5
:100D10009CFCA07A182802D0192814D027E0287A41
:100D200004F06CF800EE100A7848D0ED060A74481A
:100D300090ED031AB8EEC11AB8EE400A81EE000A2F
:100D400002F0E4FE13E0687A04F058F800EE100AAE
:100D50006B48D0ED030AF8EEE00AB8EE400AC0EEA8
:100D6000800A6A4890ED050A02F0D0FEFFE7BEE077
:100D7000654D03202870322001F067FCA07A1B2803
:100D800004D03BD31D2823D00CD337E0DFF8040573
:100D9000D0ED020A90ED010A5948C068C0B202F0D5
:100DA00065FF2BE0A87A04F029F800EE100ADFF8BE
:100DB000E4045349D1ED030AF8EEE00AB8EE400A24
:100DC000C0EE800A90ED010A007802F04FFF15E0B6
:100DD000A87A04F013F800EE100ADFF8B804D0ED9A
:100DE000020A474991ED031AB8EEC11AB8EE400A5B
:100DF00081EE000A007802F039FFFFE777E0424D0C
:100E000003202870322001F020FCA07A1F2806D091
:100E100069D3212835D01BD322284BD063E0E87A50
:100E200003F0ECFF00EE100ADFF8E007D0ED031A44
:100E300090ED021AD0ED010A314890ED032AB8EE88
:100E4000C22AB8EE400A82EE000A02F0D0FF4AE061
:100E5000E87A03F0D3FF00EE100ADFF8B007D0ED18
:100E6000031A90ED021A2649D1ED030AF8EEE00AC2
:100E7000B8EE400AC0EE800A90ED000A02F0B7FF1B
:100E800031E0E87A03F0BAFF00EE100ADFF87C07E1
:100E9000D0ED031A1A49D1ED030AF8EEE00AB8EED4
:100EA000400A80EE801AD0ED010A90ED000A02F0AF
:100EB0009EFF18E0E87A03F0A1FF00EE100ADFF8C9
:100EC0004C070F49D1ED030AF8EEE00AB8EE400AEC
:100ED000C0EE801A90ED021AD0ED010A90ED000AE2
:100EE00002F085FFFFE702E002F031FCFFE7FFE7D9
:100EF00005B0F0BD2828002080280020E42700202D
:100F00009C270020000000207C00002034270020C7
:100F100010B5DFF8FC36987800280ED002281ED0D5
:100F20000CD3042876D027D3062800F0E480C0F044
:100F3000AF80072800F03781A8E1A7E1DFF8D406E9
:100F4000DFF8D416CA68825C521CCB68C254CA68E7
:100F5000825C3A2A02DB3022C968425496E1587911
:100F60001979884202D21879401E1871F1220021A5
:100F7000981C01F09DFE89E1D87800280CD15879A1
:100F80001979884202D21879401E1871F122002185
:100F9000981C01F08DFE3CE018790E2802D00F2835
:100FA00012D036E0D878002802D0012801D00AE01B
:100FB00009E0DFF86406C168B1F5807F02DAC16834
:100FC000491CC160FFE724E0D878002802D001283E
:100FD00001D01EE01DE000210800C0B20B2817DA86
:100FE000DFF82426DFF830060B00DBB252F823309E
:100FF000C468A3420AD10B00DBB20A2B06DA0B004D
:10100000DBB202EB83025268C26001E0491CE3E7F5
:10101000FFE73BE1D87800280CD15879197988424C
:1010200002D21879401E1871F1220021981C01F09B
:101030003FFE2CE01879132806D028D3152815D0A8
:1010400013D3162823D022E0D878002802D0012814
:1010500001D009E008E0DFF8C0450121E06800B2F6
:1010600002F0C4FBE060FFE711E010E0D878002850
:1010700002D0012801D009E008E0DFF89C450121F9
:10108000E06800B202F01AFCE060FFE7FFE7FDE075
:10109000D87800280CD158791979884202D2187969
:1010A000401E1871F1220021981C01F001FE21E080
:1010B0001879182802D019280ED01BE0D8780028FB
:1010C00002D0012801D006E005E0DFF84C05C16838
:1010D000491CC160FFE70DE0D878002802D0012844
:1010E00001D006E005E0DFF83005C168491CC160A9
:1010F000FFE7FFE7CAE0D87800280CD158791979C2
:10110000884202D21879401E1871F1220021981CE1
:1011100001F0CEFD46E018791B2804D042D31D28EB
:101120002CD013D33EE0D878002802D0012801D07B
:101130000BE00AE0DFF8E014C868002802D10120C3
:10114000C86001E00020C860FFE72BE0D8780028E5
:1011500002D0012801D010E00FE0DFF8300B807AD8
:1011600003F04CFEDFF8B024D3680E2148438342DD
:1011700002D2D068401CD060FFE713E0D878002886
:1011800002D0012801D00CE00BE0DFF88C04C1682C
:10119000DFF8F82A526A914202DAC168491CC1603C
:1011A000FFE7FFE772E0D87800280CD15879197969
:1011B000884202D21879401E1871F1220021981C31
:1011C00001F076FD61E018791F2806D05DD3212853
:1011D0002FD01AD3222844D057E0D878002802D044
:1011E000012801D010E00FE0DFF8A00AC07A03F078
:1011F00005FEDFF82424D3680E214843834202D23F
:10120000D068401CD060FFE73FE0D878002802D0CB
:10121000012801D00CE00BE0DFF8FC03C168DFF827
:101220006C2A126B914202DAC168491CC160FFE767
:101230002BE0D878002802D0012801D010E00FE080
:10124000DFF8480AC07A03F0D9FDDFF8CC23D36871
:1012500050214843834202D2D068401CD060FFE74F
:1012600013E0D878002802D0012801D00CE00BE070
:10127000DFF8A403C168DFF8142A926B914202DA06
:10128000C168491CC160FFE7FFE7FFE710BD000030
:10129000722800201028002010B5DFF874339878E9
:1012A00000280ED002281ED00CD3042876D027D3D5
:1012B000062800F0E280C0F0AF80072800F03281FD
:1012C0009FE19EE1DFF84C03DFF84C13CA68825CB3
:1012D000521ECB68C254CA68825C302A02DA3922B4
:1012E000C96842548DE118799979884202D21879F7
:1012F000401C1871F1220021981C01F0D9FC80E1FA
:10130000D87800280CD118799979884202D21879B6
:10131000401C1871F1220021981C01F0C9FC3CE02E
:1013200018790E2802D00F2811D036E0D87800287E
:1013300002D0012801D009E008E0DFF8DC02C16832
:10134000012902DBC168491EC160FFE725E0D878AA
:10135000002802D0012801D01FE01EE00A22100060
:10136000C0B2002818D0DFF8A032DFF8AC121000AD
:10137000C0B253F82000CC68A0420BD11000C0B21C
:10138000002807D01000C0B203EB800050F8040C16
:10139000C86001E0521EE2E7FFE732E1D87800289A
:1013A0000CD118799979884202D21879401C1871A9
:1013B000F1220021981C01F07BFC2CE01879132805
:1013C00006D028D3152815D013D3162823D022E011
:1013D000D878002802D0012801D009E008E08E4C1E
:1013E0005FF0FF31E06800B202F000FAE060FFE772
:1013F00011E010E0D878002802D0012801D009E0DF
:1014000008E0854C5FF0FF31E06800B202F056FA68
:10141000E060FFE7FFE7F4E0D87800280CD1187906
:101420009979884202D21879401C1871F122002162
:10143000981C01F03DFC1FE01879182802D01928EB
:101440000DD019E0D878002802D0012801D005E09D
:1014500004E07148C168491EC160FFE70CE0D8781C
:10146000002802D0012801D005E004E06A48C168E4
:10147000491EC160FFE7FFE7C3E0D87800280CD120
:1014800018799979884202D21879401C1871F12292
:101490000021981C01F00CFC43E018791B2804D0B3
:1014A0003FD31D2826D012D33BE0D878002802D0A5
:1014B000012801D00AE009E05749C868002802D194
:1014C0000120C86001E00020C860FFE729E0D8786B
:1014D000002802D0012801D00BE00AE04E48DFF8D6
:1014E000AC17896AC268914202DAC168491EC160BC
:1014F000FFE716E0D878002802D0012801D00FE0DD
:101500000EE0DFF88807807A03F078FC424A002179
:101510004843D168884202D2D068401ED060FFE7BD
:10152000FFE76EE0D87800280CD1187999798842C5
:1015300002D21879401C1871F1220021981C01F088
:10154000B7FB5DE018791F2806D059D321282DD08C
:1015500015D322283DD053E0D878002802D00128A6
:1015600001D00BE00AE02C48DFF82017496BC26875
:10157000914202DAC168491EC160FFE740E0D878B5
:10158000002802D0012801D00FE00EE0DFF8FC06B1
:10159000C07A03F033FC204A00214843D1688842D6
:1015A00002D2D068401ED060FFE729E0D87800283A
:1015B00002D0012801D00BE00AE01748DFF8CC1672
:1015C000C96BC268914202DAC168491EC160FFE777
:1015D00016E0D878002802D0012801D00FE00EE0F4
:1015E000DFF8A806C07A03F009FC0B4A0021484343
:1015F000D168884202D2D068401ED060FFE7FFE782
:10160000FFE710BDD00B002058060020F427002073
:10161000E4270020000000209C2700207FB5DFF891
:101620007046A078002814D0022816D012D30428BF
:1016300000F0898014D3062800F08681C0F0118163
:10164000082800F00D83C0F02A82092800F00F83DB
:101650001AE319E30020A07016E30020A07013E342
:1016600020790E2802D00F2836D06BE0E0780028D1
:1016700002D0012816D02EE0A51CF12003900020F6
:1016800002900C20019007200090072300220221E5
:10169000280001F030FB0622290014F1080000F0B8
:1016A0007BFD18E0A51C0622290014F1080000F0BB
:1016B00073FDF1200390DFF8DC0502900F2001900C
:1016C0000E2000900E23E078421ED2B203212800A3
:1016D00001F011FBFFE735E0E078002802D0012897
:1016E00016D02EE0A51CF1200390002002900C20C3
:1016F000019007200090072300220221280001F01A
:10170000FAFA0622290014F1080000F045FD18E05D
:10171000A51C0622290014F1080000F03DFDF1206F
:101720000390DFF8740502900F2001900E200090C6
:101730000F23E078421ED2B20321280001F0DBFA29
:10174000FFE7FFE7A0E22079132807D0C0F08880E8
:10175000152839D06ED316286CD081E0E0780028A7
:1017600002D0012816D02EE0A51CF1200390002005
:1017700002900C20019007200090082300220221F3
:10178000280001F0B8FA0622290014F1080000F040
:1017900003FD18E0A51C0622290014F1080000F042
:1017A000FBFCF1200390DFF8F40402901620019076
:1017B000132000901323E078421ED2B204212800A7
:1017C00001F099FAFFE74BE0E078002802D0012809
:1017D00016D02EE0A51CF1200390002002900C20D2
:1017E000019007200090082300220221280001F028
:1017F00082FA0622290014F1080000F0CDFC18E05E
:10180000A51C0622290014F1080000F0C5FCF120F7
:101810000390DFF88C0402901620019013200090B2
:101820001523E078421ED2B20421280001F063FAA9
:10183000FFE715E0A51CF1200390002002900C208A
:10184000019007200090082300220221280001F0C7
:1018500052FA0622290014F1080000F09DFCFFE76F
:1018600012E22079182802D0192836D06BE0E078EF
:10187000002802D0012816D02EE0A51CF1200390EC
:10188000002002900C2001900720009009230022E4
:101890000221280001F02FFA0622290014F1080085
:1018A00000F07AFC18E0A51C0622290014F10800BB
:1018B00000F072FCF1200390DFF8E8030290192099
:1018C0000190182000901823E078421ED2B2052122
:1018D000280001F010FAFFE735E0E078002802D098
:1018E000012816D02EE0A51CF120039000200290C4
:1018F0000C200190072000900923002202212800DB
:1019000001F0F9F90622290014F1080000F044FC66
:1019100018E0A51C0622290014F1080000F03CFC88
:10192000F1200390DFF88003029019200190182025
:1019300000901923E078421ED2B20521280001F060
:10194000DAF9FFE7FFE79FE120791B2805D0C0F017
:10195000A5801D286DD037D3A0E0E078002802D004
:10196000012816D02FE0A51CF12003900020029042
:101970000C200190072000900A2300220221280059
:1019800001F0B9F90622290014F1080000F004FC66
:1019900019E0A51C0622290014F1080000F0FCFB48
:1019A000C24EF120039002961D2001901B20009052
:1019B0001B23E078421ED2B20621280001F09BF9D9
:1019C000B248C662FFE769E0E078002802D001284B
:1019D00016D02DE0A51CF1200390002002900C20D1
:1019E0000190072000900A2300220221280001F024
:1019F00082F90622290014F1080000F0CDFB17E05F
:101A0000A51C0622290014F1080000F0C5FBF120F6
:101A10000390A74802901D2001901B2000901C23DA
:101A2000E078421ED2B20621280001F064F9FFE7F7
:101A300034E0E078002802D0012816D02DE0A51C63
:101A4000F1200390002002900C20019007200090CC
:101A50000A2300220221280001F04DF90622290064
:101A600014F1080000F098FB17E0A51C06222900DD
:101A700014F1080000F090FBF12003908D480290D3
:101A80001D2001901B2000901D23E078421ED2B241
:101A90000621280001F02FF9FFE7FFE7F4E02079A5
:101AA0001F2808D0C0F0DB8021286ED038D3222830
:101AB00000F0A080D3E0E078002802D0012816D002
:101AC0002DE0A51CF1200390002002900C20019035
:101AD000072000900B2300220221280001F00BF9BF
:101AE0000622290014F1080000F056FB17E0A51C9F
:101AF0000622290014F1080000F04EFBF1200390AB
:101B00006D480290222001901F2000901F23E07852
:101B1000421ED2B20721280001F0EDF8FFE79EE057
:101B2000E078002802D0012816D02DE0A51CF12075
:101B30000390002002900C200190072000900B23BE
:101B400000220221280001F0D6F80622290014F113
:101B5000080000F021FB17E0A51C0622290014F163
:101B6000080000F019FBF120039054480290222055
:101B700001901F2000902023E078421ED2B207215E
:101B8000280001F0B8F8FFE769E0E078002802D00B
:101B9000012816D02DE0A51CF12003900020029012
:101BA0000C200190072000900B2300220221280026
:101BB00001F0A1F80622290014F1080000F0ECFA67
:101BC00017E0A51C0622290014F1080000F0E4FA31
:101BD000F12003903A480290222001901F200090AB
:101BE0002123E078421ED2B20721280001F083F8B9
:101BF000FFE734E0E078002802D0012816D02DE07D
:101C0000A51CF1200390002002900C2001900720D9
:101C100000900B2300220221280001F06CF806221C
:101C2000290014F1080000F0B7FA17E0A51C0622FD
:101C3000290014F1080000F0AFFAF12003902148C8
:101C40000290222001901F2000902223E078421E63
:101C5000D2B20721280001F04EF8FFE7FFE713E0BA
:101C6000062214F10801A01C00F096FA0CE0074DC2
:101C70002878022807D0062214F10801A01C00F0E1
:101C80008BFA00202870FFE77FBD00007C00002059
:101C9000E42700207D000020800000205027002045
:101CA00054270020980000209C00002010280020CD
:101CB000A0000020A4000020AC000020B000002004
:101CC000B4000020B8000020F8B403000025086824
:101CD000E840002800F0D78001260F6816FA05F0CA
:101CE00007403A00002A00F0CC80087910F0030089
:101CF000012804D0087910F0030002281DD19F6844
:101D00005FF0030C2800C0B240001CFA00FC37EA68
:101D10000C07D1F80CC02800C0B240001CFA00FC2F
:101D20005CEA07079F605868AE40B0434E68C6F350
:101D30000016AE40304304005C60087910F00300E8
:101D400003280ED0DE6803272800C0B24000874079
:101D5000BE438F682800C0B2400087403E43340035
:101D6000DC60087910F00300022818D12800C008B0
:101D700003EB8000066A0F2715F00700C0B2800051
:101D80008740BE430F6915F00700C0B2800087404E
:101D90003E4334002800C00803EB800004621E6844
:101DA00003272800C0B240008740BE430F7917F0D8
:101DB00003072800C0B2400087403E4334001C6047
:101DC000486810F4403F5CD09548066856F001061C
:101DD0000660006810F0010000900098914F280004
:101DE000800857F820605FF00F0C15F00300C0B2B8
:101DF00080001CFA00FC36EA0C06B3F1904F01D1CA
:101E0000002414E08848834201D101240FE0874870
:101E1000834201D102240AE08548834201D1032490
:101E200005E08448834201D1042400E0072415F032
:101E30000300C0B28000844026432800800847F891
:101E400020607D4C206890434F68FF0200D510430E
:101E500020607A4E346894434F68BF0200D5144323
:101E60003460774E306890434F68BF0300D510430D
:101E70003060744E346894434F68FF0300D51443B8
:101E800034606D1C23E7F1BC70472DE9F04103007D
:101E900000250800E840002800F0A880012616FA76
:101EA00005F008400200002A00F09E80DFF874C1AF
:101EB000280080085CF820000F2715F0030E5FFA59
:101EC0008EFE5FEA8E0E17FA0EFE1EEA0000040078
:101ED000B3F1904F02D15FF0000E19E052488342F7
:101EE00002D15FF0010E13E05048834202D15FF04F
:101EF000020E0DE04E48834202D15FF0030E07E070
:101F00004C48834202D15FF0040E01E05FF0070EFF
:101F100015F00300C0B280001EFA00FE74452CD1FB
:101F20004848D0F800E03EEA020EC0F800E044481D
:101F3000D0F800E03EEA020EC0F800E03F48D0F8DA
:101F400000E03EEA020EC0F800E03B48D0F800E0B6
:101F50003EEA020EC0F800E015F00300C0B28000B7
:101F600017FA00F00400280080085CF82000A04365
:101F7000AE465FEA9E0E4CF82E005FF0030C186828
:101F8000AE465FFA8EFE5FEA4E0E1CFA0EFE5EEA69
:101F9000000018602800C00803EB800E2800C0086D
:101FA00003EB8000D0F8208015F00700C0B280005D
:101FB000874038EA0707CEF8207098682F00FFB2F4
:101FC0007F001CFA07F7B84398605868AE4030EAC3
:101FD00006065E60DE682800C0B240001CFA00FC05
:101FE00036EA0C0CC3F80CC06D1C52E7BDE8F0815A
:101FF000020010690B009BB2184201D0012000E0E2
:102000000020C0B270471300DBB2002B03D00B00DE
:102010009BB2836102E00B009BB2836270470000B9
:102020006010024008000140000400480008004819
:10203000000C004800100048080401400C04014056
:10204000040401400004014038B504000D00DFF82D
:10205000FC010168200000F006F8A84201D301202D
:1020600000E0002032BD814204D25FF0FF32101A3E
:10207000081800E0081A704738B52DED048B08EEFB
:10208000100A0C001500DFED438A2800C0B2FB28BF
:1020900010DBB8EEC89A2800C0B24042C0B200F0CF
:1020A0008BF829EE009A00212000B0EE490A00F0DA
:1020B000B1F80EE0B8EEC89A2800C0B200F07CF883
:1020C00089EE009A2900C9B22000B0EE490A00F05A
:1020D000A1F8BDEC048B31BD10B400210A00838847
:1020E00092B29A4206D2002203680C00A4B21A559A
:1020F000491CF3E70022828010BC704710B4040032
:1021000013005A1E9BB2002B02D02170641CF7E70B
:1021100010BC704770B504000D001600DFF82401F4
:1021200000782100C9B2884209D3DFF82421106861
:10213000002804D0310089B228001268904770BD91
:1021400038B504000D00280003F05EF8020092B2DA
:1021500029002000C0B2FFF7DDFF31BD70B50400DB
:102160000D00280003F050F8020092B22900200070
:10217000C0B2FFF7CFFFDFF8DC603068002807D07F
:10218000280003F041F8010089B228003268904726
:1021900070BD00000000000030B404000D0013000A
:1021A0005A1E9BB2002B04D02B7823706D1C641C2C
:1021B000F5E730BC7047000010B504002000C0B245
:1021C000FB2816DB2000C0B2D0F5807003F054F875
:1021D00041EC110B9FED200B03F067F853EC102B33
:1021E0000020194903F06AF803F08CF900EE100A98
:1021F0000FE02000C0B203F0B9F941EC110B9FEDE4
:10220000160B03F052F851EC100B03F07BF900EEC3
:10221000100A10BD38B52DED028B82B0B0EE408AA9
:1022200004000D0018EE100A03F0AEF9CDE900012C
:102230002A000B49200003F0CBF902B0BDEC028B61
:1022400031BD0000D40B00200000F03F60280020CA
:1022500068280020642800200000000000002440BE
:102260000CF9000880B500224FF40071DFF8900BE4
:10227000FFF7C9FE00224FF400715FF09040FFF7B6
:10228000C2FE03F0C5F9DFF87C0BDFF87C1BC162EE
:10229000DFF8781B421CC1F85821021DC1F87021DB
:1022A00010F114020A62027A81F8252010F1180256
:1022B0008A63427A81F83D2010F10C02C1F8A02116
:1022C000027A81F8A521DFF8482B12F12403C1F826
:1022D000B83112F11C03C1F8D031937F81F8ED3190
:1022E00012F12003C1F8003292F8222081F81D2259
:1022F00010F11C02C1F84822027A81F84D2210F137
:102300002002C1F86022427A81F8652210F124028D
:10231000C1F8A822827A81F8AD2210F12802C1F812
:10232000C022827A81F8C52210F13002C1F8F02271
:10233000C27A81F8F52210F13402C1F80823C27A7A
:1023400081F80D2310F13802C1F82023C27A81F8F8
:10235000252310F13C02C1F83823C07A81F83D03EF
:10236000DFF8B80A0068C1F88003DFF8B40A006833
:10237000C1F8B00301BD38B5002000242000C0B270
:10238000072835DADFF89C5A2000C0B20001284443
:10239000407801282AD12000C0B2000128444068BA
:1023A00000280ED003F08CF92100C9B2090129449C
:1023B0004968401A2100C9B2090129448968884244
:1023C00014D300202100C9B209012944487003F048
:1023D00077F92100C9B20901294448602000C0B240
:1023E0002100C9B209012944C9688847641CC5E7AE
:1023F000002032BD38B50400DFF82C5A6878002878
:102400001FD100224FF40071DFF8F409FFF7FBFD44
:1024100000224FF400715FF09040FFF7F4FD03F0ED
:10242000F7F889200090202307220521DFF8FC0916
:1024300003F04CF9012068700221DFF8E80903F08D
:102440008DFA012032BD7CB50400DFF8E45928780C
:10245000002803D0022823D003D33DE003F0A8FADC
:102460003AE003F01BFB892000902023072205217E
:10247000DFF8B80903F02AF9DFF8B82903212C2086
:1024800003F03EFADFF8B0290421082003F038FAFF
:1024900003F061FB41F28830DFF8881988611BE0A6
:1024A0000120DFF88419487089200090202307223A
:1024B0000521DFF8780903F009F9DFF868690221DE
:1024C000300003F04BFA0321300003F047FA0421F7
:1024D000300003F043FAFFE72878401C2870210001
:1024E000C9B2DFF8400903F048FA012076BD70B5A3
:1024F000040000F0BCF8DFF830596878012803D1F7
:10250000A87800F0ACFB04E00021DFF8180903F024
:1025100025FADFF82809A9780278914207D0A9782E
:102520000170DFF81C090068DFF818190860A87846
:102530000A2812D1DFF80C694FF4FA613068FFF70E
:1025400083FD012809D1DFF8F80800683060062211
:1025500015F10801A81CFFF71FFE2100C9B2DFF822
:10256000C40803F00AFA012070BD10B50400DFF8BA
:10257000D818DFF8D8080069FFF766FD012827D1D1
:10258000DFF8CC080178012905D100210170002075
:10259000DFF894188870DFF8BC080188491C0180B6
:1025A00042F21071DFF87C282300DBB21B011A44D1
:1025B0009268B1FBF2F102888A420DD300210180BA
:1025C000DFF864188878002806D00020887003E0BF
:1025D0000120DFF87C1808702100C9B2DFF8440838
:1025E00003F0CBF9012010BD38B50400FDF7E7FD7D
:1025F000DFF85858287A012808D10521DFF8240887
:1026000003F0ACF9DFF83808006828612100C9B28E
:10261000DFF8100803F0B1F9012032BD10B5040055
:10262000FDF7B4FDDFF824080021017000210172DC
:10263000012010BD10B5040000224FF40051DFF856
:10264000C007FFF7E0FC012010BD10B50400012217
:102650004FF40051DFF8A807FFF7D5FCDFF8C407F7
:10266000210089B28166062103F087F910BD38B5D3
:10267000DFF89047DFF8E007E16A097850F82100B9
:10268000DFF88817C1F89002DFF8D0070178617091
:10269000DFF8CC17407851F820006060207A02F013
:1026A000ADFB00EE100ADFF86857B8EE400AD5ED32
:1026B000010A20EE200ABDEEC00A84ED030A607A0A
:1026C00002F09CFB00EE100AB8EE400AD5ED020ABB
:1026D00020EE200ABDEEC00A84ED040A207A02F042
:1026E0008DFB00EE100AB8EE400AD5ED030A20EE8D
:1026F000200ABDEEC00A84ED050A607A02F07EFB76
:1027000000EE100AB8EE400AD5ED040A20EE200AC9
:10271000BDEEC00A84ED060A207A02F06FFB00EEDF
:10272000100AB8EE400AD5ED050A20EE200ABDEEEB
:10273000C00A84ED070A607A02F060FB00EE100A1E
:10274000B8EE400AD5ED060A20EE200ABDEEC00A1A
:1027500084ED080AA07A02F051FB00EE100ADFF8BF
:10276000A856B8EE400AD5ED020A20EE200ABDEECA
:10277000C00A84ED090AA07A02F040FB00EE100ABC
:10278000B8EE400AD5ED010A20EE200ABDEEC00ADF
:1027900084ED0A0AE07A02F031FB00EE100ADFF85D
:1027A000C456B8EE400AD5ED000A20EE200ABDEE70
:1027B000C00A84ED0C0AE07A02F020FB00EE100A59
:1027C000B8EE400AD5ED010A20EE200ABDEEC00A9F
:1027D00084ED0D0AE07A02F011FB00EE100AB8EE6B
:1027E000400AD5ED020A20EE200ABDEEC00A84EDB3
:1027F0000E0AE07A02F002FB00EE100AB8EE400A80
:10280000D5ED030A20EE200ABDEEC00A84ED0F0AC2
:1028100031BD2DE9F84F8AB006002021002202AC1C
:10282000200003F005FA0024002500208DF80500A3
:1028300000208DF806001827DFF8D0853000C0B2E0
:102840007843404490F815903000C0B2784340443B
:102850004068002842D001213000C0B200F0A9F940
:1028600000280ED13000C0B27843404442683000A6
:10287000C0B278434044017D4846C0B203F040F8FE
:102880001EE05FF0000A3000C0B278434044406868
:1028900002F0BAFC5146C9B2814207D2202002A9F7
:1028A0005246D2B288541AF1010AECE702AA30006B
:1028B000C0B278434044017D4846C0B203F020F8DE
:1028C0003000C0B278434044406802F09DFCDFF81D
:1028D00098150979491C484310FA89F93000C0B2AB
:1028E000784340448068002800F03A813000C0B24C
:1028F00078434044007B00280BD002281ED012D31E
:10290000042830D024D3062845D036D307283ED01B
:1029100044E03000C0B27843404480680078002131
:1029200004000D003AE03000C0B2784340448068B3
:1029300090F90000C11704000D002FE03000C0B274
:102940007843404480680088002104000D0025E0A1
:102950003000C0B2784340448068B0F90000C1172D
:1029600004000D001AE03000C0B278434044806893
:102970000068002104000D0010E03000C0B2784370
:10298000404480680068C11704000D0006E0012083
:102990008DF8050002E002208DF805009DF8050085
:1029A00000280CD13000C0B278434044407B404204
:1029B0000200D2B202A92000FFF75EFB26E09DF8DC
:1029C000050001281AD13000C0B278434044806825
:1029D00002F01AFC202819D23000C0B278434044DB
:1029E000806802F011FC020092B23000C0B278435D
:1029F0004044816802A8FFF7CFFB07E03000C0B277
:102A000078434044806800788DF808000221300047
:102A1000C0B200F0CEF8012823D13000C0B2784314
:102A20004044807DC0B200098DF806009DF8060084
:102A30000F2805D0202002A99DF80620885410E018
:102A40005FF0000A02A802F0DFFB5146C9B28142E2
:102A500007D2202002A95246D2B288541AF1010AA4
:102A6000F0E73000C0B201285ED15FF0000A00201C
:102A70008DF804003000C0B278434044407B002809
:102A800002D009208DF80400392000902E23152251
:102A90000F21DFF8D80303F0FFF802A802F0B4FB1F
:102AA0008346DFF8C4030079401C00FB0BFB58464B
:102AB000C0B2022190FBF1F01F280BDA5846C0B2D9
:102AC000022190FBF1F0D0F140009DF8041050FA83
:102AD00081FA07E05846C0B2D0F15F009DF80410BB
:102AE00050FA81FA02AA3000C0B278434044007D17
:102AF000401CC0B2DFF870134979D1EBC001491E08
:102B0000C9B25046C0B203F071FA5AFA8BF09DF880
:102B10000490B0EB090989200090202307220521A9
:102B2000C24802F0D3FD1BE0892000902023072239
:102B30000521BE4802F0CAFD02AA3000C0B27843A7
:102B40004044017D4846C0B202F0DAFE02A802F01D
:102B50005BFBC5490979491C484310FA89F0814655
:102B60003000C0B278434044006900281ED03000D5
:102B7000C0B2784340448068002817D03000C0B20B
:102B8000784340448068BA4988420FD03000C0B2D0
:102B90007843404402693000C0B207FB00F708EBFD
:102BA0000700017D4846C0B202F0AAFE0BB0BDE8A6
:102BB000F08FF8B504000D0094492200D2B218201D
:102BC000424301EB0200817D2800C0B20140280091
:102BD000C0B281422FD1A826A64F4FF4967128008B
:102BE000C0B2704338442200D2B250F82200FFF73E
:102BF0002BFA01282AD12800C0B206FB00F607EB09
:102C000006002100C9B28E4A126840F821202A200D
:102C100099492A00D2B242430A442300DBB22E0073
:102C2000F6B200FB06F008442100C9B2405CD0F1C6
:102C30000100D0540AE090492A00D2B22A2042432F
:102C400001EB02002100C9B2002242548A49EDB2D0
:102C50002A20454301EB0500E4B2005DF2BD70B5EA
:102C60000400002602F01AFF00F077F82000C0B23E
:102C700000F07DF82000C0B200F093F80025280095
:102C800080B22A2811DA61492A0092B21820424300
:102C900001EB0200C07D2100C9B2884203D12800A7
:102CA000C0B2FFF7B6FD6D1CE9E702F054FF70BD3E
:102CB000F0B44271C47803792500EDB2AB420AD377
:102CC000F025524E2700FFB218235F4306EB07039F
:102CD0009D75641CEFE718234C4C85785D432544B3
:102CE0004679AE75002904D0857803FB05F32344AB
:102CF0009960F0BC70472DE9F84F0700884691466F
:102D00009A460A9E0B9DDDF830B00D9C87F8008036
:102D100087F8019087F802A0FE703D712200D2B2C0
:102D200059463800FFF7C4FFBDE8F18F10B4010029
:102D300000221000C0B204280CD21000C0B2085CFF
:102D40004E4B1400E4B21B5D984201D0002002E01B
:102D5000521CEEE7012010BC704780B501200090A6
:102D600008237F220821002003F0C4F901BD10B51B
:102D700004002000C0B2002812D1254800780028A5
:102D800007D124A2214890F84410782002F0B8FD21
:102D900006E021A21D4890F84410782002F0B0FD12
:102DA00010BD0100C9B2092924D1164909780029AA
:102DB00006D002290ED008D3042915D00FD318E06D
:102DC0002F49124AC2F8C81318E02E490F4AC2F818
:102DD000C81313E02C490D4AC2F8C8130EE02B4962
:102DE0000A4AC2F8C81309E02949084AC2F8C813B8
:102DF00004E003E02249054AC2F8C8137047000006
:102E0000000800487C00002010280020200100203D
:102E100034270020200000004E000000A8050020FC
:102E2000BC0000200C000020E427002058ED000822
:102E300081280020B4F60008C0F200088228002093
:102E40006028002038280020C02709009C27002087
:102E5000832800207428002018010020D00B0020B7
:102E600058060020F42700200428002030EB00083A
:102E7000D20B0020881E002018220020C400002051
:102E8000C8000020D8000020E8000020F800002042
:102E90000801002010B504000121DFF8640C02F0E5
:102EA0006CFD012010BD30B587B004001421002254
:102EB00002AD280002F0BCFEDFF8900BD0E9002341
:102EC000CDE9002302A80090DFF8845B29786846EA
:102ED00000F0D2F928786870BDF80410009800F06E
:102EE000EEFDDFF8700B8078042809D128780228DD
:102EF00003DA2878401C287001E00020287001E0E7
:102F000000202870DFF8F85B0221280002F026FD7F
:102F10000321280002F031FD2100C9B2280002F08F
:102F20002CFD012007B030BD10B50400DFF8D41B24
:102F30008888002810D0DFF8D00B02888B889A424E
:102F400008D1002101800321DFF8B40B02F006FD57
:102F5000012008E0898801802100C9B2DFF8A00BB8
:102F600002F00BFD012010BD2DE9F0410400002509
:102F70000026DFF8907BB88803283DDB3868B988E5
:102F8000084410F8010C3968BA88114411F8021C81
:102F900051EA00210E00B988891E386803F044F90F
:102FA00005002800310080B289B288421DD1072176
:102FB000DFF84C0B02F0E1FC3868007801280DD1F5
:102FC000DFF88C8A012198F8010000F06EF998F87A
:102FD0000120D7E9000100F058F913E00021DFF8E3
:102FE000700A407800F061F90CE00021DFF8600A17
:102FF000407800F05AF905E00021DFF8540A4078E3
:1030000000F053F9DFF8480A407800F0B5F80221E3
:10301000DFF8EC0A02F0C3FC0120BDE8F0810100FA
:10302000DFF8180D0278032A01D004220270012073
:10303000704710B504002100C9B2DFF8C40A02F0DD
:103040009CFC012010BD10B50400DFF87C0B01785A
:10305000012936D1DFF8081CC978012931D1DFF800
:10306000041C91ED030AD0ED020AB4EE600AF1EE01
:1030700010FA08DA91ED030AD0ED010AB4EE600A05
:10308000F1EE10FA0ED501224FF400615FF090408E
:10309000FEF7B9FF01224FF480515FF09040FEF738
:1030A000B2FF1CE000224FF400615FF09040FEF799
:1030B000AAFF00224FF480515FF09040FEF7A3FF7B
:1030C0000DE000224FF400615FF09040FEF79BFF9F
:1030D00000224FF480515FF09040FEF794FFDFF83C
:1030E000200A4FF47A7181662100C9B202F045FCD2
:1030F000012010BD38B50400DFF86C1B08780028EB
:103100001FD101200870DFF8385C0122102128004F
:10311000FEF779FF002208212800FEF774FF002245
:103120000421DFF8200CFEF76EFF4FF4FA60DFF8A1
:10313000D019886703F05AFA03F003FC03F0F2FB9E
:1031400012E00020087001220821DFF8F40BFEF7DE
:103150005AFF01220421DFF8EC0BFEF754FF4EF674
:103160006020DFF89C1988672100C9B2DFF8900958
:1031700002F003FC012032BD38B52DED028B0400B6
:103180009FEDBE8A2000C0B200285AD1DFF8D45A81
:1031900095ED010ADFEDBA0A20EE200ABDEEC00A65
:1031A00010EE100A00F0F6F985ED010A95ED010A1E
:1031B00000F05EFA85ED030A95ED020A00F0B8FA18
:1031C00085ED040A95ED040AD5ED060A30EE200AD5
:1031D000DFF8740BD0ED020AF4EE400AF1EE10FABB
:1031E00002D5D0ED020A0BE0D0ED030AB4EE600A7E
:1031F000F1EE10FA02D5D0ED030A01E0F0EE400A3C
:10320000C5ED040AD5ED030A95ED051A30EE818A65
:10321000D0ED000AF4EE480AF1EE10FA02D590ED76
:10322000000A0BE090ED010AB4EE408AF1EE10FACC
:1032300002D590ED010A01E0B0EE480A85ED030ADF
:10324000FFE7DFF8205A2878002807D100206860BF
:1032500095ED010A00F00CFA85ED030A28780028A4
:1032600007D10020A86095ED020A00F061FA85ED13
:10327000040ABDEC028B31BD38B504000D002900F5
:10328000C9B2200000F01BF831BD70B504000D007C
:10329000160020000078C0B2012805D13200D2B259
:1032A0002000290000F088F870BD38B504000D003A
:1032B0002900C9B22000C0B200F0E4F831BD3EB52B
:1032C00004000D002800C0B2002809D0022819D03F
:1032D0000FD3042833D01ED3062858D043D36AE036
:1032E00004200090012303220121200002F0BAFFF4
:1032F00061E001200090662303220121200002F0FA
:10330000B1FF58E004200090362303220121200061
:1033100002F0A8FF4FE0DFF89C0D818802290DD153
:10332000016801918088022190FBF1F080B2009049
:10333000362306220121200002F0E2FF3BE0DFF805
:10334000740D818802290DD10168019180880221C4
:1033500090FBF1F080B2009038230622012120007A
:1033600002F0CEFF27E0DFF84C0D818802290DD155
:10337000016801918088022190FBF1F080B20090F9
:103380003E2306220121200002F0BAFF13E0DFF8FD
:10339000240D818802290DD10168019180880221C4
:1033A00090FBF1F080B200903F2306220121200023
:1033B00002F0A6FFFFE737BD2DE9F84304000D003A
:1033C00016000020ADF8000000273000C0B2002831
:1033D00007D0401E21D0401E2CD0401E032847D9C4
:1033E00049E00320ADF8000004226946200000F007
:1033F00033FB8046DFF86C9819F10401404601F078
:1034000019FE04226946200000F026FB070019F18E
:103410000801380001F00EFE2DE00320ADF8000099
:1034200002226946200000F017FB0700DFF834088D
:10343000476220E00320ADF8000004226946200026
:1034400000F00AFB8046DFF81C98404600B200F00E
:10345000D3FAA9F81C0004226946200000F0FCFA07
:103460000700380000B200F0DCFAA9F8200002E002
:1034700000F05FF9FFE7BDE8F18300000000000005
:103480000000C8420200D2B2002A062A1BD80A0055
:10349000D2B2012A0ED1DFF8CC27002353700123CA
:1034A00013700200D2B2002A0CD10122DFF8B0372B
:1034B000DA7007E0DFF8AC275378032B02DA537891
:1034C0005B1C5370FFE7DFF89C375A78002A12D054
:1034D0005A78032A0FDB00221A7000225A60002259
:1034E0009A6000229A8300221A8400225A620022E3
:1034F000DFF86C37DA7070472DE9F04100242500C1
:10350000EDB20A2D43DA00252E00F6B2092E3CDA80
:103510002E00F6B201EB860676682F00FFB251F856
:103520002770BE422FDA00262F00FFB251F8277015
:10353000AC465FFA8CFC01EB8C0CDCF804C0AE46A8
:103540005FFA8EFE41F82EC0AC465FFA8CFC01EBB0
:103550008C0CCCF80470AC465FFA8CFC50F82CC094
:10356000AE465FFA8EFE00EB8E0EDEF804E0A84653
:103570005FFA88F840F828E0AE465FFA8EFE00EB6E
:103580008E0ECEF804C06D1CBEE7641CB7E7BDE824
:10359000F081000038B52DED028B04009FED928A7A
:1035A000DFF8701B087800282AD10120087000215C
:1035B0000800C0B20A2815DA0800C0B2DFF8582B9C
:1035C0000B00DBB242F82300DFF8502B0800C0B23A
:1035D00052F82000002803D10800C0B242F8204071
:1035E000491CE5E7DFF8345B092300222900DFF8F6
:1035F000280BFFF781FF95ED050AB8EEC00A30E011
:1036000000200100C9B20A291EDADFF80C1B0200F3
:10361000D2B251F82220092A0BD100220300DBB2DA
:1036200041F82320DFF8F41A0200D2B241F8224018
:1036300008E00200D2B251F82220521C0300DBB293
:1036400041F82320401CDCE7DFF8D05A0923002290
:103650002900DFF8C40AFFF74FFF95ED050AB8EE21
:10366000C00ADFEDC70A80EE200ABDEC028B31BD37
:10367000F0EE400A9FED8E1A9FED8E3ADFED5A3A3A
:10368000F5EE400AF1EE10FA40D0F0EE603A9FED10
:103690008A0ADFF8B00C90ED004A34EE634AB4EECB
:1036A000404AF1EE10FA08DA90ED004A33EEC44ACF
:1036B000B4EE404AF1EE10FA03DB9FEDB20A21EEC0
:1036C000001ADFF8480B90ED000AF0EE401ADFF820
:1036D000401B91ED000A30EE010AB0EE402A32EEB6
:1036E000030A82EE000AF0EE402A33EEE10AB0EE61
:1036F000614A00EE224A80ED004AB7EE000A30EE41
:10370000620A20EE020A81ED000A08E0DFF8000BF1
:103710005FF07E510160DFF8F40A00210160DFF8FC
:10372000EC0ADFF8201C02680A6090ED000A70477E
:10373000704780B50320DFF8041608700421DFF815
:10374000C00302F02CF93220FEF77FFF01BD80B5E7
:10375000DFF8140B0078BE4908700220DFF8DC1592
:1037600008700421DFF8980302F007F901BD2DE984
:10377000F04104000D0016002F00DFF838894046A4
:10378000FEF7AAFC300080B2022802D004280BD039
:103790001DE07878D8F8001008703878D8F8001054
:1037A0004870A8F8046015E07878D8F80010087020
:1037B0003878D8F800104870F878D8F80010887079
:1037C000B878D8F80010C870A8F8046002E00020AB
:1037D000A8F80400DFF8900A04700120DFF88C1AC2
:1037E0000870BDE8F08100000000000070B4020025
:1037F0000223080040B2012828D1002004001D0047
:10380000E4B2EDB2AC421CD2DFF8C84B15000600A2
:10381000F6B234F916602DB2B54210D10500EDB202
:103820001E00F6B2761EB54203D1C0B234F91000C4
:103830003BE0C0B204EB4000B0F9020035E0401CB0
:10384000DCE7DFF8900BB0F900002EE008005FF035
:10385000FF3440B2A04224D1002420001D00C0B299
:10386000EDB2A84218D2DFF86C0B15002600F6B2B4
:1038700030F916602DB2B5420CD12500EDB2002D05
:1038800002D1B0F9000010E0E4B200EB440030F9DE
:10389000020C0AE0641CE0E7DFF8380BB0F9000026
:1038A00003E0DFF8300BB0F9000070BC7047000097
:1038B00095BFD63317B7D138CDCC4C3E70B402008B
:1038C0000523080040B2012828D1002004001D0073
:1038D000E4B2EDB2AC421CD2DFF8FC4A150006009F
:1038E000F6B234F916602DB2B54210D10500EDB232
:1038F0001E00F6B2761EB54203D1C0B234F91000F4
:103900003BE0C0B204EB4000B0F9020035E0401CDF
:10391000DCE7DFF8C40AB0F900002EE008005FF031
:10392000FF3440B2A04224D1002420001D00C0B2C8
:10393000EDB2A84218D2DFF8A00A15002600F6B2B0
:1039400030F916602DB2B5420CD12500EDB2002D34
:1039500002D1B0F9000010E0E4B200EB440030F90D
:10396000020C0AE0641CE0E7DFF86C0AB0F9000022
:1039700003E0DFF8640AB0F9000070BC7047000093
:103980000000C84200007A4430B401000222002046
:1039900003001400DBB2E4B2A3420ED20B00DFF846
:1039A000344A0500EDB234F915401BB2A34202D1EE
:1039B000C0B200B202E0401CEAE7002030BC704711
:1039C00030B401000522002003001400DBB2E4B291
:1039D000A3420ED20B00DFF8004A0500EDB234F925
:1039E00015401BB2A34202D1C0B200B202E0401C9B
:1039F000EAE7002030BC704701000222080000B254
:103A000000280CD408001300DBB200B21BB29842AD
:103A100005DADFF8C00909B230F9110000E0002032
:103A2000704701000522080000B200280CD40800ED
:103A30001300DBB200B21BB2984205DADFF8980936
:103A400009B230F9110000E000207047C4F8000806
:103A50007C280020E4270020F0B4030000200C881C
:103A60001500EDB2042D16D12500ADB21D44AE787F
:103A70002500ADB21D44ED7855EA06252600B6B204
:103A80009E5D2700BFB21F447F7857EA062757EA9A
:103A9000054738000DE01500EDB2022D09D12500D3
:103AA000ADB25D5D2600B6B21E44767856EA0526B4
:103AB00030000D8855FA82F50D80F0BC704770B566
:103AC00004000D00DFF8146901224FF4805130002A
:103AD000FEF799FA0A2002F057FF02F01BFF4FF49D
:103AE0007A732A0092B22100DFF8F40802F09DFFF9
:103AF00000224FF480513000FEF785FA70BD0000BF
:103B0000CC060020800B00207A2800202DE9F0410F
:103B10002DED028B8EB0F0EE408AB0EE608A32213D
:103B200000226C46200002F083F8002700240025C4
:103B3000DFF83081C8ED058A88ED068A98ED050A20
:103B400001F050FB060098ED060A01F04BFB8046A1
:103B500068463100090E3A00D2B281547F1C310010
:103B6000090C3A00D2B281547F1C3100090A3A0094
:103B7000D2B281547F1C3900C9B246547F1C4146E1
:103B8000090E3A00D2B281547F1C4146090C3A001A
:103B9000D2B281547F1C4146090A3A00D2B2815404
:103BA0007F1C3900C9B200F801807F1C3A00D2B2F4
:103BB00092B26946DFF82C0803F054FF0EB0BDEC5A
:103BC000028BBDE8F08100001028002070B50024B1
:103BD0000025DFF810080078C0B2FF2839D0DFF8E0
:103BE00008080178C9B20906DFF800080078C0B2F9
:103BF00051EA0041DFF8F8070078C0B251EA00212D
:103C0000DFF8F0070078C0B201430C00DFF8E807E6
:103C10000178C9B20906DFF8E4070078C0B251EABA
:103C20000041DFF8DC070078C0B251EA0021DFF87C
:103C3000D4070078C0B201430D000A4E16F11401FA
:103C4000200001F0F7F916F11801280001F0F2F94F
:103C500004E00448002141610021816170BD000041
:103C60004C28002034270020892800202DE9F04727
:103C70002DED028B8EB00400F0EE408AB0EE608A2B
:103C8000322100226D46280001F0D2FF00250026D7
:103C90000027DFF874A78AF800408AED028ACAED8F
:103CA000018A9AED020A01F09DFA80469AED010A16
:103CB00001F098FA814668469AF800102A00D2B2BC
:103CC00081546D1C4146090E2A00D2B281546D1CEC
:103CD0004146090C2A00D2B281546D1C4146090AA2
:103CE0002A00D2B281546D1C2900C9B200F80180AB
:103CF0006D1C4946090E2A00D2B281546D1C4946FA
:103D0000090C2A00D2B281546D1C4946090A2A00C6
:103D1000D2B281546D1C2900C9B200F801906D1C0B
:103D20002A00D2B292B26946DFF8E00603F09AFEAA
:103D30000EB0BDEC028BBDE8F08700007C000020D7
:103D400000040048000C0048F427002070B500244F
:103D50000025DFF8B8060078C0B2FF283DD0DFF8B4
:103D6000A866DFF8AC0600783070DFF8A8060178A6
:103D7000C9B20906DFF8A0060078C0B251EA0041D6
:103D8000DFF898060078C0B251EA0021DFF890060B
:103D90000078C0B201430C00DFF888060178C9B290
:103DA0000906DFF884060078C0B251EA0041DFF866
:103DB0007C060078C0B251EA0021DFF87406007872
:103DC000C0B201430D0016F10801200001F032F9E4
:103DD000311D280001F02EF908E0DFF82C06002143
:103DE0000170DFF8501681600021416070BD2DE93F
:103DF000F84F2DED048B8EB0F0EE409AB0EE608A55
:103E0000F0EE418AB0EE619A3221002201AC20002E
:103E100001F00EFF5FF0000B002000900024002551
:103E20000026DFF814A6CAED009A8AED018ACAEDD1
:103E3000028A8AED039A9AED000A01F0D3F907008D
:103E40009AED010A01F0CEF980469AED020A01F0DE
:103E5000C9F981469AED030A01F0C4F9824601A826
:103E60003900090E5A46D2B281541BF1010B3900B8
:103E7000090C5A46D2B281541BF1010B3900090AD0
:103E80005A46D2B281541BF1010B5946C9B247546C
:103E90001BF1010B4146090E5A46D2B281541BF167
:103EA000010B4146090C5A46D2B281541BF1010B59
:103EB0004146090A5A46D2B281541BF1010B5946B8
:103EC000C9B200F801801BF1010B4946090E5A46A0
:103ED000D2B281541BF1010B4946090C5A46D2B2A9
:103EE00081541BF1010B4946090A5A46D2B281544A
:103EF0001BF1010B5946C9B200F801901BF1010BEF
:103F00005146090E5A46D2B281541BF1010B51465B
:103F1000090C5A46D2B281541BF1010B5146090AD1
:103F20005A46D2B281541BF1010B5946C9B200F86E
:103F300001A01BF1010B5A46D2B292B201A9DFF8DF
:103F4000FC0403F08FFD0EB0BDEC048BBDE8F18FD7
:103F50002DE9F0410024002500260027DFF8DC04CD
:103F60000078C0B2FF2871D0DFF8D4040178C9B25C
:103F70000906DFF8D0040078C0B251EA0041DFF84A
:103F8000C8040078C0B251EA0021DFF8C00400780C
:103F9000C0B201430C00DFF8B8040178C9B20906C9
:103FA000DFF8B0040078C0B251EA0041DFF8A8049D
:103FB0000078C0B251EA0021DFF8A0040078C0B256
:103FC00001430D00DFF898040178C9B20906DFF853
:103FD00094040078C0B251EA0041DFF88C04007804
:103FE000C0B251EA0021DFF884040078C0B2014376
:103FF0000E00DFF87C040178C9B20906DFF874040A
:104000000078C0B251EA0041DFF86C040078C0B219
:1040100051EA0021DFF864040078C0B201430F00C8
:10402000DFF814844146200001F004F818F104017F
:10403000280000F0FFFF18F10801300000F0FAFF3F
:1040400018F10C01380000F0F5FF0BE0DFF8E80391
:10405000DFF8E013016000214160DFF82414816083
:104060000021C160BDE8F08178B591B004000D0079
:104070003C21002202AE300001F0DAFD0020ADF854
:1040800004000321012000F0A8FC0B200090002375
:10409000DFF8F02301A902A800F0B6FF4FF47A730D
:1040A000BDF8042002A9DFF8E00302F0BEFC12B064
:1040B00070BD00004C07002078B591B004000D00E1
:1040C0003C21002202AE300001F0B2FD0020ADF82C
:1040D0000400C44803F096FCCC4803F093FCCA48A3
:1040E00000210170D3498160002141600D200090C2
:1040F0000023DFF8982301A902A800F085FF4FF400
:104100007A73BDF8042002A9DFF87C0302F08DFC6D
:1041100012B070BD8A280020E42600200C27002061
:1041200038B590B004000D0003A8DFF86413322204
:1041300003F0DCFCD748D0E90023CDE9012303A834
:1041400001900023D448027802A903A800F0E7FEFA
:104150000220009000237CA202A903A800F054FFD3
:104160004FF47A73BDF808200199C74802F05DFC4E
:1041700011B030BDF8B504000D00002620680078AD
:1041800030283ADB206800783A2836DA0027002009
:104190000100C9B2A28889B291420FD221680200FF
:1041A000D2B2895C302905DB21680200D2B2895C79
:1041B0003A2900DB02E07F1C401CE9E73900C9B264
:1041C000206800F0D9FF0600B6F5807F0DD2B24816
:1041D00041783000C0B200F000FC4FF47A73022244
:1041E0007BA1A94802F021FC0EE04FF47A7305226E
:1041F000AA49A54802F019FC06E04FF47A7305229B
:10420000A649A14802F011FCF1BD00005028002091
:104210006407002038B590B004000D0003A8A04941
:10422000322203F063FC9F48D0E90023CDE901234B
:1042300003A8019000239848427802A903A800F03F
:104240006EFE0220009000233FA202A903A800F006
:10425000DBFE4FF47A73BDF8082001998A4802F01A
:10426000E4FB11B030BD0000882800207C00002055
:10427000F8B504000D00002620680078302839DBEE
:10428000206800783A2835DA002700200100C9B2FA
:10429000A28889B291420FD221680200D2B2895C11
:1042A000302905DB21680200D2B2895C3A2900DBA3
:1042B00002E07F1C401CE9E73900C9B2206800F029
:1042C0005BFF06000C2E0DD23100C9B27248007897
:1042D00000F083FB4FF47A7302223DA16A4802F09A
:1042E000A4FB0EE04FF47A7305226C49664802F095
:1042F0009CFB06E04FF47A7305226849624802F09D
:1043000094FBF1BD80B5FFF761FCFFF71FFDFFF7E0
:104310001FFE65486549C0F8A4136549C0F8B41389
:104320006449C0F8C4136449C0F8D4136349C0F8A1
:10433000E4136349C0F8F41302F003FB02F0F2FA4D
:1043400001BD0000542800200D0A000070B50020B7
:10435000002400252800C0B2082836DA594E28006B
:10436000C0B200013044407801282CD10120040063
:104370002800C0B200013044406800280ED001F08F
:104380009FF92900C9B2090131444968401A29003E
:10439000C9B2090131448968884214D30020290038
:1043A000C9B209013144487001F08AF92900C9B243
:1043B0000901314448602800C0B22900C9B209018E
:1043C0003144C96888476D1CC4E72000C0B270BD85
:1043D0004F4B0000540700205807002000080048F9
:1043E00090210020000802080208020803080208C1
:1043F000040802080508020806080208070802085F
:104400000808020809080208102800200010020805
:104410000210020803100208041002080510020826
:104420000610020807100208081002080910020806
:104430000A10020800006041F42700200020020852
:1044400002200208032002080420020805200208B6
:104450000620020807200208082002080920020896
:104460000A2002080B2002080C2002080D20020876
:104470000E2002080F200208102002081120020856
:104480000000A042CCF60008802000201CF40008A8
:10449000D8E20008CCF80008D00B0020BCF80008D7
:1044A000D0F00008D4F80008700700206940000828
:1044B000B940000821410008754100081542000874
:1044C00071420008CC06002002000020704730B482
:1044D0000200DFF8F80800230468858863558388A4
:1044E0005B1C8380DFF8E8381B7804688588635597
:1044F00083885B1C8380012030BC7047F8B50400C2
:104500000D00002000212E0022683300DBB2D25CB7
:1045100023683700FFB23B445F7857EA02273A002E
:1045200092B2B2F5807F23DA380080B200281FD023
:10453000DFF8980821683200D2B2895C026883886B
:10454000D1548188491C818021683200D2B2114443
:10455000497802688388D1548188491C8180DFF8BA
:10456000700841783800C0B200F037FA012000E04E
:104570000020F2BD30B40200DFF8500800230468C8
:104580008588635583885B1C8380DFF844385B78BB
:1045900004688588635583885B1C8380012030BC58
:1045A0007047F8B504000D00002000212E0022689D
:1045B0003300DBB2D25C23683700FFB23B445F7844
:1045C00057EA02273A0092B20B2A1FDADFF8FC07FB
:1045D00021683200D2B2895C02688388D154818814
:1045E000491C818021683200D2B2114449780268A6
:1045F0008388D1548188491C81803900C9B2DFF891
:10460000D007007800F0E9F9012000E00020F2BDB9
:10461000F8B504000D000026DFF8B80790ED030A96
:1046200000F0E0FD0100DFF8A4070A00120A0368A9
:104630008788DA558288521C828002688388D15428
:104640008288521C82800A00120E03688788DA551D
:104650008288521C82800A00120C03688788DA550F
:104660008288521C82800120F2BDF8B504000D0042
:104670000026DFF8600790ED040A00F0B3FD0100AA
:10468000DFF848070A00120A03688788DA5582882B
:10469000521C828002688388D1548288521C828096
:1046A0000A00120E03688788DA558288521C8280BD
:1046B0000A00120C03688788DA558288521C8280AF
:1046C0000120F2BD30B40200DFF8000700230468C7
:1046D0008588635583885B1C8380DFF8FC361B78F4
:1046E00004688588635583885B1C8380012030BC07
:1046F0007047F8B504000D00002000212E0022684C
:104700003300DBB2D25C23683700FFB23B445F78F2
:1047100057EA02273A0092B2012A03D0380080B249
:10472000002822D1DFF8A40621683200D2B2895CC9
:1047300002688388D1548188491C818021683200B5
:10474000D2B21144497802688388D1548188491CC7
:104750008180DFF88406D0ED020A90ED010A38006E
:10476000C0B2FFF783FA012000E00020F2BDF8B5E7
:1047700004000D000026DFF8600690ED020A00F04C
:1047800031FD0100DFF844060A00120A0368878839
:10479000DA558288521C828002688388D1548288CC
:1047A000521C82800A00120E03688788DA558288BC
:1047B000521C82800A00120C03688788DA558288AE
:1047C000521C82800120F2BD2DE9F84304000D0047
:1047D0000026002000900027A84620684146C9B264
:1047E0000844817820684246D2B21044C07850EA2A
:1047F000012021684246D2B2895C22684346DBB27E
:104800001A4492F8019059EA012959EA0049DFF85F
:10481000BC0521684246D2B2895C02688388D154C3
:104820008188491C818021684246D2B2114449786E
:1048300002688388D1548188491C8180216842465E
:10484000D2B21144897802688388D1548188491C86
:10485000818021684246D2B21144C97802688388B7
:10486000D1548188491C81806946484600F0E2FBAA
:10487000DFF86405DDED000A90ED010A0078FFF72E
:10488000F5F90120BDE8F283F8B504000D0000261B
:10489000DFF8440590ED010A00F0A4FC0100DFF808
:1048A0002C050A00120A03688788DA558288521C90
:1048B000828002688388D1548288521C82800A00D8
:1048C000120E03688788DA558288521C82800A009B
:1048D000120C03688788DA558288521C8280012076
:1048E000F2BD2DE9F84304000D00002600200090E1
:1048F0000027A84620684146C9B20844817820684C
:104900004246D2B21044C07850EA012021684246A3
:10491000D2B2895C22684346DBB21A4492F8019015
:1049200059EA012959EA0049DFF8A0042168424602
:10493000D2B2895C02688388D1548188491C818005
:1049400021684246D2B21144497802688388D15422
:104950008188491C818021684246D2B211448978FD
:1049600002688388D1548188491C8180216842462D
:10497000D2B21144C97802688388D1548188491C15
:1049800081806946484600F055FBDFF84C04D0EDC5
:10499000020A9DED000A0078FFF768F90120BDE8E2
:1049A000F28370B504000D00DFF83064012220218D
:1049B0003000FDF728FB0A2001F0E6FF4FF47A7380
:1049C0002A0092B22100DFF8180402F02EF800222B
:1049D00020213000FDF717FB70BD7CB504000D00F1
:1049E000082100226E46300001F022F90026DFF88F
:1049F000E00304704570694602783300DBB2CA54A4
:104A0000761C40783200D2B28854761C3200D2B282
:104A100092B26946DFF8CC0303F024F873BDDFF8E7
:104A2000C4030078C0B2FF280AD0DFF8A403DFF87F
:104A3000B81309780170DFF8B4130978417005E004
:104A4000DFF88C03012101700321417070472DE9CB
:104A5000F04F87B0040000275FF000085FF0000906
:104A60000025DFF88C23D2E90001CDE90201002600
:104A7000DFF88023D2E90001CDE90401DFF84CA37F
:104A80005046FDF729FBA0880828C0F29B812068CA
:104A9000A188084410F8010C2168A288114411F87B
:104AA000021C51EA0021ADF81810A188891E206867
:104AB00001F0BAFBADF81A00BDF81A00BDF81810E5
:104AC000884240F07D8120680078C1490978884299
:104AD00040F07681206880782168CF7857EA0027F7
:104AE00020684078032805D006286CD0102800F0F4
:104AF000C38061E1206800792168497951EA002189
:104B00000D005FF001084046C0B2082836DA5FF0B9
:104B10001409DFF8E4B24046C0B209FB00F0584483
:104B20004068390089B2884225D1280080B24146C8
:104B3000C9B209FB01F15944896888421BDB002195
:104B400000204246D2B209FB02F25A44D268904792
:104B500001280FD14046C0B209FB00F058448068DC
:104B60002D1A4046C0B209FB00F90BEB0900806822
:104B7000C71900E002E018F10108C4E7BAF8040020
:104B800000281FD0BAF80400022190FBF1F201FBCB
:104B90001200002816D1DAF800000190BAF80400DB
:104BA000022190FBF1F080B200903B009BB2032207
:104BB0002068017804A801F017FCBDF814100498CF
:104BC000FFF7EFFEFAE004200100C9B2A288921EAE
:104BD00091420EDA21680200D2B2895C029ABDF8D5
:104BE0000C30D154BDF80C10491CADF80C10401C11
:104BF000EAE75FF001084046C0B2082817DA14223D
:104C00007D4B4046C0B2504318444068390089B2D9
:104C1000884209D1002102A8C4465FFA8CFC02FB3D
:104C20000CF21A441269904718F10108E3E7BAF848
:104C3000040000281FD0BAF80400022190FBF1F212
:104C400001FB1200002816D1DAF800000190BAF832
:104C50000400022190FBF1F080B200903B009BB277
:104C600006222068017804A801F00FFCBDF814109A
:104C70000498FFF796FEA1E0002006002068007966
:104C80002168497951EA00210D0007200100C9B2CD
:104C9000A288921E91420EDA21680200D2B2895C8B
:104CA000029ABDF80C30D154BDF80C10491CADF877
:104CB0000C10401CEAE7280080B240002168897986
:104CC00088424DD1BDF80C002168897989B28842AB
:104CD00046D15FF001084046C0B2082840DA5FF0D4
:104CE0001409DFF814B14046C0B209FB00F0584483
:104CF0004068390089B288422FD1280080B24146ED
:104D0000C9B209FB01F159448968884225DB3100A9
:104D100089B202A84246D2B209FB02F25A44126991
:104D20009047012818D14046C0B209FB00F0584412
:104D30008068400010FA86F64046C0B209FB00F0D9
:104D4000584480682D1A4046C0B209FB00F90BEBAD
:104D500009008068C71900E002E018F10108BAE70D
:104D6000BAF80400002826D0BAF80400022190FB0B
:104D7000F1F201FB120000281DD120688078216823
:104D8000C97851EA00210F00DAF800000190BAF862
:104D90000400022190FBF1F080B200903B009BB236
:104DA00010222068017804A801F06FFBBDF81410F0
:104DB0000498FFF7F6FD01E0002004E0012002E086
:104DC000002000E0002007B0BDE8F08F840600203E
:104DD000D00B0020342700201028002000040048B9
:104DE0000821002000000208020002080300020857
:104DF000ACF80008B4F80008B8050020010008006D
:104E0000C0B2002801D1012021E00800C0B2FF2873
:104E100001D10A201BE00800C0B2FE2801D16420A5
:104E200015E00800C0B2FD2802D14FF47A700EE000
:104E30000800C0B2FC2802D142F2107007E008005E
:104E4000C0B2FB2802D1DFF8980300E001207047D0
:104E50002DE9F24F82469346002000210A260027C2
:104E6000B046B946009A1588BBF1000F08D5DBF1B2
:104E700000042D202A0092B20AF802006D1C00E006
:104E80005C462000002142464B4602F083FE00298A
:104E900001D1002808D0A6FB080106FB091107FB79
:104EA000081180468946ECE7404649460A2200231D
:104EB00002F070FE06000F00002F01D1002E28D056
:104EC0002000002132003B0002F064FE3030290057
:104ED00089B20AF801006D1CA0465FF000092000AD
:104EE000002132003B0002F055FEA6FB002306FB2A
:104EF000013307FB0033B8EB020079EB0301040038
:104F0000300039000A22002302F044FE06000F00A0
:104F1000D2E7009805802800C0B2BDE8F28F2DE9E5
:104F2000FE4F06000F0090460020ADF80000002064
:104F3000002400215FF0000BB7F80090B8F1000FDB
:104F400002D5D8F1000500E0454642463900300060
:104F5000FFF77EFFB7F800A0002D4FD09DF80800A6
:104F6000FFF74CFF01008D4205D20A2045431BF19B
:104F7000010B002DF7D15846C0B2002821D0504671
:104F80000200D2B2324412F8012C2D2A06D00200BF
:104F9000D2B24B4692B29BB29A4208D13022030061
:104FA000DBB2F2541AF1010ABBF1010BE3E7020094
:104FB000D2B2324412F8012C0300DBB2F254401E8C
:104FC000DEE70A20B1FBF0F450468346002C15D0F2
:104FD0000A20B4FBF0F45846C0B2304410F8010C7B
:104FE0005946C9B27054BBF1010B002CEED12E20F2
:104FF0005946C9B270541AF1010AE7E7A7F800A0B0
:105000005046C0B2BDE8FE8FF0B4049C00252E00CF
:10501000B6B2A6420BD20E88771C0F802F00BFB20B
:1050200017FA83F7D75DB6B287556D1CEFE7F0BC72
:10503000704700002DE9F34F81B02DED028B9FEDFD
:10504000658A002401250026F7EE008A0027380033
:10505000C0B2202864DA0398F84010F00100040080
:105060003800C0B2172829DA18EE900A00F08CFA3E
:1050700082468B462000C0B200F078FA804689460E
:105080003800C0B2D0F117005FF0FF31484300F0A4
:10509000F3F841EC110B9FED500B00F006F951ECC9
:1050A000100B42464B4602F08DFE52465B4602F024
:1050B0005BFF00F027FA08EE900A2FE03800C0B23C
:1050C0001F2824DA3000C0B200F050FA82468B4626
:1050D0002000C0B200F04AFA804689463800C0B2CB
:1050E000173800F0C9F841EC110B9FED3B0B00F0B5
:1050F000DCF851EC100B42464B4602F063FE524680
:105100005B4602F031FF02F0EDFF060006E02000F2
:10511000C0B2012802D15FF0FF3005007F1C96E786
:10512000280040B200F0A8F8804689463000C0B29E
:105130007F3800F0A1F841EC110B9FED270B00F038
:10514000B4F851EC100B42464B4602F03BFE804651
:10515000894618EE900A00F017FA42464B4602F0D4
:1051600031FE00F0CFF900EE100A049880ED000A3D
:10517000BDEC028BBDE8F78F70B403000022002461
:10518000002000252A000E00D2B2F6B2B2421FD291
:105190002A00D2B29A5C302A0ADB2A00D2B29A5C88
:1051A0003A2A05DA2A00D2B29A5C303A140001E0B9
:1051B000002214002A00D2B2002A03D12200D2B267
:1051C000100003E00A22504350FA84F06D1CD9E726
:1051D00070BC7047000000000000000000000040AC
:1051E000A086010010B42DED010A00206A460023BC
:1051F000042B07D2D45C1900C9B2C9008C402043EB
:105200005B1CF5E712BC704700F10103810704D075
:1052100010F8011B820781B1FAD10268A2F10131B5
:10522000914311F0803104BF50F8042FF6E709BA1A
:10523000B1FA81F100EBD100401CC01A704730B4C4
:10524000002513E050F8042BD30744BFA9F1010354
:105250009A18091F042942F8045BFAD213468C07F6
:1052600044BF15809B1CC90748BF1D7050F8041B24
:105270000029E7D130BC7047C11768B14840401AD7
:10528000B0FA80F29040D21CC907C2F5846241EAAC
:10529000025202EBD021400570470268531C0360A4
:1052A0001170704741EC100B01BD80B553EC112B10
:1052B00051EC100B02F034FFF4E72E00F0B540F291
:1052C000FF7581EA030C0CF0004C15EA11541DBF68
:1052D00015EA1357AC42AF42E5E0BC41C1F31301FC
:1052E000C3F31303801A994143F4801304D2641E5C
:1052F0004000494180185941C90241EA5051B1FB6F
:10530000F3F603FB1611A2FB0675D7EBC020A941EB
:1053100002D2761E80185941C90241EA5051B1FBB0
:10532000F3FE03FB1E11A2FB0E75D7EBC020A941B3
:1053300003D2AEF1010E80185941890241EA905121
:10534000760546EA8E2EB1FBF3F603FB1611A2FB9F
:105350000675D7EB8020A94102D2761E80185941EC
:10536000C90241EA50514EEA060EB1FBF3F603FBC7
:105370001611A2FB0675D7EBC020A94102D2761EFA
:1053800080185941C90241EA5051B1FBF3F703FBC0
:105390001711A2FB0735D3EBC020A94167F1000725
:1053A0000CBF004247F0010766F3D5274FEA1E31D4
:1053B000B80814F5806412DDBD0775F1004250EBAA
:1053C0000E5051EB045111F5801F5CBF41EA0C01F6
:1053D000F0BD4CF07F6141F0E0410020F0BDBD0721
:1053E0006D0840EA0E5041F48011D4F10104B4F18B
:1053F00020060ADAC4F120060200E04001FA06F3B2
:10540000E1401843B24015430EE0342C13DCC6F1E2
:10541000200445EA40056D0820FA06F2154321FAFA
:1054200006F0A1400D43002175F1004250F100004B
:1054300051EB0C01F0BD00205FEA0C01F0BDCFB9CB
:1054400092185B41B3FA83F704BFB2FA82F6BF1930
:105450000B3FB7F120062FBF02FA06F3BB40C7F19E
:10546000200622FA06F638BF3343BA401CB1E419CD
:10547000641E33E77F4231F00041B1FA81F404BF8A
:10548000B0FA80F6A4190B3CB4F120062FBF00FA45
:1054900006F1A140C4F1200620FA06F638BF3143D8
:1054A000A0403C1B1AE7AC421ABF05EA1357AF42B3
:1054B00012E050EA41061CBF52EA4306BFE750EA39
:1054C0004107304661461CBF41EA0551F0BD52EA32
:1054D000430C08BFC143F0BD00204FF4001616EB8B
:1054E000410F98BF16EB430F08BF16EB410F24BFC7
:1054F000C14305E016EB430F0CBF61464CEA055172
:10550000F0BD000001F000428B1AA3F16051B1F52B
:10551000801F0ADBB1F17F6F1FD242EAC102C100D6
:1055200071F1004142EB507070470B15C3F1090354
:10553000212B10D2890241EA905180020128494171
:1055400041F0004121FA03F0C3F12003994071F1C9
:10555000004150417047100070476FF0000013EB9E
:10556000103F5CBF000E42EAC0507047014648B190
:10557000B0FA80F18840C91CC1F58461090501EBCE
:10558000D021400570470000C0F3C75181B1FF2909
:1055900006D0C110400721F0E04101F16051704791
:1055A00041020CBF40F4E0016FF000410020704761
:1055B00000F0004100020AD0B0FA80FC00FA0CF0C2
:1055C00001F16051A1EB0C5101EBD0214005704776
:1055D0000CB430B583B00A4606A9029104460025F2
:1055E0000194009502AB01A9084878441E3003F0ED
:1055F0000DF9019A157000284EBF04460198041B4E
:10560000204603B030BC5DF80CFB00BF8FFCFFFFF1
:1056100080B5012240212348FCF7F5FC22492348AC
:1056200000F04EFA00F01EF8012000F005F800F03E
:10563000D1FA00F01FFA01BD704711B581B0194CC5
:10564000002240212000FCF7DEFC4FF47A73012297
:1056500001A9174804F03AF9012240212000FCF783
:10566000D2FC13BD10B50F4C002240212000FCF7E6
:10567000CAFC002280212000FCF7C5FC012000F0BC
:1056800019F8052000F016F8012280212000FCF70F
:10569000BAFC052000F00EF8012240212000FCF7A2
:1056A000B2FC10BD000800482C2800208810002003
:1056B0001825002010B50400200001F065F910BD88
:1056C00001480068704700BF3C28002070B4039C6C
:1056D000DFF88052286029716A71AB71EC71002685
:1056E0002E7270BC70472DE9F84F04000D001600B3
:1056F00000275FF00008DFF85C9299F805000828A1
:1057000080F2FC80300099F80610C0B2884205D3C0
:1057100099F807003100C9B2884201D22E20060054
:10572000402099F80510491C90FBF1F02900C9B2FE
:10573000814280F2E38099F8040050FA84F08028D6
:1057400080F2DC8099F805305B1C99F8050003FBBA
:1057500005035B1CDBB299F804201219D2B299F848
:105760000500401C15FB00F1C9B22000C0B200F0DA
:1057700029F90021080099F80420C0B2904280F075
:10578000BD80002015FB00F00200D2B2082392FB7E
:10579000F3F21700C0B2082290FBF2F302FB1300F1
:1057A0008046FF226C4BD3F800C03800C0B250FADC
:1057B00085FE802000FB0EFE5EFA84FED3F800A07A
:1057C0003800C0B250FA85FB802000FB0BFB5BFA6F
:1057D00084F01AF800A0D8F1080B100050FA0BF072
:1057E00010EA0A0A0CF80EA0D3F800C03800C0B2C4
:1057F00050FA85FE802000FB0EFE5EFA84F00090D9
:10580000D3F800E03800C0B250FA85FA802000FBDF
:105810000AFA5AFA84F01EF800E0D9F800A0B3465C
:105820005FFA8BFB99F80600BBEB000099F804B017
:105830000BFB00FB0AEB0B008A465FFA8AFA10F8B2
:105840000A0010FA08F050EA0E00DDF800E00CF84B
:105850000E00D3F800C03800C0B250FA85FE802098
:1058600000FB0EFE5EFA84F08444D3F800E03800BA
:10587000C0B250FA85FA802000FB0AFA5AFA84F086
:10588000704490F8800012FA08F202408CF88020F0
:105890001A683800C0B250FA85FC802000FB0CFC6E
:1058A0005CFA84F002441B683800C0B250FA85FCF0
:1058B000802000FB0CFC5CFA84F0184490F88030E7
:1058C000D9F800C0B6465FFA8EFE99F80600BEEB26
:1058D000000E99F8040000FB0EFE0CEB0E008C4647
:1058E0005FFA8CFC10F80C00D8F1080C50FA0CF0A0
:1058F000034382F88030641C491C3BE7BDE8F18F0C
:10590000F8B507000C001600124D6879082820DA57
:10591000307800281DD032782100C9B23800C0B2DA
:10592000FFF7E1FE761C2879401CC719287950FA48
:1059300087F0401C812802DB00200700641C402007
:105940006979491C90FBF1F02100C9B28142DFDB8B
:10595000FFE7F1BD042800203028002002000120CC
:105960000B00DBB21B011344587000200B00DBB2AC
:105970001B01134458600120704738B504000D0026
:1059800001202900C9B2090121444870FFF798FE9F
:105990002900C9B2090121444860012032BD02003A
:1059A00000200B00DBB21B0113445870012070472C
:1059B00080B5034800F024FC00F0CDF801BD0000E4
:1059C00030E7000870B40400E4B2802C01DB7F24CF
:1059D00020001400E4B2802C01DB7F2422000C00A4
:1059E000E4B2402C01DB3F2421001C00E4B2402C37
:1059F00001DB3F242300354C050026683678EDB2E4
:105A0000B54201D2256828702568AD781600F6B237
:105A1000B54201D22568AA700D0026687678EDB2ED
:105A2000B54201D2256869702568ED781E00F6B28E
:105A3000B54201D22468E37070BC704723487F21CF
:105A4000026811700021026891703F210268517054
:105A500000210068C17070471C4800210268117065
:105A60007F21026891700021026851703F21006817
:105A7000C170704770B54FF4806400251448066803
:105A80002A002100300000F0D3F83F237F220021BC
:105A90000020FFF797FF00F05EF870BD70B54FF47F
:105AA000806400250A4806682A002100300000F0C2
:105AB000BFF83F237F2200210020FFF783FF70BD46
:105AC000034A1060014A116070470000342800202A
:105AD0003028002010B5040000224FF480713A48AD
