:020000040800F2
:10000000682D0020E9FB000855F5000857F50008A9
:1000100059F500085BF500085DF5000800000000D8
:100020000000000000000000000000005FF5000874
:1000300061F500080000000063F5000865F50008A0
:1000400061FF000865FF000869FF00086DFF0008F8
:1000500071FF000875FF000879FF00087DFF0008A8
:1000600081FF000885FF000889FF00088DFF000858
:1000700091FF0008B5F5000895FF0008BFF50008DE
:1000800099FF00089DFF0008A1FF0008A5FF0008D8
:10009000A9FF0008ADFF0008B1FF0008B5FF000888
:1000A000B9FF0008BDFF0008C1FF0008C5FF000838
:1000B000C9FF00080000000000000000CDFF00089C
:1000C000D1FF0008D5FF0008D9FF0008DDFF0008B8
:1000D000E1FF0008C9F50008E5FF0008D3F50008B6
:1000E000E9FF0008DDF50008000000000000000046
:1000F0000000000000000000000000000000000000
:1001000000000000EDFF000800000000F1FF000803
:100110000000000000000000F5FF0008F9FF0008E3
:10012000FDFF0008010001080500010809000108A1
:100130000D000108000000000000000000000000A9
:100140001100010815000108190001081D0001082F
:1001500021000108E7F50008F1F500082500010875
:10016000290001082D0001083100010800000000ED
:1001700035000108390001083D00010800000000B9
:1001800041000108450001084900010880B55148B7
:100190000078012806D0022807D0042808D00828B3
:1001A00009D00BE000F0A2F808E000F055FF05E0F0
:1001B00001F02AF902E001F0FBFAFFE701BD2DE9A9
:1001C000F0470024444D2888002804D02888401E89
:1001D000288000207CE03F4E307A002877D1202113
:1001E0003E4802F029F8002801D1012700E000274D
:1001F000DFF8EC800421404602F01EF8002802D10E
:100200005FF0010901E05FF000090221404602F0C1
:1002100013F8002802D15FF0010A01E05FF0000A44
:100220000121404602F008F8002801D1012000E039
:10023000002057EA490757EA8A073C0054EAC004FD
:100240002000C0B2012805D0022803D0042801D024
:10025000082834D17068401C7060706850282DD315
:100260003470012030721F490868142801D2192007
:1002700028801D4822000378D2B29A4219D10A6818
:10028000521C0A600A681E2A02D20021716014E022
:100290000A68B42A02D2412171600EE00A68F02A8D
:1002A00002D24621716008E04E227260F0220A609C
:1002B00003E00022726000220A60047007E0002060
:1002C00009490870282070600020064908603078CD
:1002D000BDE8F0876C280020442900200008004871
:1002E00000040048F828002052290020F8B584B006
:1002F000DFF8484DA078002817D001283AD002280E
:100300006AD0032800F0FB80042800F07F810528D4
:1003100000F03282062800F03D83072800F00884B0
:10032000092800F0128500F086BEDFF8145D002079
:10033000E860DFF8106D0A220021300002F002F8B8
:1003400030203070302070703020B0703020F0706D
:10035000E8680001801CC0B203900296062001905C
:1003600005200090062300220121A01C02F06AFE55
:1003700000F061BEDFF8C80CC168491CC160C168EB
:1003800004291EDBDFF8BC0C02F077FE012815D132
:10039000A51C0622290014F1080002F021F8F12022
:1003A0000390002002900D20019008200090082367
:1003B00000220221280002F045FE0BE00020A07080
:1003C00008E0C0680001801C0200D2B20021A01C1D
:1003D00002F015FE00F02FBE207908280AD0C0F0E8
:1003E0008C800A2832D01BD30C285BD044D30D2834
:1003F0006ED082E0A51C0622290014F1080001F04D
:10040000EFFFF120039000200290102001900F20B8
:1004100000900F2300220321280002F013FE6CE05D
:10042000A51C0622290014F1080001F0D9FFF120D3
:1004300003900020029014200190132000901323B9
:1004400000220421280002F0FDFD56E0A51C062232
:10045000290014F1080001F0C3FFF12003900020EF
:1004600002901920019016200090162300220521E9
:10047000280002F0E7FD40E0A51C0622290014F147
:10048000080001F0ADFFF1200390002002901D2034
:1004900001901B2000901B2300220621280002F05F
:1004A000D1FD2AE0A51C0622290014F1080001F064
:1004B00097FFF120039000200290222001901F203E
:1004C00000901F2300220721280002F0BBFD14E04A
:1004D000A51C0622290014F1080001F081FF00206C
:1004E00003900020029025200190252000902523D4
:1004F00000220821280002F0A5FD00F09CBD207913
:100500000F2802D0102840D07EE0E078002802D0EA
:1005100001281FD038E0A61C0622310014F1080083
:1005200001F05EFFDFF8185BF220039015F10C007C
:100530000290102001900F2000900F23E278521CAF
:10054000D2B20321300002F07DFDDFF8FC0A4078D2
:10055000E86019E0A51C0622290014F1080001F04A
:100560003FFFF020039000200290282001902820D7
:100570000090282300220921280002F063FD0120B9
:10058000DFF8C41A0870FFE73EE0E078002802D0E8
:1005900001281FD038E0A61C0622310014F1080003
:1005A00001F01EFFDFF8985AF220039015F10C00BD
:1005B000029010200190102000901023E278521C2D
:1005C000D2B20321300002F03DFDDFF87C0A406822
:1005D000E86019E0A51C0622290014F1080001F0CA
:1005E000FFFEF02003900020029028200190282098
:1005F0000090282300220921280002F023FD012079
:10060000DFF8441A0870FFE700F015BD20791328C1
:1006100002D0142845D0ADE0E078002802D00128AF
:100620001FD03DE0A61C0622310014F1080001F0A5
:10063000D7FEDFF80C5AF220039015F10C0002905F
:1006400014200190132000901323E278521CD2B2A0
:100650000421300002F0F6FCDFF8EC09006CE860E1
:100660001EE0A51C0622290014F1080001F0B8FEC6
:10067000F020039000200290282001902820009074
:10068000282300220921280002F0DCFCDFF8BC1935
:100690005FF07E5008600422022003F04BFAFFE76F
:1006A00068E0E078002802D001281FD061E0A61C95
:1006B0000622310014F1080001F092FEDFF88059A3
:1006C000F220039015F10C000290142001901320E9
:1006D00000901423E278521CD2B20421300002F0C0
:1006E000B1FCDFF86409406CE86042E0A51C06221A
:1006F000290014F1080001F073FEF020039000209F
:10070000029028200190282000902823002209210F
:10071000280002F097FCDFF834495FF07E5020603B
:10072000DFF82C590021DFF82009406C04F00EFAA4
:1007300085ED000ADFF81C690021DFF80409C068B4
:1007400004F004FA86ED000A95ED000AB5EE400AC1
:10075000F1EE10FA07D096ED000AD5ED000A80EE12
:10076000200A84ED000A04222100032003F0E2F9AC
:10077000FFE7FFE700F05FBC2079162809D0C0F042
:100780000881182800F0858043D3192800F0C18023
:10079000FFE0E078002802D001281FD038E0A61C36
:1007A0000622310014F1080001F01AFEDFF890581B
:1007B000F220039015F10C000290192001901620F0
:1007C00000901623E278521CD2B20521300002F0CC
:1007D00039FCDFF87408006BE86019E0A51C0622FC
:1007E000290014F1080001F0FBFDF0200390002027
:1007F000029028200190282000902823002209211F
:10080000280002F01FFC0120DFF83C180870FFE709
:10081000BFE0E078002802D001281FD038E0A61CF5
:100820000622310014F1080001F0DAFDDFF810585B
:10083000F220039015F10C0002901920019016206F
:1008400000901723E278521CD2B20521300002F04A
:10085000F9FBDFF8F407406BE86019E0A51C0622FD
:10086000290014F1080001F0BBFDF02003900020E6
:10087000029028200190282000902823002209219E
:10088000280002F0DFFB0120DFF8BC170870FFE74B
:100890007FE0E078002802D001281FD038E0A61CB5
:1008A0000622310014F1080001F09AFDDFF890579C
:1008B000F220039015F10C000290192001901620EF
:1008C00000901823E278521CD2B20521300002F0C9
:1008D000B9FBDFF87407806BE86019E0A51C0622FD
:1008E000290014F1080001F07BFDF02003900020A6
:1008F000029028200190282000902823002209211E
:10090000280002F09FFB0120DFF83C170870FFE78A
:100910003FE0E078002802D001281FD038E0A61C74
:100920000622310014F1080001F05AFDDFF81057DB
:10093000F220039015F10C0002901920019016206E
:1009400000901923E278521CD2B20521300002F047
:1009500079FBDFF8F406C06BE86019E0A51C0622FD
:10096000290014F1080001F03BFDF0200390002065
:10097000029028200190282000902823002209219D
:10098000280002F05FFB0120DFF8BC160870FFE7CB
:10099000FFE750E320791B2806D0C0F0C8801D284F
:1009A00000F0858043D3C2E0E078002802D001281F
:1009B00022D03BE0A71C0622390014F1080001F008
:1009C0000FFDDFF87C5615F10C06F220039002961D
:1009D0001D2001901B2000901B23E278521CD2B2F4
:1009E0000621380002F02EFBDFF8180A0078E860D4
:1009F000DFF85406066519E0A51C0622290014F14B
:100A0000080001F0EDFCF020039000200290282067
:100A1000019028200090282300220921280002F0BC
:100A200011FB0120DFF820160870FFE77FE0E07877
:100A3000002802D001281FD038E0A61C0622310071
:100A400014F1080001F0CCFCDFF8F455F22003901B
:100A500015F10C0002901D2001901B2000901C231A
:100A6000E278521CD2B20621300002F0EBFADFF835
:100A7000D805806CE86019E0A51C0622290014F155
:100A8000080001F0ADFCF020039000200290282027
:100A9000019028200090282300220921280002F03C
:100AA000D1FA0120DFF8A0150870FFE73FE0E078F9
:100AB000002802D001281FD038E0A61C06223100F1
:100AC00014F1080001F08CFCDFF87455F22003905B
:100AD00015F10C0002901D2001901B2000901D2399
:100AE000E278521CD2B20621300002F0ABFADFF8F5
:100AF0005805C06CE86019E0A51C0622290014F115
:100B0000080001F06DFCF0200390002002902820E6
:100B1000019028200090282300220921280002F0BB
:100B200091FA0120DFF820150870FFE7FFE782E265
:100B300020791F2809D0C0F00781212800F0858086
:100B400043D3222800F0C180FEE0E078002802D0E4
:100B500001281FD038E0A61C0622310014F108003D
:100B600001F03EFCDFF8D854F220039015F10C00A0
:100B70000290222001901F2000901F23E278521C37
:100B8000D2B20721300002F05DFADFF8BC04406DFC
:100B9000E86019E0A51C0622290014F1080001F004
:100BA0001FFCF020039000200290282001902820B4
:100BB0000090282300220921280002F043FA012096
:100BC000DFF884140870FFE7BEE0E078002802D068
:100BD00001281FD038E0A61C0622310014F10800BD
:100BE00001F0FEFBDFF85854F220039015F10C00E1
:100BF0000290222001901F2000902023E278521CB6
:100C0000D2B20721300002F01DFADFF83C04806DFB
:100C1000E86019E0A51C0622290014F1080001F083
:100C2000DFFBF02003900020029028200190282074
:100C30000090282300220921280002F003FA012055
:100C4000DFF804140870FFE77EE0E078002802D0A7
:100C500001281FD038E0A61C0622310014F108003C
:100C600001F0BEFBDFF8D853F220039015F10C0021
:100C70000290222001901F2000902123E278521C34
:100C8000D2B20721300002F0DDF9DFF8BC03C06DFD
:100C9000E86019E0A51C0622290014F1080001F003
:100CA0009FFBF02003900020029028200190282034
:100CB0000090282300220921280002F0C3F9012016
:100CC000DFF884130870FFE73EE0E078002802D0E8
:100CD00001281FD037E0A61C0622310014F10800BD
:100CE00001F07EFBDFF85853F220039015F10C0061
:100CF0000290222001901F2000902223E278521CB3
:100D0000D2B20721300002F09DF9DFF83C03006EFB
:100D1000E86018E0A51C0622290014F1080001F083
:100D20005FFBF020039000200290282001902820F3
:100D30000090282300220921280002F083F90120D5
:100D4000C1490870FFE7FFE775E1207A03280BD05F
:100D5000C0F07081052839D0C0F06981072800F003
:100D6000F180C0F0A88065E10320B7490870322007
:100D700001F09CFDA07A0F2802D0102809D024E0B1
:100D8000DFF80C0A4178AE48C068C0B204F033FB0B
:100D90001BE000200100C9B20B290FDADFF8F419BB
:100DA0000200D2B251F82210A54AD268914203D172
:100DB000DFF8DC19487001E0401CEBE7DFF8D009F0
:100DC0004178007804F017FBFFE733E19E4D0320E4
:100DD0002870322001F06AFDA07A162806D069D367
:100DE000182835D01BD319284BD063E0287A03F09C
:100DF000BBFC00EE100ADFF8A009D0ED0C1A90ED54
:100E00000A1AD0ED0B0A8E4890ED032AB8EEC22ADA
:100E1000B8EE400A82EE000A02F020FF4AE0687A4B
:100E200003F0A2FC00EE100ADFF86C09D0ED0C1AFA
:100E300090ED0A1A8249D1ED030AF8EEE00AB8EE05
:100E4000400AC0EE800A90ED090A02F007FF31E087
:100E5000A87A03F089FC00EE100ADFF83C09D0ED17
:100E60000C1A7749D1ED030AF8EEE00AB8EE400A11
:100E700080EE801AD0ED0B0A90ED090A02F0EEFE2A
:100E800018E0E87A03F070FC00EE100ADFF80809B9
:100E90006B49D1ED030AF8EEE00AB8EE400AC0EE65
:100EA000801A90ED0A1AD0ED0B0A90ED090A02F0B3
:100EB000D5FEFFE7BEE0644D03202870322001F02C
:100EC000F5FCA07A1B2804D03BD31D2823D00CD3DB
:100ED00037E0DFF83005D0ED020A90ED010A5848FE
:100EE000C068C0B203F002F82BE0287B03F03CFCA2
:100EF00000EE100ADFF80C055149D1ED030AF8EEB7
:100F0000E00AB8EE400AC0EE800A90ED010A0078CF
:100F100002F0ECFF15E0287B03F026FC00EE100A3F
:100F2000DFF8E004D0ED020A454991ED031AB8EE6E
:100F3000C11AB8EE400A81EE000A007802F0D6FF2E
:100F4000FFE777E0404D03202870322001F0AEFC2F
:100F5000A07A1F2806D069D3212835D01BD3222898
:100F60004BD063E0687B03F0FFFB00EE100ADFF874
:100F70002C08D0ED031A90ED021AD0ED010A30488A
:100F800090ED032AB8EEC22AB8EE400A82EE000ABB
:100F900003F074F84AE0687B03F0E6FB00EE100A09
:100FA000DFF8F807D0ED031A90ED021A2449D1EDCD
:100FB000030AF8EEE00AB8EE400AC0EE800A90EDAF
:100FC000000A03F05BF831E0687B03F0CDFB00EE34
:100FD000100ADFF8C807D0ED031A1949D1ED030A4A
:100FE000F8EEE00AB8EE400A80EE801AD0ED010A71
:100FF00090ED000A03F042F818E0687B03F0B4FBC0
:1010000000EE100ADFF894070D49D1ED030AF8EE5F
:10101000E00AB8EE400AC0EE801A90ED021AD0ED58
:10102000010A90ED000A03F029F8FFE702E002F060
:1010300072FDFFE7FFE705B0F0BD00BFB428002058
:101040006C280020000000207C000020FC280020EC
:10105000002900200429002010B5DFF844379878D3
:1010600000280ED002281ED00CD3042876D027D317
:10107000062800F0F980C0F0A480072800F04D8118
:10108000BFE1BEE1DFF81C07DFF81C17CA68825C0D
:10109000521CCB68C254CA68825C3A2A02DB3022F6
:1010A000C9684254ADE158791979884202D2187959
:1010B000401E1871F1220021981C01F0A0FFA0E150
:1010C000D87800280CD158791979884202D2187939
:1010D000401E1871F1220021981C01F090FF3CE0A5
:1010E00018790F2802D0102812D036E0D8780028BE
:1010F00002D0012801D00AE009E0DFF8AC06C1689F
:10110000B1F5807F02DAC168491CC160FFE724E0C5
:10111000D878002802D0012801D01EE01DE000216F
:101120000800C0B20B2817DADFF86826DFF8780667
:101130000B00DBB252F82330C468A3420AD10B0083
:10114000DBB20A2B06DA0B00DBB202EB8302526839
:10115000C26001E0491CE3E7FFE752E1D8780028CC
:101160000CD158791979884202D21879401E187129
:10117000F1220021981C01F042FF21E01879132888
:1011800002D014280ED01BE0D878002802D0012805
:1011900001D006E005E04FF47A70DFF80C16C86065
:1011A000FFE70DE0D878002802D0012801D006E042
:1011B00005E0DFF8F405C168491CC160FFE7FFE7FF
:1011C0001FE1D87800280CD158791979884202D2C9
:1011D0001879401E1871F1220021981C01F00FFFB0
:1011E00041E01879162806D03DD318281FD010D317
:1011F00019282AD037E0D878002802D0012801D059
:1012000006E005E0DFF8A005C168491CC160FFE702
:1012100029E0D878002802D0012801D006E005E0B6
:10122000DFF88405C168491CC160FFE71BE0D8787E
:10123000002802D0012801D006E005E0DFF86805AB
:10124000C168491CC160FFE70DE0D878002802D0D2
:10125000012801D006E005E0DFF84C05C168491C13
:10126000C160FFE7FFE7CCE0D87800280CD15879BF
:101270001979884202D21879401E1871F122002192
:10128000981C01F0BCFE47E018791B2804D043D31A
:101290001D282DD013D33FE0D878002802D0012894
:1012A00001D00BE00AE0DFF80015C868002802D181
:1012B0000120C86001E00020C860FFE72CE0D8787A
:1012C000002802D0012801D011E010E0DFF8DC0492
:1012D000007B03F049FADFF8D024D3684FF4FA61B9
:1012E0004843834202D2D068401CD060FFE713E03D
:1012F000D878002802D0012801D00CE00BE0DFF8FC
:10130000A804C168DFF8A424926C914202DAC16893
:10131000491CC160FFE7FFE773E0D87800280CD1D3
:1013200058791979884202D21879401E1871F12231
:101330000021981C01F063FE62E018791F2806D096
:101340005ED3212830D01BD3222845D058E0D8784E
:10135000002802D0012801D011E010E0DFF84C0491
:10136000407B03F001FADFF84024D3684FF4FA61C0
:101370004843834202D2D068401CD060FFE73FE080
:10138000D878002802D0012801D00CE00BE0DFF86B
:101390001804C168DFF81424526D914202DAC16862
:1013A000491CC160FFE72BE0D878002802D0012853
:1013B00001D010E00FE0DFF8F403407B03F0D4F934
:1013C000DFF8E423D36850214843834202D2D06837
:1013D000401CD060FFE713E0D878002802D0012835
:1013E00001D00CE00BE0DFF8C003C168DFF8BC23DC
:1013F000D26D914202DAC168491CC160FFE7FFE784
:10140000FFE710BDE028002010B5DFF8943398788E
:1014100000280ED002281ED00CD3042876D027D363
:10142000062800F0F580C0F0A480072800F0438172
:10143000ACE1ABE1DFF86C03DFF86C13CA68825CE7
:10144000521ECB68C254CA68825C302A02DA392242
:10145000C96842549AE118799979884202D2187978
:10146000401C1871F1220021981C01F0C8FD8DE18B
:10147000D87800280CD118799979884202D2187945
:10148000401C1871F1220021981C01F0B8FD3CE0CD
:1014900018790F2802D0102811D036E0D87800280B
:1014A00002D0012801D009E008E0DFF8FC02C168A1
:1014B000012902DBC168491EC160FFE725E0D87839
:1014C000002802D0012801D01FE01EE00A221000EF
:1014D000C0B2002818D0DFF8BC32DFF8CC12100000
:1014E000C0B253F82000CC68A0420BD11000C0B2AB
:1014F000002807D01000C0B203EB800050F8040CA5
:10150000C86001E0521EE2E7FFE73FE1D87800281B
:101510000CD118799979884202D21879401C187137
:10152000F1220021981C01F06AFD21E018791328AE
:1015300002D014280DD01BE0D878002802D0012852
:1015400001D005E004E04FF47A709749C860FFE7E6
:101550000EE0D878002802D0012801D008E007E08A
:101560009148C168012902DBC168491EC160FFE7DB
:101570000CE1D87800280CD118799979884202D2E8
:101580001879401C1871F1220021981C01F037FDD8
:101590003DE01879162806D039D318281DD00FD36E
:1015A000192827D033E0D878002802D0012801D0AC
:1015B00005E004E07C48C168491EC160FFE726E001
:1015C000D878002802D0012801D005E004E0764850
:1015D000C168491EC160FFE719E0D878002802D031
:1015E000012801D005E004E06F48C168491EC160D0
:1015F000FFE70CE0D878002802D0012801D005E0F0
:1016000004E06948C168491EC160FFE7FFE7BDE02B
:10161000D87800280CD118799979884202D21879A3
:10162000401C1871F1220021981C01F0E8FC41E0F7
:1016300018791B2804D03DD31D2825D012D339E0BA
:10164000D878002802D0012801D00AE009E05649E4
:10165000C868002802D10120C86001E00020C860ED
:10166000FFE727E0D878002802D0012801D00AE05F
:1016700009E04D484D49C96CC268914202DAC1681F
:10168000491EC160FFE715E0D878002802D0012884
:1016900001D00EE00DE04548007B03F065F8424ABA
:1016A00000214843D168884202D2D068401ED060F1
:1016B000FFE7FFE76AE0D87800280CD1187999791C
:1016C000884202D21879401C1871F1220021981C1E
:1016D00001F095FC59E018791F2806D055D3212830
:1016E0002BD014D322283AD04FE0D878002802D04B
:1016F000012801D00AE009E02B482C49896DC26815
:10170000914202DAC168491EC160FFE73DE0D87826
:10171000002802D0012801D00EE00DE02348407BD4
:1017200003F022F8204A00214843D168884202D2BF
:10173000D068401ED060FFE727E0D878002802D0AC
:10174000012801D00AE009E017481849096EC2686B
:10175000914202DAC168491EC160FFE715E0D878FE
:10176000002802D0012801D00EE00DE00F48407B98
:1017700002F0FAFF0C4A00214843D168884202D2A5
:10178000D068401ED060FFE7FFE7FFE710BD000014
:101790007C0C0020080700208C260020C428002094
:1017A000B4280020000000206C2800207C000020CD
:1017B0007FB5DFF81847A078002814D0022816D08B
:1017C00012D3042800F0898014D3062800F0DD81AC
:1017D000C0F0F680082800F06483C0F081820928F8
:1017E00000F0668371E370E30020A0706DE30020D9
:1017F000A0706AE320790F2802D0102836D06BE061
:10180000E078002802D0012816D02EE0A51CF12097
:101810000390002002900D200190082000900823E2
:1018200000220221280001F00DFC0622290014F1FB
:10183000080000F0D5FD18E0A51C0622290014F1CF
:10184000080000F0CDFDF1200390DFF8840602903F
:10185000102001900F2000900F23E078421ED2B29A
:101860000321280001F0EEFBFFE735E0E0780028D7
:1018700002D0012816D02EE0A51CF12003900020F4
:1018800002900D20019008200090082300220221E0
:10189000280001F0D7FB0622290014F1080000F00F
:1018A0009FFD18E0A51C0622290014F1080000F095
:1018B00097FDF1200390DFF81C06029010200190A4
:1018C0000F2000901023E078421ED2B2032128009E
:1018D00001F0B8FBFFE7FFE7F7E22079132802D019
:1018E000142836D06BE0E078002802D0012816D00A
:1018F0002EE0A51CF1200390002002900D20019005
:1019000008200090092300220221280001F09AFB00
:101910000622290014F1080000F062FD18E0A51C61
:101920000622290014F1080000F05AFDF12003906E
:10193000DFF8A405029014200190132000901323D7
:10194000E078421ED2B20421280001F07BFBFFE7C1
:1019500035E0E078002802D0012816D02EE0A51C42
:10196000F1200390002002900D20019008200090AB
:10197000092300220221280001F064FB062229002D
:1019800014F1080000F02CFD18E0A51C0622290027
:1019900014F1080000F024FDF1200390DFF83C056D
:1019A000029014200190132000901423E078421E2E
:1019B000D2B20421280001F045FBFFE7FFE784E2F3
:1019C0002079162808D0C0F0DF80182870D039D3CD
:1019D000192800F0A380D7E0E078002802D0012881
:1019E00016D02EE0A51CF1200390002002900D20BF
:1019F0000190082000900A2300220221280001F013
:101A000021FB0622290014F1080000F0E9FC18E08F
:101A1000A51C0622290014F1080000F0E1FCF120C9
:101A20000390DFF8BC04029019200190162000906A
:101A30001623E078421ED2B20521280001F002FBF5
:101A4000FFE7A1E0E078002802D0012816D02EE0C0
:101A5000A51CF1200390002002900D200190082089
:101A600000900A2300220221280001F0EBFA06224E
:101A7000290014F1080000F0B3FC18E0A51C0622B0
:101A8000290014F1080000F0ABFCF1200390DFF80E
:101A90005404029019200190162000901723E0783A
:101AA000421ED2B20521280001F0CCFAFFE76BE01C
:101AB000E078002802D0012816D02EE0A51CF120E5
:101AC0000390002002900D200190082000900A232E
:101AD00000220221280001F0B5FA0622290014F1A3
:101AE000080000F07DFC18E0A51C0622290014F176
:101AF000080000F075FCF1200390DFF8EC03029081
:101B000019200190162000901823E078421ED2B2CE
:101B10000521280001F096FAFFE735E0E07800287B
:101B200002D0012816D02EE0A51CF1200390002041
:101B300002900D200190082000900A23002202212B
:101B4000280001F07FFA0622290014F1080000F0B5
:101B500047FC18E0A51C0622290014F1080000F03B
:101B60003FFCF1200390DFF88403029019200190DC
:101B7000162000901923E078421ED2B205212800D9
:101B800001F060FAFFE7FFE79FE120791B2805D00D
:101B9000C0F0A5801D286DD037D3A0E0E0780028E4
:101BA00002D0012816D02FE0A51CF12003900020C0
:101BB00002900D200190082000900B2300220221AA
:101BC000280001F03FFA0622290014F1080000F075
:101BD00007FC19E0A51C0622290014F1080000F0FA
:101BE000FFFBC34EF120039002961D2001901B20A5
:101BF00000901B23E078421ED2B20621280001F09B
:101C000021FABC480665FFE769E0E078002802D0C9
:101C1000012816D02DE0A51CF12003900020029091
:101C20000D200190082000900B23002202212800A3
:101C300001F008FA0622290014F1080000F0D0FB98
:101C400017E0A51C0622290014F1080000F0C8FBCB
:101C5000F1200390A84802901D2001901B200090C5
:101C60001C23E078421ED2B20621280001F0EAF9D6
:101C7000FFE734E0E078002802D0012816D02DE0FC
:101C8000A51CF1200390002002900D200190082057
:101C900000900B2300220221280001F0D3F9062234
:101CA000290014F1080000F09BFB17E0A51C062298
:101CB000290014F1080000F093FBF12003908F48F5
:101CC00002901D2001901B2000901D23E078421EF1
:101CD000D2B20621280001F0B5F9FFE7FFE7F4E0F2
:101CE00020791F2808D0C0F0DB8021286ED038D39F
:101CF000222800F0A080D3E0E078002802D001285C
:101D000016D02DE0A51CF1200390002002900D209C
:101D10000190082000900C2300220221280001F0ED
:101D200091F90622290014F1080000F059FB17E090
:101D3000A51C0622290014F1080000F051FBF12037
:101D400003906F480290222001901F2000901F23D3
:101D5000E078421ED2B20721280001F073F9FFE7B4
:101D60009EE0E078002802D0012816D02DE0A51CC6
:101D7000F1200390002002900D2001900820009097
:101D80000C2300220221280001F05CF90622290020
:101D900014F1080000F024FB17E0A51C062229001E
:101DA00014F1080000F01CFBF1200390554802904C
:101DB000222001901F2000902023E078421ED2B202
:101DC0000721280001F03EF9FFE769E0E0780028EC
:101DD00002D0012816D02DE0A51CF1200390002090
:101DE00002900D200190082000900C230022022177
:101DF000280001F027F90622290014F1080000F05C
:101E0000EFFA17E0A51C0622290014F1080000F0E3
:101E1000E7FAF12003903C480290222001901F2015
:101E200000902123E078421ED2B20721280001F061
:101E300009F9FFE734E0E078002802D0012816D045
:101E40002DE0A51CF1200390002002900D200190B0
:101E5000082000900C2300220221280001F0F2F853
:101E60000622290014F1080000F0BAFA17E0A51CB8
:101E70000622290014F1080000F0B2FAF1200390C4
:101E800022480290222001901F2000902223E07817
:101E9000421ED2B20721280001F0D4F8FFE7FFE785
:101EA00013E0062214F10801A01C00F099FA0CE0DE
:101EB000104D2878022807D0062214F10801A01C32
:101EC00000F08EFA00202870FFE77FBDB4280020C4
:101ED0007D00002080000020BC000020C000002009
:101EE000AC000020B0000020B4000020B8000020AA
:101EF000E02800207C000020C4000020C800002052
:101F0000D0000020D4000020D8000020DC000020F9
:101F1000F8B4030000250868E840002800F0D780E6
:101F200001260F6816FA05F007403A00002A00F073
:101F3000CC80087910F00300012804D0087910F053
:101F4000030002281DD19F685FF0030C2800C0B277
:101F500040001CFA00FC37EA0C07D1F80CC028003E
:101F6000C0B240001CFA00FC5CEA07079F6058689A
:101F7000AE40B0434E68C6F30016AE403043040096
:101F80005C60087910F0030003280ED0DE68032798
:101F90002800C0B240008740BE438F682800C0B20E
:101FA000400087403E433400DC60087910F00300B5
:101FB000022818D12800C00803EB8000066A0F270A
:101FC00015F00700C0B280008740BE430F6915F0CE
:101FD0000700C0B2800087403E4334002800C0089C
:101FE00003EB800004621E6803272800C0B2400093
:101FF0008740BE430F7917F003072800C0B24000A6
:1020000087403E4334001C60486810F4403F5CD079
:102010009548066856F001060660006810F0010059
:1020200000900098914F2800800857F820605FF0DA
:102030000F0C15F00300C0B280001CFA00FC36EA59
:102040000C06B3F1904F01D1002414E0884883427C
:1020500001D101240FE08748834201D102240AE024
:102060008548834201D1032405E08448834201D19D
:10207000042400E0072415F00300C0B2800084406F
:1020800026432800800847F820607D4C2068904354
:102090004F68FF0200D5104320607A4E34689443A5
:1020A0004F68BF0200D514433460774E30689043C8
:1020B0004F68BF0300D510433060744E34689443BA
:1020C0004F68FF0300D5144334606D1C23E7F1BC57
:1020D00070472DE9F041030000250800E840002882
:1020E00000F0A880012616FA05F008400200002A38
:1020F00000F09E80DFF874C1280080085CF82000A2
:102100000F2715F0030E5FFA8EFE5FEA8E0E17FAA8
:102110000EFE1EEA00000400B3F1904F02D15FF002
:10212000000E19E05248834202D15FF0010E13E025
:102130005048834202D15FF0020E0DE04E488342C8
:1021400002D15FF0030E07E04C48834202D15FF0FA
:10215000040E01E05FF0070E15F00300C0B280002E
:102160001EFA00FE74452CD14848D0F800E03EEA43
:10217000020EC0F800E04448D0F800E03EEA020E4B
:10218000C0F800E03F48D0F800E03EEA020EC0F898
:1021900000E03B48D0F800E03EEA020EC0F800E064
:1021A00015F00300C0B2800017FA00F00400280008
:1021B00080085CF82000A043AE465FEA9E0E4CF813
:1021C0002E005FF0030C1868AE465FFA8EFE5FEAE1
:1021D0004E0E1CFA0EFE5EEA000018602800C008D1
:1021E00003EB800E2800C00803EB8000D0F82080AD
:1021F00015F00700C0B28000874038EA0707CEF824
:10220000207098682F00FFB27F001CFA07F7B843D0
:1022100098605868AE4030EA06065E60DE682800C6
:10222000C0B240001CFA00FC36EA0C0CC3F80CC02B
:102230006D1C52E7BDE8F081020010690B009BB2F3
:10224000184201D0012000E00020C0B27047130006
:10225000DBB2002B03D00B009BB2836102E00B00CA
:102260009BB283627047000060100240080001408A
:102270000004004800080048000C00480010004816
:10228000080401400C040140040401400004014022
:1022900038B504000D00DFF8FC010168200000F0F3
:1022A00006F8A84201D3012000E0002032BD81429F
:1022B00004D25FF0FF32101A081800E0081A7047C5
:1022C00038B52DED048B08EE100A0C001500DFED7B
:1022D000438A2800C0B2FB2810DBB8EEC89A280059
:1022E000C0B24042C0B200F08BF829EE009A002143
:1022F0002000B0EE490A00F0B1F80EE0B8EEC89A3E
:102300002800C0B200F07CF889EE009A2900C9B21A
:102310002000B0EE490A00F0A1F8BDEC048B31BDFD
:1023200010B400210A00838892B29A4206D2002299
:1023300003680C00A4B21A55491CF3E700228280FE
:1023400010BC704710B4040013005A1E9BB2002B3F
:1023500002D02170641CF7E710BC704770B5040010
:102360000D001600DFF8240100782100C9B2884270
:1023700009D3DFF824211068002804D0310089B285
:1023800028001268904770BD38B504000D00280081
:1023900003F046FA020092B229002000C0B2FFF713
:1023A000DDFF31BD70B504000D00280003F038FAE0
:1023B000020092B229002000C0B2FFF7CFFFDFF881
:1023C000DC603068002807D0280003F029FA0100FB
:1023D00089B228003268904770BD000000000000FC
:1023E00030B404000D0013005A1E9BB2002B04D021
:1023F0002B7823706D1C641CF5E730BC704700001F
:1024000010B504002000C0B2FB2816DB2000C0B2CB
:10241000D0F5807003F03CFA41EC110B9FED200BDE
:1024200003F04FFA53EC102B0020194903F052FA35
:1024300003F074FB00EE100A0FE02000C0B203F0BE
:10244000A1FB41EC110B9FED160B03F03AFA51EC96
:10245000100B03F063FB00EE100A10BD38B52DED34
:10246000028B82B0B0EE408A04000D0018EE100A14
:1024700003F096FBCDE900012A000B49200003F090
:10248000B3FB02B0BDEC028B31BD0000800C00201C
:102490000000F03F342900203C290020382900208A
:1024A00000000000000024403CFF000880B500222E
:1024B0004FF40071DFF8540CFFF7C9FE00224FF40F
:1024C00000715FF09040FFF7C2FE03F0ADFBDFF854
:1024D000400CDFF8401C0165DFF83C1C421CC1F8D1
:1024E0007021021DC1F8882110F120020A62027ACF
:1024F00081F8252010F128028A63827A81F83D2034
:1025000010F12C020A65C27A81F8552010F11002F0
:10251000C1F8B821027A81F8BD2110F14002C1F85A
:10252000D021FD2281F8D52110F14402C1F8E82123
:10253000027A81F8ED2110F13002C1F81822027AF6
:1025400081F81D2210F13402C1F83022427A81F85C
:10255000352210F13802C1F84822827A81F84D22E2
:1025600010F13C02C1F86022C27A81F8652210F1B4
:102570004802C1F8A822027B81F8AD2210F14C027A
:10258000C1F8C022027B81F8C52210F15402C1F8C3
:10259000F022427B81F8F52210F15802C1F808239D
:1025A000427B81F80D2310F15C02C1F82023427BAD
:1025B00081F8252310F16002C1F83823407B81F8AF
:1025C0003D03DFF8B40B0068C1F88003DFF8AC0B03
:1025D0000068C1F8B00301BD38B500200024200018
:1025E000C0B2072835DADFF8985B2000C0B20001DE
:1025F0002844407801282AD12000C0B20001284494
:10260000406800280ED003F067FB2100C9B2090121
:1026100029444968401A2100C9B20901294489683E
:10262000884214D300202100C9B20901294448700E
:1026300003F052FB2100C9B209012944486020007F
:10264000C0B22100C9B209012944C9688847641C85
:10265000C5E7002032BD38B50400DFF8285B687894
:1026600000281FD100224FF40071DFF8A00AFFF705
:10267000EEFD00224FF400715FF09040FFF7E7FDA0
:1026800003F0D2FA89200090202307220521DFF8E9
:10269000000B03F027FB012068700221DFF8E00A3D
:1026A00003F068FC012032BD7CB50400DFF8E45A79
:1026B0002878002803D0022823D003D33DE003F07C
:1026C00083FC3AE003F0F6FC8920009020230722E7
:1026D0000521DFF8BC0A03F005FBDFF8BC2A032163
:1026E0002C2003F019FCDFF8B42A0421082003F0A1
:1026F00013FC03F03CFD41F28830DFF8841A886156
:102700001BE00120DFF87C1A48708920009020230C
:1027100007220521DFF8780A03F0E4FADFF8606A9F
:102720000221300003F026FC0321300003F022FCDC
:102730000421300003F01EFCFFE72878401C2870BD
:102740002100C9B2DFF8380A03F023FC012076BD6E
:1027500070B5040000F0BCF8DFF8285A687801284A
:1027600003D1A87800F022FC04E00021DFF8100A71
:1027700003F000FCDFF8280AA9780278914207D01C
:10278000A9780170DFF81C0A0068DFF81C1A0860DD
:10279000A8780A2812D1DFF8106A4FF4FA6130687D
:1027A000FFF776FD012809D1DFF8F80900683060ED
:1027B000062215F10801A81CFFF712FE2100C9B27C
:1027C000DFF8BC0903F0E5FB012070BD10B5040083
:1027D000DFF8D819DFF8D8090069FFF759FD01289B
:1027E00027D1DFF8D0090178012905D10021017036
:1027F0000020DFF890198870DFF8BC090188491CB7
:10280000018042F21071DFF878292300DBB21B014E
:102810001A449268B1FBF2F102888A420DD300217A
:102820000180DFF860198878002806D000208870C1
:1028300003E00120DFF87C1908702100C9B2DFF83D
:10284000400903F0A6FB012010BD38B50400FDF7D8
:10285000B6FCDFF85C59287A012808D10521DFF899
:10286000200903F087FBDFF83C090068286121009C
:10287000C9B2DFF80C0903F08CFB012032BD10B5A2
:102880000400FDF783FCDFF8280900210170002116
:102890000172012010BD10B5040000224FF4005158
:1028A000DFF86808FFF7D3FC012010BD10B5040065
:1028B00001224FF40051DFF85408FFF7C8FCDFF89D
:1028C000C008210089B28166062103F062FB10BDB9
:1028D00070B5DFF83C48DFF8E408216D097850F85E
:1028E0002100DFF83418C1F89002DFF8D40801782D
:1028F0006170DFF8D018407851F820006060207ACD
:1029000001F032FF00EE100ADFF8BC58B8EE400AC2
:10291000D5ED010A20EE200ABDEEC00A84ED040ABE
:10292000607A01F021FF00EE100AB8EE400AD5ED02
:10293000030A20EE200ABDEEC00A84ED050AA07A43
:1029400001F012FF00EE100AB8EE400AD5ED020ABF
:1029500020EE200ABDEEC00A84ED060AE07A01F0FE
:1029600003FF00EE100AB8EE400AD5ED040A20EE8F
:10297000200ABDEEC00A84ED070A207A01F0F4FEB9
:1029800000EE100AB8EE400AD5ED050A20EE200A46
:10299000BDEEC00A84ED080A607A01F0E5FE00EEA3
:1029A000100AB8EE400AD5ED070A20EE200ABDEE67
:1029B000C00A84ED090AA07A01F0D6FE00EE100AE2
:1029C000B8EE400AD5ED060A20EE200ABDEEC00A98
:1029D00084ED0A0AE07A01F0C7FE00EE100AB8EEB4
:1029E000400AD5ED080A20EE200ABDEEC00A84EDAB
:1029F0000B0A207A01F0B8FE00EE100AB8EE400A89
:102A0000D5ED090A20EE200ABDEEC00A84ED0C0ABD
:102A1000607A01F0A9FE00EE100AB8EE400AD5ED8A
:102A20000B0A20EE200ABDEEC00A84ED0D0AA07A42
:102A300001F09AFE00EE100AB8EE400AD5ED0A0A3F
:102A400020EE200ABDEEC00A84ED0E0AE07A01F005
:102A50008BFE00EE100AB8EE400AD5ED0C0A20EE0F
:102A6000200ABDEEC00A84ED0F0A207B01F07CFE37
:102A700000EE100ADFF89C66B8EE400AD6ED020AB6
:102A800020EE200ABDEEC00A84ED120A207B01F080
:102A90006BFE00EE100AB8EE400AD6ED010A20EEF9
:102AA000200ABDEEC00A84ED130A95ED0D0ADFED94
:102AB0002B0A20EE200ABDEEC00A84ED100A207A0F
:102AC00001F052FE00EE100AB8EE400AD5ED0E0AF3
:102AD00020EE200ABDEEC00A84ED110A607B01F0F1
:102AE00043FE00EE100ADFF8E456B8EE400AD5EDDA
:102AF000000A20EE200ABDEEC00A84ED150A607BB4
:102B000001F032FE00EE100AB8EE400AD5ED010ADF
:102B100020EE200ABDEEC00A84ED160A607B01F0AB
:102B200023FE00EE100AB8EE400AD5ED020A20EEB0
:102B3000200ABDEEC00A84ED170A607B01F014FE86
:102B400000EE100AB8EE400AD5ED030A20EE200A86
:102B5000BDEEC00A84ED180A70BD000000007A4482
:102B60002DE9F84F8AB006002021002202AC200097
:102B700003F06AFB0024002500208DF805000020EA
:102B80008DF806001827DFF890853000C0B2784332
:102B9000404490F815903000C0B2784340444068FB
:102BA000002842D001213000C0B200F0A9F900286D
:102BB0000ED13000C0B27843404442683000C0B209
:102BC00078434044017D4846C0B203F0A5F91EE0B9
:102BD0005FF0000A3000C0B278434044406802F021
:102BE0001FFE5146C9B2814207D2202002A9524697
:102BF000D2B288541AF1010AECE702AA3000C0B23E
:102C000078434044017D4846C0B203F085F9300066
:102C1000C0B278434044406802F002FEDFF8B015CD
:102C20000979491C484310FA89F93000C0B2784349
:102C300040448068002800F03A813000C0B27843F8
:102C40004044007B00280BD002281ED012D3042859
:102C500030D024D3062845D036D307283ED044E0D0
:102C60003000C0B2784340448068007800210400FE
:102C70000D003AE03000C0B278434044806890F9DB
:102C80000000C11704000D002FE03000C0B27843EF
:102C9000404480680088002104000D0025E03000D9
:102CA000C0B2784340448068B0F90000C117040006
:102CB0000D001AE03000C0B27843404480680068DC
:102CC000002104000D0010E03000C0B27843404401
:102CD00080680068C11704000D0006E001208DF82F
:102CE000050002E002208DF805009DF8050000288F
:102CF0000CD13000C0B278434044407B40420200D7
:102D0000D2B202A92000FFF7DBFA26E09DF8050009
:102D100001281AD13000C0B278434044806802F0E4
:102D20007FFD202819D23000C0B27843404480682B
:102D300002F076FD020092B23000C0B27843404407
:102D4000816802A8FFF74CFB07E03000C0B278436F
:102D50004044806800788DF8080002213000C0B23D
:102D600000F0CEF8012823D13000C0B278434044AF
:102D7000807DC0B200098DF806009DF806000F287E
:102D800005D0202002A99DF80620885410E05FF0AD
:102D9000000A02A802F044FD5146C9B2814207D29E
:102DA000202002A95246D2B288541AF1010AF0E753
:102DB0003000C0B201285ED15FF0000A00208DF81B
:102DC00004003000C0B278434044407B002802D069
:102DD00009208DF80400392000902E2315220F21A0
:102DE000DFF8F00303F064FA02A802F019FD83464D
:102DF000DFF8DC030079401C00FB0BFB5846C0B237
:102E0000022190FBF1F01F280BDA5846C0B20221D4
:102E100090FBF1F0D0F140009DF8041050FA81FAD7
:102E200007E05846C0B2D0F15F009DF8041050FA98
:102E300081FA02AA3000C0B278434044007D401CB1
:102E4000C0B2DFF88C134979D1EBC001491EC9B279
:102E50005046C0B203F0D6FB5AFA8BF09DF80490AE
:102E6000B0EB090989200090202307220521C848DA
:102E700002F038FF1BE08920009020230722052163
:102E8000C34802F02FFF02AA3000C0B2784340448A
:102E9000017D4846C0B203F03FF802A802F0C0FC32
:102EA000CB490979491C484310FA89F08146300022
:102EB000C0B278434044006900281ED03000C0B240
:102EC000784340448068002817D03000C0B278436F
:102ED00040448068C04988420FD03000C0B2784377
:102EE000404402693000C0B207FB00F708EB07005E
:102EF000017D4846C0B203F00FF80BB0BDE8F08F7B
:102F0000F8B504000D0084492200D2B218204243D3
:102F100001EB0200817D2800C0B201402800C0B250
:102F200081422FD1A826AD4F4FF496712800C0B230
:102F3000704338442200D2B250F82200FFF7A8F9BB
:102F400001282AD12800C0B206FB00F607EB0600D4
:102F50002100C9B2934A126840F821202A20A049D2
:102F60002A00D2B242430A442300DBB22E00F6B25A
:102F700000FB06F008442100C9B2405CD0F101001A
:102F8000D0540AE096492A00D2B22A20424301EBEB
:102F900002002100C9B2002242549149EDB22A2018
:102FA000454301EB0500E4B2005DF2BD70B50400DD
:102FB000002603F07FF800F077F82000C0B200F0A0
:102FC0007DF82000C0B200F0A9F80025280080B2EA
:102FD0002A2811DA50492A0092B21820424301EB04
:102FE0000200C07D2100C9B2884203D12800C0B2CE
:102FF000FFF7B6FD6D1CE9E703F0B9F870BDF0B45A
:103000004271C47803792500EDB2AB420AD3F025B2
:10301000414E2700FFB218235F4306EB07039D755F
:10302000641CEFE718233C4C85785D4325444679C2
:10303000AE75002904D0857803FB05F3234499601D
:10304000F0BC70472DE9F84F0700884691469A4634
:103050000A9E0B9DDDF830B00D9C87F8008087F844
:10306000019087F802A0FE703D712200D2B259464D
:103070003800FFF7C4FFBDE8F18F10B40100002253
:103080001000C0B204280CD21000C0B2085C554B2E
:103090001400E4B21B5D984201D0002002E0521CF3
:1030A000EEE7012010BC704780B501200090082396
:1030B0007F220821002003F029FB01BD70B5040028
:1030C0002000C0B2002820D13F48007800280ED14F
:1030D000114D2DA6320095F84410782002F01CFF07
:1030E000320095F85C10782002F016FF0DE027A65C
:1030F000094D320095F84410782002F00DFF32009F
:1031000095F85C10782002F007FF70BD00080048B9
:103110007C000020E0280020440100200100C9B20A
:10312000092924D130490978002906D002290ED076
:1031300008D3042915D00FD318E02C492C4AC2F823
:10314000C81318E02B492A4AC2F8C81313E02A49C9
:10315000274AC2F8C8130EE02849254AC2F8C81306
:1031600009E02749224AC2F8C81304E003E01F49D6
:103170001F4AC2F8C8137047CC050020E0000020A9
:103180000C000020B4280020200000004E000000A9
:1031900040F3000853290020D4FC0008DCF80008A4
:1031A00054290020342900201429002080EE360004
:1031B0006C28002055290020462900203C010020D1
:1031C0007C0C0020080700208C260020C42800204A
:1031D000D428002018F100087E0C0020341F0020A5
:1031E000C4220020E80000207C000020EC00002029
:1031F00044010020FC0000200C0100201C010020E4
:103200002C01002010B504000121DFF8DC0C02F0D5
:10321000C0FE012010BD30B587B00400142100228B
:1032200002AD280003F010F8DFF8940BD0E900237A
:10323000CDE9002302A80090DFF8885B2978684672
:1032400000F020FB28786870BDF80410009800F0AA
:10325000E0FCDFF8740B8078042809D12878002876
:1032600003D12878401C287001E00020287001E07C
:1032700000202870DFF8705C0221280002F07AFE3E
:103280000321280002F085FE2100C9B2280002F0C7
:1032900080FE012007B030BD10B50400DFF82C1B04
:1032A0008888002810D0DFF8280B02888B889A4283
:1032B00008D1002101800221DFF82C0C02F05AFE17
:1032C000012008E0898801802100C9B2DFF8180CCC
:1032D00002F05FFE012010BD2DE9F0410400002541
:1032E0000026DFF8E87AB88803283DDB3868B9881B
:1032F000084410F8010C3968BA88114411F8021C0E
:1033000051EA00210E00B988891E386803F098FA46
:1033100005002800310080B289B288421DD1072102
:10332000DFF8C40B02F035FE3868007801280DD1B3
:10333000DFF8908A012198F8010000F0BCFA98F8B3
:103340000120D7E9000100F0A6FA13E00021DFF820
:10335000740A407800F0AFFA0CE00021DFF8640A4C
:10336000407800F0A8FA05E00021DFF8580A40781C
:1033700000F0A1FADFF84C0A407800F0EDF80221E5
:10338000DFF8640B02F017FE0120BDE8F0810100B8
:10339000DFF8D80C0278032A01D004220270012041
:1033A000704710B504002100C9B2DFF83C0B02F0F1
:1033B000F0FD012010BD10B50400DFF8000C01780D
:1033C000012936D1DFF8F81BC978012931D1DFF89E
:1033D000F41B91ED050AD0ED020AB4EE600AF1EE9D
:1033E00010FA08DA91ED050AD0ED010AB4EE600A90
:1033F000F1EE10FA0ED501224FF400615FF090401B
:10340000FEF725FF01224FF480515FF09040FEF758
:103410001EFF1CE000224FF400615FF09040FEF7B9
:1034200016FF00224FF480515FF09040FEF70FFF2F
:103430000DE000224FF400615FF09040FEF707FFBF
:1034400000224FF480515FF09040FEF700FFDFF85C
:10345000980A4FF47A7181662100C9B202F099FD91
:10346000012010BD38B50400DFF8041C08780028DE
:103470001FD101200870DFF8FC5B01221021280019
:10348000FEF7E5FE002208212800FEF7E0FE0022FC
:103490000421DFF8E40BFEF7DAFE4FF4FA60DFF800
:1034A000481A886703F0AEFB03F057FD03F046FDB2
:1034B00012E00020087001220821DFF8B80BFEF7A7
:1034C000C6FE01220421DFF8B00BFEF7C0FE4EF667
:1034D0006020DFF8141A88672100C9B2DFF8080AF3
:1034E00002F057FD012032BD10B50400DFF8D41AF8
:1034F0000878002803D1002081F8480011E0DFF8A7
:10350000C8088278042A05D08278092A06D1007A70
:10351000042803D1032081F8480002E0022081F84A
:103520004800DFF89C0AC078012806D1012081F804
:103530004900012081F84A0005E0002081F8490097
:10354000002081F84A002100C9B2DFF89C0902F08E
:1035500020FD012010BD000038B52DED028B0400C8
:103560009FEDC48A2000C0B2002840F09B80DFF8A5
:10357000545A95ED010ABDEEC00A10EE100A00F093
:103580000FF985ED010A95ED010A00F077F985ED57
:10359000050A95ED030A00F072F985ED070A95ED2D
:1035A000020A00F06DF985ED060A95ED040A00F0B7
:1035B00068F985ED080A95ED080AD5ED0C0A30EE9C
:1035C000200ADFF81C0CD0ED020AF4EE400AF1EEFE
:1035D00010FA02D5D0ED020A0BE0D0ED030AB4EEEA
:1035E000600AF1EE10FA02D5D0ED030A01E0F0EE28
:1035F000400AC5ED080AD5ED050A95ED091A70EEE9
:10360000810A90ED001AB4EE601AF1EE10FA02D5BC
:1036100090ED000A0BE090ED010AF4EE400AF1EEA5
:1036200010FA02D590ED010A01E0B0EE600A85EDD6
:10363000050A95ED070A95ED0B1A30EE010A9FED8C
:103640008E1AB4EE410AF1EE10FA02DBDFEDC30A86
:1036500009E0B5EE400AF1EE10FA02D5DFED850A79
:1036600001E0F0EE400AC5ED070AD5ED060A95ED3A
:103670000A1A30EE818ADFEDBA0AB4EE608AF1EE02
:1036800010FA02DB9FEDB70A09E0B5EE408AF1EED1
:1036900010FA02D59FED770A01E0B0EE480A85EDF9
:1036A000060AFFE7DFF81C592878002807D1002018
:1036B000686095ED010A00F0E1F885ED050A2878CB
:1036C000002807D10020E86095ED030A00F0D7F844
:1036D00085ED070A2878002807D10020A86095ED1D
:1036E000020A00F0CDF885ED060A2878002807D1F7
:1036F0000020286195ED040A00F0C3F885ED080A62
:10370000BDEC028B31BD2DE9F04100242500EDB266
:103710000A2D43DA00252E00F6B2092E3CDA2E00DF
:10372000F6B201EB860676682F00FFB251F82770DB
:10373000BE422FDA00262F00FFB251F82770AC46A8
:103740005FFA8CFC01EB8C0CDCF804C0AE465FFA2F
:103750008EFE41F82EC0AC465FFA8CFC01EB8C0C5F
:10376000CCF80470AC465FFA8CFC50F82CC0AE4626
:103770005FFA8EFE00EB8E0EDEF804E0A8465FFADC
:1037800088F840F828E0AE465FFA8EFE00EB8E0E19
:10379000CEF804C06D1CBEE7641CB7E7BDE8F0813D
:1037A00038B52DED028B04009FED328ADFF8981BAF
:1037B000087800282AD10120087000210800C0B232
:1037C0000A2815DA0800C0B2DFF8B42D0B00DBB20E
:1037D00042F82300DFF8D02B0800C0B252F82000D6
:1037E000002803D10800C0B242F82040491CE5E798
:1037F000DFF8B45B092300222900DFF8840DFFF70E
:1038000082FF95ED050AB8EEC00A30E00020010005
:10381000C9B20A291EDADFF8681D0200D2B251F8D7
:103820002220092A0BD100220300DBB241F8232019
:10383000DFF8741B0200D2B241F8224008E0020017
:10384000D2B251F82220521C0300DBB241F82320EF
:10385000401CDCE7DFF8505B092300222900DFF879
:10386000200DFFF750FF95ED050AB8EEC00ABDEC3C
:10387000028B31BD000000000100FA447047704720
:103880007047704738B504000D002900C9B2200008
:1038900000F01BF831BD70B504000D0016002000CB
:1038A0000078C0B2012805D13200D2B22000290030
:1038B00000F05AF870BD38B504000D002900C9B2F7
:1038C0002000C0B200F0DDF831BD3EB504000D00AF
:1038D0002800C0B2002805D0022815D00BD3032839
:1038E00026D039E00A200090002303220121200085
:1038F00002F0C4FF30E00C200090002303220121DD
:10390000200002F0BBFF27E0DFF8440D8188042986
:103910000DD1016801918088022190FBF1F080B205
:1039200000900A2310220121200002F0F5FF13E08D
:10393000DFF81C0D818804290DD101680191808870
:10394000022190FBF1F080B200900A2310220121A5
:10395000200002F0E1FFFFE737BD00000000FA445D
:103960000100C8420000C8422DE9F34782B01400AC
:103970000020ADF8000000252000C0B2002805D0CE
:10398000022879D04AD3032876D078E00320ADF816
:10399000000004226946029800F008F90600DFF8EA
:1039A00024A61AF10401300000F0FAFF9AED010A92
:1039B000DFEDA80A20EE200A8AED010A04226946FA
:1039C000029800F0F3F8070004226946029800F01C
:1039D000EDF880461AF11001404600F0E1FF0422A4
:1039E0006946029800F0E2F881461AF10C01484657
:1039F00000F0D6FF04226946029800F0D7F80500CF
:103A00001AF10801280000F0CBFF9AED020ADFED61
:103A1000920A80EE200A8AED020A30E00320ADF817
:103A2000000004226946029800F0C0F80600DFF8A2
:103A3000948518F10401300000F0B2FF98ED010AFE
:103A4000DFED840A20EE200A88ED010AD8F8040090
:103A5000C8F8380010226946029800F0A7F807005D
:103A600004226946029800F0A1F8050018F134011B
:103A7000280000F095FF02E000F03FF8FFE7BDE806
:103A8000FF870200D2B2002A032A1BD80A00D2B252
:103A9000012A0ED1DFF82C25002353700123137067
:103AA0000200D2B2002A0CD10122DFF81435DA70FC
:103AB00007E0DFF810255378032B02DA53785B1CFC
:103AC0005370FFE7DFF8FC345A78002A14D05A7894
:103AD000032A11DB00221A7000225A6000221A61A8
:103AE0000022DA6000229A6000225A6300229A6360
:103AF0000022DFF8CC34DA70704780B50320DFF89D
:103B00006C1508700421DFF8E00302F054FA32204B
:103B1000FEF7CCFE01BD80B5DFF83C0B0078A9496B
:103B200008700220DFF8441508700421EE4802F006
:103B300030FA01BD2DE9F04104000D0016002F0000
:103B4000DFF80C8B4046FEF7EBFB300080B202281A
:103B500002D004280BD01DE07878D8F80010087047
:103B60003878D8F800104870A8F8046015E0787824
:103B7000D8F8001008703878D8F800104870F87835
:103B8000D8F800108870B878D8F80010C870A8F875
:103B9000046002E00020A8F80400DFF8BC0A04700A
:103BA0000120DFF8241A0870BDE8F081F0B40300AA
:103BB00000200C881500EDB2042D16D12500ADB201
:103BC0001D44AE782500ADB21D44ED7855EA0625BA
:103BD0002600B6B29E5D2700BFB21F447F7857EA29
:103BE000062757EA054738000DE01500EDB2022D13
:103BF00009D12500ADB25D5D2600B6B21E447678CF
:103C000056EA052630000D8855FA82F50D80F0BC85
:103C1000704770B504000D00DFF8406A01224FF4D0
:103C200080513000FEF713FB0A2003F0B9F903F0CE
:103C30007DF94FF47A732A0092B22100DFF8200A4E
:103C400003F0FFF900224FF480513000FEF7FFFA35
:103C500070BD000000007A4400401C462DE9F84F7A
:103C60002DED048B8EB0F0EE409AB0EE608AF0EE4F
:103C7000418AB0EE619A3221002201AC200002F0AC
:103C8000E3FA5FF0000B00200090002400250026DE
:103C9000DFF830A3CAED099A8AED0B8ACAED0A8AC9
:103CA0008AED0C9A9AED090A01F03EF807009AEDA8
:103CB0000B0A01F039F880469AED0A0A01F034F84F
:103CC00081469AED0C0A01F02FF8824601A83900CE
:103CD000090E5A46D2B281541BF1010B3900090C6E
:103CE0005A46D2B281541BF1010B3900090A5A46D7
:103CF000D2B281541BF1010B5946C9B247541BF192
:103D0000010B4146090E5A46D2B281541BF1010BF8
:103D10004146090C5A46D2B281541BF1010B41466F
:103D2000090A5A46D2B281541BF1010B5946C9B255
:103D300000F801801BF1010B4946090E5A46D2B228
:103D400081541BF1010B4946090C5A46D2B28154E9
:103D50001BF1010B4946090A5A46D2B281541BF1A4
:103D6000010B5946C9B200F801901BF1010B5146F5
:103D7000090E5A46D2B281541BF1010B5146090C6F
:103D80005A46D2B281541BF1010B5146090A5A46D8
:103D9000D2B281541BF1010B5946C9B200F801A0FF
:103DA0001BF1010B5A46D2B292B201A9DFF8B40856
:103DB00004F064F90EB0BDEC048BBDE8F18F000097
:103DC000F4FE00084E290020B42800202C0C00200E
:103DD0004C2900202DE9F041002400250026002771
:103DE000DFF880080078C0B2FF2872D0DFF87808CA
:103DF0000178C9B20906DFF874080078C0B251EA48
:103E00000041DFF86C080078C0B251EA0021DFF809
:103E100064080078C0B201430C00DFF85C08017848
:103E2000C9B20906DFF854080078C0B251EA00416F
:103E3000DFF84C080078C0B251EA0021DFF84408EE
:103E40000078C0B201430D00DFF83C080178C9B228
:103E50000906DFF838080078C0B251EA0041DFF8FF
:103E600030080078C0B251EA0021DFF82808007855
:103E7000C0B201430E00DFF820080178C9B209067C
:103E8000DFF818080078C0B251EA0041DFF81008E6
:103E90000078C0B251EA0021DFF808080078C0B20B
:103EA00001430F00DFF81C8118F12401200000F00D
:103EB00077FD18F12C01280000F072FD18F128019F
:103EC000300000F06DFD18F13001380000F068FDA1
:103ED00008E03C48002141620021C162002181626A
:103EE00000210163BDE8F0817C0700202DE9F04747
:103EF0002DED028B8EB00400F0EE408AB0EE608AA9
:103F0000322100226D46280002F09EF9002500268D
:103F10000027DFF8A8A08AF800408AED028ACAEDDF
:103F2000018A9AED020A00F0FFFE80469AED010A2E
:103F300000F0FAFE814668469AF800102A00D2B2D4
:103F400081546D1C4146090E2A00D2B281546D1C69
:103F50004146090C2A00D2B281546D1C4146090A1F
:103F60002A00D2B281546D1C2900C9B200F8018028
:103F70006D1C4946090E2A00D2B281546D1C494677
:103F8000090C2A00D2B281546D1C4946090A2A0044
:103F9000D2B281546D1C2900C9B200F801906D1C89
:103FA0002A00D2B292B26946DFF8FC0604F066F845
:103FB0000EB0BDEC028BBDE8F0870000E0280020C9
:103FC000282900208C26002070B500240025DFF869
:103FD000D8060078C0B2FF283DD0DFF8D066DFF801
:103FE000D00600783070DFF8CC060178C9B2090637
:103FF000DFF8C4060078C0B251EA0041DFF8BC0621
:104000000078C0B251EA0021DFF8B4060078C0B2EF
:1040100001430C00DFF8AC060178C9B20906DFF8ED
:10402000A8060078C0B251EA0041DFF8A006007887
:10403000C0B251EA0021DFF898060078C0B201430F
:104040000D0016F10801200000F0AAFC311D280027
:1040500000F0A6FC08E0DFF8540600210170DFF84C
:10406000741681600021416070BD00007C0000205A
:104070005B29002000040048000C00482DE9F84F9F
:104080002DED048B8EB0F0EE409AB0EE608AF0EE2B
:10409000418AB0EE619A3221002201AC200002F088
:1040A000D3F85FF0000B00200090002400250026CC
:1040B000DFF82CA1CAED009A8AED018ACAED028AC6
:1040C0008AED039A9AED000A00F02EFE07009AEDA1
:1040D000010A00F029FE80469AED020A00F024FE53
:1040E00081469AED030A00F01FFE824601A83900BE
:1040F000090E5A46D2B281541BF1010B3900090C4A
:104100005A46D2B281541BF1010B3900090A5A46B2
:10411000D2B281541BF1010B5946C9B247541BF16D
:10412000010B4146090E5A46D2B281541BF1010BD4
:104130004146090C5A46D2B281541BF1010B41464B
:10414000090A5A46D2B281541BF1010B5946C9B231
:1041500000F801801BF1010B4946090E5A46D2B204
:1041600081541BF1010B4946090C5A46D2B28154C5
:104170001BF1010B4946090A5A46D2B281541BF180
:10418000010B5946C9B200F801901BF1010B5146D1
:10419000090E5A46D2B281541BF1010B5146090C4B
:1041A0005A46D2B281541BF1010B5146090A5A46B4
:1041B000D2B281541BF1010B5946C9B200F801A0DB
:1041C0001BF1010B5A46D2B292B201A9DFF80805E1
:1041D00003F054FF0EB0BDEC048BBDE8F18F00007E
:1041E000C42800202DE9F0410024002500260027E6
:1041F000DFF8E4040078C0B2FF2871D0DFF8DC04F7
:104200000178C9B20906DFF8D8040078C0B251EAD3
:104210000041DFF8D0040078C0B251EA0021DFF895
:10422000C8040078C0B201430C00DFF8C004017874
:10423000C9B20906DFF8B8040078C0B251EA0041FB
:10424000DFF8B0040078C0B251EA0021DFF8A8041A
:104250000078C0B201430D00DFF8A0040178C9B2B4
:104260000906DFF89C040078C0B251EA0041DFF88B
:1042700094040078C0B251EA0021DFF88C04007881
:10428000C0B201430E00DFF884040178C9B2090608
:10429000DFF87C040078C0B251EA0041DFF8740412
:1042A0000078C0B251EA0021DFF86C040078C0B297
:1042B00001430F00DFF864844146200000F070FBEA
:1042C00018F10401280000F06BFB18F10801300020
:1042D00000F066FB18F10C01380000F061FB0BE008
:1042E000DFF83804DFF8EC13016000214160DFF8EB
:1042F000301481600021C160BDE8F08178B591B0D3
:1043000004000D003C21002202AE300001F09CFFB1
:104310000020ADF804000321032001F06CF80B200D
:1043200000900023DFF8FC2301A902A800F022FB83
:104330004FF47A73BDF8042002A9DFF8EC0302F011
:1043400080FE12B070BD00005C29002078B591B0ED
:1043500004000D003C21002202AE300001F074FF89
:104360000020ADF80400BF4803F058FECE4803F02B
:1043700055FECE4800210170D64981600021416080
:104380000D2000900023DFF8A42301A902A800F06B
:10439000F1FA4FF47A73BDF8042002A9DFF888031C
:1043A00002F04FFE12B070BD0428002038B590B066
:1043B00004000D0003A8DFF87813322203F0A2FEF8
:1043C000DFF87003D0E90023CDE9012303A80190B1
:1043D0000023DFF86403027802A903A800F055FA6D
:1043E00002200090002377A202A903A800F0C2FADD
:1043F0004FF47A73BDF808200199CB4802F021FEF2
:1044000011B030BDF8B504000D000026206800781A
:1044100030283ADB206800783A2836DA0027002076
:104420000100C9B2A28889B291420FD2216802006C
:10443000D2B2895C302905DB21680200D2B2895CE6
:104440003A2900DB02E07F1C401CE9E73900C9B2D1
:10445000206800F047FB0600B6F5807F0DD2B64815
:1044600041783000C0B200F0C6FF4FF47A730222E8
:1044700078A1AD4802F0E5FD0EE04FF47A73052215
:10448000AE49A94802F0DDFD06E04FF47A7305223B
:10449000AA49A54802F0D5FDF1BD38B590B0040099
:1044A0000D0003A8A649322203F02CFEA548D0E94E
:1044B0000023CDE9012303A8019000239E48427800
:1044C00002A903A800F0E1F90220009000233DA218
:1044D00002A903A800F04EFA4FF47A73BDF8082041
:1044E0000199914802F0ADFD11B030BDF8B504005E
:1044F0000D00002620680078302839DB206800781D
:104500003A2835DA002700200100C9B2A28889B212
:1045100091420FD221680200D2B2895C302905DBBA
:1045200021680200D2B2895C3A2900DB02E07F1CDC
:10453000401CE9E73900C9B2206800F0D3FA060050
:104540000C2E0DD23100C9B27B48007800F053FF29
:104550004FF47A7302223FA1734802F072FD0EE01D
:104560004FF47A73052275496F4802F06AFD06E040
:104570004FF47A73052271496B4802F062FDF1BD78
:10458000DC27002080B5FFF725FCFFF71DFDFFF7B6
:1045900029FE6D486D49C0F8A4136D49C0F8B413E5
:1045A0006C49C0F8C4136C49C0F8D4136B49C0F807
:1045B000E4136B49C0F8F41302F0CFFC02F0BEFC28
:1045C00001BD00000D0A00007C00002070B5002035
:1045D000002400252800C0B2092836DA614E2800E0
:1045E000C0B200013044407801282CD101200400E1
:1045F0002800C0B200013044406800280ED001F00D
:104600006BFB2900C9B2090131444968401A2900ED
:10461000C9B2090131448968884214D300202900B5
:10462000C9B209013144487001F056FB2900C9B2F2
:104630000901314448602800C0B22900C9B209010B
:104640003144C96888476D1CC4E72000C0B270BD02
:104650000C0800204F4B00005A2900200008004899
:104660003C22002000080208020802080308020891
:1046700004080208050802080608020807080208DC
:1046800008080208090802080A0802080B080208BC
:104690000C0802080D0802080E0802080F0802089C
:1046A000100802081108020800100208E028002083
:1046B0000210020803100208041002080510020884
:1046C0000610020807100208081002080910020864
:1046D0000A1002080000FA44002002080220020822
:1046E0000320020804200208052002080620020810
:1046F0000720020808200208092002080A200208F0
:104700000B2002080C2002080D2002080E200208CF
:104710000F2002081020020811200208C4280020DF
:104720000000A042ECFC00082C21002018FA000830
:10473000B8F60008FCFE00087C0C0020ECFE000827
:10474000ECF6000804FF00081C080020FD420008E9
:104750004D430008AD430008054400089B44000891
:10476000ED4400087C07002001000800C0B20028CA
:1047700001D1012021E00800C0B2FF2801D10A20A8
:104780001BE00800C0B2FE2801D1642015E008003B
:10479000C0B2FD2802D14FF47A700EE00800C0B21A
:1047A000FC2802D142F2107007E00800C0B2FB28DA
:1047B00002D1DFF8480500E0012070472DE9F24FF3
:1047C00082469346002000210A260027B046B946BB
:1047D000009A1588BBF1000F08D5DBF100042D20ED
:1047E0002A0092B20AF802006D1C00E05C4620002C
:1047F000002142464B4603F0D9FC002901D1002894
:1048000008D0A6FB080106FB091107FB081180462A
:104810008946ECE7404649460A22002303F0C6FCDD
:1048200006000F00002F01D1002E28D0200000210B
:1048300032003B0003F0BAFC3030290089B20AF89C
:1048400001006D1CA0465FF000092000002132002D
:104850003B0003F0ABFCA6FB002306FB013307FB88
:104860000033B8EB020079EB03010400300039009B
:104870000A22002303F09AFC06000F00D2E70098FA
:1048800005802800C0B2BDE8F28F2DE9FE4F06007A
:104890000F0090460020ADF8000000200024002109
:1048A0005FF0000BB7F80090B8F1000F02D5D8F117
:1048B000000500E04546424639003000FFF77EFF24
:1048C000B7F800A0002D4FD09DF80800FFF74CFF6F
:1048D00001008D4205D20A2045431BF1010B002D3A
:1048E000F7D15846C0B2002821D050460200D2B2BB
:1048F000324412F8012C2D2A06D00200D2B24B46C7
:1049000092B29BB29A4208D130220300DBB2F25439
:104910001AF1010ABBF1010BE3E70200D2B2324403
:1049200012F8012C0300DBB2F254401EDEE70A202D
:10493000B1FBF0F450468346002C15D00A20B4FB9E
:10494000F0F45846C0B2304410F8010C5946C9B2D0
:104950007054BBF1010B002CEED12E205946C9B288
:1049600070541AF1010AE7E7A7F800A05046C0B258
:10497000BDE8FE8FF0B4049C00252E00B6B2A6421E
:104980000BD20E88771C0F802F00BFB217FA83F767
:10499000D75DB6B287556D1CEFE7F0BC70470000DD
:1049A0002DE9F34F81B02DED028B9FED658A002438
:1049B00001250026F7EE008A00273800C0B2202823
:1049C00064DA0398F84010F0010004003800C0B227
:1049D000172829DA18EE900A01F0E2F882468B4691
:1049E0002000C0B201F0CEF8804689463800C0B23F
:1049F000D0F117005FF0FF31484300F049FF41EC70
:104A0000110B9FED500B00F05CFF51EC100B424678
:104A10004B4603F0E3FC52465B4603F0B1FD01F068
:104A20007DF808EE900A2FE03800C0B21F2824DA83
:104A30003000C0B201F0A6F882468B462000C0B21A
:104A400001F0A0F8804689463800C0B2173800F05F
:104A50001FFF41EC110B9FED3B0B00F032FF51ECBF
:104A6000100B42464B4603F0B9FC52465B4603F03E
:104A700087FD03F043FE060006E02000C0B20128D7
:104A800002D15FF0FF3005007F1C96E7280040B29E
:104A900000F0FEFE804689463000C0B27F3800F04C
:104AA000F7FE41EC110B9FED270B00F00AFF51ECD4
:104AB000100B42464B4603F091FC8046894618EEA7
:104AC000900A01F06DF842464B4603F087FC01F076
:104AD00025F800EE100A049880ED000ABDEC028B68
:104AE000BDE8F78F70B403000022002400200025E9
:104AF0002A000E00D2B2F6B2B2421FD22A00D2B2BF
:104B00009A5C302A0ADB2A00D2B29A5C3A2A05DA89
:104B10002A00D2B29A5C303A140001E0002214005C
:104B20002A00D2B2002A03D12200D2B2100003E040
:104B30000A22504350FA84F06D1CD9E770BC7047CC
:104B40000000000000000000000000402DE9F041DE
:104B50002DED028B07000E009FED678A3000C0B27A
:104B600000280BD0FB2800F09E80FC2877D0FD2881
:104B700051D0FE282CD0FF2807D0B7E000EE107AE5
:104B8000B8EEC00AB0EE408AB0E00A2097FBF0F021
:104B900000EE100AB8EEC00A5FF00A0810EE100A24
:104BA00000F0FEFF04000D0097FBF8F008FB107802
:104BB000404600F06DFE524A524B03F00FFC2200BB
:104BC0002B0003F0DDFC00F0A9FF08EE100A8DE0D9
:104BD000642097FBF0F000EE100AB8EEC00A5FF018
:104BE000640810EE100A00F0DBFF04000D0097FBD4
:104BF000F8F008FB1078404600F04AFE424A434B6A
:104C000003F0ECFB22002B0003F0BAFC00F086FF5F
:104C100008EE100A6AE04FF47A7097FBF0F000EEAD
:104C2000100AB8EEC00A4FF47A7810EE100A00F0BD
:104C3000B7FF04000D0097FBF8F008FB1078404622
:104C400000F026FE324A334B03F0C8FB22002B0053
:104C500003F096FC00F062FF08EE100A46E042F214
:104C6000107097FBF0F000EE100AB8EEC00A42F2A6
:104C7000107810EE100A00F093FF04000D0097FB6F
:104C8000F8F008FB1078404600F002FE224A234B61
:104C900003F0A4FB22002B0003F072FC00F03EFFA7
:104CA00008EE100A22E0154897FBF0F000EE100A1B
:104CB000B8EEC00ADFF8448010EE100A00F070FF72
:104CC00004000D0097FBF8F008FB1078404600F058
:104CD000DFFD134A134B03F081FB22002B0003F08E
:104CE0004FFC00F01BFF08EE100AFFE7B0EE480A89
:104CF000BDEC028BBDE8F08100000000A086010041
:104D00009A9999999999B93F7B14AE47E17A843F72
:104D1000FCA9F1D24D62503F2D431CEBE2361A3F05
:104D2000F168E388B5F8E43E10B42DED010A0020E7
:104D30006A460023042B07D2D45C1900C9B2C9000B
:104D40008C4020435B1CF5E712BC7047020000203A
:104D5000704730B40200DFF8980A002304688588A1
:104D6000635583885B1C8380DFF8883A1B7804686E
:104D70008588635583885B1C8380012030BC704725
:104D8000F8B504000D00002000212E002268330039
:104D9000DBB2D25C23683700FFB23B445F7857EA4E
:104DA00002273A0092B2B2F5807F23DA380080B24F
:104DB00000281FD0DFF8380A21683200D2B2895C9F
:104DC00002688388D1548188491C8180216832001F
:104DD000D2B21144497802688388D1548188491C31
:104DE0008180DFF8100A41783800C0B200F003FB80
:104DF000012000E00020F2BD30B40200DFF8F0092D
:104E0000002304688588635583885B1C8380DFF8F2
:104E1000E4395B7804688588635583885B1C8380EC
:104E2000012030BC7047F8B504000D0000200021BF
:104E30002E0022683300DBB2D25C23683700FFB259
:104E40003B445F7857EA02273A0092B20B2A1FDAF6
:104E5000DFF89C0921683200D2B2895C026883883D
:104E6000D1548188491C818021683200D2B211441A
:104E7000497802688388D1548188491C818039002F
:104E8000C9B2DFF87009007800F0B5FA012000E03F
:104E90000020F2BDF8B504000D000026DFF8580927
:104EA00090ED050AFFF740FF0100DFF844090A0012
:104EB000120A03688788DA558288521C8280026849
:104EC0008388D1548288521C82800A00120E0368A3
:104ED0008788DA558288521C82800A00120C036887
:104EE0008788DA558288521C82800120F2BDF8B58D
:104EF00004000D000026DFF8000990ED080AFFF716
:104F000013FF0100DFF8E8080A00120A0368878827
:104F1000DA558288521C828002688388D154828844
:104F2000521C82800A00120E03688788DA55828834
:104F3000521C82800A00120C03688788DA55828826
:104F4000521C82800120F2BDF8B504000D0000263D
:104F5000DFF8A40890ED070AFFF7E6FE0100DFF88E
:104F600090080A00120A03688788DA558288521C62
:104F7000828002688388D1548288521C82800A0011
:104F8000120E03688788DA558288521C82800A00D4
:104F9000120C03688788DA558288521C82800120AF
:104FA000F2BDF8B504000D000026DFF84C0890EDC6
:104FB000060AFFF7B9FE0100DFF834080A00120AFA
:104FC00003688788DA558288521C82800268838849
:104FD000D1548288521C82800A00120E036887888E
:104FE000DA558288521C82800A00120C0368878876
:104FF000DA558288521C82800120F2BD30B4020052
:10500000DFF8EC07002304688588635583885B1C00
:105010008380DFF8E43793F8483004688588635567
:1050200083885B1C8380012030BC704730B4020051
:10503000DFF8BC07002304688588635583885B1C00
:105040008380DFF8B43793F8493004688588635566
:1050500083885B1C8380012030BC704730B4020021
:10506000DFF88C07002304688588635583885B1C00
:105070008380DFF8843793F84A3004688588635565
:1050800083885B1C8380012030BC704730B40200F1
:10509000DFF85C07002304688588635583885B1C00
:1050A0008380002304688588635583885B1C838024
:1050B000012030BC704730B40200DFF83407002311
:1050C00004688588635583885B1C8380002304689B
:1050D0008588635583885B1C8380012030BC7047C2
:1050E00030B40200DFF808070023046885886355A0
:1050F00083885B1C8380DFF804371B78046885880D
:10510000635583885B1C8380012030BC7047F8B5F1
:1051100004000D00002000212E0022683300DBB2C5
:10512000D25C23683700FFB23B445F7857EA02271E
:105130003A0092B2012A03D0380080B2002822D16E
:10514000DFF8AC0621683200D2B2895C026883883D
:10515000D1548188491C818021683200D2B2114427
:10516000497802688388D1548188491C8180DFF89E
:105170008C06D0ED020A90ED010A3800C0B2FEF7AD
:10518000B5FE012000E00020F2BDF8B504000D00DE
:105190000026DFF8680690ED020AFFF7C5FD010062
:1051A000DFF84C060A00120A03688788DA558288FD
:1051B000521C828002688388D1548288521C82806B
:1051C0000A00120E03688788DA558288521C828092
:1051D0000A00120C03688788DA558288521C828084
:1051E0000120F2BD2DE9F84304000D000026002047
:1051F00000900027A84620684146C9B2084481783B
:1052000020684246D2B21044C07850EA012021689A
:105210004246D2B2895C22684346DBB21A4492F815
:10522000019059EA012959EA0049DFF8C4052168CB
:105230004246D2B2895C02688388D1548188491C75
:10524000818021684246D2B211444978026883883D
:10525000D1548188491C818021684246D2B21144D0
:10526000897802688388D1548188491C81802168AB
:105270004246D2B21144C97802688388D1548188E9
:10528000491C818069464846FFF78AFBDFF86C05B8
:10529000DDED000A90ED010A0078FEF727FE0120FF
:1052A000BDE8F283F8B504000D000026DFF84C05D8
:1052B00090ED010AFFF738FD0100DFF834050A0020
:1052C000120A03688788DA558288521C8280026835
:1052D0008388D1548288521C82800A00120E03688F
:1052E0008788DA558288521C82800A00120C036873
:1052F0008788DA558288521C82800120F2BD2DE910
:10530000F84304000D000026002000900027A84666
:1053100020684146C9B20844817820684246D2B22A
:105320001044C07850EA012021684246D2B2895C1C
:1053300022684346DBB21A4492F8019059EA0129E7
:1053400059EA0049DFF8A80421684246D2B2895CD4
:1053500002688388D1548188491C81802168424633
:10536000D2B21144497802688388D1548188491C9B
:10537000818021684246D2B21144897802688388CC
:10538000D1548188491C818021684246D2B211449F
:10539000C97802688388D1548188491C8180694614
:1053A0004846FFF7FDFADFF85404D0ED020A9DED00
:1053B000000A0078FEF79AFD0120BDE8F28370B57F
:1053C00004000D00DFF83864012220213000FCF7D2
:1053D0003EFF0A2001F0E4FD4FF47A732A0092B2F6
:1053E0002100DFF8200401F02CFE002220213000F3
:1053F000FCF72DFF70BD7CB504000D0008210022D4
:105400006E46300000F020FF0026DFF8E80304704D
:105410004570694602783300DBB2CA54761C407886
:105420003200D2B28854761C3200D2B292B26946AF
:10543000DFF8D40302F022FE73BDDFF8CC0300785E
:10544000C0B2FF280AD0DFF8AC03DFF8C013097838
:105450000170DFF8BC130978417005E0DFF89403B0
:10546000032101700321417070472DE9F04F87B08F
:10547000040000275FF000085FF000090025DFF856
:105480009423D2E90001CDE902010026DFF8882348
:10549000D2E90001CDE90401DFF854A35046FCF73E
:1054A0003FFFA0880828C0F29E812068A188084498
:1054B00010F8010C2168A288114411F8021C51EA6D
:1054C0000021ADF81810A188891E206801F0B8F9F4
:1054D000ADF81A00BDF81A00BDF81810884240F067
:1054E000808120680078C3490978884240F079813A
:1054F000206880782168CF7857EA002720684078B4
:10550000032807D0042805D006286DD0102800F005
:10551000C48062E1206800792168497951EA00215C
:105520000D005FF001084046C0B20F2836DA5FF088
:105530001409DFF8E8B24046C0B209FB00F0584455
:105540004068390089B2884225D1280080B241469E
:10555000C9B209FB01F15944896888421BDB00216B
:1055600000204246D2B209FB02F25A44D268904768
:1055700001280FD14046C0B209FB00F058448068B2
:105580002D1A4046C0B209FB00F90BEB09008068F8
:10559000C71900E002E018F10108C4E7BAF80400F6
:1055A000002820D0BAF80400022190FBF1F201FBA0
:1055B0001200002817D1DAF800000190BAF80400B0
:1055C000022190FBF1F080B200903B009BB220687A
:1055D00042782068017804A801F012FABDF814108E
:1055E0000498FFF7ECFEFAE004200100C9B2A2889B
:1055F000921E91420EDA21680200D2B2895C029AB0
:10560000BDF80C30D154BDF80C10491CADF80C108D
:10561000401CEAE75FF001084046C0B20F2817DAE5
:1056200014227E4B4046C0B25043184440683900B3
:1056300089B2884209D1002102A8C4465FFA8CFCD5
:1056400002FB0CF21A441269904718F10108E3E7D3
:10565000BAF8040000281FD0BAF80400022190FB19
:10566000F1F201FB1200002816D1DAF800000190D7
:10567000BAF80400022190FBF1F080B200903B00E8
:105680009BB206222068017804A801F00AFABDF84E
:1056900014100498FFF793FEA1E000200600206894
:1056A00000792168497951EA00210D0007200100A5
:1056B000C9B2A288921E91420EDA21680200D2B2CB
:1056C000895C029ABDF80C30D154BDF80C10491C0D
:1056D000ADF80C10401CEAE7280080B240002168B9
:1056E000897988424DD1BDF80C002168897989B249
:1056F000884246D15FF001084046C0B20F2840DA28
:105700005FF01409DFF814B14046C0B209FB00F0A5
:1057100058444068390089B288422FD1280080B2AD
:105720004146C9B209FB01F159448968884225DB29
:10573000310089B202A84246D2B209FB02F25A44B1
:1057400012699047012818D14046C0B209FB00F009
:1057500058448068400010FA86F64046C0B209FB03
:1057600000F0584480682D1A4046C0B209FB00F989
:105770000BEB09008068C71900E002E018F101088E
:10578000BAE7BAF80400002826D0BAF804000221CB
:1057900090FBF1F201FB120000281DD120688078F7
:1057A0002168C97851EA00210F00DAF80000019061
:1057B000BAF80400022190FBF1F080B200903B00A7
:1057C0009BB210222068017804A801F06AF9BDF8A4
:1057D00014100498FFF7F3FD01E0002004E001201D
:1057E00002E0002000E0002007B0BDE8F08F0000DC
:1057F000340700207C0C00208C260020E0280020AC
:1058000000040048B4210020000002080200020841
:1058100003000208DCFE0008E4FE0008DC050020AE
:1058200000F10103810704D010F8011B820781B148
:10583000FAD10268A2F10131914311F0803104BF25
:1058400050F8042FF6E709BAB1FA81F100EBD10064
:10585000401CC01A704730B4002513E050F8042BE8
:10586000D30744BFA9F101039A18091F042942F87C
:10587000045BFAD213468C0744BF15809B1CC907F2
:1058800048BF1D7050F8041B0029E7D130BC704799
:10589000C11768B14840401AB0FA80F29040D21C5B
:1058A000C907C2F5846241EA025202EBD0214005E9
:1058B00070470268531C03601170704741EC100B75
:1058C00001BD80B553EC112B51EC100B02F034FFED
:1058D000F4E72E00F0B540F2FF7581EA030C0CF0FE
:1058E000004C15EA11541DBF15EA1357AC42AF42E4
:1058F000E5E0BC41C1F31301C3F31303801A9941DE
:1059000043F4801304D2641E400049418018594179
:10591000C90241EA5051B1FBF3F603FB1611A2FB99
:105920000675D7EBC020A94102D2761E80185941D6
:10593000C90241EA5051B1FBF3FE03FB1E11A2FB69
:105940000E75D7EBC020A94103D2AEF1010E80182D
:105950005941890241EA9051760546EA8E2EB1FB03
:10596000F3F603FB1611A2FB0675D7EB8020A941C5
:1059700002D2761E80185941C90241EA50514EEABE
:10598000060EB1FBF3F603FB1611A2FB0675D7EB6F
:10599000C020A94102D2761E80185941C90241EAAD
:1059A0005051B1FBF3F703FB1711A2FB0735D3EB03
:1059B000C020A94167F100070CBF004247F0010772
:1059C00066F3D5274FEA1E31B80814F5806412DD5E
:1059D000BD0775F1004250EB0E5051EB045111F52B
:1059E000801F5CBF41EA0C01F0BD4CF07F6141F0CB
:1059F000E0410020F0BDBD076D0840EA0E5041F4C3
:105A00008011D4F10104B4F120060ADAC4F12006B1
:105A10000200E04001FA06F3E1401843B2401543AA
:105A20000EE0342C13DCC6F1200445EA40056D0875
:105A300020FA06F2154321FA06F0A1400D43002199
:105A400075F1004250F1000051EB0C01F0BD002057
:105A50005FEA0C01F0BDCFB992185B41B3FA83F74E
:105A600004BFB2FA82F6BF190B3FB7F120062FBF71
:105A700002FA06F3BB40C7F1200622FA06F638BF49
:105A80003343BA401CB1E419641E33E77F4231F05E
:105A90000041B1FA81F404BFB0FA80F6A4190B3CBE
:105AA000B4F120062FBF00FA06F1A140C4F1200690
:105AB00020FA06F638BF3143A0403C1B1AE7AC423F
:105AC0001ABF05EA1357AF4212E050EA41061CBF65
:105AD00052EA4306BFE750EA4107304661461CBF21
