:020000040800F2
:10000000D82A0020B9E400083DDE00083FDE0008E1
:1000100041DE000843DE000845DE00080000000065
:1000200000000000000000000000000047DE0008A3
:1000300049DE0008000000004BDE00084DDE00082D
:10004000A5E70008A9E70008ADE70008B1E7000848
:10005000B5E70008B9E70008BDE70008C1E70008F8
:10006000C5E70008C9E70008CDE70008D1E70008A8
:10007000D5E700085DDE0008D9E7000867DE000864
:10008000DDE70008E1E70008E5E70008E9E7000828
:10009000EDE70008F1E70008F5E70008F9E70008D8
:1000A000FDE7000801E8000805E8000809E8000885
:1000B0000DE80008000000000000000011E8000842
:1000C00015E8000819E800081DE8000821E8000804
:1000D00025E8000871DE000829E800087BDE00083A
:1000E0002DE8000885DE0008000000000000000088
:1000F0000000000000000000000000000000000000
:100100000000000031E800080000000035E80008A9
:10011000000000000000000039E800083DE8000889
:1001200041E8000845E8000849E800084DE80008F3
:1001300051E800080000000000000000000000007E
:1001400055E8000859E800085DE8000861E8000883
:1001500065E800088FDE000899DE000869E80008FD
:100160006DE8000871E8000875E80008000000006C
:1001700079E800087DE8000881E800080000000038
:1001800085E8000889E800088DE8000880B5DFF8F8
:100190009C0A0078012806D0022807D0042808D03D
:1001A000082809D00BE000F08BF808E000F041FCD3
:1001B00005E000F043FD02E000F052FEFFE701BD64
:1001C0002DE9F8430024DFF8645A287A002873D117
:1001D0002021DFF85C0A01F0EBF9002801D10126AB
:1001E00000E00026DFF84C7A0421380001F0E0F945
:1001F000002802D15FF0010801E05FF00008022151
:10020000380001F0D5F9002802D15FF0010901E0C2
:100210005FF000090121380001F0CAF9002801D17E
:10022000012000E0002056EA480656EA890634001C
:1002300054EAC0042000C0B2012805D0022803D02F
:10024000042801D008282DD16868401C68606868BF
:10025000502826D32C7001202872DFF8DC092100F9
:100260000278C9B2914215D1DFF8D81B0A68521C36
:100270000A600A68322A04D350226A6032220A6075
:100280000EE00968322902D34E21696008E000219E
:10029000696005E0002169600021DFF8A82B11608A
:1002A000047009E00020DFF89019087028206860C9
:1002B0000020DFF8901B08602878BDE8F28300007A
:1002C0007FB5DFF8844BA078002810D0012832D009
:1002D000022861D0032800F0C180042800F0448186
:1002E000052800F0F681072800F00183A0E3DFF87D
:1002F0003C590020E860DFF8546B0A2200213000EE
:1003000001F0DCF930203070302070703020B07097
:100310003020F070E8680001801CC0B203900296A3
:100320000620019005200090062300220121A01C38
:1003300001F02FFF7CE3DFF8F408C168491CC160BD
:10034000C16804291EDBDFF8040B01F03DFF012822
:1003500015D1A51C0622290014F1080001F0FCF9B2
:10036000F1200390002002900B20019008200090C3
:10037000082300220221280001F00BFF0BE00020DF
:10038000A07008E0C0680001801C0200D2B2002109
:10039000A01C01F0DBFE4BE32079082806D05CD3DB
:1003A0000A282FD018D30B2842D056E0A51C0622CD
:1003B000290014F1080001F0CFF9F120039000208A
:1003C00002900E2001900D2000900D2300220321A9
:1003D000280001F0DEFE40E0A51C0622290014F1F1
:1003E000080001F0B9F9F1200390002002901220DA
:1003F000019011200090112300220421280001F017
:10040000C8FE2AE0A51C0622290014F1080001F00C
:10041000A3F9F120039000200290172001901420EE
:100420000090142300220521280001F0B2FE14E000
:10043000A51C0622290014F1080001F08DF9002006
:100440000390002002901A2001901A2000901A2395
:1004500000220621280001F09CFEE9E220790D2807
:1004600002D00E2840D07EE0E078002802D001289B
:100470001FD038E0A61C0622310014F1080001F05C
:100480006BF9DFF8A857F220039015F10C000290E9
:100490000E2001900D2000900D23E278521CD2B264
:1004A0000321300001F075FEDFF8A4094078E86010
:1004B00019E0A51C0622290014F1080001F04CF9EE
:1004C000F0200390002002901D2001901D2000903C
:1004D0001D2300220721280001F05BFE0120DFF828
:1004E00070190870FFE73EE0E078002802D001288C
:1004F0001FD038E0A61C0622310014F1080001F0DC
:100500002BF9DFF82857F220039015F10C00029028
:100510000E2001900E2000900E23E278521CD2B2E1
:100520000321300001F035FEDFF824094068E8605F
:1005300019E0A51C0622290014F1080001F00CF9AD
:10054000F0200390002002901D2001901D200090BB
:100550001D2300220721280001F01BFE0120DFF8E7
:10056000F0180870FFE763E22079112802D0122802
:1005700045D0ADE0E078002802D001281FD03DE052
:10058000A61C0622310014F1080001F0E5F8DFF89E
:100590009C56F220039015F10C000290122001905D
:1005A000112000901123E278521CD2B204213000B5
:1005B00001F0EFFDDFF89808806BE8601EE0A51CF5
:1005C0000622290014F1080001F0C6F8F02003907B
:1005D000002002901D2001901D2000901D2300226C
:1005E0000721280001F0D5FDDFF868185FF07E5084
:1005F00008600422022002F0B6FAFFE768E0E07823
:10060000002802D001281FD061E0A61C062231007C
:1006100014F1080001F0A0F8DFF81056F220039062
:1006200015F10C000290122001901120009012236D
:10063000E278521CD2B20421300001F0AAFDDFF8AA
:100640001008C06BE86042E0A51C0622290014F1E6
:10065000080001F081F8F0200390002002901D2096
:1006600001901D2000901D2300220721280001F089
:1006700090FDDFF8E0475FF07E502060DFF8D8574C
:100680000021DFF8CC07C06B03F0AAF885ED000A63
:10069000DFF8C8670021DFF89405C06803F0A0F810
:1006A00086ED000A95ED000AB5EE400AF1EE10FA6B
:1006B00007D096ED000AD5ED000A80EE200A84ED01
:1006C000000A04222100032002F04DFAFFE7FFE7B1
:1006D000AEE12079142809D0C0F00881162800F076
:1006E000858043D3172800F0C180FFE0E078002820
:1006F00002D001281FD038E0A61C0622310014F1D8
:10070000080001F029F8DFF82455F220039015F1D4
:100710000C00029017200190142000901423E2781E
:10072000521CD2B20521300001F033FDDFF8200762
:10073000806AE86019E0A51C0622290014F108006F
:1007400001F00AF8F0200390002002901D20019093
:100750001D2000901D2300220721280001F019FD13
:100760000120DFF8EC160870FFE7BFE0E078002812
:1007700002D001281FD038E0A61C0622310014F157
:10078000080000F0E9FFDFF8A454F220039015F10F
:100790000C00029017200190142000901523E2789D
:1007A000521CD2B20521300001F0F3FCDFF8A006A4
:1007B000C06AE86019E0A51C0622290014F10800AF
:1007C00000F0CAFFF0200390002002901D2001904D
:1007D0001D2000901D2300220721280001F0D9FCD4
:1007E0000120DFF86C160870FFE77FE0E078002852
:1007F00002D001281FD038E0A61C0622310014F1D7
:10080000080000F0A9FFDFF82454F220039015F14E
:100810000C00029017200190142000901623E2781B
:10082000521CD2B20521300001F0B3FCDFF82006E3
:10083000006BE86019E0A51C0622290014F10800ED
:1008400000F08AFFF0200390002002901D2001900C
:100850001D2000901D2300220721280001F099FC93
:100860000120DFF8EC150870FFE73FE0E078002892
:1008700002D001281FD038E0A61C0622310014F156
:10088000080000F069FFDFF8A453F220039015F18F
:100890000C00029017200190142000901723E2789A
:1008A000521CD2B20521300001F073FCDFF8A00524
:1008B000406BE86019E0A51C0622290014F108002D
:1008C00000F04AFFF0200390002002901D200190CC
:1008D0001D2000901D2300220721280001F059FC53
:1008E0000120DFF86C150870FFE7FFE7A0E0207A31
:1008F000032806D0C0F09B80052837D0C0F0948034
:1009000095E00320DFF848150870322001F03CF92B
:10091000A07A0D2802D00E280AD026E0DFF8300990
:100920004178DFF80803C068C0B203F0CDF91CE0DD
:1009300000200100C9B20B2910DADFF818190200F3
:10094000D2B251F82210DFF8E422D268914203D1EA
:10095000DFF8FC18487001E0401CEAE7DFF8F00817
:100960004178007803F0B0F9FFE760E00320DFF89A
:10097000E0140870322001F007F9A07A142806D09C
:1009800051D3162827D012D3172838D04BE0DFF8E0
:10099000C808D0ED0C1A90ED0A1AD0ED0B0AA34846
:1009A00090ED030AB8EEC00A02F06EF93BE0DFF802
:1009B000A808D0ED0C1A90ED0A1A9C4991ED030A93
:1009C000B8EEC00ADFED980AC0EE200A90ED090AE1
:1009D00002F05AF927E0DFF88008D0ED0C1A9349AD
:1009E00091ED030AB8EEC00ADFED8F0A80EE201AFF
:1009F000D0ED0B0A90ED090A02F046F913E0DFF89A
:100A000058088A4991ED030AB8EEC00ADFED860A5C
:100A1000C0EE201A90ED0A1AD0ED0B0A90ED090AEB
:100A200002F032F9FFE702E002F08DF8FFE7FFE79E
:100A30007FBD10B5DFF810349878002809D002285F
:100A400018D007D304286ED021D3052800F09C804D
:100A5000E9E0E8E0DFF8F4037449CA68825C521CFC
:100A6000CB68C254CA68825C3A2A02DB3022C96869
:100A70004254D8E058791979884202D21879401E38
:100A80001871F1220021981C01F060FBCBE0D878AE
:100A900000280CD158791979884202D21879401E61
:100AA0001871F1220021981C01F050FB3AE01879EE
:100AB0000D2802D00E2811D034E0D878002802D0BA
:100AC000012801D009E008E05848C168B1F5807FED
:100AD00002DAC168491CC160FFE723E0D87800282A
:100AE00002D0012801D01DE01CE000210800C0B2A6
:100AF0000B2816DADFF85C274C480B00DBB252F803
:100B00002330C468A3420AD10B00DBB20A2B06DAF9
:100B10000B00DBB202EB83025268C26001E0491CA9
:100B2000E4E7FFE77FE0D87800280CD158791979FD
:100B3000884202D21879401E1871F1220021981CB7
:100B400001F004FB1FE01879112802D012280DD003
:100B500019E0D878002802D0012801D005E004E08F
:100B60004FF47A703149C860FFE70CE0D87800286C
:100B700002D0012801D005E004E02C48C168491CDE
:100B8000C160FFE7FFE74EE0D87800280CD1587924
:100B90001979884202D21879401E1871F122002179
:100BA000981C01F0D3FA3DE01879142806D039D307
:100BB00016281DD00FD3172827D033E0D878002867
:100BC00002D0012801D005E004E01848C168491CA2
:100BD000C160FFE726E0D878002802D0012801D0C4
:100BE00005E004E01148C168491CC160FFE719E055
:100BF000D878002802D0012801D005E004E00B4895
:100C0000C168491CC160FFE70CE0D878002802D019
:100C1000012801D005E004E00448C168491CC16016
:100C2000FFE7FFE7FFE710BD0000C842F025002006
:100C30000008004800040048C026002010B5824B80
:100C40009878002809D0022818D007D3042870D03B
:100C500021D3052800F0A280F3E0F2E07B48DFF822
:100C6000FC15CA68825C521ECB68C254CA68825C9A
:100C7000302A02DA3922C9684254E2E018799979B7
:100C8000884202D21879401C1871F1220021981C68
:100C900001F05CFAD5E0D87800280CD11879997960
:100CA000884202D21879401C1871F1220021981C48
:100CB00001F04CFA3CE018790D2802D00E2811D032
:100CC00036E0D878002802D0012801D009E008E0F9
:100CD000DFF88805C168012902DBC168491EC160CF
:100CE000FFE725E0D878002802D0012801D01FE0D6
:100CF0001EE00A221000C0B2002818D0DFF85435D8
:100D0000DFF858151000C0B253F82000CC68A0429C
:100D10000BD11000C0B2002807D01000C0B203EB06
:100D2000800050F8040CC86001E0521EE2E7FFE7C3
:100D300087E0D87800280CD118799979884202D2B6
:100D40001879401C1871F1220021981C01F0FEF95D
:100D500023E01879112802D012280ED01DE0D8788F
:100D6000002802D0012801D006E005E04FF47A7097
:100D7000DFF8E814C860FFE70FE0D878002802D059
:100D8000012801D009E008E0DFF8D004C16801299A
:100D900002DBC168491EC160FFE752E0D878002835
:100DA0000CD118799979884202D21879401C1871AF
:100DB000F1220021981C01F0C9F941E018791428AA
:100DC00006D03DD316281FD010D317282AD037E0DD
:100DD000D878002802D0012801D006E005E0DFF82D
:100DE0007C04C168491EC160FFE729E0D87800286B
:100DF00002D0012801D006E005E0DFF86004C168F8
:100E0000491EC160FFE71BE0D878002802D0012806
:100E100001D006E005E0DFF84404C168491EC16066
:100E2000FFE70DE0D878002802D0012801D006E0C5
:100E300005E0DFF82804C168491EC160FFE7FFE74D
:100E4000FFE710BD6C26002038260020000000209F
:100E5000F42400207026002074260020782600202C
:100E600038B584B0DFF8F843A07800280FD0022806
:100E700011D00DD3042800F083800FD3062800F092
:100E8000D181C0F0EE80072800F0D381DEE1DDE102
:100E90000020A070DAE10020A070D7E120790D28B1
:100EA00002D00E2836D06AE0E078002802D001286F
:100EB00016D02EE0A51CF1200390002002900B20FC
:100EC000019008200090082300220221280001F050
:100ED00060F90622290014F1080000F03DFC18E03A
:100EE000A51C0622290014F1080000F035FCF120B1
:100EF0000390DFF8700302900E2001900D20009007
:100F00000D23E078421ED2B20321280001F041F9FE
:100F1000FFE734E0E078002802D0012816D02DE069
:100F2000A51CF1200390002002900B2001900820C6
:100F30000090082300220221280001F02AF906224D
:100F4000290014F1080000F007FC17E0A51C062298
:100F5000290014F1080000F0FFFBF1200390C248C3
:100F600002900E2001900D2000900E23E078421E8A
:100F7000D2B20321280001F00CF9FFE7FFE765E199
:100F80002079112802D0122835D069E0E0780028B5
:100F900002D0012816D02DE0A51CF12003900020DE
:100FA00002900B20019008200090092300220221CA
:100FB000280001F0EEF80622290014F1080000F0E4
:100FC000CBFB17E0A51C0622290014F1080000F055
:100FD000C3FBF1200390A54802901220019011203C
:100FE00000901123E078421ED2B20421280001F0C3
:100FF000D0F8FFE734E0E078002802D0012816D0CE
:101000002DE0A51CF1200390002002900B20019000
:1010100008200090092300220221280001F0B9F8DD
:101020000622290014F1080000F096FB17E0A51C29
:101030000622290014F1080000F08EFBF120039035
:101040008B48029012200190112000901223E0782A
:10105000421ED2B20421280001F09BF8FFE7FFE70F
:10106000F4E02079142808D0C0F0DB8016286ED078
:1010700038D3172800F0A080D3E0E078002802D011
:10108000012816D02DE0A51CF1200390002002902D
:101090000B200190082000900A2300220221280042
:1010A00001F077F80622290014F1080000F054FB43
:1010B00017E0A51C0622290014F1080000F04CFBE3
:1010C000F12003906B4802901720019014200090AB
:1010D0001423E078421ED2B20521280001F059F80D
:1010E000FFE79EE0E078002802D0012816D02DE02E
:1010F000A51CF1200390002002900B2001900820F5
:1011000000900A2300220221280001F042F8062262
:10111000290014F1080000F01FFB17E0A51C0622AF
:10112000290014F1080000F017FBF1200390524849
:10113000029017200190142000901523E078421EA1
:10114000D2B20521280001F024F8FFE769E0E07839
:10115000002802D0012816D02DE0A51CF120039014
:10116000002002900B200190082000900A2300220A
:101170000221280001F00DF80622290014F10800D0
:1011800000F0EAFA17E0A51C0622290014F1080075
:1011900000F0E2FAF1200390384802901720019005
:1011A000142000901623E078421ED2B205212800B8
:1011B00000F0EFFFFFE734E0E078002802D00128DC
:1011C00016D02DE0A51CF1200390002002900B20EA
:1011D0000190082000900A2300220221280000F03C
:1011E000D8FF0622290014F1080000F0B5FA17E034
:1011F000A51C0622290014F1080000F0ADFAF12028
:1012000003901F480290172001901420009017238C
:10121000E078421ED2B20521280000F0BAFFFFE7B5
:10122000FFE713E0062214F10801A01C00F094FA75
:101230000CE0144D2878022807D0062214F108018A
:10124000A01C00F089FA00202870FFE705B030BD2F
:10125000680A0020F4040020AC240020F0250020BF
:1012600038260020F5240020F82400202C2500201A
:10127000302500201C2500202025002024250020CA
:1012800028250020F4240020F8B403000025086875
:10129000E840002800F0D78001260F6816FA05F014
:1012A00007403A00002A00F0CC80087910F00300D3
:1012B000012804D0087910F0030002281DD19F688E
:1012C0005FF0030C2800C0B240001CFA00FC37EAB3
:1012D0000C07D1F80CC02800C0B240001CFA00FC7A
:1012E0005CEA07079F605868AE40B0434E68C6F39B
:1012F0000016AE40304304005C60087910F0030033
:1013000003280ED0DE6803272800C0B240008740C3
:10131000BE438F682800C0B2400087403E4334007F
:10132000DC60087910F00300022818D12800C008FA
:1013300003EB8000066A0F2715F00700C0B280009B
:101340008740BE430F6915F00700C0B28000874098
:101350003E4334002800C00803EB800004621E688E
:1013600003272800C0B240008740BE430F7917F022
:1013700003072800C0B2400087403E4334001C6091
:10138000486810F4403F5CD09548066856F0010666
:101390000660006810F0010000900098914F28004E
:1013A000800857F820605FF00F0C15F00300C0B202
:1013B00080001CFA00FC36EA0C06B3F1904F01D114
:1013C000002414E08848834201D101240FE08748BB
:1013D000834201D102240AE08548834201D10324DB
:1013E00005E08448834201D1042400E0072415F07D
:1013F0000300C0B28000844026432800800847F8DC
:1014000020607D4C206890434F68FF0200D5104358
:1014100020607A4E346894434F68BF0200D514436D
:101420003460774E306890434F68BF0300D5104357
:101430003060744E346894434F68FF0300D5144302
:1014400034606D1C23E7F1BC70472DE9F0410300C7
:1014500000250800E840002800F0A880012616FAC0
:1014600005F008400200002A00F09E80DFF874C1F9
:10147000280080085CF820000F2715F0030E5FFAA3
:101480008EFE5FEA8E0E17FA0EFE1EEA00000400C2
:10149000B3F1904F02D15FF0000E19E05248834241
:1014A00002D15FF0010E13E05048834202D15FF099
:1014B000020E0DE04E48834202D15FF0030E07E0BA
:1014C0004C48834202D15FF0040E01E05FF0070E4A
:1014D00015F00300C0B280001EFA00FE74452CD146
:1014E0004848D0F800E03EEA020EC0F800E0444868
:1014F000D0F800E03EEA020EC0F800E03F48D0F825
:1015000000E03EEA020EC0F800E03B48D0F800E000
:101510003EEA020EC0F800E015F00300C0B2800001
:1015200017FA00F00400280080085CF82000A043AF
:10153000AE465FEA9E0E4CF82E005FF0030C186872
:10154000AE465FFA8EFE5FEA4E0E1CFA0EFE5EEAB3
:10155000000018602800C00803EB800E2800C008B7
:1015600003EB8000D0F8208015F00700C0B28000A7
:10157000874038EA0707CEF8207098682F00FFB23E
:101580007F001CFA07F7B84398605868AE4030EA0D
:1015900006065E60DE682800C0B240001CFA00FC4F
:1015A00036EA0C0CC3F80CC06D1C52E7BDE8F081A4
:1015B000020010690B009BB2184201D0012000E02C
:1015C0000020C0B270471300DBB2002B03D00B0029
:1015D0009BB2836102E00B009BB283627047000004
:1015E0006010024008000140000400480008004864
:1015F000000C004800100048080401400C040140A1
:10160000040401400004014038B504000D00DFF877
:10161000FC010168200000F006F8A84201D3012077
:1016200000E0002032BD814204D25FF0FF32101A88
:10163000081800E0081A704738B52DED048B08EE45
:10164000100A0C001500DFED438A2800C0B2FB2809
:1016500010DBB8EEC89A2800C0B24042C0B200F019
:101660008BF829EE009A00212000B0EE490A00F024
:10167000B1F80EE0B8EEC89A2800C0B200F07CF8CD
:1016800089EE009A2900C9B22000B0EE490A00F0A4
:10169000A1F8BDEC048B31BD10B400210A00838891
:1016A00092B29A4206D2002203680C00A4B21A55E4
:1016B000491CF3E70022828010BC704710B404007C
:1016C00013005A1E9BB2002B02D02170641CF7E756
:1016D00010BC704770B504000D001600DFF824013F
:1016E00000782100C9B2884209D3DFF824211068AC
:1016F000002804D0310089B228001268904770BDDC
:1017000038B504000D00280002F0EEFC020092B291
:1017100029002000C0B2FFF7DDFF31BD70B5040025
:101720000D00280002F0E0FC020092B22900200027
:10173000C0B2FFF7CFFFDFF8DC603068002807D0C9
:10174000280002F0D1FC010089B2280032689047DD
:1017500070BD00000000000030B404000D00130054
:101760005A1E9BB2002B04D02B7823706D1C641C76
:10177000F5E730BC7047000010B504002000C0B28F
:10178000FB2816DB2000C0B2D0F5807002F0E4FC2C
:1017900041EC110B9FED200B02F0F7FC53EC102BEA
:1017A0000020194902F0FAFC02F01CFE00EE100ABB
:1017B0000FE02000C0B202F049FE41EC110B9FED9A
:1017C000160B02F0E2FC51EC100B02F00BFE00EEE7
:1017D000100A10BD38B52DED028B82B0B0EE408AF4
:1017E00004000D0018EE100A02F03EFECDE90001E3
:1017F0002A000B49200002F05BFE02B0BDEC028B18
:1018000031BD00006C0A00200000F03FA42600203B
:10181000AC260020A8260020000000000000244084
:1018200090E7000880B500224FF40071DFF8900ABD
:10183000FFF7C9FE00224FF400715FF09040FFF700
:10184000C2FE02F055FEDFF87C0ADFF87C1A4A1C63
:10185000C0F840210A1DC0F8582111F11802026297
:1018600011F12003836311F124030365C0F888217B
:1018700011F13802C0F8A02111F13C02C0F8B821E2
:1018800011F12802C0F8E82111F12C02C0F8002261
:1018900011F13002C0F818223431C0F83012DFF8EC
:1018A0002C1A0968C0F87812DFF8241A0968C0F801
:1018B000A81201BD38B5002000242000C0B20728BE
:1018C00035DADFF8105A2000C0B200012844407811
:1018D00001282AD12000C0B2000128444068002815
:1018E0000ED002F055FE2100C9B209012944496811
:1018F000401A2100C9B2090129448968884214D3D9
:1019000000202100C9B209012944487002F040FEBC
:101910002100C9B20901294448602000C0B2210059
:10192000C9B209012944C9688847641CC5E7002079
:1019300032BD38B50400DFF8A059687800281FD1FF
:1019400000224FF40071DFF87809FFF73CFE002217
:101950004FF400715FF09040FFF735FE02F0C8FDD4
:1019600089200090202307220521DFF8700902F06A
:1019700015FE012068700221DFF8580902F056FFB9
:10198000012032BD7CB50400DFF8545928780028C6
:1019900003D0022823D003D33DE002F071FF3AE0E8
:1019A00002F0D0FF89200090202307220521DFF8D4
:1019B0002C0902F0F3FDDFF82C2903212C2002F082
:1019C00007FFDFF824290421082002F001FF03F0BB
:1019D00028F841F28830DFF8FC1888611BE001200C
:1019E000DFF8F41848708920009020230722052191
:1019F000DFF8E80802F0D2FDDFF8D86802213000F5
:101A000002F014FF0321300002F010FF0421300027
:101A100002F00CFFFFE72878401C28702100C9B2B3
:101A2000DFF8B00802F011FF012076BD70B50400A8
:101A300000F0BCF8DFF8A0586878012803D1A87836
:101A400000F05BFB04E00021DFF8880802F0EEFE06
:101A5000DFF89808A9780278914207D0A978017038
:101A6000DFF88C080068DFF88C180860A878082870
:101A700012D1DFF880684FF4FA613068FFF7C4FDD7
:101A8000012809D1DFF8680800683060062215F1E6
:101A90000801A81CFFF760FE2100C9B2DFF8340876
:101AA00002F0D3FE012070BD10B50400DFF8481825
:101AB000DFF848080069FFF7A7FD012827D1DFF804
:101AC00040080178012905D1002101700020DFF8CC
:101AD00008188870DFF82C080188491C018042F240
:101AE0001071DFF8F0272300DBB21B011A44926863
:101AF000B1FBF2F102888A420DD300210180DFF8A8
:101B0000D8178878002806D00020887003E00120CC
:101B1000DFF8EC1708702100C9B2DFF8B80702F04F
:101B200094FE012010BD38B50400FEF749FBDFF834
:101B3000CC57287A012808D10521DFF8980702F050
:101B400075FEDFF8AC07006828612100C9B2DFF834
:101B5000840702F07AFE012032BD10B50400FEF7C2
:101B600015FBDFF8980700210170002101720120A8
:101B700010BD10B5040000224FF40051DFF84007FB
:101B8000FFF721FD012010BD10B5040001224FF424
:101B90000051DFF82C07FFF716FDDFF838072100AA
:101BA00089B28166062102F050FE10BDDFF81807E9
:101BB000DFF854170A784270DFF85027497852F856
:101BC00021104160DFF8481791ED010ABDEEC00A0F
:101BD00080ED020A9FED330AD1ED030A60EE800A20
:101BE000FDEEE00AC0ED030AD1ED020A60EE800AC4
:101BF000FDEEE00AC0ED040AD1ED040A60EE800AB1
:101C0000FDEEE00AC0ED050AD1ED050AFDEEE00AA1
:101C1000C0ED060AD1ED070A60EE800AFDEEE00A8B
:101C2000C0ED070AD1ED060A60EE800AFDEEE00A7B
:101C3000C0ED080AD1ED080A60EE800AFDEEE00A68
:101C4000C0ED090AD1ED090AFDEEE00AC0ED0A0A6D
:101C5000D1ED0B0A60EE800AFDEEE00AC0ED0B0A42
:101C6000D1ED0A0A60EE800AFDEEE00AC0ED0C0A32
:101C7000D1ED0C0A20EE800ABDEEC00A80ED0D0AFF
:101C800091ED0D0ADFED080A20EE200ABDEEC00A34
:101C900080ED0E0A91ED0E0ABDEEC00A80ED0F0A2E
:101CA000704700000000C84200007A442DE9F84F58
:101CB0008AB006002021002202AC200002F00AFFB8
:101CC0000024002500208DF8050000208DF8060076
:101CD0001827DFF8F0853000C0B27843404490F810
:101CE00015903000C0B2784340444068002842D08C
:101CF00001213000C0B200F0A9F900280ED1300057
:101D0000C0B27843404442683000C0B27843404497
:101D1000017D4846C0B202F05BFD1EE05FF0000AA4
:101D20003000C0B278434044406802F0DDF95146CB
:101D3000C9B2814207D2202002A95246D2B28854A9
:101D40001AF1010AECE702AA3000C0B2784340441D
:101D5000017D4846C0B202F03BFD3000C0B278437E
:101D60004044406802F0C0F9DFF8A8150979491C21
:101D7000484310FA89F93000C0B278434044806883
:101D8000002800F03A813000C0B278434044007B24
:101D900000280BD002281ED012D3042830D024D320
:101DA000062845D036D307283ED044E03000C0B2E4
:101DB0007843404480680078002104000D003AE038
:101DC0003000C0B278434044806890F90000C117E9
:101DD00004000D002FE03000C0B27843404480681A
:101DE0000088002104000D0025E03000C0B27843D7
:101DF00040448068B0F90000C11704000D001AE0EB
:101E00003000C0B27843404480680068002104007C
:101E10000D0010E03000C0B2784340448068006894
:101E2000C11704000D0006E001208DF8050002E056
:101E300002208DF805009DF8050000280CD1300027
:101E4000C0B278434044407B40420200D2B202A973
:101E50002000FFF7F1FB26E09DF8050001281AD1CC
:101E60003000C0B278434044806802F03DF9202839
:101E700019D23000C0B278434044806802F034F98F
:101E8000020092B23000C0B278434044816802A898
:101E9000FFF762FC07E03000C0B27843404480683E
:101EA00000788DF8080002213000C0B200F0CEF8B2
:101EB000012823D13000C0B278434044807DC0B2B5
:101EC00000098DF806009DF806000F2805D0202097
:101ED00002A99DF80620885410E05FF0000A02A8CD
:101EE00002F002F95146C9B2814207D2202002A96C
:101EF0005246D2B288541AF1010AF0E73000C0B25B
:101F000001285ED15FF0000A00208DF80400300047
:101F1000C0B278434044407B002802D009208DF8AD
:101F20000400392000902E2315220F21DFF8E8034A
:101F300002F004FE02A802F0D7F88346DFF8D403CB
:101F40000079401C00FB0BFB5846C0B2022190FBFD
:101F5000F1F01F280BDA5846C0B2022190FBF1F0D5
:101F6000D0F140009DF8041050FA81FA07E058467D
:101F7000C0B2D0F15F009DF8041050FA81FA02AAB5
:101F80003000C0B278434044007D401CC0B2DFF84E
:101F900084134979D1EBC001491EC9B25046C0B281
:101FA00002F076FF5AFA8BF09DF80490B0EB090925
:101FB00089200090202307220521C84802F0EEFA6C
:101FC0001BE089200090202307220521C34802F04E
:101FD000E5FA02AA3000C0B278434044017D484689
:101FE000C0B202F0F5FB02A802F07EF8C9490979F7
:101FF000491C484310FA89F081463000C0B278434A
:102000004044006900281ED03000C0B278434044EC
:102010008068002817D03000C0B278434044806800
:10202000BE4988420FD03000C0B2784340440269B4
:102030003000C0B207FB00F708EB0700017D4846FF
:10204000C0B202F0C5FB0BB0BDE8F08FF8B50400DC
:102050000D009C492200D2B21820424301EB02003D
:10206000817D2800C0B201402800C0B2814230D139
:102070007C26AB4F4FF496712800C0B270433844B1
:102080002200D2B250F82200FFF7BEFA01282BD16D
:102090002800C0B206FB00F607EB06002100C9B21B
:1020A000934A126840F821209E492A00D2B21F208C
:1020B00042430A442300DBB22E00F6B21F204643FF
:1020C00001EB06002100C9B2405CD0F10100D05400
:1020D0000AE094492A00D2B21F20424301EB0200D9
:1020E0002100C9B2002242548E49EDB21F2045435F
:1020F00001EB0500E4B2005DF2BD70B504000026FE
:1021000002F020FC00F077F82000C0B200F07DF86B
:102110002000C0B200F0A1F80025280080B21F28DE
:1021200011DA68492A0092B21820424301EB0200FA
:10213000C07D2100C9B2884203D12800C0B2FFF798
:10214000B5FD6D1CE9E702F06CFC70BDF0B44271A6
:10215000C47803792500EDB2AB420AD3F025594E7D
:102160002700FFB218235F4306EB07039D75641C2D
:10217000EFE71823534C85785D4325444679AE75C7
:10218000002904D0857803FB05F323449960F0BC53
:1021900070472DE9F84F0700884691469A460A9EF7
:1021A0000B9DDDF830B00D9C87F8008087F801901A
:1021B00087F802A0FE703D712200D2B25946380065
:1021C000FFF7C4FFBDE8F18F10B40100002210003A
:1021D000C0B204280CD21000C0B2085C524B1400EC
:1021E000E4B21B5D984201D0002002E0521CEEE7F1
:1021F000012010BC704780B50120009008237F2289
:102200000821002002F0C8FE01BD70B504002000C6
:10221000C0B2002820D13E48007800280ED1294DB8
:1022200025A6320095F84410782002F0D1FA320049
:1022300095F85C10782002F0CBFA0DE01FA6214D36
:10224000320095F84410782002F0C2FA320095F876
:102250005C10782002F0BCFA70BD0100C9B20729F9
:1022600024D119490978002906D002290ED008D3B3
:10227000042915D00FD318E02C49124AC2F8C01215
:1022800018E02B490F4AC2F8C01213E029490D4A41
:10229000C2F8C0120EE028490A4AC2F8C01209E08A
:1022A0002649084AC2F8C01204E003E01F49054A63
:1022B000C2F8C01270470000200000004E0000006D
:1022C00000080048D8000020F42400205804002012
:1022D0007C0000200C0000203826002028DC0008AC
:1022E000C126002038E500089CE10008C226002035
:1022F000A426002088260020C0270900F025002001
:10230000C3260020B4260020680A0020F404002020
:10231000AC2400204826002000DA00086A0A0020C9
:10232000201D00207423002084000020880000204D
:1023300098000020A8000020B8000020C80000205D
:1023400010B504000121DFF8BC0C02F07EFA012078
:1023500010BD30B587B004001421002202AD280062
:1023600002F0B8FBDFF8980BD0E90023CDE9002399
:1023700002A80090DFF88C5B2978684600F0ACFA80
:1023800028786870BDF80410009800F05BFCDFF856
:10239000780B8078042809D12878002803D1287880
:1023A000401C287001E00020287001E00020287007
:1023B000DFF8505C0221280002F038FA03212800DF
:1023C00002F043FA2100C9B2280002F03EFA0120CF
:1023D00007B030BD10B50400DFF8301B8888002836
:1023E00010D0DFF82C0B02888B889A4208D100218C
:1023F00001800221DFF80C0C02F018FA012008E03D
:10240000898801802100C9B2DFF8F80B02F01DFABB
:10241000012010BD2DE9F041040000250026DFF861
:10242000EC7AB88803283DDB3868B988084410F88E
:10243000010C3968BA88114411F8021C51EA0021D4
:102440000E00B988891E386802F040FE0500280099
:10245000310080B289B288421DD10821DFF8A40B77
:1024600002F0F3F93868007801280DD1DFF8948A7A
:10247000012198F8010000F048FA98F80120D7E906
:10248000000100F032FA13E00021DFF8780A40780A
:1024900000F03BFA0CE00021DFF8680A407800F019
:1024A00034FA05E00021DFF85C0A407800F02DFAEC
:1024B000DFF8500A407800F093F80221DFF8440B6F
:1024C00002F0D5F90120BDE8F0810100DFF8940C9D
:1024D0000278032A01D0042202700120704710B54F
:1024E00004002100C9B2DFF81C0B02F0AEF9012094
:1024F00010BD10B504002100C9B2DFF8080B02F0CE
:10250000A4F9012010BD38B50400DFF8FC5A287882
:1025100000280DD101220121DFF8F00AFFF753F85E
:102520000520DFF8E01A88672878401C28700BE047
:1025300000220121DFF8D40AFFF745F8FA20DFF87E
:10254000C41A8867002028702100C9B2DFF8B40AD5
:1025500002F07BF9012032BD38B50400DFF8101B12
:102560000878002820D101200870DFF8085B0122DC
:1025700010212800FFF727F8002208212800FFF784
:1025800022F800220421DFF8F00AFFF71CF84FF4CC
:10259000FA60DFF8701AC1F8880002F079FF03F0E2
:1025A00022F903F011F913E000200870012208213C
:1025B000DFF8C00AFFF707F801220421DFF8B80AA4
:1025C000FFF701F84EF66020DFF8381AC1F88800EE
:1025D0002100C9B2DFF82C0A02F037F9012032BD20
:1025E00038B52DED028B04009FEDB68A2000C0B2F5
:1025F000002840F07F80DFF8985C95ED010ABDEE81
:10260000C00A10EE100A00F0F3F885ED010A95ED0E
:10261000010A00F05DF985ED050A95ED030A00F069
:1026200058F985ED070A95ED020A00F053F985ED9A
:10263000060A95ED040A00F04EF985ED080A95EDBD
:10264000080AD5ED0C0A30EE200A85ED080A95ED52
:10265000050AD5ED090A30EE200A9FED9B1AB4EE6B
:10266000410AF1EE10FA02DBDFED980A09E0B5EE5F
:10267000400AF1EE10FA02D5DFED920A01E0F0EE29
:10268000400AC5ED050AD5ED070AD5ED0B1A70EE27
:10269000A10AF4EE410AF1EE10FA02DB9FED8B0A7B
:1026A00009E0F5EE400AF1EE10FA02D59FED850A39
:1026B00001E0B0EE600A85ED070A95ED060A95ED9A
:1026C0000A1A30EE018A9FEDBA0AB4EE408AF1EEA2
:1026D00010FA02DB9FEDB70A09E0B5EE408AF1EE91
:1026E00010FA02D59FED770A01E0B0EE480A85EDB9
:1026F000060AFFE7DFF8985B2878002807D100205A
:10270000686095ED010A00F0E3F885ED050A287888
:10271000002807D10020E86095ED030A00F0D9F801
:1027200085ED070A2878002807D10020A86095EDDC
:10273000020A00F0CFF885ED060A2878002807D1B4
:102740000020286195ED040A00F0C5F885ED080A1F
:10275000BDEC028B31BD2DE9F04100242500EDB226
:102760000A2D43DA00252E00F6B2092E3CDA2E009F
:10277000F6B201EB860676682F00FFB251F827709B
:10278000BE422FDA00262F00FFB251F82770AC4668
:102790005FFA8CFC01EB8C0CDCF804C0AE465FFAEF
:1027A0008EFE41F82EC0AC465FFA8CFC01EB8C0C1F
:1027B000CCF80470AC465FFA8CFC50F82CC0AE46E6
:1027C0005FFA8EFE00EB8E0EDEF804E0A8465FFA9C
:1027D00088F840F828E0AE465FFA8EFE00EB8E0ED9
:1027E000CEF804C06D1CBEE7641CB7E7BDE8F081FD
:1027F00038B52DED028B04009FED328ADFF8501AB8
:10280000087800282AD10120087000210800C0B2F1
:102810000A2815DA0800C0B2DFF8082B0B00DBB27B
:1028200042F82300DFF8702A0800C0B252F82000F6
:10283000002803D10800C0B242F82040491CE5E757
:10284000DFF8545A092300222900DFF8D80AFFF7DD
:1028500082FF95ED050AB8EEC00A30E000200100C5
:10286000C9B20A291EDADFF8BC1A0200D2B251F846
:102870002220092A0BD100220300DBB241F82320D9
:10288000DFF8141A0200D2B241F8224008E0020038
:10289000D2B251F82220521C0300DBB241F82320AF
:1028A000401CDCE7DFF8F059092300222900DFF89B
:1028B000740AFFF750FF95ED050AB8EEC00ABDECAB
:1028C000028B31BD000000000100FA440000FA4410
:1028D000704770477047704738B504000D002900F5
:1028E000C9B2200000F01BF831BD70B504000D0026
:1028F000160020000078C0B2012805D13200D2B203
:102900002000290000F058F870BD38B504000D0013
:102910002900C9B22000C0B200F0CBF831BD3EB5ED
:1029200004000D002800C0B2002805D0022815D0F0
:102930000BD3032826D039E00A200090002303227D
:102940000121200002F0E0FB30E00C200090002389
:1029500003220121200002F0D7FB27E0DFF8C8099D
:10296000818804290DD1016801918088022190FBA2
:10297000F1F080B200900A2310220121200002F021
:1029800011FC13E0DFF8A009818804290DD101684A
:1029900001918088022190FBF1F080B200900A231F
:1029A00010220121200002F0FDFBFFE737BD0000EF
:1029B0000100C8420000C8422DE9F34782B014006C
:1029C0000020ADF8000000252000C0B2002805D08E
:1029D000022869D042D3032866D068E00320ADF80E
:1029E000000004226946029800F0F9F80600DFF8BA
:1029F0003CA91AF10401300000F01CFE04226946D3
:102A0000029800F0ECF8070004226946029800F0F2
:102A1000E6F880461AF11001404600F00BFE042251
:102A20006946029800F0DBF881461AF10C0148462D
:102A300000F000FE04226946029800F0D0F805007C
:102A40001AF10801280000F0F5FD9AED020ADFED09
:102A50008D0A80EE200A8AED020A28E00320ADF8F4
:102A6000000004226946029800F0B9F80600DFF879
:102A7000BC8818F10401300000F0DCFDD8F8040037
:102A8000C8F8380010226946029800F0A8F807003C
:102A900004226946029800F0A2F8050018F13401FA
:102AA000280000F0C7FD02E000F03FF8FFE7BDE8B6
:102AB000FF870200D2B2002A032A1BD80A00D2B232
:102AC000012A0ED1DFF8C8270023537001231370A9
:102AD0000200D2B2002A0CD10122DFF85438DA7099
:102AE00007E0DFF8AC275378032B02DA53785B1C3E
:102AF0005370FFE7DFF898375A78002A14D05A78D5
:102B0000032A11DB00221A7000225A6000221A6187
:102B10000022DA6000229A6000225A6300229A633F
:102B20000022DFF80C38DA70704780B50320DFF838
:102B3000341608700421DFF8CC0401F098FE32202E
:102B4000FFF722F801BD80B5DFF8E8070078ED490E
:102B500008700220DFF80C1608700421DFF8A404C6
:102B600001F073FE01BD2DE9F04104000D001600D7
:102B70002F00DFF8B4874046FEF78EFD300080B2AC
:102B8000022802D004280BD01DE07878D8F8001075
:102B900008703878D8F800104870A8F8046015E07C
:102BA0007878D8F8001008703878D8F80010487095
:102BB000F878D8F800108870B878D8F80010C87085
:102BC000A8F8046002E00020A8F80400DFF8640719
:102BD00004700120DFF860170870BDE8F081F0B4E0
:102BE000030000200C881500EDB2042D16D125003D
:102BF000ADB21D44AE782500ADB21D44ED7855EA66
:102C000006252600B6B29E5D2700BFB21F447F781E
:102C100057EA062757EA054738000DE01500EDB2E0
:102C2000022D09D12500ADB25D5D2600B6B21E446D
:102C3000767856EA052630000D8855FA82F50D8023
:102C4000F0BC704770B504000D00DFF8C0630122CE
:102C50004FF480513000FEF7B6FC0A2002F0E6FD8A
:102C600002F0AAFD4FF47A732A0092B22100DFF835
:102C7000CC0602F02CFE00224FF480513000FEF70B
:102C8000A2FC70BD00401C462DE9F84F2DED048BD1
:102C90008EB0F0EE409AB0EE608AF0EE418AB0EE6F
:102CA000619A3221002201AC200001F013FF5FF095
:102CB000000B00200090002400250026DFF8D0A59E
:102CC000CAED099A8AED0B8ACAED0A8A8AED0C9A36
:102CD0009AED090A00F072FE07009AED0B0A00F067
:102CE0006DFE80469AED0A0A00F068FE81469AED74
:102CF0000C0A00F063FE824601A83900090E5A460C
:102D0000D2B281541BF1010B3900090C5A46D2B2E0
:102D100081541BF1010B3900090A5A46D2B2815481
:102D20001BF1010B5946C9B247541BF1010B414637
:102D3000090E5A46D2B281541BF1010B4146090CCF
:102D40005A46D2B281541BF1010B4146090A5A4638
:102D5000D2B281541BF1010B5946C9B200F801806F
:102D60001BF1010B4946090E5A46D2B281541BF1A0
:102D7000010B4946090C5A46D2B281541BF1010B92
:102D80004946090A5A46D2B281541BF1010B5946F1
:102D9000C9B200F801901BF1010B5146090E5A46C9
:102DA000D2B281541BF1010B5146090C5A46D2B2E2
:102DB00081541BF1010B5146090A5A46D2B2815483
:102DC0001BF1010B5946C9B200F801A01BF1010B20
:102DD0005A46D2B292B201A9DFF8640503F094FD1D
:102DE0000EB0BDEC048BBDE8F18F2DE9F04100245D
:102DF000002500260027DFF848050078C0B2FF282C
:102E000072D0DFF840050178C9B20906DFF838054D
:102E10000078C0B251EA0041DFF830050078C0B256
:102E200051EA0021DFF828050078C0B201430C0008
:102E3000DFF820050178C9B20906DFF81C05007823
:102E4000C0B251EA0041DFF814050078C0B251EA7F
:102E50000021DFF80C050078C0B201430D00DFF857
:102E600004050178C9B20906DFF8FC040078C0B295
:102E700051EA0041DFF8F4040078C0B251EA0021C1
:102E8000DFF8EC040078C0B201430E00DFF8E40480
:102E90000178C9B20906DFF8E0040078C0B251EA4F
:102EA0000041DFF8D8040078C0B251EA0021DFF811
:102EB000D0040078C0B201430F00DFF8708418F12D
:102EC0002401200000F0B6FB18F12C01280000F0CE
:102ED000B1FB18F12801300000F0ACFB18F1300113
:102EE000380000F0A7FB09E0DFF840040021416250
:102EF0000021C1620021816200210163BDE8F081EF
:102F000048E70008BC26002038260020180A0020C8
:102F1000BA26002070B500240025DFF86C04007884
:102F2000C0B2FF283DD0DFF85C64DFF860040078B1
:102F30003070DFF85C040178C9B20906DFF8540488
:102F40000078C0B251EA0041DFF84C040078C0B20A
:102F500051EA0021DFF844040078C0B201430C00BC
:102F6000DFF83C040178C9B20906DFF838040078BC
:102F7000C0B251EA0041DFF830040078C0B251EA33
:102F80000021DFF828040078C0B201430D0016F1DB
:102F90000801200000F04EFB311D280000F04AFB24
:102FA00009E0DFF8E00300210170DFF8041481601C
:102FB000DFF80014416070BD78B591B004000D00D9
:102FC0003C21002202AE300001F084FD0020ADF86B
:102FD00004000321032000F077FE0B200090002363
:102FE000DFF8D42301A902A800F00EFB4FF47A7396
:102FF000BDF8042002A9DFF8C40302F068FC12B097
:1030000070BD000068050020C826002000080048A8
:1030100078B591B004000D003C21002202AE3000D2
:1030200001F058FD0020ADF80400C54803F03CFC59
:10303000D54803F039FCD34800210170DFF8741340
:103040008160DFF86C1341600D2000900023DFF8F1
:10305000702301A902A800F0D7FA4FF47A73BDF8E3
:10306000042002A9D54802F032FC12B070BD000065
:10307000C926002000040048000C004838B590B074
:1030800004000D0003A8CF49322203F081FCCE4892
:10309000D0E90023CDE9012303A801900023CB4808
:1030A000027802A903A800F03AFA02200090002357
:1030B00078A202A903A800F0A7FA4FF47A73BDF82A
:1030C00008200199BD4802F002FC11B030BDF8B5EE
:1030D00004000D0000262068007830283ADB2068C4
:1030E00000783A2836DA002700200100C9B2A28809
:1030F00089B291420FD221680200D2B2895C302994
:1031000005DB21680200D2B2895C3A2900DB02E0CB
:103110007F1C401CE9E73900C9B2206800F02CFB95
:103120000600B6F5807F0DD2A84841783000C0B2C5
:1031300000F0CAFD4FF47A73022279A19F4802F091
:10314000C6FB0EE04FF47A730522A1499B4802F0BA
:10315000BEFB06E04FF47A7305229D49974802F0C2
:10316000B6FBF1BDF424002038B590B004000D008A
:1031700003A89849322203F00BFC9748D0E90023BA
:10318000CDE9012303A8019000239048427802A9C9
:1031900003A800F0C4F90220009000233DA202A978
:1031A00003A800F031FA4FF47A73BDF808200199B2
:1031B000824802F08CFB11B030BDF8B504000D0060
:1031C000002620680078302839DB206800783A280B
:1031D00035DA002700200100C9B2A28889B29142E5
:1031E0000FD221680200D2B2895C302905DB216848
:1031F0000200D2B2895C3A2900DB02E07F1C401C4D
:10320000E9E73900C9B2206800F0B6FA06000C2ED2
:103210000DD23100C9B26D48007800F055FD4FF471
:103220007A7302223EA1654802F051FB0EE04FF492
:103230007A7305226649614802F049FB06E04FF4C3
:103240007A73052262495D4802F041FBF1BD00003E
:10325000CA26002080B5FFF7C8FDFFF75BFE5F4878
:103260005F49C0F8A4135F49C0F8B4135E49C0F8C1
:10327000C4135E49C0F8D4135D49C0F8E4135D4936
:10328000C0F8F41302F0AFFA02F09EFA01BD00009C
:10329000AC2400200D0A00008825002070B5002015
:1032A000002400252800C0B2092836DA524E280032
:1032B000C0B200013044407801282CD10120040024
:1032C0002800C0B200013044406800280ED001F050
:1032D0005FF92900C9B2090131444968401A29003F
:1032E000C9B2090131448968884214D300202900F9
:1032F000C9B209013144487001F04AF92900C9B244
:103300000901314448602800C0B22900C9B209014E
:103310003144C96888476D1CC4E72000C0B270BD45
:103320004F4B000060250020F8050020AC24002051
:1033300098260020C7260020F4240020A41F002087
:10334000000802080208020803080208040802082C
:10335000050802080608020807080208080802080B
:10336000090802080A0802080B0802080C080208EB
:103370000D0802080E0802080F08020810080208CB
:10338000110802085426002000100208021002084A
:1033900003100208041002080510020806100208B3
:1033A0000710020808100208091002080A10020893
:1033B000000048420000164450E50008941E00201A
:1033C000E8E20008A8D1000850E70008680A0020D9
:1033D00040E7000854DF000858E70008080600200E
:1033E000B92F0008113000087D300008CF300008E8
:1033F00069310008BB3100086805002001000800A1
:10340000C0B2002801D1012021E00800C0B2FF288D
:1034100001D10A201BE00800C0B2FE2801D16420BF
:1034200015E00800C0B2FD2802D14FF47A700EE01A
:103430000800C0B2FC2802D142F2107007E0080078
:10344000C0B2FB2802D1DFF8480500E00120704738
:103450002DE9F24F82469346002000210A260027DC
:10346000B046B946009A1588BBF1000F08D5DBF1CC
:1034700000042D202A0092B20AF802006D1C00E020
:103480005C462000002142464B4603F0D5FA002955
:1034900001D1002808D0A6FB080106FB091107FB93
:1034A000081180468946ECE7404649460A22002337
:1034B00003F0C2FA06000F00002F01D1002E28D021
:1034C0002000002132003B0003F0B6FA3030290022
:1034D00089B20AF801006D1CA0465FF000092000C7
:1034E000002132003B0003F0A7FAA6FB002306FBF5
:1034F000013307FB0033B8EB020079EB0301040052
:10350000300039000A22002303F096FA06000F006B
:10351000D2E7009805802800C0B2BDE8F28F2DE9FF
:10352000FE4F06000F0090460020ADF8000000207E
:10353000002400215FF0000BB7F80090B8F1000FF5
:1035400002D5D8F1000500E045464246390030007A
:10355000FFF77EFFB7F800A0002D4FD09DF80800C0
:10356000FFF74CFF01008D4205D20A2045431BF1B5
:10357000010B002DF7D15846C0B2002821D050468B
:103580000200D2B2324412F8012C2D2A06D00200D9
:10359000D2B24B4692B29BB29A4208D1302203007B
:1035A000DBB2F2541AF1010ABBF1010BE3E70200AE
:1035B000D2B2324412F8012C0300DBB2F254401EA6
:1035C000DEE70A20B1FBF0F450468346002C15D00C
:1035D0000A20B4FBF0F45846C0B2304410F8010C95
:1035E0005946C9B27054BBF1010B002CEED12E200C
:1035F0005946C9B270541AF1010AE7E7A7F800A0CA
:103600005046C0B2BDE8FE8FF0B4049C00252E00E9
:10361000B6B2A6420BD20E88771C0F802F00BFB225
:1036200017FA83F7D75DB6B287556D1CEFE7F0BC8C
:10363000704700002DE9F34F81B02DED028B9FED17
:10364000658A002401250026F7EE008A002738004D
:10365000C0B2202864DA0398F84010F0010004009A
:103660003800C0B2172829DA18EE900A00F0FCFEE4
:1036700082468B462000C0B200F0E8FE80468946B4
:103680003800C0B2D0F117005FF0FF31484300F0BE
:1036900063FD41EC110B9FED500B00F076FD51ECFA
:1036A000100B42464B4603F0DFFA52465B4603F0EE
:1036B000ADFB00F097FE08EE900A2FE03800C0B294
:1036C0001F2824DA3000C0B200F0C0FE82468B46CC
:1036D0002000C0B200F0BAFE804689463800C0B271
:1036E000173800F039FD41EC110B9FED3B0B00F05A
:1036F0004CFD51EC100B42464B4603F0B5FA5246D6
:103700005B4603F083FB03F03FFC060006E020006D
:10371000C0B2012802D15FF0FF3005007F1C96E7A0
:10372000280040B200F018FD804689463000C0B243
:103730007F3800F011FD41EC110B9FED270B00F0DD
:1037400024FD51EC100B42464B4603F08DFA8046A7
:10375000894618EE900A00F087FE42464B4603F079
:1037600083FA00F03FFE00EE100A049880ED000A94
:10377000BDEC028BBDE8F78F70B40300002200247B
:10378000002000252A000E00D2B2F6B2B2421FD2AB
:103790002A00D2B29A5C302A0ADB2A00D2B29A5CA2
:1037A0003A2A05DA2A00D2B29A5C303A140001E0D3
:1037B000002214002A00D2B2002A03D12200D2B281
:1037C000100003E00A22504350FA84F06D1CD9E740
:1037D00070BC7047000000000000000000000040C6
:1037E0002DE9F0412DED028B07000E009FED678A59
:1037F0003000C0B200280BD0FB2800F09E80FC28CF
:1038000077D0FD2851D0FE282CD0FF2807D0B7E074
:1038100000EE107AB8EEC00AB0EE408AB0E00A209E
:1038200097FBF0F000EE100AB8EEC00A5FF00A084D
:1038300010EE100A00F018FE04000D0097FBF8F0DF
:1038400008FB1078404600F087FC524A524B03F0C8
:103850000BFA22002B0003F0D9FA00F0C3FD08EEAA
:10386000100A8DE0642097FBF0F000EE100AB8EE2D
:10387000C00A5FF0640810EE100A00F0F5FD0400C5
:103880000D0097FBF8F008FB1078404600F064FC50
:10389000424A434B03F0E8F922002B0003F0B6FA4A
:1038A00000F0A0FD08EE100A6AE04FF47A7097FB72
:1038B000F0F000EE100AB8EEC00A4FF47A7810EE7D
:1038C000100A00F0D1FD04000D0097FBF8F008FB92
:1038D0001078404600F040FC324A334B03F0C4F904
:1038E00022002B0003F092FA00F07CFD08EE100A93
:1038F00046E042F2107097FBF0F000EE100AB8EECE
:10390000C00A42F2107810EE100A00F0ADFD04007B
:103910000D0097FBF8F008FB1078404600F01CFC07
:10392000224A234B03F0A0F922002B0003F06EFA89
:1039300000F058FD08EE100A22E0154897FBF0F061
:1039400000EE100AB8EEC00ADFF8448010EE100A4C
:1039500000F08AFD04000D0097FBF8F008FB1078DA
:10396000404600F0F9FB134A134B03F07DF92200A7
:103970002B0003F04BFA00F035FD08EE100AFFE7CC
:10398000B0EE480ABDEC028BBDE8F08100000000FB
:10399000A08601009A9999999999B93F7B14AE47ED
:1039A000E17A843FFCA9F1D24D62503F2D431CEBDC
:1039B000E2361A3FF168E388B5F8E43E10B42DED25
:1039C000010A00206A460023042B07D2D45C1900A8
:1039D000C9B2C9008C4020435B1CF5E712BC70479C
:1039E00002000020704730B40200DFF8D006002348
:1039F00004688588635583885B1C8380DFF8C03644
:103A00001B7804688588635583885B1C838001204C
:103A100030BC7047F8B504000D00002000212E00D6
:103A200022683300DBB2D25C23683700FFB23B442C
:103A30005F7857EA02273A0092B2B2F5807F23DA24
:103A4000380080B200281FD0DFF8700621683200ED
:103A5000D2B2895C02688388D1548188491C8180F4
:103A600021683200D2B21144497802688388D15467
:103A70008188491C8180DFF8480641783800C0B24F
:103A800000F022F9012000E00020F2BD30B4020075
:103A9000DFF82806002304688588635583885B1C4B
:103AA0008380DFF81C365B780468858863558388DB
:103AB0005B1C8380012030BC7047F8B504000D000A
:103AC000002000212E0022683300DBB2D25C236884
:103AD0003700FFB23B445F7857EA02273A0092B2C0
:103AE0000B2A1FDADFF8D40521683200D2B2895CD4
:103AF00002688388D1548188491C81802168320002
:103B0000D2B21144497802688388D1548188491C13
:103B100081803900C9B2DFF8A805007800F0D4F838
:103B2000012000E00020F2BDF8B504000D000026E1
:103B3000DFF8900590ED050AFFF740FF0100DFF880
:103B40007C050A00120A03688788DA558288521CAD
:103B5000828002688388D1548288521C82800A0045
:103B6000120E03688788DA558288521C82800A0008
:103B7000120C03688788DA558288521C82800120E3
:103B8000F2BDF8B504000D000026DFF8380590ED11
:103B9000080AFFF713FF0100DFF820050A00120AE8
:103BA00003688788DA558288521C8280026883887D
:103BB000D1548288521C82800A00120E03688788C2
:103BC000DA558288521C82800A00120C03688788AA
:103BD000DA558288521C82800120F2BDF8B50400BB
:103BE0000D000026DFF8DC0490ED070AFFF7E6FE83
:103BF0000100DFF8C8040A00120A03688788DA5552
:103C00008288521C828002688388D1548288521C28
:103C100082800A00120E03688788DA558288521C57
:103C200082800A00120C03688788DA558288521C49
:103C300082800120F2BDF8B504000D000026DFF8F7
:103C4000840490ED060AFFF7B9FE0100DFF86C046A
:103C50000A00120A03688788DA558288521C82801B
:103C600002688388D1548288521C82800A00120E16
:103C700003688788DA558288521C82800A00120CF9
:103C800003688788DA558288521C82800120F2BD41
:103C900070B504000D00DFF83064012220213000EF
:103CA000FDF791FC0A2001F0C1FD4FF47A732A0060
:103CB00092B22100DFF8140401F009FE0022202155
:103CC0003000FDF780FC70BD7CB504000D000821BC
:103CD00000226E46300000F0FDFE0026DFF8E00313
:103CE00004704570694602783300DBB2CA54761C12
:103CF00040783200D2B28854761C3200D2B292B2EE
:103D00006946DFF8CC0302F0FFFD73BDDFF8C003A6
:103D10000078C0B2FF280AD0DFF8A403DFF8B4139C
:103D200009780170DFF8B0130978417005E0DFF819
:103D30009003032101700321417070472DE9F04F7A
:103D400087B0040000275FF000085FF0000900253D
:103D5000DFF88823D2E90001CDE902010026DFF86F
:103D60008023D2E90001CDE90401DFF850A35046D9
:103D7000FDF792FCA0880828C0F29B812068A188EA
:103D8000084410F8010C2168A288114411F8021CA3
:103D900051EA0021ADF81810A188891E206801F0B1
:103DA00095F9ADF81A00BDF81A00BDF81810884250
:103DB00040F07D8120680078C1490978884240F050
:103DC0007681206880782168CF7857EA00272068BC
:103DD0004078032805D006286CD0102800F0C38056
:103DE00061E1206800792168497951EA00210D00DC
:103DF0005FF001084046C0B2072836DA5FF01409C8
:103E0000DFF8E0B24046C0B209FB00F05844406819
:103E1000390089B2884225D1280080B24146C9B212
:103E200009FB01F15944896888421BDB002100200D
:103E30004246D2B209FB02F25A44D26890470128A6
:103E40000FD14046C0B209FB00F0584480682D1ADB
:103E50004046C0B209FB00F90BEB09008068C719A6
:103E600000E002E018F10108C4E7BAF804000028F5
:103E70001FD0BAF80400022190FBF1F201FB1200FE
:103E8000002816D1DAF800000190BAF804000221E7
:103E900090FBF1F080B200903B009BB203222068BF
:103EA000017804A801F0F2F9BDF814100498FFF7A6
:103EB000EFFEFAE004200100C9B2A288921E9142EE
:103EC0000EDA21680200D2B2895C029ABDF80C3089
:103ED000D154BDF80C10491CADF80C10401CEAE799
:103EE0005FF001084046C0B2072817DA14227D4B64
:103EF0004046C0B2504318444068390089B28842F5
:103F000009D1002102A8C4465FFA8CFC02FB0CF226
:103F10001A441269904718F10108E3E7BAF804005F
:103F200000281FD0BAF80400022190FBF1F201FB37
:103F30001200002816D1DAF800000190BAF8040047
:103F4000022190FBF1F080B200903B009BB2062270
:103F50002068017804A801F0EAF9BDF8141004986B
:103F6000FFF796FEA1E00020060020680079216896
:103F7000497951EA00210D0007200100C9B2A28849
:103F8000921E91420EDA21680200D2B2895C029A36
:103F9000BDF80C30D154BDF80C10491CADF80C1014
:103FA000401CEAE7280080B24000216889798842F5
:103FB0004DD1BDF80C002168897989B2884246D17B
:103FC0005FF001084046C0B2072840DA5FF01409EC
:103FD000DFF810B14046C0B209FB00F05844406819
:103FE000390089B288422FD1280080B24146C9B237
:103FF00009FB01F159448968884225DB310089B207
:1040000002A84246D2B209FB02F25A441269904712
:10401000012818D14046C0B209FB00F0584480681E
:10402000400010FA86F64046C0B209FB00F0584442
:1040300080682D1A4046C0B209FB00F90BEB09005D
:104040008068C71900E002E018F10108BAE7BAF881
:104050000400002826D0BAF80400022190FBF1F2F7
:1040600001FB120000281DD1206880782168C978E2
:1040700051EA00210F00DAF800000190BAF80400BC
:10408000022190FBF1F080B200903B009BB2102225
:104090002068017804A801F04AF9BDF814100498CA
:1040A000FFF7F6FD01E0002004E0012002E000201F
:1040B00000E0002007B0BDE8F08F000020050020E0
:1040C000680A0020AC240020000400481C1F0020C7
:1040D00000000208020002080300020830E700089E
:1040E00038E700086804002000F10103810704D0CC
:1040F00010F8011B820781B1FAD10268A2F10131E7
:10410000914311F0803104BF50F8042FF6E709BA4B
:10411000B1FA81F100EBD100401CC01A704730B4F5
:10412000002513E050F8042BD30744BFA9F1010385
:104130009A18091F042942F8045BFAD213468C0727
:1041400044BF15809B1CC90748BF1D7050F8041B55
:104150000029E7D130BC7047C11768B14840401A08
:10416000B0FA80F29040D21CC907C2F5846241EADD
:10417000025202EBD021400570470268531C0360D5
:104180001170704741EC100B01BD80B553EC112B41
:1041900051EC100B02F016FFF4E72E00F0B540F2E0
:1041A000FF7581EA030C0CF0004C15EA11541DBF99
:1041B00015EA1357AC42AF42E5E0BC41C1F313012D
:1041C000C3F31303801A994143F4801304D2641E8D
:1041D0004000494180185941C90241EA5051B1FBA0
:1041E000F3F603FB1611A2FB0675D7EBC020A9411D
:1041F00002D2761E80185941C90241EA5051B1FBE2
:10420000F3FE03FB1E11A2FB0E75D7EBC020A941E4
:1042100003D2AEF1010E80185941890241EA905152
:10422000760546EA8E2EB1FBF3F603FB1611A2FBD0
:104230000675D7EB8020A94102D2761E801859411D
:10424000C90241EA50514EEA060EB1FBF3F603FBF8
:104250001611A2FB0675D7EBC020A94102D2761E2B
:1042600080185941C90241EA5051B1FBF3F703FBF1
:104270001711A2FB0735D3EBC020A94167F1000756
:104280000CBF004247F0010766F3D5274FEA1E3105
:10429000B80814F5806412DDBD0775F1004250EBDB
:1042A0000E5051EB045111F5801F5CBF41EA0C0127
:1042B000F0BD4CF07F6141F0E0410020F0BDBD0752
:1042C0006D0840EA0E5041F48011D4F10104B4F1BC
:1042D00020060ADAC4F120060200E04001FA06F3E3
:1042E000E1401843B24015430EE0342C13DCC6F114
:1042F000200445EA40056D0820FA06F2154321FA2C
:1043000006F0A1400D43002175F1004250F100007C
:1043100051EB0C01F0BD00205FEA0C01F0BDCFB9FC
:1043200092185B41B3FA83F704BFB2FA82F6BF1961
:104330000B3FB7F120062FBF02FA06F3BB40C7F1CF
:10434000200622FA06F638BF3343BA401CB1E419FE
:10435000641E33E77F4231F00041B1FA81F404BFBB
:10436000B0FA80F6A4190B3CB4F120062FBF00FA76
:1043700006F1A140C4F1200620FA06F638BF314309
:10438000A0403C1B1AE7AC421ABF05EA1357AF42E4
:1043900012E050EA41061CBF52EA4306BFE750EA6A
:1043A0004107304661461CBF41EA0551F0BD52EA63
:1043B000430C08BFC143F0BD00204FF4001616EBBC
:1043C000410F98BF16EB430F08BF16EB410F24BFF8
:1043D000C14305E016EB430F0CBF61464CEA0551A3
:1043E000F0BD000001F000428B1AA3F16051B1F55D
:1043F000801F0ADBB1F17F6F1FD242EAC102C10008
:1044000071F1004142EB507070470B15C3F1090385
:10441000212B10D2890241EA9051800201284941A2
:1044200041F0004121FA03F0C3F12003994071F1FA
:10443000004150417047100070476FF0000013EBCF
:10444000103F5CBF000E42EAC0507047014648B1C1
:10445000B0FA80F18840C91CC1F58461090501EBFF
:10446000D021400570470000C0F3C75181B1FF293A
:1044700006D0C110400721F0E04101F160517047C2
:1044800041020CBF40F4E0016FF000410020704792
:1044900000F0004100020AD0B0FA80FC00FA0CF0F3
:1044A00001F16051A1EB0C5101EBD02140057047A7
:1044B0000CB430B583B00A4606A902910446002523
:1044C0000194009502AB01A9084878441E3003F01E
:1044D000EFF8019A157000284EBF04460198041B9E
:1044E000204603B030BC5DF80CFB00BF8FFCFFFF23
:1044F00080B5012240211F48FDF765F81E491F487D
:1045000000F032FA00F01CF8012000F003F800F08F
:10451000C7FA01BD704711B581B0164C0022402189
:104520002000FDF750F84FF47A73012201A91448D6
:1045300004F01EF9012240212000FDF744F813BDCC
:1045400010B50C4C002240212000FDF73CF8002261
:1045500080212000FDF737F8012000F013F8012238
:1045600080212000FDF72FF8012240212000FDF7D7
:104570002AF810BD000800487C260020200F0020EB
:10458000AC22002010B50400200001F04FF910BD4E
:1045900001480068704700BF8C26002070B4039C5F
:1045A000DFF88052286029716A71AB71EC710026C6
:1045B0002E7270BC70472DE9F84F04000D001600F4
:1045C00000275FF00008DFF85C9299F805000828E2
:1045D00080F2FC80300099F80610C0B2884205D302
:1045E00099F807003100C9B2884201D22E20060096
:1045F000402099F80510491C90FBF1F02900C9B240
:10460000814280F2E38099F8040050FA84F0802817
:1046100080F2DC8099F805305B1C99F8050003FBFB
:1046200005035B1CDBB299F804201219D2B299F889
:104630000500401C15FB00F1C9B22000C0B200F01B
:1046400029F90021080099F80420C0B2904280F0B6
:10465000BD80002015FB00F00200D2B2082392FBBF
:10466000F3F21700C0B2082290FBF2F302FB130032
:104670008046FF226C4BD3F800C03800C0B250FA1D
:1046800085FE802000FB0EFE5EFA84FED3F800A0BB
:104690003800C0B250FA85FB802000FB0BFB5BFAB0
:1046A00084F01AF800A0D8F1080B100050FA0BF0B3
:1046B00010EA0A0A0CF80EA0D3F800C03800C0B205
:1046C00050FA85FE802000FB0EFE5EFA84F000901A
:1046D000D3F800E03800C0B250FA85FA802000FB21
:1046E0000AFA5AFA84F01EF800E0D9F800A0B3469E
:1046F0005FFA8BFB99F80600BBEB000099F804B059
:104700000BFB00FB0AEB0B008A465FFA8AFA10F8F3
:104710000A0010FA08F050EA0E00DDF800E00CF88C
:104720000E00D3F800C03800C0B250FA85FE8020D9
:1047300000FB0EFE5EFA84F08444D3F800E03800FB
:10474000C0B250FA85FA802000FB0AFA5AFA84F0C7
:10475000704490F8800012FA08F202408CF8802031
:104760001A683800C0B250FA85FC802000FB0CFCAF
:104770005CFA84F002441B683800C0B250FA85FC31
:10478000802000FB0CFC5CFA84F0184490F8803028
:10479000D9F800C0B6465FFA8EFE99F80600BEEB67
:1047A000000E99F8040000FB0EFE0CEB0E008C4688
:1047B0005FFA8CFC10F80C00D8F1080C50FA0CF0E1
:1047C000034382F88030641C491C3BE7BDE8F18F4D
:1047D000F8B507000C001600124D6879082820DA99
:1047E000307800281DD032782100C9B23800C0B21C
:1047F000FFF7E1FE761C2879401CC719287950FA8A
:1048000087F0401C812802DB00200700641C402048
:104810006979491C90FBF1F02100C9B28142DFDBCC
:10482000FFE7F1BD4826002080260020020001207D
:104830000B00DBB21B011344587000200B00DBB2ED
:104840001B01134458600120704738B504000D0067
:1048500001202900C9B2090121444870FFF798FEE0
:104860002900C9B2090121444860012032BD02007B
:1048700000200B00DBB21B0113445870012070476D
:1048800080B5034800F00EFC00F0CBF801BD00003D
:1048900000D6000870B40400E4B2802C01DB7F2451
:1048A00020001400E4B2802C01DB7F2422000C00E5
:1048B000E4B2402C01DB3F2421001C00E4B2402C78
:1048C00001DB3F2423002B4C050026683678EDB22F
:1048D000B54201D2256828702568AD781600F6B279
:1048E000B54201D22568AA700D0026687678EDB22F
:1048F000B54201D2256869702568ED781E00F6B2D0
:10490000B54201D22468E37070BC704719487F211A
:10491000026811700021026891703F210268517095
:1049200000210068C17070471248002102681170B0
:104930007F21026891700021026851703F21006858
:10494000C170704770B54FF4806400250A4806684E
:104950002A002100300000F0BDF83F237F22002113
:104960000020FFF797FF70BD034A1060014A1160F5
:1049700070470000842600208026002010B5040027
:1049800000224FF480714348FCF71DFE2000C0B2A6
:10499000FFF7C1FD10BD10B5040001224FF4807176
:1049A0003C48FCF710FE2000C0B2FFF7B4FD10BD7C
:1049B00010B504008120FFF7E1FF2000C0B24028BD
:1049C00003DB3F20FFF7DAFF03E02000C0B2FFF770
:1049D000D5FF10BD10B5040014F00F0050F0B0006A
:1049E000C0B2FFF7CBFF10BD10B504002000C0B26D
:1049F00000F005F82000C0B200F00CF810BD10B5B2
:104A000004002000C0B2000950F01000C0B2FFF74F
:104A1000B5FF10BD10B5040014F00F00FFF7AEFF96
:104A200010BD70B500242000C0B210282EDA1A4D37
:104A3000286840782100C9B2491CB0EBC10F23DAC5
:104A40002868C0782100C9B2B0EBC10F1EDB20007E
:104A5000C0B2FFF7BFFF28680078FFF7C5FF2868DE
:104A60000678286880783100C9B288420CD30B4898
:104A700001682200D2B28020424352FA86F0085CDC
:104A8000FFF789FF761CECE7641CCCE7FFF73EFFDD
:104A900070BD000000080048842600208026002009
:104AA00080B5A020FFF76AFFAE20FFF767FFC820A0
:104AB000FFF764FFA220FFF761FF2F20FFF75EFFE3
:104AC0002220FFF75BFF3F20FFF772FFAF20FFF7C9
:104AD00055FF01BD62F30F2262F31F42401810F030
:104AE000030308D0C91A1FD3DB0748BF00F8012D04
:104AF00028BF20F8022D130030B414461546103993
:104B000028BF20E93C00FAD8490728BF20E90C005B
:104B100048BF40F8042D890028BF20F8022D48BF67
:104B200000F8012D30BC7047C91818BF00F8012DDE
:104B3000CB0728BF00F8012D7047000070B4039C1C
:104B4000DFF88453286029716A71AB71EC7101261A
:104B50002E7270BC70472DE9F74F04000D00DFF88E
:104B600068639DF80800B179884204D3F0799DF814
:104B70000810884202D22E208DF80800307A0028D2
:104B800045D1002738003179C0B288423DD2316822
:104B90009DF80820B079121A3079424301EB0200E7
:104BA0003900C9B210F80190002080464046C0B2DA
:104BB000082828DA3800C0B250FA84F0802805DAD4
:104BC0004046C0B250FA85F0402801DB00205DE18C
:104BD000012010FA08F04946C9B2014208D001226A
:104BE00018EB0501C9B23819C0B200F06FF907E03F
:104BF000002218EB0501C9B23819C0B200F066F9FD
:104C000018F10108D2E77F1CBCE730793EE1307A29
:104C1000012840F08E807079082190FBF1F201FBB1
:104C20001200012806DB7079082190FBF1FB1BF1D3
:104C3000010B03E07079082190FBF1FB31795846B4
:104C4000C0B24143491C8DF8011031689DF808201D
:104C5000B079121A9DF80100424301EB020001787D
:104C60008DF80010401C01905FF0000840469DF850
:104C70000010C0B2884259D25FF000094846594638
:104C8000C0B2C9B288424ED201994246D2B2584609
:104C9000C0B2424301EB02004946C9B210F801A07C
:104CA000002007003800C0B2082839DA4046C0B2F8
:104CB00050FA84F0802808DA4846C0B2C00050FAA2
:104CC00085F050FA87F0402801DB0020DEE04846FE
:104CD000C0B2C00050FA87F0717988421EDA012113
:104CE000B9405046C0B208420CD001225FFA89F99F
:104CF00015EBC9017918C9B218EB0400C0B200F075
:104D0000E5F80BE000225FFA89F915EBC901791883
:104D1000C9B218EB0400C0B200F0D8F87F1CC1E79C
:104D200019F10109AAE718F101089FE79DF80000B1
:104D3000ACE0307A022840F0A8807079082190FB1E
:104D4000F1F0401C8DF8000030799DF8001010FB48
:104D500001F08DF8020031689DF80820B079121A30
:104D60009DF80200424301EB0200019096F804B066
:104D700000208DF8010000210020002210009DF885
:104D80000030C0B298420CD23079431E9DF8010029
:104D90001B1A13FB02F0019BC0B2185C0100521CED
:104DA000ECE70800C0B200280BD1BBF1010B58465C
:104DB000C0B2002805D09DF80100401C8DF801000C
:104DC000D9E7002738009DF80010C0B2884259D2B8
:104DD0005FF0000840465946C0B2C9B288424FD27F
:104DE00001993A00D2B23079424301EB02004146C8
:104DF000C9B210F801905FF0000A5046C0B208280E
:104E00003BDA4046C0B250FA84F0802808DA380015
:104E1000C0B2C00050FA85F050FA8AF0402801DB99
:104E2000002033E03800C0B2C00050FA8AF0717937
:104E300088421FDA012111FA0AF14846C0B208423D
:104E40000CD00122FFB215EBC7011AEB0101C9B268
:104E500018EB0400C0B200F039F80BE00022FFB2FA
:104E600015EBC7011AEB0101C9B218EB0400C0B27F
:104E700000F02CF81AF1010ABFE718F10108A9E7C0
:104E80007F1C9FE75846C0B200E00020BDE8FE8FBF
:104E9000F8B504000F0015000B484079D0F13F0031
:104EA0003900C9B288420EDB287800280BD02A7856
:104EB0003900C9B22000C0B2FFF74DFE0600701CD9
:104EC00004196D1CF0E7F1BD48260020F8B5040078
:104ED0000D0016002000C0B2802803DA2800C0B2FE
:104EE000402800DB57E03000C0B2002824D0290061
:104EF000C9B20822DFF8CC312800C0B2082790FBE5
:104F0000F7F78020474357FA84F72800C0B25FF0D4
:104F1000080C90FBFCFC802000FB0CFC5CFA84F08D
:104F2000185C5FF0010C91FBF2FE02FB1E111CFAF3
:104F300001F10143D95524E02900C9B20822DFF864
:104F400084312800C0B2082790FBF7F78020474340
:104F500057FA84F72800C0B25FF0080C90FBFCFC05
:104F6000802000FB0CFC5CFA84F0185C5FF0010C04
:104F700091FBF2FE02FB1E111CFA01F130EA010165
:104F8000D9552B00DBB22200D2B22900C9B22000D1
:104F9000C0B2FFF77FFCF1BD2DE9F84F05000E0010
:104FA000170098460A9C3800C0B22900C9B2401ABE
:104FB00003F0F7FD81464046C0B23100C9B2401A45
:104FC00003F0EFFD814502DA5FF0010B01E05FF0D5
:104FD000000B5846C0B2002805D028003500060056
:104FE00038004746804638002900C0B2C9B288421E
:104FF00005D228003D000700300046468046434663
:10500000DBB23A00D2B23100C9B22800C0B2FFF719
:1050100041FC781B8DF800004046C0B23100C9B297
:10502000401A03F0BEFD8DF801009DF8000002213A
:1050300090FBF1F930004146C0B2C9B2884202D2B9
:105040005FF0010A01E05FF0FF3A38002900C0B2CA
:10505000C9B2884224D35846C0B2002808D02200E2
:10506000D2B22900C9B23000C0B2FFF72FFF07E06B
:105070002200D2B23100C9B22800C0B2FFF726FF29
:105080009DF80100B9EB0009484640B2002805D55B
:105090001AEB06069DF8000010EB09096D1CD4E719
:1050A000BDE8F18FF8B504004FF48065260006488E
:1050B00007682A003100380001F06AFCFFF734FC71
:1050C000F1BD0000200F00208026002030B4030036
:1050D0004FF6FF7000248C4213DA1A5D504008220C
:1050E000002A0CD0C50706D580B2400880F42040C5
:1050F00090F0010001E080B24008521EF0E7641C0D
:10510000E9E780B230BC70472DE9F84305000E0096
:1051100017009846089C5FF000092868494689B244
:10512000465419F101092868494689B2475419F1D2
:105130000109404680B2000A29684A4692B2885462
:1051400019F101092868494689B200F8018019F16E
:105150000109200080B2000A29684A4692B28854A8
:1051600019F101092868494689B2445419F1010925
:10517000494689B22868FFF7A9FF010028684A4616
:1051800092B2815419F10109080080B2000A2A681C
:105190004B469BB2D05419F10109A5F804900120A7
:1051A000BDE8F2832DE9F84F06000F0090469946BE
:1051B0000A9DDDF82CA0002400213068220092B264
:1051C0008754641C3068220092B200F80280641C8C
:1051D000484680B2000A326823009BB2D054641C57
:1051E0003068220092B200F80290641C4046C0B2BF
:1051F000062802D0102807D01CE0280080B2012821
:1052000001D0002040E015E0280080B2000A32689A
:1052100023009BB2D054641C3068220092B28554A3
:10522000641C2800C0B24000326823009BB2D054F6
:10523000641CFFE75FF0000B584680B2290089B27A
:10524000B0EB410F0BDA584680B21AF80000316813
:10525000220092B28854641C1BF1010BECE7210080
:1052600089B23068FFF732FF01003068220092B245
:105270008154641C080080B2000A326823009BB28B
:10528000D054641CB4800120BDE8F28F2DE9F84FA2
:1052900005000E00170098460A9CDDF82C905FF080
:1052A000000B002029685A4692B28E541BF1010B64
:1052B00029685A4692B28F541BF1010B2100C9B2E2
:1052C00049002A685B469BB2D1541BF1010B5FF089
:1052D000000A504680B2210089B2B0EB410F0CDACF
:1052E000504680B219F8000029685A4692B2885494
:1052F0001BF1010B1AF1010AEBE7594689B2286844
:10530000FFF7E4FE010028685A4692B281541BF16F
:10531000010B080080B2000A2A685B469BB2D05499
:105320001BF1010BA5F804B00120BDE8F28F2DE9B7
:10533000F84F05000E00170098460A9CDDF82C90E7
:105340005FF0000B5FF0000A2868594689B24654A6
:105350001BF1010B2868594689B247541BF1010B18
:10536000404680B2000A29685A4692B288541BF11E
:10537000010B2868594689B200F801801BF1010B26
:105380003800C0B2062802D010281DD02CE0200022
:1053900080B2012801D000203EE000208246504625
:1053A00080B2210089B2B0EB410F0CDA504680B2D6
:1053B00019F8000029685A4692B288541BF1010B73
:1053C0001AF1010AEBE70FE0200080B2000A296819
:1053D0005A4692B288541BF1010B2868594689B28B
:1053E00044541BF1010BFFE7594689B22868FFF7C7
:1053F0006DFE010028685A4692B281541BF1010BE0
:10540000080080B2000A2A685B469BB2D0541BF1A8
:10541000010BA5F804B00120BDE8F28F80B5D44897
:10542000D44901605FF4E1314160002181600021D5
:10543000C160002101610C214161002181610021D5
:1054400001620021416200F005FA002801D003F05A
:105450000BFC01BD80B5C848C84901604FF4165126
:105460004160002181600021C160002101610C21A7
:105470004161002181610021C1610021016200219F
:10548000416200F0E7F9002801D003F0EDFB01BD17
:1054900080B5BB48BB4901604FF416514160002103
:1054A00081600021C160002101610C214161002166
:1054B00081610021C161002101620021416200F08F
:1054C000C9F9002801D003F0CFFB01BD38B59EB06B
:1054D000040014220021684603F0C8FB602200216A
:1054E00006A803F0C3FB2068A249884252D12020BD
:1054F00006900020119006A803F0C2FB002801D0FE
:1055000003F0B2FBA048016851F00101016000689E
:1055100010F00100059005989C48016851F00201C7
:105520000160006810F00200059005984FF440609B
:105530000090022001900020029003200390082098
:10554000049069469248FBF79FFE924D924828606E
:10555000042068600020A8600020E86080202861A6
:10556000002068610020A8610020E8610020286216
:10557000280003F0F9FD002801D003F075FB6567F2
:10558000AC6200220021462004F08FF8462004F08F
:10559000A1F8ABE020687949884251D101200690FA
:1055A00000200E9006A803F06BFB002801D003F04A
:1055B0005BFB7A48016851F480410160006810F497
:1055C0008040059005987148016851F00201016022
:1055D000006810F0020005900598C020009002209D
:1055E0000190002002900320039007200490694658
:1055F0006748FBF749FE6A4D6A48286002206860E8
:105600000020A8600020E8608020286100206861F8
:105610000020A8610020E86100202862280003F033
:10562000A3FD002801D003F01FFB6567AC620022D8
:105630000021252004F039F8252004F04BF855E02E
:1056400020685049884251D10420069000201090D3
:1056500006A803F015FB002801D003F005FB524813
:10566000016851F480210160006810F480200590E9
:1056700005984648016851F004010160006810F087
:105680000400059005984FF44060009002200190BE
:1056900000200290032003900720049069464348AD
:1056A000FBF7F2FD424D434828600220686000206D
:1056B000A8600020E8608020286100206861002048
:1056C000A8610020E86100202862280003F04CFD5A
:1056D000002801D003F0C8FA6567AC6200220021FF
:1056E000272003F0E2FF272003F0F4FF1FB030BDB6
:1056F00010B5040020681F49884210D12248016873
:105700004908490001604FF440612148FBF79DFEC4
:10571000606F03F099FD462003F0E3FF27E0206867
:10572000164988420FD11D48016831F4804101605B
:10573000C0211748FBF789FE606F03F085FD252027
:1057400003F0CFFF13E020680E4988420FD11648BE
:10575000016831F4802101604FF440611348FBF788
:1057600074FE606F03F070FD272003F0BAFF10BDD8
:10577000941E0020008000401C1F002000380140C3
:10578000A41F0020004800405C1002404C10024062
:1057900000040048D423002080040240601002402E
:1057A0001C24002058000240581002400008004805
:1057B000642400203000024080B51848FBF76CFFDD
:1057C00002201749087001BD80B50122154916480D
:1057D00000F0E3F800220121272003F066FF2720D4
:1057E00003F078FF01BD704738B504000B480D4940
:1057F0000A78036885885A558288521C828082887C
:1058000040F2FF139A4201D300228280012206480F
:1058100000F0C3F801200249087031BD180A0020C9
:10582000CD260020CC260020A41F002070B5040047
:10583000FEF7AEFE0500260016F1010F02D0044867
:1058400000783618FEF7A4FE401BB042FAD370BDB4
:105850006B0A002010B50400002C01D1012035E0B6
:10586000A0690028FFD1E06F002805D1002084F84E
:1058700078002000FFF72AFE2420E06720680068F7
:105880004008400021680860606A002802D02000BB
:1058900000F0DEFB200000F05FFA012801D10120BA
:1058A00014E02068406830F4904021684860206827
:1058B000806830F02A00216888602068006850F015
:1058C000010021680860200000F02FFC10BD2DE9C8
:1058D000FC4706000D0017009846F06F202859D1AC
:1058E000002D03D0380080B2002801D1012052E001
:1058F0000020C6F884002120F067FEF749FE8146AB
:10590000A6F85070A6F85270B068B0F5805F05D167
:105910003069002802D10024AA4602E02C005FF082
:10592000000AB6F85200002822D0CDF800804B467D
:1059300000228021300000F061FC002803D02020EC
:10594000F067032027E0002C08D1BAF80000C0055A
:10595000C00D316808851AF1020A03E02078316829
:105960000885641CB6F85200401EA6F85200D8E71D
:10597000CDF800804B4600224021300000F03EFC74
:10598000002803D02020F067032004E02020F067E7
:10599000002000E00220BDE8F68770B505000C008D
:1059A0001600D5F88000202824D1002C03D0300028
:1059B00080B2002801D101201DE00020286628685F
:1059C000DFF8901388420ED02868406800020AD59C
:1059D000286850E8000F50F0806001002A6842E813
:1059E00000100028F4D1320092B22100280000F00B
:1059F00054FC00E0022070BD2DE9F047060030683D
:105A0000C7693068D0F800803068D0F8089040F658
:105A10000F043C40002C0BD1B80609D55FEA886022
:105A200006D5B06E002802D03000B16E88478FE1F5
:105A3000002C00F0AA805FEAC97005D4DFF80806E0
:105A400018EA000F00F0A18017F00100C0B2002892
:105A50000BD05FEAC85008D5012031680862D6F83B
:105A6000840050F00100C6F88400B8070DD519F085
:105A70000100C0B2002808D0022031680862D6F8C0
:105A8000840050F00400C6F8840078070DD519F0A2
:105A90000100C0B2002808D0042031680862D6F89E
:105AA000840050F00200C6F88400380710D55FEA81
:105AB000886004D419F00100C0B2002808D0082082
:105AC00031680862D6F8840050F00800C6F88400F7
:105AD00038050CD55FEA481009D54FF400603168ED
