:020000040800F2
:10000000482A002005E7000855E0000857E00008EE
:1000100059E000085BE000085DE000080000000017
:100020000000000000000000000000005FE0000889
:1000300061E000080000000063E0000865E00008DF
:10004000ADE90008B1E90008B5E90008B9E9000820
:10005000BDE90008C1E90008C5E90008C9E90008D0
:10006000CDE90008D1E90008D5E90008D9E9000880
:10007000DDE9000875E00008E1E900087FE000081C
:10008000E5E90008E9E90008EDE90008F1E9000800
:10009000F5E90008F9E90008FDE9000801EA0008AF
:1000A00005EA000809EA00080DEA000811EA00085C
:1000B00015EA0008000000000000000019EA00082E
:1000C0001DEA000821EA000825EA000829EA0008DC
:1000D0002DEA000889E0000831EA000893E00008F2
:1000E00035EA00089DE00008000000000000000064
:1000F0000000000000000000000000000000000000
:100100000000000039EA0008000000003DEA000895
:10011000000000000000000041EA000845EA000875
:1001200049EA00084DEA000851EA000855EA0008CB
:1001300059EA000800000000000000000000000074
:100140005DEA000861EA000865EA000869EA00085B
:100150006DEA0008A7E00008B1E0000871EA0008B5
:1001600075EA000879EA00087DEA0008000000004E
:1001700081EA000885EA000889EA0008000000001A
:100180008DEA000891EA000895EA000880B5DFF8DA
:100190008C0A0078012806D0022807D0042808D04D
:1001A000082809D00BE000F088F808E000F03BFCDC
:1001B00005E000F03BFD02E000F04AFEFFE701BD74
:1001C0002DE9F0410024DFF8545A287A002871D133
:1001D000DFF84C6A0421300001F0E2F9002801D177
:1001E000012700E000270221300001F0D9F90028A2
:1001F00002D15FF0010801E05FF00008012130004A
:1002000001F0CEF9002801D1012600E000262021CE
:10021000DFF8100A01F0C4F9002801D1012000E044
:10022000002057EA480757EA86073C0054EAC00412
:100230002000C0B2012805D0022803D0042801D034
:1002400008282DD16868401C68606868502826D34B
:100250002C7001202872DFF8D00921000278C9B281
:10026000914215D1DFF8CC1B0A68521C0A600A685B
:10027000322A04D350226A6032220A600EE00968F2
:10028000322902D34E21696008E00021696005E04F
:10029000002169600021DFF89C2B1160047009E0E7
:1002A0000020DFF884190870282068600020DFF83B
:1002B000841B08602878BDE8F0817FB5DFF8784BB3
:1002C000A078002810D0012832D0022861D003285D
:1002D00000F0C080042800F04381052800F0F5817B
:1002E000072800F000839DE3DFF830590020E86024
:1002F000DFF8486B0A220021300001F0D7F93020E6
:100300003070302070703020B0703020F070E868AD
:100310000001801CC0B203900296052001900420C9
:100320000090052300220121A01C01F0C9FE79E301
:10033000DFF8E808C168491CC160C16804291EDBF8
:10034000DFF8F80A01F0D7FE012815D1A51C062216
:10035000290014F1080001F0F7F9F12003900020C2
:1003600002900A200190072000900723002202211A
:10037000280001F0A5FE0BE00020A07008E0C06896
:100380000001801C0200D2B20021A01C01F075FE09
:1003900048E32079072806D05BD309282FD018D34B
:1003A0000A2841D055E0A51C0622290014F10800B6
:1003B00001F0CAF9F1200390002002900D20019075
:1003C0000C2000900C2300220321280001F078FE6D
:1003D0003FE0A51C0622290014F1080001F0B4F941
:1003E000F120039000200290102001900F20009037
:1003F0000F2300220421280001F062FE29E0A51C41
:100400000622290014F1080001F09EF9F120039062
:10041000002002901520019012200090122300224B
:100420000521280001F04CFEA51C0622290014F12C
:10043000080001F089F900200390002002901720A5
:10044000019017200090172300220621280001F0B8
:1004500037FEE7E220790C2802D00D2840D07EE05C
:10046000E078002802D001281FD038E0A61C062220
:10047000310014F1080001F067F9DFF8A057F2200D
:10048000039015F10C0002900D2001900C200090BB
:100490000C23E278521CD2B20321300001F010FE8E
:1004A000DFF89C094078E86019E0A51C06222900C5
:1004B00014F1080001F048F9F020039000200290A8
:1004C0001A2001901A2000901A23002207212800E8
:1004D00001F0F6FD0120DFF868190870FFE73EE043
:1004E000E078002802D001281FD038E0A61C0622A0
:1004F000310014F1080001F027F9DFF82057F2204D
:10050000039015F10C0002900D2001900D20009039
:100510000D23E278521CD2B20321300001F0D0FD4D
:10052000DFF81C094068E86019E0A51C06222900D4
:1005300014F1080001F008F9F02003900020029067
:100540001A2001901A2000901A2300220721280067
:1005500001F0B6FD0120DFF8E8180870FFE761E25E
:1005600020790F2802D0102845D0ADE0E07800288F
:1005700002D001281FD03DE0A61C0622310014F154
:10058000080001F0E1F8DFF89456F220039015F12D
:100590000C000290102001900F2000900F23E278B1
:1005A000521CD2B20421300001F08AFDDFF890081D
:1005B000806BE8601EE0A51C0622290014F10800EB
:1005C00001F0C2F8F0200390002002901A20019060
:1005D0001A2000901A2300220721280001F070FD44
:1005E000DFF860185FF07E5008600422022002F0FD
:1005F00035FAFFE768E0E078002802D001281FD034
:1006000061E0A61C0622310014F1080001F09CF8FC
:10061000DFF80856F220039015F10C00029010202C
:1006200001900F2000901023E278521CD2B20421D6
:10063000300001F045FDDFF80808C06BE86042E0DB
:10064000A51C0622290014F1080001F07DF8F02015
:100650000390002002901A2001901A2000901A2383
:1006600000220721280001F02BFDDFF8D8475FF0BA
:100670007E502060DFF8D0570021DFF8C407C06B40
:1006800003F024F885ED000ADFF8C0670021DFF8E9
:100690008C05C06803F01AF886ED000A95ED000A93
:1006A000B5EE400AF1EE10FA07D096ED000AD5ED4E
:1006B000000A80EE200A84ED000A042221000320B3
:1006C00002F0CCF9FFE7FFE7ACE12079122809D06E
:1006D000C0F00881142800F0858043D3152800F06D
:1006E000C180FFE0E078002802D001281FD038E068
:1006F000A61C0622310014F1080001F025F8DFF8ED
:100700001C55F220039015F10C0002901520019069
:10071000122000901223E278521CD2B20521300040
:1007200001F0CEFCDFF81807806AE86019E0A51C2C
:100730000622290014F1080001F006F8F0200390C9
:10074000002002901A2001901A2000901A23002203
:100750000721280001F0B4FC0120DFF8E41608703E
:10076000FFE7BFE0E078002802D001281FD038E082
:10077000A61C0622310014F1080000F0E5FFDFF8A6
:100780009C54F220039015F10C000290152001906A
:10079000122000901323E278521CD2B205213000BF
:1007A00001F08EFCDFF89806C06AE86019E0A51C2D
:1007B0000622290014F1080000F0C6FFF020039083
:1007C000002002901A2001901A2000901A23002283
:1007D0000721280001F074FC0120DFF8641608707E
:1007E000FFE77FE0E078002802D001281FD038E042
:1007F000A61C0622310014F1080000F0A5FFDFF866
:100800001C54F220039015F10C0002901520019069
:10081000122000901423E278521CD2B2052130003D
:1008200001F04EFCDFF81806006BE86019E0A51C2B
:100830000622290014F1080000F086FFF020039042
:10084000002002901A2001901A2000901A23002202
:100850000721280001F034FC0120DFF8E4150870BE
:10086000FFE73FE0E078002802D001281FD038E001
:10087000A61C0622310014F1080000F065FFDFF825
:100880009C53F220039015F10C000290152001906A
:10089000122000901523E278521CD2B205213000BC
:1008A00001F00EFCDFF89805406BE86019E0A51C2C
:1008B0000622290014F1080000F046FFF020039002
:1008C000002002901A2001901A2000901A23002282
:1008D0000721280001F0F4FB0120DFF864150870FF
:1008E000FFE7FFE79EE0207A032806D0C0F099805A
:1008F000052834D0C0F0928093E00320DFF8401543
:100900000870A07A0C2802D00D280AD026E0DFF863
:1009100030094178DFF80403C068C0B203F04AF937
:100920001CE000200100C9B20B2910DADFF814190D
:100930000200D2B251F82210DFF8E022D2689142D0
:1009400003D1DFF8FC18487001E0401CEAE7DFF84B
:10095000F0084178007803F02DF9FFE761E003200B
:10096000DFF8DC140870A07A122806D055D31428BA
:100970002BD016D315283CD04FE0DFF8CC08D0EDB3
:100980000C1A90ED0A1AD0ED0B0AA448C068642135
:1009900090FBF1F000EE100AB8EEC00A02F0EEF89B
:1009A0003BE0DFF8A408D0ED0C1A90ED0A1A9B4941
:1009B000C968642291FBF2F100EE101AF8EEC00A49
:1009C00090ED090A02F0DAF827E0DFF87C08D0EDB4
:1009D0000C1A9249C968642291FBF2F100EE101AD8
:1009E000B8EEC01AD0ED0B0A90ED090A02F0C6F875
:1009F00013E0DFF854088949C968642291FBF2F1D9
:100A000000EE101AF8EEC01A90ED0A1AD0ED0B0A9B
:100A100090ED090A02F0B2F8FFE702E002F00DF8EB
:100A2000FFE7FFE77FBD10B5DFF80C3498780028AA
:100A300009D0022818D007D304286ED021D3052866
:100A400000F09C80E9E0E8E0DFF8F0037349CA6851
:100A5000825C521CCB68C254CA68825C3A2A02DBB0
:100A60003022C9684254D8E058791979884202D2B4
:100A70001879401E1871F1220021981C01F0FDFA2E
:100A8000CBE0D87800280CD158791979884202D265
:100A90001879401E1871F1220021981C01F0EDFA1E
:100AA0003AE018790C2802D00D2811D034E0D8781B
:100AB000002802D0012801D009E008E05748C168A9
:100AC000B1F5807F02DAC168491CC160FFE723E00D
:100AD000D878002802D0012801D01DE01CE00021B8
:100AE0000800C0B20B2816DADFF858274B480B0075
:100AF000DBB252F82330C468A3420AD10B00DBB248
:100B00000A2B06DA0B00DBB202EB83025268C260EA
:100B100001E0491CE4E7FFE77FE0D87800280CD12A
:100B200058791979884202D21879401E1871F12239
:100B30000021981C01F0A1FA1FE018790F2802D0BB
:100B400010280DD019E0D878002802D0012801D053
:100B500005E004E04FF47A703049C860FFE70CE02C
:100B6000D878002802D0012801D005E004E02B4805
:100B7000C168491CC160FFE7FFE74EE0D878002854
:100B80000CD158791979884202D21879401E18710F
:100B9000F1220021981C01F070FA3DE0187912282A
:100BA00006D039D314281DD00FD3152827D033E011
:100BB000D878002802D0012801D005E004E01748C9
:100BC000C168491CC160FFE726E0D878002802D040
:100BD000012801D005E004E01048C168491CC1604B
:100BE000FFE719E0D878002802D0012801D005E0FD
:100BF00004E00A48C168491CC160FFE70CE0D878EE
:100C0000002802D0012801D005E004E00348C168B3
:100C1000491CC160FFE7FFE7FFE710BD5825002032
:100C200000040048000800483826002010B5824B18
:100C30009878002809D0022818D007D3042870D04B
:100C400021D3052800F0A280F3E0F2E07B48DFF832
:100C5000FC15CA68825C521ECB68C254CA68825CAA
:100C6000302A02DA3922C9684254E2E018799979C7
:100C7000884202D21879401C1871F1220021981C78
:100C800001F0FBF9D5E0D87800280CD118799979D2
:100C9000884202D21879401C1871F1220021981C58
:100CA00001F0EBF93CE018790C2802D00D2811D0A6
:100CB00036E0D878002802D0012801D009E008E009
:100CC000DFF88805C168012902DBC168491EC160DF
:100CD000FFE725E0D878002802D0012801D01FE0E6
:100CE0001EE00A221000C0B2002818D0DFF85435E8
:100CF000DFF858151000C0B253F82000CC68A042AD
:100D00000BD11000C0B2002807D01000C0B203EB16
:100D1000800050F8040CC86001E0521EE2E7FFE7D3
:100D200087E0D87800280CD118799979884202D2C6
:100D30001879401C1871F1220021981C01F09DF9CE
:100D400023E018790F2802D010280ED01DE0D878A3
:100D5000002802D0012801D006E005E04FF47A70A7
:100D6000DFF8E814C860FFE70FE0D878002802D069
:100D7000012801D009E008E0DFF8D004C1680129AA
:100D800002DBC168491EC160FFE752E0D878002845
:100D90000CD118799979884202D21879401C1871BF
:100DA000F1220021981C01F068F941E0187912281D
:100DB00006D03DD314281FD010D315282AD037E0F1
:100DC000D878002802D0012801D006E005E0DFF83D
:100DD0007C04C168491EC160FFE729E0D87800287B
:100DE00002D0012801D006E005E0DFF86004C16808
:100DF000491EC160FFE71BE0D878002802D0012817
:100E000001D006E005E0DFF84404C168491EC16076
:100E1000FFE70DE0D878002802D0012801D006E0D5
:100E200005E0DFF82804C168491EC160FFE7FFE75D
:100E3000FFE710BDE4250020B025002000000020C1
:100E40005C240020E8250020EC250020F02500206F
:100E500038B584B0DFF8F843A07800280FD0022816
:100E600011D00DD3042800F083800FD3062800F0A2
:100E7000D181C0F0EE80072800F0D381DEE1DDE112
:100E80000020A070DAE10020A070D7E120790C28C2
:100E900002D00D2836D06AE0E078002802D0012880
:100EA00016D02EE0A51CF1200390002002900A200D
:100EB000019007200090072300220221280001F062
:100EC000FFF80622290014F1080000F03DFC18E0AC
:100ED000A51C0622290014F1080000F035FCF120C1
:100EE0000390DFF8700302900D2001900C20009019
:100EF0000C23E078421ED2B20321280001F0E0F872
:100F0000FFE734E0E078002802D0012816D02DE079
:100F1000A51CF1200390002002900A2001900720D8
:100F20000090072300220221280001F0C9F80622C0
:100F3000290014F1080000F007FC17E0A51C0622A8
:100F4000290014F1080000F0FFFBF1200390C248D3
:100F500002900D2001900C2000900D23E078421E9D
:100F6000D2B20321280001F0ABF8FFE7FFE765E10B
:100F700020790F2802D0102835D069E0E0780028C9
:100F800002D0012816D02DE0A51CF12003900020EE
:100F90000290102001900F2000900F2300220221C8
:100FA000280001F08DF80622290014F1080000F055
:100FB000CBFB17E0A51C0622290014F1080000F065
:100FC000C3FBF1200390A5480290102001900F2050
:100FD00000900F23E078421ED2B20421280001F0D5
:100FE0006FF8FFE734E0E078002802D0012816D03F
:100FF0002DE0A51CF120039000200290102001900C
:101000000F200090102300220221280001F058F840
:101010000622290014F1080000F096FB17E0A51C39
:101020000622290014F1080000F08EFBF120039045
:101030008B480290102001900F2000901023E07840
:10104000421ED2B20421280001F03AF8FFE7FFE780
:10105000F4E02079122808D0C0F0DB8014286ED08C
:1010600038D3152800F0A080D3E0E078002802D023
:10107000012816D02DE0A51CF1200390002002903D
:101080000A20019007200090072300220221280057
:1010900001F016F80622290014F1080000F054FBB4
:1010A00017E0A51C0622290014F1080000F04CFBF3
:1010B000F12003906B4802901520019012200090BF
:1010C0001223E078421ED2B20521280000F0F8FF7A
:1010D000FFE79EE0E078002802D0012816D02DE03E
:1010E000A51CF1200390002002900A200190072007
:1010F0000090072300220221280000F0E1FF0622D1
:10110000290014F1080000F01FFB17E0A51C0622BF
:10111000290014F1080000F017FBF1200390524859
:10112000029015200190122000901323E078421EB7
:10113000D2B20521280000F0C3FFFFE769E0E078A4
:10114000002802D0012816D02DE0A51CF120039024
:10115000002002900A20019007200090072300221F
:101160000221280000F0ACFF0622290014F108003B
:1011700000F0EAFA17E0A51C0622290014F1080085
:1011800000F0E2FAF1200390384802901520019017
:10119000122000901423E078421ED2B205212800CC
:1011A00000F08EFFFFE734E0E078002802D001284D
:1011B00016D02DE0A51CF1200390002002900A20FB
:1011C000019007200090072300220221280000F050
:1011D00077FF0622290014F1080000F0B5FA17E0A5
:1011E000A51C0622290014F1080000F0ADFAF12038
:1011F00003901F48029015200190122000901523A3
:10120000E078421ED2B20521280000F059FFFFE726
:10121000FFE713E0062214F10801A01C00F094FA85
:101220000CE0144D2878022807D0062214F108019A
:10123000A01C00F089FA00202870FFE705B030BD3F
:10124000000A00209C0400201424002058250020BF
:10125000B02500205D24002060240020942400207C
:101260009824002084240020882400208C2400203E
:10127000902400205C240020F8B4030000250868B6
:10128000E840002800F0D78001260F6816FA05F024
:1012900007403A00002A00F0CC80087910F00300E3
:1012A000012804D0087910F0030002281DD19F689E
:1012B0005FF0030C2800C0B240001CFA00FC37EAC3
:1012C0000C07D1F80CC02800C0B240001CFA00FC8A
:1012D0005CEA07079F605868AE40B0434E68C6F3AB
:1012E0000016AE40304304005C60087910F0030043
:1012F00003280ED0DE6803272800C0B240008740D4
:10130000BE438F682800C0B2400087403E4334008F
:10131000DC60087910F00300022818D12800C0080A
:1013200003EB8000066A0F2715F00700C0B28000AB
:101330008740BE430F6915F00700C0B280008740A8
:101340003E4334002800C00803EB800004621E689E
:1013500003272800C0B240008740BE430F7917F032
:1013600003072800C0B2400087403E4334001C60A1
:10137000486810F4403F5CD09548066856F0010676
:101380000660006810F0010000900098914F28005E
:10139000800857F820605FF00F0C15F00300C0B212
:1013A00080001CFA00FC36EA0C06B3F1904F01D124
:1013B000002414E08848834201D101240FE08748CB
:1013C000834201D102240AE08548834201D10324EB
:1013D00005E08448834201D1042400E0072415F08D
:1013E0000300C0B28000844026432800800847F8EC
:1013F00020607D4C206890434F68FF0200D5104369
:1014000020607A4E346894434F68BF0200D514437D
:101410003460774E306890434F68BF0300D5104367
:101420003060744E346894434F68FF0300D5144312
:1014300034606D1C23E7F1BC70472DE9F0410300D7
:1014400000250800E840002800F0A880012616FAD0
:1014500005F008400200002A00F09E80DFF874C109
:10146000280080085CF820000F2715F0030E5FFAB3
:101470008EFE5FEA8E0E17FA0EFE1EEA00000400D2
:10148000B3F1904F02D15FF0000E19E05248834251
:1014900002D15FF0010E13E05048834202D15FF0A9
:1014A000020E0DE04E48834202D15FF0030E07E0CA
:1014B0004C48834202D15FF0040E01E05FF0070E5A
:1014C00015F00300C0B280001EFA00FE74452CD156
:1014D0004848D0F800E03EEA020EC0F800E0444878
:1014E000D0F800E03EEA020EC0F800E03F48D0F835
:1014F00000E03EEA020EC0F800E03B48D0F800E011
:101500003EEA020EC0F800E015F00300C0B2800011
:1015100017FA00F00400280080085CF82000A043BF
:10152000AE465FEA9E0E4CF82E005FF0030C186882
:10153000AE465FFA8EFE5FEA4E0E1CFA0EFE5EEAC3
:10154000000018602800C00803EB800E2800C008C7
:1015500003EB8000D0F8208015F00700C0B28000B7
:10156000874038EA0707CEF8207098682F00FFB24E
:101570007F001CFA07F7B84398605868AE4030EA1D
:1015800006065E60DE682800C0B240001CFA00FC5F
:1015900036EA0C0CC3F80CC06D1C52E7BDE8F081B4
:1015A000020010690B009BB2184201D0012000E03C
:1015B0000020C0B270471300DBB2002B03D00B0039
:1015C0009BB2836102E00B009BB283627047000014
:1015D0006010024008000140000400480008004874
:1015E000000C004800100048080401400C040140B1
:1015F000040401400004014038B504000D00DFF888
:10160000FC010168200000F006F8A84201D3012087
:1016100000E0002032BD814204D25FF0FF32101A98
:10162000081800E0081A704738B52DED048B08EE55
:10163000100A0C001500DFED438A2800C0B2FB2819
:1016400010DBB8EEC89A2800C0B24042C0B200F029
:101650008BF829EE009A00212000B0EE490A00F034
:10166000B1F80EE0B8EEC89A2800C0B200F07CF8DD
:1016700089EE009A2900C9B22000B0EE490A00F0B4
:10168000A1F8BDEC048B31BD10B400210A008388A1
:1016900092B29A4206D2002203680C00A4B21A55F4
:1016A000491CF3E70022828010BC704710B404008C
:1016B00013005A1E9BB2002B02D02170641CF7E766
:1016C00010BC704770B504000D001600DFF824014F
:1016D00000782100C9B2884209D3DFF824211068BC
:1016E000002804D0310089B228001268904770BDEC
:1016F00038B504000D00280002F06CFC020092B224
:1017000029002000C0B2FFF7DDFF31BD70B5040035
:101710000D00280002F05EFC020092B229002000B9
:10172000C0B2FFF7CFFFDFF8DC603068002807D0D9
:10173000280002F04FFC010089B22800326890476F
:1017400070BD00000000000030B404000D00130064
:101750005A1E9BB2002B04D02B7823706D1C641C86
:10176000F5E730BC7047000010B504002000C0B29F
:10177000FB2816DB2000C0B2D0F5807002F04AFCD6
:1017800041EC110B9FED200B02F059FC53EC102B98
:101790000020194902F05CFC02F07EFD00EE100A08
:1017A0000FE02000C0B202F0ABFD41EC110B9FED49
:1017B000160B02F044FC51EC100B02F06DFD00EE34
:1017C000100A10BD38B52DED028B82B0B0EE408A04
:1017D00004000D0018EE100A02F0A0FDCDE9000192
:1017E0002A000B49200002F0BDFD02B0BDEC028BC7
:1017F00031BD0000040A00200000F03F1C2600203C
:1018000024260020202600200000000000002440A4
:101810009CE9000880B502F0C5FD02F06BFE02F005
:10182000D8FE00F019FDDFF8B009DFF8B0194A1C46
:10183000C0F828210A1DC0F8402111F11802826069
:1018400011F11C03036211F12003836311F12403DE
:101850000365C0F8582111F13802C0F8702111F168
:101860003C02C0F8882111F12802C0F8B82111F11A
:101870002C03C0F8D0313031C0F8E811C0F8002294
:10188000DFF85C190968C0F83012DFF858190968E8
:10189000C0F8601201BD38B5002000242000C0B29D
:1018A000062835DADFF840592000C0B2000128448C
:1018B000407801282AD12000C0B2000128444068A5
:1018C00000280ED002F0DEFE2100C9B20901294431
:1018D0004968401A2100C9B209012944896888422F
:1018E00014D300202100C9B209012944487002F034
:1018F000C9FE2100C9B20901294448602000C0B2D4
:101900002100C9B209012944C9688847641CC5E798
:10191000002032BD38B50400DFF8D05868780028C0
:1019200017D102F03FFD02F0E5FD02F052FE00F09B
:1019300093FC89200090202307220521DFF8B008BE
:1019400002F0A6FE012068700221DFF89C0802F078
:10195000E7FF012032BD7CB50400DFF898582878F5
:10196000002803D0022823D003D33DE003F002F87F
:101970003AE002F0BFFD89200090202307220521D4
:10198000DFF86C0802F084FEDFF86C2801212C20BF
:1019900002F098FFDFF864280221082002F092FF8D
:1019A00002F017FE41F28830DFF83C1888611BE036
:1019B0000120DFF838184870892000902023072282
:1019C0000521DFF82C0802F063FEDFF81C68022115
:1019D000300002F0A5FF0321300002F0A1FF042136
:1019E000300002F09DFFFFE72878401C287021009E
:1019F000C9B2DFF8F40702F0A2FF012076BD70B58E
:101A0000040000F09FF8DFF8E4576878012803D15C
:101A1000A87800F00BFB04E00021DFF8CC0702F00F
:101A20007FFFDFF8DC07A9780278914207D0A97818
:101A30000170DFF8D0070068DFF8CC170860A878DD
:101A4000082812D1DFF8C0674FF4FA613068FFF759
:101A5000D3FD012809D1DFF8AC0700683060062209
:101A600015F10801A81CFFF76FFE2100C9B2DFF8CD
:101A7000780702F064FF012070BD10B50400DFF8A4
:101A80008C17DFF88C070069FFF7B6FD012827D116
:101A9000DFF880070178012905D1002101700020BD
:101AA000DFF848178870DFF870070188491C01804B
:101AB00042F21071DFF830272300DBB21B011A4419
:101AC0009268B1FBF2F102888A420DD300210180B5
:101AD000DFF818178878002806D00020887003E007
:101AE0000120DFF8301708702100C9B2DFF8F806CE
:101AF00002F025FF012010BD38B50400FEF760FBA1
:101B0000DFF80C57287A012808D10521DFF8D8061C
:101B100002F006FFDFF8EC06006828612100C9B278
:101B2000DFF8C40602F00BFF012032BD10B504003F
:101B3000FEF72CFBDFF8D8060021017000210172AE
:101B4000012010BDDFF89406DFF8D0160A78427045
:101B5000DFF8CC26497852F8211041609FED3A0A0F
:101B6000DFF8C016D1ED010A60EE800AFDEEE00A52
:101B7000C0ED020AD1ED030A60EE800AFDEEE00A34
:101B8000C0ED030AD1ED020A60EE800AFDEEE00A24
:101B9000C0ED040AD1ED040A60EE800AFDEEE00A11
:101BA000C0ED050AD1ED050A60EE800AFDEEE00AFF
:101BB000C0ED060AD1ED070A60EE800AFDEEE00AEC
:101BC000C0ED070AD1ED060A60EE800AFDEEE00ADC
:101BD000C0ED080AD1ED080A60EE800AFDEEE00AC9
:101BE000C0ED090AD1ED090A60EE800AFDEEE00AB7
:101BF000C0ED0A0AD1ED0B0A60EE800AFDEEE00AA4
:101C0000C0ED0B0AD1ED0A0A60EE800AFDEEE00A93
:101C1000C0ED0C0AD1ED0C0A20EE800ABDEEC00A20
:101C200080ED0D0A91ED0D0ADFED080A20EE200A85
:101C3000BDEEC00A80ED0E0A91ED0E0ABDEEC00A9F
:101C400080ED0F0A704700000000C84200007A448F
:101C50002DE9F84F8AB006002021002202AC2000B6
:101C600002F092FE002400255FF0000A00208DF8AB
:101C700004001827DFF860853000C0B27843404484
:101C800090F815903000C0B2784340444068002876
:101C900042D001213000C0B200F072F900280ED10C
:101CA0003000C0B27843404442683000C0B278434C
:101CB0004044017D4846C0B202F004FE1EE05FF0E1
:101CC000000B3000C0B278434044406802F082F913
:101CD0005946C9B2814207D2202002A95A46D2B23F
:101CE00088541BF1010BECE702AA3000C0B2784324
:101CF0004044017D4846C0B202F0E4FD3000C0B26D
:101D000078434044406802F065F9DFF81C15097912
:101D1000491C484310FA89F93000C0B27843404466
:101D20008068002800F003813000C0B2784340444E
:101D3000007B00280BD002281ED012D3042830D0FC
:101D400024D3062844D036D307283ED042E03000C2
:101D5000C0B27843404480680078002104000D0040
:101D600038E03000C0B278434044806890F9000009
:101D7000C11704000D002DE03000C0B2784340448C
:101D800080680088002104000D0023E03000C0B20C
:101D9000784340448068B0F90000C11704000D008A
:101DA00018E03000C0B278434044806800680021E9
:101DB00004000D000EE03000C0B27843404480685B
:101DC0000068C11704000D0004E00120824601E014
:101DD000022082465046C0B200280CD13000C0B26A
:101DE00078434044407B40420200D2B202A9200026
:101DF000FFF71AFC26E05046C0B201281AD1300085
:101E0000C0B278434044806802F0E4F8202819D238
:101E10003000C0B278434044806802F0DBF8020032
:101E200092B23000C0B278434044816802A8FFF704
:101E30008BFC07E03000C0B27843404480680078F3
:101E40008DF8080002213000C0B200F099F8012896
:101E500023D13000C0B278434044807DC0B2000935
:101E60008DF804009DF804000F2805D0202002A959
:101E70009DF80420885410E05FF0000B02A802F0E7
:101E8000A9F85946C9B2814207D2202002A95A4670
:101E9000D2B288541BF1010BF0E73000C0B2002829
:101EA00029D1392000902E2315220F21DFF87C0341
:101EB00002F09EFD02AA3000C0B278434044017D8A
:101EC0004846C0B202F03EFF5A2000904123112242
:101ED0001121DFF85C0302F08BFDA5A2072164202D
:101EE00002F030FF89200090202307220521C048FE
:101EF00002F0CEFB11E0892000902023072205216B
:101F0000BB4802F0C5FB02AA3000C0B2784340448F
:101F1000017D4846C0B202F0D5FC02A802F05AF892
:101F2000C1490979491C484310FA89F081463000BB
:101F3000C0B278434044006900281ED03000C0B2CF
:101F4000784340448068002817D03000C0B27843FE
:101F500040448068B74988420FD03000C0B278430F
:101F6000404402693000C0B207FB00F708EB0700ED
:101F7000017D4846C0B202F0A5FC0BB0BDE8F08F71
:101F8000F8B504000D0094492200D2B21820424353
:101F900001EB0200817D2800C0B201402800C0B2E0
:101FA00081422FD17026A44F4FF496712800C0B201
:101FB000704338442200D2B250F82200FFF71CFBD5
:101FC00001282AD12800C0B206FB00F607EB060064
:101FD0002100C9B28B4A126840F821201C20974981
:101FE0002A00D2B242430A442300DBB22E00F6B2EA
:101FF00000FB06F008442100C9B2405CD0F10100AA
:10200000D0540AE08D492A00D2B21C20424301EB91
:1020100002002100C9B2002242548849EDB21C20BE
:10202000454301EB0500E4B2005DF2BD70B504006C
:10203000002602F05FFA2000C0B200F073F8200022
:10204000C0B200F097F80025280080B21C2811DAF1
:1020500061492A0092B21820424301EB0200C07D80
:102060002100C9B2884203D12800C0B2FFF7F0FDB9
:102070006D1CE9E702F0ADFA70BDF0B44271C478AE
:1020800003792500EDB2AB420AD3F025524E27006A
:10209000FFB218235F4306EB07039D75641CEFE74F
:1020A00018234D4C85785D4325444679AE7500294B
:1020B00004D0857803FB05F323449960F0BC704796
:1020C0002DE9F84F0700884691469A460A9E0B9DD7
:1020D000DDF830B00D9C87F8008087F8019087F814
:1020E00002A0FE703D712200D2B259463800FFF7BF
:1020F000C4FFBDE8F18F10B4010000221000C0B28F
:1021000004280CD21000C0B2085C4D4B1400E4B29D
:102110001B5D984201D0002002E0521CEEE7012036
:1021200010BC704770B504002000C0B200281ED15A
:102130003C48007800280DD1274D25A63200297D86
:10214000782002F0BFFB320095F85C10782002F096
:10215000B9FB0CE01FA6204D3200297D782002F04B
:10216000B1FB320095F85C10782002F0ABFB70BD3B
:102170004D0000000100C9B2072924D11749097890
:10218000002906D002290ED008D3042915D00FD378
:1021900018E02C49104AC2F8781218E02A490E4A71
:1021A000C2F8781213E029490B4AC2F878120EE0FF
:1021B0002749094AC2F8781209E02649064AC2F8B6
:1021C000781204E003E01F49034AC2F8781270470E
:1021D000200000004E000000C80000205C24002009
:1021E000000400206C0000200C000020B02500201E
:1021F00040DC00083926002084E70008C8E3000816
:102200003A2600201C26002000260020C0270900B6
:10221000582500203B2600202C260020000A002004
:102220009C04002014240020C025002018DA000897
:1022300078D00008020A0020B81C0020E822002004
:102240007400002078000020880000209800002002
:10225000A8000020B800002080B5A02002F066F998
:10226000AE2002F063F9C02002F060F9A12002F074
:102270005DF9A22002F05AF92F2002F057F921202F
:1022800002F054F9282002F06BF9AF2002F04EF969
:1022900001BD30B4002513E050F8042BD30744BF30
:1022A000A9F101039A18091F042942F8045BFAD224
:1022B00013468C0744BF15809B1CC90748BF1D707F
:1022C00050F8041B0029E7D130BC70470100012001
:1022D000704730B587B004001421002202AD2800F9
:1022E00002F052FBDFF80C0BD0E90023CDE900230C
:1022F00002A80090DFF8005B2978684600F068FAD1
:1023000028786870BDF80410009800F016FCDFF81B
:10231000EC0A8078042809D12878002803D128788D
:10232000401C287001E00020287001E00020287087
:10233000DFF8745C0221280002F0F2FA0321280081
:1023400002F0FDFA2100C9B2280002F0F8FA0120DB
:1023500007B030BD10B50400DFF8A41A8888002843
:1023600010D0DFF8440B02888B889A4208D10021F4
:1023700001800221DFF8300C02F0D2FA012008E0DF
:10238000898801802100C9B2DFF81C0C02F0D7FA5D
:10239000012010BD2DE9F041040000250026DFF8E2
:1023A000607AB88803283DDB3868B988084410F89B
:1023B000010C3968BA88114411F8021C51EA002155
:1023C0000E00B988891E386802F0DAFC0500280082
:1023D000310080B289B288421DD10321DFF8C80BD9
:1023E00002F0ADFA3868007806280DD1DFF8088AC7
:1023F000012198F8010000F004FA98F80120D7E9CB
:10240000000100F0EEF913E00021DFF8EC0940785C
:1024100000F0F7F90CE00021DFF8DC09407800F06B
:10242000F0F905E00021DFF8D009407800F0E9F983
:10243000DFF8C409407800F035F80221DFF8680BB6
:1024400002F08FFA0120BDE8F0810100DFF84C0CAA
:102450000278032A01D0042202700120704710B5CF
:1024600004002100C9B2DFF8380C02F068FA01203C
:1024700010BD10B504002100C9B2DFF8240C02F031
:102480005EFA012010BD10B50400DFF8200B02F049
:1024900058FE2100C9B2DFF8080C02F050FA012002
:1024A00010BD000038B504002000C0B2002840F084
:1024B000A280DFF8C45C95ED010ABDEEC00A10EE03
:1024C000100A00F015F985ED010A95ED010A00F0FA
:1024D0007BF985ED050A95ED030A00F076F985EDA7
:1024E000070A95ED020A00F071F985ED060A95EDEF
:1024F000040A00F06CF985ED080A95ED080AD5ED9F
:102500000C0A30EE200A85ED080A95ED050AD5ED96
:10251000090A30EE200AB5EE400AF1EE10FA02D5B3
:102520000020686118E095ED050AD5ED090A30EE46
:10253000200ADFEDA40AB4EE600AF1EE10FA03DB24
:10254000DFF86C0A686107E095ED050AD5ED090A28
:1025500030EE200A85ED050A95ED070AD5ED0B0A48
:1025600030EE200AB5EE400AF1EE10FA02D5002056
:10257000E86118E095ED070AD5ED0B0A30EE200A68
:10258000DFED900AB4EE600AF1EE10FA03DBDFF83B
:10259000200AE86107E095ED070AD5ED0B0A30EE59
:1025A000200A85ED070A95ED050AD5ED090A30EEFA
:1025B000200AB5EE400AF1EE10FA02D5002068615B
:1025C00018E095ED060AD5ED0A0A30EE200ADFED97
:1025D000B60AB4EE600AF1EE10FA03DBDFF8C40AC3
:1025E000A86107E095ED060AD5ED0A0A30EE200A4B
:1025F00085ED060AFFE7DFF8805B2878002807D121
:102600000020686095ED010A00F0DEF885ED050A0E
:102610002878002807D10020E86095ED030A00F033
:10262000D4F885ED070A2878002807D10020A86093
:1026300095ED020A00F0CAF885ED060A2878002810
:1026400007D10020286195ED040A00F0C0F885ED5F
:10265000050A31BD2DE9F04100242500EDB20A2D17
:1026600043DA00252E00F6B2092E3CDA2E00F6B22F
:1026700001EB860676682F00FFB251F82770BE4244
:102680002FDA00262F00FFB251F82770AC465FFA10
:102690008CFC01EB8C0CDCF804C0AE465FFA8EFEBD
:1026A00041F82EC0AC465FFA8CFC01EB8C0CCCF8E8
:1026B0000470AC465FFA8CFC50F82CC0AE465FFA52
:1026C0008EFE00EB8E0EDEF804E0A8465FFA88F876
:1026D00040F828E0AE465FFA8EFE00EB8E0ECEF894
:1026E00004C06D1CBEE7641CB7E7BDE8F0810000C4
:1026F00038B52DED028B04009FEDAB8ADFF8801A10
:10270000087800282AD10120087000210800C0B2F2
:102710000A2815DA0800C0B2DFF8F42A0B00DBB291
:1027200042F82300DFF85C2A0800C0B252F820000B
:10273000002803D10800C0B242F82040491CE5E758
:10274000DFF8405A092300222900DFF8C40AFFF706
:1027500081FF95ED050AB8EEC00A30E000200100C7
:10276000C9B20A291EDADFF8A81A0200D2B251F85B
:102770002220092A0BD100220300DBB241F82320DA
:10278000DFF8001A0200D2B241F8224008E002004D
:10279000D2B251F82220521C0300DBB241F82320B0
:1027A000401CDCE7DFF8DC59092300222900DFF8B0
:1027B000600AFFF74FFF95ED050AB8EEC00ABDECC1
:1027C000028B31BD0100FA44704770477047704773
:1027D00038B504000D002900C9B2200000F01BF834
:1027E00031BD70B504000D00160020000078C0B2A5
:1027F000062805D13200D2B22000290000F056F898
:1028000070BD38B504000D002900C9B22000C0B267
:1028100000F0CCF831BD3EB504000D002800C0B278
:10282000002805D0022815D00BD3032826D039E084
:102830000A200090002303220621200002F0BEFAA5
:1028400030E00C200090002303220621200002F03B
:10285000B5FA27E0DFF8BC09818804290DD10168A9
:1028600001918088022190FBF1F080B200900A2350
:1028700010220621200002F0EFFA13E0DFF894099D
:10288000818804290DD1016801918088022190FB83
:10289000F1F080B200900A2310220621200002F0FD
:1028A000DBFAFFE737BD00000100C8422DE9F3471E
:1028B00082B014000020ADF8000000252000C0B256
:1028C000002805D0022869D042D3032866D068E0EA
:1028D0000320ADF8000004226946029800F0FAF8DF
:1028E0000600DFF834A91AF10401300000F018FEE8
:1028F00004226946029800F0EDF8070004226946B8
:10290000029800F0E7F880461AF11001404600F006
:1029100007FE04226946029800F0DCF881461AF1AD
:102920000C01484600F0FCFD04226946029800F0C4
:10293000D1F805001AF10801280000F0F1FD9AED28
:10294000020ADFED8D0A80EE200A8AED020A28E0F5
:102950000320ADF8000004226946029800F0BAF89E
:102960000600DFF8B48818F10401300000F0D8FD4B
:10297000D8F80400C8F8380010226946029800F020
:10298000A9F8070004226946029800F0A3F80500A0
:1029900018F13401280000F0C3FD02E000F042F815
:1029A000FFE7BDE8FF870000000000000200D2B290
:1029B000002A032A1BD80A00D2B2012A0ED1DFF85E
:1029C000B82700235370012313700200D2B2002AEB
:1029D0000CD10122DFF84438DA7007E0DFF89827DD
:1029E0005378032B02DA53785B1C5370FFE7DFF850
:1029F00088375A78002A14D05A78032A11DB00222B
:102A00001A7000225A6000221A610022DA60002245
:102A10009A6000225A6300229A630022DFF8FC3792
:102A2000DA70704780B50320DFF870160870042153
:102A3000DFF86C0601F095FF01BD80B5DFF8E00717
:102A40000078DFF8B41308700220DFF85016087021
:102A50000421DFF84C0601F072FF01BD2DE9F041C1
:102A600004000D0016002F00DFF8A8874046FEF78F
:102A70000BFE300080B2022802D004280BD01DE0EB
:102A80007878D8F8001008703878D8F800104870B6
:102A9000A8F8046015E07878D8F800100870387845
:102AA000D8F800104870F878D8F800108870B87816
:102AB000D8F80010C870A8F8046002E00020A8F858
:102AC0000400DFF85C0704700120DFF85817087075
:102AD000BDE8F081F0B4030000200C881500EDB2D1
:102AE000042D16D12500ADB21D44AE782500ADB23F
:102AF0001D44ED7855EA06252600B6B29E5D2700F6
:102B0000BFB21F447F7857EA062757EA05473800C7
:102B10000DE01500EDB2022D09D12500ADB25D5DCD
:102B20002600B6B21E44767856EA052630000D8897
:102B300055FA82F50D80F0BC704770B504000D00A9
:102B4000DFF8E46601224FF480513000FEF733FDD8
:102B50000A2002F0FDFA4FF47A732A0092B22100A3
:102B6000DFF8C80602F045FB00224FF48051300028
:102B7000FEF721FD70BD000000401C462DE9F84F16
:102B80002DED048B8EB0F0EE409AB0EE608AF0EE40
:102B9000418AB0EE619A3221002201AC200001F09E
:102BA000F3FE5FF0000B00200090002400250026BB
:102BB000DFF8C4A5CAED099A8AED0B8ACAED0A8A24
:102BC0008AED0C9A9AED090A00F06EFE07009AED64
:102BD0000B0A00F069FE80469AED0A0A00F064FED6
:102BE00081469AED0C0A00F05FFE824601A839008A
:102BF000090E5A46D2B281541BF1010B3900090C5F
:102C00005A46D2B281541BF1010B3900090A5A46C7
:102C1000D2B281541BF1010B5946C9B247541BF182
:102C2000010B4146090E5A46D2B281541BF1010BE9
:102C30004146090C5A46D2B281541BF1010B414660
:102C4000090A5A46D2B281541BF1010B5946C9B246
:102C500000F801801BF1010B4946090E5A46D2B219
:102C600081541BF1010B4946090C5A46D2B28154DA
:102C70001BF1010B4946090A5A46D2B281541BF195
:102C8000010B5946C9B200F801901BF1010B5146E6
:102C9000090E5A46D2B281541BF1010B5146090C60
:102CA0005A46D2B281541BF1010B5146090A5A46C9
:102CB000D2B281541BF1010B5946C9B200F801A0F0
:102CC0001BF1010B5A46D2B292B201A9DFF860059E
:102CD00003F006FB0EB0BDEC048BBDE8F18F2DE9CF
:102CE000F0410024002500260027DFF84405007885
:102CF000C0B2FF2872D0DFF83C050178C9B20906DE
:102D0000DFF834050078C0B251EA0041DFF82C0545
:102D10000078C0B251EA0021DFF824050078C0B283
:102D200001430C00DFF81C050178C9B20906DFF881
:102D300018050078C0B251EA0041DFF810050078AC
:102D4000C0B251EA0021DFF808050078C0B20143A3
:102D50000D00DFF800050178C9B20906DFF8F804B4
:102D60000078C0B251EA0041DFF8F0040078C0B248
:102D700051EA0021DFF8E8040078C0B201430E00F8
:102D8000DFF8E0040178C9B20906DFF8DC04007856
:102D9000C0B251EA0041DFF8D4040078C0B251EA71
:102DA0000021DFF8CC040078C0B201430F00DFF847
:102DB000688418F12401200000F0B2FB18F12C0106
:102DC000280000F0ADFB18F12801300000F0A8FB4E
:102DD00018F13001380000F0A3FB09E0DFF83804F7
:102DE000002141620021C162002181620021016352
:102DF000BDE8F08154E9000834260020B025002009
:102E0000B009002070B500240025DFF86C040078BC
:102E1000C0B2FF283DD0DFF85C64DFF860040078C2
:102E20003070DFF85C040178C9B20906DFF8540499
:102E30000078C0B251EA0041DFF84C040078C0B21B
:102E400051EA0021DFF844040078C0B201430C00CD
:102E5000DFF83C040178C9B20906DFF838040078CD
:102E6000C0B251EA0041DFF830040078C0B251EA44
:102E70000021DFF828040078C0B201430D0016F1EC
:102E80000801200000F04CFB311D280000F048FB39
:102E900009E0DFF8E00300210170DFF8041481602D
:102EA000DFF80014416070BD3226002078B591B083
:102EB00004000D003C21002202AE300001F064FD50
:102EC0000020ADF8040003211A2000F073FE0B204F
:102ED00000900023DFF8D02301A902A800F00AFB2C
:102EE0004FF47A73BDF8042002A9D04802F081F9AA
:102EF00012B070BD78B591B004000D003C210022E5
:102F000002AE300001F040FD0020ADF80400C848DA
:102F100003F0B6F9DFF8600303F0B2F9D5480021F9
:102F20000170DFF880138160DFF8741341600D20B9
:102F300000900023DFF8742301A902A800F0DAFA58
:102F40004FF47A73BDF8042002A9B84802F051F991
:102F500012B070BD38B590B004000D0003A8D4497C
:102F6000322203F001FAD348D0E90023CDE901234E
:102F700003A801900023D048027802A903A800F01A
:102F800044FA0220009000237CA202A903A800F0CA
:102F9000B1FA4FF47A73BDF808200199A34802F002
:102FA00028F911B030BD0000D0040020A025002079
:102FB0000000FA44F8B504000D00002620680078EF
:102FC00030283ADB206800783A2836DA00270020DB
:102FD0000100C9B2A28889B291420FD221680200D1
:102FE000D2B2895C302905DB21680200D2B2895C4B
:102FF0003A2900DB02E07F1C401CE9E73900C9B236
:10300000206800F02FFB0600B6F5807F0DD2AA489D
:1030100041783000C0B200F0CDFD4FF47A73022247
:103020007AA1824802F0E5F80EE04FF47A730522A7
:10303000A2497E4802F0DDF806E04FF47A730522DB
:103040009E497A4802F0D5F8F1BD38B590B0040039
:103050000D0003A89A49322203F086F99948D0E975
:103060000023CDE9012303A8019000239248427870
:1030700002A903A800F0C9F90220009000233FA292
:1030800002A903A800F036FA4FF47A73BDF80820BD
:103090000199664802F0ADF811B030BD5C24002003
:1030A000100500200000C842F8B504000D000026FD
:1030B00020680078302839DB206800783A2835DA33
:1030C000002700200100C9B2A28889B291420FD224
:1030D00021680200D2B2895C302905DB2168020038
:1030E000D2B2895C3A2900DB02E07F1C401CE9E790
:1030F0003900C9B2206800F0B5FA06000C2E0DD2D6
:103100003100C9B26C48007800F054FD4FF47A7376
:1031100002223EA1454802F06CF80EE04FF47A73AB
:1031200005226649414802F064F806E04FF47A73DC
:10313000052262493D4802F05CF8F1BD80B5FFF719
:10314000CEFDFFF75FFE60486049C0F8A4136049F8
:10315000C0F8B4135F49C0F8C4135F49C0F8D41372
:103160005E49C0F8E4135E49C0F8F41303F05FF958
:1031700003F04EF901BD0000142400200D0A0000E8
:103180003F260020F024002070B5002000240025F8
:103190002800C0B2082836DA524E2800C0B200011A
:1031A0003044407801282CD1012004002800C0B20E
:1031B00000013044406800280ED001F063FA290075
:1031C000C9B2090131444968401A2900C9B209014C
:1031D00031448968884214D300202900C9B209010A
:1031E0003144487001F04EFA2900C9B20901314456
:1031F00048602800C0B22900C9B209013144C96839
:1032000088476D1CC4E72000C0B270BD4F4B000062
:10321000C82400209005002014240020102600203F
:103220003E2600205C24002000080048181F0020D3
:10323000000802080208020803080208040802083D
:10324000050802080608020807080208080802081C
:10325000090802080A0802080B0802080C080208FC
:103260000D0802080E0802080F08020810080208DC
:1032700011080208CC2500200010020802100208E4
:1032800003100208041002080510020806100208C4
:103290000710020808100208091002080A100208A4
:1032A00000004842000016449CE7000834E500088E
:1032B000C0D500085CE90008000A00204CE90008BD
:1032C0006CE1000864E90008A0050020AD2E0008AC
:1032D000F52E0008552F0008B52F00084B300008C8
:1032E000A93000081005002001000800C0B2002825
:1032F00001D1012021E00800C0B2FF2801D10A203D
:103300001BE00800C0B2FE2801D1642015E00800CF
:10331000C0B2FD2802D14FF47A700EE00800C0B2AE
:10332000FC2802D142F2107007E00800C0B2FB286E
:1033300002D1DFF8480500E0012070472DE9F24F87
:1033400082469346002000210A260027B046B9464F
:10335000009A1588BBF1000F08D5DBF100042D2081
:103360002A0092B20AF802006D1C00E05C462000C0
:10337000002142464B4603F07DF8002901D1002888
:1033800008D0A6FB080106FB091107FB08118046BF
:103390008946ECE7404649460A22002303F06AF8D2
:1033A00006000F00002F01D1002E28D020000021A0
:1033B00032003B0003F05EF83030290089B20AF891
:1033C00001006D1CA0465FF00009200000213200C2
:1033D0003B0003F04FF8A6FB002306FB013307FB7D
:1033E0000033B8EB020079EB030104003000390030
:1033F0000A22002303F03EF806000F00D2E70098EF
:1034000005802800C0B2BDE8F28F2DE9FE4F06000E
:103410000F0090460020ADF800000020002400219D
:103420005FF0000BB7F80090B8F1000F02D5D8F1AB
:10343000000500E04546424639003000FFF77EFFB8
:10344000B7F800A0002D4FD09DF80800FFF74CFF03
:1034500001008D4205D20A2045431BF1010B002DCE
:10346000F7D15846C0B2002821D050460200D2B24F
:10347000324412F8012C2D2A06D00200D2B24B465B
:1034800092B29BB29A4208D130220300DBB2F254CE
:103490001AF1010ABBF1010BE3E70200D2B2324498
:1034A00012F8012C0300DBB2F254401EDEE70A20C2
:1034B000B1FBF0F450468346002C15D00A20B4FB33
:1034C000F0F45846C0B2304410F8010C5946C9B265
:1034D0007054BBF1010B002CEED12E205946C9B21D
:1034E00070541AF1010AE7E7A7F800A05046C0B2ED
:1034F000BDE8FE8FF0B4049C00252E00B6B2A642B3
:103500000BD20E88771C0F802F00BFB217FA83F7FB
:10351000D75DB6B287556D1CEFE7F0BC7047000071
:103520002DE9F34F81B02DED028B9FED658A0024CC
:1035300001250026F7EE008A00273800C0B22028B7
:1035400064DA0398F84010F0010004003800C0B2BB
:10355000172829DA18EE900A00F0E0FE82468B4622
:103560002000C0B200F0CCFE804689463800C0B2D0
:10357000D0F117005FF0FF31484300F04BFD41EC04
:10358000110B9FED500B00F05AFD51EC100B424611
:103590004B4603F087F852465B4603F055F900F0BE
:1035A0007BFE08EE900A2FE03800C0B21F2824DA14
:1035B0003000C0B200F0A4FE82468B462000C0B2AC
:1035C00000F09EFE804689463800C0B2173800F0F1
:1035D00021FD41EC110B9FED3B0B00F030FD51EC58
:1035E000100B42464B4603F05DF852465B4603F033
:1035F0002BF903F0E7F9060006E02000C0B201282D
:1036000002D15FF0FF3005007F1C96E7280040B232
:1036100000F000FD804689463000C0B27F3800F0DF
:10362000F9FC41EC110B9FED270B00F008FD51EC6C
:10363000100B42464B4603F035F88046894618EE9B
:10364000900A00F06BFE42464B4603F02BF800F068
:1036500023FE00EE100A049880ED000ABDEC028BF8
:10366000BDE8F78F70B4030000220024002000257D
:103670002A000E00D2B2F6B2B2421FD22A00D2B253
:103680009A5C302A0ADB2A00D2B29A5C3A2A05DA1E
:103690002A00D2B29A5C303A140001E000221400F1
:1036A0002A00D2B2002A03D12200D2B2100003E0D5
:1036B0000A22504350FA84F06D1CD9E770BC704761
:1036C0000000000000000000000000402DE9F04173
:1036D0002DED028B07000E009FED678A3000C0B20F
:1036E00000280BD0FB2800F09E80FC2877D0FD2816
:1036F00051D0FE282CD0FF2807D0B7E000EE107A7A
:10370000B8EEC00AB0EE408AB0E00A2097FBF0F0B5
:1037100000EE100AB8EEC00A5FF00A0810EE100AB8
:1037200000F0FCFD04000D0097FBF8F008FB10789A
:10373000404600F06FFC524A524B02F0B3FF2200A9
:103740002B0003F081F800F0A7FD08EE100A8DE0D1
:10375000642097FBF0F000EE100AB8EEC00A5FF0AC
:10376000640810EE100A00F0D9FD04000D0097FB6C
:10377000F8F008FB1078404600F04CFC424A434BFE
:1037800002F090FF22002B0003F05EF800F084FDB1
:1037900008EE100A6AE04FF47A7097FBF0F000EE42
:1037A000100AB8EEC00A4FF47A7810EE100A00F052
:1037B000B5FD04000D0097FBF8F008FB10784046BB
:1037C00000F028FC324A334B02F06CFF22002B0041
:1037D00003F03AF800F060FD08EE100A46E042F20D
:1037E000107097FBF0F000EE100AB8EEC00A42F23B
:1037F000107810EE100A00F091FD04000D0097FB08
:10380000F8F008FB1078404600F004FC224A234BF5
:1038100002F048FF22002B0003F016F800F03CFDF8
:1038200008EE100A22E0154897FBF0F000EE100AAF
:10383000B8EEC00ADFF8448010EE100A00F06EFD0A
:1038400004000D0097FBF8F008FB1078404600F0EC
:10385000E1FB134A134B02F025FF22002B0002F07C
:10386000F3FF00F019FD08EE100AFFE7B0EE480A7A
:10387000BDEC028BBDE8F08100000000A0860100D5
:103880009A9999999999B93F7B14AE47E17A843F07
:10389000FCA9F1D24D62503F2D431CEBE2361A3F9A
:1038A000F168E388B5F8E43E10B42DED010A00207C
:1038B0006A460023042B07D2D45C1900C9B2C900A0
:1038C0008C4020435B1CF5E712BC704702000020CF
:1038D000704730B40200DFF8D00600230468858802
:1038E000635583885B1C8380DFF8C0361B780468CF
:1038F0008588635583885B1C8380012030BC7047BA
:10390000F8B504000D00002000212E0022683300CD
:10391000DBB2D25C23683700FFB23B445F7857EAE2
:1039200002273A0092B2B2F5807F23DA380080B2E3
:1039300000281FD0DFF8700621683200D2B2895CFF
:1039400002688388D1548188491C818021683200B3
:10395000D2B21144497802688388D1548188491CC5
:103960008180DFF8480641783800C0B200F022F9C3
:10397000012000E00020F2BD30B40200DFF828068C
:10398000002304688588635583885B1C8380DFF887
:103990001C365B7804688588635583885B1C83804C
:1039A000012030BC7047F8B504000D000020002154
:1039B0002E0022683300DBB2D25C23683700FFB2EE
:1039C0003B445F7857EA02273A0092B20B2A1FDA8B
:1039D000DFF8D40521683200D2B2895C026883889E
:1039E000D1548188491C818021683200D2B21144AF
:1039F000497802688388D1548188491C81803900C4
:103A0000C9B2DFF8A805007800F0D4F8012000E082
:103A10000020F2BDF8B504000D000026DFF8900587
:103A200090ED010AFFF740FF0100DFF87C050A0076
:103A3000120A03688788DA558288521C82800268DD
:103A40008388D1548288521C82800A00120E036837
:103A50008788DA558288521C82800A00120C03681B
:103A60008788DA558288521C82800120F2BDF8B521
:103A700004000D000026DFF8380590ED040AFFF77A
:103A800013FF0100DFF820050A00120A0368878887
:103A9000DA558288521C828002688388D1548288D9
:103AA000521C82800A00120E03688788DA558288C9
:103AB000521C82800A00120C03688788DA558288BB
:103AC000521C82800120F2BDF8B504000D000026D2
:103AD000DFF8DC0490ED030AFFF7E6FE0100DFF8F3
:103AE000C8040A00120A03688788DA558288521CC3
:103AF000828002688388D1548288521C82800A00A6
:103B0000120E03688788DA558288521C82800A0068
:103B1000120C03688788DA558288521C8280012043
:103B2000F2BDF8B504000D000026DFF8840490ED26
:103B3000020AFFF7B9FE0100DFF86C040A00120A5E
:103B400003688788DA558288521C828002688388DD
:103B5000D1548288521C82800A00120E0368878822
:103B6000DA558288521C82800A00120C036887880A
:103B7000DA558288521C82800120F2BD70B50400A3
:103B80000D00DFF83064012220213000FDF713FD25
:103B90000A2001F0DDFA4FF47A732A0092B2210074
:103BA000DFF8140401F025FB002220213000FDF78E
:103BB00002FD70BD7CB504000D00082100226E4698
:103BC000300000F0E1FE0026DFF8E00304704570ED
:103BD000694602783300DBB2CA54761C4078320062
:103BE000D2B28854761C3200D2B292B26946DFF863
:103BF000CC0302F075FB73BDDFF8C0030078C0B2E0
:103C0000FF280AD0DFF8A403DFF8B41309780170A5
:103C1000DFF8B0130978417005E0DFF890031A214E
:103C200001700321417070472DE9F04F87B0040007
:103C300000275FF000085FF000090025DFF8882307
:103C4000D2E90001CDE902010026DFF88023D2E9A4
:103C50000001CDE90401DFF850A35046FDF714FD43
:103C6000A0880828C0F29B812068A188084410F829
:103C7000010C2168A288114411F8021C51EA0021AC
:103C8000ADF81810A188891E206801F079F8ADF808
:103C90001A00BDF81A00BDF81810884240F07D8166
:103CA00020680078C1490978884240F07681206810
:103CB00080782168CF7857EA002720684078032869
:103CC00005D006286CD0102800F0C38061E1206880
:103CD00000792168497951EA00210D005FF001085F
:103CE0004046C0B2072836DA5FF01409DFF8E0B2C8
:103CF0004046C0B209FB00F058444068390089B220
:103D0000884225D1280080B24146C9B209FB01F1A1
:103D10005944896888421BDB002100204246D2B208
:103D200009FB02F25A44D268904701280FD140465D
:103D3000C0B209FB00F0584480682D1A4046C0B25A
:103D400009FB00F90BEB09008068C71900E002E0ED
:103D500018F10108C4E7BAF8040000281FD0BAF827
:103D60000400022190FBF1F201FB1200002816D1A1
:103D7000DAF800000190BAF80400022190FBF1F09B
:103D800080B200903B009BB203222068017804A817
:103D900001F0D6F8BDF814100498FFF7EFFEFAE032
:103DA00004200100C9B2A288921E91420EDA216855
:103DB0000200D2B2895C029ABDF80C30D154BDF831
:103DC0000C10491CADF80C10401CEAE75FF001082C
:103DD0004046C0B2072817DA14227D4B4046C0B2D5
:103DE000504318444068390089B2884209D1002103
:103DF00002A8C4465FFA8CFC02FB0CF21A4412695A
:103E0000904718F10108E3E7BAF8040000281FD032
:103E1000BAF80400022190FBF1F201FB1200002825
:103E200016D1DAF800000190BAF80400022190FBE4
:103E3000F1F080B200903B009BB20622206801782E
:103E400004A801F0CEF8BDF814100498FFF796FE10
:103E5000A1E000200600206800792168497951EA34
:103E600000210D0007200100C9B2A288921E9142D4
:103E70000EDA21680200D2B2895C029ABDF80C30D9
:103E8000D154BDF80C10491CADF80C10401CEAE7E9
:103E9000280080B240002168897988424DD1BDF860
:103EA0000C002168897989B2884246D15FF0010807
:103EB0004046C0B2072840DA5FF01409DFF810B1BD
:103EC0004046C0B209FB00F058444068390089B24E
:103ED00088422FD1280080B24146C9B209FB01F1C6
:103EE00059448968884225DB310089B202A84246DC
:103EF000D2B209FB02F25A4412699047012818D144
:103F00004046C0B209FB00F058448068400010FAF7
:103F100086F64046C0B209FB00F0584480682D1A6E
:103F20004046C0B209FB00F90BEB09008068C719D5
:103F300000E002E018F10108BAE7BAF8040000282E
:103F400026D0BAF80400022190FBF1F201FB120026
:103F500000281DD1206880782168C97851EA0021A5
:103F60000F00DAF800000190BAF80400022190FB7B
:103F7000F1F080B200903B009BB2102220680178E3
:103F800004A801F02EF8BDF814100498FFF7F6FD10
:103F900001E0002004E0012002E0002000E0002019
:103FA00007B0BDE8F08F0000C8040020000A002020
:103FB0001424002000040048901E00200000020885
:103FC00002000208030002083CE9000844E9000876
:103FD0001004002000F10103810704D010F8011B38
:103FE000820781B1FAD10268A2F10131914311F047
:103FF000803104BF50F8042FF6E709BAB1FA81F115
:1040000000EBD100401CC01A70470268531C0360CB
:1040100011707047C11768B14840401AB0FA80F279
:104020009040D21CC907C2F5846241EA025202EBF9
:10403000D021400570472E0041EC100B01BD80B52A
:1040400053EC112B51EC100B02F0DAFCF4E70000FA
:10405000F0B540F2FF7581EA030C0CF0004C15EA54
:1040600011541DBF15EA1357AC42AF42E5E0BC4105
:10407000C1F31301C3F31303801A994143F480136E
:1040800004D2641E4000494180185941C90241EAE6
:104090005051B1FBF3F603FB1611A2FB0675D7EBEB
:1040A000C020A94102D2761E80185941C90241EAB6
:1040B0005051B1FBF3FE03FB1E11A2FB0E75D7EBB3
:1040C000C020A94103D2AEF1010E801859418902E6
:1040D00041EA9051760546EA8E2EB1FBF3F603FBDA
:1040E0001611A2FB0675D7EB8020A94102D2761EDD
:1040F00080185941C90241EA50514EEA060EB1FBFF
:10410000F3F603FB1611A2FB0675D7EBC020A941FD
:1041100002D2761E80185941C90241EA5051B1FBC2
:10412000F3F703FB1711A2FB0735D3EBC020A9411E
:1041300067F100070CBF004247F0010766F3D5277F
:104140004FEA1E31B80814F5806412DDBD0775F121
:10415000004250EB0E5051EB045111F5801F5CBF33
:1041600041EA0C01F0BD4CF07F6141F0E0410020DC
:10417000F0BDBD076D0840EA0E5041F48011D4F146
:104180000104B4F120060ADAC4F120060200E0407E
:1041900001FA06F3E1401843B24015430EE0342C17
:1041A00013DCC6F1200445EA40056D0820FA06F24A
:1041B000154321FA06F0A1400D43002175F100429C
:1041C00050F1000051EB0C01F0BD00205FEA0C0142
:1041D000F0BDCFB992185B41B3FA83F704BFB2FACE
:1041E00082F6BF190B3FB7F120062FBF02FA06F384
:1041F000BB40C7F1200622FA06F638BF3343BA4067
:104200001CB1E419641E33E77F4231F00041B1FA7A
:1042100081F404BFB0FA80F6A4190B3CB4F1200677
:104220002FBF00FA06F1A140C4F1200620FA06F6DD
:1042300038BF3143A0403C1B1AE7AC421ABF05EA25
:104240001357AF4212E050EA41061CBF52EA430640
:10425000BFE750EA4107304661461CBF41EA0551BD
:10426000F0BD52EA430C08BFC143F0BD00204FF43B
:10427000001616EB410F98BF16EB430F08BF16EB65
:10428000410F24BFC14305E016EB430F0CBF61464D
:104290004CEA0551F0BD000001F000428B1AA3F179
:1042A0006051B1F5801F0ADBB1F17F6F1FD242EA86
:1042B000C102C10071F1004142EB507070470B1513
:1042C000C3F10903212B10D2890241EA90518002E7
:1042D0000128494141F0004121FA03F0C3F12003D4
:1042E000994071F1004150417047100070476FF0E4
:1042F000000013EB103F5CBF000E42EAC050704755
:10430000014648B1B0FA80F18840C91CC1F584610A
:10431000090501EBD021400570470000C0F3C751EB
:1043200081B1FF2906D0C110400721F0E04101F121
:104330006051704741020CBF40F4E0016FF0004152
:104340000020704700F0004100020AD0B0FA80FC63
:1043500000FA0CF001F16051A1EB0C5101EBD021FE
:10436000400570470CB430B583B00A4606A90291E7
:10437000044600250194009502AB01A90848784441
:104380001E3002F0B3FE019A157000284EBF04469D
:104390000198041B204603B030BC5DF80CFB00BF45
:1043A0006BFCFFFF80B5012240211F48FDF703F998
:1043B0001E491F4800F0B0F800F01CF8012000F082
:1043C00003F800F045F901BD704711B581B0164CF6
:1043D000002240212000FDF7EEF84FF47A7301220D
:1043E00001A9144803F0E2FE012240212000FDF75C
:1043F000E2F813BD10B50C4C002240212000FDF75F
:10440000DAF8002280212000FDF7D5F8012000F025
:1044100013F8012280212000FDF7CDF80122402170
:104420002000FDF7C8F810BD00080048F425002062
:10443000B80E00202022002010B50400200000F05B
:1044400087FE10BD70B40400E4B2802C01DB7F2431
:1044500020001400E4B2802C01DB7F2422000C0039
:10446000E4B2402C01DB3F2421001C00E4B2402CCC
:1044700001DB3F2423002B4C050026683678EDB283
:10448000B54201D2256828702568AD781600F6B2CD
:10449000B54201D22568AA700D0026687678EDB283
:1044A000B54201D2256869702568ED781E00F6B224
:1044B000B54201D22468E37070BC704719487F216F
:1044C000026811700021026891703F2102685170EA
:1044D00000210068C1707047124800210268117005
:1044E0007F21026891700021026851703F210068AD
:1044F000C170704770B54FF4806400250A480668A3
:104500002A002100300000F03FFA3F237F220021E3
:104510000020FFF797FF70BD034A1060014A116049
:1045200070470000FC250020F825002010B504008D
:1045300000224FF480714348FDF73DF82000C0B2DF
:10454000FFF743FF10BD10B5040001224FF4807146
:104550003C48FDF730F82000C0B2FFF736FF10BD31
:1045600010B504008120FFF7E1FF2000C0B2402811
:1045700003DB3F20FFF7DAFF03E02000C0B2FFF7C4
:10458000D5FF10BD10B5040014F00F0050F0B000BE
:10459000C0B2FFF7CBFF10BD10B504002000C0B2C1
:1045A00000F005F82000C0B200F00CF810BD10B506
:1045B00004002000C0B2000950F01000C0B2FFF7A4
:1045C000B5FF10BD10B5040014F00F00FFF7AEFFEB
:1045D00010BD70B500242000C0B210282EDA1A4D8C
:1045E000286840782100C9B2491CB0EBC10F23DA1A
:1045F0002868C0782100C9B2B0EBC10F1EDB2000D3
:10460000C0B2FFF7BFFF28680078FFF7C5FF286832
:104610000678286880783100C9B288420CD30B48EC
:1046200001682200D2B28020424352FA86F0085C30
:10463000FFF789FF761CECE7641CCCE7FFF73EFF31
:1046400070BD000000080048FC250020F82500206F
:1046500080B5A020FFF76AFFAE20FFF767FFC820F4
:10466000FFF764FFA220FFF761FF2F20FFF75EFF37
:104670002220FFF75BFF3F20FFF772FFAF20FFF71D
:1046800055FF01BD01480068704700BF04260020A7
:1046900070B4039CDFF88052286029716A71AB7195
:1046A000EC7100262E7270BC70472DE9F84F0400A3
:1046B0000D00160000275FF00008DFF85C9299F803
:1046C0000500082880F2FC80300099F80610C0B27E
:1046D000884205D399F807003100C9B2884201D257
:1046E0002E200600402099F80510491C90FBF1F09F
:1046F0002900C9B2814280F2E38099F8040050FA9F
:1047000084F0802880F2DC8099F805305B1C99F8F1
:10471000050003FB05035B1CDBB299F804201219AA
:10472000D2B299F80500401C15FB00F1C9B2200077
:10473000C0B2FFF787FE0021080099F80420C0B23C
:10474000904280F0BD80002015FB00F00200D2B244
:10475000082392FBF3F21700C0B2082290FBF2F399
:1047600002FB13008046FF226C4BD3F800C03800D8
:10477000C0B250FA85FE802000FB0EFE5EFA84FE79
:10478000D3F800A03800C0B250FA85FB802000FBAF
:104790000BFB5BFA84F01AF800A0D8F1080B1000AC
:1047A00050FA0BF010EA0A0A0CF80EA0D3F800C079
:1047B0003800C0B250FA85FE802000FB0EFE5EFA83
:1047C00084F00090D3F800E03800C0B250FA85FAC7
:1047D000802000FB0AFA5AFA84F01EF800E0D9F8AB
:1047E00000A0B3465FFA8BFB99F80600BBEB000014
:1047F00099F804B00BFB00FB0AEB0B008A465FFA4A
:104800008AFA10F80A0010FA08F050EA0E00DDF8F3
:1048100000E00CF80E00D3F800C03800C0B250FA27
:1048200085FE802000FB0EFE5EFA84F08444D3F8FF
:1048300000E03800C0B250FA85FA802000FB0AFA86
:104840005AFA84F0704490F8800012FA08F202409C
:104850008CF880201A683800C0B250FA85FC80209D
:1048600000FB0CFC5CFA84F002441B683800C0B208
:1048700050FA85FC802000FB0CFC5CFA84F01844A4
:1048800090F88030D9F800C0B6465FFA8EFE99F8ED
:104890000600BEEB000E99F8040000FB0EFE0CEBC8
:1048A0000E008C465FFA8CFC10F80C00D8F1080C56
:1048B00050FA0CF0034382F88030641C491C3BE73B
:1048C000BDE8F18FF8B507000C001600124D6879AD
:1048D000082820DA307800281DD032782100C9B2AB
:1048E0003800C0B2FFF7E1FE761C2879401CC719DA
:1048F000287950FA87F0401C812802DB002007004D
:10490000641C40206979491C90FBF1F02100C9B278
:104910008142DFDBFFE7F1BDC0250020F825002044
:10492000020001200B00DBB21B0113445870002071
:104930000B00DBB21B01134458600120704738B5EF
:1049400004000D0001202900C9B20901214448706A
:10495000FFF798FE2900C9B20901214448600120EF
:1049600032BD020000200B00DBB21B011344587063
:104970000120704780B5034803F098FEFFF729FE39
:1049800001BD000054DE000862F30F2262F31F42F3
:10499000401810F0030308D0C91A1FD3DB0748BF23
:1049A00000F8012D28BF20F8022D130030B4144662
:1049B0001546103928BF20E93C00FAD8490728BF1E
:1049C00020E90C0048BF40F8042D890028BF20F8DA
:1049D000022D48BF00F8012D30BC7047C91818BF20
:1049E00000F8012DCB0728BF00F8012D704700000B
:1049F00070B4039CDFF88453286029716A71AB712D
:104A0000EC7101262E7270BC70472DE9F74F04003F
:104A10000D00DFF868639DF80800B179884204D37F
:104A2000F0799DF80810884202D22E208DF80800F7
:104A3000307A002845D1002738003179C0B2884249
:104A40003DD231689DF80820B079121A307942437E
:104A500001EB02003900C9B210F801900020804635
:104A60004046C0B2082828DA3800C0B250FA84F0B4
:104A7000802805DA4046C0B250FA85F0402801DBB4
:104A800000205DE1012010FA08F04946C9B2014258
:104A900008D0012218EB0501C9B23819C0B203F0E1
:104AA0009FFD07E0002218EB0501C9B23819C0B21A
:104AB00003F096FD18F10108D2E77F1CBCE73079BE
:104AC0003EE1307A012840F08E807079082190FB19
:104AD000F1F201FB1200012806DB7079082190FB3E
:104AE000F1FB1BF1010B03E07079082190FBF1FB56
:104AF00031795846C0B24143491C8DF801103168E4
:104B00009DF80820B079121A9DF80100424301EB8C
:104B1000020001788DF80010401C01905FF0000841
:104B200040469DF80010C0B2884259D25FF000099B
:104B300048465946C0B2C9B288424ED2019942464F
:104B4000D2B25846C0B2424301EB02004946C9B254
:104B500010F801A0002007003800C0B2082839DA98
:104B60004046C0B250FA84F0802808DA4846C0B205
:104B7000C00050FA85F050FA87F0402801DB002091
:104B8000DEE04846C0B2C00050FA87F07179884232
:104B90001EDA0121B9405046C0B208420CD00122B1
:104BA0005FFA89F915EBC9017918C9B218EB04004D
:104BB000C0B203F015FD0BE000225FFA89F915EB96
:104BC000C9017918C9B218EB0400C0B203F008FD9E
:104BD0007F1CC1E719F10109AAE718F101089FE755
:104BE0009DF80000ACE0307A022840F0A88070798F
:104BF000082190FBF1F0401C8DF8000030799DF801
:104C0000001010FB01F08DF8020031689DF80820BB
:104C1000B079121A9DF80200424301EB02000190A4
:104C200096F804B000208DF8010000210020002239
:104C300010009DF80030C0B298420CD23079431E6B
:104C40009DF801001B1A13FB02F0019BC0B2185C17
:104C50000100521CECE70800C0B200280BD1BBF1E8
:104C6000010B5846C0B2002805D09DF80100401C39
:104C70008DF80100D9E7002738009DF80010C0B278
:104C8000884259D25FF0000840465946C0B2C9B2C6
:104C900088424FD201993A00D2B23079424301EBB7
:104CA00002004146C9B210F801905FF0000A504678
:104CB000C0B208283BDA4046C0B250FA84F08028DF
:104CC00008DA3800C0B2C00050FA85F050FA8AF015
:104CD000402801DB002033E03800C0B2C00050FAA9
:104CE0008AF0717988421FDA012111FA0AF14846E7
:104CF000C0B208420CD00122FFB215EBC7011AEB7B
:104D00000101C9B218EB0400C0B203F069FC0BE06A
:104D10000022FFB215EBC7011AEB0101C9B218EB73
:104D20000400C0B203F05CFC1AF1010ABFE718F1FD
:104D30000108A9E77F1C9FE75846C0B200E00020A9
:104D4000BDE8FE8FF8B504000F0015000B48407950
:104D5000D0F13F003900C9B288420EDB2878002824
:104D60000BD02A783900C9B22000C0B2FFF74DFE3F
:104D70000600701C04196D1CF0E7F1BDC025002071
:104D800030B403004FF6FF7000248C4213DA1A5D32
:104D900050400822002A0CD0C50706D580B2400832
:104DA00080F4204090F0010001E080B24008521EE3
:104DB000F0E7641CE9E780B230BC70472DE9F843A6
:104DC00005000E0017009846089C5FF0000928684F
:104DD000494689B2465419F101092868494689B201
:104DE000475419F10109404680B2000A29684A4631
:104DF00092B2885419F101092868494689B200F82D
:104E0000018019F10109200080B2000A29684A4690
:104E100092B2885419F101092868494689B244546C
:104E200019F10109494689B22868FFF7A9FF010075
:104E300028684A4692B2815419F10109080080B2EB
:104E4000000A2A684B469BB2D05419F10109A5F813
:104E500004900120BDE8F2832DE9F84F06000F0011
:104E6000904699460A9DDDF82CA000240021306868
:104E7000220092B28754641C3068220092B200F87B
:104E80000280641C484680B2000A326823009BB24C
:104E9000D054641C3068220092B200F80290641C66
:104EA0004046C0B2062802D0102807D01CE02800D7
:104EB00080B2012801D0002040E015E0280080B237
:104EC000000A326823009BB2D054641C3068220070
:104ED00092B28554641C2800C0B24000326823009E
:104EE0009BB2D054641CFFE75FF0000B584680B2C1
:104EF000290089B2B0EB410F0BDA584680B21AF89C
:104F000000003168220092B28854641C1BF1010B2E
:104F1000ECE7210089B23068FFF732FF010030680A
:104F2000220092B28154641C080080B2000A3268E8
:104F300023009BB2D054641CB4800120BDE8F28FE2
:104F40002DE9F84F05000E00170098460A9CDDF881
:104F50002C905FF0000B002029685A4692B28E54C4
:104F60001BF1010B29685A4692B28F541BF1010BB9
:104F70002100C9B249002A685B469BB2D1541BF19B
:104F8000010B5FF0000A504680B2210089B2B0EBFD
:104F9000410F0CDA504680B219F8000029685A46D1
:104FA00092B288541BF1010B1AF1010AEBE7594642
:104FB00089B22868FFF7E4FE010028685A4692B2D9
:104FC00081541BF1010B080080B2000A2A685B467D
:104FD0009BB2D0541BF1010BA5F804B00120BDE831
:104FE000F28F2DE9F84F05000E00170098460A9C35
:104FF000DDF82C905FF0000B5FF0000A286859463E
:1050000089B246541BF1010B2868594689B24754AE
:105010001BF1010B404680B2000A29685A4692B241
:1050200088541BF1010B2868594689B200F80180A9
:105030001BF1010B3800C0B2062802D010281DD089
:105040002CE0200080B2012801D000203EE00020AA
:105050008246504680B2210089B2B0EB410F0CDA93
:10506000504680B219F8000029685A4692B2885416
:105070001BF1010B1AF1010AEBE70FE0200080B2EF
:10508000000A29685A4692B288541BF1010B28681D
:10509000594689B244541BF1010BFFE7594689B2C6
:1050A0002868FFF76DFE010028685A4692B28154C5
:1050B0001BF1010B080080B2000A2A685B469BB214
:1050C000D0541BF1010BA5F804B00120BDE8F28F0C
:1050D00038B50400002C01D1012031E04CF6CC4061
:1050E0002168086045F255502168086060682168B1
:1050F0004860A06821688860FFF7C4FA050020684E
:10510000C06810F0070F0DD0FFF7BCFA401B41F646
:1051100002018842F3D32068C06810F0070FEED078
:1051200003200DE020680069E168884203D0E06850
:105130002168086103E04AF6AA202168086000207F
:1051400032BD01004AF6AA200A68106000207047AC
:1051500070B50400FFF796FA0500260016F1010F5E
:1051600002D0044800783618FFF78CFA401BB04292
:10517000FAD370BD030A002010B50400002C01D141
:10518000012035E0A0690028FFD1E06F002805D19B
:10519000002084F87800200003F0F4FA2420E0676F
:1051A000206800684008400021680860606A0028A4
:1051B00002D0200000F038FC200000F0B9FA0128ED
:1051C00001D1012014E02068406830F4904021684B
:1051D00048602068806830F02A0021688860206874
:1051E000006850F0010021680860200000F089FC90
:1051F00010BD2DE9FC4706000D0017009846F06F22
:10520000202859D1002D03D0380080B2002801D1C8
:10521000012052E00020C6F884002120F067FFF74B
:1052200031FA8146A6F85070A6F85270B068B0F511
:10523000805F05D13069002802D10024AA4602E02F
:105240002C005FF0000AB6F85200002822D0CDF8FA
:1052500000804B4600228021300000F0BBFC00287B
:1052600003D02020F067032027E0002C08D1BAF8F3
:105270000000C005C00D316808851AF1020A03E07C
:10528000207831680885641CB6F85200401EA6F8E4
:105290005200D8E7CDF800804B4600224021300074
:1052A00000F098FC002803D02020F067032004E0E1
:1052B0002020F067002000E00220BDE8F68770B5EE
:1052C00005000C001600D5F88000202824D1002C01
:1052D00003D0300080B2002801D101201DE0002061
:1052E00028662868DFF8441488420ED02868406891
:1052F00000020AD5286850E8000F50F080600100D5
:105300002A6842E800100028F4D1320092B221004D
:10531000280000F0AEFC00E0022070BD70B5040073
:10532000E56FD4F8806020688068000624D5212DC0
:1053300022D12068083050E8000F30F080000100D2
:10534000206810F1080242E800100028F1D1206F17
:1053500000280ED0206F03F0B1FC002809D0206F88
:1053600003F07EFD202804D11020C4F8840003201F
:105370002CE0200000F053FD20688068400624D512
:10538000222E22D12068083050E8000F30F0400073
:105390000100206810F1080242E800100028F1D155
:1053A000606F00280ED0606F03F088FC002809D0E1
:1053B000606F03F055FD202804D11020C4F884004C
:1053C000032003E0200000F038FD002070BD2DE92F
:1053D000F04706003068C7693068D0F80080306850
:1053E000D0F8089040F60F043C40002C0BD1B806D2
:1053F00009D55FEA886006D5B06E002802D030007B
:10540000B16E88478FE1002C00F0AA805FEAC97076
:1054100005D4DFF80C0618EA000F00F0A18017F0A1
:105420000100C0B200280BD05FEAC85008D50120A7
:1054300031680862D6F8840050F00100C6F8840094
:10544000B8070DD519F00100C0B2002808D002201D
:1054500031680862D6F8840050F00400C6F8840071
:1054600078070DD519F00100C0B2002808D004203B
:1054700031680862D6F8840050F00200C6F8840053
:10548000380710D55FEA886004D419F00100C0B273
:10549000002808D0082031680862D6F8840050F04F
:1054A0000800C6F8840038050CD55FEA481009D515
:1054B0004FF4006031680862D6F8840050F0200094
:1054C000C6F88400D6F88400002848D0B80608D56D
:1054D0005FEA886005D5B06E002802D03000B16E5A
:1054E0008847D6F88400050030688068400602D4FA
:1054F00015F0280F2DD0300000F09FFC3068806838
:10550000400622D53068083050E8000F30F04000E7
:105510000100306810F1080242E800100028F1D1C3
:10552000706F00280DD0DFF8FC04716F8863706F16
:1055300003F0EEFB002812D0706F716F896B884703
:105540000DE0300003F0E0FC09E0300003F0DCFC8B
:1055500005E0300003F0D8FC0020C6F88400E2E04B
:10556000306E012840F0BD80F80640F1BA805FEA55
:10557000C86040F1B68010203168086230688068E9
:1055800040066DD5706F0068D0F804A0504680B218
:10559000002852D05046B6F8581080B288424CD2FB
:1055A000A6F85AA0706F00680068800639D4306889
:1055B00050E8000F30F480700100326842E80010BB
:1055C0000028F4D13068083050E8000F400840004F
:1055D0000100306810F1080242E800100028F1D103
:1055E0003068083050E8000F30F0400001003068AB
:1055F00010F1080242E800100028F1D12020C6F87E
:10560000800000203066306850E8000F30F0100055
:105610000100326842E800100028F4D1706F03F0F6
:105620004DFB02207066B6F85810B6F85A00091AF9
:1056300089B2300003F04AFC11E05046B6F8581029
:1056400080B288420BD1706F00680068800606D572
:1056500002207066B6F85810300003F037FC62E0A4
:10566000B6F85800B6F85AA0B0EB0A0AB6F85A00D5
:10567000002835D0504680B2002831D0306850E83C
:10568000000F30F490700100326842E800100028EA
:10569000F4D13068083050E8000F400840000100A5
:1056A000306810F1080242E800100028F1D12020F3
:1056B000C6F88000002030660020B066306850E8F0
:1056C000000F30F010000100326842E8001000289E
:1056D000F4D102207066514689B2300003F0F6FB27
:1056E00021E0F8020AD55FEA492007D55FF480106F
:1056F00031680862300003F097FC14E0380609D5E1
:105700005FEA086006D5F06E002802D03000F16E26
:10571000884708E0780606D55FEA486003D5300080
:1057200000F055FCFFE7BDE8F08700000080004076
:105730002DE9F04704000026DFF8A8192068884208
:10574000FFD0A2682069024360690243E069024316
:1057500020680368DFF89009034013432068036062
:105760002068436833F44053E06803432068436093
:10577000D4F818802068884202D0206A50EA0808CD
:105780002068806830F4306058EA00002268906039
:105790002068DFF8482A904216D1DFF8440A0068F2
:1057A00010F00300002805D0022805D006D30328F6
:1057B00006D007E0012760E002275EE004275CE0F6
:1057C00008275AE0102758E02068DFF8182A90428E
:1057D00017D1DFF80C0A006810F00C00002806D082
:1057E000042808D0082804D00C2806D007E0002799
:1057F00043E0022741E004273FE008273DE010276F
:105800003BE02068DFF8E029904217D1DFF8D009AB
:10581000006810F03000002806D0102808D020289A
:1058200004D0302806D007E0002726E0022724E035
:10583000042722E0082720E010271EE02068884285
:105840001AD1DFF89C09006810F44060002809D0E4
:10585000B0F5806F0AD0B0F5006F05D0B0F5406F9D
:1058600006D007E0002708E0022706E0042704E04E
:10587000082702E0102700E010272068884246D160
:105880003800C0B2002806D0022808D0042809D069
:1058900008280BD00DE004F037F881460DE0DFF862
:1058A0004C990AE003F0C3FF814606E04FF400493B
:1058B00003E05FF0000901200600B9F1000F00F0DD
:1058C000A580616803204143894505D361684FF491
:1058D00080504143494502D20120060096E04FF432
:1058E0008072606840080021E2FB090162680023C1
:1058F00000F0C0FD0500B5F5407F05D3B5F5801F6C
:1059000002D22068C56081E0012006007EE0E069E7
:10591000B0F5004F41D13800C0B2002808D00128AE
:105920000AD002280CD004280DD008280FD011E08E
:1059300003F0EAFF814611E003F0F3FF81460DE03A
:10594000DFF8A8980AE003F072FF814606E04FF402
:10595000004903E05FF0000901200600B9F1000FE3
:1059600054D06068400810EB49006168B0FBF1F06A
:105970000500102D0ED3B5F5803F0BD24FF6F07118
:105980002940C5F3420001438A46504680B221684F
:10599000C8603BE00120060038E03800C0B20028B3
:1059A00008D001280AD002280CD004280DD00828DD
:1059B0000FD011E003F0A8FF814611E003F0B1FF22
:1059C00081460DE0DFF824980AE003F030FF8146BD
:1059D00006E04FF4004903E05FF0000901200600F3
:1059E000B9F1000F12D0606819EB50006168B0FB8C
:1059F000F1F00500102D07D3B5F5803F04D2280043
:105A000080B22168C86001E0012006000020A06685
:105A10000020E0663000C0B2BDE8F0870000000062
:105A200020010004B55F000890F82410090707D58D
:105A300001684A6832F40042416B0A4301684A60D7
:105A400090F82410C90707D501684A6832F400327B
:105A5000816A0A4301684A6090F82410890707D5D3
:105A600001684A6832F48032C16A0A4301684A60B8
:105A700090F82410490707D501684A6832F480225B
:105A8000016B0A4301684A6090F82410C90607D5E3
:105A900001688A6832F48052816B0A4301688A6027
:105AA00090F82410890607D501688A6832F40052FC
:105AB000C16B0A4301688A6090F82410490613D527
:105AC00001684A6832F48012016C0A4301684A6036
:105AD000016CB1F5801F07D101684A6832F4C00239
