:020000040800F2
:10000000C02D0020250001087DF900087FF90008B7
:1000100081F9000883F9000885F900080000000054
:1000200000000000000000000000000087F9000848
:1000300089F90008000000008BF900088DF900081C
:10004000CD030108D1030108D5030108D903010834
:10005000DD030108E1030108E5030108E9030108E4
:10006000ED030108F1030108F5030108F903010894
:10007000FD030108DDF9000801040108E7F90008A3
:1000800005040108090401080D0401081104010810
:1000900015040108190401081D04010821040108C0
:1000A00025040108290401082D0401083104010870
:1000B00035040108000000000000000039040108B8
:1000C0003D040108410401084504010849040108F0
:1000D0004D040108F1F9000851040108FBF900087A
:1000E0005504010805FA00080000000000000000A7
:1000F0000000000000000000000000000000000000
:100100000000000059040108000000005D0401081F
:1001100000000000000000006104010865040108FF
:10012000690401086D0401087104010875040108DF
:100130007904010800000000000000000000000039
:100140007D0401088104010885040108890401086F
:100150008D0401080FFA000819FA0008910401083B
:1001600095040108990401089D040108000000009D
:10017000A1040108A5040108A90401080000000069
:10018000AD040108B1040108B504010880B5514867
:100190000078012806D0022807D0042808D00828B3
:1001A00009D00BE000F0A2F808E001F03FF805E00C
:1001B00001F080FA02E001F0AFFCFFE701BD2DE99C
:1001C000F0470024444D2888002804D02888401E89
:1001D000288000207CE03F4E307A002877D1202113
:1001E0003E4802F0D1FA002801D1012700E00027A3
:1001F000DFF8EC800421404602F0C6FA002802D164
:100200005FF0010901E05FF000090221404602F0C1
:10021000BBFA002802D15FF0010A01E05FF0000A9A
:100220000121404602F0B0FA002801D1012000E08F
:10023000002057EA490757EA8A073C0054EAC004FD
:100240002000C0B2012805D0022803D0042801D024
:10025000082834D17068401C7060706850282DD315
:100260003470012030721F490868142801D2192007
:1002700028801D4822000378D2B29A4219D10A6818
:10028000521C0A600A681E2A02D20021716014E022
:100290000A68B42A02D2412171600EE00A68F02A8D
:1002A00002D24621716008E04E227260F0220A609C
:1002B00003E00022726000220A60047007E0002060
:1002C00009490870282070600020064908603078CD
:1002D000BDE8F087C4280020A029002000080048BD
:1002E0000004004850290020AE290020F8B584B051
:1002F000DFF81C4DA07800281AD001283DD0022834
:100300006DD0032800F0FE80042800F082810528CB
:1003100000F0B082062800F0DD83072800F0618439
:10032000082800F02C850A2800F0308600F074BF01
:10033000DFF84C5D0020E860DFF8486D0A220021FC
:10034000300002F0A7FA302030703020707030207A
:10035000B0703020F070E8680001801CC0B20390DB
:10036000029605200190042000900523002201211F
:10037000A01C03F0EBF800F04FBFDFF8040DC168DC
:10038000491CC160C16804291EDBDFF8F80C03F0CA
:10039000F8F8012815D1A51C0622290014F108003F
:1003A00002F0C6FAF1200390002002900C20019088
:1003B00007200090072300220221280003F0C6F83E
:1003C0000BE00020A07008E0C0680001801C020063
:1003D000D2B20021A01C03F096F800F01DBF2079D6
:1003E00007280AD0C0F08C80092832D01BD30B28F4
:1003F0005BD044D30C286ED082E0A51C06222900D5
:1004000014F1080002F094FAF12003900020029009
:100410000F2001900E2000900E23002203212800BF
:1004200003F094F86CE0A51C0622290014F10800E2
:1004300002F07EFAF1200390002002901620019035
:1004400013200090132300220421280003F07EF8DB
:1004500056E0A51C0622290014F1080002F068FAF3
:10046000F120039000200290202001901F20009096
:100470001F2300220621280003F068F840E0A51C95
:100480000622290014F1080002F052FAF12003902C
:10049000002002902420019022200090222300229C
:1004A0000721280003F052F82AE0A51C06222900A3
:1004B00014F1080002F03CFAF120039000200290B1
:1004C00029200190262000902623002208212800C0
:1004D00003F03CF814E0A51C0622290014F10800E2
:1004E00002F026FA00200390002002902C200190B8
:1004F0002C2000902C2300220921280003F026F84C
:1005000000F08ABE20790E2802D00F2840D07EE06D
:10051000E078002802D001281FD038E0A61C06226F
:10052000310014F1080002F003FADFF8545BF22006
:10053000039015F10C0002900F2001900E20009006
:100540000E23E278521CD2B20321300002F0FEFFEB
:10055000DFF8C80C4078E86019E0A51C06222900E5
:1005600014F1080002F0E4F9F0200390002002905A
:100570002F2001902F2000902F2300220A212800F5
:1005800002F0E4FF0120DFF8941C0870FFE73EE072
:10059000E078002802D001281FD038E0A61C0622EF
:1005A000310014F1080002F0C3F9DFF8D45AF22048
:1005B000039015F10C0002900F2001900F20009085
:1005C0000F23E278521CD2B20321300002F0BEFFAA
:1005D000DFF8480C4068E86019E0A51C06222900F5
:1005E00014F1080002F0A4F9F0200390002002901A
:1005F0002F2001902F2000902F2300220A21280075
:1006000002F0A4FF0120DFF8141C0870FFE700F0DF
:1006100003BE2079132809D0C0F02A81152800F0E4
:1006200096804ED3162800F0DD8021E1E078002886
:1006300002D001281FD043E0A61C0622310014F18D
:10064000080002F075F9DFF8385AF220039015F12E
:100650000C00029016200190132000901323E278E2
:10066000521CD2B20421300002F070FFDFF8AC0B54
:10067000406AE86024E0A51C0622290014F1080065
:1006800002F056F9F0200390002002902F200190F4
:100690002F2000902F2300220A21280002F056FF6D
:1006A000DFF87C4BFF21DFF8D809C06803F0CEFAF1
:1006B00084ED000A04222100032004F0B8F8FFE7CB
:1006C000D6E0E078002802D001281FD03EE0A61C2A
:1006D0000622310014F1080002F02AF9DFF8A059CF
:1006E000F220039015F10C000290162001901320C7
:1006F00000901423E278521CD2B20421300002F0A0
:1007000025FFDFF8200B006AE8601FE0A51C062229
:10071000290014F1080002F00BF9F02003900020EA
:1007200002902F2001902F2000902F2300220A21D9
:10073000280002F00BFFDFF8F01ADFF84409C06868
:1007400008600422042004F072F8FFE790E0E078EB
:10075000002802D001281FD043E0A61C0622310049
:1007600014F1080002F0E4F8DFF81459F2200390C5
:1007700015F10C0002901620019013200090152313
:10078000E278521CD2B20421300002F0DFFEDFF822
:100790008C0A806AE86024E0A51C0622290014F176
:1007A000080002F0C5F8F0200390002002902F20EE
:1007B00001902F2000902F2300220A21280002F010
:1007C000C5FEDFF85C4AFF21DFF8B408C06803F01B
:1007D0003DFA84ED000A04222100052004F027F8E8
:1007E000FFE745E0E078002802D001281FD03EE076
:1007F000A61C0622310014F1080002F099F8DFF877
:100800008058F220039015F10C0002901620019000
:10081000132000901623E278521CD2B2042130003B
:1008200002F094FEDFF8FC09806AE8601FE0A51C76
:100830000622290014F1080002F07AF8F020039053
:10084000002002902F2001902F2000902F230022C3
:100850000A21280002F07AFEDFF8CC19DFF8200820
:10086000C06808600422062003F0E1FFFFE7FFE70D
:1008700000F0D2BC20791A2809D0C0F02A811C28A7
:1008800000F096804ED31D2800F0DD8021E1E07855
:10089000002802D001281FD043E0A61C0622310008
:1008A00014F1080002F044F8DFF8D457F220039066
:1008B00015F10C0002901D2001901A2000901A23BF
:1008C000E278521CD2B20521300002F03FFEDFF880
:1008D0004C09C06AE86024E0A51C0622290014F136
:1008E000080002F025F8F0200390002002902F204D
:1008F00001902F2000902F2300220A21280002F0CF
:1009000025FEDFF81C49FF21DFF87407C06803F0FB
:100910009DF984ED000A04222100072003F087FFDF
:10092000FFE7D6E0E078002802D001281FD03EE0A3
:10093000A61C0622310014F1080001F0F9FFDFF8CF
:100940004057F220039015F10C0002901D200190F9
:100950001A2000901B23E278521CD2B205213000ED
:1009600002F0F4FDDFF8BC08006BE8601FE0A51C96
:100970000622290014F1080001F0DAFFF0200390AC
:10098000002002902F2001902F2000902F23002282
:100990000A21280002F0DAFDDFF88C18DFF8E00603
:1009A000C06808600422082003F041FFFFE790E0E0
:1009B000E078002802D001281FD043E0A61C0622C0
:1009C000310014F1080001F0B3FFDFF8B456F22053
:1009D000039015F10C0002901D2001901A20009048
:1009E0001C23E278521CD2B20521300002F0AEFD89
:1009F000DFF82808006BE86024E0A51C0622290027
:100A000014F1080001F094FFF02003900020029000
:100A10002F2001902F2000902F2300220A21280050
:100A200002F094FDDFF8F847FF21DFF85406C068B4
:100A300003F00CF984ED000A04222100092003F0E0
:100A4000F6FEFFE745E0E078002802D001281FD03D
:100A50003EE0A61C0622310014F1080001F068FFF8
:100A6000DFF81C56F220039015F10C0002901D20B7
:100A700001901A2000901D23E278521CD2B2052169
:100A8000300002F063FDDFF89C07806BE8601FE038
:100A9000A51C0622290014F1080001F049FFF020EE
:100AA0000390002002902F2001902F2000902F23F0
:100AB00000220A21280002F049FDDFF86C17DFF858
:100AC000C005C068086004220A2003F0B0FEFFE7FA
:100AD000FFE7A1E320791F2802D0202840D07FE043
:100AE000E078002802D001281FD038E0A61C06229A
:100AF000310014F1080001F01BFFDFF88455F220EB
:100B0000039015F10C000290202001901F2000900E
:100B10001F23E278521CD2B20621300002F016FDEB
:100B2000DFF8F806C069E86019E0A51C0622290074
:100B300014F1080001F0FCFEF02003900020029068
:100B40002F2001902F2000902F2300220A2128001F
:100B500002F0FCFC0120DFF8C4160870FFE73FE05C
:100B6000E078002802D001281FD038E0A61C062219
:100B7000310014F1080001F0DBFEDFF80455F2202B
:100B8000039015F10C000290202001901F2000908E
:100B90002023E278521CD2B20621300002F0D6FCAB
:100BA000DFF87806006AE86019E0A51C0622290033
:100BB00014F1080001F0BCFEF02003900020029028
:100BC0002F2001902F2000902F2300220A2128009F
:100BD00002F0BCFC0120DFF844160870FFE7FFE7D5
:100BE0001AE32079222806D0C0F0C880242800F01B
:100BF000858043D3C2E0E078002802D0012822D0CB
:100C00003BE0A71C0622390014F1080001F090FE19
:100C1000DFF86C5415F10C06F220039002962420A4
:100C20000190222000902223E278521CD2B20721A8
:100C3000380002F08BFCDFF8700A0078E860DFF81B
:100C4000DC05C66319E0A51C0622290014F1080082
:100C500001F06EFEF0200390002002902F20019002
:100C60002F2000902F2300220A21280002F06EFC82
:100C70000120DFF8A8150870FFE77FE0E078002882
:100C800002D001281FD038E0A61C0622310014F142
:100C9000080001F04DFEDFF8E853F220039015F153
:100CA0000C00029024200190222000902323E2785F
:100CB000521CD2B20721300002F048FCDFF85C057C
:100CC000406BE86019E0A51C0622290014F1080019
:100CD00001F02EFEF0200390002002902F200190C2
:100CE0002F2000902F2300220A21280002F02EFC42
:100CF0000120DFF828150870FFE73FE0E0780028C2
:100D000002D001281FD038E0A61C0622310014F1C1
:100D1000080001F00DFEDFF86853F220039015F192
:100D20000C00029024200190222000902423E278DD
:100D3000521CD2B20721300002F008FCDFF8DC04BC
:100D4000806BE86019E0A51C0622290014F1080058
:100D500001F0EEFDF0200390002002902F20019082
:100D60002F2000902F2300220A21280002F0EEFB02
:100D70000120DFF8A8140870FFE7FFE74CE22079B4
:100D8000262809D0C0F00181282800F0838042D3B2
:100D9000292800F0BD80F8E0E078002802D0012882
:100DA0001ED037E0A61C0622310014F1080001F025
:100DB000BFFDB34DF220039015F10C0002902920E5
:100DC0000190262000902623E278521CD2B20821FE
:100DD000300002F0BBFBDFF84404006CE86019E06F
:100DE000A51C0622290014F1080001F0A1FDF02045
:100DF0000390002002902F2001902F2000902F239D
:100E000000220A21280002F0A1FB0120DFF80C14C7
:100E10000870FFE7B9E0E078002802D001281ED072
:100E200037E0A61C0622310014F1080001F080FD15
:100E3000934DF220039015F10C00029029200190AF
:100E4000262000902723E278521CD2B208213000DD
:100E500002F07CFBDFF8C403406CE86019E0A51CDD
:100E60000622290014F1080001F062FDF020039031
:100E7000002002902F2001902F2000902F2300228D
:100E80000A21280002F062FB0120DFF890130870AD
:100E9000FFE77AE0E078002802D001281ED036E093
:100EA000A61C0622310014F1080001F041FD744D2A
:100EB000F220039015F10C000290292001902620C9
:100EC00000902823E278521CD2B20821300002F0B0
:100ED0003DFBDFF84803806CE86018E0A51C0622A3
:100EE000290014F1080001F023FDF02003900020F8
:100EF00002902F2001902F2000902F2300220A2102
:100F0000280002F023FB0120C4490870FFE73CE001
:100F1000E078002802D001281DD035E0A61C06226A
:100F2000310014F1080001F003FD554DF22003904B
:100F300015F10C0002902920019026200090292311
:100F4000E278521CD2B20821300002F0FFFAB34816
:100F5000C06CE86018E0A51C0622290014F1080006
:100F600001F0E6FCF0200390002002902F20019079
:100F70002F2000902F2300220A21280002F0E6FAF9
:100F80000120A6490870FFE7FFE745E1207A032822
:100F90000DD0C0F04081052800F03A81C0F03881C2
:100FA000072872D037D3082800F0B98033E1032036
:100FB0009A490870322001F037FFA07A0E2802D03B
:100FC0000F2809D026E0DFF8E40641782C48C068F5
:100FD000C0B204F028FC1DE000200100C9B20B29BA
:100FE0000FDADFF8CC160200D2B251F82210244AF0
:100FF000D268914203D1DFF8B416487001E0401C7A
:10100000EBE7DFF8A8064178007804F00CFC01E07B
:101010000C290020FFE0814D03202870322001F0D0
:1010200003FFA07A1F2802D0202814D02CE0287AB1
:1010300002F05EFB00EE100A7A48D0ED060A104876
:1010400090ED031AB8EEC11AB8EE400A81EE000A1C
:1010500003F07CFC18E0687A02F04AFB00EE100A0C
:101060000748D0ED030AF8EEE00AB8EE400AC0EEF9
:10107000800A6C4890ED050A03F068FC04E000BFAC
:10108000C428002000000020C5E0644D0320287023
:10109000322001F0C9FEA07A222804D03ED32428B1
:1010A00025D00DD33AE0DFF80006D0ED020A90ED2E
:1010B000010ADFF8480AC068C0B203F0F9FC2DE06D
:1010C000A87A02F015FB00EE100ADFF8DC05DFF865
:1010D0002C1AD1ED030AF8EEE00AB8EE400AC0EE91
:1010E000800A90ED010A007803F0E2FC16E0A87A8D
:1010F00002F0FEFA00EE100ADFF8AC05D0ED020AAD
:10110000DFF8F81991ED031AB8EEC11AB8EE400AEB
:1011100081EE000A007803F0CBFCFFE77BE03F4D57
:1011200003202870322001F07FFEA07A262806D006
:101130006DD3282837D01CD329284ED067E0E87A11
:1011400002F0D6FA00EE100ADFF8B409D0ED031A67
:1011500090ED021AD0ED010ADFF8A00990ED032A04
:10116000B8EEC22AB8EE400A82EE000A03F068FD2B
:101170004DE0E87A02F0BCFA00EE100ADFF88009D0
:10118000D0ED031A90ED021ADFF87019D1ED030AC1
:10119000F8EEE00AB8EE400AC0EE800A90ED000AD0
:1011A00003F04EFD33E0E87A02F0A2FA00EE100AF6
:1011B000DFF84C09D0ED031ADFF84019D1ED030A2E
:1011C000F8EEE00AB8EE400A80EE801AD0ED010A8F
:1011D00090ED000A03F034FD19E0E87A02F088FA95
:1011E00000EE100ADFF81809DFF81019D1ED030A34
:1011F000F8EEE00AB8EE400AC0EE801A90ED021A4E
:10120000D0ED010A90ED000A03F01AFDFFE702E0BD
:1012100003F0FEFAFFE7FFE705B0F0BD7C00002019
:1012200054290020C8270020582900201FB5DFF8C6
:10123000D448A078002810D0022820D00ED304284B
:1012400078D029D3062800F02E81C0F0C880082865
:1012500000F0B581C0F05A8125E224E2DFF8A80849
:10126000DFF89818CA68825C521CCB68C254CA68FE
:10127000825C3A2A02DB3022C968425413E2607968
:101280002179884202D22079401E2071F12200216A
:10129000A01C02F038F906E2E07800280CD1607951
:1012A0002179884202D22079401E2071F12200214A
:1012B000A01C02F028F93CE020790E2802D00F286B
:1012C00012D036E0E078002802D0012801D00AE0F0
:1012D00009E0DFF82808C168B1F5807F02DAC1684B
:1012E000491CC160FFE724E0E078002802D0012813
:1012F00001D01EE01DE000210800C0B20B2817DA63
:10130000DFF8AC23DFF8F4070B00DBB252F8233030
:10131000C468A3420AD10B00DBB20A2B06DA0B0029
:10132000DBB202EB83025268C26001E0491CE3E7D2
:10133000FFE7B8E1E07800280CD160792179884294
:1013400002D22079401E2071F1220021A01C02F05F
:10135000DAF843E02079132806D03FD3152820D0AF
:1013600010D316282BD039E0E078002802D00128CD
:1013700001D006E005E0DFF88407C168491CC160C0
:10138000FFE72BE0E078002802D0012801D007E039
:1013900006E0DFF87807C06BDFF86017C860FFE78A
:1013A0001CE0E078002802D0012801D006E005E02A
:1013B000DFF84807C168491CC160FFE70EE0E0782C
:1013C000002802D0012801D007E006E0DFF83C0742
:1013D000C06BDFF82817C860FFE7FFE763E1E0783C
:1013E00000281BD160792179884208D22079401EDB
:1013F0002071F1220021A01C02F085F852E0F120BA
:1014000003900020029016200190132000901623D4
:1014100000220421A01C02F099F843E020791A2848
:1014200006D03FD31C2820D010D31D282BD039E064
:10143000E078002802D0012801D006E005E0DFF8BE
:10144000BC06C168491CC160FFE72BE0E0780028BA
:1014500002D0012801D007E006E0DFF8B006C06B3B
:10146000DFF89816C860FFE71CE0E078002802D09B
:10147000012801D006E005E0DFF88006C168491CBC
:10148000C160FFE70EE0E078002802D0012801D01B
:1014900007E006E0DFF87406C06BDFF86016C8608E
:1014A000FFE7FFE7FFE0E07800280CD160792179C1
:1014B000884202D22079401E2071F1220021A01C16
:1014C00002F021F821E020791F2802D020280ED038
:1014D0001BE0E078002802D0012801D006E005E0FA
:1014E000DFF81806C168491CC160FFE70DE0E0782D
:1014F000002802D0012801D006E005E0DFF8FC0555
:10150000C168491CC160FFE7FFE7CCE0E078002834
:101510000CD160792179884202D22079401E207155
:10152000F1220021A01C01F0EEFF47E020792228E3
:1015300004D043D324282DD013D33FE0E0780028F3
:1015400002D0012801D00BE00AE0DFF8B015C8682E
:10155000002802D10120C86001E00020C860FFE738
:101560002CE0E078002802D0012801D011E010E042
:10157000DFF89C05807A02F0BBF8DFF88025D3689D
:101580004FF47A714843834202D2D068401CD06045
:10159000FFE713E0E078002802D0012801D00CE03A
:1015A0000BE0DFF85805C168DFF86425526B914203
:1015B00002DAC168491CC160FFE7FFE773E0E07829
:1015C00000280CD160792179884202D22079401E0E
:1015D0002071F1220021A01C01F095FF62E020792A
:1015E000262806D05ED3282830D01BD3292845D002
:1015F00058E0E078002802D0012801D011E010E086
:10160000DFF80C05C07A02F073F8DFF8F024D36835
:101610004FF47A714843834202D2D068401CD060B4
:10162000FFE73FE0E078002802D0012801D00CE07D
:101630000BE0DFF8C804C168DFF8D424126C9142D3
:1016400002DAC168491CC160FFE72BE0E07800289E
:1016500002D0012801D010E00FE0DFF8B404C07A16
:1016600002F046F8DFF89424D368502148438342BF
:1016700002D2D068401CD060FFE713E0E078002879
:1016800002D0012801D00CE00BE0DFF87004C16843
:10169000DFF87C24926C914202DAC168491CC16077
:1016A000FFE7FFE7FFE71FBD38290020780C002087
:1016B0001007002010B5DFF84C349878002810D0BF
:1016C000022820D00ED3042878D029D3062800F091
:1016D0002581C0F0CE80082800F0A481C0F04F81A1
:1016E0000BE20AE2DFF82004DFF81014CA68825C1B
:1016F000521ECB68C254CA68825C302A02DA392290
:10170000C9684254F9E118799979884202D2187966
:10171000401C1871F1220021981C01F0F4FEECE14C
:10172000D87800280CD118799979884202D2187992
:10173000401C1871F1220021981C01F0E4FE3CE0ED
:1017400018790E2802D00F2811D036E0D87800285A
:1017500002D0012801D009E008E0DFF8A003C16849
:10176000012902DBC168491EC160FFE725E0D87886
:10177000002802D0012801D01FE01EE00A2210003C
:10178000C0B2002818D0DFF88C33DFF870131000D7
:10179000C0B253F82000CC68A0420BD11000C0B2F8
:1017A000002807D01000C0B203EB800050F8040CF2
:1017B000C86001E0521EE2E7FFE79EE1D87800280A
:1017C0000CD118799979884202D21879401C187185
:1017D000F1220021981C01F096FE49E018791328A7
:1017E00006D045D3152823D013D3162831D03FE097
:1017F000D878002802D0012801D009E008E0DFF8FD
:10180000FC02C168012902DBC168491EC160FFE713
:101810002EE0D878002802D0012801D007E006E0A9
:10182000DFF8E802C06BDFF8D412C860FFE71FE002
:10183000D878002802D0012801D009E008E0DFF8BC
:10184000BC02C168012902DBC168491EC160FFE713
:101850000EE0D878002802D0012801D007E006E089
:10186000DFF8A802C06BDFF89412C860FFE7FFE75B
:1018700043E1D87800280CD118799979884202D2AE
:101880001879401C1871F1220021981C01F03BFED0
:1018900043E018791A2806D03FD31C2820D012D351
:1018A0001D282DD039E0D878002802D0012801D099
:1018B00008E007E09148C168012902DBC168491EC0
:1018C000C160FFE729E0D878002802D0012801D0C4
:1018D00005E004E08D48C06B8849C860FFE71CE064
:1018E000D878002802D0012801D008E007E083481A
:1018F000C168012902DBC168491EC160FFE70CE035
:10190000D878002802D0012801D005E004E07F4803
:10191000C06B7A49C860FFE7FFE7EEE0D87800289F
:101920000CD118799979884202D21879401C187123
:10193000F1220021981C01F0E6FD1FE018791F2814
:1019400002D020280DD019E0D878002802D0012834
:1019500001D005E004E06948C168491EC160FFE7A5
:101960000CE0D878002802D0012801D005E004E07E
:101970006248C168491EC160FFE7FFE7BDE0D87853
:1019800000280CD118799979884202D21879401C24
:101990001871F1220021981C01F0B5FD41E0187981
:1019A000222804D03DD3242825D012D339E0D8787A
:1019B000002802D0012801D00AE009E04F49C86898
:1019C000002802D10120C86001E00020C860FFE7C4
:1019D00027E0D878002802D0012801D00AE009E0E9
:1019E00046484B49896BC268914202DAC168491E78
:1019F000C160FFE715E0D878002802D0012801D0A7
:101A00000EE00DE04248807A01F072FE3B4A002170
:101A10004843D168884202D2D068401ED060FFE7B8
:101A2000FFE76AE0D87800280CD1187999798842C4
:101A300002D21879401C1871F1220021981C01F083
:101A400062FD59E01879262806D055D328282BD0D6
:101A500014D329283AD04FE0D878002802D00128A2
:101A600001D00AE009E025482949496CC268914241
:101A700002DAC168491EC160FFE73DE0D87800285E
:101A800002D0012801D00EE00DE02148C07A01F01B
:101A90002FFE1A4A00214843D168884202D2D068FA
:101AA000401ED060FFE727E0D878002802D0012848
:101AB00001D00AE009E011481549C96CC268914299
:101AC00002DAC168491EC160FFE715E0D878002836
:101AD00002D0012801D00EE00DE00D48C07A01F0DF
:101AE00007FE064A00214843D168884202D2D068E6
:101AF000401ED060FFE7FFE7FFE710BDC4280020CD
:101B00001C2900200C29002000000020C8270020EC
:101B10007C000020100700207FB5DFF8F048A07897
:101B2000002817D002281BD016D3042800F08F807D
:101B30001AD3062800F05582C0F06E81082800F004
:101B40006E83C0F0C1820A2800F05184C0F048843E
:101B500000F05ABC00F058BC0020A07000F054BC4B
:101B60000020A07000F050BC20790E2802D00F2871
:101B700036D06BE0E078002802D0012816D02EE0A5
:101B8000A51CF1200390002002900C20019007205A
:101B90000090072300220221280001F0D7FC062232
:101BA000290014F1080000F0C3FE18E0A51C06226D
:101BB000290014F1080000F0BBFEF1200390DFF8CB
:101BC000500802900F2001900E2000900E23E07824
:101BD000421ED2B20321280001F0B8FCFFE735E035
:101BE000E078002802D0012816D02EE0A51CF120B4
:101BF0000390002002900C20019007200090072302
:101C000000220221280001F0A1FC0622290014F183
:101C1000080000F08DFE18E0A51C0622290014F132
:101C2000080000F085FEF1200390DFF8E80702903D
:101C30000F2001900E2000900F23E078421ED2B2B8
:101C40000321280001F082FCFFE7FFE7DCE32079B5
:101C5000132808D0C0F0DF80152870D039D316289B
:101C600000F0A380D7E0E078002802D0012816D049
:101C70002EE0A51CF1200390002002900C20019082
:101C800007200090082300220221280001F05EFCBA
:101C90000622290014F1080000F04AFE18E0A51CF5
:101CA0000622290014F1080000F042FEF120039002
:101CB000DFF8640702901620019013200090132390
:101CC000E078421ED2B20421280001F03FFCFFE779
:101CD000A1E0E078002802D0012816D02EE0A51C53
:101CE000F1200390002002900C200190072000902A
:101CF000082300220221280001F028FC06222900E6
:101D000014F1080000F014FE18E0A51C06222900BA
:101D100014F1080000F00CFEF1200390DFF8FC063F
:101D2000029016200190132000901423E078421EA8
:101D3000D2B20421280001F009FCFFE76BE0E07853
:101D4000002802D0012816D02EE0A51CF120039017
:101D5000002002900C200190072000900823002210
:101D60000221280001F0F2FB0622290014F10800EC
:101D700000F0DEFD18E0A51C0622290014F1080081
:101D800000F0D6FDF1200390DFF8940602901620B3
:101D90000190132000901523E078421ED2B2042156
:101DA000280001F0D3FBFFE735E0E078002802D0FF
:101DB000012816D02EE0A51CF120039000200290EF
:101DC0000C20019007200090082300220221280007
:101DD00001F0BCFB0622290014F1080000F0A8FD68
:101DE00018E0A51C0622290014F1080000F0A0FD4F
:101DF000F1200390DFF82C060290162001901320AA
:101E000000901623E078421ED2B20421280001F08F
:101E10009DFBFFE7FFE7F7E220791A2808D0C0F022
:101E2000DF801C2870D039D31D2800F0A380D7E0B4
:101E3000E078002802D0012816D02EE0A51CF12061
:101E40000390002002900C200190072000900823AE
:101E500000220221280001F079FB0622290014F15A
:101E6000080000F065FD18E0A51C0622290014F109
:101E7000080000F05DFDF1200390DFF8AC05029052
:101E80001D2001901A2000901A23E078421ED2B241
:101E90000521280001F05AFBFFE7A1E0E0780028C7
:101EA00002D0012816D02EE0A51CF12003900020BE
:101EB00002900C20019007200090082300220221AC
:101EC000280001F043FB0622290014F1080000F06D
:101ED0002FFD18E0A51C0622290014F1080000F0CF
:101EE00027FDF1200390DFF8440502901D200190AA
:101EF0001A2000901B23E078421ED2B20521280050
:101F000001F024FBFFE76BE0E078002802D0012815
:101F100016D02EE0A51CF1200390002002900C208A
:101F2000019007200090082300220221280001F0E0
:101F30000DFB0622290014F1080000F0F9FC18E05E
:101F4000A51C0622290014F1080000F0F1FCF12084
:101F50000390DFF8DC0402901D2001901A2000900D
:101F60001C23E078421ED2B20521280001F0EEFACF
:101F7000FFE735E0E078002802D0012816D02EE0F7
:101F8000A51CF1200390002002900C200190072056
:101F90000090082300220221280001F0D7FA06222F
:101FA000290014F1080000F0C3FC18E0A51C06226B
:101FB000290014F1080000F0BBFCF1200390DFF8C9
:101FC000740402901D2001901A2000901D23E078D7
:101FD000421ED2B20521280001F0B8FAFFE7FFE760
:101FE00012E220791F2802D0202836D06BE0E0785A
:101FF000002802D0012816D02EE0A51CF120039065
:10200000002002900C20019007200090092300225C
:102010000221280001F09AFA0622290014F1080092
:1020200000F086FC18E0A51C0622290014F1080027
:1020300000F07EFCF1200390DFF8FC0302902020EA
:1020400001901F2000901F23E078421ED2B206218B
:10205000280001F07BFAFFE735E0E078002802D0A5
:10206000012816D02EE0A51CF1200390002002903C
:102070000C20019007200090092300220221280053
:1020800001F064FA0622290014F1080000F050FC67
:1020900018E0A51C0622290014F1080000F048FCF5
:1020A000F1200390DFF894030290202001901F207C
:1020B00000902023E078421ED2B20621280001F0D1
:1020C00045FAFFE7FFE79FE12079222805D0C0F01D
:1020D000A58024286DD037D3A0E0E078002802D076
:1020E000012816D02FE0A51CF120039000200290BB
:1020F0000C200190072000900A23002202212800D2
:1021000001F024FA0622290014F1080000F010FC66
:1021100019E0A51C0622290014F1080000F008FCB3
:10212000C74EF120039002962420019022200090B7
:102130002223E078421ED2B20721280001F006FADD
:10214000C048C663FFE769E0E078002802D00128B4
:1021500016D02DE0A51CF1200390002002900C2049
:102160000190072000900A2300220221280001F09C
:10217000EDF90622290014F1080000F0D9FB17E060
:10218000A51C0622290014F1080000F0D1FBF12063
:102190000390AD4802902420019022200090232338
:1021A000E078421ED2B20721280001F0CFF9FFE704
:1021B00034E0E078002802D0012816D02DE0A51CDC
:1021C000F1200390002002900C2001900720009045
:1021D0000A2300220221280001F0B8F90622290072
:1021E00014F1080000F0A4FB17E0A51C062229004A
:1021F00014F1080000F09CFBF1200390934802903A
:1022000024200190222000902423E078421ED2B2A4
:102210000721280001F09AF9FFE7FFE7F4E02079B1
:10222000262808D0C0F0DB8028286ED038D3292893
:1022300000F0A080D3E0E078002802D0012816D07A
:102240002DE0A51CF1200390002002900C200190AD
:10225000072000900B2300220221280001F076F9CC
:102260000622290014F1080000F062FB17E0A51C0B
:102270000622290014F1080000F05AFBF120039017
:102280007348029029200190262000902623E078B0
:10229000421ED2B20821280001F058F9FFE79EE063
:1022A000E078002802D0012816D02DE0A51CF120EE
:1022B0000390002002900C200190072000900B2337
:1022C00000220221280001F041F90622290014F120
:1022D000080000F02DFB17E0A51C0622290014F1D0
:1022E000080000F025FBF12003905A4802902920B5
:1022F0000190262000902723E078421ED2B20821C8
:10230000280001F023F9FFE769E0E078002802D017
:10231000012816D02DE0A51CF1200390002002908A
:102320000C200190072000900B230022022128009E
:1023300001F00CF90622290014F1080000F0F8FA67
:1023400017E0A51C0622290014F1080000F0F0FA9D
:10235000F12003904048029029200190262000900F
:102360002823E078421ED2B20821280001F0EEF8BE
:10237000FFE734E0E078002802D0012816D02DE0F5
:10238000A51CF1200390002002900C200190072052
:1023900000900B2300220221280001F0D7F806222A
:1023A000290014F1080000F0C3FA17E0A51C06226A
:1023B000290014F1080000F0BBFAF120039027482F
:1023C000029029200190262000902923E078421EC7
:1023D000D2B20821280001F0B9F8FFE7FFE713E0C7
:1023E000062214F10801A01C00F0A2FA0CE0154D21
:1023F0002878022807D0062214F10801A01C00F05A
:1024000097FA00202870FFE77FBD00000C2900200C
:102410007D00002080000020A0000020E827002090
:10242000A4000020F0270020A8000020F8270020AA
:10243000AC00002000280020980000209C00002014
:10244000382900207C000020B0000020B4000020CB
:10245000BC000020C0000020C4000020C8000020F4
:10246000F8B4030000250868E840002800F0D78091
:1024700001260F6816FA05F007403A00002A00F01E
:10248000CC80087910F00300012804D0087910F0FE
:10249000030002281DD19F685FF0030C2800C0B222
:1024A00040001CFA00FC37EA0C07D1F80CC02800E9
:1024B000C0B240001CFA00FC5CEA07079F60586845
:1024C000AE40B0434E68C6F30016AE403043040041
:1024D0005C60087910F0030003280ED0DE68032743
:1024E0002800C0B240008740BE438F682800C0B2B9
:1024F000400087403E433400DC60087910F0030060
:10250000022818D12800C00803EB8000066A0F27B4
:1025100015F00700C0B280008740BE430F6915F078
:102520000700C0B2800087403E4334002800C00846
:1025300003EB800004621E6803272800C0B240003D
:102540008740BE430F7917F003072800C0B2400050
:1025500087403E4334001C60486810F4403F5CD024
:102560009548066856F001060660006810F0010004
:1025700000900098914F2800800857F820605FF085
:102580000F0C15F00300C0B280001CFA00FC36EA04
:102590000C06B3F1904F01D1002414E08848834227
:1025A00001D101240FE08748834201D102240AE0CF
:1025B0008548834201D1032405E08448834201D148
:1025C000042400E0072415F00300C0B2800084401A
:1025D00026432800800847F820607D4C20689043FF
:1025E0004F68FF0200D5104320607A4E3468944350
:1025F0004F68BF0200D514433460774E3068904373
:102600004F68BF0300D510433060744E3468944364
:102610004F68FF0300D5144334606D1C23E7F1BC01
:1026200070472DE9F041030000250800E84000282C
:1026300000F0A880012616FA05F008400200002AE2
:1026400000F09E80DFF874C1280080085CF820004C
:102650000F2715F0030E5FFA8EFE5FEA8E0E17FA53
:102660000EFE1EEA00000400B3F1904F02D15FF0AD
:10267000000E19E05248834202D15FF0010E13E0D0
:102680005048834202D15FF0020E0DE04E48834273
:1026900002D15FF0030E07E04C48834202D15FF0A5
:1026A000040E01E05FF0070E15F00300C0B28000D9
:1026B0001EFA00FE74452CD14848D0F800E03EEAEE
:1026C000020EC0F800E04448D0F800E03EEA020EF6
:1026D000C0F800E03F48D0F800E03EEA020EC0F843
:1026E00000E03B48D0F800E03EEA020EC0F800E00F
:1026F00015F00300C0B2800017FA00F004002800B3
:1027000080085CF82000A043AE465FEA9E0E4CF8BD
:102710002E005FF0030C1868AE465FFA8EFE5FEA8B
:102720004E0E1CFA0EFE5EEA000018602800C0087B
:1027300003EB800E2800C00803EB8000D0F8208057
:1027400015F00700C0B28000874038EA0707CEF8CE
:10275000207098682F00FFB27F001CFA07F7B8437B
:1027600098605868AE4030EA06065E60DE68280071
:10277000C0B240001CFA00FC36EA0C0CC3F80CC0D6
:102780006D1C52E7BDE8F081020010690B009BB29E
:10279000184201D0012000E00020C0B270471300B1
:1027A000DBB2002B03D00B009BB2836102E00B0075
:1027B0009BB2836270470000601002400800014035
:1027C0000004004800080048000C004800100048C1
:1027D000080401400C0401400404014000040140CD
:1027E00038B504000D00DFF8FC010168200000F09E
:1027F00006F8A84201D3012000E0002032BD81424A
:1028000004D25FF0FF32101A081800E0081A70476F
:1028100038B52DED048B08EE100A0C001500DFED25
:10282000438A2800C0B2FB2810DBB8EEC89A280003
:10283000C0B24042C0B200F08BF829EE009A0021ED
:102840002000B0EE490A00F0B1F80EE0B8EEC89AE8
:102850002800C0B200F07CF889EE009A2900C9B2C5
:102860002000B0EE490A00F0A1F8BDEC048B31BDA8
:1028700010B400210A00838892B29A4206D2002244
:1028800003680C00A4B21A55491CF3E700228280A9
:1028900010BC704710B4040013005A1E9BB2002BEA
:1028A00002D02170641CF7E710BC704770B50400BB
:1028B0000D001600DFF8240100782100C9B288421B
:1028C00009D3DFF824211068002804D0310089B230
:1028D00028001268904770BD38B504000D0028002C
:1028E00003F0B2F9020092B229002000C0B2FFF753
:1028F000DDFF31BD70B504000D00280003F0A4F920
:10290000020092B229002000C0B2FFF7CFFFDFF82B
:10291000DC603068002807D0280003F095F901003A
:1029200089B228003268904770BD000000000000A6
:1029300030B404000D0013005A1E9BB2002B04D0CB
:102940002B7823706D1C641CF5E730BC70470000C9
:1029500010B504002000C0B2FB2816DB2000C0B276
:10296000D0F5807003F0A8F941EC110B9FED200B1E
:1029700003F0BBF953EC102B0020194903F0BEF90A
:1029800003F0E0FA00EE100A0FE02000C0B203F0FE
:102990000DFB41EC110B9FED160B03F0A6F951EC6A
:1029A000100B03F0CFFA00EE100A10BD38B52DED74
:1029B000028B82B0B0EE408A04000D0018EE100ABF
:1029C00003F002FBCDE900012A000B49200003F0CF
:1029D0001FFB02B0BDEC028B31BD00007C0C00205F
:1029E0000000F03F90290020982900209429002021
:1029F0000000000000002440AC03010838B50022AC
:102A00004FF40071DFF8F00BFFF7C9FE00224FF41E
:102A100000715FF09040FFF7C2FE03F019FBDFF892
:102A2000DC0BDFF8DC1BC163DFF8D81B421CC1F8EC
:102A30005821021DC1F8702110F114020A62027AB5
:102A400081F8252010F118028A63427A81F83D202E
:102A500010F10C03C1F8A031027A81F8A521DFF84A
:102A6000042C12F13C04C1F8B84110F12405C1F85E
:102A7000D051057A81F8D55112F12005C1F8E851FD
:102A800010F12805C1F80052057A81F8055212F1BB
:102A90002805C1F81852C1F84832037A81F84D323E
:102AA000C1F8604210F12C03C1F87832037A81F842
:102AB0007D3212F13003C1F8903210F13003C1F8C9
:102AC000A832037A81F8AD323832C1F8C02210F151
:102AD0001C02C1F8F022027A81F8F52210F12002DE
:102AE000C1F80823427A81F80D2310F13402C1F8AD
:102AF0005023827A81F8552310F13802C1F86823F7
:102B0000827A81F86D2310F14002C1F89823C27ACD
:102B100081F89D2310F14402C1F8B023C27A81F8F4
:102B2000B52310F14802C1F8C823C27A81F8CD2339
:102B300010F14C02C1F8E023C07A81F8E503DFF818
:102B4000280B0068C1F82804DFF8200B0068C1F8E2
:102B5000580431BD38B5002000242000C0B2072839
:102B600035DADFF80C5B2000C0B200012844407861
:102B700001282AD12000C0B2000128444068002862
:102B80000ED003F0BDFA2100C9B2090129444968F9
:102B9000401A2100C9B2090129448968884214D326
:102BA00000202100C9B209012944487003F0A8FAA5
:102BB0002100C9B20901294448602000C0B22100A7
:102BC000C9B209012944C9688847641CC5E70020C7
:102BD00032BD38B50400DFF8A45A687800281FD148
:102BE00000224FF40071DFF8100AFFF7D8FD002231
:102BF0004FF400715FF09040FFF7D1FD03F028FA29
:102C000089200090202307220521DFF8740A03F0B1
:102C10007DFA012068700221DFF8540A03F0BEFB40
:102C2000012032BD7CB50400DFF8585A287800280E
:102C300003D0022823D003D33DE003F0D9FB3AE0D0
:102C400003F04CFC89200090202307220521DFF8A7
:102C5000300A03F05BFADFF8302A03212C2003F05E
:102C60006FFBDFF8282A0421082003F069FB03F03A
:102C700092FC41F28830DFF8F81988611BE00120EE
:102C8000DFF8F819487089200090202307220521D9
:102C9000DFF8EC0903F03AFADFF8D46902213000DA
:102CA00003F07CFB0321300003F078FB04213000AB
:102CB00003F074FBFFE72878401C28702100C9B29C
:102CC000DFF8AC0903F079FB012076BD70B5040094
:102CD00000F0BCF8DFF8A4596878012803D1A8787F
:102CE00000F0E8FB04E00021DFF8840903F056FB64
:102CF000DFF89C09A9780278914207D0A978017081
:102D0000DFF890090068DFF890190860A8780B28B0
:102D100012D1DFF884694FF4FA613068FFF760FD83
:102D2000012809D1DFF86C0900683060062215F12E
:102D30000801A81CFFF7FCFD2100C9B2DFF830092B
:102D400003F03BFB012070BD10B50400DFF84C1907
:102D5000DFF84C090069FFF743FD012827D1DFF8B0
:102D600044090178012905D1002101700020DFF814
:102D70000C198870DFF830090188491C018042F283
:102D80001071DFF8EC282300DBB21B011A449268B3
:102D9000B1FBF2F102888A420DD300210180DFF8F5
:102DA000DC188878002806D00020887003E0012015
:102DB000DFF8F01808702100C9B2DFF8B40803F09A
:102DC000FCFA012010BD38B50400FDF7F8F9DFF872
:102DD000D058287A012808D10521DFF8940803F09B
:102DE000DDFADFF8B008006828612100C9B2DFF819
:102DF000800803F0E2FA012032BD10B50400FDF7AF
:102E0000C5F9DFF89C080021017000210172012042
:102E100010BD10B5040000224FF40051DFF8D807B0
:102E2000FFF7BDFC012010BD10B5040001224FF4D6
:102E30000051DFF8C407FFF7B2FCDFF834082100C7
:102E400089B28166062103F0B8FA10BD38B5DFF803
:102E5000AC47DFF85808E16B097850F82100DFF83B
:102E6000A417C1F83803DFF8480801786170DFF86B
:102E70004418407851F820006060207A00F038FC57
:102E800000EE100ADFF8DC57B8EE400AD5ED010A73
:102E900020EE200ABDEEC00A84ED030A607A00F03D
:102EA00027FC00EE100AB8EE400AD5ED020A20EE2B
:102EB000200ABDEEC00A84ED040A207A00F018FC56
:102EC00000EE100AB8EE400AD5ED030A20EE200A03
:102ED000BDEEC00A84ED050A607A00F009FC00EE40
:102EE000100AB8EE400AD5ED040A20EE200ABDEE25
:102EF000C00A84ED060A207A00F0FAFB00EE100A00
:102F0000B8EE400AD5ED050A20EE200ABDEEC00A53
:102F100084ED070A607A00F0EBFB00EE100AB8EED1
:102F2000400AD5ED060A20EE200ABDEEC00A84ED67
:102F3000080A207A00F0DCFB00EE100AB8EE400A26
:102F4000D5ED070A20EE200ABDEEC00A84ED090A7D
:102F5000207A00F0CDFB00EE100AB8EE400AD5ED65
:102F6000090A20EE200ABDEEC00A84ED0A0A207A82
:102F700000F0BEFB00EE100AB8EE400AD5ED0B0AD9
:102F800020EE200ABDEEC00A84ED0B0A207A00F084
:102F9000AFFB00EE100AB8EE400AD5ED0D0A20EEA8
:102FA000200ABDEEC00A84ED0C0AA07A00F0A0FB56
:102FB00000EE100ADFF84856B8EE400AD5ED020AD6
:102FC00020EE200ABDEEC00A84ED0D0AA07A00F0C2
:102FD0008FFB00EE100AB8EE400AD5ED010A20EE94
:102FE000200ABDEEC00A84ED0E0AE07A00F080FBF4
:102FF00000EE100ADFF8C056B8EE400AD5ED000A20
:1030000020EE200ABDEEC00A84ED100AE07A00F03E
:103010006FFB00EE100AB8EE400AD5ED010A20EE73
:10302000200ABDEEC00A84ED110AE07A00F060FBD0
:1030300000EE100AB8EE400AD5ED020A20EE200A92
:10304000BDEEC00A84ED120AE07A00F051FB00EEFA
:10305000100AB8EE400AD5ED030A20EE200ABDEEB4
:10306000C00A84ED130A31BD2DE9F84F8AB006007D
:103070002021002202AC200003F0FAFA00240025EF
:1030800000208DF8050000208DF806001827DFF8D5
:1030900074853000C0B27843404490F815903000F9
:1030A000C0B2784340444068002842D0012130003B
:1030B000C0B200F0A9F900280ED13000C0B27843A8
:1030C000404442683000C0B278434044017D4846E5
:1030D000C0B203F035F91EE05FF0000A3000C0B264
:1030E00078434044406802F0AFFD5146C9B2814286
:1030F00007D2202002A95246D2B288541AF1010AFE
:10310000ECE702AA3000C0B278434044017D484653
:10311000C0B203F015F93000C0B2784340444068B3
:1031200002F092FDDFF894150979491C484310FA22
:1031300089F93000C0B2784340448068002800F02C
:103140003A813000C0B278434044007B00280BD065
:1031500002281ED012D3042830D024D3062845D00C
:1031600036D307283ED044E03000C0B27843404414
:1031700080680078002104000D003AE03000C0B201
:1031800078434044806890F90000C11704000D00A6
:103190002FE03000C0B278434044806800880021AE
:1031A00004000D0025E03000C0B278434044806840
:1031B000B0F90000C11704000D001AE03000C0B2E1
:1031C0007843404480680068002104000D0010E04E
:1031D0003000C0B27843404480680068C1170400E2
:1031E0000D0006E001208DF8050002E002208DF8B8
:1031F00005009DF8050000280CD13000C0B27843CE
:103200004044407B40420200D2B202A92000FFF7B6
:10321000FFFA26E09DF8050001281AD13000C0B25F
:1032200078434044806802F00FFD202819D2300016
:10323000C0B278434044806802F006FD020092B2BA
:103240003000C0B278434044816802A8FFF770FBA9
:1032500007E03000C0B278434044806800788DF8C1
:10326000080002213000C0B200F0CEF8012823D1BE
:103270003000C0B278434044807DC0B200098DF870
:1032800006009DF806000F2805D0202002A99DF811
:103290000620885410E05FF0000A02A802F0D4FC77
:1032A0005146C9B2814207D2202002A95246D2B269
:1032B00088541AF1010AF0E73000C0B201285ED14B
:1032C0005FF0000A00208DF804003000C0B278439F
:1032D0004044407B002802D009208DF804003920AA
:1032E00000902E2315220F21DFF8D40303F0F4F908
:1032F00002A802F0A9FC8346DFF8C0030079401C55
:1033000000FB0BFB5846C0B2022190FBF1F01F28D6
:103310000BDA5846C0B2022190FBF1F0D0F1400028
:103320009DF8041050FA81FA07E05846C0B2D0F177
:103330005F009DF8041050FA81FA02AA3000C0B272
:1033400078434044007D401CC0B2DFF870134979D7
:10335000D1EBC001491EC9B25046C0B203F066FBB2
:103360005AFA8BF09DF80490B0EB0909892000907F
:10337000202307220521C24802F0C8FE1BE0892055
:103380000090202307220521BD4802F0BFFE02AABB
:103390003000C0B278434044017D4846C0B202F0DC
:1033A000CFFF02A802F050FCC4490979491C4843E8
:1033B00010FA89F081463000C0B278434044006979
:1033C00000281ED03000C0B27843404480680028F6
:1033D00017D03000C0B2784340448068B949884271
:1033E0000FD03000C0B27843404402693000C0B210
:1033F00007FB00F708EB0700017D4846C0B202F06A
:103400009FFF0BB0BDE8F08FF8B504000D007D49BB
:103410002200D2B21820424301EB0200817D280035
:10342000C0B201402800C0B281422FD1C426A64FAD
:103430004FF496712800C0B2704338442200D2B2D3
:1034400050F82200FFF7CCF901282AD12800C0B299
:1034500006FB00F607EB06002100C9B28D4A126890
:1034600040F82120312099492A00D2B242430A442F
:103470002300DBB22E00F6B200FB06F00844210068
:10348000C9B2405CD0F10100D0540AE08F492A0053
:10349000D2B23120424301EB02002100C9B2002226
:1034A00042548A49EDB23120454301EB0500E4B2B4
:1034B000005DF2BD70B50400002603F00FF800F0C7
:1034C00077F82000C0B200F07DF82000C0B200F014
:1034D0009BF80025280080B2312811DA49492A00DA
:1034E00092B21820424301EB0200C07D2100C9B214
:1034F000884203D12800C0B2FFF7B6FD6D1CE9E792
:1035000003F049F870BDF0B44271C4780379250026
:10351000EDB2AB420AD3F0253A4E2700FFB2182392
:103520005F4306EB07039D75641CEFE71823354CDA
:1035300085785D4325444679AE75002904D08578A9
:1035400003FB05F323449960F0BC70472DE9F84F65
:103550000700884691469A460A9E0B9DDDF830B0DA
:103560000D9C87F8008087F8019087F802A0FE7014
:103570003D712200D2B259463800FFF7C4FFBDE8C2
:10358000F18F10B4010000221000C0B204280CD248
:103590001000C0B2085C4E4B1400E4B21B5D9842B0
:1035A00001D0002002E0521CEEE7012010BC704761
:1035B00080B50120009008237F220821002003F01D
:1035C000B9FA01BD10B504002000C0B2002812D124
:1035D00024480078002807D126A20A4890F8441011
:1035E000782002F0ADFE06E023A2064890F84410D1
:1035F000782002F0A5FE10BD000800487C000020E5
:1036000038290020300100200100C9B20A2924D144
:1036100030490978002906D002290ED008D30429A0
:1036200015D00FD318E02C492C4AC2F8701418E0BA
:103630002B492A4AC2F8701413E02A49274AC2F8D3
:1036400070140EE02849254AC2F8701409E0274991
:10365000224AC2F8701404E003E01F491F4AC2F86E
:1036600070147047C827002060060020CC0000209E
:103670000C000020200000004E0000000C2900205B
:1036800068F70008AF2900204C01010818FD000868
:10369000B02900209029002068290020C0270900B7
:1036A000C4280020B1290020A229002028010020E0
:1036B000780C0020100700201C2900202C29002055
:1036C00040F500087A0C0020301900207C210020F1
:1036D000D40000207C000020D80000203001002011
:1036E000E8000020F8000020080100201801002058
:1036F00001000800C0B2002801D1012021E008002B
:10370000C0B2FF2801D10A201BE00800C0B2FE2889
:1037100001D1642015E00800C0B2FD2802D14FF4A9
:103720007A700EE00800C0B2FC2802D142F210709C
:1037300007E00800C0B2FB2802D1DFF8C00600E0B5
:10374000012070472DE9F24F824693460020002168
:103750000A260027B046B946009A1588BBF1000F2B
:1037600008D5DBF100042D202A0092B20AF80200ED
:103770006D1C00E05C462000002142464B4603F0F1
:1037800073FA002901D1002808D0A6FB080106FB26
:10379000091107FB081180468946ECE74046494677
:1037A0000A22002303F060FA06000F00002F01D167
:1037B000002E28D02000002132003B0003F054FAF4
:1037C0003030290089B20AF801006D1CA0465FF074
:1037D00000092000002132003B0003F045FAA6FB5F
:1037E000002306FB013307FB0033B8EB020079EB43
:1037F00003010400300039000A22002303F034FAE8
:1038000006000F00D2E7009805802800C0B2BDE88E
:10381000F28F2DE9FE4F06000F0090460020ADF814
:1038200000000020002400215FF0000BB7F800909A
:10383000B8F1000F02D5D8F1000500E04546424638
:1038400039003000FFF77EFFB7F800A0002D4FD001
:103850009DF80800FFF74CFF01008D4205D20A20B9
:1038600045431BF1010B002DF7D15846C0B200288B
:1038700021D050460200D2B2324412F8012C2D2A37
:1038800006D00200D2B24B4692B29BB29A4208D105
:1038900030220300DBB2F2541AF1010ABBF1010B32
:1038A000E3E70200D2B2324412F8012C0300DBB28B
:1038B000F254401EDEE70A20B1FBF0F45046834686
:1038C000002C15D00A20B4FBF0F45846C0B23044A6
:1038D00010F8010C5946C9B27054BBF1010B002C11
:1038E000EED12E205946C9B270541AF1010AE7E709
:1038F000A7F800A05046C0B2BDE8FE8FF0B4049C0B
:1039000000252E00B6B2A6420BD20E88771C0F807F
:103910002F00BFB217FA83F7D75DB6B287556D1C7B
:10392000EFE7F0BC704700002DE9F34F81B02DEDBB
:10393000028B9FED658A002401250026F7EE008AA0
:1039400000273800C0B2202864DA0398F84010F04D
:10395000010004003800C0B2172829DA18EE900AD6
:1039600002F032FB82468B462000C0B202F01EFB02
:10397000804689463800C0B2D0F117005FF0FF31B1
:10398000484302F099F941EC110B9FED500B02F006
:10399000ACF951EC100B42464B4603F07DFA52460F
:1039A0005B4603F04BFB02F0CDFA08EE900A2FE0E5
:1039B0003800C0B21F2824DA3000C0B202F0F6FA94
:1039C00082468B462000C0B202F0F0FA804689465B
:1039D0003800C0B2173802F06FF941EC110B9FEDBF
:1039E0003B0B02F082F951EC100B42464B4603F0C0
:1039F00053FA52465B4603F021FB03F0DDFB060061
:103A000006E02000C0B2012802D15FF0FF300500BF
:103A10007F1C96E7280040B202F04EF980468946A6
:103A20003000C0B27F3802F047F941EC110B9FED36
:103A3000270B02F05AF951EC100B42464B4603F0AB
:103A40002BFA8046894618EE900A02F0BDFA4246EB
:103A50004B4603F021FA02F075FA00EE100A0498C2
:103A600080ED000ABDEC028BBDE8F78F70B4030057
:103A700000220024002000252A000E00D2B2F6B257
:103A8000B2421FD22A00D2B29A5C302A0ADB2A0044
:103A9000D2B29A5C3A2A05DA2A00D2B29A5C303A5B
:103AA000140001E0002214002A00D2B2002A03D13F
:103AB0002200D2B2100003E00A22504350FA84F0F0
:103AC0006D1CD9E770BC70470000000000000000CA
:103AD00000000040F8B52DED028B82B004000D000F
:103AE0000020009000269FED4E8A0027DFED568AC9
:103AF00069462000FFF718FF2800C0B200280AD04E
:103B0000FB2836D0FC282BD0FD2820D0FE2815D04D
:103B1000FF2809D036E09FED420AB0EE408A9FEDC3
:103B20004A0AF0EE408A2DE00A2000EE100AB0EEBC
:103B3000408A9FED3C0AF0EE408A23E09FED3A0A6E
:103B4000B0EE408A9FED390AF0EE408A1AE09FED10
:103B5000380AB0EE408A9FED370AF0EE408A11E055
:103B60009FED350AB0EE408A9FED340AF0EE408AB0
:103B700008E09FED330AB0EE408A9FED320AF0EE86
:103B8000408AFFE79DED000AB5EE400AF1EE10FA1B
:103B90001BDBB8EE480ADDED000A20EE200AF2EE4B
:103BA000040A20EE200ABCEEC00A10EE100A0A2217
:103BB000B0FBF2F102FB1101052923D39DED000AB0
:103BC00030EE280A8DED000A1CE0B8EE480ADDED63
:103BD000000AF1EE600A20EE800AF2EE040A20EEFE
:103BE000200ABCEEC00A10EE100A0A22B0FBF2F165
:103BF00002FB1101052905D39DED000A30EE680A8C
:103C00008DED000AB8EE480ADDED000A20EE200A2C
:103C1000BDEEC00A10EE100A02B0BDEC028BF2BD80
:103C200001000000CDCCCC3D640000000AD7233C4D
:103C3000E80300006F12833A1027000017B7D1384D
:103C4000A0860100ACC52737000000002DE9F04137
:103C50002DED028B07000E009FED678A3000C0B289
:103C600000280BD0FB2800F09E80FC2877D0FD2890
:103C700051D0FE282CD0FF2807D0B7E000EE107AF4
:103C8000B8EEC00AB0EE408AB0E00A2097FBF0F030
:103C900000EE100AB8EEC00A5FF00A0810EE100A33
:103CA00002F092F904000D0097FBF8F008FB107881
:103CB000404602F001F8524A524B03F0EDF8220060
:103CC0002B0003F0BBF902F03DF908EE100A8DE07D
:103CD000642097FBF0F000EE100AB8EEC00A5FF027
:103CE000640810EE100A02F06FF904000D0097FB53
:103CF000F8F008FB1078404601F0DEFF424A434BE3
:103D000003F0CAF822002B0003F098F902F01AF928
:103D100008EE100A6AE04FF47A7097FBF0F000EEBC
:103D2000100AB8EEC00A4FF47A7810EE100A02F0CA
:103D30004BF904000D0097FBF8F008FB10784046A3
:103D400001F0BAFF324A334B03F0A6F822002B00F1
:103D500003F074F902F0F6F808EE100A46E042F2B9
:103D6000107097FBF0F000EE100AB8EEC00A42F2B5
:103D7000107810EE100A02F027F904000D0097FBEE
:103D8000F8F008FB1078404601F096FF224A234BDA
:103D900003F082F822002B0003F050F902F0D2F871
:103DA00008EE100A22E0154897FBF0F000EE100A2A
:103DB000B8EEC00ADFF8448010EE100A02F004F9F1
:103DC00004000D0097FBF8F008FB1078404601F066
:103DD00073FF134A134B03F05FF822002B0003F02C
:103DE0002DF902F0AFF808EE100AFFE7B0EE480A2E
:103DF000BDEC028BBDE8F08100000000A086010050
:103E00009A9999999999B93F7B14AE47E17A843F81
:103E1000FCA9F1D24D62503F2D431CEBE2361A3F14
:103E2000F168E388B5F8E43E10B42DED010A0020F6
:103E30006A460023042B07D2D45C1900C9B2C9001A
:103E40008C4020435B1CF5E712BC704710B50400A2
:103E50000121DFF82C0D02F0B0FA012010BD30B5C1
:103E600087B004001421002202AD280002F000FCFB
:103E7000DFF8940BD0E90023CDE9002302A80090DD
:103E8000DFF81C5C2978684600F0F3FA287868703F
:103E9000BDF80410009800F039FDDFF8080C8078B8
:103EA000001F012809D82878022803DA2878401C46
:103EB000287001E00020287001E000202870DFF861
:103EC000C05C0221280002F069FA0321280002F0F8
:103ED00074FA2100C9B2280002F06FFA012007B07D
:103EE00030BD10B50400DFF8C01B8888002810D052
:103EF000DFF8B80B02888B889A4208D10021018034
:103F00000221DFF87C0C02F049FA012008E08988E0
:103F100001802100C9B2DFF8680C02F04EFA0120DE
:103F200010BD2DE9F041040000250026DFF8787B64
:103F3000B88803283DDB3868B988084410F8010CBC
:103F40003968BA88114411F8021C51EA00210E00A8
:103F5000B988891E386803F04CF905002800310043
:103F600080B289B288421DD10721DFF8140C02F01B
:103F700024FA3868007801280DD1DFF8248B01215C
:103F800098F8010000F08EFA98F80120D7E90001B6
:103F900000F078FA13E00021DFF8040B407800F01D
:103FA00081FA0CE00021DFF8F80A407800F07AFA94
:103FB00005E00021DFF8E80A407800F073FADFF846
:103FC000E00A407800F0B6F80221DFF8B40B02F006
:103FD00006FA0120BDE8F0810100DFF8480C027804
:103FE000032A01D0042202700120704710B504009A
:103FF0002100C9B2DFF8880B02F0DFF9012010BD03
:1040000010B50400DFF8200C0178012936D1DFF863
:104010001C1CC978012931D1DFF8141C91ED030A69
:10402000D0ED020AB4EE600AF1EE10FA08DA91ED72
:10403000030AD0ED010AB4EE600AF1EE10FA0ED5D3
:1040400001224FF400615FF09040FEF7A8FB0122CF
:104050004FF480515FF09040FEF7A1FB1CE000227E
:104060004FF400615FF09040FEF799FB00224FF49F
:1040700080515FF09040FEF792FB0DE000224FF47C
:1040800000615FF09040FEF78AFB00224FF4805100
:104090005FF09040FEF783FBDFF8E40A4FF47A719B
:1040A00081662100C9B202F088F9012010BD38B53F
:1040B0000400DFF8801B087800281FD10120087059
:1040C000DFF8745B012210212800FEF768FB002254
:1040D00008212800FEF763FB00220421DFF85C0BB7
:1040E000FEF75DFB4FF4FA60DFF8941A886703F07F
:1040F00063FA03F00CFC03F0FBFB12E000200870F5
:1041000001220821DFF8300BFEF749FB01220421D0
:10411000DFF8280BFEF743FB4EF66020DFF8601A4D
:1041200088672100C9B2DFF8580A02F046F9012079
:1041300032BD000038B52DED028B04009FEDCB8A17
:104140002000C0B200285AD1DFF8E45A95ED010AE8
:10415000F2EE040A20EE200ABDEEC00A10EE100AAC
:1041600000F0B6F885ED010A95ED010A00F01EF9A0
:1041700085ED030A95ED020A00F07AF985ED040A4F
:1041800095ED040AD5ED060A30EE200ADFF8140C8E
:10419000D0ED020AF4EE400AF1EE10FA02D5D0EDAD
:1041A000020A0BE0D0ED030AB4EE600AF1EE10FA59
:1041B00002D5D0ED030A01E0F0EE400AC5ED040A95
:1041C000D5ED030A95ED051A30EE818AD0ED000A8F
:1041D000F4EE480AF1EE10FA02D590ED000A0BE079
:1041E00090ED010AB4EE408AF1EE10FA02D590ED9E
:1041F000010A01E0B0EE480A85ED030AFFE7DFF8A7
:10420000305A2878002807D10020686095ED010A0F
:1042100000F0CCF885ED030A2878002807D10020AB
:10422000A86095ED020A00F023F985ED040ABDECC3
:10423000028B31BD2DE9F04100242500EDB20A2D9D
:1042400043DA00252E00F6B2092E3CDA2E00F6B233
:1042500001EB860676682F00FFB251F82770BE4248
:104260002FDA00262F00FFB251F82770AC465FFA14
:104270008CFC01EB8C0CDCF804C0AE465FFA8EFEC1
:1042800041F82EC0AC465FFA8CFC01EB8C0CCCF8EC
:104290000470AC465FFA8CFC50F82CC0AE465FFA56
:1042A0008EFE00EB8E0EDEF804E0A8465FFA88F87A
:1042B00040F828E0AE465FFA8EFE00EB8E0ECEF898
:1042C00004C06D1CBEE7641CB7E7BDE8F0810000C8
:1042D00038B52DED028B04009FED648ADFF8E01BFA
:1042E000087800282AD10120087000210800C0B2F7
:1042F0000A2815DA0800C0B2DFF8B82D0B00DBB2CF
:1043000042F82300DFF8BC2B0800C0B252F82000AE
:10431000002803D10800C0B242F82040491CE5E75C
:10432000DFF8A05B092300222900DFF8880DFFF7E2
:1043300081FF95ED050AB8EEC00A30E000200100CB
:10434000C9B20A291EDADFF86C1D0200D2B251F898
:104350002220092A0BD100220300DBB241F82320DE
:10436000DFF8601B0200D2B241F8224008E00200F0
:10437000D2B251F82220521C0300DBB241F82320B4
:10438000401CDCE7DFF83C5B092300222900DFF852
:10439000240DFFF74FFF95ED050AB8EEC00AF2EEC7
:1043A000040A80EE200ABDEC028B31BDF0EE400A1B
:1043B0009FEDAC1A9FEDAC3ADFED2C3AF5EE400ADA
:1043C000F1EE10FA40D0F0EE603A9FEDA80ADFF867
:1043D0007C0D90ED004A34EE634AB4EE404AF1EEB3
:1043E00010FA08DA90ED004A33EEC44AB4EE404ABF
:1043F000F1EE10FA03DB9FED9E0A21EE001ADFF8C2
:10440000C40B90ED000AF0EE401ADFF8BC1B91EDF2
:10441000000A30EE010AB0EE402A32EE030A82EEC4
:10442000000AF0EE402A33EEE10AB0EE614A00EEF7
:10443000224A80ED004AB7EE000A30EE620A20EE12
:10444000020A81ED000A08E0DFF87C0B5FF07E5184
:104450000160DFF8700B00210160DFF8680BDFF806
:10446000EC1C02680A6090ED000A70470000000032
:10447000704738B504000D002900C9B2200000F0D3
:104480001BF831BD70B504000D0016002000007847
:10449000C0B2012805D13200D2B22000290000F0BC
:1044A000E9F870BD38B504000D002900C9B220003C
:1044B000C0B200F05AF931BD3EB504000D0028002D
:1044C000C0B2002812D0022822D018D304283CD031
:1044D00027D3062861D04CD3082800F0868070D3FB
:1044E0000A2800F0AA80C0F09480BAE0042000906E
:1044F000012303220121200002F099FEB1E00220F5
:104500000090132303220121200002F090FEA8E076
:1045100008200090242303220121200002F087FEBE
:104520009FE0DFF8F40C818804290DD10168019126
:104530008088022190FBF1F080B2009024231022A9
:104540000121200002F0C1FE8BE0DFF8CC0C818855
:1045500004290DD1016801918088022190FBF1F0BE
:1045600080B20090262310220121200002F0ADFE2F
:1045700077E0DFF8A40C818804290DD1016801914E
:104580008088022190FBF1F080B200902823102255
:104590000121200002F099FE63E0DFF87C0C8188A5
:1045A00004290DD1016801918088022190FBF1F06E
:1045B00080B200902A2310220121200002F085FE03
:1045C0004FE0DFF8540C818804290DD10168019176
:1045D0008088022190FBF1F080B2009031231022FC
:1045E0000121200002F071FE3BE0DFF82C0C8188F5
:1045F00004290DD1016801918088022190FBF1F01E
:1046000080B20090332310220121200002F05DFED1
:1046100027E0DFF8040C818804290DD1016801919D
:104620008088022190FBF1F080B2009035231022A7
:104630000121200002F049FE13E0DFF8DC0B818845
:1046400004290DD1016801918088022190FBF1F0CD
:1046500080B20090372310220121200002F035FEA5
:10466000FFE737BD95BFD63317B7D13801002041DA
:1046700000007A442DE9F84F04000D0016000020D8
:10468000ADF8000000273000C0B2002807D0401E5F
:1046900021D0401E30D0401E072861D963E003209E
:1046A000ADF8000004226946200000F0FCF88046C6
:1046B000DFF87C9519F104014046FFF735F9042233
:1046C0006946200000F0EFF8070019F108013800F2
:1046D000FFF72AF947E00320ADF8000004226946FD
:1046E000200000F0E0F8070000213800FFF7F2F9A1
:1046F000DFF83C15C86336E00320ADF80000042263
:104700006946200000F0CFF88046DFF824B51BF1A1
:104710001C014046FFF708F904226946200000F01A
:10472000C2F8814600214846FFF7D4F9CBF82000B3
:1047300004226946200000F0B6F882461BF12401ED
:104740005046FFF7F1F804226946200000F0ABF86C
:10475000070000213800FFF7BDF9CBF8280002E080
:1047600000F049F8FFE7BDE8F18F0200D2B2002A5D
:104770000A2A1BD80A00D2B2012A0ED1DFF8B024CF
:1047800000235370012313700200D2B2002A0CD10F
:104790000122DFF89834DA7007E0DFF894245378C8
:1047A000032B02DA53785B1C5370FFE7DFF8803489
:1047B0005A78002A1ED05A78032A1BDB00221A706E
:1047C00000225A6000229A600022DA6100221A62F6
:1047D00000225A6200229A620022DA6200221A63E0
:1047E00000225A6300229A630022DA630022DFF873
:1047F0003C34DA70704780B50320DFF82814087065
:104800000421DF4801F0EBFD3220FEF70DFB01BD76
:1048100080B5DFF80C0A0078A14908700220DFF8A3
:10482000041408700421D64801F0C7FD01BD2DE92C
:10483000F04104000D0016002F00DFF8DC8940462F
:10484000FEF716F8300080B2022802D004280BD000
:104850001DE07878D8F8001008703878D8F8001083
:104860004870A8F8046015E07878D8F8001008704F
:104870003878D8F800104870F878D8F800108870A8
:10488000B878D8F80010C870A8F8046002E00020DA
:10489000A8F80400DFF8880904700120DFF8841903
:1048A0000870BDE8F081F0B4030000200C8815000A
:1048B000EDB2042D16D12500ADB21D44AE78250011
:1048C000ADB21D44ED7855EA06252600B6B29E5DD0
:1048D0002700BFB21F447F7857EA062757EA0547EB
:1048E00038000DE01500EDB2022D09D12500ADB262
:1048F0005D5D2600B6B21E44767856EA0526300085
:104900000D8855FA82F50D80F0BC704770B5040033
:104910000D00DFF8146901224FF480513000FDF7DB
:104920003EFF0A2003F016F802F0DAFF4FF47A7324
:104930002A0092B22100DFF8F40803F05CF80022AC
:104940004FF480513000FDF72AFF70BD2DE9F04192
:104950002DED028B8EB0F0EE408AB0EE608A3221EF
:1049600000226C46200001F083FE00270024002571
:10497000DFF8BC82C8ED058A88ED068A98ED050A45
:10498000FFF752FA060098ED060AFFF74DFA804647
:1049900068463100090E3A00D2B281547F1C3100C2
:1049A000090C3A00D2B281547F1C3100090A3A0046
:1049B000D2B281547F1C3900C9B246547F1C414693
:1049C000090E3A00D2B281547F1C4146090C3A00CC
:1049D000D2B281547F1C4146090A3A00D2B28154B6
:1049E0007F1C3900C9B200F801807F1C3A00D2B2A6
:1049F00092B26946DFF8380804F01AF80EB0BDEC40
:104A0000028BBDE8F08100006403010870B500244A
:104A10000025DFF81C080078C0B2FF2839D0DFF885
:104A200014080178C9B20906DFF80C080078C0B292
:104A300051EA0041DFF804080078C0B251EA0021D1
:104A4000DFF8FC070078C0B201430C00DFF8F40780
:104A50000178C9B20906DFF8F0070078C0B251EA60
:104A60000041DFF8E8070078C0B251EA0021DFF822
:104A7000E0070078C0B201430D006D4E16F114013D
:104A80002000FEF751FF16F118012800FEF74CFF39
:104A900004E06748002141610021816170BD000090
:104AA000AA2900200C290020280C0020A829002079
:104AB0002DE9F0472DED028B8EB00400F0EE408A18
:104AC000B0EE608A322100226D46280001F0D0FD50
:104AD000002500260027DFF850A18AF800408AED63
:104AE000028ACAED018A9AED020AFFF79DF9804613
:104AF0009AED010AFFF798F9814668469AF8001086
:104B00002A00D2B281546D1C4146090E2A00D2B24D
:104B100081546D1C4146090C2A00D2B281546D1C8F
:104B20004146090A2A00D2B281546D1C2900C9B23B
:104B300000F801806D1C4946090E2A00D2B281544A
:104B40006D1C4946090C2A00D2B281546D1C49469D
:104B5000090A2A00D2B281546D1C2900C9B200F89A
:104B600001906D1C2A00D2B292B26946DFF8E406C9
:104B700003F05EFF0EB0BDEC028BBDE8F0870000D5
:104B80008407002070B500240025DFF8C8060078EF
:104B9000C0B2FF283CD0244EDFF8BC06007830704D
:104BA000DFF8B8060178C9B20906DFF8B406007864
:104BB000C0B251EA0041DFF8AC060078C0B251EA59
:104BC0000021DFF8A4060078C0B201430C00DFF832
:104BD0009C060178C9B20906DFF894060078C0B2D5
:104BE00051EA0041DFF88C060078C0B251EA00219A
:104BF000DFF884060078C0B201430D0016F1080109
:104C00002000FEF791FE311D2800FEF78DFE07E023
:104C1000054800210170DFF86416816000214160C1
:104C200070BD00007C000020382900207C29002075
:104C3000C8270020B729002000040048000C0048C5
:104C40002DE9F84F2DED048B8EB0F0EE409AB0EECA
:104C5000608AF0EE418AB0EE619A3221002201AC06
:104C6000200001F005FD5FF0000B00200090002403
:104C700000250026DFF82CA1CAED009A8AED018AF2
:104C8000CAED028A8AED039A9AED000AFFF7CCF882
:104C900007009AED010AFFF7C7F880469AED020A6D
:104CA000FFF7C2F881469AED030AFFF7BDF8824686
:104CB00001A83900090E5A46D2B281541BF1010BEA
:104CC0003900090C5A46D2B281541BF1010B39004C
:104CD000090A5A46D2B281541BF1010B5946C9B296
:104CE00047541BF1010B4146090E5A46D2B281547A
:104CF0001BF1010B4146090C5A46D2B281541BF1FB
:104D0000010B4146090A5A46D2B281541BF1010BEC
:104D10005946C9B200F801801BF1010B4946090E42
:104D20005A46D2B281541BF1010B4946090C5A462E
:104D3000D2B281541BF1010B4946090A5A46D2B23C
:104D400081541BF1010B5946C9B200F801901BF1C7
:104D5000010B5146090E5A46D2B281541BF1010B88
:104D60005146090C5A46D2B281541BF1010B5146EF
:104D7000090A5A46D2B281541BF1010B5946C9B2F5
:104D800000F801A01BF1010B5A46D2B292B201A960
:104D9000DFF8EC0403F04CFE0EB0BDEC048BBDE874
:104DA000F18F00001C2900202DE9F041002400258E
:104DB00000260027DFF8C8040078C0B2FF2871D0B1
:104DC000DFF8C0040178C9B20906DFF8BC04007836
:104DD000C0B251EA0041DFF8B4040078C0B251EA31
:104DE0000021DFF8AC040078C0B201430C00DFF80A
:104DF000A4040178C9B20906DFF89C040078C0B2A7
:104E000051EA0041DFF894040078C0B251EA002171
:104E1000DFF88C040078C0B201430D00DFF8840491
:104E20000178C9B20906DFF880040078C0B251EAFF
:104E30000041DFF878040078C0B251EA0021DFF8C1
:104E400070040078C0B201430E00DFF868040178F6
:104E5000C9B20906DFF860040078C0B251EA004127
:104E6000DFF858040078C0B251EA0021DFF850049E
:104E70000078C0B201430F00DFF8488441462000AB
:104E8000FEF752FD18F104012800FEF74DFD18F160
:104E900008013000FEF748FD18F10C013800FEF75C
:104EA00043FD0BE0DFF81C04DFF8D01301600021A4
:104EB0004160DFF8141481600021C160BDE8F08119
:104EC000B82900205C28002078B591B004000D00BE
:104ED0003C21002202AE300001F0CAFB0020ADF8F8
:104EE00004000321042000F09EFC0B20009000230E
:104EF000DFF8D82301A902A8FEF700FD4FF47A736A
:104F0000BDF8042002A9DFF8C80302F074FD12B056
:104F100070BD78B591B004000D003C21002202AEB6
:104F2000300001F0A5FB0020ADF80400C04803F0FC
:104F30004FFDC84803F04CFDDFF8980300210170D5
:104F4000CE498160002141600D2000900023DFF8F0
:104F5000882301A902A8FEF7D1FC4FF47A73BDF8AB
:104F6000042002A9DFF8680302F045FD12B070BD0D
:104F700038B590B004000D0003A8DFF860133222AA
:104F800003F09AFDD648D0E90023CDE9012303A818
:104F900001900023D348027802A903A8FEF739FC48
:104FA0000220009000237AA202A903A8FEF7A6FC23
:104FB0004FF47A73BDF808200199C54802F01BFD33
:104FC00011B030BD802900200C080020F8B5040085
:104FD0000D0000262068007830283ADB2068007831
:104FE0003A2836DA002700200100C9B2A28889B227
:104FF00091420FD221680200D2B2895C302905DBD0
:1050000021680200D2B2895C3A2900DB02E07F1CF1
:10501000401CE9E73900C9B22068FEF727FD060009
:10502000B6F5807F0DD2AF4841783000C0B200F0B5
:10503000FAFB4FF47A73022278A1A54802F0DBFC58
:105040000EE04FF47A730522A749A14802F0D3FC81
:1050500006E04FF47A730522A3499D4802F0CBFC89
:10506000F1BD38B590B004000D0003A89F4932226D
:1050700003F022FD9E48D0E90023CDE9012303A8D7
:10508000019000239748427802A903A8FEF7C1FBCC
:105090000220009000233EA202A903A8FEF72EFCE6
:1050A0004FF47A73BDF808200199894802F0A3FCF7
:1050B00011B030BD34280020F8B504000D000026E2
:1050C00020680078302839DB206800783A2835DA03
:1050D000002700200100C9B2A28889B291420FD2F4
:1050E00021680200D2B2895C302905DB2168020008
:1050F000D2B2895C3A2900DB02E07F1C401CE9E760
:105100003900C9B22068FEF7B1FC06000C2E0DD2A2
:105110003100C9B27348007800F085FB4FF47A7310
:1051200002223EA16A4802F066FC0EE04FF47A7358
:1051300005226D49664802F05EFC06E04FF47A7382
:1051400005226949624802F056FCF1BD842900201D
:1051500080B5FFF75BFCFFF715FDFFF725FE6548FF
:105160006549C0F8A4136549C0F8B4136449C0F890
:10517000C4136449C0F8D4136349C0F8E413634905
:10518000C0F8F41302F0C3FB02F0B2FB01BD000053
:105190000D0A000070B50020002400252800C0B2D0
:1051A000082836DA5A4E2800C0B200013044407850
:1051B00001282CD1012004002800C0B20001304495
:1051C000406800280ED000F09BFF2900C9B20901F9
:1051D00031444968401A2900C9B20901314489683B
:1051E000884214D300202900C9B209013144487013
:1051F00000F086FF2900C9B2090131444860280047
:10520000C0B22900C9B209013144C96888476D1C80
:10521000C4E72000C0B270BD040800204F4B00005E
:10522000B62900207C000020000800482023002030
:10523000000802080208020803080208040802081D
:1052400005080208060802080708020808080208FC
:1052500009080208001002080210020803100208E0
:1052600004100208051002080610020807100208C0
:1052700008100208091002080A10020800007A4407
:10528000002002080220020803200208042002086D
:10529000052002080620020807200208082002084C
:1052A000092002080A2002080B2002080C2002082C
:1052B0000D2002080E2002080F200208102002080C
:1052C000112002081C2900200000A04264010108EE
:1052D000102200203829002054FE0008E0FA0008BF
:1052E0006C030108780C00205C03010814FB000823
:1052F0007403010818080020C94E0008134F000865
:10530000714F0008CD4F000863500008B9500008E5
:105310008407002002000020704730B40200DFF84C
:10532000F808002304688588635583885B1C8380A4
:10533000DFF8E8381B7804688588635583885B1C30
:105340008380012030BC7047F8B504000D000020B8
:1053500000212E0022683300DBB2D25C23683700C4
:10536000FFB23B445F7857EA02273A0092B2B2F5A7
:10537000807F23DA380080B200281FD0DFF8980839
:1053800021683200D2B2895C02688388D154818856
:10539000491C818021683200D2B2114449780268E8
:1053A0008388D1548188491C8180DFF87008417856
:1053B0003800C0B200F037FA012000E00020F2BD52
:1053C00030B40200DFF85008002304688588635574
:1053D00083885B1C8380DFF844385B7804688588A9
:1053E000635583885B1C8380012030BC7047F8B50F
:1053F00004000D00002000212E0022683300DBB2E3
:10540000D25C23683700FFB23B445F7857EA02273B
:105410003A0092B20B2A1FDADFF8FC07216832004B
:10542000D2B2895C02688388D1548188491C81800A
:1054300021683200D2B21144497802688388D1547D
:105440008188491C81803900C9B2DFF8D007007813
:1054500000F0E9F9012000E00020F2BDF8B50400F9
:105460000D000026DFF8B80790ED030AFEF7DCFC1C
:105470000100DFF8A4070A00120A03688788DA55DA
:105480008288521C828002688388D1548288521C90
:1054900082800A00120E03688788DA558288521CBF
:1054A00082800A00120C03688788DA558288521CB1
:1054B00082800120F2BDF8B504000D000026DFF85F
:1054C000600790ED040AFEF7AFFC0100DFF8480723
:1054D0000A00120A03688788DA558288521C828083
:1054E00002688388D1548288521C82800A00120E7E
:1054F00003688788DA558288521C82800A00120C61
:1055000003688788DA558288521C82800120F2BDA8
:1055100030B40200DFF80007002304688588635573
:1055200083885B1C8380DFF8FC361B7804688588E1
:10553000635583885B1C8380012030BC7047F8B5BD
:1055400004000D00002000212E0022683300DBB291
:10555000D25C23683700FFB23B445F7857EA0227EA
:105560003A0092B2012A03D0380080B2002822D13A
:10557000DFF8A40621683200D2B2895C0268838811
:10558000D1548188491C818021683200D2B21144F3
:10559000497802688388D1548188491C8180DFF86A
:1055A0008406D0ED020A90ED010A3800C0B2FFF780
:1055B0007FFA012000E00020F2BDF8B504000D00E4
:1055C0000026DFF8600690ED020AFEF72DFC0100D0
:1055D000DFF844060A00120A03688788DA558288D1
:1055E000521C828002688388D1548288521C828037
:1055F0000A00120E03688788DA558288521C82805E
:105600000A00120C03688788DA558288521C82804F
:105610000120F2BD2DE9F84304000D000026002012
:1056200000900027A84620684146C9B20844817806
:1056300020684246D2B21044C07850EA0120216866
:105640004246D2B2895C22684346DBB21A4492F8E1
:10565000019059EA012959EA0049DFF8BC0521689F
:105660004246D2B2895C02688388D1548188491C41
:10567000818021684246D2B2114449780268838809
:10568000D1548188491C818021684246D2B211449C
:10569000897802688388D1548188491C8180216877
:1056A0004246D2B21144C97802688388D1548188B5
:1056B000491C818069464846FEF736F9DFF86405E3
:1056C000DDED000A90ED010A0078FFF7F1F9012005
:1056D000BDE8F283F8B504000D000026DFF84405AC
:1056E00090ED010AFEF7A0FB0100DFF82C050A008F
:1056F000120A03688788DA558288521C8280026801
:105700008388D1548288521C82800A00120E03685A
:105710008788DA558288521C82800A00120C03683E
:105720008788DA558288521C82800120F2BD2DE9DB
:10573000F84304000D000026002000900027A84632
:1057400020684146C9B20844817820684246D2B2F6
:105750001044C07850EA012021684246D2B2895CE8
:1057600022684346DBB21A4492F8019059EA0129B3
:1057700059EA0049DFF8A00421684246D2B2895CA8
:1057800002688388D1548188491C818021684246FF
:10579000D2B21144497802688388D1548188491C67
:1057A000818021684246D2B2114489780268838898
:1057B000D1548188491C818021684246D2B211446B
:1057C000C97802688388D1548188491C81806946E0
:1057D0004846FEF7A9F8DFF84C04D0ED020A9DED2B
:1057E000000A0078FFF764F90120BDE8F28370B584
:1057F00004000D00DFF83064012220213000FCF7A6
:10580000CEFF0A2002F0A6F84FF47A732A0092B273
:105810002100DFF8180402F0EEF800222021300009
:10582000FCF7BDFF70BD7CB504000D00082100220F
:105830006E46300000F01CFF0026DFF8E003047025
:105840004570694602783300DBB2CA54761C407852
:105850003200D2B28854761C3200D2B292B269467B
:10586000DFF8CC0303F0E4F873BDDFF8C40300787D
:10587000C0B2FF280AD0DFF8A403DFF8B813097814
:105880000170DFF8B4130978417005E0DFF88C038C
:10589000042101700321417070472DE9F04F87B05A
:1058A000040000275FF000085FF000090025DFF822
:1058B0008C23D2E90001CDE902010026DFF8802324
:1058C000D2E90001CDE90401DFF84CA35046FCF712
:1058D000CFFFA0880828C0F29B812068A1880844D7
:1058E00010F8010C2168A288114411F8021C51EA39
:1058F0000021ADF81810A188891E206801F079FCFC
:10590000ADF81A00BDF81A00BDF81810884240F032
:105910007D8120680078C1490978884240F076810D
:10592000206880782168CF7857EA0027206840787F
:10593000032805D006286CD0102800F0C38061E150
:10594000206800792168497951EA00210D005FF053
:1059500001084046C0B2082836DA5FF01409DFF8C3
:10596000E4B24046C0B209FB00F058444068390038
:1059700089B2884225D1280080B24146C9B209FBCC
:1059800001F15944896888421BDB0021002042460E
:10599000D2B209FB02F25A44D268904701280FD1D3
:1059A0004046C0B209FB00F0584480682D1A4046BA
:1059B000C0B209FB00F90BEB09008068C71900E0D1
:1059C00002E018F10108C4E7BAF8040000281FD06B
:1059D000BAF80400022190FBF1F201FB120000284A
:1059E00016D1DAF800000190BAF80400022190FB09
:1059F000F1F080B200903B009BB203222068017856
:105A000004A801F0D6FCBDF814100498FFF7EFFECF
:105A1000FAE004200100C9B2A288921E91420EDA77
:105A200021680200D2B2895C029ABDF80C30D154D0
:105A3000BDF80C10491CADF80C10401CEAE75FF0F3
:105A400001084046C0B2082817DA14227D4B4046B0
:105A5000C0B2504318444068390089B2884209D125
:105A6000002102A8C4465FFA8CFC02FB0CF21A4427
:105A70001269904718F10108E3E7BAF8040000281A
:105A80001FD0BAF80400022190FBF1F201FB1200D2
:105A9000002816D1DAF800000190BAF804000221BB
:105AA00090FBF1F080B200903B009BB20622206890
:105AB000017804A801F0CEFCBDF814100498FFF79B
:105AC00096FEA1E00020060020680079216849794F
:105AD00051EA00210D0007200100C9B2A288921EE0
