:020000040800F2
:10000000B02B0020CDEA00085DE400085FE40008A2
:1000100061E4000863E4000865E4000800000000F3
:1000200000000000000000000000000067E400087D
:1000300069E40008000000006BE400086DE40008BB
:100040000DEE000811EE000815EE000819EE00088C
:100050001DEE000821EE000825EE000829EE00083C
:100060002DEE000831EE000835EE000839EE0008EC
:100070003DEE00087DE4000841EE000887E400083A
:1000800045EE000849EE00084DEE000851EE00086C
:1000900055EE000859EE00085DEE000861EE00081C
:1000A00065EE000869EE00086DEE000871EE0008CC
:1000B00075EE0008000000000000000079EE000866
:1000C0007DEE000881EE000885EE000889EE00084C
:1000D0008DEE000891E4000891EE00089BE4000812
:1000E00095EE0008A5E400080000000000000000F4
:1000F0000000000000000000000000000000000000
:100100000000000099EE0008000000009DEE0008CD
:100110000000000000000000A1EE0008A5EE0008AD
:10012000A9EE0008ADEE0008B1EE0008B5EE00083B
:10013000B9EE000800000000000000000000000010
:10014000BDEE0008C1EE0008C5EE0008C9EE0008CB
:10015000CDEE0008AFE40008B9E40008D1EE0008D5
:10016000D5EE0008D9EE0008DDEE00080000000022
:10017000E1EE0008E5EE0008E9EE000800000000EE
:10018000EDEE0008F1EE0008F5EE000880B5DFF8AE
:10019000840A0078012806D0022807D0042808D055
:1001A000082809D00BE000F08BF808E000F040FDD3
:1001B00005E000F0AFFE02E001F010F8FFE701BD3E
:1001C0002DE9F8430024DFF84C5A287A002873D12F
:1001D0002021DFF8440A01F095FC002801D1012616
:1001E00000E00026DFF8347A0421380001F08AFCB0
:1001F000002802D15FF0010801E05FF00008022151
:10020000380001F07FFC002802D15FF0010901E015
:100210005FF000090121380001F074FC002801D1D1
:10022000012000E0002056EA480656EA890634001C
:1002300054EAC0042000C0B2012805D0022803D02F
:10024000042801D008282DD16868401C68606868BF
:10025000502826D32C7001202872DFF8C80921000D
:100260000278C9B2914215D1DFF8BC190A68521C54
:100270000A600A68322A04D350226A6032220A6075
:100280000EE00968322902D34E21696008E000219E
:10029000696005E0002169600021DFF88C291160A8
:1002A000047009E00020DFF87C19087028206860DD
:1002B0000020DFF8741908602878BDE8F283000098
:1002C0007FB5DFF86849A078002814D0012837D01E
:1002D000022867D0032800F0C780042800F04A8174
:1002E000052800F07782062800F09F83082800F098
:1002F000218400F08EBCDFF81C590020E860DFF894
:10030000006C0A220021300001F082FC30203070A5
:10031000302070703020B0703020F070E86800013C
:10032000801CC0B20390029605200190042000902A
:10033000052300220121A01C02F0D2F900F069BCC3
:10034000DFF8D008C168491CC160C16804291EDB00
:10035000DFF8AC0B02F0DFF9012815D1A51C06224D
:10036000290014F1080001F0A1FCF1200390002005
:1003700002900A200190072000900723002202210A
:10038000280002F0ADF90BE00020A07008E0C06882
:100390000001801C0200D2B20021A01C02F07DF9F5
:1003A00000F037BC2079072806D05CD309282FD06D
:1003B00018D30A2842D056E0A51C0622290014F1C1
:1003C000080001F073FCF1200390002002900D2042
:1003D00001900C2000900C2300220321280002F041
:1003E0007FF940E0A51C0622290014F1080001F065
:1003F0005DFCF12003900020029014200190112058
:100400000090112300220421280002F069F92AE05B
:10041000A51C0622290014F1080001F047FCF12078
:100420000390002002901E2001901D2000901D23AB
:1004300000220621280002F053F914E0A51C062230
:10044000290014F1080001F031FC00200390002085
:1004500002902120019021200090212300220721D9
:10046000280002F03DF9D4E320790C2802D00D28B1
:1004700040D07EE0E078002802D001281FD038E08C
:10048000A61C0622310014F1080001F00FFCDFF871
:100490008457F220039015F10C0002900D2001907A
:1004A0000C2000900C23E278521CD2B203213000C1
:1004B00002F016F9DFF84C0A4078E86019E0A51C54
:1004C0000622290014F1080001F0F0FBF02003904F
:1004D0000020029024200190242000902423002258
:1004E0000821280002F0FCF80120DFF8181A087033
:1004F000FFE73EE0E078002802D001281FD038E076
:10050000A61C0622310014F1080001F0CFFBDFF831
:100510000457F220039015F10C0002900D20019079
:100520000D2000900D23E278521CD2B2032130003E
:1005300002F0D6F8DFF8CC094068E86019E0A51CA5
:100540000622290014F1080001F0B0FBF02003900E
:1005500000200290242001902420009024230022D7
:100560000821280002F0BCF80120DFF89819087073
:10057000FFE74EE32079112809D0C0F02A81132823
:1005800000F096804ED3142800F0DD8021E1E07861
:10059000002802D001281FD043E0A61C062231000B
:1005A00014F1080001F082FBDFF86856F220039096
:1005B00015F10C00029014200190112000901123DD
:1005C000E278521CD2B20421300002F089F8DFF840
:1005D0003409006AE86024E0A51C0622290014F111
:1005E000080001F063FBF02003900020029024201B
:1005F000019024200090242300220821280002F0EA
:100600006FF8DFF80449FF21DFF80806C06802F040
:10061000EBFB84ED000A04222100032003F0A1F982
:10062000FFE7D6E0E078002802D001281FD03EE0A6
:10063000A61C0622310014F1080001F037FBDFF898
:10064000D455F220039015F10C0002901420019073
:10065000112000901223E278521CD2B20421300003
:1006600002F03EF8DFF8A408006AE8601FE0A51C6D
:100670000622290014F1080001F018FBF020039075
:1006800000200290242001902420009024230022A6
:100690000821280002F024F8DFF87418DFF8740548
:1006A000C06808600422042003F05BF9FFE790E0D3
:1006B000E078002802D001281FD043E0A61C0622C3
:1006C000310014F1080001F0F1FADFF84855F2208A
:1006D000039015F10C00029014200190112000905D
:1006E0001323E278521CD2B20421300001F0F8FF4B
:1006F000DFF81008406AE86024E0A51C0622290003
:1007000014F1080001F0D2FAF020039000200290CA
:100710002420019024200090242300220821280076
:1007200001F0DEFFDFF8E047FF21DFF8E804C068F2
:1007300002F05AFB84ED000A04222100052003F098
:1007400010F9FFE745E0E078002802D001281FD02B
:100750003EE0A61C0622310014F1080001F0A6FAC2
:10076000DFF8B054F220039015F10C000290142031
:100770000190112000901423E278521CD2B204217F
:10078000300001F0ADFFDFF88407806AE8601FE009
:10079000A51C0622290014F1080001F087FAF020B8
:1007A0000390002002902420019024200090242314
:1007B00000220821280001F093FFDFF85417DFF82A
:1007C0005404C06808600422062003F0CAF8FFE75A
:1007D000FFE71EE22079182809D0C0F025811A28E9
:1007E00000F095804ED31B2800F0DA801CE1E07801
:1007F000002802D001281FD043E0A61C06223100A9
:1008000014F1080001F052FADFF80854F2200390C6
:1008100015F10C0002901B20019018200090182365
:10082000E278521CD2B20521300001F059FFDFF806
:10083000D406806AE86024E0A51C0622290014F191
:10084000080001F033FAF0200390002002902420E9
:10085000019024200090242300220821280001F088
:100860003FFFDFF8A446FF21DFF8A803C06802F0CD
:10087000BBFA84ED000A04222100072003F071F87E
:10088000FFE7D1E0E078002802D001281FD03DE04A
:10089000A61C0622310014F1080001F007FADFF867
:1008A0007453F220039015F10C0002901B2001906C
:1008B000182000901923E278521CD2B20521300092
:1008C00001F00EFFDFF84406006BE8601EE0A51C97
:1008D0000622290014F1080001F0E8F9F020039045
:1008E0000020029024200190242000902423002244
:1008F0000821280001F0F4FEDFF81416C548C0688E
:1009000008600422082003F02CF8FFE78CE0E07870
:10091000002802D001281ED041E0A61C062231008A
:1009200014F1080001F0C2F9BA4DF220039015F15C
:100930000C0002901B200190182000901A23E278EE
:10094000521CD2B20521300001F0CAFEDFF8B40516
:10095000C06AE86023E0A51C0622290014F1080003
:1009600001F0A4F9F02003900020029024200190CF
:1009700024200090242300220821280001F0B0FE4A
:10098000DFF88445FF21A348C06802F02DFA84ED0A
:10099000000A04222100092002F0E3FFFFE743E000
:1009A000E078002802D001281ED03CE0A61C0622D8
:1009B000310014F1080001F079F9964DF22003900E
:1009C00015F10C0002901B200190182000901B23B1
:1009D000E278521CD2B20521300001F081FEDFF82E
:1009E0002C05806BE8601EE0A51C0622290014F18E
:1009F000080001F05BF9F020039000200290242011
:100A0000019024200090242300220821280001F0D6
:100A100067FEDFF8FC147F48C068086004220A20E3
:100A200002F09FFFFFE7FFE7F3E020791D2802D0E7
:100A30001E283FD07DE0E078002802D001281ED09B
:100A400037E0A61C0622310014F1080001F02EF94F
:100A5000704DF220039015F10C0002901E200190C1
:100A60001D2000901D23E278521CD2B206213000D6
:100A700001F036FEDFF88C048069E86019E0A51CFF
:100A80000622290014F1080001F010F9F02003906B
:100A90000020029024200190242000902423002292
:100AA0000821280001F01CFE0120DFF8581408700E
:100AB000FFE73EE0E078002802D001281ED037E0B2
:100AC000A61C0622310014F1080001F0EFF8514D88
:100AD000F220039015F10C0002901E2001901D20C1
:100AE00000901E23E278521CD2B20621300001F0A1
:100AF000F7FDDFF81004C069E86019E0A51C0622C4
:100B0000290014F1080001F0D1F8F0200390002032
:100B10000290242001902420009024230022082108
:100B2000280001F0DDFD0120DFF8D8130870FFE791
:100B3000FFE76EE0207A032806D069D3052864D049
:100B400063D3062833D063E00320DFF8B8130870BE
:100B5000322001F0DCFAA07A0C2802D00D2809D04E
:100B600024E0DFF8680641782A48C068C0B203F084
:100B7000BBFB1BE000200100C9B20B290FDADFF834
:100B800050160200D2B251F82210224AD268914285
:100B900003D1DFF83816487001E0401CEBE7DFF8BE
:100BA0002C064178007803F09FFBFFE730E003203C
:100BB000DFF850130870322001F0A9FAA07A1D283E
:100BC00002D01E2810D01FE0DFF84003D0ED060A47
:100BD000104890ED030AB8EEC00A9FED111A80EE9E
:100BE000010A02F04CFF0FE00A4890ED030AB8EE4C
:100BF000C00ADFED0B0AC0EE200ADFF8100390ED0B
:100C0000050A02F03CFFFFE702E002F09AFEFFE770
:100C1000FFE77FBDC426002000080048000400480C
:100C20000000C84298270020402700200C27002001
:100C30001FB5DFF8A045A07800280BD002281BD0F4
:100C400009D3042873D024D3062800F02581C0F0EE
:100C5000C18054E153E1DFF8A802DFF87C15CA68CF
:100C6000825C521CCB68C254CA68825C3A2A02DB9E
:100C70003022C968425442E160792179884202D227
:100C80002079401E2071F1220021A01C01F005FDF9
:100C900035E1E07800280CD160792179884202D2D0
:100CA0002079401E2071F1220021A01C01F0F5FCEA
:100CB0003CE020790C2802D00D2812D036E0E078F4
:100CC000002802D0012801D00AE009E0DFF8080579
:100CD000C168B1F5807F02DAC168491CC160FFE7D5
:100CE00024E0E078002802D0012801D01EE01DE0B9
:100CF00000210800C0B20B2817DADFF8D424DFF88F
:100D0000D8040B00DBB252F82330C468A3420AD1E6
:100D10000B00DBB20A2B06DA0B00DBB202EB83021C
:100D20005268C26001E0491CE3E7FFE7E7E0E078D2
:100D300000280CD160792179884202D22079401EA6
:100D40002071F1220021A01C01F0A7FC41E02079D4
:100D5000112806D03DD313281FD010D314282AD031
:100D600037E0E078002802D0012801D006E005E055
:100D7000DFF86404C168491CC160FFE729E0E0783E
:100D8000002802D0012801D006E005E05F48C06BD2
:100D9000DFF84414C860FFE71BE0E078002802D0C9
:100DA000012801D006E005E0DFF82C04C168491CE9
:100DB000C160FFE70DE0E078002802D0012801D0F3
:100DC00006E005E05148C06BDFF80C14C860FFE78F
:100DD000FFE794E0E07800281BD160792179884210
:100DE00008D22079401E2071F1220021A01C01F0C0
:100DF00054FC50E0F1200390002002901420019058
:100E000011200090142300220421A01C01F068FC92
:100E100041E02079182806D03DD31A281FD010D3DE
:100E20001B282AD037E0E078002802D0012801D022
:100E300006E005E0DFF8A003C168491CC160FFE7D8
:100E400029E0E078002802D0012801D006E005E082
:100E50002E48C06BDFF88013C860FFE71BE0E07826
:100E6000002802D0012801D006E005E0DFF8680381
:100E7000C168491CC160FFE70DE0E078002802D09E
:100E8000012801D006E005E02048C06BDFF84813D8
:100E9000C860FFE7FFE732E0E07800280CD1607916
:100EA0002179884202D22079401E2071F12200214E
:100EB000A01C01F0F2FB21E020791D2802D01E28A1
:100EC0000ED01BE0E078002802D0012801D006E017
:100ED00005E0DFF80403C168491CC160FFE70DE0CD
:100EE000E078002802D0012801D006E005E0DFF814
:100EF000E802C168491CC160FFE7FFE7FFE71FBDCB
:100F000000000020D825002044270020982500203C
:100F10004827002010B5DFF8BC32987800280BD0A5
:100F200002281BD009D3042870D024D3062800F04F
:100F30001B81C0F0C28048E147E1DFF86008DFF8BC
:100F40009812CA68825C521ECB68C254CA68825C1E
:100F5000302A02DA3922C968425436E1187999797F
:100F6000884202D21879401C1871F1220021981C85
:100F700001F093FB29E1D87800280CD118799979F0
:100F8000884202D21879401C1871F1220021981C65
:100F900001F083FB39E018790C2802D00D2810D01D
:100FA00033E0D878002802D0012801D008E007E01B
:100FB0008948C168012902DBC168491EC160FFE799
:100FC00023E0D878002802D0012801D01DE01CE0E1
:100FD0000A221000C0B2002816D07D4B7E491000B6
:100FE000C0B253F82000CC68A0420BD11000C0B2B0
:100FF000002807D01000C0B203EB800050F8040CAA
:10100000C86001E0521EE4E7FFE7DEE0D878002880
:101010000CD118799979884202D21879401C18713C
:10102000F1220021981C01F038FB45E018791128C5
:1010300006D041D3132821D012D314282ED03BE060
:10104000D878002802D0012801D008E007E06248E3
:10105000C168012902DBC168491EC160FFE72BE0BE
:10106000D878002802D0012801D006E005E0DFF89A
:101070003007C06B5849C860FFE71DE0D8780028EA
:1010800002D0012801D008E007E05348C1680129D7
:1010900002DBC168491EC160FFE70DE0D878002877
:1010A00002D0012801D006E005E0DFF8F406C06BAD
:1010B0004949C860FFE7FFE787E0D87800280CD1EE
:1010C00018799979884202D21879401C1871F12256
:1010D0000021981C01F0E1FA45E01879182806D0A3
:1010E00041D31A2821D012D31B282ED03BE0D87828
:1010F000002802D0012801D008E007E03648C16886
:10110000012902DBC168491EC160FFE72BE0D878E6
:10111000002802D0012801D006E005E0DFF88006B3
:10112000C06B2D49C860FFE71DE0D878002802D0C9
:10113000012801D008E007E02748C168012902DB47
:10114000C168491EC160FFE70DE0D878002802D0D1
:10115000012801D006E005E0DFF84406C06B1E4917
:10116000C860FFE7FFE730E0D87800280CD1187995
:101170009979884202D21879401C1871F122002115
:10118000981C01F08AFA1FE018791D2802D01E2849
:101190000DD019E0D878002802D0012801D005E050
:1011A00004E00D48C168491EC160FFE70CE0D87833
:1011B000002802D0012801D005E004E00648C168FB
:1011C000491EC160FFE7FFE7FFE710BDEC0A002002
:1011D000740500200C270020C426002038B584B0F8
:1011E000DFF8C045A078002811D0022813D00FD313
:1011F000042800F0868011D3062800F04782C0F052
:101200006481082800F0BA82C0F0B182C3E2C2E271
:101210000020A070BFE20020A070BCE220790C2862
:1012200002D00D2836D06BE0E078002802D00128EB
:1012300016D02EE0A51CF1200390002002900A2079
:10124000019007200090072300220221280001F0CE
:1012500047FA0622290014F1080000F027FD18E0E3
:10126000A51C0622290014F1080000F01FFDF12042
:101270000390DFF8340502900D2001900C200090BF
:101280000C23E078421ED2B20321280001F028FA94
:10129000FFE735E0E078002802D0012816D02EE0E4
:1012A000A51CF1200390002002900A200190072045
:1012B0000090072300220221280001F011FA0622E3
:1012C000290014F1080000F0F1FC18E0A51C06222A
:1012D000290014F1080000F0E9FCF1200390DFF888
:1012E000CC0402900D2001900C2000900D23E0789A
:1012F000421ED2B20321280001F0F2F9FFE7FFE716
:1013000049E22079112808D0C0F0DE80132870D07F
:1013100039D3142800F0A380D6E0E078002802D06A
:10132000012816D02EE0A51CF12003900020029089
:101330000A200190072000900823002202212800A3
:1013400001F0CEF90622290014F1080000F0AEFCED
:1013500018E0A51C0622290014F1080000F0A6FCE4
:10136000F1200390DFF8480402901420019011202E
:1013700000901123E078421ED2B20421280001F02F
:10138000AFF9FFE7A0E0E078002802D0012816D0EE
:101390002EE0A51CF1200390002002900A2001906D
:1013A00007200090082300220221280001F098F96C
:1013B0000622290014F1080000F078FC18E0A51CB2
:1013C0000622290014F1080000F070FCF1200390BF
:1013D000DFF8E00302901420019011200090122306
:1013E000E078421ED2B20421280001F079F9FFE72B
:1013F0006AE0E078002802D0012816D02EE0A51C73
:10140000F1200390002002900A2001900720009014
:10141000082300220221280001F062F90622290097
:1014200014F1080000F042FC18E0A51C0622290077
:1014300014F1080000F03AFCF1200390DFF8780383
:10144000029014200190112000901323E078421E96
:10145000D2B20421280001F043F9FFE734E0E0783C
:10146000002802D0012816D02DE0A51CF120039001
:10147000002002900A2001900720009008230022FB
:101480000221280001F02CF90622290014F108009D
:1014900000F00CFC17E0A51C0622290014F108003E
:1014A00000F004FCF1200390C44802901420019045
:1014B000112000901423E078421ED2B204212800AB
:1014C00001F00EF9FFE7FFE765E12079182808D061
:1014D000C0F0DB801A286ED038D31B2800F0A08023
:1014E000D3E0E078002802D0012816D02DE0A51C1A
:1014F000F1200390002002900A2001900720009024
:10150000082300220221280001F0EAF8062229001F
:1015100014F1080000F0CAFB17E0A51C0622290000
:1015200014F1080000F0C2FBF1200390A4480290DF
:101530001B200190182000901823E078421ED2B2A0
:101540000521280001F0CCF8FFE79EE0E0780028B4
:1015500002D0012816D02DE0A51CF1200390002018
:1015600002900A2001900720009008230022022107
:10157000280001F0B5F80622290014F1080000F057
:1015800095FB17E0A51C0622290014F1080000F0C5
:101590008DFBF12003908B4802901B2001901820B6
:1015A00000901923E078421ED2B20521280001F0F4
:1015B00097F8FFE769E0E078002802D0012816D00C
:1015C0002DE0A51CF1200390002002900A2001903C
:1015D00007200090082300220221280001F080F853
:1015E0000622290014F1080000F060FB17E0A51C9A
:1015F0000622290014F1080000F058FBF1200390A6
:10160000714802901B200190182000901A23E07866
:10161000421ED2B20521280001F062F8FFE734E053
:10162000E078002802D0012816D02DE0A51CF1207A
:101630000390002002900A200190072000900823C8
:1016400000220221280001F04BF80622290014F1A3
:10165000080000F02BFB17E0A51C0622290014F15E
:10166000080000F023FBF1200390584802901B2053
:101670000190182000901B23E078421ED2B2052171
:10168000280001F02DF8FFE7FFE784E020791D280E
:1016900002D01E2835D069E0E078002802D0012869
:1016A00016D02DE0A51CF1200390002002900A2006
:1016B000019007200090092300220221280001F058
:1016C0000FF80622290014F1080000F0EFFA17E0E5
:1016D000A51C0622290014F1080000F0E7FAF12009
:1016E00003903B4802901E2001901D2000901D2376
:1016F000E078421ED2B20621280000F0F1FFFFE799
:1017000034E0E078002802D0012816D02DE0A51C96
:10171000F1200390002002900A2001900720009001
:10172000092300220221280000F0DAFF0622290006
:1017300014F1080000F0BAFA17E0A51C06222900EF
:1017400014F1080000F0B2FAF12003902148029051
:101750001E2001901D2000901E23E078421ED2B270
:101760000621280000F0BCFFFFE7FFE713E0062298
:1017700014F10801A01C00F099FA0CE0164D28782D
:10178000022807D0062214F10801A01C00F08EFAEE
:1017900000202870FFE705B030BD000000000020E9
:1017A000982500200C270020D9250020DC250020CA
:1017B000F8250020B8250020FC250020C0250020A9
:1017C00000260020C825002004260020D025002067
:1017D000F0250020F4250020D8250020F8B40300CF
:1017E00000250868E840002800F0D78001260F682F
:1017F00016FA05F007403A00002A00F0CC8008797C
:1018000010F00300012804D0087910F0030002282A
:101810001DD19F685FF0030C2800C0B240001CFA85
:1018200000FC37EA0C07D1F80CC02800C0B2400019
:101830001CFA00FC5CEA07079F605868AE40B043A2
:101840004E68C6F30016AE40304304005C60087971
:1018500010F0030003280ED0DE6803272800C0B272
:1018600040008740BE438F682800C0B240008740D8
:101870003E433400DC60087910F00300022818D1E0
:101880002800C00803EB8000066A0F2715F0070048
:10189000C0B280008740BE430F6915F00700C0B298
:1018A000800087403E4334002800C00803EB8000DE
:1018B00004621E6803272800C0B240008740BE4370
:1018C0000F7917F003072800C0B2400087403E435D
:1018D00034001C60486810F4403F5CD095480668AE
:1018E00056F001060660006810F0010000900098B4
:1018F000914F2800800857F820605FF00F0C15F01A
:101900000300C0B280001CFA00FC36EA0C06B3F1FA
:10191000904F01D1002414E08848834201D1012472
:101920000FE08748834201D102240AE085488342C0
:1019300001D1032405E08448834201D1042400E05E
:10194000072415F00300C0B280008440264328001D
:10195000800847F820607D4C206890434F68FF0264
:1019600000D5104320607A4E346894434F68BF021C
:1019700000D514433460774E306890434F68BF03FE
:1019800000D510433060744E346894434F68FF03B1
:1019900000D5144334606D1C23E7F1BC70472DE97A
:1019A000F041030000250800E840002800F0A8806E
:1019B000012616FA05F008400200002A00F09E8079
:1019C000DFF874C1280080085CF820000F2715F0AC
:1019D000030E5FFA8EFE5FEA8E0E17FA0EFE1EEA07
:1019E00000000400B3F1904F02D15FF0000E19E047
:1019F0005248834202D15FF0010E13E05048834207
:101A000002D15FF0020E0DE04E48834202D15FF03A
:101A1000030E07E04C48834202D15FF0040E01E060
:101A20005FF0070E15F00300C0B280001EFA00FE42
:101A300074452CD14848D0F800E03EEA020EC0F8C8
:101A400000E04448D0F800E03EEA020EC0F800E0B2
:101A50003F48D0F800E03EEA020EC0F800E03B4804
:101A6000D0F800E03EEA020EC0F800E015F00300F6
:101A7000C0B2800017FA00F00400280080085CF86B
:101A80002000A043AE465FEA9E0E4CF82E005FF0A9
:101A9000030C1868AE465FFA8EFE5FEA4E0E1CFA23
:101AA0000EFE5EEA000018602800C00803EB800EFE
:101AB0002800C00803EB8000D0F8208015F0070054
:101AC000C0B28000874038EA0707CEF820709868D7
:101AD0002F00FFB27F001CFA07F7B84398605868E0
:101AE000AE4030EA06065E60DE682800C0B2400004
:101AF0001CFA00FC36EA0C0CC3F80CC06D1C52E753
:101B0000BDE8F081020010690B009BB2184201D0C1
:101B1000012000E00020C0B270471300DBB2002BB0
:101B200003D00B009BB2836102E00B009BB2836287
:101B300070470000601002400800014000040048A7
:101B400000080048000C004800100048080401404C
:101B50000C040140040401400004014038B50400B5
:101B60000D00DFF8FC010168200000F006F8A84233
:101B700001D3012000E0002032BD814204D25FF099
:101B8000FF32101A081800E0081A704738B52DED1A
:101B9000048B08EE100A0C001500DFED438A2800C4
:101BA000C0B2FB2810DBB8EEC89A2800C0B2404291
:101BB000C0B200F08BF829EE009A00212000B0EEB0
:101BC000490A00F0B1F80EE0B8EEC89A2800C0B299
:101BD00000F07CF889EE009A2900C9B22000B0EE2E
:101BE000490A00F0A1F8BDEC048B31BD10B400210E
:101BF0000A00838892B29A4206D2002203680C003F
:101C0000A4B21A55491CF3E70022828010BC704729
:101C100010B4040013005A1E9BB2002B02D0217096
:101C2000641CF7E710BC704770B504000D00160087
:101C3000DFF8240100782100C9B2884209D3DFF817
:101C400024211068002804D0310089B228001268CD
:101C5000904770BD38B504000D00280002F054FD17
:101C6000020092B229002000C0B2FFF7DDFF31BDB3
:101C700070B504000D00280002F046FD020092B28B
:101C800029002000C0B2FFF7CFFFDFF8DC6030682A
:101C9000002807D0280002F037FD010089B2280093
:101CA0003268904770BD00000000000030B40400AE
:101CB0000D0013005A1E9BB2002B04D02B7823700A
:101CC0006D1C641CF5E730BC7047000010B50400C3
:101CD0002000C0B2FB2816DB2000C0B2D0F5807017
:101CE00002F04AFD41EC110B9FED200B02F05DFD6F
:101CF00053EC102B0020194902F060FD02F082FE27
:101D000000EE100A0FE02000C0B202F0AFFE41EC7E
:101D1000110B9FED160B02F048FD51EC100B02F079
:101D200071FE00EE100A10BD38B52DED028B82B0A9
:101D3000B0EE408A04000D0018EE100A02F0A4FE76
:101D4000CDE900012A000B49200002F0C1FE02B0DB
:101D5000BDEC028B31BD0000F00A00200000F03F16
:101D60007C2700208427002080270020000000001E
:101D700000002440F8ED000838B500224FF400714F
:101D8000DFF8880AFFF7C9FE00224FF400715FF008
:101D90009040FFF7C2FE02F0BBFEDFF8740ADFF8E6
:101DA000741A4A1CC0F828210A1DC0F8402111F1FC
:101DB0001002026211F11402826311F10802C0F8EC
:101DC0007021DFF8543A13F13C04C0F8884111F156
:101DD0002005C0F8A05113F12005C0F8B85111F149
:101DE0002405C0F8D05113F12805C0F8E851C0F817
:101DF0001822C0F8304211F12802C0F8482213F12D
:101E00003002C0F8602211F12C02C0F8782213F1E0
:101E10003802C0F8902211F11802C0F8C0221C311B
:101E2000C0F8D812DFF8F4190968C0F82013DFF8F9
:101E3000F0190968C0F8501331BD38B500200024EE
:101E40002000C0B2072835DADFF8D8592000C0B228
:101E500000012844407801282AD12000C0B20001A6
:101E60002844406800280ED002F0A2FE2100C9B22A
:101E7000090129444968401A2100C9B209012944CD
:101E80008968884214D300202100C9B2090129447D
:101E9000487002F08DFE2100C9B209012944486052
:101EA0002000C0B22100C9B209012944C96888478D
:101EB000641CC5E7002032BD38B50400DFF868595E
:101EC000687800281FD100224FF40071DFF83C0928
:101ED000FFF723FE00224FF400715FF09040FFF700
:101EE0001CFE02F015FE8920009020230722052108
:101EF000DFF8380902F062FE012068700221DFF885
:101F0000240902F0A3FF012032BD7CB50400DFF8F4
:101F100020592878002803D0022823D003D33DE09D
:101F200002F0BEFF3AE003F01DF889200090202364
:101F300007220521DFF8F40802F040FEDFF8F4285C
:101F400003212C2002F054FFDFF8EC2804210820A4
:101F500002F04EFF03F075F841F28830DFF8C41844
:101F600088611BE00120DFF8C018487089200090CC
:101F7000202307220521DFF8B40802F01FFEDFF856
:101F8000A4680221300002F061FF0321300002F05A
:101F90005DFF0421300002F059FFFFE72878401C64
:101FA00028702100C9B2DFF87C0802F05EFF012032
:101FB00076BD70B5040000F0BDF8DFF86C586878A5
:101FC000012803D1A87800F03FFB04E00021DFF8EE
:101FD000540802F03BFFDFF86408A97802789142C8
:101FE00007D0A9780170DFF858080068DFF85418A6
:101FF0000860A878092812D1DFF848684FF4FA6120
:102000003068FFF7ABFD012809D1DFF8340800681C
:102010003060062215F10801A81CFFF747FE2100D9
:10202000C9B2DFF8000802F020FF012070BD10B532
:102030000400DFF81418DFF814080069FFF78EFDBC
:10204000012827D1DFF808080178012905D10021EE
:1020500001700020DFF8D0178870DFF8F8070188DA
:10206000491C018042F21071DFF8B8272300DBB26F
:102070001B011A449268B1FBF2F102888A420DD327
:1020800000210180DFF8A0178878002806D0002002
:10209000887003E00120DFF8B81708702100C9B28A
:1020A000DFF8800702F0E1FE012010BD38B5040022
:1020B000FEF786F8DFF89457287A012808D1052121
:1020C000DFF8600702F0C2FEDFF8740700682861DD
:1020D0002100C9B2DFF84C0702F0C7FE012032BD73
:1020E00010B50400FEF752F8DFF860070021017018
:1020F00000210172012010BD10B5040000224FF430
:102100000051DFF80807FFF708FD012010BD10B5EA
:10211000040001224FF40051DFF8F006FFF7FDFC48
:10212000DFF80007210089B28166062102F09DFEDA
:1021300010BD0000DFF8DC06DFF81C170A784270DB
:10214000DFF81827497852F8211041609FED2A0ADC
:10215000DFF8C416D1ED010A60EE800AFDEEE00A58
:10216000C0ED020AD1ED020A60EE800AFDEEE00A3F
:10217000C0ED030AD1ED030A60EE800AFDEEE00A2D
:10218000C0ED040AD1ED040A60EE800AFDEEE00A1B
:10219000C0ED050AD1ED050A60EE800AFDEEE00A09
:1021A000C0ED060AD1ED060A60EE800AFDEEE00AF7
:1021B000C0ED070AD1ED070A60EE800AFDEEE00AE5
:1021C000C0ED080AD1ED090A60EE800AFDEEE00AD2
:1021D000C0ED090AD1ED0B0A60EE800AFDEEE00ABF
:1021E000C0ED0A0AD1ED0D0A20EE800ABDEEC00A4C
:1021F00080ED0B0A704700000000C8422DE9F84F3F
:102200008AB006002021002202AC200002F072FFFA
:102210000024002500208DF8050000208DF8060020
:102220001827DFF8EC853000C0B27843404490F8BE
:1022300015903000C0B2784340444068002842D036
:1022400001213000C0B200F0A9F900280ED1300001
:10225000C0B27843404442683000C0B27843404442
:10226000017D4846C0B202F0C3FD1EE05FF0000AE7
:102270003000C0B278434044406802F045FA51460D
:10228000C9B2814207D2202002A95246D2B2885454
:102290001AF1010AECE702AA3000C0B278434044C8
:1022A000017D4846C0B202F0A3FD3000C0B27843C1
:1022B0004044406802F028FADFF8A4150979491C67
:1022C000484310FA89F93000C0B27843404480682E
:1022D000002800F03A813000C0B278434044007BCF
:1022E00000280BD002281ED012D3042830D024D3CB
:1022F000062845D036D307283ED044E03000C0B28F
:102300007843404480680078002104000D003AE0E2
:102310003000C0B278434044806890F90000C11793
:1023200004000D002FE03000C0B2784340448068C4
:102330000088002104000D0025E03000C0B2784381
:1023400040448068B0F90000C11704000D001AE095
:102350003000C0B278434044806800680021040027
:102360000D0010E03000C0B278434044806800683F
:10237000C11704000D0006E001208DF8050002E001
:1023800002208DF805009DF8050000280CD13000D2
:10239000C0B278434044407B40420200D2B202A91E
:1023A0002000FFF7F3FB26E09DF8050001281AD175
:1023B0003000C0B278434044806802F0A5F920287C
:1023C00019D23000C0B278434044806802F09CF9D2
:1023D000020092B23000C0B278434044816802A843
:1023E000FFF764FC07E03000C0B2784340448068E7
:1023F00000788DF8080002213000C0B200F0CEF85D
:10240000012823D13000C0B278434044807DC0B25F
:1024100000098DF806009DF806000F2805D0202041
:1024200002A99DF80620885410E05FF0000A02A877
:1024300002F06AF95146C9B2814207D2202002A9AE
:102440005246D2B288541AF1010AF0E73000C0B205
:1024500001285ED15FF0000A00208DF804003000F2
:10246000C0B278434044407B002802D009208DF858
:102470000400392000902E2315220F21DFF8E403F9
:1024800002F06CFE02A802F03FF98346DFF8D003A9
:102490000079401C00FB0BFB5846C0B2022190FBA8
:1024A000F1F01F280BDA5846C0B2022190FBF1F080
:1024B000D0F140009DF8041050FA81FA07E0584628
:1024C000C0B2D0F15F009DF8041050FA81FA02AA60
:1024D0003000C0B278434044007D401CC0B2DFF8F9
:1024E00080134979D1EBC001491EC9B25046C0B230
:1024F00002F0DEFF5AFA8BF09DF80490B0EB090968
:1025000089200090202307220521C84802F056FBAD
:102510001BE089200090202307220521C34802F0F8
:102520004DFB02AA3000C0B278434044017D4846CA
:10253000C0B202F05DFC02A802F0E6F8C8490979D1
:10254000491C484310FA89F081463000C0B27843F4
:102550004044006900281ED03000C0B27843404497
:102560008068002817D03000C0B2784340448068AB
:10257000BD4988420FD03000C0B278434044026960
:102580003000C0B207FB00F708EB0700017D4846AA
:10259000C0B202F02DFC0BB0BDE8F08FF8B504001E
:1025A0000D009B492200D2B21820424301EB0200E9
:1025B000817D2800C0B201402800C0B281422FD1E5
:1025C0009826AA4F4FF496712800C0B27043384441
:1025D0002200D2B250F82200FFF7C0FA01282AD117
:1025E0002800C0B206FB00F607EB06002100C9B2C6
:1025F000934A126840F8212026209D492A00D2B231
:1026000042430A442300DBB22E00F6B200FB06F080
:1026100008442100C9B2405CD0F10100D0540AE066
:1026200093492A00D2B22620424301EB0200210046
:10263000C9B2002242548E49EDB22620454301EB37
:102640000500E4B2005DF2BD70B50400002602F0A2
:1026500089FC00F077F82000C0B200F07DF820007F
:10266000C0B200F0A1F80025280080B2262811DAB7
:1026700067492A0092B21820424301EB0200C07D54
:102680002100C9B2884203D12800C0B2FFF7B6FDCD
:102690006D1CE9E702F0D5FC70BDF0B44271C4785E
:1026A00003792500EDB2AB420AD3F025584E27003E
:1026B000FFB218235F4306EB07039D75641CEFE729
:1026C0001823534C85785D4325444679AE7500291F
:1026D00004D0857803FB05F323449960F0BC704770
:1026E0002DE9F84F0700884691469A460A9E0B9DB1
:1026F000DDF830B00D9C87F8008087F8019087F8EE
:1027000002A0FE703D712200D2B259463800FFF798
:10271000C4FFBDE8F18F10B4010000221000C0B268
:1027200004280CD21000C0B2085C524B1400E4B272
:102730001B5D984201D0002002E0521CEEE7012010
:1027400010BC704780B50120009008237F2208212B
:10275000002002F031FF01BD70B504002000C0B2BE
:10276000002820D12C48007800280ED1284D25A61D
:10277000320095F82C10782002F03AFB320095F8E0
:102780004410782002F034FB0DE01FA6204D3200EB
:1027900095F82C10782002F02BFB320095F84410AD
:1027A000782002F025FB70BD0100C9B2082924D1B0
:1027B00018490978002906D002290ED008D3042927
:1027C00015D00FD318E02C49114AC2F8681318E04D
:1027D0002A490F4AC2F8681313E029490C4AC2F883
:1027E00068130EE027490A4AC2F8681309E026492F
:1027F000074AC2F8681304E003E01F49044AC2F81C
:1028000068137047200000004E00000000080048D8
:10281000D8000020D82500209825002000050020A1
:102820007C0000200C0000200C27002048E200085B
:1028300099270020B8EB0008D0E700089A2700206D
:102840007C27002058270020C0270900C42600202C
:102850009B2700208C270020EC0A00207405002014
:102860001C27002020E00008EE0A0020A41D002004
:10287000842300208400002088000020980000208D
:10288000A8000020B8000020C800002001000800B7
:10289000C0B2002801D1012021E00800C0B2FF2809
:1028A00001D10A201BE00800C0B2FE2801D164203B
:1028B00015E00800C0B2FD2802D14FF47A700EE096
:1028C0000800C0B2FC2802D142F2107007E00800F4
:1028D000C0B2FB2802D1DFF8C00600E0012070473B
:1028E0002DE9F24F82469346002000210A26002758
:1028F000B046B946009A1588BBF1000F08D5DBF148
:1029000000042D202A0092B20AF802006D1C00E09B
:102910005C462000002142464B4602F0E7FE0029BB
:1029200001D1002808D0A6FB080106FB091107FB0E
:10293000081180468946ECE7404649460A220023B2
:1029400002F0D4FE06000F00002F01D1002E28D087
:102950002000002132003B0002F0C8FE3030290088
:1029600089B20AF801006D1CA0465FF00009200042
:10297000002132003B0002F0B9FEA6FB002306FB5B
:10298000013307FB0033B8EB020079EB03010400CD
:10299000300039000A22002302F0A8FE06000F00D2
:1029A000D2E7009805802800C0B2BDE8F28F2DE97B
:1029B000FE4F06000F0090460020ADF800000020FA
:1029C000002400215FF0000BB7F80090B8F1000F71
:1029D00002D5D8F1000500E04546424639003000F6
:1029E000FFF77EFFB7F800A0002D4FD09DF808003C
:1029F000FFF74CFF01008D4205D20A2045431BF131
:102A0000010B002DF7D15846C0B2002821D0504606
:102A10000200D2B2324412F8012C2D2A06D0020054
:102A2000D2B24B4692B29BB29A4208D130220300F6
:102A3000DBB2F2541AF1010ABBF1010BE3E7020029
:102A4000D2B2324412F8012C0300DBB2F254401E21
:102A5000DEE70A20B1FBF0F450468346002C15D087
:102A60000A20B4FBF0F45846C0B2304410F8010C10
:102A70005946C9B27054BBF1010B002CEED12E2087
:102A80005946C9B270541AF1010AE7E7A7F800A045
:102A90005046C0B2BDE8FE8FF0B4049C00252E0065
:102AA000B6B2A6420BD20E88771C0F802F00BFB2A1
:102AB00017FA83F7D75DB6B287556D1CEFE7F0BC08
:102AC000704700002DE9F34F81B02DED028B9FED93
:102AD000658A002401250026F7EE008A00273800C9
:102AE000C0B2202864DA0398F84010F00100040016
:102AF0003800C0B2172829DA18EE900A01F0C4FF96
:102B000082468B462000C0B201F0B0FF8046894665
:102B10003800C0B2D0F117005FF0FF31484301F038
:102B20002BFE41EC110B9FED500B01F03EFE51ECE2
:102B3000100B42464B4602F0F1FE52465B4602F055
:102B4000BFFF01F05FFF08EE900A2FE03800C0B22F
:102B50001F2824DA3000C0B201F088FF82468B467D
:102B60002000C0B201F082FF804689463800C0B222
:102B7000173801F001FE41EC110B9FED3B0B01F00A
:102B800014FE51EC100B42464B4602F0C7FE524673
:102B90005B4602F095FF03F051F8060006E02000C6
:102BA000C0B2012802D15FF0FF3005007F1C96E71C
:102BB000280040B201F0E0FD804689463000C0B2F6
:102BC0007F3801F0D9FD41EC110B9FED270B01F08F
:102BD000ECFD51EC100B42464B4602F09FFE804646
:102BE000894618EE900A01F04FFF42464B4602F02C
:102BF00095FE01F007FF00EE100A049880ED000A30
:102C0000BDEC028BBDE8F78F70B4030000220024F6
:102C1000002000252A000E00D2B2F6B2B2421FD226
:102C20002A00D2B29A5C302A0ADB2A00D2B29A5C1D
:102C30003A2A05DA2A00D2B29A5C303A140001E04E
:102C4000002214002A00D2B2002A03D12200D2B2FC
:102C5000100003E00A22504350FA84F06D1CD9E7BB
:102C600070BC704700000000000000000000004041
:102C7000F8B52DED028B82B004000D00002000900D
:102C800000269FED4E8A0027DFED568A6946200018
:102C9000FFF718FF2800C0B200280AD0FB2836D062
:102CA000FC282BD0FD2820D0FE2815D0FF2809D0E5
:102CB00036E09FED420AB0EE408A9FED4A0AF0EE00
:102CC000408A2DE00A2000EE100AB0EE408A9FED07
:102CD0003C0AF0EE408A23E09FED3A0AB0EE408ACB
:102CE0009FED390AF0EE408A1AE09FED380AB0EE07
:102CF000408A9FED370AF0EE408A11E09FED350AD9
:102D0000B0EE408A9FED340AF0EE408A08E09FED75
:102D1000330AB0EE408A9FED320AF0EE408AFFE7B8
:102D20009DED000AB5EE400AF1EE10FA1BDBB8EE9D
:102D3000480ADDED000A20EE200AF2EE040A20EE39
:102D4000200ABCEEC00A10EE100A0A22B0FBF2F113
:102D500002FB1101052923D39DED000A30EE280A5C
:102D60008DED000A1CE0B8EE480ADDED000AF1EE38
:102D7000600A20EE800AF2EE040A20EE200ABCEE81
:102D8000C00A10EE100A0A22B0FBF2F102FB110198
:102D9000052905D39DED000A30EE680A8DED000A85
:102DA000B8EE480ADDED000A20EE200ABDEEC00AAA
:102DB00010EE100A02B0BDEC028BF2BD0100000063
:102DC000CDCCCC3D640000000AD7233CE8030000D2
:102DD0006F12833A1027000017B7D138A086010080
:102DE000ACC52737000000002DE9F0412DED028B26
:102DF00007000E009FED678A3000C0B200280BD09C
:102E0000FB2800F09E80FC2877D0FD2851D0FE28BA
:102E10002CD0FF2807D0B7E000EE107AB8EEC00A39
:102E2000B0EE408AB0E00A2097FBF0F000EE100A06
:102E3000B8EEC00A5FF00A0810EE100A01F024FE96
:102E400004000D0097FBF8F008FB1078404601F0F5
:102E500093FC524A524B02F061FD22002B0002F01B
:102E60002FFE01F0CFFD08EE100A8DE0642097FBE5
:102E7000F0F000EE100AB8EEC00A5FF0640810EE41
:102E8000100A01F001FE04000D0097FBF8F008FBAA
:102E90001078404601F070FC424A434B02F03EFD80
:102EA00022002B0002F00CFE01F0ACFD08EE100A2F
:102EB0006AE04FF47A7097FBF0F000EE100AB8EE7B
:102EC000C00A4FF47A7810EE100A01F0DDFD04001C
:102ED0000D0097FBF8F008FB1078404601F04CFC21
:102EE000324A334B02F01AFD22002B0002F0E8FDBB
:102EF00001F088FD08EE100A46E042F2107097FBE0
:102F0000F0F000EE100AB8EEC00A42F2107810EEAF
:102F1000100A01F0B9FD04000D0097FBF8F008FB62
:102F20001078404601F028FC224A234B02F0F6FCC0
:102F300022002B0002F0C4FD01F064FD08EE100A2F
:102F400022E0154897FBF0F000EE100AB8EEC00A38
:102F5000DFF8448010EE100A01F096FD04000D0029
:102F600097FBF8F008FB1078404601F005FC134A87
:102F7000134B02F0D3FC22002B0002F0A1FD01F064
:102F800041FD08EE100AFFE7B0EE480ABDEC028BE7
:102F9000BDE8F08100000000A08601009A9999998F
:102FA0009999B93F7B14AE47E17A843FFCA9F1D2ED
:102FB0004D62503F2D431CEBE2361A3FF168E38827
:102FC000B5F8E43E10B42DED010A00206A46002356
:102FD000042B07D2D45C1900C9B2C9008C4020432D
:102FE0005B1CF5E712BC704710B504000121DFF847
:102FF000980C01F03AFF012010BD30B587B00400F5
:103000001421002202AD280002F074F8DFF8C00B92
:10301000D0E90023CDE9002302A80090DFF8B45BDB
:103020002978684600F0BDFA28786870BDF8041069
:10303000009800F005FDDFF8A00B8078001F012844
:1030400009D82878022803DA2878401C287001E083
:103050000020287001E000202870DFF82C5C02219D
:10306000280001F0F3FE0321280001F0FEFE2100FC
:10307000C9B2280001F0F9FE012007B030BD10B53B
:103080000400DFF8581B8888002810D0DFF8500BA8
:1030900002888B889A4208D1002101800221DFF842
:1030A000E80B01F0D3FE012008E0898801802100AF
:1030B000C9B2DFF8D40B01F0D8FE012010BD2DE914
:1030C000F041040000250026DFF8107BB8880328B3
:1030D0003DDB3868B988084410F8010C3968BA88B3
:1030E000114411F8021C51EA00210E00B988891E12
:1030F000386802F0C0FD05002800310080B289B2B6
:1031000088421DD10821DFF8800B01F0AEFE38683F
:10311000007801280DD1DFF8BC8A012198F8010060
:1031200000F058FA98F80120D7E9000100F042FABF
:1031300013E00021DFF89C0A407800F04BFA0CE025
:103140000021DFF8900A407800F044FA05E0002101
:10315000DFF8800A407800F03DFADFF8780A40781E
:1031600000F094F80221DFF8200B01F090FE01201E
:10317000BDE8F0810100DFF8240C0278032A01D0B9
:10318000042202700120704710B504002100C9B26A
:10319000DFF8F40A01F069FE012010BD10B504004B
:1031A0002100C9B2DFF8E00A01F05FFE012010BD86
:1031B00038B50400DFF8205B287800280DD1012203
:1031C0000121DFF8180BFEF7A8FC0520DFF8B81A7C
:1031D00088672878401C28700BE000220121DFF866
:1031E000FC0AFEF79AFCFA20DFF89C1A8867002098
:1031F00028702100C9B2DFF8900A01F036FE0120E4
:1032000032BD38B50400DFF8D81A0878002820D17C
:1032100001200870DFF8285B012210212800FEF74A
:103220007CFC002208212800FEF777FC0022042104
:10323000DFF8100BFEF771FC4FF4FA60DFF8481A64
:10324000C1F8880002F0FAFE03F0A3F803F092F848
:1032500013E00020087001220821DFF8E40AFEF7DD
:103260005CFC01220421DFF8DC0AFEF756FC4EF676
:103270006020DFF8141AC1F888002100C9B2DFF815
:10328000080A01F0F2FD012032BD000038B52DED35
:10329000028B04009FED8F8A2000C0B2002842D12B
:1032A000DFF8805C95ED010AF2EE040A20EE200AB8
:1032B000BDEEC00A10EE100A00F09EF885ED010A7E
:1032C00095ED010A00F008F985ED030A95ED020A73
:1032D00000F066F985ED040A95ED040AD5ED060ABD
:1032E00030EE200A85ED040A95ED030AD5ED050AB6
:1032F00030EE200AB0EE408A9FEDA70AB4EE408A75
:10330000F1EE10FA02DB9FEDA50A09E0B5EE408A66
:10331000F1EE10FA02D59FED6F0A01E0B0EE480A17
:1033200085ED030AFFE7DFF8FC5B2878002807D16A
:103330000020686095ED010A00F0CEF885ED030AE3
:103340002878002807D10020A86095ED020A00F037
:1033500027F985ED040ABDEC028B31BD2DE9F04162
:1033600000242500EDB20A2D43DA00252E00F6B226
:10337000092E3CDA2E00F6B201EB860676682F00A5
:10338000FFB251F82770BE422FDA00262F00FFB29D
:1033900051F82770AC465FFA8CFC01EB8C0CDCF822
:1033A00004C0AE465FFA8EFE41F82EC0AC465FFA0E
:1033B0008CFC01EB8C0CCCF80470AC465FFA8CFCF6
:1033C00050F82CC0AE465FFA8EFE00EB8E0EDEF893
:1033D00004E0A8465FFA88F840F828E0AE465FFAB5
:1033E0008EFE00EB8E0ECEF804C06D1CBEE7641C92
:1033F000B7E7BDE8F081000038B52DED028B040081
:103400009FED348ADFF8801A087800282AD101203D
:10341000087000210800C0B20A2815DA0800C0B2FE
:10342000DFF8D02B0B00DBB242F82300DFF85C2A78
:103430000800C0B252F82000002803D10800C0B232
:1034400042F82040491CE5E7DFF8405A09230022F2
:103450002900DFF8A00BFFF781FF95ED050AB8EE14
:10346000C00A30E000200100C9B20A291EDADFF8E4
:10347000841B0200D2B251F82220092A0BD100226B
:103480000300DBB241F82320DFF8001A0200D2B2B9
:1034900041F8224008E00200D2B251F82220521C2A
:1034A0000300DBB241F82320401CDCE7DFF8DC59E5
:1034B000092300222900DFF83C0BFFF74FFF95EDB1
:1034C000050AB8EEC00AF2EE040A80EE200ABDEC4E
:1034D000028B31BD00000000F0EE400A9FEDAD1AF6
:1034E0009FEDAD3ADFEDAD3AF5EE400AF1EE10FAA0
:1034F00040D0F0EE603A9FEDAA0ADFF8000B90EDA5
:10350000004A34EE634AB4EE404AF1EE10FA08DAAB
:1035100090ED004A33EEC44AB4EE404AF1EE10FAA0
:1035200003DB9FED1E0A21EE001ADFF83C0A90ED46
:10353000000AF0EE401ADFF8341A91ED000A30EE7E
:10354000010AB0EE402A32EE030A82EE000AF0EEE3
:10355000402A33EEE10AB0EE614A00EE224A80EDE5
:10356000004AB7EE000A30EE620A20EE020A81ED50
:10357000000A08E0DFF8F4095FF07E510160DFF82F
:10358000E80900210160DFF8E009DFF8701A02683D
:103590000A6090ED000A704701007A4400007A4406
:1035A000704738B504000D002900C9B2200000F0B2
:1035B0001BF831BD70B504000D0016002000007826
:1035C000C0B2012805D13200D2B22000290000F09B
:1035D000E9F870BD38B504000D002900C9B220001B
:1035E000C0B200F05AF931BD3EB504000D0028000C
:1035F000C0B2002812D0022822D018D304283CD010
:1036000027D3062861D04CD3082800F0868070D3D9
:103610000A2800F0AA80C0F09480BAE0042000904C
:10362000012303220121200002F043FBB1E002202C
:103630000090132303220121200002F03AFBA8E0AE
:1036400008200090242303220121200002F031FBF6
:103650009FE0DFF8AC09818804290DD10168019150
:103660008088022190FBF1F080B200902423102288
:103670000121200002F06BFB8BE0DFF884098188D8
:1036800004290DD1016801918088022190FBF1F09D
:1036900080B20090262310220121200002F057FB67
:1036A00077E0DFF85C09818804290DD10168019178
:1036B0008088022190FBF1F080B200902823102234
:1036C0000121200002F043FB63E0DFF83409818828
:1036D00004290DD1016801918088022190FBF1F04D
:1036E00080B200902A2310220121200002F02FFB3B
:1036F0004FE0DFF80C09818804290DD101680191A0
:103700008088022190FBF1F080B2009031231022DA
:103710000121200002F01BFB3BE0DFF8E408818878
:1037200004290DD1016801918088022190FBF1F0FC
:1037300080B20090332310220121200002F007FB09
:1037400027E0DFF8BC08818804290DD101680191C8
:103750008088022190FBF1F080B200903523102286
:103760000121200002F0F3FA13E0DFF894088188C9
:1037700004290DD1016801918088022190FBF1F0AC
:1037800080B20090372310220121200002F0DFFADE
:10379000FFE737BD95BFD63317B7D138000000001B
:1037A000CDCC4C3E2DE9F84F04000D001600002052
:1037B000ADF8000000273000C0B2002807D0401E3E
:1037C00021D0401E30D0401E072861D963E003207D
:1037D000ADF8000004226946200000F0FEF88046A3
:1037E000DFF8209819F104014046FFF76BF9042235
:1037F0006946200000F0F1F8070019F108013800CF
:10380000FFF760F947E00320ADF8000004226946A5
:10381000200000F0E2F8070000213800FFF728FA46
:10382000DFF8E017C86336E00320ADF8000004229B
:103830006946200000F0D1F88046DFF8C8B71BF1D8
:103840001C014046FFF73EF904226946200000F0C3
:10385000C4F8814600214846FFF70AFACBF8200059
:1038600004226946200000F0B8F882461BF12401CA
:103870005046FFF727F904226946200000F0ADF812
:10388000070000213800FFF7F3F9CBF8280002E029
:1038900000F049F8FFE7BDE8F18F0200D2B2002A3C
:1038A0000A2A1BD80A00D2B2012A0ED1DFF87426E8
:1038B00000235370012313700200D2B2002A0CD1EE
:1038C0000122DFF84437DA7007E0DFF85826537832
:1038D000032B02DA53785B1C5370FFE7DFF84436A2
:1038E0005A78002A1ED05A78032A1BDB00221A704D
:1038F00000225A6000229A600022DA6100221A62D5
:1039000000225A6200229A620022DA6200221A63BE
:1039100000225A6300229A630022DA630022DFF851
:10392000E836DA70704780B50320DFF8701408704D
:103930000421DFF8540301F0AAFA3220FEF7E7FB76
:1039400001BD80B5DFF8C4060078A24908700220E6
:10395000DFF8481408700421DFF82C0301F085FA21
:1039600001BD2DE9F04104000D0016002F00DFF825
:1039700090864046FEF73AF9300080B2022802D025
:1039800004280BD01DE07878D8F80010087038783B
:10399000D8F800104870A8F8046015E07878D8F8D6
:1039A000001008703878D8F800104870F878D8F807
:1039B00000108870B878D8F80010C870A8F80460B3
:1039C00002E00020A8F80400DFF84006047001209F
:1039D000DFF83C160870BDE8F081F0B40300002069
:1039E0000C881500EDB2042D16D12500ADB21D4492
:1039F000AE782500ADB21D44ED7855EA06252600C7
:103A0000B6B29E5D2700BFB21F447F7857EA0627F3
:103A100057EA054738000DE01500EDB2022D09D137
:103A20002500ADB25D5D2600B6B21E44767856EA3A
:103A3000052630000D8855FA82F50D80F0BC7047E0
:103A400070B504000D00A54E01224FF480513000E6
:103A5000FEF763F80A2002F0BFFC02F083FC4FF48B
:103A60007A732A0092B22100DFF8A80502F005FD62
:103A700000224FF480513000FEF74FF870BD2DE961
:103A8000F0412DED028B8EB0F0EE408AB0EE608AF0
:103A9000322100226C46200001F02CFB002700247C
:103AA0000025DFF88084C8ED058A88ED068A98ED48
:103AB000050AFFF787FA060098ED060AFFF782FA73
:103AC000804668463100090E3A00D2B281547F1C0C
:103AD0003100090C3A00D2B281547F1C3100090A2E
:103AE0003A00D2B281547F1C3900C9B246547F1CBF
:103AF0004146090E3A00D2B281547F1C4146090C5E
:103B00003A00D2B281547F1C4146090A3A00D2B22F
:103B100081547F1C3900C9B200F801807F1C3A0033
:103B2000D2B292B26946DFF8F00403F0C3FC0EB0E3
:103B3000BDEC028BBDE8F08170B500240025DFF8F4
:103B4000D8040078C0B2FF283AD0DFF8D00401785A
:103B5000C9B20906DFF8C8040078C0B251EA0041D2
:103B6000DFF8C0040078C0B251EA0021DFF8B804E1
:103B70000078C0B201430C00DFF8B0040178C9B28C
:103B80000906DFF8AC040078C0B251EA0041DFF862
:103B9000A4040078C0B251EA0021DFF89C04007848
:103BA000C0B201430D00DFF85C6416F1140120007F
:103BB000FEF788FF16F118012800FEF783FF05E0E5
:103BC000DFF84004002141610021816170BD0000E7
:103BD000B0ED0008942700200C2700209C0A00204C
:103BE0009227002070B500240025DFF854040078E7
:103BF000C0B2FF283DD0DFF84464DFF84804007805
:103C00003070DFF844040178C9B20906DFF83C04DB
:103C10000078C0B251EA0041DFF834040078C0B245
:103C200051EA0021DFF82C040078C0B201430C00F7
:103C3000DFF824040178C9B20906DFF8200400780F
:103C4000C0B251EA0041DFF818040078C0B251EA6E
:103C50000021DFF810040078C0B201430D0016F116
:103C600008012000FEF72EFF311D2800FEF72AFF75
:103C700009E0DFF8C80300210170DFF8EC13816070
:103C8000DFF8E813416070BDE805002078B591B019
:103C900004000D003C21002202AE300001F02AFA9F
:103CA0000020ADF804000321042000F01DFB0B20D0
:103CB00000900023DFF8B82301A902A8FEF7ECFE6C
:103CC0004FF47A73BDF8042002A9DFF8A80302F0CC
:103CD000D4FB12B070BD0000A027002000080048EF
:103CE000A127002078B591B004000D003C210022EE
:103CF00002AE300001F0FEF90020ADF80400C64825
:103D000003F0A8FBCE4803F0A5FBCC4800210170CE
:103D1000DFF858138160D44941600D2000900023E2
:103D2000D54A01A902A8FEF7B7FE4FF47A73BDF891
:103D3000042002A9CF4802F0A0FB12B070BD000021
:103D400000040048000C004838B590B004000D0095
:103D500003A8CA49322203F0F1FBC948D0E9002385
:103D6000CDE9012303A801900023C648027802A9E7
:103D700003A8FEF71CFE02200090002379A202A9EE
:103D800003A8FEF789FE4FF47A73BDF80820019965
:103D9000B84802F072FB11B030BD0000D8250020F9
:103DA000F8B504000D0000262068007830283ADBC2
:103DB000206800783A2836DA002700200100C9B2CE
:103DC000A28889B291420FD221680200D2B2895CE6
:103DD000302905DB21680200D2B2895C3A2900DB78
:103DE00002E07F1C401CE9E73900C9B22068FEF7F9
:103DF0000BFF0600B6F5807F0DD2A2484178300057
:103E0000C0B200F071FA4FF47A7302227AA1994895
:103E100002F033FB0EE04FF47A7305229A4995487D
:103E200002F02BFB06E04FF47A7305229649914885
:103E300002F023FBF1BD38B590B004000D0003A8DB
:103E40009249322203F07AFB9148D0E90023CDE970
:103E5000012303A8019000238A48427802A903A8FD
:103E6000FEF7A5FD0220009000233EA202A903A8B0
:103E7000FEF712FE4FF47A73BDF8082001997D48D1
:103E800002F0FBFA11B030BDA22700205C26002012
:103E9000F8B504000D00002620680078302839DBD2
:103EA000206800783A2835DA002700200100C9B2DE
:103EB000A28889B291420FD221680200D2B2895CF5
:103EC000302905DB21680200D2B2895C3A2900DB87
:103ED00002E07F1C401CE9E73900C9B22068FEF708
:103EE00093FE06000C2E0DD23100C9B26548007851
:103EF00000F0FAF94FF47A7302223FA15D4802F014
:103F0000BCFA0EE04FF47A7305225F49594802F07B
:103F1000B4FA06E04FF47A7305225B49554802F083
:103F2000ACFAF1BD9825002080B5FFF705FEFFF73C
:103F300059FE58485849C0F8A4135849C0F8B4135A
:103F40005749C0F8C4135749C0F8D4135649C0F8AC
:103F5000E4135649C0F8F41302F01BFA02F00AFA0F
:103F600001BD00000D0A00006C2700208006002023
:103F700070B50020002400252800C0B2092836DAD8
:103F80004B4E2800C0B200013044407801282CD1AB
:103F9000012004002800C0B200013044406800281D
:103FA0000ED000F005FE2900C9B20901314449686C
:103FB000401A2900C9B2090131448968884214D3E2
:103FC00000202900C9B209013144487000F0F0FD19
:103FD0002900C9B20901314448602800C0B2290053
:103FE000C9B209013144C96888476D1CC4E7200083
:103FF000C0B270BD342600204F4B00007027002057
:104000007806002098250020682700209F270020A0
:10401000D82500207C2000200008020802080208A1
:104020000308020804080208050802080608020836
:1040300007080208080802080908020828270020C3
:1040400000100208021002080310020804100208FF
:1040500005100208061002080710020808100208DE
:10406000091002080A100208000048420000164425
:10407000D0EB00086C1F0020FCE80008C8D700083F
:10408000B8ED0008EC0A0020A8ED000874E500086F
:10409000C0ED00088C0600208D3C0008E53C0008BF
:1040A000493D0008A13D0008373E0008913E000848
:1040B000E805002002000020704730B40200DFF85D
:1040C0001C06002304688588635583885B1C8380F5
:1040D000DFF80C361B7804688588635583885B1C81
:1040E0008380012030BC7047F8B504000D0000202B
:1040F00000212E0022683300DBB2D25C2368370037
:10410000FFB23B445F7857EA02273A0092B2B2F519
:10411000807F23DA380080B200281FD0DFF8BC058A
:1041200021683200D2B2895C02688388D1548188C8
:10413000491C818021683200D2B21144497802685A
:104140008388D1548188491C8180DFF894054178A7
:104150003800C0B200F0C8F8012000E00020F2BD35
:1041600030B40200DFF874050023046885886355C5
:1041700083885B1C8380DFF868355B7804688588FA
:10418000635583885B1C8380012030BC7047F8B581
:1041900004000D00002000212E0022683300DBB255
:1041A000D25C23683700FFB23B445F7857EA0227AE
:1041B0003A0092B20B2A1FDADFF82005216832009C
:1041C000D2B2895C02688388D1548188491C81807D
:1041D00021683200D2B21144497802688388D154F0
:1041E0008188491C81803900C9B2DFF8F404007865
:1041F00000F07AF8012000E00020F2BDF8B50400DC
:104200000D000026DFF8DC0490ED030AFEF7DAFE6D
:104210000100DFF8C8040A00120A03688788DA552B
:104220008288521C828002688388D1548288521C02
:1042300082800A00120E03688788DA558288521C31
:1042400082800A00120C03688788DA558288521C23
:1042500082800120F2BDF8B504000D000026DFF8D1
:10426000840490ED040AFEF7ADFE0100DFF86C0453
:104270000A00120A03688788DA558288521C8280F5
:1042800002688388D1548288521C82800A00120EF0
:1042900003688788DA558288521C82800A00120CD3
:1042A00003688788DA558288521C82800120F2BD1B
:1042B00070B504000D00DFF83064012220213000C9
:1042C000FDF72BFC0A2002F087F84FF47A732A00DE
:1042D00092B22100DFF8140402F0CFF8002220216E
:1042E0003000FDF71AFC70BD7CB504000D000821FC
:1042F00000226E46300000F0FDFE0026DFF8E003ED
:1043000004704570694602783300DBB2CA54761CEB
:1043100040783200D2B28854761C3200D2B292B2C7
:104320006946DFF8CC0303F0C5F873BDDFF8C003BE
:104330000078C0B2FF280AD0DFF8A403DFF8B41376
:1043400009780170DFF8B0130978417005E0DFF8F3
:104350009003042101700321417070472DE9F04F53
:1043600087B0040000275FF000085FF00009002517
:10437000DFF88823D2E90001CDE902010026DFF849
:104380008023D2E90001CDE90401DFF850A35046B3
:10439000FDF72CFCA0880828C0F29B812068A1882A
:1043A000084410F8010C2168A288114411F8021C7D
:1043B00051EA0021ADF81810A188891E206801F08B
:1043C0005AFCADF81A00BDF81A00BDF81810884262
:1043D00040F07D8120680078C1490978884240F02A
:1043E0007681206880782168CF7857EA0027206896
:1043F0004078032805D006286CD0102800F0C38030
:1044000061E1206800792168497951EA00210D00B5
:104410005FF001084046C0B2052836DA5FF01409A3
:10442000DFF8E0B24046C0B209FB00F058444068F3
:10443000390089B2884225D1280080B24146C9B2EC
:1044400009FB01F15944896888421BDB00210020E7
:104450004246D2B209FB02F25A44D2689047012880
:104460000FD14046C0B209FB00F0584480682D1AB5
:104470004046C0B209FB00F90BEB09008068C71980
:1044800000E002E018F10108C4E7BAF804000028CF
:104490001FD0BAF80400022190FBF1F201FB1200D8
:1044A000002816D1DAF800000190BAF804000221C1
:1044B00090FBF1F080B200903B009BB20322206899
:1044C000017804A801F0B7FCBDF814100498FFF7B8
:1044D000EFFEFAE004200100C9B2A288921E9142C8
:1044E0000EDA21680200D2B2895C029ABDF80C3063
:1044F000D154BDF80C10491CADF80C10401CEAE773
:104500005FF001084046C0B2052817DA14227D4B3F
:104510004046C0B2504318444068390089B28842CE
:1045200009D1002102A8C4465FFA8CFC02FB0CF200
:104530001A441269904718F10108E3E7BAF8040039
:1045400000281FD0BAF80400022190FBF1F201FB11
:104550001200002816D1DAF800000190BAF8040021
:10456000022190FBF1F080B200903B009BB206224A
:104570002068017804A801F0AFFCBDF8141004987D
:10458000FFF796FEA1E00020060020680079216870
:10459000497951EA00210D0007200100C9B2A28823
:1045A000921E91420EDA21680200D2B2895C029A10
:1045B000BDF80C30D154BDF80C10491CADF80C10EE
:1045C000401CEAE7280080B24000216889798842CF
:1045D0004DD1BDF80C002168897989B2884246D155
:1045E0005FF001084046C0B2052840DA5FF01409C8
:1045F000DFF810B14046C0B209FB00F058444068F3
:10460000390089B288422FD1280080B24146C9B210
:1046100009FB01F159448968884225DB310089B2E0
:1046200002A84246D2B209FB02F25A4412699047EC
:10463000012818D14046C0B209FB00F058448068F8
:10464000400010FA86F64046C0B209FB00F058441C
:1046500080682D1A4046C0B209FB00F90BEB090037
:104660008068C71900E002E018F10108BAE7BAF85B
:104670000400002826D0BAF80400022190FBF1F2D1
:1046800001FB120000281DD1206880782168C978BC
:1046900051EA00210F00DAF800000190BAF8040096
:1046A000022190FBF1F080B200903B009BB21022FF
:1046B0002068017804A801F00FFCBDF814100498DC
:1046C000FFF7F6FD01E0002004E0012002E00020F9
:1046D00000E0002007B0BDE8F08F0000A00500203A
:1046E000EC0A00209825002000040048F41F002058
:1046F00000000208020002080300020898ED00080A
:10470000A0ED00081005002000F10103810704D08E
:1047100010F8011B820781B1FAD10268A2F10131C0
:10472000914311F0803104BF50F8042FF6E709BA25
:10473000B1FA81F100EBD100401CC01A704730B4CF
:10474000002513E050F8042BD30744BFA9F101035F
:104750009A18091F042942F8045BFAD213468C0701
:1047600044BF15809B1CC90748BF1D7050F8041B2F
:104770000029E7D130BC7047C11768B14840401AE2
:10478000B0FA80F29040D21CC907C2F5846241EAB7
:10479000025202EBD021400570470268531C0360AF
:1047A0001170704741EC100B01BD80B553EC112B1B
:1047B00051EC100B02F016FFF4E72E00F0B540F2BA
:1047C000FF7581EA030C0CF0004C15EA11541DBF73
:1047D00015EA1357AC42AF42E5E0BC41C1F3130107
:1047E000C3F31303801A994143F4801304D2641E67
:1047F0004000494180185941C90241EA5051B1FB7A
:10480000F3F603FB1611A2FB0675D7EBC020A941F6
:1048100002D2761E80185941C90241EA5051B1FBBB
:10482000F3FE03FB1E11A2FB0E75D7EBC020A941BE
:1048300003D2AEF1010E80185941890241EA90512C
:10484000760546EA8E2EB1FBF3F603FB1611A2FBAA
:104850000675D7EB8020A94102D2761E80185941F7
:10486000C90241EA50514EEA060EB1FBF3F603FBD2
:104870001611A2FB0675D7EBC020A94102D2761E05
:1048800080185941C90241EA5051B1FBF3F703FBCB
:104890001711A2FB0735D3EBC020A94167F1000730
:1048A0000CBF004247F0010766F3D5274FEA1E31DF
:1048B000B80814F5806412DDBD0775F1004250EBB5
:1048C0000E5051EB045111F5801F5CBF41EA0C0101
:1048D000F0BD4CF07F6141F0E0410020F0BDBD072C
:1048E0006D0840EA0E5041F48011D4F10104B4F196
:1048F00020060ADAC4F120060200E04001FA06F3BD
:10490000E1401843B24015430EE0342C13DCC6F1ED
:10491000200445EA40056D0820FA06F2154321FA05
:1049200006F0A1400D43002175F1004250F1000056
:1049300051EB0C01F0BD00205FEA0C01F0BDCFB9D6
:1049400092185B41B3FA83F704BFB2FA82F6BF193B
:104950000B3FB7F120062FBF02FA06F3BB40C7F1A9
:10496000200622FA06F638BF3343BA401CB1E419D8
:10497000641E33E77F4231F00041B1FA81F404BF95
:10498000B0FA80F6A4190B3CB4F120062FBF00FA50
:1049900006F1A140C4F1200620FA06F638BF3143E3
:1049A000A0403C1B1AE7AC421ABF05EA1357AF42BE
:1049B00012E050EA41061CBF52EA4306BFE750EA44
:1049C0004107304661461CBF41EA0551F0BD52EA3D
:1049D000430C08BFC143F0BD00204FF4001616EB96
:1049E000410F98BF16EB430F08BF16EB410F24BFD2
:1049F000C14305E016EB430F0CBF61464CEA05517D
:104A0000F0BD000001F000428B1AA3F16051B1F536
:104A1000801F0ADBB1F17F6F1FD242EAC102C100E1
:104A200071F1004142EB507070470B15C3F109035F
:104A3000212B10D2890241EA90518002012849417C
:104A400041F0004121FA03F0C3F12003994071F1D4
:104A5000004150417047100070476FF0000013EBA9
:104A6000103F5CBF000E42EAC0507047014648B19B
:104A7000B0FA80F18840C91CC1F58461090501EBD9
:104A8000D021400570470000C0F3C75181B1FF2914
:104A900006D0C110400721F0E04101F1605170479C
:104AA00041020CBF40F4E0016FF00041002070476C
:104AB00000F0004100020AD0B0FA80FC00FA0CF0CD
:104AC00001F16051A1EB0C5101EBD0214005704781
:104AD0000CB430B583B00A4606A9029104460025FD
:104AE0000194009502AB01A9084878441E3003F0F8
:104AF000EFF8019A157000284EBF04460198041B78
:104B0000204603B030BC5DF80CFB00BF8FFCFFFFFC
:104B100080B5012240211F48FCF7FFFF1E491F48B6
:104B200000F032FA00F01CF8012000F003F800F069
:104B3000C7FA01BD704711B581B0164C0022402163
:104B40002000FCF7EAFF4FF47A73012201A9144810
:104B500004F01EF9012240212000FCF7DEFF13BD06
:104B600010B50C4C002240212000FCF7D6FF00229B
:104B700080212000FCF7D1FF012000F013F8012272
:104B800080212000FCF7C9FF012240212000FCF712
:104B9000C4FF10BD000800484C270020A40F0020CF
:104BA000F823002010B50400200001F015FC10BD12
:104BB00001480068704700BF5C27002070B4039C68
:104BC000DFF88052286029716A71AB71EC710026A0
:104BD0002E7270BC70472DE9F84F04000D001600CE
:104BE00000275FF00008DFF85C9299F805000828BC
:104BF00080F2FC80300099F80610C0B2884205D3DC
:104C000099F807003100C9B2884201D22E2006006F
:104C1000402099F80510491C90FBF1F02900C9B219
:104C2000814280F2E38099F8040050FA84F08028F1
:104C300080F2DC8099F805305B1C99F8050003FBD5
:104C400005035B1CDBB299F804201219D2B299F863
:104C50000500401C15FB00F1C9B22000C0B200F0F5
:104C600029F90021080099F80420C0B2904280F090
:104C7000BD80002015FB00F00200D2B2082392FB99
:104C8000F3F21700C0B2082290FBF2F302FB13000C
:104C90008046FF226C4BD3F800C03800C0B250FAF7
:104CA00085FE802000FB0EFE5EFA84FED3F800A095
:104CB0003800C0B250FA85FB802000FB0BFB5BFA8A
:104CC00084F01AF800A0D8F1080B100050FA0BF08D
:104CD00010EA0A0A0CF80EA0D3F800C03800C0B2DF
:104CE00050FA85FE802000FB0EFE5EFA84F00090F4
:104CF000D3F800E03800C0B250FA85FA802000FBFB
:104D00000AFA5AFA84F01EF800E0D9F800A0B34677
:104D10005FFA8BFB99F80600BBEB000099F804B032
:104D20000BFB00FB0AEB0B008A465FFA8AFA10F8CD
:104D30000A0010FA08F050EA0E00DDF800E00CF866
:104D40000E00D3F800C03800C0B250FA85FE8020B3
:104D500000FB0EFE5EFA84F08444D3F800E03800D5
:104D6000C0B250FA85FA802000FB0AFA5AFA84F0A1
:104D7000704490F8800012FA08F202408CF880200B
:104D80001A683800C0B250FA85FC802000FB0CFC89
:104D90005CFA84F002441B683800C0B250FA85FC0B
:104DA000802000FB0CFC5CFA84F0184490F8803002
:104DB000D9F800C0B6465FFA8EFE99F80600BEEB41
:104DC000000E99F8040000FB0EFE0CEB0E008C4662
:104DD0005FFA8CFC10F80C00D8F1080C50FA0CF0BB
:104DE000034382F88030641C491C3BE7BDE8F18F27
:104DF000F8B507000C001600124D6879082820DA73
:104E0000307800281DD032782100C9B23800C0B2F5
:104E1000FFF7E1FE761C2879401CC719287950FA63
:104E200087F0401C812802DB00200700641C402022
:104E30006979491C90FBF1F02100C9B28142DFDBA6
:104E4000FFE7F1BD1C2700205027002002000120B1
:104E50000B00DBB21B011344587000200B00DBB2C7
:104E60001B01134458600120704738B504000D0041
:104E700001202900C9B2090121444870FFF798FEBA
:104E80002900C9B2090121444860012032BD020055
:104E900000200B00DBB21B01134458700120704747
:104EA00080B5034800F00EFC00F0CBF801BD000017
:104EB00020DC000870B40400E4B2802C01DB7F2405
:104EC00020001400E4B2802C01DB7F2422000C00BF
:104ED000E4B2402C01DB3F2421001C00E4B2402C52
:104EE00001DB3F2423002B4C050026683678EDB209
:104EF000B54201D2256828702568AD781600F6B253
:104F0000B54201D22568AA700D0026687678EDB208
:104F1000B54201D2256869702568ED781E00F6B2A9
:104F2000B54201D22468E37070BC704719487F21F4
:104F3000026811700021026891703F21026851706F
:104F400000210068C170704712480021026811708A
:104F50007F21026891700021026851703F21006832
:104F6000C170704770B54FF4806400250A48066828
:104F70002A002100300000F0BDF83F237F220021ED
:104F80000020FFF797FF70BD034A1060014A1160CF
:104F900070470000542700205027002010B504005F
:104FA00000224FF480714348FCF7B7FD2000C0B2E7
:104FB000FFF7C1FD10BD10B5040001224FF4807150
:104FC0003C48FCF7AAFD2000C0B2FFF7B4FD10BDBD
:104FD00010B504008120FFF7E1FF2000C0B2402897
:104FE00003DB3F20FFF7DAFF03E02000C0B2FFF74A
:104FF000D5FF10BD10B5040014F00F0050F0B00044
:10500000C0B2FFF7CBFF10BD10B504002000C0B246
:1050100000F005F82000C0B200F00CF810BD10B58B
:1050200004002000C0B2000950F01000C0B2FFF729
:10503000B5FF10BD10B5040014F00F00FFF7AEFF70
:1050400010BD70B500242000C0B210282EDA1A4D11
:10505000286840782100C9B2491CB0EBC10F23DA9F
:105060002868C0782100C9B2B0EBC10F1EDB200058
:10507000C0B2FFF7BFFF28680078FFF7C5FF2868B8
:105080000678286880783100C9B288420CD30B4872
:1050900001682200D2B28020424352FA86F0085CB6
:1050A000FFF789FF761CECE7641CCCE7FFF73EFFB7
:1050B00070BD000000080048542700205027002041
:1050C00080B5A020FFF76AFFAE20FFF767FFC8207A
:1050D000FFF764FFA220FFF761FF2F20FFF75EFFBD
:1050E0002220FFF75BFF3F20FFF772FFAF20FFF7A3
:1050F00055FF01BD62F30F2262F31F42401810F00A
:10510000030308D0C91A1FD3DB0748BF00F8012DDD
:1051100028BF20F8022D130030B41446154610396C
:1051200028BF20E93C00FAD8490728BF20E90C0035
:1051300048BF40F8042D890028BF20F8022D48BF41
:1051400000F8012D30BC7047C91818BF00F8012DB8
:10515000CB0728BF00F8012D7047000070B4039CF6
:10516000DFF88453286029716A71AB71EC710126F4
:105170002E7270BC70472DE9F74F04000D00DFF868
:1051800068639DF80800B179884204D3F0799DF8EE
:105190000810884202D22E208DF80800307A0028AC
:1051A00045D1002738003179C0B288423DD23168FC
:1051B0009DF80820B079121A3079424301EB0200C1
:1051C0003900C9B210F80190002080464046C0B2B4
:1051D000082828DA3800C0B250FA84F0802805DAAE
:1051E0004046C0B250FA85F0402801DB00205DE166
:1051F000012010FA08F04946C9B2014208D0012244
:1052000018EB0501C9B23819C0B200F06FF907E018
:10521000002218EB0501C9B23819C0B200F066F9D6
:1052200018F10108D2E77F1CBCE730793EE1307A03
:10523000012840F08E807079082190FBF1F201FB8B
:105240001200012806DB7079082190FBF1FB1BF1AD
:10525000010B03E07079082190FBF1FB317958468E
:10526000C0B24143491C8DF8011031689DF80820F7
:10527000B079121A9DF80100424301EB0200017857
:105280008DF80010401C01905FF0000840469DF82A
:105290000010C0B2884259D25FF000094846594612
:1052A000C0B2C9B288424ED201994246D2B25846E3
:1052B000C0B2424301EB02004946C9B210F801A056
:1052C000002007003800C0B2082839DA4046C0B2D2
:1052D00050FA84F0802808DA4846C0B2C00050FA7C
:1052E00085F050FA87F0402801DB0020DEE04846D8
:1052F000C0B2C00050FA87F0717988421EDA0121ED
:10530000B9405046C0B208420CD001225FFA89F978
:1053100015EBC9017918C9B218EB0400C0B200F04E
:10532000E5F80BE000225FFA89F915EBC90179185D
:10533000C9B218EB0400C0B200F0D8F87F1CC1E776
:1053400019F10109AAE718F101089FE79DF800008B
:10535000ACE0307A022840F0A8807079082190FBF8
:10536000F1F0401C8DF8000030799DF8001010FB22
:1053700001F08DF8020031689DF80820B079121A0A
:105380009DF80200424301EB0200019096F804B040
:1053900000208DF8010000210020002210009DF85F
:1053A0000030C0B298420CD23079431E9DF8010003
:1053B0001B1A13FB02F0019BC0B2185C0100521CC7
:1053C000ECE70800C0B200280BD1BBF1010B584636
:1053D000C0B2002805D09DF80100401C8DF80100E6
:1053E000D9E7002738009DF80010C0B2884259D292
:1053F0005FF0000840465946C0B2C9B288424FD259
:1054000001993A00D2B23079424301EB02004146A1
:10541000C9B210F801905FF0000A5046C0B20828E7
:105420003BDA4046C0B250FA84F0802808DA3800EF
:10543000C0B2C00050FA85F050FA8AF0402801DB73
:10544000002033E03800C0B2C00050FA8AF0717911
:1054500088421FDA012111FA0AF14846C0B2084217
:105460000CD00122FFB215EBC7011AEB0101C9B242
:1054700018EB0400C0B200F039F80BE00022FFB2D4
:1054800015EBC7011AEB0101C9B218EB0400C0B259
:1054900000F02CF81AF1010ABFE718F10108A9E79A
:1054A0007F1C9FE75846C0B200E00020BDE8FE8F99
:1054B000F8B504000F0015000B484079D0F13F000B
:1054C0003900C9B288420EDB287800280BD02A7830
:1054D0003900C9B22000C0B2FFF74DFE0600701CB3
:1054E00004196D1CF0E7F1BD1C270020F8B504007D
:1054F0000D0016002000C0B2802803DA2800C0B2D8
:10550000402800DB57E03000C0B2002824D029003A
:10551000C9B20822DFF8CC312800C0B2082790FBBE
:10552000F7F78020474357FA84F72800C0B25FF0AE
:10553000080C90FBFCFC802000FB0CFC5CFA84F067
:10554000185C5FF0010C91FBF2FE02FB1E111CFACD
:1055500001F10143D95524E02900C9B20822DFF83E
:1055600084312800C0B2082790FBF7F7802047431A
:1055700057FA84F72800C0B25FF0080C90FBFCFCDF
:10558000802000FB0CFC5CFA84F0185C5FF0010CDE
:1055900091FBF2FE02FB1E111CFA01F130EA01013F
:1055A000D9552B00DBB22200D2B22900C9B22000AB
:1055B000C0B2FFF77FFCF1BD2DE9F84F05000E00EA
:1055C000170098460A9C3800C0B22900C9B2401A98
:1055D00003F0F7FD81464046C0B23100C9B2401A1F
:1055E00003F0EFFD814502DA5FF0010B01E05FF0AF
:1055F000000B5846C0B2002805D028003500060030
:1056000038004746804638002900C0B2C9B28842F7
:1056100005D228003D00070030004646804643463C
:10562000DBB23A00D2B23100C9B22800C0B2FFF7F3
:1056300041FC781B8DF800004046C0B23100C9B271
:10564000401A03F0BEFD8DF801009DF80000022114
:1056500090FBF1F930004146C0B2C9B2884202D293
:105660005FF0010A01E05FF0FF3A38002900C0B2A4
:10567000C9B2884224D35846C0B2002808D02200BC
:10568000D2B22900C9B23000C0B2FFF72FFF07E045
:105690002200D2B23100C9B22800C0B2FFF726FF03
:1056A0009DF80100B9EB0009484640B2002805D535
:1056B0001AEB06069DF8000010EB09096D1CD4E7F3
:1056C000BDE8F18FF8B504004FF480652600064868
:1056D00007682A003100380001F030FFFFF734FC82
:1056E000F1BD0000A40F002050270020BBBBE1B19A
:1056F000B2F5803F80F07E80022A1ED98C46B1FB35
:10570000F2F102FB11C31B0443EA1043B3FBF2FCAA
:1057100002FB1C3380B240EA0343B3FBF2F002FB0E
:10572000103240EA0C4000237047022A05D9844613
:10573000B0FBF2F002FB10C270474AB105D100F095
:10574000010249085FEA30007047002200237047D9
:1057500003F03CBD0B000200002100207047904286
:1057600071EB030CF6D3B3F5803F2FD2F0B5B3FA4B
:1057700083F7B1FA81F4A7F10F0E3D1B5340CEF130
:10578000200602FA0EF2F3415340B5F10F0746D856
:105790000F3C2C444140C4F12006A040F14141405F
:1057A000B1FBF3F603FB1611A2FB0645001BA94152
:1057B00002D2761E8018594180EA010221FA0EF3C6
:1057C00062FA0EF200215A403046F0BD30B4B1FB0F
:1057D000F3FC03FB1C11A2FB0C45001BA94103D2E7
:1057E000ACF1010C8018594130BC02460B466046B2
:1057F00000217047B2F1807F65D3F0B5B2FA82F72D
:10580000B1FA81F4C7F10F063D1B22FA06F307F146
:10581000110EF24120355A40B5F10F07B8D9414079
:10582000C4F12006A040F1414140B1FBF3FC03FB71
:105830001C11A2FB0C45001BA94103D2BCF1010CB9
:10584000801859410F2F12D30F3FC90341EA50412D
:10585000B1FBF3F603FB1611A2FB0645D4EBC030F7
:10586000A94102D2761E8018594146EACC3C07B3C2
:105870004140C7F12006B840F1414140B1FBF3F689
:1058800003FB1611A2FB0645001BA94102D2761E9E
:105890008018594180EA010221FA0EF3C7F1200471
:1058A00062FA0EF20CFA07F05A402CFA04F1304377
:1058B000F0BD80EA010221FA0EF3002162FA0EF235
:1058C00060465A40F0BD8C46B1FBF2F102FB11C3B9
:1058D0001B0243EA1063B3FBF2FC02FB1C331B0206
:1058E0004CEA002043EA1063B3FBF2FC02FB1C33DA
:1058F0001B024CEA002043EA1063B3FBF2FC02FBFC
:105900001C331B024CEA002043EA1063B3FBF2FC99
:1059100002FB1C324CEA002000237047B0B581EA3C
:10592000030C0CF0004C40F2FF7515EA11541DBF3A
:1059300015EA1357AC42AF4239E0E41923EA455364
:1059400043F48013C90241F0004141EA505EC702AE
:105950001100A7FB020200284FF00000EEFB01201F
:105960004FF00001E3FB072118BF42F0010240188D
:1059700000214941E3FB0E01A4F580640F0302D22C
:1059800052004041494154F101046CDD470872F175
:10599000004250F1000051EB0451A1F580115CBFB1
:1059A00041EA0C01B0BD4CEA05510020B0BD05EA4A
:1059B0001357AC4214BFAF4241E050EA410E1CBF46
:1059C00052EA430E02E061460020B0BD24423C444E
:1059D0001BD15FEA070EF6D0090302BF0146002083
:1059E000AEF1140EB1FA81F7AEEB070401FA07FE2F
:1059F0000C37C7F1200100FA07F7C8404EEA000E45
:105A000023EA455343F48013A2E733F00043B3FA8B
:105A100083F704BFB2FA82FE77440B3FE41BB7F171
:105A2000200E2FBF02FA0EF3BB40C7F1200E22FA60
:105A30000EFE38BF43EA0E03BA40641C82E750EA08
:105A4000410E14BF52EA430E6FF000014FF40017ED
:105A500017EB430F8ABF194617EB410FB5E74CEA26
:105A600005510020B0BDD4F10104B4F120070FDAD4
:105A7000C4F12007520828BF42F0010210FA07F5CE
:105A800001FA07F7E1BF2A43E0403843E1400FE065
:105A9000352C98DCC7F1200452EA400220FA07F2C4
:105AA00018BF42F0010231FA07F0A1400A43002179
:105AB00072F1004250F1000051EB0C01B0BD00004A
:105AC00070B44FF0004591EA030F43F189836B40B6
:105AD000841A71EB030604D26E40001BB141121907
