:020000040800F2
:10000000982A0020B5EC000855E6000857E60008DD
:1000100059E600085BE600085DE600080000000005
:100020000000000000000000000000005FE6000883
:1000300061E600080000000063E6000865E60008CD
:10004000B1EF0008B5EF0008B9EF0008BDEF0008F8
:10005000C1EF0008C5EF0008C9EF0008CDEF0008A8
:10006000D1EF0008D5EF0008D9EF0008DDEF000858
:10007000E1EF000875E60008E5EF00087FE60008FC
:10008000E9EF0008EDEF0008F1EF0008F5EF0008D8
:10009000F9EF0008FDEF000801F0000805F0000886
:1000A00009F000080DF0000811F0000815F0000834
:1000B00019F0000800000000000000001DF000081A
:1000C00021F0000825F0000829F000082DF00008B4
:1000D00031F0000889E6000835F0000893E60008D2
:1000E00039F000089DE60008000000000000000054
:1000F0000000000000000000000000000000000000
:10010000000000003DF000080000000041F0000881
:10011000000000000000000045F0000849F0000861
:100120004DF0000851F0000855F0000859F00008A3
:100130005DF000080000000000000000000000006A
:1001400061F0000865F0000869F000086DF0000833
:1001500071F00008A7E60008B1E6000875F0000895
:1001600079F000087DF0000881F000080000000030
:1001700085F0000889F000088DF0000800000000FC
:1001800091F0000895F0000899F0000880B5DFF8BC
:10019000700A0078012806D0022807D0042808D069
:1001A000082809D00BE000F088F808E000F034FDE2
:1001B00005E000F0A5FE02E001F004F8FFE701BD54
:1001C0002DE9F0410024DFF8385A287A002871D14F
:1001D000DFF8306A0421300001F086FC002801D1EC
:1001E000012700E000270221300001F07DFC0028FB
:1001F00002D15FF0010801E05FF00008012130004A
:1002000001F072FC002801D1012600E00026202127
:10021000DFF8F40901F068FC002801D1012000E0BA
:10022000002057EA480757EA86073C0054EAC00412
:100230002000C0B2012805D0022803D0042801D034
:1002400008282DD16868401C68606868502826D34B
:100250002C7001202872DFF8B40921000278C9B29D
:10026000914215D1DFF8A8190A68521C0A600A6881
:10027000322A04D350226A6032220A600EE00968F2
:10028000322902D34E21696008E00021696005E04F
:10029000002169600021DFF878291160047009E00D
:1002A0000020DFF868190870282068600020DFF857
:1002B000601908602878BDE8F0817FB5DFF85449FF
:1002C000A078002814D0012837D0022867D003284E
:1002D00000F0C680042800F04981052800F07682ED
:1002E000062800F09E83082800F0208400F087BCD8
:1002F000DFF80C590020E860DFF8F46B0A220021D7
:10030000300001F077FC30203070302070703020E9
:10031000B0703020F070E8680001801CC0B203901B
:100320000296032001900220009003230022012165
:10033000A01C02F052F900F062BCDFF8C408C168EA
:10034000491CC160C16804291EDBDFF8A40B02F060
:100350005FF9012815D1A51C0622290014F1080017
:1003600001F096FCF12003900020029008200190FB
:1003700005200090052300220221280002F02DF91B
:100380000BE00020A07008E0C0680001801C0200A3
:10039000D2B20021A01C02F0FDF800F030BC2079A0
:1003A000052806D05BD307282FD018D3082841D0C2
:1003B00055E0A51C0622290014F1080001F068FC94
:1003C000F1200390002002900B2001900A20009061
:1003D0000A2300220321280002F0FFF83FE0A51CB9
:1003E0000622290014F1080001F052FCF1200390CC
:1003F00000200290102001900D2000900D2300227B
:100400000421280002F0E9F829E0A51C06222900B1
:1004100014F1080001F03CFCF12003900020029050
:100420001820019017200090172300220621280091
:1004300002F0D3F8A51C0622290014F1080001F0EF
:1004400027FC00200390002002901A2001901A201F
:1004500000901A2300220721280002F0BEF8CEE304
:1004600020790A2802D00B2840D07EE0E0780028CE
:1004700002D001281FD038E0A61C0622310014F15A
:10048000080001F005FCDFF87857F220039015F121
:100490000C0002900B2001900A2000900A23E278C1
:1004A000521CD2B20321300002F097F8DFF8440A60
:1004B0004078E86019E0A51C0622290014F1080024
:1004C00001F0E6FBF0200390002002901D20019037
:1004D0001D2000901D2300220821280002F07DF835
:1004E0000120DFF8101A0870FFE73EE0E0780028EE
:1004F00002D001281FD038E0A61C0622310014F1DA
:10050000080001F0C5FBDFF8F856F220039015F162
:100510000C0002900B2001900B2000900B23E2783E
:10052000521CD2B20321300002F057F8DFF8C409A0
:100530004068E86019E0A51C0622290014F10800B3
:1005400001F0A6FBF0200390002002901D200190F6
:100550001D2000901D2300220821280002F03DF8F4
:100560000120DFF890190870FFE748E320790D2893
:1005700009D0C0F02A810F2800F096804ED31028B1
:1005800000F0DD8021E1E078002802D001281FD0B2
:1005900043E0A61C0622310014F1080001F078FBAC
:1005A000DFF85C56F220039015F10C000290102049
:1005B00001900D2000900D23E278521CD2B204214C
:1005C000300002F00AF8DFF82C09006AE86024E045
:1005D000A51C0622290014F1080001F059FBF020A7
:1005E0000390002002901D2001901D2000901D23EB
:1005F00000220821280001F0F0FFDFF8FC48FF216D
:10060000DFF8FC05C06802F09DFB84ED000A0422BF
:100610002100032003F00CF9FFE7D6E0E078002882
:1006200002D001281FD03EE0A61C0622310014F1A2
:10063000080001F02DFBDFF8C855F220039015F1FA
:100640000C000290102001900D2000900E23E27803
:10065000521CD2B20421300001F0BFFFDFF8500B72
:10066000006AE8601FE0A51C0622290014F10800BA
:1006700001F00EFBF0200390002002901D2001905D
:100680001D2000901D2300220821280001F0A5FF55
:10069000DFF86818DFF86805C068086004220420E5
:1006A00003F0C6F8FFE790E0E078002802D00128C8
:1006B0001FD043E0A61C0622310014F1080001F00F
:1006C000E7FADFF83C55F220039015F10C00029098
:1006D000102001900D2000900F23E278521CD2B21E
:1006E0000421300001F079FFDFF80808406AE86073
:1006F00024E0A51C0622290014F1080001F0C8FA24
:10070000F0200390002002901D2001901D200090F9
:100710001D2300220821280001F05FFFDFF8D847E1
:10072000FF21DFF8DC04C06802F00CFB84ED000A56
:1007300004222100052003F07BF8FFE745E0E07884
:10074000002802D001281FD03EE0A61C062231005E
:1007500014F1080001F09CFADFF8A454F220039091
:1007600015F10C000290102001900D200090102334
:10077000E278521CD2B20421300001F02EFFDFF8E3
:10078000300A806AE8601FE0A51C0622290014F1E7
:10079000080001F07DFAF0200390002002901D2057
:1007A00001901D2000901D2300220821280001F047
:1007B00014FFDFF84817DFF84804C0680860042217
:1007C000062003F035F8FFE7FFE718E2207912284A
:1007D00009D0C0F02581142800F095804ED315284B
:1007E00000F0DA801CE1E078002802D001281FD058
:1007F00043E0A61C0622310014F1080001F048FA7B
:10080000DFF8FC53F220039015F10C000290152044
:100810000190122000901223E278521CD2B20521DE
:10082000300001F0DAFEDFF8CC06806AE86024E0F0
:10083000A51C0622290014F1080001F029FAF02075
:100840000390002002901D2001901D2000901D2388
:1008500000220821280001F0C0FEDFF89C46FF219D
:10086000DFF89C03C06802F06DFA84ED000A0422F0
:100870002100072002F0DCFFFFE7D1E0E07800284C
:1008800002D001281FD03DE0A61C0622310014F141
:10089000080001F0FDF9DFF86853F220039015F12C
:1008A0000C00029015200190122000901323E27892
:1008B000521CD2B20521300001F08FFEDFF8F008A3
:1008C000006BE8601EE0A51C0622290014F1080058
:1008D00001F0DEF9F0200390002002901D2001902D
:1008E0001D2000901D2300220821280001F075FE24
:1008F000DFF80816C248C06808600422082002F029
:1009000097FFFFE78CE0E078002802D001281ED096
:1009100041E0A61C0622310014F1080001F0B8F9EC
:10092000B74DF220039015F10C00029015200190B4
:10093000122000901423E278521CD2B2052130001C
:1009400001F04BFEDFF8AC05C06AE86023E0A51CAF
:100950000622290014F1080001F09AF9F020039012
:10096000002002901D2001901D2000901D230022D8
:100970000821280001F031FEDFF87C45FF21A04866
:10098000C06802F0DFF984ED000A0422210009208A
:1009900002F04EFFFFE743E0E078002802D0012894
:1009A0001ED03CE0A61C0622310014F1080001F024
:1009B0006FF9934DF220039015F10C000290152071
:1009C0000190122000901523E278521CD2B205212A
:1009D000300001F002FEDFF8D807806BE8601EE00F
:1009E000A51C0622290014F1080001F051F9F0209D
:1009F0000390002002901D2001901D2000901D23D7
:100A000000220821280001F0E8FDDFF8F0147C48FE
:100A1000C068086004220A2002F00AFFFFE7FFE72F
:100A2000EDE02079172802D018283FD07DE0E0784B
:100A3000002802D001281ED037E0A61C0622310073
:100A400014F1080001F024F96D4DF220039015F126
:100A50000C00029018200190172000901723E278D4
:100A6000521CD2B20621300001F0B7FDDFF8840439
:100A70008069E86019E0A51C0622290014F108002D
:100A800001F006F9F0200390002002901D20019053
:100A90001D2000901D2300220821280001F09DFD4B
:100AA0000120DFF850140870FFE73EE0E0780028EE
:100AB00002D001281ED037E0A61C0622310014F116
:100AC000080001F0E5F84E4DF220039015F10C00FE
:100AD000029018200190172000901823E278521CF1
:100AE000D2B20621300001F078FDDFF80804C069B9
:100AF000E86019E0A51C0622290014F1080001F0A5
:100B0000C7F8F0200390002002901D2001901D20C6
:100B100000901D2300220821280001F05EFD012025
:100B2000DFF8D0130870FFE7FFE768E0207A0328BA
:100B300006D063D305285ED05DD3062830D05DE0B3
:100B40000320DFF8B0130870A07A0A2802D00B281F
:100B500009D024E0DFF85C0641782948C068C0B2BB
:100B600003F022FB1BE000200100C9B20B290FDAC1
:100B7000DFF844160200D2B251F82210204AD2689F
:100B8000914203D1DFF82C16487001E0401CEBE7DE
:100B9000DFF820064178007803F006FBFFE72DE040
:100BA0000320DFF850130870A07A172802D0182805
:100BB00010D01FE0DFF8F805D0ED060A1048C06835
:100BC000642190FBF1F000EE100AB8EEC00A02F0CA
:100BD000BBFE0FE00A48C068642190FBF1F000EE14
:100BE000100AF8EEC00ADFF8C80590ED050A02F019
:100BF000ABFEFFE702E002F00BFEFFE7FFE77FBD81
:100C0000A425002000040048000800488826002091
:100C100030260020FC2500201FB5DFF8A045A07875
:100C200000280BD002281BD009D3042873D024D36A
:100C3000062800F02981C0F0C38058E157E1DFF8B1
:100C4000B002DFF87C15CA68825C521CCB68C254C3
:100C5000CA68825C3A2A02DB3022C968425446E103
:100C600060792179884202D22079401E2071F122D8
:100C70000021A01C01F08EFC39E1E07800280CD1A5
:100C800060792179884202D22079401E2071F122B8
:100C90000021A01C01F07EFC3CE020790A2802D053
:100CA0000B2812D036E0E078002802D0012801D0CD
:100CB0000AE009E0DFF80805C168B1F5807F02DAD3
:100CC000C168491CC160FFE724E0E078002802D039
:100CD000012801D01EE01DE000210800C0B20B2851
:100CE00017DADFF8D424DFF8D8040B00DBB252F8AF
:100CF0002330C468A3420AD10B00DBB20A2B06DA08
:100D00000B00DBB202EB83025268C26001E0491CB7
:100D1000E3E7FFE7EBE0E07800280CD16079217988
:100D2000884202D22079401E2071F1220021A01CAD
:100D300001F030FC43E020790D2806D03FD30F2886
:100D400020D010D310282BD039E0E078002802D032
:100D5000012801D006E005E0DFF86404C168491C01
:100D6000C160FFE72BE0E078002802D0012801D025
:100D700007E006E0DFF83804C06BDFF84414C86011
:100D8000FFE71CE0E078002802D0012801D006E04F
:100D900005E0DFF82C04C168491CC160FFE70EE0E4
:100DA000E078002802D0012801D007E006E0DFF853
:100DB0000004C06BDFF80814C860FFE7FFE796E0A7
:100DC000E07800281BD160792179884208D2207907
:100DD000401E2071F1220021A01C01F0DBFB52E03B
:100DE000F120039000200290102001900D2000902F
:100DF000102300220421A01C01F0EFFB43E0207926
:100E0000122806D03FD3142820D010D315282BD079
:100E100039E0E078002802D0012801D006E005E0A2
:100E2000DFF89C03C168491CC160FFE72BE0E07854
:100E3000002802D0012801D007E006E0DFF87003A7
:100E4000C06BDFF87C13C860FFE71CE0E078002887
:100E500002D0012801D006E005E0DFF86403C16894
:100E6000491CC160FFE70EE0E078002802D00128AD
:100E700001D007E006E0DFF83803C06BDFF840136D
:100E8000C860FFE7FFE732E0E07800280CD1607926
:100E90002179884202D22079401E2071F12200215E
:100EA000A01C01F077FB21E02079172802D0182838
:100EB0000ED01BE0E078002802D0012801D006E027
:100EC00005E0DFF8FC02C168491CC160FFE70DE0E6
:100ED000E078002802D0012801D006E005E0DFF824
:100EE000E002C168491CC160FFE7FFE7FFE71FBDE3
:100EF00000000020B82400203426002038260020DE
:100F000010B5DFF8B832987800280BD002281BD033
:100F100009D3042870D024D3062800F01781C0F02C
:100F2000C08044E143E1DFF85C08DFF89412CA684E
:100F3000825C521ECB68C254CA68825C302A02DAD4
:100F40003922C968425432E118799979884202D22B
:100F50001879401C1871F1220021981C01F01AFB2D
:100F600025E1D87800280CD118799979884202D2E5
:100F70001879401C1871F1220021981C01F00AFB1D
:100F800039E018790A2802D00B2810D033E0D8783D
:100F9000002802D0012801D008E007E08848C16895
:100FA000012902DBC168491EC160FFE723E0D87850
:100FB000002802D0012801D01DE01CE00A22100008
:100FC000C0B2002816D07C4B7D491000C0B253F847
:100FD0002000CC68A0420BD11000C0B2002807D07E
:100FE0001000C0B203EB800050F8040CC86001E0B0
:100FF000521EE4E7FFE7DAE0D87800280CD1187930
:101000009979884202D21879401C1871F122002186
:10101000981C01F0BFFA43E018790D2806D03FD3A1
:101020000F2820D012D310282DD039E0D8780028EE
:1010300002D0012801D008E007E06148C168012919
:1010400002DBC168491EC160FFE729E0D8780028AB
:1010500002D0012801D005E004E05548C06B584992
:10106000C860FFE71CE0D878002802D0012801D032
:1010700008E007E05248C168012902DBC168491E47
:10108000C160FFE70CE0D878002802D0012801D029
:1010900005E004E04648C06B4949C860FFE7FFE748
:1010A00085E0D87800280CD118799979884202D245
:1010B0001879401C1871F1220021981C01F06AFA7D
:1010C00043E01879122806D03FD3142820D012D339
:1010D00015282DD039E0D878002802D0012801D079
:1010E00008E007E03648C168012902DBC168491EF3
:1010F000C160FFE729E0D878002802D0012801D09C
:1011000005E004E02A48C06B2D49C860FFE71CE0F9
:10111000D878002802D0012801D008E007E028484C
:10112000C168012902DBC168491EC160FFE70CE00C
:10113000D878002802D0012801D005E004E01C483E
:10114000C06B1F49C860FFE7FFE730E0D878002890
:101150000CD118799979884202D21879401C1871FB
:10116000F1220021981C01F015FA1FE018791728C8
:1011700002D018280DD019E0D878002802D0012814
:1011800001D005E004E00E48C168491EC160FFE7D8
:101190000CE0D878002802D0012801D005E004E056
:1011A0000748C168491EC160FFE7FFE7FFE710BDC0
:1011B00078240020340A0020BC040020FC250020F4
:1011C000A425002038B584B0DFF8BC45A0780028FD
:1011D00011D0022813D00FD3042800F0868011D339
:1011E000062800F04782C0F06481082800F0BA8227
:1011F000C0F0B182C3E2C2E20020A070BFE20020D2
:10120000A070BCE220790A2802D00B2836D06BE00F
:10121000E078002802D0012816D02EE0A51CF1208D
:1012200003900020029008200190052000900523E3
:1012300000220221280001F0D0F90622290014F131
:10124000080000F025FD18E0A51C0622290014F175
:10125000080000F01DFDF1200390DFF8300502903A
:101260000B2001900A2000900A23E078421ED2B29F
:101270000321280001F0B1F9FFE735E0E07800280C
:1012800002D0012816D02EE0A51CF12003900020EA
:1012900002900820019005200090052300220221E1
:1012A000280001F09AF90622290014F1080000F044
:1012B000EFFC18E0A51C0622290014F1080000F03C
:1012C000E7FCF1200390DFF8C80402900B200190A6
:1012D0000A2000900B23E078421ED2B2032128009E
:1012E00001F07BF9FFE7FFE749E220790D2808D0FC
:1012F000C0F0DE800F2870D039D3102800F0A38012
:10130000D6E0E078002802D0012816D02EE0A51CF7
:10131000F120039000200290082001900520009009
:10132000062300220221280001F057F90622290095
:1013300014F1080000F0ACFC18E0A51C06222900FE
:1013400014F1080000F0A4FCF1200390DFF844043D
:101350000290102001900D2000900D23E078421E95
:10136000D2B20421280001F038F9FFE7A0E0E078CC
:10137000002802D0012816D02EE0A51CF1200390F1
:1013800000200290082001900520009006230022F2
:101390000221280001F021F90622290014F1080099
:1013A00000F076FC18E0A51C0622290014F10800C4
:1013B00000F06EFCF1200390DFF8DC0302901020B7
:1013C00001900D2000900E23E078421ED2B204213D
:1013D000280001F002F9FFE76AE0E078002802D077
:1013E000012816D02EE0A51CF120039000200290C9
:1013F00008200190052000900623002202212800E9
:1014000001F0EBF80622290014F1080000F040FC7E
:1014100018E0A51C0622290014F1080000F038FC91
:10142000F1200390DFF874030290102001900D204A
:1014300000900F23E078421ED2B20421280001F070
:10144000CCF8FFE734E0E078002802D0012816D07D
:101450002DE0A51CF12003900020029008200190AF
:1014600005200090062300220221280001F0B5F893
:101470000622290014F1080000F00AFC17E0A51C60
:101480000622290014F1080000F002FCF12003906C
:10149000C3480290102001900D2000901023E078A6
:1014A000421ED2B20421280001F097F8FFE7FFE7BF
:1014B00065E12079122808D0C0F0DB8014286ED0B6
:1014C00038D3152800F0A080D3E0E078002802D0BF
:1014D000012816D02DE0A51CF120039000200290D9
:1014E00008200190052000900623002202212800F8
:1014F00001F073F80622290014F1080000F0C8FB7F
:1015000017E0A51C0622290014F1080000F0C0FB1A
:10151000F1200390A3480290152001901220009022
:101520001223E078421ED2B20521280001F055F8BE
:10153000FFE79EE0E078002802D0012816D02DE0D9
:10154000A51CF120039000200290082001900520A6
:101550000090062300220221280001F03EF8062216
:10156000290014F1080000F093FB17E0A51C0622E7
:10157000290014F1080000F08BFBF12003908A4849
:10158000029015200190122000901323E078421E53
:10159000D2B20521280001F020F8FFE769E0E078E9
:1015A000002802D0012816D02DE0A51CF1200390C0
:1015B00000200290082001900520009006230022C0
:1015C0000221280001F009F80622290014F1080080
:1015D00000F05EFB17E0A51C0622290014F10800AC
:1015E00000F056FBF1200390704802901520019006
:1015F000122000901423E078421ED2B20521280068
:1016000000F0EBFFFFE734E0E078002802D001288B
:1016100016D02DE0A51CF120039000200290082098
:10162000019005200090062300220221280000F0EE
:10163000D4FF0622290014F1080000F029FB17E06E
:10164000A51C0622290014F1080000F021FBF1205E
:101650000390574802901520019012200090152306
:10166000E078421ED2B20521280000F0B6FFFFE765
:10167000FFE784E02079172802D0182835D069E0E8
:10168000E078002802D0012816D02DE0A51CF1201A
:10169000039000200290082001900520009005236F
:1016A00000220221280000F098FF0622290014F1F0
:1016B000080000F0EDFA17E0A51C0622290014F13D
:1016C000080000F0E5FAF12003903A480290182053
:1016D0000190172000901723E078421ED2B2062115
:1016E000280000F07AFFFFE734E0E078002802D01D
:1016F000012816D02DE0A51CF120039000200290B7
:1017000008200190052000900523002202212800D6
:1017100000F063FF0622290014F1080000F0B8FA77
:1017200017E0A51C0622290014F1080000F0B0FA09
:10173000F12003902048029018200190172000907B
:101740001823E078421ED2B20621280000F045FF9F
:10175000FFE7FFE713E0062214F10801A01C00F0E8
:1017600097FA0CE0154D2878022807D0062214F1CC
:101770000801A01C00F08CFA00202870FFE705B0DB
:1017800030BD000000000020FC250020B92400200E
:10179000BC240020D824002098240020DC24002031
:1017A000A0240020E0240020A8240020E42400201D
:1017B000B0240020D0240020D4240020B82400200D
:1017C000F8B4030000250868E840002800F0D7803E
:1017D00001260F6816FA05F007403A00002A00F0CB
:1017E000CC80087910F00300012804D0087910F0AB
:1017F000030002281DD19F685FF0030C2800C0B2CF
:1018000040001CFA00FC37EA0C07D1F80CC0280095
:10181000C0B240001CFA00FC5CEA07079F605868F1
:10182000AE40B0434E68C6F30016AE4030430400ED
:101830005C60087910F0030003280ED0DE680327EF
:101840002800C0B240008740BE438F682800C0B265
:10185000400087403E433400DC60087910F003000C
:10186000022818D12800C00803EB8000066A0F2761
:1018700015F00700C0B280008740BE430F6915F025
:101880000700C0B2800087403E4334002800C008F3
:1018900003EB800004621E6803272800C0B24000EA
:1018A0008740BE430F7917F003072800C0B24000FD
:1018B00087403E4334001C60486810F4403F5CD0D1
:1018C0009548066856F001060660006810F00100B1
:1018D00000900098914F2800800857F820605FF032
:1018E0000F0C15F00300C0B280001CFA00FC36EAB1
:1018F0000C06B3F1904F01D1002414E088488342D4
:1019000001D101240FE08748834201D102240AE07B
:101910008548834201D1032405E08448834201D1F4
:10192000042400E0072415F00300C0B280008440C6
:1019300026432800800847F820607D4C20689043AB
:101940004F68FF0200D5104320607A4E34689443FC
:101950004F68BF0200D514433460774E306890431F
:101960004F68BF0300D510433060744E3468944311
:101970004F68FF0300D5144334606D1C23E7F1BCAE
:1019800070472DE9F041030000250800E8400028D9
:1019900000F0A880012616FA05F008400200002A8F
:1019A00000F09E80DFF874C1280080085CF82000F9
:1019B0000F2715F0030E5FFA8EFE5FEA8E0E17FA00
:1019C0000EFE1EEA00000400B3F1904F02D15FF05A
:1019D000000E19E05248834202D15FF0010E13E07D
:1019E0005048834202D15FF0020E0DE04E48834220
:1019F00002D15FF0030E07E04C48834202D15FF052
:101A0000040E01E05FF0070E15F00300C0B2800085
:101A10001EFA00FE74452CD14848D0F800E03EEA9A
:101A2000020EC0F800E04448D0F800E03EEA020EA2
:101A3000C0F800E03F48D0F800E03EEA020EC0F8EF
:101A400000E03B48D0F800E03EEA020EC0F800E0BB
:101A500015F00300C0B2800017FA00F0040028005F
:101A600080085CF82000A043AE465FEA9E0E4CF86A
:101A70002E005FF0030C1868AE465FFA8EFE5FEA38
:101A80004E0E1CFA0EFE5EEA000018602800C00828
:101A900003EB800E2800C00803EB8000D0F8208004
:101AA00015F00700C0B28000874038EA0707CEF87B
:101AB000207098682F00FFB27F001CFA07F7B84328
:101AC00098605868AE4030EA06065E60DE6828001E
:101AD000C0B240001CFA00FC36EA0C0CC3F80CC083
:101AE0006D1C52E7BDE8F081020010690B009BB24B
:101AF000184201D0012000E00020C0B2704713005E
:101B0000DBB2002B03D00B009BB2836102E00B0021
:101B10009BB28362704700006010024008000140E1
:101B20000004004800080048000C0048001000486D
:101B3000080401400C040140040401400004014079
:101B400038B504000D00DFF8FC010168200000F04A
:101B500006F8A84201D3012000E0002032BD8142F6
:101B600004D25FF0FF32101A081800E0081A70471C
:101B700038B52DED048B08EE100A0C001500DFEDD2
:101B8000438A2800C0B2FB2810DBB8EEC89A2800B0
:101B9000C0B24042C0B200F08BF829EE009A00219A
:101BA0002000B0EE490A00F0B1F80EE0B8EEC89A95
:101BB0002800C0B200F07CF889EE009A2900C9B272
:101BC0002000B0EE490A00F0A1F8BDEC048B31BD55
:101BD00010B400210A00838892B29A4206D20022F1
:101BE00003680C00A4B21A55491CF3E70022828056
:101BF00010BC704710B4040013005A1E9BB2002B97
:101C000002D02170641CF7E710BC704770B5040067
:101C10000D001600DFF8240100782100C9B28842C7
:101C200009D3DFF824211068002804D0310089B2DC
:101C300028001268904770BD38B504000D002800D8
:101C400002F0C2FC020092B229002000C0B2FFF7ED
:101C5000DDFF31BD70B504000D00280002F0B4FCBA
:101C6000020092B229002000C0B2FFF7CFFFDFF8D8
:101C7000DC603068002807D0280002F0A5FC0100D5
:101C800089B228003268904770BD00000000000053
:101C900030B404000D0013005A1E9BB2002B04D078
:101CA0002B7823706D1C641CF5E730BC7047000076
:101CB00010B504002000C0B2FB2816DB2000C0B223
:101CC000D0F5807002F0A0FC41EC110B9FED200BD1
:101CD00002F0AFFC53EC102B0020194902F0B2FCCB
:101CE00002F0D4FD00EE100A0FE02000C0B202F0B6
:101CF00001FE41EC110B9FED160B02F09AFC51EC2A
:101D0000100B02F0C3FD00EE100A10BD38B52DED2A
:101D1000028B82B0B0EE408A04000D0018EE100A6B
:101D200002F0F6FDCDE900012A000B49200002F087
:101D300013FE02B0BDEC028B31BD0000380A00205A
:101D40000000F03F6C260020742600207026002042
:101D50000000000000002440A0EF000810B502F0D1
:101D60001BFE02F0C1FE02F02EFF00F003FDDFF8C3
:101D70008409DFF884194A1CC0F8F8200A1DC0F84D
:101D8000102111F11002826011F114020262DFF8D9
:101D90006C2912F13C03C0F8283111F12004C0F87D
:101DA000404112F12004C0F8584111F12404C0F858
:101DB000704112F12804C0F88841C0F8A03111F137
:101DC0002803C0F8B83112F13003C0F8D0312C31FB
:101DD000C0F8E81112F13801C0F80012DFF820193C
:101DE0000968C0F87812DFF81C190968C0F8A81251
:101DF00010BD38B5002000242000C0B2062835DA16
:101E0000DFF804592000C0B20001284440780128BE
:101E10002AD12000C0B200012844406800280ED01A
:101E200002F02AFF2100C9B2090129444968401A79
:101E30002100C9B2090129448968884214D30020CD
:101E40002100C9B209012944487002F015FF2100A0
:101E5000C9B20901294448602000C0B22100C9B2BA
:101E600009012944C9688847641CC5E7002032BDC0
:101E700038B50400DFF894586878002817D102F0CC
:101E80008BFD02F031FE02F09EFE00F073FC892013
:101E90000090202307220521DFF8740802F0F2FEEB
:101EA000012068700221DFF8600803F033F8012098
:101EB00032BD7CB50400DFF85C582878002803D0D8
:101EC000022823D003D33DE003F04EF83AE002F0BD
:101ED0000BFE89200090202307220521DFF830081F
:101EE00002F0D0FEDFF8302801212C2002F0E4FFC0
:101EF000DFF828280221082002F0DEFF02F063FE4E
:101F000041F28830DFF8001888611BE00120DFF81B
:101F1000FC17487089200090202307220521DFF854
:101F2000F00702F0AFFEDFF8E0670221300002F0B8
:101F3000F1FF0321300002F0EDFF0421300002F038
:101F4000E9FFFFE72878401C28702100C9B2DFF8BC
:101F5000B80702F0EEFF012076BD70B5040000F076
:101F60009FF8DFF8A8576878012803D1A87800F017
:101F7000EAFA04E00021DFF8900702F0CBFFDFF877
:101F8000A007A9780278914207D0A9780170DFF8FC
:101F900094070068DFF890170860A878092812D124
:101FA000DFF884674FF4FA613068FFF7C9FD012854
:101FB00009D1DFF8700700683060062215F10801CA
:101FC000A81CFFF765FE2100C9B2DFF83C0702F04C
:101FD000B0FF012070BD10B50400DFF85017DFF826
:101FE00050070069FFF7ACFD012827D1DFF844074F
:101FF0000178012905D1002101700020DFF80C17BC
:102000008870DFF834070188491C018042F21071A2
:10201000DFF8F4262300DBB21B011A449268B1FBFF
:10202000F2F102888A420DD300210180DFF8DC162C
:102030008878002806D00020887003E00120DFF8AF
:10204000F41608702100C9B2DFF8BC0602F071FF77
:10205000012010BD38B50400FEF7B2F8DFF8D05605
:10206000287A012808D10521DFF89C0602F052FFEA
:10207000DFF8B006006828612100C9B2DFF88806E1
:1020800002F057FF012032BD10B50400FEF77EF8C4
:10209000DFF89C060021017000210172012010BDB3
:1020A000DFF85406DFF894160A784270DFF89026BD
:1020B000497852F8211041609FED2A0ADFF83C165A
:1020C000D1ED010A60EE800AFDEEE00AC0ED020AE1
:1020D000D1ED020A60EE800AFDEEE00AC0ED030ACF
:1020E000D1ED030A60EE800AFDEEE00AC0ED040ABD
:1020F000D1ED040A60EE800AFDEEE00AC0ED050AAB
:10210000D1ED050A60EE800AFDEEE00AC0ED060A98
:10211000D1ED060A60EE800AFDEEE00AC0ED070A86
:10212000D1ED070A60EE800AFDEEE00AC0ED080A74
:10213000D1ED090A60EE800AFDEEE00AC0ED090A61
:10214000D1ED0B0A60EE800AFDEEE00AC0ED0A0A4E
:10215000D1ED0D0A20EE800ABDEEC00A80ED0B0A1B
:10216000704700000000C8422DE9F84F8AB0060011
:102170002021002202AC200002F000FF00240025F4
:102180005FF0000A00208DF804001827DFF864854E
:102190003000C0B27843404490F815903000C0B28F
:1021A000784340444068002842D001213000C0B24A
:1021B00000F072F900280ED13000C0B278434044DC
:1021C00042683000C0B278434044017D4846C0B206
:1021D00002F072FE1EE05FF0000B3000C0B27843E8
:1021E0004044406802F0F0F95946C9B2814207D232
:1021F000202002A95A46D2B288541BF1010BECE709
:1022000002AA3000C0B278434044017D4846C0B2C3
:1022100002F052FE3000C0B278434044406802F001
:10222000D3F9DFF820150979491C484310FA89F9D8
:102230003000C0B2784340448068002800F0038139
:102240003000C0B278434044007B00280BD0022805
:102250001ED012D3042830D024D3062844D036D33D
:1022600007283ED042E03000C0B278434044806846
:102270000078002104000D0038E03000C0B278433F
:102280004044806890F90000C11704000D002DE063
:102290003000C0B2784340448068008800210400C8
:1022A0000D0023E03000C0B2784340448068B0F9AC
:1022B0000000C11704000D0018E03000C0B27843E0
:1022C000404480680068002104000D000EE03000EA
:1022D000C0B27843404480680068C11704000D0014
:1022E00004E00120824601E0022082465046C0B24E
:1022F00000280CD13000C0B278434044407B4042BB
:102300000200D2B202A92000FFF732FC26E05046BC
:10231000C0B201281AD13000C0B27843404480686E
:1023200002F052F9202819D23000C0B2784340445C
:10233000806802F049F9020092B23000C0B27843DE
:102340004044816802A8FFF7A3FC07E03000C0B258
:1023500078434044806800788DF8080002213000FE
:10236000C0B200F099F8012823D13000C0B2784300
:102370004044807DC0B200098DF804009DF804003F
:102380000F2805D0202002A99DF80420885410E0D1
:102390005FF0000B02A802F017F95946C9B281425A
:1023A00007D2202002A95A46D2B288541BF1010B51
:1023B000F0E73000C0B2002829D1392000902E2348
:1023C00015220F21DFF8800302F00CFE02AA300074
:1023D000C0B278434044017D4846C0B202F0ACFF31
:1023E0005A200090412311221121DFF8600302F0EE
:1023F000F9FDA6A20721642002F09EFF892000902B
:10240000202307220521C24802F03CFC11E089206C
:102410000090202307220521BD4802F033FC02AAC8
:102420003000C0B278434044017D4846C0B202F05B
:1024300043FD02A802F0C8F8C2490979491C484383
:1024400010FA89F081463000C0B2784340440069F8
:1024500000281ED03000C0B2784340448068002875
:1024600017D03000C0B2784340448068B8498842F1
:102470000FD03000C0B27843404402693000C0B28F
:1024800007FB00F708EB0700017D4846C0B202F0E9
:1024900013FD0BB0BDE8F08FF8B504000D009549B1
:1024A0002200D2B21820424301EB0200817D2800B5
:1024B000C0B201402800C0B2814230D17C26A54F75
:1024C0004FF496712800C0B2704338442200D2B253
:1024D00050F82200FFF734FB01282BD12800C0B2AE
:1024E00006FB00F607EB06002100C9B28D4A126810
:1024F00040F8212098492A00D2B21F2042430A44C2
:102500002300DBB22E00F6B21F20464301EB06008B
:102510002100C9B2405CD0F10100D0540AE08E49DC
:102520002A00D2B21F20424301EB02002100C9B2AF
:10253000002242548849EDB21F20454301EB0500BB
:10254000E4B2005DF2BD70B50400002602F0CCFAE2
:102550002000C0B200F073F82000C0B200F098F87C
:102560000025280080B21F2811DA62492A0092B2A1
:102570001820424301EB0200C07D2100C9B288420D
:1025800003D12800C0B2FFF7EFFD6D1CE9E702F0B0
:102590001AFB70BDF0B44271C47803792500EDB226
:1025A000AB420AD3F025534E2700FFB218235F43F6
:1025B00006EB07039D75641CEFE718234D4C8578E7
:1025C0005D4325444679AE75002904D0857803FB28
:1025D00005F323449960F0BC70472DE9F84F0700DC
:1025E000884691469A460A9E0B9DDDF830B00D9CB8
:1025F00087F8008087F8019087F802A0FE703D718F
:102600002200D2B259463800FFF7C4FFBDE8F18F6F
:1026100010B4010000221000C0B204280CD2100037
:10262000C0B2085C4D4B1400E4B21B5D984201D06F
:10263000002002E0521CEEE7012010BC704770B58C
:1026400004002000C0B200281ED12C4800780028C9
:102650000DD1284D25A63200297D782002F02CFCD2
:10266000320095F82C10782002F026FC0CE020A611
:10267000204D3200297D782002F01EFC320095F8B2
:102680002C10782002F018FC70BD00004D000000F6
:102690000100C9B2082924D117490978002906D0B8
:1026A00002290ED008D3042915D00FD318E02C49E5
:1026B000104AC2F8C01218E02A490E4AC2F8C012E5
:1026C00013E029490B4AC2F8C0120EE02749094A13
:1026D000C2F8C01209E02649064AC2F8C01204E056
:1026E00003E01F49034AC2F8C012704720000000EF
:1026F0004E000000C8000020B824002078240020EC
:10270000480400206C0000200C000020FC25002064
:1027100040E200088926002088ED0008C8E900088A
:102720008A2600206C26002048260020C0270900A9
:10273000A42500208B2600207C260020340A0020BF
:10274000BC0400200C26002018E0000878D6000801
:10275000360A0020EC1C00204023002074000020DA
:10276000780000208800002098000020A8000020A9
:10277000B800002080B5A02002F0D2F9AE2002F00F
:10278000CFF9C02002F0CCF9A12002F0C9F9A220B3
:1027900002F0C6F92F2002F0C3F9212002F0C0F99F
:1027A000282002F0D7F9AF2002F0BAF901BD30B409
:1027B000002513E050F8042BD30744BFA9F101030F
:1027C0009A18091F042942F8045BFAD213468C07B1
:1027D00044BF15809B1CC90748BF1D7050F8041BDF
:1027E0000029E7D130BC704701000800C0B20028C2
:1027F00001D1012021E00800C0B2FF2801D10A2048
:102800001BE00800C0B2FE2801D1642015E00800DA
:10281000C0B2FD2802D14FF47A700EE00800C0B2B9
:10282000FC2802D142F2107007E00800C0B2FB2879
:1028300002D1DFF8C00600E0012070472DE9F24F19
:1028400082469346002000210A260027B046B9465A
:10285000009A1588BBF1000F08D5DBF100042D208C
:102860002A0092B20AF802006D1C00E05C462000CB
:10287000002142464B4602F07DFD002901D100288F
:1028800008D0A6FB080106FB091107FB08118046CA
:102890008946ECE7404649460A22002302F06AFDD9
:1028A00006000F00002F01D1002E28D020000021AB
:1028B00032003B0002F05EFD3030290089B20AF898
:1028C00001006D1CA0465FF00009200000213200CD
:1028D0003B0002F04FFDA6FB002306FB013307FB84
:1028E0000033B8EB020079EB03010400300039003B
:1028F0000A22002302F03EFD06000F00D2E70098F6
:1029000005802800C0B2BDE8F28F2DE9FE4F060019
:102910000F0090460020ADF80000002000240021A8
:102920005FF0000BB7F80090B8F1000F02D5D8F1B6
:10293000000500E04546424639003000FFF77EFFC3
:10294000B7F800A0002D4FD09DF80800FFF74CFF0E
:1029500001008D4205D20A2045431BF1010B002DD9
:10296000F7D15846C0B2002821D050460200D2B25A
:10297000324412F8012C2D2A06D00200D2B24B4666
:1029800092B29BB29A4208D130220300DBB2F254D9
:102990001AF1010ABBF1010BE3E70200D2B23244A3
:1029A00012F8012C0300DBB2F254401EDEE70A20CD
:1029B000B1FBF0F450468346002C15D00A20B4FB3E
:1029C000F0F45846C0B2304410F8010C5946C9B270
:1029D0007054BBF1010B002CEED12E205946C9B228
:1029E00070541AF1010AE7E7A7F800A05046C0B2F8
:1029F000BDE8FE8FF0B4049C00252E00B6B2A642BE
:102A00000BD20E88771C0F802F00BFB217FA83F706
:102A1000D75DB6B287556D1CEFE7F0BC704700007C
:102A20002DE9F34F81B02DED028B9FED658A0024D7
:102A300001250026F7EE008A00273800C0B22028C2
:102A400064DA0398F84010F0010004003800C0B2C6
:102A5000172829DA18EE900A01F05AFF82468B46B1
:102A60002000C0B201F046FF804689463800C0B25F
:102A7000D0F117005FF0FF31484301F0C5FD41EC94
:102A8000110B9FED500B01F0D4FD51EC100B4246A1
:102A90004B4602F087FD52465B4602F055FE01F0C0
:102AA000F5FE08EE900A2FE03800C0B21F2824DAA5
:102AB0003000C0B201F01EFF82468B462000C0B23B
:102AC00001F018FF804689463800C0B2173801F07F
:102AD0009BFD41EC110B9FED3B0B01F0AAFD51EC6E
:102AE000100B42464B4602F05DFD52465B4602F03B
:102AF0002BFE02F0E7FE060006E02000C0B201282F
:102B000002D15FF0FF3005007F1C96E7280040B23D
:102B100001F07AFD804689463000C0B27F3801F06E
:102B200073FD41EC110B9FED270B01F082FD51EC81
:102B3000100B42464B4602F035FD8046894618EEA2
:102B4000900A01F0E5FE42464B4602F02BFD01F0F3
:102B50009DFE00EE100A049880ED000ABDEC028B89
:102B6000BDE8F78F70B40300002200240020002588
:102B70002A000E00D2B2F6B2B2421FD22A00D2B25E
:102B80009A5C302A0ADB2A00D2B29A5C3A2A05DA29
:102B90002A00D2B29A5C303A140001E000221400FC
:102BA0002A00D2B2002A03D12200D2B2100003E0E0
:102BB0000A22504350FA84F06D1CD9E770BC70476C
:102BC000000000000000000000000040F8B52DEDFE
:102BD000028B82B004000D000020009000269FEDC3
:102BE0004E8A0027DFED568A69462000FFF718FF5E
:102BF0002800C0B200280AD0FB2836D0FC282BD0F1
:102C0000FD2820D0FE2815D0FF2809D036E09FED02
:102C1000420AB0EE408A9FED4A0AF0EE408A2DE06B
:102C20000A2000EE100AB0EE408A9FED3C0AF0EE5A
:102C3000408A23E09FED3A0AB0EE408A9FED390AC0
:102C4000F0EE408A1AE09FED380AB0EE408A9FED20
:102C5000370AF0EE408A11E09FED350AB0EE408A67
:102C60009FED340AF0EE408A08E09FED330AB0EEA3
:102C7000408A9FED320AF0EE408AFFE79DED000AA0
:102C8000B5EE400AF1EE10FA1BDBB8EE480ADDEDB6
:102C9000000A20EE200AF2EE040A20EE200ABCEE22
:102CA000C00A10EE100A0A22B0FBF2F102FB110179
:102CB000052923D39DED000A30EE280A8DED000A88
:102CC0001CE0B8EE480ADDED000AF1EE600A20EEE5
:102CD000800AF2EE040A20EE200ABCEEC00A10EED2
:102CE000100A0A22B0FBF2F102FB1101052905D3FB
:102CF0009DED000A30EE680A8DED000AB8EE480A34
:102D0000DDED000A20EE200ABDEEC00A10EE100A2A
:102D100002B0BDEC028BF2BD01000000CDCCCC3D79
:102D2000640000000AD7233CE80300006F12833AD6
:102D30001027000017B7D138A0860100ACC527378F
:102D4000000000002DE9F0412DED028B07000E0080
:102D50009FED678A3000C0B200280BD0FB2800F03E
:102D60009E80FC2877D0FD2851D0FE282CD0FF284B
:102D700007D0B7E000EE107AB8EEC00AB0EE408A95
:102D8000B0E00A2097FBF0F000EE100AB8EEC00A9F
:102D90005FF00A0810EE100A01F0BAFD04000D0001
:102DA00097FBF8F008FB1078404601F02DFC524AE2
:102DB000524B02F0F7FB22002B0002F0C5FC01F0A1
:102DC00065FD08EE100A8DE0642097FBF0F000EE40
:102DD000100AB8EEC00A5FF0640810EE100A01F0A5
:102DE00097FD04000D0097FBF8F008FB10784046B3
:102DF00001F00AFC424A434B02F0D4FB22002B00B4
:102E000002F0A2FC01F042FD08EE100A6AE04FF465
:102E10007A7097FBF0F000EE100AB8EEC00A4FF49B
:102E20007A7810EE100A01F073FD04000D0097FB94
:102E3000F8F008FB1078404601F0E6FB324A334BCD
:102E400002F0B0FB22002B0002F07EFC01F01EFD20
:102E500008EE100A46E042F2107097FBF0F000EE28
:102E6000100AB8EEC00A42F2107810EE100A01F013
:102E70004FFD04000D0097FBF8F008FB107840466A
:102E800001F0C2FB224A234B02F08CFB22002B00F4
:102E900002F05AFC01F0FAFC08EE100A22E0154894
:102EA00097FBF0F000EE100AB8EEC00ADFF844809D
:102EB00010EE100A01F02CFD04000D0097FBF8F055
:102EC00008FB1078404601F09FFB134A134B02F0B9
:102ED00069FB22002B0002F037FC01F0D7FC08EE62
:102EE000100AFFE7B0EE480ABDEC028BBDE8F081A6
:102EF00000000000A08601009A9999999999B93F1C
:102F00007B14AE47E17A843FFCA9F1D24D62503F79
:102F10002D431CEBE2361A3FF168E388B5F8E43E36
:102F200010B42DED010A00206A460023042B07D2BD
:102F3000D45C1900C9B2C9008C4020435B1CF5E782
:102F400012BC704701000120704730B587B0040003
:102F50001421002202AD280002F010F8DFF8380B2F
:102F6000D0E90023CDE9002302A80090DFF82C5B14
:102F70002978684600F081FA28786870BDF8041056
:102F8000009800F0C4FCDFF8180B8078001F0128BF
:102F900009D82878022803DA2878401C287001E034
:102FA0000020287001E000202870DFF8AC5C0221CE
:102FB000280001F0AFFF0321280001F0BAFF210033
:102FC000C9B2280001F0B5FF012007B030BD10B52F
:102FD0000400DFF8D01A8888002810D0DFF8C80A6B
:102FE00002888B889A4208D1002101800221DFF8F3
:102FF000680C01F08FFF012008E089880180210022
:10300000C9B2DFF8540C01F094FF012010BD2DE986
:10301000F041040000250026DFF8887AB8880328EC
:103020003DDB3868B988084410F8010C3968BA8863
:10303000114411F8021C51EA00210E00B988891EC2
:10304000386802F05CFC05002800310080B289B2CB
:1030500088421DD10321DFF8000C01F06AFF3868B7
:10306000007806280DD1DFF8348A012198F8010094
:1030700000F01CFA98F80120D7E9000100F006FAE8
:1030800013E00021DFF8140A407800F00FFA0CE09A
:103090000021DFF8080A407800F008FA05E0002176
:1030A000DFF8F809407800F001FADFF8F00940781D
:1030B00000F060F80221DFF8A00B01F04CFF0120C6
:1030C000BDE8F0810100DFF87C0C0278032A01D012
:1030D000042202700120704710B504002100C9B21B
:1030E000DFF8640C01F025FF012010BD10B50400CD
:1030F0002100C9B2DFF8500C01F01BFF012010BD08
:1031000010B50400DFF8F00A02F0DAFD2100C9B2C0
:10311000DFF8340C01F00DFF012010BD38B50400BC
:10312000DFF8D85A287800280ED101220121DFF8D3
:10313000D00AFEF7E4FC0520DFF80C1CC1F888007B
:103140002878401C28700DE000220121DFF8B00A29
:10315000FEF7D5FC4FF4FA70DFF8EC1BC1F88800DD
:10316000002028702100C9B2DFF8DC0B01F0E1FE7D
:10317000012032BD38B52DED028B04009FEDBB8AD6
:103180002000C0B200283ED1DFF85C5C95ED010A5A
:10319000BDEEC00A10EE100A00F09EF885ED010A9F
:1031A00095ED010A00F002F985ED030A95ED020A9A
:1031B00000F062F985ED040A95ED040AD5ED060AE2
:1031C00030EE200A85ED040A95ED030AD5ED050AD7
:1031D00030EE200AB0EE408A9FEDA50AB4EE408A98
:1031E000F1EE10FA02DB9FEDA30A09E0B5EE408A8A
:1031F000F1EE10FA02D59FED9D0A01E0B0EE480A0B
:1032000085ED030AFFE7DFF8E05B2878002807D1A7
:103210000020686095ED010A00F0C8F885ED030A0A
:103220002878002807D10020A86095ED020A00F058
:1032300023F985ED030ABDEC028B31BD2DE9F04188
:1032400000242500EDB20A2D43DA00252E00F6B247
:10325000092E3CDA2E00F6B201EB860676682F00C6
:10326000FFB251F82770BE422FDA00262F00FFB2BE
:1032700051F82770AC465FFA8CFC01EB8C0CDCF843
:1032800004C0AE465FFA8EFE41F82EC0AC465FFA2F
:103290008CFC01EB8C0CCCF80470AC465FFA8CFC17
:1032A00050F82CC0AE465FFA8EFE00EB8E0EDEF8B4
:1032B00004E0A8465FFA88F840F828E0AE465FFAD6
:1032C0008EFE00EB8E0ECEF804C06D1CBEE7641CB3
:1032D000B7E7BDE8F081000038B52DED028B0400A2
:1032E0009FED628ADFF8641A087800282AD101204D
:1032F000087000210800C0B20A2815DA0800C0B220
:10330000DFF8B42B0B00DBB242F82300DFF8402AD1
:103310000800C0B252F82000002803D10800C0B253
:1033200042F82040491CE5E7DFF8245A092300222F
:103330002900DFF8840BFFF781FF95ED050AB8EE51
:10334000C00A30E000200100C9B20A291EDADFF805
:10335000681B0200D2B251F82220092A0BD10022A8
:103360000300DBB241F82320DFF8E4190200D2B2F7
:1033700041F8224008E00200D2B251F82220521C4B
:103380000300DBB241F82320401CDCE7DFF8C05922
:10339000092300222900DFF8200BFFF74FFF95EDEE
:1033A000050AB8EEC00ABDEC028B31BDF0EE400A52
:1033B0009FEDAE1A9FEDAE3ADFED2C3AF5EE400AE6
:1033C000F1EE10FA40D0F0EE603A9FEDAA0ADFF875
:1033D000F00A90ED004A34EE634AB4EE404AF1EE52
:1033E00010FA08DA90ED004A33EEC44AB4EE404ACF
:1033F000F1EE10FA03DB9FED1F0A21EE001ADFF851
:103400002C0A90ED000AF0EE401ADFF8241A91ED34
:10341000000A30EE010AB0EE402A32EE030A82EED4
:10342000000AF0EE402A33EEE10AB0EE614A00EE07
:10343000224A80ED004AB7EE000A30EE620A20EE22
:10344000020A81ED000A08E0DFF8E4095FF07E512E
:103450000160DFF8D80900210160DFF8D009DFF84A
:10346000601A02680A6090ED000A704700000000D0
:1034700001007A4400007A44704738B504000D001A
:103480002900C9B2200000F01BF831BD70B504005E
:103490000D00160020000078C0B2062805D13200C9
:1034A000D2B22000290000F0E7F870BD38B5040062
:1034B0000D002900C9B22000C0B200F058F931BD9A
:1034C0003EB504000D002800C0B2002812D002282A
:1034D00022D018D304283CD027D3062861D04CD35F
:1034E000082800F0868070D30A2800F0AA80C0F077
:1034F0009480BAE0042000900123032206212000DA
:1035000002F01BFAB1E002200090132303220621EF
:10351000200002F012FAA8E00820009024230322E1
:103520000621200002F009FA9FE0DFF8980981885F
:1035300004290DD1016801918088022190FBF1F0EE
:1035400080B20090242310220621200002F043FACA
:103550008BE0DFF87009818804290DD101680191A1
:103560008088022190FBF1F080B200902623102287
:103570000621200002F02FFA77E0DFF84809818861
:1035800004290DD1016801918088022190FBF1F09E
:1035900080B20090282310220621200002F01BFA9E
:1035A00063E0DFF82009818804290DD101680191C9
:1035B0008088022190FBF1F080B200902A23102233
:1035C0000621200002F007FA4FE0DFF8F8088188B2
:1035D00004290DD1016801918088022190FBF1F04E
:1035E00080B20090312310220621200002F0F3F96E
:1035F0003BE0DFF8D008818804290DD101680191F2
:103600008088022190FBF1F080B2009033231022D9
:103610000621200002F0DFF927E0DFF8A808818802
:1036200004290DD1016801918088022190FBF1F0FD
:1036300080B20090352310220621200002F0CBF941
:1036400013E0DFF88008818804290DD10168019119
:103650008088022190FBF1F080B200903723102285
:103660000621200002F0B7F9FFE737BD95BFD6333A
:1036700017B7D138CDCC4C3E2DE9F84F04000D00E2
:1036800016000020ADF8000000273000C0B200286E
:1036900007D0401E21D0401E30D0401E072861D9DF
:1036A00063E00320ADF8000004226946200000F02A
:1036B000FBF88046DFF8109819F104014046FFF747
:1036C000AFF904226946200000F0EEF8070019F176
:1036D00008013800FFF7A4F947E00320ADF8000027
:1036E00004226946200000F0DFF8070000213800BE
:1036F000FFF76CFADFF8D017C86336E00320ADF8A7
:10370000000004226946200000F0CEF88046DFF871
:10371000B8B71BF11C014046FFF782F90422694645
:10372000200000F0C1F8814600214846FFF74EFA1C
:10373000CBF8200004226946200000F0B5F882464C
:103740001BF124015046FFF76BF904226946200063
:1037500000F0AAF8070000213800FFF737FACBF88D
:10376000280002E000F049F8FFE7BDE8F18F020011
:10377000D2B2002A0A2A1BD80A00D2B2012A0ED1DC
:10378000DFF8642600235370012313700200D2B2C5
:10379000002A0CD10122DFF83437DA7007E0DFF8B5
:1037A00048265378032B02DA53785B1C5370FFE7EB
:1037B000DFF834365A78002A1ED05A78032A1BDBE9
:1037C00000221A7000225A6000229A600022DA61F8
:1037D00000221A6200225A6200229A620022DA62F1
:1037E00000221A6300225A6300229A630022DA63DD
:1037F0000022DFF8D836DA70704780B50320DFF892
:10380000441508700421DFF8400501F0A4FB01BD58
:1038100080B5DFF8BC060078A04908700220DFF808
:10382000241508700421DFF8200501F082FB01BD9A
:103830002DE9F04104000D0016002F00DFF884860A
:103840004046FEF7C5F9300080B2022802D00428B5
:103850000BD01DE07878D8F8001008703878D8F8C8
:1038600000104870A8F8046015E07878D8F80010C7
:1038700008703878D8F800104870F878D8F8001038
:103880008870B878D8F80010C870A8F8046002E012
:103890000020A8F80400DFF8380604700120DFF8E3
:1038A00034160870BDE8F081F0B4030000200C88E5
:1038B0001500EDB2042D16D12500ADB21D44AE7831
:1038C0002500ADB21D44ED7855EA06252600B6B2B6
:1038D0009E5D2700BFB21F447F7857EA062757EA4C
:1038E000054738000DE01500EDB2022D09D1250085
:1038F000ADB25D5D2600B6B21E44767856EA052666
:1039000030000D8855FA82F50D80F0BC704770B517
:1039100004000D00BA4E01224FF480513000FEF732
:10392000EEF80A2002F0D4F94FF47A732A0092B22A
:103930002100DFF8A40502F01CFA00224FF48051A8
:103940003000FEF7DCF870BD2DE9F0412DED028B63
:103950008EB0F0EE408AB0EE608A322100226C46D2
:10396000200001F00BFB002700240025DFF87884FD
:10397000C8ED058A88ED068A98ED050AFFF7D0FAAA
:10398000060098ED060AFFF7CBFA8046684631003C
:10399000090E3A00D2B281547F1C3100090C3A0062
:1039A000D2B281547F1C3100090A3A00D2B281544C
:1039B0007F1C3900C9B246547F1C4146090E3A00AB
:1039C000D2B281547F1C4146090C3A00D2B28154D4
:1039D0007F1C4146090A3A00D2B281547F1C39004B
:1039E000C9B200F801807F1C3A00D2B292B2694697
:1039F000DFF8E80403F034FA0EB0BDEC028BBDE84A
:103A0000F08170B500240025DFF8D0040078C0B242
:103A1000FF283AD0DFF8C8040178C9B20906DFF8F8
:103A2000C4040078C0B251EA0041DFF8BC04007859
:103A3000C0B251EA0021DFF8B4040078C0B20143FB
:103A40000C00DFF8AC040178C9B20906DFF8A40461
:103A50000078C0B251EA0041DFF89C040078C0B29F
:103A600051EA0021DFF894040078C0B201430D0050
:103A7000DFF8546416F114012000FEF7D1FF16F1AF
:103A800018012800FEF7CCFF05E0DFF83C04002118
:103A900041610021816170BD58EF0008842600203B
:103AA000FC250020E40900208226002070B50024B7
:103AB0000025DFF850040078C0B2FF283DD0DFF8C1
:103AC0004064DFF8440400783070DFF84004017887
:103AD000C9B20906DFF838040078C0B251EA0041E3
:103AE000DFF830040078C0B251EA0021DFF8280482
:103AF0000078C0B201430C00DFF820040178C9B29D
:103B00000906DFF81C040078C0B251EA0041DFF872
:103B100014040078C0B251EA0021DFF80C040078E8
:103B2000C0B201430D0016F108012000FEF778FF36
:103B3000311D2800FEF774FF09E0DFF8C4030021FF
:103B40000170DFF8E8138160DFF8E413416070BDB5
:103B500078B591B004000D003C21002202AE300087
:103B600001F00CFA0020ADF8040003211A2000F047
:103B70001BFB0B2000900023DFF8B82301A902A84B
:103B8000FEF738FF4FF47A73BDF8042002A9D2483B
:103B900002F0EFF812B070BD78B591B004000D00DE
:103BA0003C21002202AE300001F0E8F90020ADF81F
:103BB0000400CA4803F024F9D24803F021F9D048A0
:103BC00000210170DFF868138160DFF86013416045
:103BD0000D2000900023DFF8602301A902A8FEF762
:103BE00009FF4FF47A73BDF8042002A9BA4802F025
:103BF000C0F812B070BD0000EC2500208F26002018
:103C00000008004838B590B004000D0003A8CB4967
:103C1000322203F069F9CA48D0E90023CDE9012333
:103C200003A801900023C748027802A903A8FEF761
:103C30006CFE0220009000237BA202A903A8FEF7DD
:103C4000D9FE4FF47A73BDF808200199A24802F01A
:103C500090F811B030BD0000F0040020F8B5040069
:103C60000D0000262068007830283ADB20680078B4
:103C70003A2836DA002700200100C9B2A28889B2AA
:103C800091420FD221680200D2B2895C302905DB53
:103C900021680200D2B2895C3A2900DB02E07F1C75
:103CA000401CE9E73900C9B22068FEF75BFF060057
:103CB000B6F5807F0DD2A34841783000C0B200F045
:103CC00073FA4FF47A7302227CA1834802F051F810
:103CD0000EE04FF47A7305229B497F4802F049F8C1
:103CE00006E04FF47A73052297497B4802F041F8C9
:103CF000F1BD38B590B004000D0003A893493222FD
:103D000003F0F2F89248D0E90023CDE9012303A89B
:103D1000019000238B48427802A903A8FEF7F5FD25
:103D200002200090002340A202A903A8FEF762FE31
:103D30004FF47A73BDF808200199674802F019F82A
:103D400011B030BDB824002030050020902600209E
:103D50003C250020F8B504000D00002620680078FE
:103D6000302839DB206800783A2835DA002700202F
:103D70000100C9B2A28889B291420FD22168020023
:103D8000D2B2895C302905DB21680200D2B2895C9D
:103D90003A2900DB02E07F1C401CE9E73900C9B288
:103DA0002068FEF7DFFE06000C2E0DD23100C9B2EE
:103DB0006448007800F0F8F94FF47A7302223FA1CA
:103DC000454801F0D6FF0EE04FF47A7305225E49B4
:103DD000414801F0CEFF06E04FF47A7305225A49BC
:103DE0003D4801F0C6FFF1BD7824002080B5FFF703
:103DF00008FEFFF75BFE57485749C0F8A413574920
:103E0000C0F8B4135649C0F8C4135649C0F8D413C7
:103E10005549C0F8E4135549C0F8F41303F0C7F846
:103E200003F0B6F801BD00000D0A00005C2600207A
:103E3000C805002070B50020002400252800C0B26D
:103E4000092836DA4A4E2800C0B2000130444078D2
:103E500001282CD1012004002800C0B20001304408
:103E6000406800280ED000F007FF2900C9B2090100
:103E700031444968401A2900C9B2090131448968AE
:103E8000884214D300202900C9B209013144487086
:103E900000F0F2FE2900C9B209013144486028004F
:103EA000C0B22900C9B209013144C96888476D1CF4
:103EB000C4E72000C0B270BD142500204F4B0000A5
:103EC00060260020C005002078240020582600200D
:103ED0008E260020B8240020701F00200008020851
:103EE000020802080308020804080208050802087C
:103EF000060802080708020808080208090802085C
:103F00001826002000100208021002080310020800
:103F10000410020805100208061002080710020823
:103F200008100208091002080A100208000048429E
:103F300000001644A0ED0008E4EA0008C0DB000819
:103F400060EF0008340A002050EF00086CE700081A
:103F500068EF0008D4050020513B0008993B000899
:103F6000053C00085D3C0008F33C0008553D000896
:103F70003005002002000020704730B40200DFF856
:103F80001C06002304688588635583885B1C838036
:103F9000DFF80C361B7804688588635583885B1CC2
:103FA0008380012030BC7047F8B504000D0000206C
:103FB00000212E0022683300DBB2D25C2368370078
:103FC000FFB23B445F7857EA02273A0092B2B2F55B
:103FD000807F23DA380080B200281FD0DFF8BC05CC
:103FE00021683200D2B2895C02688388D15481880A
:103FF000491C818021683200D2B21144497802689C
:104000008388D1548188491C8180DFF894054178E8
:104010003800C0B200F0C8F8012000E00020F2BD76
:1040200030B40200DFF87405002304688588635506
:1040300083885B1C8380DFF868355B78046885883B
:10404000635583885B1C8380012030BC7047F8B5C2
:1040500004000D00002000212E0022683300DBB296
:10406000D25C23683700FFB23B445F7857EA0227EF
:104070003A0092B20B2A1FDADFF8200521683200DD
:10408000D2B2895C02688388D1548188491C8180BE
:1040900021683200D2B21144497802688388D15431
:1040A0008188491C81803900C9B2DFF8F4040078A6
:1040B00000F07AF8012000E00020F2BDF8B504001D
:1040C0000D000026DFF8DC0490ED010AFEF728FF62
:1040D0000100DFF8C8040A00120A03688788DA556D
:1040E0008288521C828002688388D1548288521C44
:1040F00082800A00120E03688788DA558288521C73
:1041000082800A00120C03688788DA558288521C64
:1041100082800120F2BDF8B504000D000026DFF812
:10412000840490ED020AFEF7FBFE0100DFF86C0448
:104130000A00120A03688788DA558288521C828036
:1041400002688388D1548288521C82800A00120E31
:1041500003688788DA558288521C82800A00120C14
:1041600003688788DA558288521C82800120F2BD5C
:1041700070B504000D00DFF830640122202130000A
:10418000FDF7BDFC0A2001F0A3FD4FF47A732A006D
:1041900092B22100DFF8140401F0EBFD002220218F
:1041A0003000FDF7ACFC70BD7CB504000D000821AB
:1041B00000226E46300000F0E1FE0026DFF8E0034A
:1041C00004704570694602783300DBB2CA54761C2D
:1041D00040783200D2B28854761C3200D2B292B209
:1041E0006946DFF8CC0302F03BFE73BDDFF8C00385
:1041F0000078C0B2FF280AD0DFF8A403DFF8B413B8
:1042000009780170DFF8B0130978417005E0DFF834
:1042100090031A2101700321417070472DE9F04F7E
:1042200087B0040000275FF000085FF00009002558
:10423000DFF88823D2E90001CDE902010026DFF88A
:104240008023D2E90001CDE90401DFF850A35046F4
:10425000FDF7BEFCA0880828C0F29B812068A188D9
:10426000084410F8010C2168A288114411F8021CBE
:1042700051EA0021ADF81810A188891E206801F0CC
:104280003EFBADF81A00BDF81A00BDF818108842C0
:1042900040F07D8120680078C1490978884240F06B
:1042A0007681206880782168CF7857EA00272068D7
:1042B0004078032805D006286CD0102800F0C38071
:1042C00061E1206800792168497951EA00210D00F7
:1042D0005FF001084046C0B2052836DA5FF01409E5
:1042E000DFF8E0B24046C0B209FB00F05844406835
:1042F000390089B2884225D1280080B24146C9B22E
:1043000009FB01F15944896888421BDB0021002028
:104310004246D2B209FB02F25A44D26890470128C1
:104320000FD14046C0B209FB00F0584480682D1AF6
:104330004046C0B209FB00F90BEB09008068C719C1
:1043400000E002E018F10108C4E7BAF80400002810
:104350001FD0BAF80400022190FBF1F201FB120019
:10436000002816D1DAF800000190BAF80400022102
:1043700090FBF1F080B200903B009BB203222068DA
:10438000017804A801F09BFBBDF814100498FFF716
:10439000EFFEFAE004200100C9B2A288921E914209
:1043A0000EDA21680200D2B2895C029ABDF80C30A4
:1043B000D154BDF80C10491CADF80C10401CEAE7B4
:1043C0005FF001084046C0B2052817DA14227D4B81
:1043D0004046C0B2504318444068390089B2884210
:1043E00009D1002102A8C4465FFA8CFC02FB0CF242
:1043F0001A441269904718F10108E3E7BAF804007B
:1044000000281FD0BAF80400022190FBF1F201FB52
:104410001200002816D1DAF800000190BAF8040062
:10442000022190FBF1F080B200903B009BB206228B
:104430002068017804A801F093FBBDF814100498DB
:10444000FFF796FEA1E000200600206800792168B1
:10445000497951EA00210D0007200100C9B2A28864
:10446000921E91420EDA21680200D2B2895C029A51
:10447000BDF80C30D154BDF80C10491CADF80C102F
:10448000401CEAE7280080B2400021688979884210
:104490004DD1BDF80C002168897989B2884246D196
:1044A0005FF001084046C0B2052840DA5FF0140909
:1044B000DFF810B14046C0B209FB00F05844406834
:1044C000390089B288422FD1280080B24146C9B252
:1044D00009FB01F159448968884225DB310089B222
:1044E00002A84246D2B209FB02F25A44126990472E
:1044F000012818D14046C0B209FB00F0584480683A
:10450000400010FA86F64046C0B209FB00F058445D
:1045100080682D1A4046C0B209FB00F90BEB090078
:104520008068C71900E002E018F10108BAE7BAF89C
:104530000400002826D0BAF80400022190FBF1F212
:1045400001FB120000281DD1206880782168C978FD
:1045500051EA00210F00DAF800000190BAF80400D7
:10456000022190FBF1F080B200903B009BB2102240
:104570002068017804A801F0F3FABDF8141004983B
:10458000FFF7F6FD01E0002004E0012002E000203A
:1045900000E0002007B0BDE8F08F0000E804002034
:1045A000340A00207824002000040048E81E00207F
:1045B00000000208020002080300020840EF0008A1
:1045C00048EF00085804002000F10103810704D0DF
:1045D00010F8011B820781B1FAD10268A2F1013102
:1045E000914311F0803104BF50F8042FF6E709BA67
:1045F000B1FA81F100EBD100401CC01A704702688B
:10460000531C036011707047C11768B14840401ACD
:10461000B0FA80F29040D21CC907C2F5846241EA28
:10462000025202EBD021400570472E0041EC100BE6
:1046300001BD80B553EC112B51EC100B02F0DAFCEC
:10464000F4E70000F0B540F2FF7581EA030C0CF0CE
:10465000004C15EA11541DBF15EA1357AC42AF4286
:10466000E5E0BC41C1F31301C3F31303801A994180
:1046700043F4801304D2641E40004941801859411C
:10468000C90241EA5051B1FBF3F603FB1611A2FB3C
:104690000675D7EBC020A94102D2761E8018594179
:1046A000C90241EA5051B1FBF3FE03FB1E11A2FB0C
:1046B0000E75D7EBC020A94103D2AEF1010E8018D0
:1046C0005941890241EA9051760546EA8E2EB1FBA6
:1046D000F3F603FB1611A2FB0675D7EB8020A94168
:1046E00002D2761E80185941C90241EA50514EEA61
:1046F000060EB1FBF3F603FB1611A2FB0675D7EB12
:10470000C020A94102D2761E80185941C90241EA4F
:104710005051B1FBF3F703FB1711A2FB0735D3EBA5
:10472000C020A94167F100070CBF004247F0010714
:1047300066F3D5274FEA1E31B80814F5806412DD00
:10474000BD0775F1004250EB0E5051EB045111F5CD
:10475000801F5CBF41EA0C01F0BD4CF07F6141F06D
:10476000E0410020F0BDBD076D0840EA0E5041F465
:104770008011D4F10104B4F120060ADAC4F1200654
:104780000200E04001FA06F3E1401843B24015434D
:104790000EE0342C13DCC6F1200445EA40056D0818
:1047A00020FA06F2154321FA06F0A1400D4300213C
:1047B00075F1004250F1000051EB0C01F0BD0020FA
:1047C0005FEA0C01F0BDCFB992185B41B3FA83F7F1
:1047D00004BFB2FA82F6BF190B3FB7F120062FBF14
:1047E00002FA06F3BB40C7F1200622FA06F638BFEC
:1047F0003343BA401CB1E419641E33E77F4231F001
:104800000041B1FA81F404BFB0FA80F6A4190B3C60
:10481000B4F120062FBF00FA06F1A140C4F1200632
:1048200020FA06F638BF3143A0403C1B1AE7AC42E1
:104830001ABF05EA1357AF4212E050EA41061CBF07
:1048400052EA4306BFE750EA4107304661461CBFC3
:1048500041EA0551F0BD52EA430C08BFC143F0BD27
:1048600000204FF4001616EB410F98BF16EB430FD4
:1048700008BF16EB410F24BFC14305E016EB430F01
:104880000CBF61464CEA0551F0BD000001F000424A
:104890008B1AA3F16051B1F5801F0ADBB1F17F6F74
:1048A0001FD242EAC102C10071F1004142EB5070D7
:1048B00070470B15C3F10903212B10D2890241EA7D
:1048C000905180020128494141F0004121FA03F052
:1048D000C3F12003994071F100415041704710002D
:1048E00070476FF0000013EB103F5CBF000E42EA10
:1048F000C0507047014648B1B0FA80F18840C91CE9
:10490000C1F58461090501EBD02140057047000025
:10491000C0F3C75181B1FF2906D0C110400721F073
:10492000E04101F16051704741020CBF40F4E001E9
:104930006FF000410020704700F0004100020AD0F3
:10494000B0FA80FC00FA0CF001F16051A1EB0C51BF
:1049500001EBD021400570470CB430B583B00A4656
:1049600006A90291044600250194009502AB01A915
:10497000084878441E3002F0B3FE019A15700028F2
:104980004EBF04460198041B204603B030BC5DF8BE
:104990000CFB00BF6BFCFFFF80B5012240211F48CC
:1049A000FDF7ADF81E491F4800F0B0F800F01CF804
:1049B000012000F003F800F045F901BD704711B582
:1049C00081B0164C002240212000FDF798F84FF4EA
:1049D0007A73012201A9144803F0E2FE012240216A
:1049E0002000FDF78CF813BD10B50C4C00224021BF
:1049F0002000FDF784F8002280212000FDF77FF8D9
:104A0000012000F013F8012280212000FDF777F843
:104A1000012240212000FDF772F810BD0008004877
:104A20003C260020EC0E00207822002010B5040067
:104A3000200001F04DF910BD70B40400E4B2802CE8
:104A400001DB7F2420001400E4B2802C01DB7F24F2
:104A500022000C00E4B2402C01DB3F2421001C00AA
:104A6000E4B2402C01DB3F2423002B4C05002668D8
:104A70003678EDB2B54201D2256828702568AD7848
:104A80001600F6B2B54201D22568AA700D0026685C
:104A90007678EDB2B54201D2256869702568ED7867
:104AA0001E00F6B2B54201D22468E37070BC7047B4
:104AB00019487F21026811700021026891703F211E
:104AC0000268517000210068C170704712480021CF
:104AD000026811707F210268917000210268517094
:104AE0003F210068C170704770B54FF480640025A5
:104AF0000A4806682A002100300000F03FFA3F23F0
:104B00007F2200210020FFF797FF70BD034A10604D
:104B1000014A116070470000442600204026002012
:104B200010B5040000224FF480714348FCF7E7FF02
:104B30002000C0B2FFF743FF10BD10B504000122F2
:104B40004FF480713C48FCF7DAFF2000C0B2FFF759
:104B500036FF10BD10B504008120FFF7E1FF2000F3
:104B6000C0B2402803DB3F20FFF7DAFF03E020005C
:104B7000C0B2FFF7D5FF10BD10B5040014F00F0050
:104B800050F0B000C0B2FFF7CBFF10BD10B504006D
:104B90002000C0B200F005F82000C0B200F00CF810
:104BA00010BD10B504002000C0B2000950F0100084
:104BB000C0B2FFF7B5FF10BD10B5040014F00F0030
:104BC000FFF7AEFF10BD70B500242000C0B2102862
:104BD0002EDA1A4D286840782100C9B2491CB0EB82
:104BE000C10F23DA2868C0782100C9B2B0EBC10F29
:104BF0001EDB2000C0B2FFF7BFFF28680078FFF778
:104C0000C5FF28680678286880783100C9B28842D4
:104C10000CD30B4801682200D2B28020424352FAE2
:104C200086F0085CFFF789FF761CECE7641CCCE794
:104C3000FFF73EFF70BD000000080048442600203A
:104C40004026002080B5A020FFF76AFFAE20FFF7C6
:104C500067FFC820FFF764FFA220FFF761FF2F2046
:104C6000FFF75EFF2220FFF75BFF3F20FFF772FF99
:104C7000AF20FFF755FF01BD01480068704700BF36
:104C80004C26002070B4039CDFF880522860297104
:104C90006A71AB71EC7100262E7270BC70472DE901
:104CA000F84F04000D00160000275FF00008DFF841
:104CB0005C9299F80500082880F2FC80300099F891
:104CC0000610C0B2884205D399F807003100C9B276
:104CD000884201D22E200600402099F80510491C78
:104CE00090FBF1F02900C9B2814280F2E38099F88B
:104CF000040050FA84F0802880F2DC8099F80530B6
:104D00005B1C99F8050003FB05035B1CDBB299F8FB
:104D100004201219D2B299F80500401C15FB00F1CD
:104D2000C9B22000C0B2FFF787FE0021080099F841
:104D30000420C0B2904280F0BD80002015FB00F03E
:104D40000200D2B2082392FBF3F21700C0B208228D
:104D500090FBF2F302FB13008046FF226C4BD3F86A
:104D600000C03800C0B250FA85FE802000FB0EFE65
:104D70005EFA84FED3F800A03800C0B250FA85FB7A
:104D8000802000FB0BFB5BFA84F01AF800A0D8F13E
:104D9000080B100050FA0BF010EA0A0A0CF80EA0EB
:104DA000D3F800C03800C0B250FA85FE802000FB66
:104DB0000EFE5EFA84F00090D3F800E03800C0B236
:104DC00050FA85FA802000FB0AFA5AFA84F01EF89D
:104DD00000E0D9F800A0B3465FFA8BFB99F8060013
:104DE000BBEB000099F804B00BFB00FB0AEB0B00D7
:104DF0008A465FFA8AFA10F80A0010FA08F050EAB8
:104E00000E00DDF800E00CF80E00D3F800C038000A
:104E1000C0B250FA85FE802000FB0EFE5EFA84F0E0
:104E20008444D3F800E03800C0B250FA85FA8020FC
:104E300000FB0AFA5AFA84F0704490F8800012FAE3
:104E400008F202408CF880201A683800C0B250FA8C
:104E500085FC802000FB0CFC5CFA84F002441B689B
:104E60003800C0B250FA85FC802000FB0CFC5CFAD4
:104E700084F0184490F88030D9F800C0B6465FFA44
:104E80008EFE99F80600BEEB000E99F8040000FBB8
:104E90000EFE0CEB0E008C465FFA8CFC10F80C003A
:104EA000D8F1080C50FA0CF0034382F88030641CEF
:104EB000491C3BE7BDE8F18FF8B507000C00160070
:104EC000124D6879082820DA307800281DD0327811
:104ED0002100C9B23800C0B2FFF7E1FE761C287984
:104EE000401CC719287950FA87F0401C812802DB42
:104EF00000200700641C40206979491C90FBF1F0F8
:104F00002100C9B28142DFDBFFE7F1BD0C260020A2
:104F100040260020020001200B00DBB21B011344DD
:104F2000587000200B00DBB21B01134458600120B5
:104F3000704738B504000D0001202900C9B20901ED
:104F400021444870FFF798FE2900C9B209012144A5
:104F50004860012032BD020000200B00DBB21B01C3
:104F6000134458700120704780B5034803F098FE41
:104F7000FFF729FE01BD000054E4000862F30F2290
:104F800062F31F42401810F0030308D0C91A1FD360
:104F9000DB0748BF00F8012D28BF20F8022D1300C1
:104FA00030B414461546103928BF20E93C00FAD821
:104FB000490728BF20E90C0048BF40F8042D8900AC
:104FC00028BF20F8022D48BF00F8012D30BC7047E3
:104FD000C91818BF00F8012DCB0728BF00F8012D14
:104FE0007047000070B4039CDFF884532860297177
:104FF0006A71AB71EC7101262E7270BC70472DE99D
:10500000F74F04000D00DFF868639DF80800B179E0
:10501000884204D3F0799DF80810884202D22E20ED
:105020008DF80800307A002845D100273800317902
:10503000C0B288423DD231689DF80820B079121A7A
:105040003079424301EB02003900C9B210F80190F7
:10505000002080464046C0B2082828DA3800C0B296
:1050600050FA84F0802805DA4046C0B250FA85F044
:10507000402801DB00205DE1012010FA08F04946DC
:10508000C9B2014208D0012218EB0501C9B2381992
:10509000C0B203F09FFD07E0002218EB0501C9B282
:1050A0003819C0B203F096FD18F10108D2E77F1C51
:1050B000BCE730793EE1307A012840F08E8070798B
:1050C000082190FBF1F201FB1200012806DB707948
:1050D000082190FBF1FB1BF1010B03E07079082123
:1050E00090FBF1FB31795846C0B24143491C8DF821
:1050F000011031689DF80820B079121A9DF801005E
:10510000424301EB020001788DF80010401C019031
:105110005FF0000840469DF80010C0B2884259D2A6
:105120005FF0000948465946C0B2C9B288424ED223
:1051300001994246D2B25846C0B2424301EB020046
:105140004946C9B210F801A0002007003800C0B2DB
:10515000082839DA4046C0B250FA84F0802808DACC
:105160004846C0B2C00050FA85F050FA87F0402897
:1051700001DB0020DEE04846C0B2C00050FA87F0F4
:10518000717988421EDA0121B9405046C0B2084206
:105190000CD001225FFA89F915EBC9017918C9B25F
:1051A00018EB0400C0B203F015FD0BE000225FFA1B
:1051B00089F915EBC9017918C9B218EB0400C0B21E
:1051C00003F008FD7F1CC1E719F10109AAE718F1F6
:1051D00001089FE79DF80000ACE0307A022840F01B
:1051E000A8807079082190FBF1F0401C8DF8000038
:1051F00030799DF8001010FB01F08DF80200316845
:105200009DF80820B079121A9DF80200424301EB84
:105210000200019096F804B000208DF801000021F2
:105220000020002210009DF80030C0B298420CD23D
:105230003079431E9DF801001B1A13FB02F0019BFD
:10524000C0B2185C0100521CECE70800C0B2002894
:105250000BD1BBF1010B5846C0B2002805D09DF818
:105260000100401C8DF80100D9E7002738009DF8A7
:105270000010C0B2884259D25FF00008404659463B
:10528000C0B2C9B288424FD201993A00D2B2307945
:10529000424301EB02004146C9B210F801905FF0B1
:1052A000000A5046C0B208283BDA4046C0B250FA65
:1052B00084F0802808DA3800C0B2C00050FA85F0C7
:1052C00050FA8AF0402801DB002033E03800C0B2F9
:1052D000C00050FA8AF0717988421FDA012111FA70
:1052E0000AF14846C0B208420CD00122FFB215EBC9
:1052F000C7011AEB0101C9B218EB0400C0B203F0F8
:1053000069FC0BE00022FFB215EBC7011AEB0101AB
:10531000C9B218EB0400C0B203F05CFC1AF1010A38
:10532000BFE718F10108A9E77F1C9FE75846C0B204
:1053300000E00020BDE8FE8FF8B504000F00150066
:105340000B484079D0F13F003900C9B288420EDBEA
:10535000287800280BD02A783900C9B22000C0B2C2
:10536000FFF74DFE0600701C04196D1CF0E7F1BD3F
:105370000C260020BBBBE1B1B2F5803F80F07E80FF
:10538000022A1ED98C46B1FBF2F102FB11C31B04A9
:1053900043EA1043B3FBF2FC02FB1C3380B240EA49
:1053A0000343B3FBF2F002FB103240EA0C4000234F
:1053B0007047022A05D98446B0FBF2F002FB10C206
:1053C00070474AB105D100F0010249085FEA300098
:1053D000704700220023704703F076BC0B000200E8
:1053E000002100207047904271EB030CF6D3B3F517
:1053F000803F2FD2F0B5B3FA83F7B1FA81F4A7F169
:105400000F0E3D1B5340CEF1200602FA0EF2F3417F
:105410005340B5F10F0746D80F3C2C444140C4F12E
:105420002006A040F1414140B1FBF3F603FB161109
:10543000A2FB0645001BA94102D2761E80185941E5
:1054400080EA010221FA0EF362FA0EF200215A40BC
:105450003046F0BD30B4B1FBF3FC03FB1C11A2FBE2
:105460000C45001BA94103D2ACF1010C8018594135
:1054700030BC02460B46604600217047B2F1807F87
:1054800065D3F0B5B2FA82F7B1FA81F4C7F10F062D
:105490003D1B22FA06F307F1110EF24120355A4066
:1054A000B5F10F07B8D94140C4F12006A040F14141
:1054B0004140B1FBF3FC03FB1C11A2FB0C45001B9C
:1054C000A94103D2BCF1010C801859410F2F12D30E
:1054D0000F3FC90341EA5041B1FBF3F603FB16113C
:1054E000A2FB0645D4EBC030A94102D2761E80183B
:1054F000594146EACC3C07B34140C7F12006B840C9
:10550000F1414140B1FBF3F603FB1611A2FB064546
:10551000001BA94102D2761E8018594180EA01027F
:1055200021FA0EF3C7F1200462FA0EF20CFA07F02A
:105530005A402CFA04F13043F0BD80EA010221FA0E
:105540000EF3002162FA0EF260465A40F0BD8C461E
:10555000B1FBF2F102FB11C31B0243EA1063B3FB80
:10556000F2FC02FB1C331B024CEA002043EA1063EE
:10557000B3FBF2FC02FB1C331B024CEA002043EAA3
:105580001063B3FBF2FC02FB1C331B024CEA00204D
:1055900043EA1063B3FBF2FC02FB1C324CEA00202E
:1055A00000237047B0B581EA030C0CF0004C40F2C8
:1055B000FF7515EA11541DBF15EA1357AC42AF42EF
:1055C00039E0E41923EA455343F48013C90241F05A
:1055D000004141EA505EC7021100A7FB0202002809
:1055E0004FF00000EEFB01204FF00001E3FB07212C
:1055F00018BF42F00102401800214941E3FB0E01AF
:10560000A4F580640F0302D252004041494154F195
:1056100001046CDD470872F1004250F1000051EBCB
:105620000451A1F580115CBF41EA0C01B0BD4CEA08
:1056300005510020B0BD05EA1357AC4214BFAF427C
:1056400041E050EA410E1CBF52EA430E02E06146BF
:105650000020B0BD24423C441BD15FEA070EF6D0C7
:10566000090302BF01460020AEF1140EB1FA81F722
:10567000AEEB070401FA07FE0C37C7F1200100FA70
:1056800007F7C8404EEA000E23EA455343F480135F
:10569000A2E733F00043B3FA83F704BFB2FA82FE05
:1056A00077440B3FE41BB7F1200E2FBF02FA0EF335
:1056B000BB40C7F1200E22FA0EFE38BF43EA0E03AC
:1056C000BA40641C82E750EA410E14BF52EA430E0E
:1056D0006FF000014FF4001717EB430F8ABF194614
:1056E00017EB410FB5E74CEA05510020B0BDD4F1EE
:1056F0000104B4F120070FDAC4F12007520828BFD3
:1057000042F0010210FA07F501FA07F7E1BF2A4358
:10571000E0403843E1400FE0352C98DCC7F120042D
:1057200052EA400220FA07F218BF42F0010231FAB1
:1057300007F0A1400A43002172F1004250F100003D
:1057400051EB0C01B0BD000070B44FF0004591EA80
:10575000030F43F1C3826B40841A71EB030604D23A
:105760006E40001BB141121973414FF4001C1CEB39
:10577000410F34BF7CEB430683E00C0DA4EB1356C2
:10578000362E00F37C80012E45EAC32341DC43EA38
:10579000525312BFD20292025B08240545EAC1218E
:1057A00041EA5051D2EBC020994125D407D1B0FA3B
:1057B00080F610FA06F162D00020203608E0B1FA37
:1057C00081F6B140C6F1200220FA02F21143B04046
:1057D0004FEAF474B4EB465434F001064FEA740413
:1057E0000AD8D6F50016760D04F00044F04061FAB0
:1057F00006F25040F1404840C00A40EA415021F0D2
:10580000004128BF5FEA500550F1000044EBD12170
:1058100035E0DB0A45EAC121C90AB6F120050EDDF3
:1058200042EA0242120CC5F1200603FA06F6EB40EA
:1058300042EA06056D42984161F100010DE062FA0D
:1058400006F5F240554063FA06FC82EA0C02F3408A
:105850005A406D42904161EB030111F4801F05D164
:10586000641E620502D06D004041494121F480115F
:10587000430875F1004350F1000041EB045170BC46
:1058800070471CEB410F15D223F0004352EA430648
:105890000BD04FEA4C0CBCEB410F04D80C0D661E2C
:1058A000342EB7DDEBE7801A994150EA410608BF74
:1058B0000021E4E708BF1CEB430F28BF6FF0000195
:1058C000DDE70000C1F30A5340F2FE329B1A14DDFB
:1058D000D3F120034FEAE17208DDC90241EA5051D9
:1058E00041F00040D84080185040704703F2E1304A
:1058F00010B1D24382F0004070470020704730B4AE
:1059000003004FF6FF7000248C4213DA1A5D5040FA
:105910000822002A0CD0C50706D580B2400880F4C2
:10592000204090F0010001E080B24008521EF0E7F4
:10593000641CE9E780B230BC70472DE9F8430500EC
:105940000E0017009846089C5FF000092868494639
:1059500089B2465419F101092868494689B2475469
:1059600019F10109404680B2000A29684A4692B2FC
:10597000885419F101092868494689B200F8018064
:1059800019F10109200080B2000A29684A4692B242
:10599000885419F101092868494689B2445419F11B
:1059A0000109494689B22868FFF7A9FF0100286864
:1059B0004A4692B2815419F10109080080B2000AE6
:1059C0002A684B469BB2D05419F10109A5F80490FE
:1059D0000120BDE8F2832DE9F84F06000F00904644
:1059E00099460A9DDDF82CA0002400213068220091
:1059F00092B28754641C3068220092B200F8028090
:105A0000641C484680B2000A326823009BB2D0541E
:105A1000641C3068220092B200F80290641C404678
:105A2000C0B2062802D0102807D01CE0280080B29F
:105A3000012801D0002040E015E0280080B2000AD3
:105A4000326823009BB2D054641C3068220092B2AA
:105A50008554641C2800C0B24000326823009BB209
:105A6000D054641CFFE75FF0000B584680B2290059
:105A700089B2B0EB410F0BDA584680B21AF8000039
:105A80003168220092B28854641C1BF1010BECE7D0
:105A9000210089B23068FFF732FF01003068220030
:105AA00092B28154641C080080B2000A326823005C
:105AB0009BB2D054641CB4800120BDE8F28F2DE964
:105AC000F84F05000E00170098460A9CDDF82C9050
:105AD0005FF0000B002029685A4692B28E541BF1E9
