:020000040800F2
:10000000A82B002051EB0008EDE40008EFE4000805
:10001000F1E40008F3E40008F5E400080000000043
:10002000000000000000000000000000F7E40008ED
:10003000F9E4000800000000FBE40008FDE400080B
:1000400075EE000879EE00087DEE000881EE0008EC
:1000500085EE000889EE00088DEE000891EE00089C
:1000600095EE000899EE00089DEE0008A1EE00084C
:10007000A5EE00084DE50008A9EE000857E50008C8
:10008000ADEE0008B1EE0008B5EE0008B9EE0008CC
:10009000BDEE0008C1EE0008C5EE0008C9EE00087C
:1000A000CDEE0008D1EE0008D5EE0008D9EE00082C
:1000B000DDEE00080000000000000000E1EE000896
:1000C000E5EE0008E9EE0008EDEE0008F1EE0008AC
:1000D000F5EE000861E50008F9EE00086BE50008A0
:1000E000FDEE000875E500080000000000000000BB
:1000F0000000000000000000000000000000000000
:100100000000000001EF00080000000005EF0008FB
:10011000000000000000000009EF00080DEF0008DB
:1001200011EF000815EF000819EF00081DEF000897
:1001300021EF0008000000000000000000000000A7
:1001400025EF000829EF00082DEF000831EF000827
:1001500035EF00087FE5000889E5000839EF000861
:100160003DEF000841EF000845EF000800000000E7
:1001700049EF00084DEF000851EF000800000000B3
:1001800055EF000859EF00085DEF000880B5DFF873
:10019000980A0078012806D0022807D0042808D041
:1001A000082809D00BE000F08AF808E000F048FDCC
:1001B00005E000F0B7FE02E001F028F8FFE701BD1E
:1001C0002DE9F8430024DFF8605A287A002873D11B
:1001D0002021DFF8580A01F0ADFC002801D10126EA
:1001E00000E00026DFF8487A0421380001F0A2FC84
:1001F000002802D15FF0010801E05FF00008022151
:10020000380001F097FC002802D15FF0010901E0FD
:100210005FF000090121380001F08CFC002801D1B9
:10022000012000E0002056EA480656EA890634001C
:1002300054EAC0042000C0B2012805D0022803D02F
:10024000042801D008282DD16868401C68606868BF
:10025000502826D32C7001202872DFF8D8092100FD
:100260000278C9B2914215D1DFF8CC190A68521C44
:100270000A600A68322A04D350226A6032220A6075
:100280000EE00968642902D34E21696008E000216C
:10029000696005E0002169600021DFF89C29116098
:1002A000047009E00020DFF88C19087028206860CD
:1002B0000020DFF8841908602878BDE8F2837FB554
:1002C000DFF87849A078002814D0012837D0022818
:1002D00067D0032800F0C780042800F04A81052871
:1002E00000F07782062800F09F83082800F0218420
:1002F00000F098BCDFF830590020E860DFF8106C9F
:100300000A220021300001F09BFC302030703020A8
:1003100070703020B0703020F070E8680001801CF0
:10032000C0B203900296052001900420009005239E
:1003300000220121A01C02F04AFA00F073BCDFF891
:10034000E808C168491CC160C16804291EDBDFF8E8
:10035000C00B02F057FA012815D1A51C062229006E
:1003600014F1080001F0BAFCF12003900020029083
:100370000A20019007200090072300220221280074
:1003800002F025FA0BE00020A07008E0C068000130
:10039000801C0200D2B20021A01C02F0F5F900F08E
:1003A00041BC2079072806D05CD309282FD018D368
:1003B0000A2842D056E0A51C0622290014F10800A4
:1003C00001F08CFCF1200390002002900D200190A0
:1003D0000C2000900C2300220321280002F0F7F9E2
:1003E00040E0A51C0622290014F1080001F076FC6B
:1003F000F120039000200290142001901120009021
:10040000112300220421280002F0E1F92AE0A51CB2
:100410000622290014F1080001F060FCF12003908D
:10042000002002901E2001901D2000901D2300221C
:100430000621280002F0CBF914E0A51C06222900B1
:1004400014F1080001F04AFC002003900020029003
:100450002120019021200090212300220721280043
:1004600002F0B5F9DEE320790C2802D00D2840D047
:100470007EE0E078002802D001281FD038E0A61CDA
:100480000622310014F1080001F028FCDFF898572B
:10049000F220039015F10C0002900D2001900C2029
:1004A00000900C23E278521CD2B20321300002F0FB
:1004B0008EF9DFF8600A4078E86019E0A51C062292
:1004C000290014F1080001F009FCF020039000203D
:1004D000029024200190242000902423002208214F
:1004E000280002F074F90120DFF8281A0870FFE7ED
:1004F0003EE0E078002802D001281FD038E0A61C9A
:100500000622310014F1080001F0E8FBDFF818576B
:10051000F220039015F10C0002900D2001900D20A7
:1005200000900D23E278521CD2B20321300002F079
:100530004EF9DFF8E0094068E86019E0A51C0622E2
:10054000290014F1080001F0C9FBF02003900020FD
:1005500002902420019024200090242300220821CE
:10056000280002F034F90120DFF8A8190870FFE72D
:1005700058E32079112809D0C0F02A81132800F00F
:1005800096804ED3142800F0DD8021E1E078002829
:1005900002D001281FD043E0A61C0622310014F12E
:1005A000080001F09BFBDFF88056F220039015F164
:1005B0000C00029014200190112000901123E27889
:1005C000521CD2B20421300002F001F9DFF84409D4
:1005D000406AE86024E0A51C0622290014F1080006
:1005E00001F07CFBF0200390002002902420019079
:1005F00024200090242300220821280002F0E7F89C
:10060000DFF81449FE21DFF82006C06802F056FC2E
:1006100084ED000A04222100032003F0FFF9FFE724
:10062000D6E0E078002802D001281FD03EE0A61CCA
:100630000622310014F1080001F050FBDFF8E85504
:10064000F220039015F10C0002901420019011206B
:1006500000901223E278521CD2B20421300002F042
:10066000B6F8DFF8B808006AE8601FE0A51C0622AB
:10067000290014F1080001F031FBF0200390002064
:10068000029024200190242000902423002208219D
:10069000280002F09CF8DFF88818DFF88C05C068A5
:1006A00008600422042003F0B9F9FFE790E0E07845
:1006B000002802D001281FD043E0A61C06223100EA
:1006C00014F1080001F00AFBDFF85C55F2200390FA
:1006D00015F10C00029014200190112000901323BA
:1006E000E278521CD2B20421300002F070F8DFF838
:1006F0002408806AE86024E0A51C0622290014F181
:10070000080001F0EBFAF020039000200290242072
:10071000019024200090242300220821280002F0C8
:1007200056F8DFF8F447FE21DFF8FC04C06802F059
:10073000C5FB84ED000A04222100052003F06EF9B8
:10074000FFE745E0E078002802D001281FD03EE016
:10075000A61C0622310014F1080001F0BFFADFF8F0
:10076000C854F220039015F10C000290142001905F
:10077000112000901423E278521CD2B204213000E0
:1007800002F025F8DFF89407806AE8601FE0A51CF6
:100790000622290014F1080001F0A0FAF0200390CD
:1007A0000020029024200190242000902423002285
:1007B0000821280002F00BF8DFF86417DFF868045E
:1007C000C06808600422062003F028F9FFE7FFE76D
:1007D00028E22079182809D0C0F025811A2800F0D5
:1007E00095804ED31B2800F0DA801CE1E0780028C9
:1007F00002D001281FD043E0A61C0622310014F1CC
:10080000080001F06BFADFF82054F220039015F194
:100810000C0002901B200190182000901823E27811
:10082000521CD2B20521300001F0D1FFDFF8E406FE
:10083000C06AE86024E0A51C0622290014F1080023
:1008400001F04CFAF0200390002002902420019047
:1008500024200090242300220821280001F0B7FF63
:10086000DFF8B446FE21DFF8C003C06802F026FBC3
:1008700084ED000A04222100072003F0CFF8FFE7EF
:10088000D1E0E078002802D001281FD03DE0A61C6E
:100890000622310014F1080001F020FADFF8885335
:1008A000F220039015F10C0002901B2001901820FB
:1008B00000901923E278521CD2B20521300001F0D9
:1008C00086FFDFF85806006BE8601EE0A51C0622D4
:1008D000290014F1080001F001FAF0200390002033
:1008E000029024200190242000902423002208213B
:1008F000280001F06CFFDFF82816CB48C0680860BC
:100900000422082003F08AF8FFE78CE0E078002852
:1009100002D001281ED041E0A61C0622310014F1AD
:10092000080001F0DBF9C04DF220039015F10C0036
:1009300002901B200190182000901A23E278521C8C
:10094000D2B20521300001F042FFDFF8C805006B8C
:10095000E86023E0A51C0622290014F1080001F03C
:10096000BDF9F02003900020029024200190242063
:100970000090242300220821280001F028FFDFF83E
:100980009845FE21A848C06802F098FA84ED000A54
:1009900004222100092003F041F8FFE743E0E0785A
:1009A000002802D001281ED03CE0A61C06223100FF
:1009B00014F1080001F092F99B4DF220039015F11B
:1009C0000C0002901B200190182000901B23E2785D
:1009D000521CD2B20521300001F0F9FEDFF83C05CF
:1009E000806BE8601EE0A51C0622290014F10800B7
:1009F00001F074F9F020039000200290242001906F
:100A000024200090242300220821280001F0DFFE8A
:100A1000DFF80C158448C068086004220A2002F040
:100A2000FDFFFFE7FFE7FDE020791D2802D01E282B
:100A30003FD07DE0E078002802D001281ED037E0CA
:100A4000A61C0622310014F1080001F047F9764D8A
:100A5000F220039015F10C0002901E2001901D2041
:100A600000901D23E278521CD2B20621300001F022
:100A7000AEFEDFF8A004C069E86019E0A51C0622FC
:100A8000290014F1080001F029F9F020039000205A
:100A90000290242001902420009024230022082189
:100AA000280001F094FE0120DFF868140870FFE7C9
:100AB0003EE0E078002802D001281ED037E0A61CD6
:100AC0000622310014F1080001F008F9564DF22019
:100AD000039015F10C0002901E2001901D20009043
:100AE0001E23E278521CD2B20621300001F06FFEC4
:100AF000DFF82004006AE86019E0A51C062229003E
:100B000014F1080001F0EAF8F020039000200290B0
:100B10002420019024200090242300220821280072
:100B200001F055FE0120DFF8EC130870FFE7FFE746
:100B300078E0207A032806D073D305286ED06DD3D1
:100B4000062833D06DE0322001F017FB0320DFF8D8
:100B5000C4130870A07A0C2802D00D2809D024E014
:100B6000DFF8980641783048C068C0B203F018FC3E
:100B70001BE000200100C9B20B290FDADFF8801654
:100B80000200D2B251F82210274AD268914203D112
:100B9000DFF86816487001E0401CEBE7DFF85C0600
:100BA0004178007803F0FCFBFFE73AE0DFF864539C
:100BB00003202870322001F0E0FAA07A1D2802D02C
:100BC0001E2815D029E0287A01F0CAFE00EE100A8E
:100BD000DFF84803D0ED060A134890ED031AB8EE8B
:100BE000C11AB8EE400A81EE000A02F0A6FF14E036
:100BF000687A01F0B5FE00EE100A0B48D0ED030A4A
:100C0000F8EEE00AB8EE400AC0EE800ADFF80C0306
:100C100090ED050A02F091FFFFE702E002F0EEFE20
:100C2000FFE7FFE77FBD0000B8260020000800486E
:100C300000040048902700203427002000270020CF
:100C40001FB5DFF8C045A07800280BD002281BD0C4
:100C500009D3042873D024D3062800F02581C0F0DE
:100C6000C18054E153E1DFF8A802DFF89C15CA689F
:100C7000825C521CCB68C254CA68825C3A2A02DB8E
:100C80003022C968425442E160792179884202D217
:100C90002079401E2071F1220021A01C01F074FD7A
:100CA00035E1E07800280CD160792179884202D2C0
:100CB0002079401E2071F1220021A01C01F064FD6A
:100CC0003CE020790C2802D00D2812D036E0E078E4
:100CD000002802D0012801D00AE009E0DFF8280549
:100CE000C168B1F5807F02DAC168491CC160FFE7C5
:100CF00024E0E078002802D0012801D01EE01DE0A9
:100D000000210800C0B20B2817DADFF8F424DFF85E
:100D1000F8040B00DBB252F82330C468A3420AD1B6
:100D20000B00DBB20A2B06DA0B00DBB202EB83020C
:100D30005268C26001E0491CE3E7FFE7E7E0E078C2
:100D400000280CD160792179884202D22079401E96
:100D50002071F1220021A01C01F016FD41E0207954
:100D6000112806D03DD313281FD010D314282AD021
:100D700037E0E078002802D0012801D006E005E045
:100D8000DFF88404C168491CC160FFE729E0E0780E
:100D9000002802D0012801D006E005E05F48C06BC2
:100DA000DFF86414C860FFE71BE0E078002802D099
:100DB000012801D006E005E0DFF84C04C168491CB9
:100DC000C160FFE70DE0E078002802D0012801D0E3
:100DD00006E005E05148C06BDFF82C14C860FFE75F
:100DE000FFE794E0E07800281BD160792179884200
:100DF00008D22079401E2071F1220021A01C01F0B0
:100E0000C3FC50E0F12003900020029014200190D8
:100E100011200090142300220421A01C01F0D7FC13
:100E200041E02079182806D03DD31A281FD010D3CE
:100E30001B282AD037E0E078002802D0012801D012
:100E400006E005E0DFF8C003C168491CC160FFE7A8
:100E500029E0E078002802D0012801D006E005E072
:100E60002E48C06BDFF8A013C860FFE71BE0E078F6
:100E7000002802D0012801D006E005E0DFF8880351
:100E8000C168491CC160FFE70DE0E078002802D08E
:100E9000012801D006E005E02048C06BDFF86813A8
:100EA000C860FFE7FFE732E0E07800280CD1607906
:100EB0002179884202D22079401E2071F12200213E
:100EC000A01C01F061FC21E020791D2802D01E2821
:100ED0000ED01BE0E078002802D0012801D006E007
:100EE00005E0DFF82403C168491CC160FFE70DE09D
:100EF000E078002802D0012801D006E005E0DFF804
:100F00000803C168491CC160FFE7FFE7FFE71FBD99
:100F1000000000207C00002038270020BC25002095
:100F20003C2700201FB5DFF8DC42A07800280BD05A
:100F300002281BD009D3042870D024D3062800F03F
:100F40002A81C0F0D18057E156E1DFF88008DFF850
:100F5000B812CA68825C521ECB68C254CA68825CEE
:100F6000302A02DA3922C968425445E12079A17950
:100F7000884202D22079401C2071F1220021A01C5D
:100F800001F002FC38E1E07800280CD12079A17949
:100F9000884202D22079401C2071F1220021A01C3D
:100FA00001F0F2FB39E020790C2802D00D2810D096
:100FB00033E0E078002802D0012801D008E007E003
:100FC0009148C168012902DBC168491EC160FFE781
:100FD00023E0E078002802D0012801D01DE01CE0C9
:100FE0000A221000C0B2002816D0854B8649100096
:100FF000C0B253F82000CC68A0420BD11000C0B2A0
:10100000002807D01000C0B203EB800050F8040C99
:10101000C86001E0521EE4E7FFE7EDE0E078002859
:101020001BD12079A17988420ED1F12003900020B4
:1010300002901B2001901820009018230022052107
:10104000A01C01F0C4FB4EE02079401C2071F1226D
:101050000021A01C01F098FB45E02079112806D062
:1010600041D3132821D012D314282ED03BE0E078AE
:10107000002802D0012801D008E007E06248C168DA
:10108000012902DBC168491EC160FFE72BE0E0785F
:10109000002802D0012801D006E005E0DFF8300783
:1010A000C06B5949C860FFE71DE0E078002802D016
:1010B000012801D008E007E05348C168012902DB9C
:1010C000C168491EC160FFE70DE0E078002802D04A
:1010D000012801D006E005E0DFF8F406C06B4A49BC
:1010E000C860FFE7FFE787E0E07800280CD12079AF
:1010F000A179884202D22079401C2071F12200217E
:10110000A01C01F041FB45E02079182806D041D30E
:101110001A2821D012D31B282ED03BE0E0780028DB
:1011200002D0012801D008E007E03748C168012952
:1011300002DBC168491EC160FFE72BE0E0780028B0
:1011400002D0012801D006E005E0DFF88406C06B7C
:101150002D49C860FFE71DE0E078002802D0012893
:1011600001D008E007E02848C168012902DBC16816
:10117000491EC160FFE70DE0E078002802D0012899
:1011800001D006E005E0DFF84806C06B1E49C860E4
:10119000FFE7FFE730E0E07800280CD12079A17963
:1011A000884202D22079401C2071F1220021A01C2B
:1011B00001F0EAFA1FE020791D2802D01E280DD088
:1011C00019E0E078002802D0012801D005E004E011
:1011D0000D48C168491EC160FFE70CE0E0780028B7
:1011E00002D0012801D005E004E00748C168491E8B
:1011F000C160FFE7FFE7FFE71FBD0000100B002005
:10120000A805002000270020B826002038B584B0AB
:10121000DFF8C045A078002811D0022813D00FD3E2
:10122000042800F0868011D3062800F04782C0F021
:101230006481082800F0BA82C0F0B182C3E2C2E241
:101240000020A070BFE20020A070BCE220790C2832
:1012500002D00D2836D06BE0E078002802D00128BB
:1012600016D02EE0A51CF1200390002002900A2049
:10127000019007200090072300220221280001F09E
:10128000A6FA0622290014F1080000F027FD18E054
:10129000A51C0622290014F1080000F01FFDF12012
:1012A0000390DFF8340502900D2001900C2000908F
:1012B0000C23E078421ED2B20321280001F087FA05
:1012C000FFE735E0E078002802D0012816D02EE0B4
:1012D000A51CF1200390002002900A200190072015
:1012E0000090072300220221280001F070FA062254
:1012F000290014F1080000F0F1FC18E0A51C0622FA
:10130000290014F1080000F0E9FCF1200390DFF857
:10131000CC0402900D2001900C2000900D23E07869
:10132000421ED2B20321280001F051FAFFE7FFE785
:1013300049E22079112808D0C0F0DE80132870D04F
:1013400039D3142800F0A380D6E0E078002802D03A
:10135000012816D02EE0A51CF12003900020029059
:101360000A20019007200090082300220221280073
:1013700001F02DFA0622290014F1080000F0AEFC5D
:1013800018E0A51C0622290014F1080000F0A6FCB4
:10139000F1200390DFF848040290142001901120FE
:1013A00000901123E078421ED2B20421280001F0FF
:1013B0000EFAFFE7A0E0E078002802D0012816D05E
:1013C0002EE0A51CF1200390002002900A2001903D
:1013D00007200090082300220221280001F0F7F9DD
:1013E0000622290014F1080000F078FC18E0A51C82
:1013F0000622290014F1080000F070FCF12003908F
:10140000DFF8E003029014200190112000901223D5
:10141000E078421ED2B20421280001F0D8F9FFE79B
:101420006AE0E078002802D0012816D02EE0A51C42
:10143000F1200390002002900A20019007200090E4
:10144000082300220221280001F0C1F90622290008
:1014500014F1080000F042FC18E0A51C0622290047
:1014600014F1080000F03AFCF1200390DFF8780353
:10147000029014200190112000901323E078421E66
:10148000D2B20421280001F0A2F9FFE734E0E078AD
:10149000002802D0012816D02DE0A51CF1200390D1
:1014A000002002900A2001900720009008230022CB
:1014B0000221280001F08BF90622290014F108000E
:1014C00000F00CFC17E0A51C0622290014F108000E
:1014D00000F004FCF1200390C44802901420019015
:1014E000112000901423E078421ED2B2042128007B
:1014F00001F06DF9FFE7FFE765E12079182808D0D2
:10150000C0F0DB801A286ED038D31B2800F0A080F2
:10151000D3E0E078002802D0012816D02DE0A51CE9
:10152000F1200390002002900A20019007200090F3
:10153000082300220221280001F049F9062229008F
:1015400014F1080000F0CAFB17E0A51C06222900D0
:1015500014F1080000F0C2FBF1200390A4480290AF
:101560001B200190182000901823E078421ED2B270
:101570000521280001F02BF9FFE79EE0E078002824
:1015800002D0012816D02DE0A51CF12003900020E8
:1015900002900A20019007200090082300220221D7
:1015A000280001F014F90622290014F1080000F0C7
:1015B00095FB17E0A51C0622290014F1080000F095
:1015C0008DFBF12003908B4802901B200190182086
:1015D00000901923E078421ED2B20521280001F0C4
:1015E000F6F8FFE769E0E078002802D0012816D07D
:1015F0002DE0A51CF1200390002002900A2001900C
:1016000007200090082300220221280001F0DFF8C3
:101610000622290014F1080000F060FB17E0A51C69
:101620000622290014F1080000F058FBF120039075
:10163000714802901B200190182000901A23E07836
:10164000421ED2B20521280001F0C1F8FFE734E0C4
:10165000E078002802D0012816D02DE0A51CF1204A
:101660000390002002900A20019007200090082398
:1016700000220221280001F0AAF80622290014F114
:10168000080000F02BFB17E0A51C0622290014F12E
:10169000080000F023FBF1200390584802901B2023
:1016A0000190182000901B23E078421ED2B2052141
:1016B000280001F08CF8FFE7FFE784E020791D287F
:1016C00002D01E2835D069E0E078002802D0012839
:1016D00016D02DE0A51CF1200390002002900A20D6
:1016E000019007200090092300220221280001F028
:1016F0006EF80622290014F1080000F0EFFA17E056
:10170000A51C0622290014F1080000F0E7FAF120D8
:1017100003903B4802901E2001901D2000901D2345
:10172000E078421ED2B20621280001F050F8FFE70F
:1017300034E0E078002802D0012816D02DE0A51C66
:10174000F1200390002002900A20019007200090D1
:10175000092300220221280001F039F8062229007D
:1017600014F1080000F0BAFA17E0A51C06222900BF
:1017700014F1080000F0B2FAF12003902148029021
:101780001E2001901D2000901E23E078421ED2B240
:101790000621280001F01BF8FFE7FFE713E006220F
:1017A00014F10801A01C00F099FA0CE0164D2878FD
:1017B000022807D0062214F10801A01C00F08EFABE
:1017C00000202870FFE705B030BD000000000020B9
:1017D000BC250020002700207D0000208000002084
:1017E000A0000020DC250020A4000020E42500202B
:1017F000A8000020EC250020AC000020F4250020EB
:10180000980000209C0000207C000020F8B4030019
:1018100000250868E840002800F0D78001260F68FE
:1018200016FA05F007403A00002A00F0CC8008794B
:1018300010F00300012804D0087910F003000228FA
:101840001DD19F685FF0030C2800C0B240001CFA55
:1018500000FC37EA0C07D1F80CC02800C0B24000E9
:101860001CFA00FC5CEA07079F605868AE40B04372
:101870004E68C6F30016AE40304304005C60087941
:1018800010F0030003280ED0DE6803272800C0B242
:1018900040008740BE438F682800C0B240008740A8
:1018A0003E433400DC60087910F00300022818D1B0
:1018B0002800C00803EB8000066A0F2715F0070018
:1018C000C0B280008740BE430F6915F00700C0B268
:1018D000800087403E4334002800C00803EB8000AE
:1018E00004621E6803272800C0B240008740BE4340
:1018F0000F7917F003072800C0B2400087403E432D
:1019000034001C60486810F4403F5CD0954806687D
:1019100056F001060660006810F001000090009883
:10192000914F2800800857F820605FF00F0C15F0E9
:101930000300C0B280001CFA00FC36EA0C06B3F1CA
:10194000904F01D1002414E08848834201D1012442
:101950000FE08748834201D102240AE08548834290
:1019600001D1032405E08448834201D1042400E02E
:10197000072415F00300C0B28000844026432800ED
:10198000800847F820607D4C206890434F68FF0234
:1019900000D5104320607A4E346894434F68BF02EC
:1019A00000D514433460774E306890434F68BF03CE
:1019B00000D510433060744E346894434F68FF0381
:1019C00000D5144334606D1C23E7F1BC70472DE94A
:1019D000F041030000250800E840002800F0A8803E
:1019E000012616FA05F008400200002A00F09E8049
:1019F000DFF874C1280080085CF820000F2715F07C
:101A0000030E5FFA8EFE5FEA8E0E17FA0EFE1EEAD6
:101A100000000400B3F1904F02D15FF0000E19E016
:101A20005248834202D15FF0010E13E050488342D6
:101A300002D15FF0020E0DE04E48834202D15FF00A
:101A4000030E07E04C48834202D15FF0040E01E030
:101A50005FF0070E15F00300C0B280001EFA00FE12
:101A600074452CD14848D0F800E03EEA020EC0F898
:101A700000E04448D0F800E03EEA020EC0F800E082
:101A80003F48D0F800E03EEA020EC0F800E03B48D4
:101A9000D0F800E03EEA020EC0F800E015F00300C6
:101AA000C0B2800017FA00F00400280080085CF83B
:101AB0002000A043AE465FEA9E0E4CF82E005FF079
:101AC000030C1868AE465FFA8EFE5FEA4E0E1CFAF3
:101AD0000EFE5EEA000018602800C00803EB800ECE
:101AE0002800C00803EB8000D0F8208015F0070024
:101AF000C0B28000874038EA0707CEF820709868A7
:101B00002F00FFB27F001CFA07F7B84398605868AF
:101B1000AE4030EA06065E60DE682800C0B24000D3
:101B20001CFA00FC36EA0C0CC3F80CC06D1C52E722
:101B3000BDE8F081020010690B009BB2184201D091
:101B4000012000E00020C0B270471300DBB2002B80
:101B500003D00B009BB2836102E00B009BB2836257
:101B60007047000060100240080001400004004877
:101B700000080048000C004800100048080401401C
:101B80000C040140040401400004014038B5040085
:101B90000D00DFF8FC010168200000F006F8A84203
:101BA00001D3012000E0002032BD814204D25FF069
:101BB000FF32101A081800E0081A704738B52DEDEA
:101BC000048B08EE100A0C001500DFED438A280094
:101BD000C0B2FB2810DBB8EEC89A2800C0B2404261
:101BE000C0B200F08BF829EE009A00212000B0EE80
:101BF000490A00F0B1F80EE0B8EEC89A2800C0B269
:101C000000F07CF889EE009A2900C9B22000B0EEFD
:101C1000490A00F0A1F8BDEC048B31BD10B40021DD
:101C20000A00838892B29A4206D2002203680C000E
:101C3000A4B21A55491CF3E70022828010BC7047F9
:101C400010B4040013005A1E9BB2002B02D0217066
:101C5000641CF7E710BC704770B504000D00160057
:101C6000DFF8240100782100C9B2884209D3DFF8E7
:101C700024211068002804D0310089B2280012689D
:101C8000904770BD38B504000D00280002F098FDA3
:101C9000020092B229002000C0B2FFF7DDFF31BD83
:101CA00070B504000D00280002F08AFD020092B217
:101CB00029002000C0B2FFF7CFFFDFF8DC603068FA
:101CC000002807D0280002F07BFD010089B228001F
:101CD0003268904770BD00000000000030B404007E
:101CE0000D0013005A1E9BB2002B04D02B782370DA
:101CF0006D1C641CF5E730BC7047000010B5040093
:101D00002000C0B2FB2816DB2000C0B2D0F58070E6
:101D100002F08EFD41EC110B9FED200B02F0A1FDB6
:101D200053EC102B0020194902F0A4FD02F0C6FE6E
:101D300000EE100A0FE02000C0B202F0F3FE41EC0A
:101D4000110B9FED160B02F08CFD51EC100B02F005
:101D5000B5FE00EE100A10BD38B52DED028B82B035
:101D6000B0EE408A04000D0018EE100A02F0E8FE02
:101D7000CDE900012A000B49200002F005FF02B066
:101D8000BDEC028B31BD0000140B00200000F03FC1
:101D9000742700207C270020782700200000000006
:101DA0000000244060EE000838B500224FF40071B6
:101DB000DFF8240BFFF7C9FE00224FF400715FF03B
:101DC0009040FFF7C2FE02F0FFFEDFF8100BDFF8D5
:101DD000101B4A1CC0F828210A1DC0F8402111F12F
:101DE000140202620A7A80F8252011F11802826337
:101DF0004A7A80F83D2011F10C03C0F870310A7A5C
:101E000080F87521DFF8E02A12F13C04C0F888411F
:101E100011F12405C0F8A0510D7A80F8A55112F1F6
:101E20002005C0F8B85111F12805C0F8D0510D7A3D
:101E300080F8D55112F12805C0F8E851C0F81832E1
:101E40000B7A80F81D32C0F8304211F12C03C0F833
:101E500048320B7A80F84D3212F13003C0F860320C
:101E600011F13003C0F878320B7A80F87D323832C5
:101E7000C0F8902211F11C02C0F8C0220A7A80F842
:101E8000C52211F12002C0F8D822497A80F8DD126B
:101E9000DFF85C1A0968C0F82013DFF8581A0968DF
:101EA000C0F8501331BD38B5002000242000C0B266
:101EB000072835DADFF8405A2000C0B20001284474
:101EC000407801282AD12000C0B20001284440688F
:101ED00000280ED002F0C8FE2100C9B20901294431
:101EE0004968401A2100C9B2090129448968884219
:101EF00014D300202100C9B209012944487002F01E
:101F0000B3FE2100C9B20901294448602000C0B2D3
:101F10002100C9B209012944C9688847641CC5E782
:101F2000002032BD38B50400DFF8D05968780028A9
:101F30001FD100224FF40071DFF89C09FFF705FE66
:101F400000224FF400715FF09040FFF7FEFD02F0B9
:101F50003BFE89200090202307220521DFF8A009FD
:101F600002F088FE012068700221DFF88C0902F07F
:101F7000C9FF012032BD7CB50400DFF888592878FC
:101F8000002803D0022823D003D33DE002F0E4FF71
:101F90003AE003F043F8892000902023072205212E
:101FA000DFF85C0902F066FEDFF85C2903212C20D3
:101FB00002F07AFFDFF854290421082002F074FFB0
:101FC00003F09BF841F28830DFF82C1988611BE0A0
:101FD0000120DFF82819487089200090202307226B
:101FE0000521DFF81C0902F045FEDFF80C6902212B
:101FF000300002F087FF0321300002F083FF04214C
:10200000300002F07FFFFFE72878401C2870210095
:10201000C9B2DFF8E40802F084FF012076BD70B594
:10202000040000F0BCF8DFF8D4586878012803D128
:10203000A87800F080FB04E00021DFF8BC0802F083
:1020400061FFDFF8CC08A9780278914207D0A9781F
:102050000170DFF8C0080068DFF8BC180860A878D5
:10206000092812D1DFF8B0684FF4FA613068FFF741
:102070008DFD012809D1DFF89C0800683060062238
:1020800015F10801A81CFFF729FE2100C9B2DFF8ED
:10209000680802F046FF012070BD10B50400DFF8AB
:1020A0007C18DFF87C080069FFF770FD012827D154
:1020B000DFF870080178012905D1002101700020A6
:1020C000DFF838188870DFF860080188491C018043
:1020D00042F21071DFF820282300DBB21B011A4402
:1020E0009268B1FBF2F102888A420DD3002101808F
:1020F000DFF808188878002806D00020887003E0F0
:102100000120DFF8201808702100C9B2DFF8E807C5
:1021100002F007FF012010BD38B50400FEF750F8AB
:10212000DFF8FC57287A012808D10521DFF8C80715
:1021300002F0E8FEDFF8DC07006828612100C9B280
:10214000DFF8B40702F0EDFE012032BD10B5040047
:10215000FEF71CF8DFF8C8070021017000210172AA
:10216000012010BD10B5040000224FF40051DFF82B
:102170006807FFF7EAFC012010BD10B5040001223A
:102180004FF40051DFF85007FFF7DFFCDFF8680776
:10219000210089B28166062102F0C3FE10BD38B568
:1021A000DFF83C47DFF8840701786170DFF88017BB
:1021B000407851F820006060207A00F0D1FB00EEFA
:1021C000100ADFF82457B8EE400AD5ED010A20EED8
:1021D000200ABDEEC00A84ED030A607A00F0C0FB5D
:1021E00000EE100AB8EE400AD5ED020A20EE200AF1
:1021F000BDEEC00A84ED040A207A00F0B1FB00EEC7
:10220000100AB8EE400AD5ED030A20EE200ABDEE12
:10221000C00A84ED050A607A00F0A2FB00EE100A05
:10222000B8EE400AD5ED040A20EE200ABDEEC00A41
:1022300084ED060A207A00F093FB00EE100AB8EE57
:10224000400AD5ED050A20EE200ABDEEC00A84ED55
:10225000070A607A00F084FB00EE100AB8EE400A2C
:10226000D5ED060A20EE200ABDEEC00A84ED080A6C
:10227000207A00F075FB00EE100AB8EE400AD5EDAA
:10228000070A20EE200ABDEEC00A84ED090A207A72
:1022900000F066FB00EE100AB8EE400AD5ED090A20
:1022A00020EE200ABDEEC00A84ED0A0A207A00F072
:1022B00057FB00EE100AB8EE400AD5ED0B0A20EEEF
:1022C000200ABDEEC00A84ED0B0A207A00F048FB1C
:1022D00000EE100AB8EE400AD5ED0D0A20EE200AF5
:1022E000BDEEC00A84ED0C0A31BD2DE9F84F8AB06D
:1022F00006002021002202AC200002F057FF00243B
:10230000002500208DF8050000208DF80600182714
:10231000DFF8C8853000C0B27843404490F815908B
:102320003000C0B2784340444068002842D00121C8
:102330003000C0B200F0A9F900280ED13000C0B2C0
:102340007843404442683000C0B278434044017D45
:102350004846C0B202F0A8FD1EE05FF0000A30005F
:10236000C0B278434044406802F02AFA5146C9B2EC
:10237000814207D2202002A95246D2B288541AF1D3
:10238000010AECE702AA3000C0B278434044017D64
:102390004846C0B202F088FD3000C0B278434044E5
:1023A000406802F00DFADFF88C150979491C4843A2
:1023B00010FA89F93000C0B27843404480680028A0
:1023C00000F03A813000C0B278434044007B0028DE
:1023D0000BD002281ED012D3042830D024D30628D4
:1023E00045D036D307283ED044E03000C0B2784311
:1023F000404480680078002104000D003AE030007D
:10240000C0B278434044806890F90000C1170400CE
:102410000D002FE03000C0B278434044806800884F
:10242000002104000D0025E03000C0B27843404494
:102430008068B0F90000C11704000D001AE03000F8
:10244000C0B27843404480680068002104000D0059
:1024500010E03000C0B27843404480680068C11783
:1024600004000D0006E001208DF8050002E00220C6
:102470008DF805009DF8050000280CD13000C0B291
:1024800078434044407B40420200D2B202A920007F
:10249000FFF794FB26E09DF8050001281AD13000D3
:1024A000C0B278434044806802F08AF9202819D2EB
:1024B0003000C0B278434044806802F081F90200E5
:1024C00092B23000C0B278434044816802A8FFF75E
:1024D00005FC07E03000C0B27843404480680078D3
:1024E0008DF8080002213000C0B200F0CEF80128BB
:1024F00023D13000C0B278434044807DC0B200098F
:102500008DF806009DF806000F2805D0202002A9AE
:102510009DF80620885410E05FF0000A02A802F03F
:102520004FF95146C9B2814207D2202002A9524632
:10253000D2B288541AF1010AF0E73000C0B2012883
:102540005ED15FF0000A00208DF804003000C0B2B8
:1025500078434044407B002802D009208DF80400D5
:10256000392000902E2315220F21DFF8CC0302F032
:1025700051FE02A802F024F98346DFF8B80300797F
:10258000401C00FB0BFB5846C0B2022190FBF1F04F
:102590001F280BDA5846C0B2022190FBF1F0D0F1AF
:1025A00040009DF8041050FA81FA07E05846C0B286
:1025B000D0F15F009DF8041050FA81FA02AA3000B1
:1025C000C0B278434044007D401CC0B2DFF86413C1
:1025D0004979D1EBC001491EC9B25046C0B202F0E0
:1025E000C3FF5AFA8BF09DF80490B0EB09098920DB
:1025F0000090202307220521C14802F03BFB1BE08D
:1026000089200090202307220521BD4802F032FBDB
:1026100002AA3000C0B278434044017D4846C0B2AF
:1026200002F042FC02A802F0CBF8C2490979491C29
:10263000484310FA89F081463000C0B278434044E4
:10264000006900281ED03000C0B278434044806842
:10265000002817D03000C0B2784340448068B749A2
:1026600088420FD03000C0B2784340440269300045
:10267000C0B207FB00F708EB0700017D4846C0B277
:1026800002F012FC0BB0BDE8F08FF8B504000D00AD
:1026900092492200D2B21820424301EB0200817D10
:1026A0002800C0B201402800C0B281422FD1982634
:1026B000A34F4FF496712800C0B2704338442200F3
:1026C000D2B250F82200FFF761FA01282AD128007F
:1026D000C0B206FB00F607EB06002100C9B28D4A26
:1026E000126840F82120262096492A00D2B242439F
:1026F0000A442300DBB22E00F6B200FB06F00844C9
:102700002100C9B2405CD0F10100D0540AE08D49EB
:102710002A00D2B22620424301EB02002100C9B2B6
:10272000002242548749EDB22620454301EB0500C3
:10273000E4B2005DF2BD70B50400002602F06EFC4C
:1027400000F077F82000C0B200F07DF82000C0B2A1
:1027500000F093F80025280080B2262811DA5F499E
:102760002A0092B21820424301EB0200C07D2100F2
:10277000C9B2884203D12800C0B2FFF7B6FD6D1C74
:10278000E9E702F0BAFC70BDF0B44271C478037995
:102790002500EDB2AB420AD3F025504E2700FFB220
:1027A00018235F4306EB07039D75641CEFE71823AE
:1027B0004A4C85785D4325444679AE75002904D09E
:1027C000857803FB05F323449960F0BC70472DE93D
:1027D000F84F0700884691469A460A9E0B9DDDF801
:1027E00030B00D9C87F8008087F8019087F802A030
:1027F000FE703D712200D2B259463800FFF7C4FF87
:10280000BDE8F18F10B4010000221000C0B204280E
:102810000CD21000C0B2085C4B4B1400E4B21B5D3C
:10282000984201D0002002E0521CEEE7012010BCCB
:10283000704780B50120009008237F2208210020E6
:1028400002F016FF01BD10B504002000C0B2002840
:1028500012D125480078002807D122A21F4890F8FD
:102860004410782002F020FB06E020A21B4890F8DC
:102870004410782002F018FB10BD0100C9B20829ED
:1028800024D117490978002906D002290ED008D38F
:10289000042915D00FD318E02C49104AC2F8681348
:1028A00018E02B490D4AC2F8681313E029490B4A76
:1028B000C2F868130EE02849084AC2F8681309E014
:1028C0002649064AC2F8681304E003E01F49034A98
:1028D000C2F8681370470000000800480C0100208F
:1028E0007C00002020000000BC2500204E000000DD
:1028F00034050020B00000200C000020002700203C
:10290000D8E200089127002018EC000854E80008DD
:1029100092270020742700204C270020C0270900A0
:10292000B82600209327002084270020100B0020C9
:10293000A805002010270020B0E00008120B00209E
:10294000C81D0020A8230020B8000020BC000020E3
:10295000CC000020DC000020EC000020FC00002067
:1029600001000800C0B2002801D1012021E00800C8
:10297000C0B2FF2801D10A201BE00800C0B2FE2827
:1029800001D1642015E00800C0B2FD2802D14FF447
:102990007A700EE00800C0B2FC2802D142F210703A
:1029A00007E00800C0B2FB2802D1DFF8C00600E053
:1029B000012070472DE9F24F824693460020002106
:1029C0000A260027B046B946009A1588BBF1000FC9
:1029D00008D5DBF100042D202A0092B20AF802008B
:1029E0006D1C00E05C462000002142464B4602F090
:1029F000D9FE002901D1002808D0A6FB080106FB5A
:102A0000091107FB081180468946ECE74046494614
:102A10000A22002302F0C6FE06000F00002F01D19B
:102A2000002E28D02000002132003B0002F0BAFE28
:102A30003030290089B20AF801006D1CA0465FF011
:102A400000092000002132003B0002F0ABFEA6FB93
:102A5000002306FB013307FB0033B8EB020079EBE0
:102A600003010400300039000A22002302F09AFE1C
:102A700006000F00D2E7009805802800C0B2BDE82C
:102A8000F28F2DE9FE4F06000F0090460020ADF8B2
:102A900000000020002400215FF0000BB7F8009038
:102AA000B8F1000F02D5D8F1000500E045464246D6
:102AB00039003000FFF77EFFB7F800A0002D4FD09F
:102AC0009DF80800FFF74CFF01008D4205D20A2057
:102AD00045431BF1010B002DF7D15846C0B2002829
:102AE00021D050460200D2B2324412F8012C2D2AD5
:102AF00006D00200D2B24B4692B29BB29A4208D1A3
:102B000030220300DBB2F2541AF1010ABBF1010BCF
:102B1000E3E70200D2B2324412F8012C0300DBB228
:102B2000F254401EDEE70A20B1FBF0F45046834623
:102B3000002C15D00A20B4FBF0F45846C0B2304443
:102B400010F8010C5946C9B27054BBF1010B002CAE
:102B5000EED12E205946C9B270541AF1010AE7E7A6
:102B6000A7F800A05046C0B2BDE8FE8FF0B4049CA8
:102B700000252E00B6B2A6420BD20E88771C0F801D
:102B80002F00BFB217FA83F7D75DB6B287556D1C19
:102B9000EFE7F0BC704700002DE9F34F81B02DED59
:102BA000028B9FED658A002401250026F7EE008A3E
:102BB00000273800C0B2202864DA0398F84010F0EB
:102BC000010004003800C0B2172829DA18EE900A74
:102BD00001F0B6FF82468B462000C0B201F0A2FF92
:102BE000804689463800C0B2D0F117005FF0FF314F
:102BF000484301F01DFE41EC110B9FED500B01F01D
:102C000030FE51EC100B42464B4602F0E3FE5246BA
:102C10005B4602F0B1FF01F051FF08EE900A2FE091
:102C20003800C0B21F2824DA3000C0B201F07AFFA9
:102C300082468B462000C0B201F074FF8046894670
:102C40003800C0B2173801F0F3FD41EC110B9FEDD5
:102C50003B0B01F006FE51EC100B42464B4602F0D6
:102C6000B9FE52465B4602F087FF03F043F80600C8
:102C700006E02000C0B2012802D15FF0FF3005005D
:102C80007F1C96E7280040B201F0D2FD80468946BD
:102C90003000C0B27F3801F0CBFD41EC110B9FED4D
:102CA000270B01F0DEFD51EC100B42464B4602F0C3
:102CB00091FE8046894618EE900A01F041FF424697
:102CC0004B4602F087FE01F0F9FE00EE100A049870
:102CD00080ED000ABDEC028BBDE8F78F70B40300F5
:102CE00000220024002000252A000E00D2B2F6B2F5
:102CF000B2421FD22A00D2B29A5C302A0ADB2A00E2
:102D0000D2B29A5C3A2A05DA2A00D2B29A5C303AF8
:102D1000140001E0002214002A00D2B2002A03D1DC
:102D20002200D2B2100003E00A22504350FA84F08D
:102D30006D1CD9E770BC7047000000000000000067
:102D400000000040F8B52DED028B82B004000D00AC
:102D50000020009000269FED4E8A0027DFED568A66
:102D600069462000FFF718FF2800C0B200280AD0EB
:102D7000FB2836D0FC282BD0FD2820D0FE2815D0EB
:102D8000FF2809D036E09FED420AB0EE408A9FED61
:102D90004A0AF0EE408A2DE00A2000EE100AB0EE5A
:102DA000408A9FED3C0AF0EE408A23E09FED3A0A0C
:102DB000B0EE408A9FED390AF0EE408A1AE09FEDAE
:102DC000380AB0EE408A9FED370AF0EE408A11E0F3
:102DD0009FED350AB0EE408A9FED340AF0EE408A4E
:102DE00008E09FED330AB0EE408A9FED320AF0EE24
:102DF000408AFFE79DED000AB5EE400AF1EE10FAB9
:102E00001BDBB8EE480ADDED000A20EE200AF2EEE8
:102E1000040A20EE200ABCEEC00A10EE100A0A22B4
:102E2000B0FBF2F102FB1101052923D39DED000A4D
:102E300030EE280A8DED000A1CE0B8EE480ADDED00
:102E4000000AF1EE600A20EE800AF2EE040A20EE9B
:102E5000200ABCEEC00A10EE100A0A22B0FBF2F102
:102E600002FB1101052905D39DED000A30EE680A29
:102E70008DED000AB8EE480ADDED000A20EE200ACA
:102E8000BDEEC00A10EE100A02B0BDEC028BF2BD1E
:102E900001000000CDCCCC3D640000000AD7233CEB
:102EA000E80300006F12833A1027000017B7D138EB
:102EB000A0860100ACC52737000000002DE9F041D5
:102EC0002DED028B07000E009FED678A3000C0B227
:102ED00000280BD0FB2800F09E80FC2877D0FD282E
:102EE00051D0FE282CD0FF2807D0B7E000EE107A92
:102EF000B8EEC00AB0EE408AB0E00A2097FBF0F0CE
:102F000000EE100AB8EEC00A5FF00A0810EE100AD0
:102F100001F016FE04000D0097FBF8F008FB107896
:102F2000404601F085FC524A524B02F053FD22000C
:102F30002B0002F021FE01F0C1FD08EE100A8DE029
:102F4000642097FBF0F000EE100AB8EEC00A5FF0C4
:102F5000640810EE100A01F0F3FD04000D0097FB69
:102F6000F8F008FB1078404601F062FC424A434BFF
:102F700002F030FD22002B0002F0FEFD01F09EFD6C
:102F800008EE100A6AE04FF47A7097FBF0F000EE5A
:102F9000100AB8EEC00A4FF47A7810EE100A01F069
:102FA000CFFD04000D0097FBF8F008FB10784046B9
:102FB00001F03EFC324A334B02F00CFD22002B00A4
:102FC00002F0DAFD01F07AFD08EE100A46E042F266
:102FD000107097FBF0F000EE100AB8EEC00A42F253
:102FE000107810EE100A01F0ABFD04000D0097FB05
:102FF000F8F008FB1078404601F01AFC224A234BF7
:1030000002F0E8FC22002B0002F0B6FD01F056FDB4
:1030100008EE100A22E0154897FBF0F000EE100AC7
:10302000B8EEC00ADFF8448010EE100A01F088FD07
:1030300004000D0097FBF8F008FB1078404601F003
:10304000F7FB134A134B02F0C5FC22002B0002F0E1
:1030500093FD01F033FD08EE100AFFE7B0EE480AD9
:10306000BDEC028BBDE8F08100000000A0860100ED
:103070009A9999999999B93F7B14AE47E17A843F1F
:10308000FCA9F1D24D62503F2D431CEBE2361A3FB2
:10309000F168E388B5F8E43E10B42DED010A002094
:1030A0006A460023042B07D2D45C1900C9B2C900B8
:1030B0008C4020435B1CF5E712BC704710B5040040
:1030C0000121DFF8CC0C01F02CFF012010BD30B540
:1030D00087B004001421002202AD280002F066F837
:1030E000DFF8A80BD0E90023CDE9002302A8009067
:1030F000DFF89C5B2978684600F091FA28786870C0
:10310000BDF80410009800F0F8FCDFF8880B807818
:10311000001F012809D82878022803DA2878401CE3
:10312000287001E00020287001E000202870DFF8FE
:10313000605C0221280001F0E5FE0321280001F077
:10314000F0FE2100C9B2280001F0EBFE012007B01B
:1031500030BD10B50400DFF8401B8888002810D06F
:10316000DFF8380B02888B889A4208D10021018051
:103170000221DFF81C0C01F0C5FE012008E089885F
:1031800001802100C9B2DFF8080C01F0CAFE01205D
:1031900010BD2DE9F041040000250026DFF8F87A83
:1031A000B88803283DDB3868B988084410F8010C5A
:1031B0003968BA88114411F8021C51EA00210E0046
:1031C000B988891E386802F0B2FD05002800310078
:1031D00080B289B288421DD10721DFF8B40B01F01B
:1031E000A0FE3868007801280DD1DFF8A48A0121FB
:1031F00098F8010000F02CFA98F80120D7E90001B6
:1032000000F016FA13E00021DFF8840A407800F09D
:103210001FFA0CE00021DFF8780A407800F018FA75
:1032200005E00021DFF8680A407800F011FADFF8C5
:10323000600A407800F068F80221DFF8540B01F0D2
:1032400082FE0120BDE8F0810100DFF8980C0278D1
:10325000032A01D0042202700120704710B5040037
:103260002100C9B2DFF8280B01F05BFE012010BD80
:1032700010B504002100C9B2DFF8140B01F051FEB3
:10328000012010BD38B50400DFF8081B08780028BD
:103290001FD101200870DFF8005B012210212800F7
:1032A000FEF753FC002208212800FEF74EFC002206
:1032B0000421DFF8440BFEF748FC4FF4FA60DFF816
:1032C000D01A886702F016FF03F0BFF803F0AEF8DB
:1032D00012E00020087001220821DFF8BC0AFEF786
:1032E00034FC01220421DFF8100BFEF72EFC4EF611
:1032F0006020DFF89C1A88672100C9B2DFF8900AC5
:1033000001F00FFE012032BD38B52DED028B040017
:103310009FED8F8A2000C0B2002842D1DFF81C5CEC
:1033200095ED010ADFEDBB0A20EE200ABDEEC00AD2
:1033300010EE100A00F09EF885ED010A95ED010AE5
:1033400000F008F985ED030A95ED020A00F066F930
:1033500085ED040A95ED040AD5ED060A30EE200A43
:1033600085ED040A95ED030AD5ED050A30EE200A35
:10337000B0EE408A9FEDA80AB4EE408AF1EE10FA52
:1033800002DBB2EE040A09E0B5EE408AF1EE10FA73
:1033900002D59FED6F0A01E0B0EE480A85ED030A01
:1033A000FFE7DFF8985B2878002807D100206860E5
:1033B00095ED010A00F0CEF885ED030A2878002883
:1033C00007D10020A86095ED020A00F027F985EDED
:1033D000040ABDEC028B31BD2DE9F041002425002B
:1033E000EDB20A2D43DA00252E00F6B2092E3CDAA2
:1033F0002E00F6B201EB860676682F00FFB251F878
:103400002770BE422FDA00262F00FFB251F8277036
:10341000AC465FFA8CFC01EB8C0CDCF804C0AE46C9
:103420005FFA8EFE41F82EC0AC465FFA8CFC01EBD1
:103430008C0CCCF80470AC465FFA8CFC50F82CC0B5
:10344000AE465FFA8EFE00EB8E0EDEF804E0A84674
:103450005FFA88F840F828E0AE465FFA8EFE00EB8F
:103460008E0ECEF804C06D1CBEE7641CB7E7BDE845
:10347000F081000038B52DED028B04009FED348AF9
:10348000DFF8BC1A087800282AD101200870002132
:103490000800C0B20A2815DA0800C0B2DFF8A42A72
:1034A0000B00DBB242F82300DFF89C2A0800C0B210
:1034B00052F82000002803D10800C0B242F8204092
:1034C000491CE5E7DFF8805A092300222900DFF8CC
:1034D000740AFFF781FF95ED050AB8EEC00A30E0E7
:1034E00000200100C9B20A291EDADFF8581A0200CA
:1034F000D2B251F82220092A0BD100220300DBB2FC
:1035000041F82320DFF8401A0200D2B241F82240ED
:1035100008E00200D2B251F82220521C0300DBB2B4
:1035200041F82320401CDCE7DFF81C5A0923002265
:103530002900DFF8100AFFF74FFF95ED050AB8EEF6
:10354000C00ADFED340A80EE200ABDEC028B31BDEB
:1035500000000000F0EE400A9FEDAD1A9FEDAD3A7D
:10356000DFEDAD3AF5EE400AF1EE10FA40D0F0EEA4
:10357000603A9FEDAA0ADFF8380B90ED004A34EE6E
:10358000634AB4EE404AF1EE10FA08DA90ED004AD0
:1035900033EEC44AB4EE404AF1EE10FA03DB9FED7D
:1035A000A00A21EE001ADFF8780A90ED000AF0EE8A
:1035B000401ADFF8701A91ED000A30EE010AB0EE01
:1035C000402A32EE030A82EE000AF0EE402A33EE81
:1035D000E10AB0EE614A00EE224A80ED004AB7EE01
:1035E000000A30EE620A20EE020A81ED000A08E0CD
:1035F000DFF8300A5FF07E510160DFF8240A002115
:103600000160DFF81C0ADFF8A81A02680A6090ED72
:10361000000A70470000C84201002041704738B5D9
:1036200004000D002900C9B2200000F01BF831BDD4
:1036300070B504000D00160020000078C0B201280B
:1036400005D13200D2B22000290000F0EBF870BDA5
:1036500038B504000D002900C9B22000C0B200F046
:1036600079F931BD3EB504000D002800C0B2002834
:1036700012D0022822D018D304283CD027D3062801
:1036800061D04CD3082800F0868070D30A2800F05F
:10369000AA80C0F09480BAE00420009001230322A5
:1036A0000121200002F061FBB1E00220009018230C
:1036B00003220121200002F058FBA8E01020009016
:1036C000292303220121200002F04FFB9FE0DFF8B5
:1036D000E409818804290DD10168019180880221C3
:1036E00090FBF1F080B200902923102201212000EC
:1036F00002F089FB8BE0DFF8BC09818804290DD139
:10370000016801918088022190FBF1F080B2009065
:103710002B2310220121200002F075FB77E0DFF857
:103720009409818804290DD10168019180880221C2
:1037300090FBF1F080B200902D2310220121200097
:1037400002F061FB63E0DFF86C09818804290DD188
:10375000016801918088022190FBF1F080B2009015
:103760002F2310220121200002F04DFB4FE0DFF853
:103770004409818804290DD10168019180880221C2
:1037800090FBF1F080B20090312310220121200043
:1037900002F039FB3BE0DFF81C09818804290DD1D8
:1037A000016801918088022190FBF1F080B20090C5
:1037B000332310220121200002F025FB27E0DFF84F
:1037C000F408818804290DD10168019180880221C3
:1037D00090FBF1F080B200903523102201212000EF
:1037E00002F011FB13E0DFF8CC08818804290DD129
:1037F000016801918088022190FBF1F080B2009075
:10380000372310220121200002F0FDFAFFE737BD27
:1038100095BFD63317B7D13800000000CDCC4C3E51
:1038200000007A442DE9F74F82B00020ADF8000087
:1038300000249DF81000002808D0401E21D0401E12
:1038400030D0401E072840F27F8080E00320ADF892
:10385000000004226946029800F01CF90500DFF818
:103860005868311D2800FFF797F90422694602982D
:1038700000F010F9040016F108012000FFF78CF9A0
:1038800065E00320ADF8000004226946029800F0CC
:1038900001F9040000212000FFF754FADFF818189E
:1038A000C86354E00320ADF8000004226946029882
:1038B00000F0F0F80190DFF800B81BF11C0101984E
:1038C000FFF76AF904226946029800F0E3F8050060
:1038D000CBF8205004226946029800F0DBF806007D
:1038E0001BF124013000FFF757F9042269460298C2
:1038F00000F0D0F80700CBF828700422694602983F
:1039000000F0C8F880461BF12C014046FFF744F94F
:1039100004226946029800F0BDF88146CBF8309049
:1039200004226946029800F0B5F882461BF1340182
:103930005046FFF731F904226946029800F0AAF8D0
:103940000400CBF8384002E000F04AF8FFE705B089
:10395000BDE8F08F0200D2B2002A0A2A1BD80A0062
:10396000D2B2012A0ED1DFF8D425002353700123EF
:1039700013700200D2B2002A0CD10122DFF83C37CA
:10398000DA7007E0DFF8B4255378032B02DA5378B6
:103990005B1C5370FFE7DFF8A4355A78002A1ED06D
:1039A0005A78032A1BDB00221A7000225A60002278
:1039B0009A600022DA6100221A6200225A62002212
:1039C0009A620022DA6200221A6300225A630022FD
:1039D0009A630022DA630022DFF8E036DA7070477B
:1039E00080B50320DFF8FC1408700421DFF8A00381
:1039F00001F0A9FA3220FEF7C0FB01BD80B5DFF867
:103A0000C0060078A24908700220DFF8D8140870B8
:103A10000421DFF87C0301F084FA01BD2DE9F041B7
:103A200004000D0016002F00DFF888864046FEF7E0
:103A3000F5F8300080B2022802D004280BD01DE037
:103A40007878D8F8001008703878D8F800104870E6
:103A5000A8F8046015E07878D8F800100870387875
:103A6000D8F800104870F878D8F800108870B87846
:103A7000D8F80010C870A8F8046002E00020A8F888
:103A80000400DFF83C0604700120DFF838160870E7
:103A9000BDE8F081F0B4030000200C881500EDB201
:103AA000042D16D12500ADB21D44AE782500ADB26F
:103AB0001D44ED7855EA06252600B6B29E5D270026
:103AC000BFB21F447F7857EA062757EA05473800F8
:103AD0000DE01500EDB2022D09D12500ADB25D5DFE
:103AE0002600B6B21E44767856EA052630000D88C8
:103AF00055FA82F50D80F0BC704770B504000D00DA
:103B0000DFF8C46501224FF480513000FEF71DF844
:103B10000A2002F0BDFC02F081FC4FF47A732A0007
:103B200092B22100DFF8A40502F003FD00224FF459
:103B300080513000FEF709F870BD2DE9F0412DED00
:103B4000028B8EB0F0EE408AB0EE608A3221002205
:103B50006C46200001F02AFB002700240025DFF836
:103B6000DC83C8ED058A88ED068A98ED050AFFF723
:103B700093FA060098ED060AFFF78EFA804668462B
:103B80003100090E3A00D2B281547F1C3100090C79
:103B90003A00D2B281547F1C3100090A3A00D2B2F5
:103BA00081547F1C3900C9B246547F1C4146090E1E
:103BB0003A00D2B281547F1C4146090C3A00D2B27D
:103BC00081547F1C4146090A3A00D2B281547F1CBD
:103BD0003900C9B200F801807F1C3A00D2B292B21B
:103BE0006946DFF8EC0403F0C1FC0EB0BDEC028BBB
:103BF000BDE8F08170B500240025DFF8D40400781A
:103C0000C0B2FF283AD0DFF8CC040178C9B2090667
:103C1000DFF8C4040078C0B251EA0041DFF8BC0408
:103C20000078C0B251EA0021DFF8B4040078C0B2D5
:103C300001430C00DFF8AC040178C9B20906DFF8D3
:103C4000A8040078C0B251EA0041DFF8A00400786F
:103C5000C0B251EA0021DFF898040078C0B20143F5
:103C60000D00DFF8546416F114012000FEF794FFF4
:103C700016F118012800FEF78FFF05E0DFF8380481
:103C8000002141610021816170BD000018EE000833
:103C90008C27002000270020C00A00208A2700204F
:103CA00070B500240025DFF850040078C0B2FF286A
:103CB0003DD0DFF84064DFF8440400783070DFF86E
:103CC00040040178C9B20906DFF838040078C0B2B0
:103CD00051EA0041DFF830040078C0B251EA002117
:103CE000DFF828040078C0B201430C00DFF820049C
:103CF0000178C9B20906DFF81C040078C0B251EAA5
:103D00000041DFF814040078C0B251EA0021DFF866
:103D10000C040078C0B201430D0016F10801200028
:103D2000FEF73AFF311D2800FEF736FF09E0DFF805
:103D3000C40300210170DFF8E8138160DFF8E413A9
:103D4000416070BD78B591B004000D003C210022A7
:103D500002AE300001F02AFA0020ADF80400032181
:103D6000042000F01DFB0B2000900023DFF8B82397
:103D700001A902A8FEF7FAFE4FF47A73BDF80420F9
:103D800002A9DFF8A80302F0D4FB12B070BD000056
:103D90001C060020992700200004004878B591B047
:103DA00004000D003C21002202AE300001F0FEF9BB
:103DB0000020ADF80400C64803F0A8FBCE4803F08D
:103DC000A5FBCC4800210170DFF858138160D4496D
:103DD00041600D2000900023D54A01A902A8FEF7FA
:103DE000C5FE4FF47A73BDF8042002A9CF4802F053
:103DF000A0FB12B070BD0000000C004838B590B0B8
:103E000004000D0003A8CB49322203F0F3FBCA489B
:103E1000D0E90023CDE9012303A801900023C7487E
:103E2000027802A903A8FEF72CFE022000900023CE
:103E30007AA202A903A8FEF799FE4FF47A73BDF89F
:103E400008200199B94802F074FB11B030BDF8B5F3
:103E500004000D0000262068007830283ADB206836
:103E600000783A2836DA002700200100C9B2A2887B
:103E700089B291420FD221680200D2B2895C302906
:103E800005DB21680200D2B2895C3A2900DB02E03E
:103E90007F1C401CE9E73900C9B22068FEF71EFF0D
:103EA0000600B6F5807F0DD2A44841783000C0B23C
:103EB00000F076FA4FF47A7302227CA19B4802F05C
:103EC00038FB0EE04FF47A7305229D49974802F0C3
:103ED00030FB06E04FF47A7305229949934802F0CB
:103EE00028FBF1BD7C00002038B590B004000D0027
:103EF00003A89449322203F07DFB9348D0E90023C4
:103F0000CDE9012303A8019000238C48427802A93F
:103F100003A8FEF7B6FD0220009000233FA202A9ED
:103F200003A8FEF723FE4FF47A73BDF80820019929
:103F30007E4802F0FEFA11B030BD0000BC25002022
:103F40009A2700202826002050260020F8B50400DB
:103F50000D00002620680078302839DB20680078C2
:103F60003A2835DA002700200100C9B2A28889B2B8
:103F700091420FD221680200D2B2895C302905DB60
:103F800021680200D2B2895C3A2900DB02E07F1C82
:103F9000401CE9E73900C9B22068FEF79FFE060021
:103FA0000C2E0DD23100C9B26448007800F0F8F947
:103FB0004FF47A7302223DA15C4802F0BAFA0EE097
:103FC0004FF47A7305225E49584802F0B2FA06E0CF
:103FD0004FF47A7305225A49544802F0AAFAF1BD07
:103FE00080B5FFF707FEFFF75BFE58485849C0F859
:103FF000A4135849C0F8B4135749C0F8C41357491B
:10400000C0F8D4135649C0F8E4135649C0F8F41365
:1040100002F01BFA02F00AFA01BD00000D0A0000CE
:1040200064270020A406002070B50020002400258D
:104030002800C0B2082836DA4B4E2800C0B2000172
:104040003044407801282CD1012004002800C0B25F
:1040500000013044406800280ED000F005FE290021
:10406000C9B2090131444968401A2900C9B209019D
:1040700031448968884214D300202900C9B209015B
:104080003144487000F0F0FD2900C9B20901314403
:1040900048602800C0B22900C9B209013144C9688A
:1040A00088476D1CC4E72000C0B270BD4F4B0000B4
:1040B000682700209C060020BC25002060270020E7
:1040C000982700207C00002000080048A020002045
:1040D000000802080208020803080208040802088F
:1040E000050802080608020807080208080802086E
:1040F000090802081C27002000100208021002080C
:104100000310020804100208051002080610020835
:104110000710020808100208091002080A10020815
:10412000000048420000164430EC0008901F0020B8
:1041300080E9000858D8000820EE0008100B002085
:1041400010EE000850E6000828EE0008B006002037
:10415000453D00089D3D0008FD3D00084F3E00081C
:10416000E93E00084D3F00081C0600200200002028
:10417000704730B40200DFF81C060023046885880D
:10418000635583885B1C8380DFF80C361B780468DA
:104190008588635583885B1C8380012030BC704711
:1041A000F8B504000D00002000212E002268330025
:1041B000DBB2D25C23683700FFB23B445F7857EA3A
:1041C00002273A0092B2B2F5807F23DA380080B23B
:1041D00000281FD0DFF8BC0521683200D2B2895C0C
:1041E00002688388D1548188491C8180216832000B
:1041F000D2B21144497802688388D1548188491C1D
:104200008180DFF8940541783800C0B200F0C8F82A
:10421000012000E00020F2BD30B40200DFF8740598
:10422000002304688588635583885B1C8380DFF8DE
:1042300068355B7804688588635583885B1C838058
:10424000012030BC7047F8B504000D0000200021AB
:104250002E0022683300DBB2D25C23683700FFB245
:104260003B445F7857EA02273A0092B20B2A1FDAE2
:10427000DFF8200521683200D2B2895C02688388A9
:10428000D1548188491C818021683200D2B2114406
:10429000497802688388D1548188491C818039001B
:1042A000C9B2DFF8F404007800F07AF8012000E0E9
:1042B0000020F2BDF8B504000D000026DFF8DC0494
:1042C00090ED030AFEF7E8FE0100DFF8C8040A00DB
:1042D000120A03688788DA558288521C8280026835
:1042E0008388D1548288521C82800A00120E03688F
:1042F0008788DA558288521C82800A00120C036873
:104300008788DA558288521C82800120F2BDF8B578
:1043100004000D000026DFF8840490ED040AFEF787
:10432000BBFE0100DFF86C040A00120A03688788EC
:10433000DA558288521C828002688388D154828830
:10434000521C82800A00120E03688788DA55828820
:10435000521C82800A00120C03688788DA55828812
:10436000521C82800120F2BD70B504000D00DFF800
:104370003064012220213000FDF7E7FB0A2002F023
:1043800087F84FF47A732A0092B22100DFF8140400
:1043900002F0CFF8002220213000FDF7D6FB70BDDF
:1043A0007CB504000D00082100226E46300000F0AC
:1043B000FDFE0026DFF8E0030470457069460278D0
:1043C0003300DBB2CA54761C40783200D2B2885433
:1043D000761C3200D2B292B26946DFF8CC0303F009
:1043E000C5F873BDDFF8C0030078C0B2FF280AD05B
:1043F000DFF8A403DFF8B41309780170DFF8B01315
:104400000978417005E0DFF8900304210170032171
:10441000417070472DE9F04F87B0040000275FF02E
:1044200000085FF000090025DFF88823D2E90001C9
:10443000CDE902010026DFF88023D2E90001CDE9B1
:104440000401DFF850A35046FDF7E8FBA0880828D8
:10445000C0F29B812068A188084410F8010C2168F3
:10446000A288114411F8021C51EA0021ADF818107D
:10447000A188891E206801F05AFCADF81A00BDF829
:104480001A00BDF81810884240F07D81206800783D
:10449000C1490978884240F0768120688078216897
:1044A000CF7857EA002720684078032805D00628EF
:1044B0006CD0102800F0C38061E120680079216889
:1044C000497951EA00210D005FF001084046C0B271
:1044D000052836DA5FF01409DFF8E0B24046C0B2D2
:1044E00009FB00F058444068390089B2884225D160
:1044F000280080B24146C9B209FB01F159448968DC
:1045000088421BDB002100204246D2B209FB02F2A6
:104510005A44D268904701280FD14046C0B209FBE7
:1045200000F0584480682D1A4046C0B209FB00F9DB
:104530000BEB09008068C71900E002E018F10108E0
:10454000C4E7BAF8040000281FD0BAF8040002211A
:1045500090FBF1F201FB1200002816D1DAF80000FE
:104560000190BAF80400022190FBF1F080B20090B3
:104570003B009BB203222068017804A801F0B7FC3D
:10458000BDF814100498FFF7EFFEFAE004200100D4
:10459000C9B2A288921E91420EDA21680200D2B2FC
:1045A000895C029ABDF80C30D154BDF80C10491C3E
:1045B000ADF80C10401CEAE75FF001084046C0B2BD
:1045C000052817DA14227D4B4046C0B250431844E8
:1045D0004068390089B2884209D1002102A8C44646
:1045E0005FFA8CFC02FB0CF21A441269904718F136
:1045F0000108E3E7BAF8040000281FD0BAF8040065
:10460000022190FBF1F201FB1200002816D1DAF82A
:1046100000000190BAF80400022190FBF1F080B292
:1046200000903B009BB206222068017804A801F0AC
:10463000AFFCBDF814100498FFF796FEA1E000202F
:104640000600206800792168497951EA00210D00AF
:1046500007200100C9B2A288921E91420EDA216899
:104660000200D2B2895C029ABDF80C30D154BDF878
:104670000C10491CADF80C10401CEAE7280080B271
:1046800040002168897988424DD1BDF80C0021682D
:10469000897989B2884246D15FF001084046C0B2AC
:1046A000052840DA5FF01409DFF810B14046C0B2C7
:1046B00009FB00F058444068390089B288422FD184
:1046C000280080B24146C9B209FB01F1594489680A
:1046D000884225DB310089B202A84246D2B209FBEA
:1046E00002F25A4412699047012818D14046C0B2DC
:1046F00009FB00F058448068400010FA86F64046F6
:10470000C0B209FB00F0584480682D1A4046C0B280
:1047100009FB00F90BEB09008068C71900E002E013
:1047200018F10108BAE7BAF80400002826D0BAF850
:104730000400022190FBF1F201FB120000281DD1C0
:10474000206880782168C97851EA00210F00DAF8E2
:1047500000000190BAF80400022190FBF1F080B251
:1047600000903B009BB210222068017804A801F061
:104770000FFCBDF814100498FFF7F6FD01E00020CF
:1047800004E0012002E0002000E0002007B0BDE8C6
:10479000F08F0000D4050020100B0020BC25002065
:1047A000000400481820002000000208020002084F
:1047B0000300020800EE000808EE0008440500208F
:1047C00000F10103810704D010F8011B820781B1B9
:1047D000FAD10268A2F10131914311F0803104BF96
:1047E00050F8042FF6E709BAB1FA81F100EBD100D5
:1047F000401CC01A704730B4002513E050F8042B59
:10480000D30744BFA9F101039A18091F042942F8EC
:10481000045BFAD213468C0744BF15809B1CC90762
:1048200048BF1D7050F8041B0029E7D130BC704709
:10483000C11768B14840401AB0FA80F29040D21CCB
:10484000C907C2F5846241EA025202EBD021400559
:1048500070470268531C03601170704741EC100BE5
:1048600001BD80B553EC112B51EC100B02F016FF7B
:10487000F4E72E00F0B540F2FF7581EA030C0CF06E
:10488000004C15EA11541DBF15EA1357AC42AF4254
:10489000E5E0BC41C1F31301C3F31303801A99414E
:1048A00043F4801304D2641E4000494180185941EA
:1048B000C90241EA5051B1FBF3F603FB1611A2FB0A
:1048C0000675D7EBC020A94102D2761E8018594147
:1048D000C90241EA5051B1FBF3FE03FB1E11A2FBDA
:1048E0000E75D7EBC020A94103D2AEF1010E80189E
:1048F0005941890241EA9051760546EA8E2EB1FB74
:10490000F3F603FB1611A2FB0675D7EB8020A94135
:1049100002D2761E80185941C90241EA50514EEA2E
:10492000060EB1FBF3F603FB1611A2FB0675D7EBDF
:10493000C020A94102D2761E80185941C90241EA1D
:104940005051B1FBF3F703FB1711A2FB0735D3EB73
:10495000C020A94167F100070CBF004247F00107E2
:1049600066F3D5274FEA1E31B80814F5806412DDCE
:10497000BD0775F1004250EB0E5051EB045111F59B
:10498000801F5CBF41EA0C01F0BD4CF07F6141F03B
:10499000E0410020F0BDBD076D0840EA0E5041F433
:1049A0008011D4F10104B4F120060ADAC4F1200622
:1049B0000200E04001FA06F3E1401843B24015431B
:1049C0000EE0342C13DCC6F1200445EA40056D08E6
:1049D00020FA06F2154321FA06F0A1400D4300210A
:1049E00075F1004250F1000051EB0C01F0BD0020C8
:1049F0005FEA0C01F0BDCFB992185B41B3FA83F7BF
:104A000004BFB2FA82F6BF190B3FB7F120062FBFE1
:104A100002FA06F3BB40C7F1200622FA06F638BFB9
:104A20003343BA401CB1E419641E33E77F4231F0CE
:104A30000041B1FA81F404BFB0FA80F6A4190B3C2E
:104A4000B4F120062FBF00FA06F1A140C4F1200600
:104A500020FA06F638BF3143A0403C1B1AE7AC42AF
:104A60001ABF05EA1357AF4212E050EA41061CBFD5
:104A700052EA4306BFE750EA4107304661461CBF91
:104A800041EA0551F0BD52EA430C08BFC143F0BDF5
:104A900000204FF4001616EB410F98BF16EB430FA2
:104AA00008BF16EB410F24BFC14305E016EB430FCF
:104AB0000CBF61464CEA0551F0BD000001F0004218
:104AC0008B1AA3F16051B1F5801F0ADBB1F17F6F42
:104AD0001FD242EAC102C10071F1004142EB5070A5
:104AE00070470B15C3F10903212B10D2890241EA4B
:104AF000905180020128494141F0004121FA03F020
:104B0000C3F12003994071F10041504170471000FA
:104B100070476FF0000013EB103F5CBF000E42EADD
:104B2000C0507047014648B1B0FA80F18840C91CB6
:104B3000C1F58461090501EBD021400570470000F3
:104B4000C0F3C75181B1FF2906D0C110400721F041
:104B5000E04101F16051704741020CBF40F4E001B7
:104B60006FF000410020704700F0004100020AD0C1
:104B7000B0FA80FC00FA0CF001F16051A1EB0C518D
:104B800001EBD021400570470CB430B583B00A4624
:104B900006A90291044600250194009502AB01A9E3
:104BA000084878441E3003F0EFF8019A1570002889
:104BB0004EBF04460198041B204603B030BC5DF88C
:104BC0000CFB00BF8FFCFFFF80B5012240211F4876
:104BD000FCF7BBFF1E491F4800F032FA00F01CF83A
:104BE000012000F003F800F0C7FA01BD704711B5CD
:104BF00081B0164C002240212000FCF7A6FF4FF4A4
:104C00007A73012201A9144804F01EF901224021FF
:104C10002000FCF79AFF13BD10B50C4C0022402178
:104C20002000FCF792FF002280212000FCF78DFF7E
:104C3000012000F013F8012280212000FCF785FFFD
:104C4000012240212000FCF780FF10BD0008004831
:104C500040270020C80F00201C24002010B50400AD
:104C6000200001F015FC10BD01480068704700BF2E
:104C70005027002070B4039CDFF88052286029710F
:104C80006A71AB71EC7100262E7270BC70472DE911
:104C9000F84F04000D00160000275FF00008DFF851
:104CA0005C9299F80500082880F2FC80300099F8A1
:104CB0000610C0B2884205D399F807003100C9B286
:104CC000884201D22E200600402099F80510491C88
:104CD00090FBF1F02900C9B2814280F2E38099F89B
:104CE000040050FA84F0802880F2DC8099F80530C6
:104CF0005B1C99F8050003FB05035B1CDBB299F80C
:104D000004201219D2B299F80500401C15FB00F1DD
:104D1000C9B22000C0B200F029F90021080099F8BA
:104D20000420C0B2904280F0BD80002015FB00F04E
:104D30000200D2B2082392FBF3F21700C0B208229D
:104D400090FBF2F302FB13008046FF226C4BD3F87A
:104D500000C03800C0B250FA85FE802000FB0EFE75
:104D60005EFA84FED3F800A03800C0B250FA85FB8A
:104D7000802000FB0BFB5BFA84F01AF800A0D8F14E
:104D8000080B100050FA0BF010EA0A0A0CF80EA0FB
:104D9000D3F800C03800C0B250FA85FE802000FB76
:104DA0000EFE5EFA84F00090D3F800E03800C0B246
:104DB00050FA85FA802000FB0AFA5AFA84F01EF8AD
:104DC00000E0D9F800A0B3465FFA8BFB99F8060023
:104DD000BBEB000099F804B00BFB00FB0AEB0B00E7
:104DE0008A465FFA8AFA10F80A0010FA08F050EAC8
:104DF0000E00DDF800E00CF80E00D3F800C038001B
:104E0000C0B250FA85FE802000FB0EFE5EFA84F0F0
:104E10008444D3F800E03800C0B250FA85FA80200C
:104E200000FB0AFA5AFA84F0704490F8800012FAF3
:104E300008F202408CF880201A683800C0B250FA9C
:104E400085FC802000FB0CFC5CFA84F002441B68AB
:104E50003800C0B250FA85FC802000FB0CFC5CFAE4
:104E600084F0184490F88030D9F800C0B6465FFA54
:104E70008EFE99F80600BEEB000E99F8040000FBC8
:104E80000EFE0CEB0E008C465FFA8CFC10F80C004A
:104E9000D8F1080C50FA0CF0034382F88030641CFF
:104EA000491C3BE7BDE8F18FF8B507000C00160080
:104EB000124D6879082820DA307800281DD0327821
:104EC0002100C9B23800C0B2FFF7E1FE761C287994
:104ED000401CC719287950FA87F0401C812802DB52
:104EE00000200700641C40206979491C90FBF1F008
:104EF0002100C9B28142DFDBFFE7F1BD10270020AE
:104F000044270020020001200B00DBB21B011344E8
:104F1000587000200B00DBB21B01134458600120C5
:104F2000704738B504000D0001202900C9B20901FD
:104F300021444870FFF798FE2900C9B209012144B5
:104F40004860012032BD020000200B00DBB21B01D3
:104F5000134458700120704780B5034800F00EFCE0
:104F600000F0CBF801BD0000B0DC000870B4040014
:104F7000E4B2802C01DB7F2420001400E4B2802CFA
:104F800001DB7F2422000C00E4B2402C01DB3F2433
:104F900021001C00E4B2402C01DB3F2423002B4CF9
:104FA000050026683678EDB2B54201D22568287032
:104FB0002568AD781600F6B2B54201D22568AA7010
:104FC0000D0026687678EDB2B54201D22568697089
:104FD0002568ED781E00F6B2B54201D22468E37070
:104FE00070BC704719487F21026811700021026867
:104FF00091703F210268517000210068C1707047B4
:1050000012480021026811707F210268917000210E
:10501000026851703F210068C170704770B54FF44D
:10502000806400250A4806682A002100300000F04C
:10503000BDF83F237F2200210020FFF797FF70BDBE
:10504000034A1060014A11607047000048270020A1
:105050004427002010B5040000224FF4807143481B
:10506000FCF773FD2000C0B2FFF7C1FD10BD10B505
:10507000040001224FF480713C48FCF766FD2000DB
:10508000C0B2FFF7B4FD10BD10B504008120FFF7DA
:10509000E1FF2000C0B2402803DB3F20FFF7DAFF2A
:1050A00003E02000C0B2FFF7D5FF10BD10B504002B
:1050B00014F00F0050F0B000C0B2FFF7CBFF10BDEE
:1050C00010B504002000C0B200F005F82000C0B206
:1050D00000F00CF810BD10B504002000C0B20009AB
:1050E00050F01000C0B2FFF7B5FF10BD10B50400BE
:1050F00014F00F00FFF7AEFF10BD70B500242000C4
:10510000C0B210282EDA1A4D286840782100C9B2A2
:10511000491CB0EBC10F23DA2868C0782100C9B25E
:10512000B0EBC10F1EDB2000C0B2FFF7BFFF286845
:105130000078FFF7C5FF2868067828688078310076
:10514000C9B288420CD30B4801682200D2B2802039
:10515000424352FA86F0085CFFF789FF761CECE7C1
:10516000641CCCE7FFF73EFF70BD0000000800485C
:10517000482700204427002080B5A020FFF76AFFC1
:10518000AE20FFF767FFC820FFF764FFA220FFF7FC
:1051900061FF2F20FFF75EFF2220FFF75BFF3F201C
:1051A000FFF772FFAF20FFF755FF01BD62F30F223B
:1051B00062F31F42401810F0030308D0C91A1FD32E
:1051C000DB0748BF00F8012D28BF20F8022D13008F
:1051D00030B414461546103928BF20E93C00FAD8EF
:1051E000490728BF20E90C0048BF40F8042D89007A
:1051F00028BF20F8022D48BF00F8012D30BC7047B1
:10520000C91818BF00F8012DCB0728BF00F8012DE1
:105210007047000070B4039CDFF884532860297144
:105220006A71AB71EC7101262E7270BC70472DE96A
:10523000F74F04000D00DFF868639DF80800B179AE
:10524000884204D3F0799DF80810884202D22E20BB
:105250008DF80800307A002845D1002738003179D0
:10526000C0B288423DD231689DF80820B079121A48
:105270003079424301EB02003900C9B210F80190C5
:10528000002080464046C0B2082828DA3800C0B264
:1052900050FA84F0802805DA4046C0B250FA85F012
:1052A000402801DB00205DE1012010FA08F04946AA
:1052B000C9B2014208D0012218EB0501C9B2381960
:1052C000C0B200F06FF907E0002218EB0501C9B287
:1052D0003819C0B200F066F918F10108D2E77F1C56
:1052E000BCE730793EE1307A012840F08E80707959
:1052F000082190FBF1F201FB1200012806DB707916
:10530000082190FBF1FB1BF1010B03E070790821F0
:1053100090FBF1FB31795846C0B24143491C8DF8EE
:10532000011031689DF80820B079121A9DF801002B
:10533000424301EB020001788DF80010401C0190FF
:105340005FF0000840469DF80010C0B2884259D274
:105350005FF0000948465946C0B2C9B288424ED2F1
:1053600001994246D2B25846C0B2424301EB020014
:105370004946C9B210F801A0002007003800C0B2A9
:10538000082839DA4046C0B250FA84F0802808DA9A
:105390004846C0B2C00050FA85F050FA87F0402865
:1053A00001DB0020DEE04846C0B2C00050FA87F0C2
:1053B000717988421EDA0121B9405046C0B20842D4
:1053C0000CD001225FFA89F915EBC9017918C9B22D
:1053D00018EB0400C0B200F0E5F80BE000225FFA21
:1053E00089F915EBC9017918C9B218EB0400C0B2EC
:1053F00000F0D8F87F1CC1E719F10109AAE718F1FC
:1054000001089FE79DF80000ACE0307A022840F0E8
:10541000A8807079082190FBF1F0401C8DF8000005
:1054200030799DF8001010FB01F08DF80200316812
:105430009DF80820B079121A9DF80200424301EB52
:105440000200019096F804B000208DF801000021C0
:105450000020002210009DF80030C0B298420CD20B
:105460003079431E9DF801001B1A13FB02F0019BCB
:10547000C0B2185C0100521CECE70800C0B2002862
:105480000BD1BBF1010B5846C0B2002805D09DF8E6
:105490000100401C8DF80100D9E7002738009DF875
:1054A0000010C0B2884259D25FF000084046594609
:1054B000C0B2C9B288424FD201993A00D2B2307913
:1054C000424301EB02004146C9B210F801905FF07F
:1054D000000A5046C0B208283BDA4046C0B250FA33
:1054E00084F0802808DA3800C0B2C00050FA85F095
:1054F00050FA8AF0402801DB002033E03800C0B2C7
:10550000C00050FA8AF0717988421FDA012111FA3D
:105510000AF14846C0B208420CD00122FFB215EB96
:10552000C7011AEB0101C9B218EB0400C0B200F0C8
:1055300039F80BE00022FFB215EBC7011AEB0101AD
:10554000C9B218EB0400C0B200F02CF81AF1010A3D
:10555000BFE718F10108A9E77F1C9FE75846C0B2D2
:1055600000E00020BDE8FE8FF8B504000F00150034
:105570000B484079D0F13F003900C9B288420EDBB8
:10558000287800280BD02A783900C9B22000C0B290
:10559000FFF74DFE0600701C04196D1CF0E7F1BD0D
:1055A00010270020F8B504000D0016002000C0B23E
:1055B000802803DA2800C0B2402800DB57E0300022
:1055C000C0B2002824D02900C9B20822DFF8CC31AB
:1055D0002800C0B2082790FBF7F78020474357FA0E
:1055E00084F72800C0B25FF0080C90FBFCFC802020
:1055F00000FB0CFC5CFA84F0185C5FF0010C91FB82
:10560000F2FE02FB1E111CFA01F10143D95524E000
:105610002900C9B20822DFF884312800C0B2082767
:1056200090FBF7F78020474357FA84F72800C0B271
:105630005FF0080C90FBFCFC802000FB0CFC5CFA8B
:1056400084F0185C5FF0010C91FBF2FE02FB1E116E
:105650001CFA01F130EA0101D9552B00DBB222001E
:10566000D2B22900C9B22000C0B2FFF77FFCF1BD61
:105670002DE9F84F05000E00170098460A9C3800E7
:10568000C0B22900C9B2401A03F0F7FD8146404676
:10569000C0B23100C9B2401A03F0EFFD814502DA11
:1056A0005FF0010B01E05FF0000B5846C0B200282C
:1056B00005D02800350006003800474680463800EF
:1056C0002900C0B2C9B2884205D228003D000700B7
:1056D0003000464680464346DBB23A00D2B2310043
:1056E000C9B22800C0B2FFF741FC781B8DF800005A
:1056F0004046C0B23100C9B2401A03F0BEFD8DF879
:1057000001009DF80000022190FBF1F930004146B4
:10571000C0B2C9B2884202D25FF0010A01E05FF074
:10572000FF3A38002900C0B2C9B2884224D3584693
:10573000C0B2002808D02200D2B22900C9B230007D
:10574000C0B2FFF72FFF07E02200D2B23100C9B28A
:105750002800C0B2FFF726FF9DF80100B9EB000951
:10576000484640B2002805D51AEB06069DF8000011
:1057700010EB09096D1CD4E7BDE8F18FF8B5040002
:105780004FF480652600064807682A00310038007B
:1057900001F030FFFFF734FCF1BD0000C80F00201E
:1057A00044270020BBBBE1B1B2F5803F80F07E8092
:1057B000022A1ED98C46B1FBF2F102FB11C31B0475
:1057C00043EA1043B3FBF2FC02FB1C3380B240EA15
:1057D0000343B3FBF2F002FB103240EA0C4000231B
:1057E0007047022A05D98446B0FBF2F002FB10C2D2
:1057F00070474AB105D100F0010249085FEA300064
:10580000704700220023704703F03CBD0B000200EC
:10581000002100207047904271EB030CF6D3B3F5E2
:10582000803F2FD2F0B5B3FA83F7B1FA81F4A7F134
:105830000F0E3D1B5340CEF1200602FA0EF2F3414B
:105840005340B5F10F0746D80F3C2C444140C4F1FA
:105850002006A040F1414140B1FBF3F603FB1611D5
:10586000A2FB0645001BA94102D2761E80185941B1
:1058700080EA010221FA0EF362FA0EF200215A4088
:105880003046F0BD30B4B1FBF3FC03FB1C11A2FBAE
:105890000C45001BA94103D2ACF1010C8018594101
:1058A00030BC02460B46604600217047B2F1807F53
:1058B00065D3F0B5B2FA82F7B1FA81F4C7F10F06F9
:1058C0003D1B22FA06F307F1110EF24120355A4032
:1058D000B5F10F07B8D94140C4F12006A040F1410D
:1058E0004140B1FBF3FC03FB1C11A2FB0C45001B68
:1058F000A94103D2BCF1010C801859410F2F12D3DA
:105900000F3FC90341EA5041B1FBF3F603FB161107
:10591000A2FB0645D4EBC030A94102D2761E801806
:10592000594146EACC3C07B34140C7F12006B84094
:10593000F1414140B1FBF3F603FB1611A2FB064512
:10594000001BA94102D2761E8018594180EA01024B
:1059500021FA0EF3C7F1200462FA0EF20CFA07F0F6
:105960005A402CFA04F13043F0BD80EA010221FADA
:105970000EF3002162FA0EF260465A40F0BD8C46EA
:10598000B1FBF2F102FB11C31B0243EA1063B3FB4C
:10599000F2FC02FB1C331B024CEA002043EA1063BA
:1059A000B3FBF2FC02FB1C331B024CEA002043EA6F
:1059B0001063B3FBF2FC02FB1C331B024CEA002019
:1059C00043EA1063B3FBF2FC02FB1C324CEA0020FA
:1059D00000237047B0B581EA030C0CF0004C40F294
:1059E000FF7515EA11541DBF15EA1357AC42AF42BB
:1059F00039E0E41923EA455343F48013C90241F026
:105A0000004141EA505EC7021100A7FB02020028D4
:105A10004FF00000EEFB01204FF00001E3FB0721F7
:105A200018BF42F00102401800214941E3FB0E017A
:105A3000A4F580640F0302D252004041494154F161
:105A400001046CDD470872F1004250F1000051EB97
:105A50000451A1F580115CBF41EA0C01B0BD4CEAD4
:105A600005510020B0BD05EA1357AC4214BFAF4248
:105A700041E050EA410E1CBF52EA430E02E061468B
:105A80000020B0BD24423C441BD15FEA070EF6D093
:105A9000090302BF01460020AEF1140EB1FA81F7EE
:105AA000AEEB070401FA07FE0C37C7F1200100FA3C
:105AB00007F7C8404EEA000E23EA455343F480132B
:105AC000A2E733F00043B3FA83F704BFB2FA82FED1
:105AD00077440B3FE41BB7F1200E2FBF02FA0EF301
