:020000040800F2
:10000000B02B0020BDEA00084DE400084FE40008D2
:1000100051E4000853E4000855E400080000000023
:1000200000000000000000000000000057E400088D
:1000300059E40008000000005BE400085DE40008EB
:10004000F5ED0008F9ED0008FDED000801EE0008EF
:1000500005EE000809EE00080DEE000811EE00089C
:1000600015EE000819EE00081DEE000821EE00084C
:1000700025EE00086DE4000829EE000877E400088A
:100080002DEE000831EE000835EE000839EE0008CC
:100090003DEE000841EE000845EE000849EE00087C
:1000A0004DEE000851EE000855EE000859EE00082C
:1000B0005DEE0008000000000000000061EE000896
:1000C00065EE000869EE00086DEE000871EE0008AC
:1000D00075EE000881E4000879EE00088BE4000862
:1000E0007DEE000895E4000800000000000000001C
:1000F0000000000000000000000000000000000000
:100100000000000081EE00080000000085EE0008FD
:10011000000000000000000089EE00088DEE0008DD
:1001200091EE000895EE000899EE00089DEE00089B
:10013000A1EE000800000000000000000000000028
:10014000A5EE0008A9EE0008ADEE0008B1EE00082B
:10015000B5EE00089FE40008A9E40008B9EE000825
:10016000BDEE0008C1EE0008C5EE0008000000006A
:10017000C9EE0008CDEE0008D1EE00080000000036
:10018000D5EE0008D9EE0008DDEE000880B5DFF8F6
:10019000780A0078012806D0022807D0042808D061
:1001A000082809D00BE000F08AF808E000F038FDDC
:1001B00005E000F0A7FE02E001F018F8FFE701BD3E
:1001C0002DE9F8430024DFF8405A287A002873D13B
:1001D0002021DFF8380A01F09DFC002801D101261A
:1001E00000E00026DFF8287A0421380001F092FCB4
:1001F000002802D15FF0010801E05FF00008022151
:10020000380001F087FC002802D15FF0010901E00D
:100210005FF000090121380001F07CFC002801D1C9
:10022000012000E0002056EA480656EA890634001C
:1002300054EAC0042000C0B2012805D0022803D02F
:10024000042801D008282DD16868401C68606868BF
:10025000502826D32C7001202872DFF8B80921001D
:100260000278C9B2914215D1DFF8AC190A68521C64
:100270000A600A68322A04D350226A6032220A6075
:100280000EE00968142902D34E21696008E00021BC
:10029000696005E0002169600021DFF87C291160B8
:1002A000047009E00020DFF86C19087028206860ED
:1002B0000020DFF8641908602878BDE8F2837FB574
:1002C000DFF85849A078002814D0012837D0022838
:1002D00067D0032800F0C780042800F04A81052871
:1002E00000F07782062800F09F83082800F0218420
:1002F00000F088BCDFF810590020E860DFF8F06BF0
:100300000A220021300001F08BFC302030703020B8
:1003100070703020B0703020F070E8680001801CF0
:10032000C0B203900296052001900420009005239E
:1003300000220121A01C02F0D5F900F063BCDFF817
:10034000C808C168491CC160C16804291EDBDFF808
:10035000A00B02F0E2F9012815D1A51C0622290004
:1003600014F1080001F0AAFCF12003900020029093
:100370000A20019007200090072300220221280074
:1003800002F0B0F90BE00020A07008E0C0680001A6
:10039000801C0200D2B20021A01C02F080F900F003
:1003A00031BC2079072806D05CD309282FD018D378
:1003B0000A2842D056E0A51C0622290014F10800A4
:1003C00001F07CFCF1200390002002900D200190B0
:1003D0000C2000900C2300220321280002F082F957
:1003E00040E0A51C0622290014F1080001F066FC7B
:1003F000F120039000200290142001901120009021
:10040000112300220421280002F06CF92AE0A51C27
:100410000622290014F1080001F050FCF12003909D
:10042000002002901E2001901D2000901D2300221C
:100430000621280002F056F914E0A51C0622290026
:1004400014F1080001F03AFC002003900020029013
:100450002120019021200090212300220721280043
:1004600002F040F9CEE320790C2802D00D2840D0CC
:100470007EE0E078002802D001281FD038E0A61CDA
:100480000622310014F1080001F018FCDFF878575B
:10049000F220039015F10C0002900D2001900C2029
:1004A00000900C23E278521CD2B20321300002F0FB
:1004B00019F9DFF8400A4078E86019E0A51C062227
:1004C000290014F1080001F0F9FBF020039000204E
:1004D000029024200190242000902423002208214F
:1004E000280002F0FFF80120DFF8081A0870FFE783
:1004F0003EE0E078002802D001281FD038E0A61C9A
:100500000622310014F1080001F0D8FBDFF8F8569C
:10051000F220039015F10C0002900D2001900D20A7
:1005200000900D23E278521CD2B20321300002F079
:10053000D9F8DFF8C0094068E86019E0A51C062278
:10054000290014F1080001F0B9FBF020039000200D
:1005500002902420019024200090242300220821CE
:10056000280002F0BFF80120DFF888190870FFE7C3
:1005700048E32079112809D0C0F02A81132800F01F
:1005800096804ED3142800F0DD8021E1E078002829
:1005900002D001281FD043E0A61C0622310014F12E
:1005A000080001F08BFBDFF86056F220039015F194
:1005B0000C00029014200190112000901123E27889
:1005C000521CD2B20421300002F08CF8DFF824096A
:1005D000006AE86024E0A51C0622290014F1080046
:1005E00001F06CFBF0200390002002902420019089
:1005F00024200090242300220821280002F072F811
:10060000DFF8F448FE21DFF80006C06802F0EEFBD8
:1006100084ED000A04222100032003F0A8F9FFE77B
:10062000D6E0E078002802D001281FD03EE0A61CCA
:100630000622310014F1080001F040FBDFF8C85534
:10064000F220039015F10C0002901420019011206B
:1006500000901223E278521CD2B20421300002F042
:1006600041F8DFF89808006AE8601FE0A51C062240
:10067000290014F1080001F021FBF0200390002074
:10068000029024200190242000902423002208219D
:10069000280002F027F8DFF86818DFF86C05C0685A
:1006A00008600422042003F062F9FFE790E0E0789C
:1006B000002802D001281FD043E0A61C06223100EA
:1006C00014F1080001F0FAFADFF83C55F22003902B
:1006D00015F10C00029014200190112000901323BA
:1006E000E278521CD2B20421300001F0FBFFDFF8A7
:1006F0000408406AE86024E0A51C0622290014F1E1
:10070000080001F0DBFAF020039000200290242082
:10071000019024200090242300220821280001F0C9
:10072000E1FFDFF8D447FE21DFF8DC04C06802F007
:100730005DFB84ED000A04222100052003F017F977
:10074000FFE745E0E078002802D001281FD03EE016
:10075000A61C0622310014F1080001F0AFFADFF800
:10076000A854F220039015F10C000290142001907F
:10077000112000901423E278521CD2B204213000E0
:1007800001F0B0FFDFF87407806AE8601FE0A51C85
:100790000622290014F1080001F090FAF0200390DD
:1007A0000020029024200190242000902423002285
:1007B0000821280001F096FFDFF84417DFF848040D
:1007C000C06808600422062003F0D1F8FFE7FFE7C5
:1007D00018E22079182809D0C0F025811A2800F0E5
:1007E00095804ED31B2800F0DA801CE1E0780028C9
:1007F00002D001281FD043E0A61C0622310014F1CC
:10080000080001F05BFADFF80054F220039015F1C4
:100810000C0002901B200190182000901823E27811
:10082000521CD2B20521300001F05CFFDFF8C40693
:10083000806AE86024E0A51C0622290014F1080063
:1008400001F03CFAF0200390002002902420019057
:1008500024200090242300220821280001F042FFD8
:10086000DFF89446FE21DFF8A003C06802F0BEFA6C
:1008700084ED000A04222100072003F078F8FFE746
:10088000D1E0E078002802D001281FD03DE0A61C6E
:100890000622310014F1080001F010FADFF8685365
:1008A000F220039015F10C0002901B2001901820FB
:1008B00000901923E278521CD2B20521300001F0D9
:1008C00011FFDFF83806006BE8601EE0A51C062269
:1008D000290014F1080001F0F1F9F0200390002044
:1008E000029024200190242000902423002208213B
:1008F000280001F0F7FEDFF80816C348C06808605A
:100900000422082003F033F8FFE78CE0E0780028A9
:1009100002D001281ED041E0A61C0622310014F1AD
:10092000080001F0CBF9B84DF220039015F10C004E
:1009300002901B200190182000901A23E278521C8C
:10094000D2B20521300001F0CDFEDFF8A805C06A63
:10095000E86023E0A51C0622290014F1080001F03C
:10096000ADF9F02003900020029024200190242073
:100970000090242300220821280001F0B3FEDFF8B4
:100980007845FE21A048C06802F030FA84ED000AE4
:1009900004222100092002F0EAFFFFE743E0E078AB
:1009A000002802D001281ED03CE0A61C06223100FF
:1009B00014F1080001F082F9934DF220039015F133
:1009C0000C0002901B200190182000901B23E2785D
:1009D000521CD2B20521300001F084FEDFF81C0564
:1009E000806BE8601EE0A51C0622290014F10800B7
:1009F00001F064F9F020039000200290242001907F
:100A000024200090242300220821280001F06AFEFF
:100A1000DFF8EC147C48C068086004220A2002F069
:100A2000A6FFFFE7FFE7EDE020791D2802D01E2892
:100A30003FD07DE0E078002802D001281ED037E0CA
:100A4000A61C0622310014F1080001F037F96E4DA2
:100A5000F220039015F10C0002901E2001901D2041
:100A600000901D23E278521CD2B20621300001F022
:100A700039FEDFF880048069E86019E0A51C0622D1
:100A8000290014F1080001F019F9F020039000206A
:100A90000290242001902420009024230022082189
:100AA000280001F01FFE0120DFF848140870FFE75E
:100AB0003EE0E078002802D001281ED037E0A61CD6
:100AC0000622310014F1080001F0F8F84E4DF22032
:100AD000039015F10C0002901E2001901D20009043
:100AE0001E23E278521CD2B20621300001F0FAFD3A
:100AF000DFF80004C069E86019E0A51C062229009F
:100B000014F1080001F0DAF8F020039000200290C0
:100B10002420019024200090242300220821280072
:100B200001F0E0FD0120DFF8CC130870FFE7FFE7DC
:100B300068E0207A032806D063D305285ED05DD311
:100B4000062830D05DE00320DFF8A8130870A07AF3
:100B50000C2802D00D2809D024E0DFF88006417867
:100B60002948C068C0B203F0C5FB1BE000200100AB
:100B7000C9B20B290FDADFF868160200D2B251F8B9
:100B80002210214AD268914203D1DFF850164870F2
:100B900001E0401CEBE7DFF844064178007803F001
:100BA000A9FBFFE72DE00320DFF848130870A07AC7
:100BB0001D2802D01E2810D01FE0DFF84003D0ED22
:100BC000060A1148C068642190FBF1F000EE100A9B
:100BD000B8EEC00A02F059FF0FE00B48C06864216C
:100BE00090FBF1F000EE100AF8EEC00ADFF80C03FB
:100BF00090ED050A02F049FFFFE702E002F0A7FED0
:100C0000FFE7FFE77FBD0000C42600200008004882
:100C10000004004898270020402700200C270020CF
:100C20001FB5DFF8C045A07800280BD002281BD0E4
:100C300009D3042873D024D3062800F02581C0F0FE
:100C4000C18054E153E1DFF8A802DFF89C15CA68BF
:100C5000825C521CCB68C254CA68825C3A2A02DBAE
:100C60003022C968425442E160792179884202D237
:100C70002079401E2071F1220021A01C01F00FFDFF
:100C800035E1E07800280CD160792179884202D2E0
:100C90002079401E2071F1220021A01C01F0FFFCF0
:100CA0003CE020790C2802D00D2812D036E0E07804
:100CB000002802D0012801D00AE009E0DFF8280569
:100CC000C168B1F5807F02DAC168491CC160FFE7E5
:100CD00024E0E078002802D0012801D01EE01DE0C9
:100CE00000210800C0B20B2817DADFF8F424DFF87F
:100CF000F8040B00DBB252F82330C468A3420AD1D7
:100D00000B00DBB20A2B06DA0B00DBB202EB83022C
:100D10005268C26001E0491CE3E7FFE7E7E0E078E2
:100D200000280CD160792179884202D22079401EB6
:100D30002071F1220021A01C01F0B1FC41E02079DA
:100D4000112806D03DD313281FD010D314282AD041
:100D500037E0E078002802D0012801D006E005E065
:100D6000DFF88404C168491CC160FFE729E0E0782E
:100D7000002802D0012801D006E005E05F48C06BE2
:100D8000DFF86414C860FFE71BE0E078002802D0B9
:100D9000012801D006E005E0DFF84C04C168491CD9
:100DA000C160FFE70DE0E078002802D0012801D003
:100DB00006E005E05148C06BDFF82C14C860FFE77F
:100DC000FFE794E0E07800281BD160792179884220
:100DD00008D22079401E2071F1220021A01C01F0D0
:100DE0005EFC50E0F120039000200290142001905E
:100DF00011200090142300220421A01C01F072FC99
:100E000041E02079182806D03DD31A281FD010D3EE
:100E10001B282AD037E0E078002802D0012801D032
:100E200006E005E0DFF8C003C168491CC160FFE7C8
:100E300029E0E078002802D0012801D006E005E092
:100E40002E48C06BDFF8A013C860FFE71BE0E07816
:100E5000002802D0012801D006E005E0DFF8880371
:100E6000C168491CC160FFE70DE0E078002802D0AE
:100E7000012801D006E005E02048C06BDFF86813C8
:100E8000C860FFE7FFE732E0E07800280CD1607926
:100E90002179884202D22079401E2071F12200215E
:100EA000A01C01F0FCFB21E020791D2802D01E28A7
:100EB0000ED01BE0E078002802D0012801D006E027
:100EC00005E0DFF82403C168491CC160FFE70DE0BD
:100ED000E078002802D0012801D006E005E0DFF824
:100EE0000803C168491CC160FFE7FFE7FFE71FBDBA
:100EF00000000020D825002044270020982500204D
:100F0000482700201FB5DFF8DC42A07800280BD06E
:100F100002281BD009D3042870D024D3062800F05F
:100F20002A81C0F0D18057E156E1DFF88008DFF870
:100F3000B812CA68825C521ECB68C254CA68825C0E
:100F4000302A02DA3922C968425445E12079A17970
:100F5000884202D22079401C2071F1220021A01C7D
:100F600001F09DFB38E1E07800280CD12079A179CF
:100F7000884202D22079401C2071F1220021A01C5D
:100F800001F08DFB39E020790C2802D00D2810D01B
:100F900033E0E078002802D0012801D008E007E023
:100FA0009148C168012902DBC168491EC160FFE7A1
:100FB00023E0E078002802D0012801D01DE01CE0E9
:100FC0000A221000C0B2002816D0854B86491000B6
:100FD000C0B253F82000CC68A0420BD11000C0B2C0
:100FE000002807D01000C0B203EB800050F8040CBA
:100FF000C86001E0521EE4E7FFE7EDE0E07800287A
:101000001BD12079A17988420ED1F12003900020D4
:1010100002901B2001901820009018230022052127
:10102000A01C01F05FFB4EE02079401C2071F122F2
:101030000021A01C01F033FB45E02079112806D0E7
:1010400041D3132821D012D314282ED03BE0E078CE
:10105000002802D0012801D008E007E06248C168FA
:10106000012902DBC168491EC160FFE72BE0E0787F
:10107000002802D0012801D006E005E0DFF83007A3
:10108000C06B5949C860FFE71DE0E078002802D036
:10109000012801D008E007E05348C168012902DBBC
:1010A000C168491EC160FFE70DE0E078002802D06A
:1010B000012801D006E005E0DFF8F406C06B4A49DC
:1010C000C860FFE7FFE787E0E07800280CD12079CF
:1010D000A179884202D22079401C2071F12200219E
:1010E000A01C01F0DCFA45E02079182806D041D395
:1010F0001A2821D012D31B282ED03BE0E0780028FC
:1011000002D0012801D008E007E03748C168012972
:1011100002DBC168491EC160FFE72BE0E0780028D0
:1011200002D0012801D006E005E0DFF88406C06B9C
:101130002D49C860FFE71DE0E078002802D00128B3
:1011400001D008E007E02848C168012902DBC16836
:10115000491EC160FFE70DE0E078002802D00128B9
:1011600001D006E005E0DFF84806C06B1E49C86004
:10117000FFE7FFE730E0E07800280CD12079A17983
:10118000884202D22079401C2071F1220021A01C4B
:1011900001F085FA1FE020791D2802D01E280DD00D
:1011A00019E0E078002802D0012801D005E004E031
:1011B0000D48C168491EC160FFE70CE0E0780028D7
:1011C00002D0012801D005E004E00748C168491EAB
:1011D000C160FFE7FFE7FFE71FBD0000EC0A00204A
:1011E000740500200C270020C426002038B584B0E8
:1011F000DFF8C045A078002811D0022813D00FD303
:10120000042800F0868011D3062800F04782C0F041
:101210006481082800F0BA82C0F0B182C3E2C2E261
:101220000020A070BFE20020A070BCE220790C2852
:1012300002D00D2836D06BE0E078002802D00128DB
:1012400016D02EE0A51CF1200390002002900A2069
:10125000019007200090072300220221280001F0BE
:1012600041FA0622290014F1080000F027FD18E0D9
:10127000A51C0622290014F1080000F01FFDF12032
:101280000390DFF8340502900D2001900C200090AF
:101290000C23E078421ED2B20321280001F022FA8A
:1012A000FFE735E0E078002802D0012816D02EE0D4
:1012B000A51CF1200390002002900A200190072035
:1012C0000090072300220221280001F00BFA0622D9
:1012D000290014F1080000F0F1FC18E0A51C06221A
:1012E000290014F1080000F0E9FCF1200390DFF878
:1012F000CC0402900D2001900C2000900D23E0788A
:10130000421ED2B20321280001F0ECF9FFE7FFE70B
:1013100049E22079112808D0C0F0DE80132870D06F
:1013200039D3142800F0A380D6E0E078002802D05A
:10133000012816D02EE0A51CF12003900020029079
:101340000A20019007200090082300220221280093
:1013500001F0C8F90622290014F1080000F0AEFCE3
:1013600018E0A51C0622290014F1080000F0A6FCD4
:10137000F1200390DFF8480402901420019011201E
:1013800000901123E078421ED2B20421280001F01F
:10139000A9F9FFE7A0E0E078002802D0012816D0E4
:1013A0002EE0A51CF1200390002002900A2001905D
:1013B00007200090082300220221280001F092F962
:1013C0000622290014F1080000F078FC18E0A51CA2
:1013D0000622290014F1080000F070FCF1200390AF
:1013E000DFF8E003029014200190112000901223F6
:1013F000E078421ED2B20421280001F073F9FFE721
:101400006AE0E078002802D0012816D02EE0A51C62
:10141000F1200390002002900A2001900720009004
:10142000082300220221280001F05CF9062229008D
:1014300014F1080000F042FC18E0A51C0622290067
:1014400014F1080000F03AFCF1200390DFF8780373
:10145000029014200190112000901323E078421E86
:10146000D2B20421280001F03DF9FFE734E0E07832
:10147000002802D0012816D02DE0A51CF1200390F1
:10148000002002900A2001900720009008230022EB
:101490000221280001F026F90622290014F1080093
:1014A00000F00CFC17E0A51C0622290014F108002E
:1014B00000F004FCF1200390C44802901420019035
:1014C000112000901423E078421ED2B2042128009B
:1014D00001F008F9FFE7FFE765E12079182808D057
:1014E000C0F0DB801A286ED038D31B2800F0A08013
:1014F000D3E0E078002802D0012816D02DE0A51C0A
:10150000F1200390002002900A2001900720009013
:10151000082300220221280001F0E4F80622290015
:1015200014F1080000F0CAFB17E0A51C06222900F0
:1015300014F1080000F0C2FBF1200390A4480290CF
:101540001B200190182000901823E078421ED2B290
:101550000521280001F0C6F8FFE79EE0E0780028AA
:1015600002D0012816D02DE0A51CF1200390002008
:1015700002900A20019007200090082300220221F7
:10158000280001F0AFF80622290014F1080000F04D
:1015900095FB17E0A51C0622290014F1080000F0B5
:1015A0008DFBF12003908B4802901B2001901820A6
:1015B00000901923E078421ED2B20521280001F0E4
:1015C00091F8FFE769E0E078002802D0012816D002
:1015D0002DE0A51CF1200390002002900A2001902C
:1015E00007200090082300220221280001F07AF849
:1015F0000622290014F1080000F060FB17E0A51C8A
:101600000622290014F1080000F058FBF120039095
:10161000714802901B200190182000901A23E07856
:10162000421ED2B20521280001F05CF8FFE734E049
:10163000E078002802D0012816D02DE0A51CF1206A
:101640000390002002900A200190072000900823B8
:1016500000220221280001F045F80622290014F199
:10166000080000F02BFB17E0A51C0622290014F14E
:10167000080000F023FBF1200390584802901B2043
:101680000190182000901B23E078421ED2B2052161
:10169000280001F027F8FFE7FFE784E020791D2804
:1016A00002D01E2835D069E0E078002802D0012859
:1016B00016D02DE0A51CF1200390002002900A20F6
:1016C000019007200090072300220221280001F04A
:1016D00009F80622290014F1080000F0EFFA17E0DB
:1016E000A51C0622290014F1080000F0E7FAF120F9
:1016F00003903B4802901E2001901D2000901D2366
:10170000E078421ED2B20621280000F0EBFFFFE78E
:1017100034E0E078002802D0012816D02DE0A51C86
:10172000F1200390002002900A20019007200090F1
:10173000072300220221280000F0D4FF06222900FE
:1017400014F1080000F0BAFA17E0A51C06222900DF
:1017500014F1080000F0B2FAF12003902148029041
:101760001E2001901D2000901E23E078421ED2B260
:101770000621280000F0B6FFFFE7FFE713E006228E
:1017800014F10801A01C00F099FA0CE0164D28781D
:10179000022807D0062214F10801A01C00F08EFADE
:1017A00000202870FFE705B030BD000000000020D9
:1017B000982500200C270020D9250020DC250020BA
:1017C000F8250020B8250020FC250020C025002099
:1017D00000260020C825002004260020D025002057
:1017E000F0250020F4250020D8250020F8B40300BF
:1017F00000250868E840002800F0D78001260F681F
:1018000016FA05F007403A00002A00F0CC8008796B
:1018100010F00300012804D0087910F0030002281A
:101820001DD19F685FF0030C2800C0B240001CFA75
:1018300000FC37EA0C07D1F80CC02800C0B2400009
:101840001CFA00FC5CEA07079F605868AE40B04392
:101850004E68C6F30016AE40304304005C60087961
:1018600010F0030003280ED0DE6803272800C0B262
:1018700040008740BE438F682800C0B240008740C8
:101880003E433400DC60087910F00300022818D1D0
:101890002800C00803EB8000066A0F2715F0070038
:1018A000C0B280008740BE430F6915F00700C0B288
:1018B000800087403E4334002800C00803EB8000CE
:1018C00004621E6803272800C0B240008740BE4360
:1018D0000F7917F003072800C0B2400087403E434D
:1018E00034001C60486810F4403F5CD0954806689E
:1018F00056F001060660006810F0010000900098A4
:10190000914F2800800857F820605FF00F0C15F009
:101910000300C0B280001CFA00FC36EA0C06B3F1EA
:10192000904F01D1002414E08848834201D1012462
:101930000FE08748834201D102240AE085488342B0
:1019400001D1032405E08448834201D1042400E04E
:10195000072415F00300C0B280008440264328000D
:10196000800847F820607D4C206890434F68FF0254
:1019700000D5104320607A4E346894434F68BF020C
:1019800000D514433460774E306890434F68BF03EE
:1019900000D510433060744E346894434F68FF03A1
:1019A00000D5144334606D1C23E7F1BC70472DE96A
:1019B000F041030000250800E840002800F0A8805E
:1019C000012616FA05F008400200002A00F09E8069
:1019D000DFF874C1280080085CF820000F2715F09C
:1019E000030E5FFA8EFE5FEA8E0E17FA0EFE1EEAF7
:1019F00000000400B3F1904F02D15FF0000E19E037
:101A00005248834202D15FF0010E13E050488342F6
:101A100002D15FF0020E0DE04E48834202D15FF02A
:101A2000030E07E04C48834202D15FF0040E01E050
:101A30005FF0070E15F00300C0B280001EFA00FE32
:101A400074452CD14848D0F800E03EEA020EC0F8B8
:101A500000E04448D0F800E03EEA020EC0F800E0A2
:101A60003F48D0F800E03EEA020EC0F800E03B48F4
:101A7000D0F800E03EEA020EC0F800E015F00300E6
:101A8000C0B2800017FA00F00400280080085CF85B
:101A90002000A043AE465FEA9E0E4CF82E005FF099
:101AA000030C1868AE465FFA8EFE5FEA4E0E1CFA13
:101AB0000EFE5EEA000018602800C00803EB800EEE
:101AC0002800C00803EB8000D0F8208015F0070044
:101AD000C0B28000874038EA0707CEF820709868C7
:101AE0002F00FFB27F001CFA07F7B84398605868D0
:101AF000AE4030EA06065E60DE682800C0B24000F4
:101B00001CFA00FC36EA0C0CC3F80CC06D1C52E742
:101B1000BDE8F081020010690B009BB2184201D0B1
:101B2000012000E00020C0B270471300DBB2002BA0
:101B300003D00B009BB2836102E00B009BB2836277
:101B40007047000060100240080001400004004897
:101B500000080048000C004800100048080401403C
:101B60000C040140040401400004014038B50400A5
:101B70000D00DFF8FC010168200000F006F8A84223
:101B800001D3012000E0002032BD814204D25FF089
:101B9000FF32101A081800E0081A704738B52DED0A
:101BA000048B08EE100A0C001500DFED438A2800B4
:101BB000C0B2FB2810DBB8EEC89A2800C0B2404281
:101BC000C0B200F08BF829EE009A00212000B0EEA0
:101BD000490A00F0B1F80EE0B8EEC89A2800C0B289
:101BE00000F07CF889EE009A2900C9B22000B0EE1E
:101BF000490A00F0A1F8BDEC048B31BD10B40021FE
:101C00000A00838892B29A4206D2002203680C002E
:101C1000A4B21A55491CF3E70022828010BC704719
:101C200010B4040013005A1E9BB2002B02D0217086
:101C3000641CF7E710BC704770B504000D00160077
:101C4000DFF8240100782100C9B2884209D3DFF807
:101C500024211068002804D0310089B228001268BD
:101C6000904770BD38B504000D00280002F052FD09
:101C7000020092B229002000C0B2FFF7DDFF31BDA3
:101C800070B504000D00280002F044FD020092B27D
:101C900029002000C0B2FFF7CFFFDFF8DC6030681A
:101CA000002807D0280002F035FD010089B2280085
:101CB0003268904770BD00000000000030B404009E
:101CC0000D0013005A1E9BB2002B04D02B782370FA
:101CD0006D1C641CF5E730BC7047000010B50400B3
:101CE0002000C0B2FB2816DB2000C0B2D0F5807007
:101CF00002F048FD41EC110B9FED200B02F05BFD63
:101D000053EC102B0020194902F05EFD02F080FE1A
:101D100000EE100A0FE02000C0B202F0ADFE41EC70
:101D2000110B9FED160B02F046FD51EC100B02F06B
:101D30006FFE00EE100A10BD38B52DED028B82B09B
:101D4000B0EE408A04000D0018EE100A02F0A2FE68
:101D5000CDE900012A000B49200002F0BFFE02B0CD
:101D6000BDEC028B31BD0000F00A00200000F03F06
:101D70007C2700208427002080270020000000000E
:101D800000002440E0ED000838B500224FF4007157
:101D9000DFF87C0AFFF7C9FE00224FF400715FF004
:101DA0009040FFF7C2FE02F0B9FEDFF8680ADFF8E4
:101DB000681A4A1CC0F828210A1DC0F8402111F1F8
:101DC0001002026211F11402826311F10802C0F8DC
:101DD0007021DFF8483A13F13C04C0F8884111F152
:101DE0002005C0F8A05113F12005C0F8B85111F139
:101DF0002405C0F8D05113F12805C0F8E851C0F807
:101E00001822C0F8304211F12802C0F8482213F11C
:101E10003002C0F860222C31C0F8781213F138017A
:101E2000C0F89012DFF8F8190968C0F82013DFF83D
:101E3000F4190968C0F8501331BD38B500200024EA
:101E40002000C0B2072835DADFF8DC592000C0B224
:101E500000012844407801282AD12000C0B20001A6
:101E60002844406800280ED002F0A8FE2100C9B224
:101E7000090129444968401A2100C9B209012944CD
:101E80008968884214D300202100C9B2090129447D
:101E9000487002F093FE2100C9B20901294448604C
:101EA0002000C0B22100C9B209012944C96888478D
:101EB000641CC5E7002032BD38B50400DFF86C595A
:101EC000687800281FD100224FF40071DFF8400924
:101ED000FFF72BFE00224FF400715FF09040FFF7F8
:101EE00024FE02F01BFE89200090202307220521FA
:101EF000DFF83C0902F068FE012068700221DFF87B
:101F0000280902F0A9FF012032BD7CB50400DFF8EA
:101F100024592878002803D0022823D003D33DE099
:101F200002F0C4FF3AE003F023F889200090202358
:101F300007220521DFF8F80802F046FEDFF8F8284E
:101F400003212C2002F05AFFDFF8F028042108209A
:101F500002F054FF03F07BF841F28830DFF8C81834
:101F600088611BE00120DFF8C418487089200090C8
:101F7000202307220521DFF8B80802F025FEDFF84C
:101F8000A8680221300002F067FF0321300002F050
:101F900063FF0421300002F05FFFFFE72878401C58
:101FA00028702100C9B2DFF8800802F064FF012028
:101FB00076BD70B5040000F0BFF8DFF8705868789F
:101FC000012803D1A87800F041FB04E00021DFF8EC
:101FD000580802F041FFDFF86808A97802789142BA
:101FE00007D0A9780170DFF85C080068DFF858189E
:101FF0000860A878092812D1DFF84C684FF4FA611C
:102000003068FFF7B3FD012809D1DFF83808006810
:102010003060062215F10801A81CFFF74FFE2100D1
:10202000C9B2DFF8040802F026FF012070BD10B528
:102030000400DFF81818DFF818080069FFF796FDAC
:10204000012827D1DFF80C080178012905D10021EA
:1020500001700020DFF8D4178870DFF8FC070188D2
:10206000491C018042F21071DFF8BC272300DBB26B
:102070001B011A449268B1FBF2F102888A420DD327
:1020800000210180DFF8A4178878002806D00020FE
:10209000887003E00120DFF8BC1708702100C9B286
:1020A000DFF8840702F0E7FE012010BD38B5040018
:1020B000FEF786F8DFF89857287A01280BD105211A
:1020C000DFF8640702F0C8FEDFF8780700682861CF
:1020D000322000F01FF82100C9B2DFF84C0702F0EF
:1020E000CAFE012032BD10B50400FEF74FF8DFF83C
:1020F00060070021017000210172012010BD10B5A0
:10210000040000224FF40051DFF80407FFF70DFD33
:10211000012010BD10B5040001224FF40051DFF87A
:10212000F006FFF702FDDFF80007210089B28166A3
:10213000062102F0A0FE10BDDFF8DC06DFF81C1758
:102140000A784270DFF81827497852F82110416068
:102150009FED2A0ADFF8C416D1ED010A60EE800A6D
:10216000FDEEE00AC0ED020AD1ED020A60EE800A3F
:10217000FDEEE00AC0ED030AD1ED030A60EE800A2D
:10218000FDEEE00AC0ED040AD1ED040A60EE800A1B
:10219000FDEEE00AC0ED050AD1ED050A60EE800A09
:1021A000FDEEE00AC0ED060AD1ED060A60EE800AF7
:1021B000FDEEE00AC0ED070AD1ED070A60EE800AE5
:1021C000FDEEE00AC0ED080AD1ED090A60EE800AD2
:1021D000FDEEE00AC0ED090AD1ED0B0A60EE800ABF
:1021E000FDEEE00AC0ED0A0AD1ED0D0A20EE800AEC
:1021F000BDEEC00A80ED0B0A704700000000C84227
:102200002DE9F84F8AB006002021002202AC200000
:1022100002F076FF0024002500208DF80500002044
:102220008DF806001827DFF8EC853000C0B278433F
:10223000404490F815903000C0B278434044406864
:10224000002842D001213000C0B200F0A9F90028D6
:102250000ED13000C0B27843404442683000C0B272
:1022600078434044017D4846C0B202F0C7FD1EE0FD
:102270005FF0000A3000C0B278434044406802F08A
:1022800049FA5146C9B2814207D2202002A95246DA
:10229000D2B288541AF1010AECE702AA3000C0B2A7
:1022A00078434044017D4846C0B202F0A7FD3000AB
:1022B000C0B278434044406802F02CFADFF8A4151D
:1022C0000979491C484310FA89F93000C0B27843B3
:1022D00040448068002800F03A813000C0B2784362
:1022E0004044007B00280BD002281ED012D30428C3
:1022F00030D024D3062845D036D307283ED044E03A
:102300003000C0B278434044806800780021040067
:102310000D003AE03000C0B278434044806890F944
:102320000000C11704000D002FE03000C0B2784358
:10233000404480680088002104000D0025E0300042
:10234000C0B2784340448068B0F90000C11704006F
:102350000D001AE03000C0B2784340448068006845
:10236000002104000D0010E03000C0B2784340446A
:1023700080680068C11704000D0006E001208DF898
:10238000050002E002208DF805009DF805000028F8
:102390000CD13000C0B278434044407B4042020040
:1023A000D2B202A92000FFF7F9FB26E09DF8050054
:1023B00001281AD13000C0B278434044806802F04E
:1023C000A9F9202819D23000C0B27843404480686F
:1023D00002F0A0F9020092B23000C0B2784340444B
:1023E000816802A8FFF76AFC07E03000C0B27843BA
:1023F0004044806800788DF8080002213000C0B2A7
:1024000000F0CEF8012823D13000C0B27843404418
:10241000807DC0B200098DF806009DF806000F28E7
:1024200005D0202002A99DF80620885410E05FF016
:10243000000A02A802F06EF95146C9B2814207D2E1
:10244000202002A95246D2B288541AF1010AF0E7BC
:102450003000C0B201285ED15FF0000A00208DF884
:1024600004003000C0B278434044407B002802D0D2
:1024700009208DF80400392000902E2315220F2109
:10248000DFF8E40302F070FE02A802F043F983468D
:10249000DFF8D0030079401C00FB0BFB5846C0B2AC
:1024A000022190FBF1F01F280BDA5846C0B202213E
:1024B00090FBF1F0D0F140009DF8041050FA81FA41
:1024C00007E05846C0B2D0F15F009DF8041050FA02
:1024D00081FA02AA3000C0B278434044007D401C1B
:1024E000C0B2DFF880134979D1EBC001491EC9B2EF
:1024F0005046C0B202F0E2FF5AFA8BF09DF8049009
:10250000B0EB090989200090202307220521C84843
:1025100002F05AFB1BE089200090202307220521AE
:10252000C34802F051FB02AA3000C0B278434044D5
:10253000017D4846C0B202F061FC02A802F0EAF850
:10254000C8490979491C484310FA89F0814630008E
:10255000C0B278434044006900281ED03000C0B2A9
:10256000784340448068002817D03000C0B27843D8
:1025700040448068BD4988420FD03000C0B27843E3
:10258000404402693000C0B207FB00F708EB0700C7
:10259000017D4846C0B202F031FC0BB0BDE8F08FBF
:1025A000F8B504000D009B492200D2B21820424326
:1025B00001EB0200817D2800C0B201402800C0B2BA
:1025C00081422FD19826AA4F4FF496712800C0B2AD
:1025D000704338442200D2B250F82200FFF7C6FA06
:1025E00001282AD12800C0B206FB00F607EB06003E
:1025F0002100C9B2934A126840F8212026209D4943
:102600002A00D2B242430A442300DBB22E00F6B2C3
:1026100000FB06F008442100C9B2405CD0F1010083
:10262000D0540AE093492A00D2B22620424301EB5B
:1026300002002100C9B2002242548E49EDB2262088
:10264000454301EB0500E4B2005DF2BD70B5040046
:10265000002602F08DFC00F077F82000C0B200F0F8
:102660007DF82000C0B200F0A1F80025280080B25B
:10267000262811DA67492A0092B21820424301EB5A
:102680000200C07D2100C9B2884203D12800C0B237
:10269000FFF7B6FD6D1CE9E702F0D9FC70BDF0B4A0
:1026A0004271C47803792500EDB2AB420AD3F0251C
:1026B000584E2700FFB218235F4306EB07039D75B2
:1026C000641CEFE71823534C85785D432544467915
:1026D000AE75002904D0857803FB05F32344996087
:1026E000F0BC70472DE9F84F0700884691469A469E
:1026F0000A9E0B9DDDF830B00D9C87F8008087F8AE
:10270000019087F802A0FE703D712200D2B25946B6
:102710003800FFF7C4FFBDE8F18F10B401000022BC
:102720001000C0B204280CD21000C0B2085C524B9A
:102730001400E4B21B5D984201D0002002E0521C5C
:10274000EEE7012010BC704780B5012000900823FF
:102750007F220821002002F035FF01BD70B5040082
:102760002000C0B2002820D12C48007800280ED1CB
:10277000284D25A6320095F82C10782002F03EFB5B
:10278000320095F84410782002F038FB0DE01FA6C7
:10279000204D320095F82C10782002F02FFB3200EB
:1027A00095F84410782002F029FB70BD0100C9B2F1
:1027B000082924D118490978002906D002290ED009
:1027C00008D3042915D00FD318E02C49114AC2F8B8
:1027D000681318E02A490F4AC2F8681313E0294920
:1027E0000C4AC2F868130EE027490A4AC2F8681377
:1027F00009E02649074AC2F8681304E003E01F49CC
:10280000044AC2F868137047200000004E00000020
:1028100000080048D8000020D82500209825002076
:10282000000500207C0000200C0000200C27002068
:1028300038E2000899270020A8EB0008C0E700084C
:102840009A2700207C27002058270020C027090055
:10285000C42600209B2700208C270020EC0A0020A3
:10286000740500201C27002010E00008EE0A00205C
:10287000A41D002084230020840000208800002064
:1028800098000020A8000020B8000020C800002008
:1028900001000800C0B2002801D1012021E0080099
:1028A000C0B2FF2801D10A201BE00800C0B2FE28F8
:1028B00001D1642015E00800C0B2FD2802D14FF418
:1028C0007A700EE00800C0B2FC2802D142F210700B
:1028D00007E00800C0B2FB2802D1DFF8C00600E024
:1028E000012070472DE9F24F8246934600200021D7
:1028F0000A260027B046B946009A1588BBF1000F9A
:1029000008D5DBF100042D202A0092B20AF802005B
:102910006D1C00E05C462000002142464B4602F060
:10292000EBFE002901D1002808D0A6FB080106FB18
:10293000091107FB081180468946ECE740464946E5
:102940000A22002302F0D8FE06000F00002F01D15A
:10295000002E28D02000002132003B0002F0CCFEE7
:102960003030290089B20AF801006D1CA0465FF0E2
:1029700000092000002132003B0002F0BDFEA6FB52
:10298000002306FB013307FB0033B8EB020079EBB1
:1029900003010400300039000A22002302F0ACFEDB
:1029A00006000F00D2E7009805802800C0B2BDE8FD
:1029B000F28F2DE9FE4F06000F0090460020ADF883
:1029C00000000020002400215FF0000BB7F8009009
:1029D000B8F1000F02D5D8F1000500E045464246A7
:1029E00039003000FFF77EFFB7F800A0002D4FD070
:1029F0009DF80800FFF74CFF01008D4205D20A2028
:102A000045431BF1010B002DF7D15846C0B20028F9
:102A100021D050460200D2B2324412F8012C2D2AA5
:102A200006D00200D2B24B4692B29BB29A4208D173
:102A300030220300DBB2F2541AF1010ABBF1010BA0
:102A4000E3E70200D2B2324412F8012C0300DBB2F9
:102A5000F254401EDEE70A20B1FBF0F450468346F4
:102A6000002C15D00A20B4FBF0F45846C0B2304414
:102A700010F8010C5946C9B27054BBF1010B002C7F
:102A8000EED12E205946C9B270541AF1010AE7E777
:102A9000A7F800A05046C0B2BDE8FE8FF0B4049C79
:102AA00000252E00B6B2A6420BD20E88771C0F80EE
:102AB0002F00BFB217FA83F7D75DB6B287556D1CEA
:102AC000EFE7F0BC704700002DE9F34F81B02DED2A
:102AD000028B9FED658A002401250026F7EE008A0F
:102AE00000273800C0B2202864DA0398F84010F0BC
:102AF000010004003800C0B2172829DA18EE900A45
:102B000001F0C8FF82468B462000C0B201F0B4FF3E
:102B1000804689463800C0B2D0F117005FF0FF311F
:102B2000484301F02FFE41EC110B9FED500B01F0DB
:102B300042FE51EC100B42464B4602F0F5FE524667
:102B40005B4602F0C3FF01F063FF08EE900A2FE03E
:102B50003800C0B21F2824DA3000C0B201F08CFF68
:102B600082468B462000C0B201F086FF804689462F
:102B70003800C0B2173801F005FE41EC110B9FED93
:102B80003B0B01F018FE51EC100B42464B4602F095
:102B9000CBFE52465B4602F099FF03F055F8060063
:102BA00006E02000C0B2012802D15FF0FF3005002E
:102BB0007F1C96E7280040B201F0E4FD804689467C
:102BC0003000C0B27F3801F0DDFD41EC110B9FED0C
:102BD000270B01F0F0FD51EC100B42464B4602F082
:102BE000A3FE8046894618EE900A01F053FF424644
:102BF0004B4602F099FE01F00BFF00EE100A04981C
:102C000080ED000ABDEC028BBDE8F78F70B40300C5
:102C100000220024002000252A000E00D2B2F6B2C5
:102C2000B2421FD22A00D2B29A5C302A0ADB2A00B2
:102C3000D2B29A5C3A2A05DA2A00D2B29A5C303AC9
:102C4000140001E0002214002A00D2B2002A03D1AD
:102C50002200D2B2100003E00A22504350FA84F05E
:102C60006D1CD9E770BC7047000000000000000038
:102C700000000040F8B52DED028B82B004000D007D
:102C80000020009000269FED4E8A0027DFED568A37
:102C900069462000FFF718FF2800C0B200280AD0BC
:102CA000FB2836D0FC282BD0FD2820D0FE2815D0BC
:102CB000FF2809D036E09FED420AB0EE408A9FED32
:102CC0004A0AF0EE408A2DE00A2000EE100AB0EE2B
:102CD000408A9FED3C0AF0EE408A23E09FED3A0ADD
:102CE000B0EE408A9FED390AF0EE408A1AE09FED7F
:102CF000380AB0EE408A9FED370AF0EE408A11E0C4
:102D00009FED350AB0EE408A9FED340AF0EE408A1E
:102D100008E09FED330AB0EE408A9FED320AF0EEF4
:102D2000408AFFE79DED000AB5EE400AF1EE10FA89
:102D30001BDBB8EE480ADDED000A20EE200AF2EEB9
:102D4000040A20EE200ABCEEC00A10EE100A0A2285
:102D5000B0FBF2F102FB1101052923D39DED000A1E
:102D600030EE280A8DED000A1CE0B8EE480ADDEDD1
:102D7000000AF1EE600A20EE800AF2EE040A20EE6C
:102D8000200ABCEEC00A10EE100A0A22B0FBF2F1D3
:102D900002FB1101052905D39DED000A30EE680AFA
:102DA0008DED000AB8EE480ADDED000A20EE200A9B
:102DB000BDEEC00A10EE100A02B0BDEC028BF2BDEF
:102DC00001000000CDCCCC3D640000000AD7233CBC
:102DD000E80300006F12833A1027000017B7D138BC
:102DE000A0860100ACC52737000000002DE9F041A6
:102DF0002DED028B07000E009FED678A3000C0B2F8
:102E000000280BD0FB2800F09E80FC2877D0FD28FE
:102E100051D0FE282CD0FF2807D0B7E000EE107A62
:102E2000B8EEC00AB0EE408AB0E00A2097FBF0F09E
:102E300000EE100AB8EEC00A5FF00A0810EE100AA1
:102E400001F028FE04000D0097FBF8F008FB107855
:102E5000404601F097FC524A524B02F065FD2200B9
:102E60002B0002F033FE01F0D3FD08EE100A8DE0D6
:102E7000642097FBF0F000EE100AB8EEC00A5FF095
:102E8000640810EE100A01F005FE04000D0097FB27
:102E9000F8F008FB1078404601F074FC424A434BBE
:102EA00002F042FD22002B0002F010FE01F0B0FD06
:102EB00008EE100A6AE04FF47A7097FBF0F000EE2B
:102EC000100AB8EEC00A4FF47A7810EE100A01F03A
:102ED000E1FD04000D0097FBF8F008FB1078404678
:102EE00001F050FC324A334B02F01EFD22002B0051
:102EF00002F0ECFD01F08CFD08EE100A46E042F213
:102F0000107097FBF0F000EE100AB8EEC00A42F223
:102F1000107810EE100A01F0BDFD04000D0097FBC3
:102F2000F8F008FB1078404601F02CFC224A234BB5
:102F300002F0FAFC22002B0002F0C8FD01F068FD4F
:102F400008EE100A22E0154897FBF0F000EE100A98
:102F5000B8EEC00ADFF8448010EE100A01F09AFDC6
:102F600004000D0097FBF8F008FB1078404601F0D4
:102F700009FC134A134B02F0D7FC22002B0002F08D
:102F8000A5FD01F045FD08EE100AFFE7B0EE480A86
:102F9000BDEC028BBDE8F08100000000A0860100BE
:102FA0009A9999999999B93F7B14AE47E17A843FF0
:102FB000FCA9F1D24D62503F2D431CEBE2361A3F83
:102FC000F168E388B5F8E43E10B42DED010A002065
:102FD0006A460023042B07D2D45C1900C9B2C90089
:102FE0008C4020435B1CF5E712BC704701000120B8
:102FF000704730B587B004001421002202AD2800CC
:1030000002F07EF8DFF8D40BD0E90023CDE90023ED
:1030100002A80090DFF8C85B2978684600F0ADFA96
:1030200028786870BDF80410009800F00FFDDFF8F4
:10303000B40B8078001F012809D82878022803DA09
:103040002878401C287001E00020287001E0002052
:103050002870DFF88C5C0221280001F0FDFE0321BE
:10306000280001F008FF2100C9B2280001F003FF89
:10307000012007B030BD10B50400DFF86C1B888854
:10308000002810D0DFF8640B02888B889A4208D1A0
:10309000002101800221DFF8480C01F0DDFE012053
:1030A00008E0898801802100C9B2DFF8340C01F002
:1030B000E2FE012010BD2DE9F041040000250026AC
:1030C000DFF8247BB88803283DDB3868B9880844DA
:1030D00010F8010C3968BA88114411F8021C51EA41
:1030E00000210E00B988891E386802F0CAFD05006B
:1030F0002800310080B289B288421DD10821DFF852
:10310000E00B01F0B8FE3868007801280DD1DFF837
:10311000D08A012198F8010000F048FA98F80120BF
:10312000D7E9000100F032FA13E00021DFF8B00A1D
:10313000407800F03BFA0CE00021DFF8A40A407868
:1031400000F034FA05E00021DFF8940A407800F03E
:103150002DFADFF88C0A407800F08EF80221DFF8B3
:10316000800B01F09AFE0120BDE8F0810100DFF83C
:10317000380C0278032A01D0042202700120704723
:1031800010B504002100C9B2DFF8540B01F073FE42
:10319000012010BD10B504002100C9B2DFF8400BBA
:1031A00001F069FE012010BD38B50400DFF8345B82
:1031B000287800280DD101220121DFF82C0BFEF721
:1031C000B4FC0520DFF8181B88672878401C28709D
:1031D0000CE000220121DFF8100BFEF7A6FC4FF4F3
:1031E000FA70DFF8FC1A8867002028702100C9B245
:1031F000DFF8EC0A01F03FFE012032BD38B50400D3
:10320000DFF8E81A087800281AD101200870DFF8E2
:103210003C5B012210212800FEF787FC00220821D8
:103220002800FEF782FC00220421DFF8240BFEF7C1
:103230007CFC4FF4FA60DFF8A81AC1F8880013E0AC
:103240000020087001220821DFF8000BFEF76DFC5A
:1032500001220421DFF8F80AFEF767FC4EF6602031
:10326000DFF87C1AC1F888002100C9B2DFF8700AC3
:1032700001F001FE012032BD38B52DED028B0400B6
:103280009FEDBB8A2000C0B200283ED1DFF8A05CD1
:1032900095ED010ABDEEC00A10EE100A00F09EF88E
:1032A00085ED010A95ED010A00F002F985ED030AAA
:1032B00095ED020A00F060F985ED040A95ED040A27
:1032C000D5ED060A30EE200A85ED040A95ED030AD5
:1032D000D5ED050A30EE200AB0EE408A9FEDA50A32
:1032E000B4EE408AF1EE10FA02DBB2EE040A09E015
:1032F000B5EE408AF1EE10FA02D59FED9D0A01E08D
:10330000B0EE480A85ED030AFFE7DFF8245C287871
:10331000002807D10020686095ED010A00F0C8F888
:1033200085ED030A2878002807D10020A86095EDD4
:10333000020A00F021F985ED030ABDEC028B31BDD4
:103340002DE9F04100242500EDB20A2D43DA0025D5
:103350002E00F6B2092E3CDA2E00F6B201EB8606FC
:1033600076682F00FFB251F82770BE422FDA002690
:103370002F00FFB251F82770AC465FFA8CFC01EBCE
:103380008C0CDCF804C0AE465FFA8EFE41F82EC00D
:10339000AC465FFA8CFC01EB8C0CCCF80470AC46AC
:1033A0005FFA8CFC50F82CC0AE465FFA8EFE00EB44
:1033B0008E0EDEF804E0A8465FFA88F840F828E0B0
:1033C000AE465FFA8EFE00EB8E0ECEF804C06D1C8A
:1033D000BEE7641CB7E7BDE8F081000038B52DED0D
:1033E000028B04009FED628ADFF8A81A0878002893
:1033F0002AD10120087000210800C0B20A2815DA7D
:103400000800C0B2DFF8F82B0B00DBB242F8230053
:10341000DFF8842A0800C0B252F82000002803D147
:103420000800C0B242F82040491CE5E7DFF8685ABE
:10343000092300222900DFF8C80BFFF781FF95ED73
:10344000050AB8EEC00A30E000200100C9B20A291E
:103450001EDADFF8AC1B0200D2B251F82220092A92
:103460000BD100220300DBB241F82320DFF8281A39
:103470000200D2B241F8224008E00200D2B251F874
:103480002220521C0300DBB241F82320401CDCE761
:10349000DFF8045A092300222900DFF8640BFFF744
:1034A0004FFF95ED050AB8EEC00ABDEC028B31BDA9
:1034B000F0EE400A9FEDAD1A9FEDAD3ADFED2C3AEC
:1034C000F5EE400AF1EE10FA40D0F0EE603A9FEDD2
:1034D000A90ADFF8340B90ED004A34EE634AB4EEEB
:1034E000404AF1EE10FA08DA90ED004A33EEC44A91
:1034F000B4EE404AF1EE10FA03DB9FED9F0A21EE95
:10350000001ADFF8700A90ED000AF0EE401ADFF8BA
:10351000681A91ED000A30EE010AB0EE402A32EE50
:10352000030A82EE000AF0EE402A33EEE10AB0EE22
:10353000614A00EE224A80ED004AB7EE000A30EE02
:10354000620A20EE020A81ED000A08E0DFF8280A8C
:103550005FF07E510160DFF81C0A00210160DFF896
:10356000140ADFF8A41A02680A6090ED000A704796
:103570000000000001002041704738B504000D0034
:103580002900C9B2200000F01BF831BD70B504005D
:103590000D00160020000078C0B2012805D13200CD
:1035A000D2B22000290000F0E9F870BD38B504005F
:1035B0000D002900C9B22000C0B200F077F931BD7A
:1035C0003EB504000D002800C0B2002812D0022829
:1035D00022D018D304283CD027D3062861D04CD35E
:1035E000082800F0868070D30A2800F0AA80C0F076
:1035F0009480BAE0042000900123032201212000DE
:1036000002F05DFBB1E002200090182303220121AB
:10361000200002F054FBA8E0102000902923032290
:103620000121200002F04BFB9FE0DFF8E0098188D8
:1036300004290DD1016801918088022190FBF1F0ED
:1036400080B20090292310220121200002F085FB86
:103650008BE0DFF8B809818804290DD10168019158
:103660008088022190FBF1F080B200902B23102281
:103670000121200002F071FB77E0DFF890098188DA
:1036800004290DD1016801918088022190FBF1F09D
:1036900080B200902D2310220121200002F05DFB5A
:1036A00063E0DFF86809818804290DD10168019180
:1036B0008088022190FBF1F080B200902F2310222D
:1036C0000121200002F049FB4FE0DFF8400981882A
:1036D00004290DD1016801918088022190FBF1F04D
:1036E00080B20090312310220121200002F035FB2E
:1036F0003BE0DFF81809818804290DD101680191A8
:103700008088022190FBF1F080B2009033231022D8
:103710000121200002F021FB27E0DFF8F00881887A
:1037200004290DD1016801918088022190FBF1F0FC
:1037300080B20090352310220121200002F00DFB01
:1037400013E0DFF8C808818804290DD101680191D0
:103750008088022190FBF1F080B200903723102284
:103760000121200002F0F9FAFFE737BD95BFD633FB
:1037700017B7D138CDCC4C3E00007A442DE9F74F35
:1037800082B00020ADF8000000249DF81000002851
:1037900008D0401E21D0401E30D0401E072840F2E5
:1037A0007F8080E00320ADF8000004226946029883
:1037B00000F019F90500DFF85868311D2800FFF7FF
:1037C00083F904226946029800F00DF9040016F10D
:1037D00008012000FFF778F965E00320ADF800004C
:1037E00004226946029800F0FEF80400002120003F
:1037F000FFF740FADFF81818C86354E00320ADF86B
:10380000000004226946029800F0EDF80190DFF80C
:1038100000B81BF11C010198FFF756F90422694614
:10382000029800F0E0F80500CBF820500422694629
:10383000029800F0D8F806001BF124013000FFF7D1
:1038400043F904226946029800F0CDF80700CBF84E
:10385000287004226946029800F0C5F880461BF1E2
:103860002C014046FFF730F904226946029800F027
:10387000BAF88146CBF8309004226946029800F0ED
:10388000B2F882461BF134015046FFF71DF90422BD
:103890006946029800F0A7F80400CBF8384002E02F
:1038A00000F04AF8FFE705B0BDE8F08F0200D2B2A1
:1038B000002A0A2A1BD80A00D2B2012A0ED1DFF848
:1038C000702600235370012313700200D2B2002A25
:1038D0000CD10122DFF83C37DA7007E0DFF8502620
:1038E0005378032B02DA53785B1C5370FFE7DFF841
:1038F00040365A78002A1ED05A78032A1BDB002251
:103900001A7000225A6000229A600022DA610022B6
:103910001A6200225A6200229A620022DA620022AF
:103920001A6300225A6300229A630022DA6300229B
:10393000DFF8E036DA70704780B50320DFF86814EE
:1039400008700421DFF8980301F0A7FA01BD80B5E3
:10395000DFF8C4060078A24908700220DFF8481496
:1039600008700421DFF8780301F085FA01BD2DE924
:10397000F04104000D0016002F00DFF8908640464D
:10398000FEF73CF9300080B2022802D004280BD0A8
:103990001DE07878D8F8001008703878D8F8001052
:1039A0004870A8F8046015E07878D8F8001008701E
:1039B0003878D8F800104870F878D8F80010887077
:1039C000B878D8F80010C870A8F8046002E00020A9
:1039D000A8F80400DFF8400604700120DFF83C1668
:1039E0000870BDE8F081F0B4030000200C881500D9
:1039F000EDB2042D16D12500ADB21D44AE782500E0
:103A0000ADB21D44ED7855EA06252600B6B29E5D9E
:103A10002700BFB21F447F7857EA062757EA0547B9
:103A200038000DE01500EDB2022D09D12500ADB230
:103A30005D5D2600B6B21E44767856EA0526300053
:103A40000D8855FA82F50D80F0BC704770B5040002
:103A50000D00A54E01224FF480513000FEF765F8AD
:103A60000A2002F0B7FA02F0C9FA4FF47A732A007A
:103A700092B22100DFF8A80502F037FB00224FF4D4
:103A800080513000FEF751F870BD2DE9F0412DED69
:103A9000028B8EB0F0EE408AB0EE608A32210022B6
:103AA0006C46200001F02CFB002700240025DFF8E5
:103AB0008084C8ED058A88ED068A98ED050AFFF72F
:103AC00083FA060098ED060AFFF77EFA80466846FC
:103AD0003100090E3A00D2B281547F1C3100090C2A
:103AE0003A00D2B281547F1C3100090A3A00D2B2A6
:103AF00081547F1C3900C9B246547F1C4146090ECF
:103B00003A00D2B281547F1C4146090C3A00D2B22D
:103B100081547F1C4146090A3A00D2B281547F1C6D
:103B20003900C9B200F801807F1C3A00D2B292B2CB
:103B30006946DFF8F00403F0F5FA0EB0BDEC028B35
:103B4000BDE8F08170B500240025DFF8D8040078C6
:103B5000C0B2FF283AD0DFF8D0040178C9B2090614
:103B6000DFF8C8040078C0B251EA0041DFF8C004B1
:103B70000078C0B251EA0021DFF8B8040078C0B282
:103B800001430C00DFF8B0040178C9B20906DFF880
:103B9000AC040078C0B251EA0041DFF8A404007818
:103BA000C0B251EA0021DFF89C040078C0B20143A2
:103BB0000D00DFF85C6416F114012000FEF784FFAD
:103BC00016F118012800FEF77FFF05E0DFF840043A
:103BD000002141610021816170BD000098ED000865
:103BE000942700200C2700209C0A00209227002008
:103BF00070B500240025DFF854040078C0B2FF2817
:103C00003DD0DFF84464DFF8480400783070DFF816
:103C100044040178C9B20906DFF83C040078C0B258
:103C200051EA0041DFF834040078C0B251EA0021C3
:103C3000DFF82C040078C0B201430C00DFF8240444
:103C40000178C9B20906DFF820040078C0B251EA51
:103C50000041DFF818040078C0B251EA0021DFF813
:103C600010040078C0B201430D0016F108012000D5
:103C7000FEF72AFF311D2800FEF726FF09E0DFF8D6
:103C8000C80300210170DFF8EC138160DFF8E8134E
:103C9000416070BD78B591B004000D003C21002258
:103CA00002AE300001F02CFA0020ADF80400032130
:103CB000042000F01FFB0B2000900023DFF8BC2342
:103CC00001A902A8FEF7EAFE4FF47A73BDF80420BA
:103CD00002A9DFF8AC0302F008FA12B070BD0000D0
:103CE000E8050020A027002000080048A1270020A8
:103CF00078B591B004000D003C21002202AE3000E6
:103D000001F0FEF90020ADF80400C64803F0DAF92E
:103D1000CE4803F0D7F9CC4800210170DFF85813E2
:103D20008160D44941600D2000900023D54A01A94B
:103D300002A8FEF7B3FE4FF47A73BDF8042002A97F
:103D4000CF4802F0D2F912B070BD00000004004864
:103D5000000C004838B590B004000D0003A8CA4913
:103D6000322203F023FAC948D0E90023CDE9012328
:103D700003A801900023C648027802A903A8FEF711
:103D800018FE02200090002379A202A903A8FEF7E2
:103D900085FE4FF47A73BDF808200199B84802F007
:103DA000A4F911B030BD0000D8250020F8B50400FA
:103DB0000D0000262068007830283ADB2068007863
:103DC0003A2836DA002700200100C9B2A28889B259
:103DD00091420FD221680200D2B2895C302905DB02
:103DE00021680200D2B2895C3A2900DB02E07F1C24
:103DF000401CE9E73900C9B22068FEF707FF06005A
:103E0000B6F5807F0DD2A24841783000C0B200F0F4
:103E100071FA4FF47A7302227AA1994802F065F997
:103E20000EE04FF47A7305229A49954802F05DF945
:103E300006E04FF47A7305229649914802F055F94D
:103E4000F1BD38B590B004000D0003A892493222AC
:103E500003F0ACF99148D0E90023CDE9012303A890
:103E6000019000238A48427802A903A8FEF7A1FD29
:103E70000220009000233EA202A903A8FEF70EFE36
:103E80004FF47A73BDF8082001997D4802F02DF9AE
:103E900011B030BDA22700205C260020F8B5040038
:103EA0000D00002620680078302839DB2068007873
:103EB0003A2835DA002700200100C9B2A28889B269
:103EC00091420FD221680200D2B2895C302905DB11
:103ED00021680200D2B2895C3A2900DB02E07F1C33
:103EE000401CE9E73900C9B22068FEF78FFE0600E2
:103EF0000C2E0DD23100C9B26548007800F0FAF9F5
:103F00004FF47A7302223FA15D4802F0EEF80EE012
:103F10004FF47A7305225F49594802F0E6F806E04B
:103F20004FF47A7305225B49554802F0DEF8F1BD83
:103F30009825002080B5FFF705FEFFF759FE584889
:103F40005849C0F8A4135849C0F8B4135749C0F8E9
:103F5000C4135749C0F8D4135649C0F8E41356495E
:103F6000C0F8F41302F061F802F050F801BD00004F
:103F70000D0A00006C2700208006002070B500208C
:103F8000002400252800C0B2092836DA4B4E28004C
:103F9000C0B200013044407801282CD10120040037
:103FA0002800C0B200013044406800280ED000F064
:103FB00005FE2900C9B2090131444968401A2900A7
:103FC000C9B2090131448968884214D3002029000C
:103FD000C9B209013144487000F0F0FD2900C9B2AE
:103FE0000901314448602800C0B22900C9B2090162
:103FF0003144C96888476D1CC4E72000C0B270BD59
:10400000342600204F4B0000702700207806002047
:1040100098250020682700209F270020D825002011
:104020007C20002000080208020802080308020899
:104030000408020805080208060802080708020822
:1040400008080208090802082827002000100208B2
:1040500002100208031002080410020805100208EA
:1040600006100208071002080810020809100208CA
:104070000A1002080000484200001644C0EB000885
:104080006C1F0020ECE80008B8D70008A0ED00087D
:10409000EC0A002090ED000864E50008A8ED000897
:1040A0008C060020953C0008F13C0008553D0008B6
:1040B000AD3D0008433E00089D3E0008E805002095
:1040C00002000020704730B40200DFF81C06002315
:1040D00004688588635583885B1C8380DFF80C3611
:1040E0001B7804688588635583885B1C8380012066
:1040F00030BC7047F8B504000D00002000212E00F0
:1041000022683300DBB2D25C23683700FFB23B4445
:104110005F7857EA02273A0092B2B2F5807F23DA3D
:10412000380080B200281FD0DFF8BC0521683200BB
:10413000D2B2895C02688388D1548188491C81800D
:1041400021683200D2B21144497802688388D15480
:104150008188491C8180DFF8940541783800C0B21D
:1041600000F0C8F8012000E00020F2BD30B40200E9
:10417000DFF87405002304688588635583885B1C19
:104180008380DFF868355B780468858863558388A9
:104190005B1C8380012030BC7047F8B504000D0023
:1041A000002000212E0022683300DBB2D25C23689D
:1041B0003700FFB23B445F7857EA02273A0092B2D9
:1041C0000B2A1FDADFF8200521683200D2B2895CA1
:1041D00002688388D1548188491C8180216832001B
:1041E000D2B21144497802688388D1548188491C2D
:1041F00081803900C9B2DFF8F404007800F07AF861
:10420000012000E00020F2BDF8B504000D000026FA
:10421000DFF8DC0490ED030AFEF7D6FE0100DFF8BC
:10422000C8040A00120A03688788DA558288521C7B
:10423000828002688388D1548288521C82800A005E
:10424000120E03688788DA558288521C82800A0021
:10425000120C03688788DA558288521C82800120FC
:10426000F2BDF8B504000D000026DFF8840490EDDF
:10427000040AFEF7A9FE0100DFF86C040A00120A26
:1042800003688788DA558288521C82800268838896
:10429000D1548288521C82800A00120E03688788DB
:1042A000DA558288521C82800A00120C03688788C3
:1042B000DA558288521C82800120F2BD70B504005C
:1042C0000D00DFF83064012220213000FDF72DFCC5
:1042D0000A2001F07FFE4FF47A732A0092B2210087
:1042E000DFF8140401F001FF002220213000FDF767
:1042F0001CFC70BD7CB504000D00082100226E4638
:10430000300000F0FDFE0026DFF8E0030470457089
:10431000694602783300DBB2CA54761C407832001A
:10432000D2B28854761C3200D2B292B26946DFF81B
:10433000CC0302F0F7FE73BDDFF8C0030078C0B213
:10434000FF280AD0DFF8A403DFF8B413097801705E
:10435000DFF8B0130978417005E0DFF8900304211D
:1043600001700321417070472DE9F04F87B00400C0
:1043700000275FF000085FF000090025DFF88823C0
:10438000D2E90001CDE902010026DFF88023D2E95D
:104390000001CDE90401DFF850A35046FDF72EFCE3
:1043A000A0880828C0F29B812068A188084410F8E2
:1043B000010C2168A288114411F8021C51EA002165
:1043C000ADF81810A188891E206801F05AFCADF8DC
:1043D0001A00BDF81A00BDF81810884240F07D811F
:1043E00020680078C1490978884240F076812068C9
:1043F00080782168CF7857EA002720684078032822
:1044000005D006286CD0102800F0C38061E1206838
:1044100000792168497951EA00210D005FF0010817
:104420004046C0B2052836DA5FF01409DFF8E0B282
:104430004046C0B209FB00F058444068390089B2D8
:10444000884225D1280080B24146C9B209FB01F15A
:104450005944896888421BDB002100204246D2B2C1
:1044600009FB02F25A44D268904701280FD1404616
:10447000C0B209FB00F0584480682D1A4046C0B213
:1044800009FB00F90BEB09008068C71900E002E0A6
:1044900018F10108C4E7BAF8040000281FD0BAF8E0
:1044A0000400022190FBF1F201FB1200002816D15A
:1044B000DAF800000190BAF80400022190FBF1F054
:1044C00080B200903B009BB203222068017804A8D0
:1044D00001F0B7FCBDF814100498FFF7EFFEFAE006
:1044E00004200100C9B2A288921E91420EDA21680E
:1044F0000200D2B2895C029ABDF80C30D154BDF8EA
:104500000C10491CADF80C10401CEAE75FF00108E4
:104510004046C0B2052817DA14227D4B4046C0B28F
:10452000504318444068390089B2884209D10021BB
:1045300002A8C4465FFA8CFC02FB0CF21A44126912
:10454000904718F10108E3E7BAF8040000281FD0EB
:10455000BAF80400022190FBF1F201FB12000028DE
:1045600016D1DAF800000190BAF80400022190FB9D
:10457000F1F080B200903B009BB2062220680178E7
:1045800004A801F0AFFCBDF814100498FFF796FEE4
:10459000A1E000200600206800792168497951EAED
:1045A00000210D0007200100C9B2A288921E91428D
:1045B0000EDA21680200D2B2895C029ABDF80C3092
:1045C000D154BDF80C10491CADF80C10401CEAE7A2
:1045D000280080B240002168897988424DD1BDF819
:1045E0000C002168897989B2884246D15FF00108C0
:1045F0004046C0B2052840DA5FF01409DFF810B178
:104600004046C0B209FB00F058444068390089B206
:1046100088422FD1280080B24146C9B209FB01F17E
:1046200059448968884225DB310089B202A8424694
:10463000D2B209FB02F25A4412699047012818D1FC
:104640004046C0B209FB00F058448068400010FAB0
:1046500086F64046C0B209FB00F0584480682D1A27
:104660004046C0B209FB00F90BEB09008068C7198E
:1046700000E002E018F10108BAE7BAF804000028E7
:1046800026D0BAF80400022190FBF1F201FB1200DF
:1046900000281DD1206880782168C97851EA00215E
:1046A0000F00DAF800000190BAF80400022190FB34
:1046B000F1F080B200903B009BB21022206801789C
:1046C00004A801F00FFCBDF814100498FFF7F6FDE4
:1046D00001E0002004E0012002E0002000E00020D2
:1046E00007B0BDE8F08F0000A0050020EC0A002014
:1046F0009825002000040048F41F00200000020854
:10470000020002080300020880ED000888ED00089E
:104710001005002000F10103810704D010F8011BEF
:10472000820781B1FAD10268A2F10131914311F0FF
:10473000803104BF50F8042FF6E709BAB1FA81F1CD
:1047400000EBD100401CC01A704730B4002513E0C4
:1047500050F8042BD30744BFA9F101039A18091F8D
:10476000042942F8045BFAD213468C0744BF158033
:104770009B1CC90748BF1D7050F8041B0029E7D1D6
:1047800030BC7047C11768B14840401AB0FA80F297
:104790009040D21CC907C2F5846241EA025202EB82
:1047A000D021400570470268531C036011707047A8
:1047B00041EC100B01BD80B553EC112B51EC100BEB
:1047C00002F048FDF4E72E00F0B540F2FF7581EAF3
:1047D000030C0CF0004C15EA11541DBF15EA1357D9
:1047E000AC42AF42E5E0BC41C1F31301C3F3130394
:1047F000801A994143F4801304D2641E4000494159
:1048000080185941C90241EA5051B1FBF3F603FB4C
:104810001611A2FB0675D7EBC020A94102D2761E65
:1048200080185941C90241EA5051B1FBF3FE03FB24
:104830001E11A2FB0E75D7EBC020A94103D2AEF129
:10484000010E80185941890241EA9051760546EAE5
:104850008E2EB1FBF3F603FB1611A2FB0675D7EB08
:104860008020A94102D2761E80185941C90241EA2E
:1048700050514EEA060EB1FBF3F603FB1611A2FBF4
:104880000675D7EBC020A94102D2761E8018594187
:10489000C90241EA5051B1FBF3F703FB1711A2FB28
:1048A0000735D3EBC020A94167F100070CBF0042D8
:1048B00047F0010766F3D5274FEA1E31B80814F513
:1048C000806412DDBD0775F1004250EB0E5051EBD4
:1048D000045111F5801F5CBF41EA0C01F0BD4CF0A2
:1048E0007F6141F0E0410020F0BDBD076D0840EA66
:1048F0000E5041F48011D4F10104B4F120060ADA1B
:10490000C4F120060200E04001FA06F3E14018433A
:10491000B24015430EE0342C13DCC6F1200445EA06
:1049200040056D0820FA06F2154321FA06F0A14071
:104930000D43002175F1004250F1000051EB0C01D4
:10494000F0BD00205FEA0C01F0BDCFB992185B41C9
:10495000B3FA83F704BFB2FA82F6BF190B3FB7F17F
:1049600020062FBF02FA06F3BB40C7F1200622FA49
:1049700006F638BF3343BA401CB1E419641E33E76E
:104980007F4231F00041B1FA81F404BFB0FA80F601
:10499000A4190B3CB4F120062FBF00FA06F1A14088
:1049A000C4F1200620FA06F638BF3143A0403C1B74
:1049B0001AE7AC421ABF05EA1357AF4212E050EAB9
:1049C00041061CBF52EA4306BFE750EA41073046A2
:1049D00061461CBF41EA0551F0BD52EA430C08BFD5
:1049E000C143F0BD00204FF4001616EB410F98BFF5
:1049F00016EB430F08BF16EB410F24BFC14305E080
:104A000016EB430F0CBF61464CEA0551F0BD0000A8
:104A100001F000428B1AA3F16051B1F5801F0ADB4F
:104A2000B1F17F6F1FD242EAC102C10071F10041B2
:104A300042EB507070470B15C3F10903212B10D2C4
:104A4000890241EA905180020128494141F0004128
:104A500021FA03F0C3F12003994071F10041504164
:104A60007047100070476FF0000013EB103F5CBF01
:104A7000000E42EAC0507047014648B1B0FA80F1DA
:104A80008840C91CC1F58461090501EBD0214005AE
:104A900070470000C0F3C75181B1FF2906D0C11093
:104AA000400721F0E04101F16051704741020CBF25
:104AB00040F4E0016FF000410020704700F0004139
:104AC00000020AD0B0FA80FC00FA0CF001F160514B
:104AD000A1EB0C5101EBD021400570470CB430B56F
:104AE00083B00A4606A90291044600250194009568
:104AF00002AB01A9084878441E3002F021FF019A58
:104B0000157000284EBF04460198041B204603B0D0
:104B100030BC5DF80CFB00BF8FFCFFFF80B50122AD
:104B200040211F48FDF701F81E491F4800F032FAE6
:104B300000F01CF8012000F003F800F0C7FA01BDF6
:104B4000704711B581B0164C002240212000FCF7BF
:104B5000ECFF4FF47A73012201A9144803F050FFCF
:104B6000012240212000FCF7E0FF13BD10B50C4CE2
:104B7000002240212000FCF7D8FF002280212000E5
:104B8000FCF7D3FF012000F013F801228021200060
:104B9000FCF7CBFF012240212000FCF7C6FF10BD2F
:104BA000000800484C270020A40F0020F823002014
:104BB00010B50400200001F00DFA10BD0148006896
:104BC000704700BF5C27002070B4039CDFF8805260
:104BD000286029716A71AB71EC7100262E7270BC6D
:104BE00070472DE9F84F04000D00160000275FF014
:104BF0000008DFF85C9299F80500082880F2FC8034
:104C0000300099F80610C0B2884205D399F8070021
:104C10003100C9B2884201D22E200600402099F806
:104C20000510491C90FBF1F02900C9B2814280F2C5
:104C3000E38099F8040050FA84F0802880F2DC8048
:104C400099F805305B1C99F8050003FB05035B1C14
:104C5000DBB299F804201219D2B299F80500401C71
:104C600015FB00F1C9B22000C0B200F029F9002103
:104C7000080099F80420C0B2904280F0BD80002066
:104C800015FB00F00200D2B2082392FBF3F21700EA
:104C9000C0B2082290FBF2F302FB13008046FF2211
:104CA0006C4BD3F800C03800C0B250FA85FE8020AB
:104CB00000FB0EFE5EFA84FED3F800A03800C0B2FE
:104CC00050FA85FB802000FB0BFB5BFA84F01AF89E
:104CD00000A0D8F1080B100050FA0BF010EA0A0AF5
:104CE0000CF80EA0D3F800C03800C0B250FA85FE10
:104CF000802000FB0EFE5EFA84F00090D3F800E006
:104D00003800C0B250FA85FA802000FB0AFA5AFA3D
:104D100084F01EF800E0D9F800A0B3465FFA8BFBE0
:104D200099F80600BBEB000099F804B00BFB00FB00
:104D30000AEB0B008A465FFA8AFA10F80A0010FAAA
:104D400008F050EA0E00DDF800E00CF80E00D3F891
:104D500000C03800C0B250FA85FE802000FB0EFE75
:104D60005EFA84F08444D3F800E03800C0B250FA10
:104D700085FA802000FB0AFA5AFA84F0704490F811
:104D8000800012FA08F202408CF880201A6838007D
:104D9000C0B250FA85FC802000FB0CFC5CFA84F069
:104DA00002441B683800C0B250FA85FC802000FB2A
:104DB0000CFC5CFA84F0184490F88030D9F800C0FC
:104DC000B6465FFA8EFE99F80600BEEB000E99F823
:104DD000040000FB0EFE0CEB0E008C465FFA8CFC10
:104DE00010F80C00D8F1080C50FA0CF0034382F8CC
:104DF0008030641C491C3BE7BDE8F18FF8B5070023
:104E00000C001600124D6879082820DA3078002846
:104E10001DD032782100C9B23800C0B2FFF7E1FEE0
:104E2000761C2879401CC719287950FA87F0401C55
:104E3000812802DB00200700641C40206979491C9E
:104E400090FBF1F02100C9B28142DFDBFFE7F1BD49
:104E50001C27002050270020020001200B00DBB29D
:104E60001B011344587000200B00DBB21B011344DC
:104E700058600120704738B504000D00012029005A
:104E8000C9B2090121444870FFF798FE2900C9B250
:104E9000090121444860012032BD020000200B00BE
:104EA000DBB21B01134458700120704780B50348E2
:104EB00000F00EFC00F0CBF801BD000010DC000893
:104EC00070B40400E4B2802C01DB7F2420001400C5
:104ED000E4B2802C01DB7F2422000C00E4B2402CE1
:104EE00001DB3F2421001C00E4B2402C01DB3F2405
:104EF00023002B4C050026683678EDB2B54201D26E
:104F0000256828702568AD781600F6B2B54201D242
:104F10002568AA700D0026687678EDB2B54201D2F8
:104F2000256869702568ED781E00F6B2B54201D299
:104F30002468E37070BC704719487F2102681170C3
:104F40000021026891703F210268517000210068C1
:104F5000C170704712480021026811707F210268F9
:104F600091700021026851703F210068C170704744
:104F700070B54FF4806400250A4806682A002100B5
:104F8000300000F0BDF83F237F2200210020FFF712
:104F900097FF70BD034A1060014A1160704700001E
:104FA000542700205027002010B5040000224FF4A1
:104FB00080714348FCF7B9FD2000C0B2FFF7C1FD86
:104FC00010BD10B5040001224FF480713C48FCF77D
:104FD000ACFD2000C0B2FFF7B4FD10BD10B5040059
:104FE0008120FFF7E1FF2000C0B2402803DB3F2013
:104FF000FFF7DAFF03E02000C0B2FFF7D5FF10BDD6
:1050000010B5040014F00F0050F0B000C0B2FFF76C
:10501000CBFF10BD10B504002000C0B200F005F8B1
:105020002000C0B200F00CF810BD10B50400200044
:10503000C0B2000950F01000C0B2FFF7B5FF10BDBC
:1050400010B5040014F00F00FFF7AEFF10BD70B5EF
:1050500000242000C0B210282EDA1A4D28684078AB
:105060002100C9B2491CB0EBC10F23DA2868C0780F
:105070002100C9B2B0EBC10F1EDB2000C0B2FFF7A8
:10508000BFFF28680078FFF7C5FF28680678286802
:1050900080783100C9B288420CD30B4801682200E5
:1050A000D2B28020424352FA86F0085CFFF789FFB3
:1050B000761CECE7641CCCE7FFF73EFF70BD0000F8
:1050C00000080048542700205027002080B5A02069
:1050D000FFF76AFFAE20FFF767FFC820FFF764FF06
:1050E000A220FFF761FF2F20FFF75EFF2220FFF7CE
:1050F0005BFF3F20FFF772FFAF20FFF755FF01BDB9
:1051000062F30F2262F31F42401810F0030308D02D
:10511000C91A1FD3DB0748BF00F8012D28BF20F8AC
:10512000022D130030B414461546103928BF20E96B
:105130003C00FAD8490728BF20E90C0048BF40F8D6
:10514000042D890028BF20F8022D48BF00F8012D4A
:1051500030BC7047C91818BF00F8012DCB0728BF15
:1051600000F8012D7047000070B4039CDFF88453F1
:10517000286029716A71AB71EC7101262E7270BCC6
:1051800070472DE9F74F04000D00DFF868639DF8C4
:105190000800B179884204D3F0799DF8081088425C
:1051A00002D22E208DF80800307A002845D1002741
:1051B00038003179C0B288423DD231689DF808206C
:1051C000B079121A3079424301EB02003900C9B2BA
:1051D00010F80190002080464046C0B2082828DA26
:1051E0003800C0B250FA84F0802805DA4046C0B2D8
:1051F00050FA85F0402801DB00205DE1012010FA23
:1052000008F04946C9B2014208D0012218EB050155
:10521000C9B23819C0B200F06FF907E0002218EBEC
:105220000501C9B23819C0B200F066F918F10108D9
:10523000D2E77F1CBCE730793EE1307A012840F0AC
:105240008E807079082190FBF1F201FB1200012899
:1052500006DB7079082190FBF1FB1BF1010B03E0E9
:105260007079082190FBF1FB31795846C0B2414377
:10527000491C8DF8011031689DF80820B079121A88
:105280009DF80100424301EB020001788DF8001007
:10529000401C01905FF0000840469DF80010C0B22D
:1052A000884259D25FF0000948465946C0B2C9B297
:1052B00088424ED201994246D2B25846C0B24243C9
:1052C00001EB02004946C9B210F801A00020070016
:1052D0003800C0B2082839DA4046C0B250FA84F02B
:1052E000802808DA4846C0B2C00050FA85F050FA6B
:1052F00087F0402801DB0020DEE04846C0B2C00055
:1053000050FA87F0717988421EDA0121B94050467F
:10531000C0B208420CD001225FFA89F915EBC9012D
:105320007918C9B218EB0400C0B200F0E5F80BE040
:1053300000225FFA89F915EBC9017918C9B218EB97
:105340000400C0B200F0D8F87F1CC1E719F10109D0
:10535000AAE718F101089FE79DF80000ACE0307A59
:10536000022840F0A8807079082190FBF1F0401CE1
:105370008DF8000030799DF8001010FB01F08DF8D9
:10538000020031689DF80820B079121A9DF80200D9
:10539000424301EB0200019096F804B000208DF822
:1053A000010000210020002210009DF80030C0B252
:1053B00098420CD23079431E9DF801001B1A13FB52
:1053C00002F0019BC0B2185C0100521CECE708001F
:1053D000C0B200280BD1BBF1010B5846C0B2002867
:1053E00005D09DF80100401C8DF80100D9E7002789
:1053F00038009DF80010C0B2884259D25FF0000812
:1054000040465946C0B2C9B288424FD201993A00CB
:10541000D2B23079424301EB02004146C9B210F8E2
:1054200001905FF0000A5046C0B208283BDA4046BF
:10543000C0B250FA84F0802808DA3800C0B2C00048
:1054400050FA85F050FA8AF0402801DB002033E062
:105450003800C0B2C00050FA8AF0717988421FDA71
:10546000012111FA0AF14846C0B208420CD00122CB
:10547000FFB215EBC7011AEB0101C9B218EB04002A
:10548000C0B200F039F80BE00022FFB215EBC70103
:105490001AEB0101C9B218EB0400C0B200F02CF8FD
:1054A0001AF1010ABFE718F10108A9E77F1C9FE77D
:1054B0005846C0B200E00020BDE8FE8FF8B50400F9
:1054C0000F0015000B484079D0F13F003900C9B2F8
:1054D00088420EDB287800280BD02A783900C9B220
:1054E0002000C0B2FFF74DFE0600701C04196D1CB1
:1054F000F0E7F1BD1C270020F8B504000D001600F0
:105500002000C0B2802803DA2800C0B2402800DBA7
:1055100057E03000C0B2002824D02900C9B20822C8
:10552000DFF8CC312800C0B2082790FBF7F78020C5
:10553000474357FA84F72800C0B25FF0080C90FB8D
:10554000FCFC802000FB0CFC5CFA84F0185C5FF033
:10555000010C91FBF2FE02FB1E111CFA01F101434A
:10556000D95524E02900C9B20822DFF88431280087
:10557000C0B2082790FBF7F78020474357FA84F71B
:105580002800C0B25FF0080C90FBFCFC802000FB00
:105590000CFC5CFA84F0185C5FF0010C91FBF2FEED
:1055A00002FB1E111CFA01F130EA0101D9552B0052
:1055B000DBB22200D2B22900C9B22000C0B2FFF78C
:1055C0007FFCF1BD2DE9F84F05000E00170098464D
:1055D0000A9C3800C0B22900C9B2401A03F029FC65
:1055E00081464046C0B23100C9B2401A03F021FCE6
:1055F000814502DA5FF0010B01E05FF0000B5846D5
:10560000C0B2002805D02800350006003800474603
:10561000804638002900C0B2C9B2884205D22800AD
:105620003D0007003000464680464346DBB23A0064
:10563000D2B23100C9B22800C0B2FFF741FC781BDA
:105640008DF800004046C0B23100C9B2401A03F0E4
:10565000F0FB8DF801009DF80000022190FBF1F9AC
:1056600030004146C0B2C9B2884202D25FF0010A9E
:1056700001E05FF0FF3A38002900C0B2C9B28842A9
:1056800024D35846C0B2002808D02200D2B2290044
:10569000C9B23000C0B2FFF72FFF07E02200D2B23C
:1056A0003100C9B22800C0B2FFF726FF9DF8010003
:1056B000B9EB0009484640B2002805D51AEB0606AA
:1056C0009DF8000010EB09096D1CD4E7BDE8F18FCF
:1056D000F8B504004FF480652600064807682A00E4
:1056E0003100380001F062FDFFF734FCF1BD00002D
:1056F000A40F002050270020BBBBE1B1B2F5803FD2
:1057000080F07E80022A1ED98C46B1FBF2F102FBAA
:1057100011C31B0443EA1043B3FBF2FC02FB1C332E
:1057200080B240EA0343B3FBF2F002FB103240EADE
:105730000C4000237047022A05D98446B0FBF2F0E2
:1057400002FB10C270474AB105D100F001024908BE
:105750005FEA3000704700220023704703F06EBB01
:105760000B000200002100207047904271EB030CF7
:10577000F6D3B3F5803F2FD2F0B5B3FA83F7B1FA81
:1057800081F4A7F10F0E3D1B5340CEF1200602FA23
:105790000EF2F3415340B5F10F0746D80F3C2C44AD
:1057A0004140C4F12006A040F1414140B1FBF3F675
:1057B00003FB1611A2FB0645001BA94102D2761E6F
:1057C0008018594180EA010221FA0EF362FA0EF2C2
:1057D00000215A403046F0BD30B4B1FBF3FC03FB6E
:1057E0001C11A2FB0C45001BA94103D2ACF1010C1A
:1057F0008018594130BC02460B4660460021704774
:10580000B2F1807F65D3F0B5B2FA82F7B1FA81F4D4
:10581000C7F10F063D1B22FA06F307F1110EF24104
:1058200020355A40B5F10F07B8D94140C4F12006E0
:10583000A040F1414140B1FBF3FC03FB1C11A2FB72
:105840000C45001BA94103D2BCF1010C8018594141
:105850000F2F12D30F3FC90341EA5041B1FBF3F6BA
:1058600003FB1611A2FB0645D4EBC030A94102D2BE
:10587000761E8018594146EACC3C07B34140C7F137
:105880002006B840F1414140B1FBF3F603FB16118D
:10589000A2FB0645001BA94102D2761E8018594181
:1058A00080EA010221FA0EF3C7F1200462FA0EF237
:1058B0000CFA07F05A402CFA04F13043F0BD80EAAC
:1058C000010221FA0EF3002162FA0EF260465A40FC
:1058D000F0BD8C46B1FBF2F102FB11C31B0243EA9F
:1058E0001063B3FBF2FC02FB1C331B024CEA0020EA
:1058F00043EA1063B3FBF2FC02FB1C331B024CEACD
:10590000002043EA1063B3FBF2FC02FB1C331B02D2
:105910004CEA002043EA1063B3FBF2FC02FB1C32AA
:105920004CEA002000237047B0B581EA030C0CF06C
:10593000004C40F2FF7515EA11541DBF15EA1357CC
:10594000AC42AF4239E0E41923EA455343F48013F3
:10595000C90241F0004141EA505EC7021100A7FBB5
:10596000020200284FF00000EEFB01204FF0000182
:10597000E3FB072118BF42F0010240180021494112
:10598000E3FB0E01A4F580640F0302D252004041F4
:10599000494154F101046CDD470872F1004250F1B5
:1059A000000051EB0451A1F580115CBF41EA0C01EC
:1059B000B0BD4CEA05510020B0BD05EA1357AC421A
:1059C00014BFAF4241E050EA410E1CBF52EA430E01
:1059D00002E061460020B0BD24423C441BD15FEA96
:1059E000070EF6D0090302BF01460020AEF1140EE7
:1059F000B1FA81F7AEEB070401FA07FE0C37C7F1E5
:105A0000200100FA07F7C8404EEA000E23EA45538A
:105A100043F48013A2E733F00043B3FA83F704BFE3
:105A2000B2FA82FE77440B3FE41BB7F1200E2FBF82
:105A300002FA0EF3BB40C7F1200E22FA0EFE38BF69
:105A400043EA0E03BA40641C82E750EA410E14BFD9
:105A500052EA430E6FF000014FF4001717EB430FAB
:105A60008ABF194617EB410FB5E74CEA05510020F4
:105A7000B0BDD4F10104B4F120070FDAC4F120075E
:105A8000520828BF42F0010210FA07F501FA07F7A1
:105A9000E1BF2A43E0403843E1400FE0352C98DC79
:105AA000C7F1200452EA400220FA07F218BF42F080
:105AB000010231FA07F0A1400A43002172F10042CD
:105AC00050F1000051EB0C01B0BD000070B44FF07C
:105AD000004591EA030F43F1BB816B40841A71EBDF
