:020000040800F2
:10000000402B00206DFA000805F3000807F30008F4
:1000100009F300080BF300080DF3000800000000CE
:100020000000000000000000000000000FF30008C6
:1000300011F300080000000013F3000815F3000896
:10004000B5FD0008B9FD0008BDFD0008C1FD0008B0
:10005000C5FD0008C9FD0008CDFD0008D1FD000860
:10006000D5FD0008D9FD0008DDFD0008E1FD000810
:10007000E5FD000825F30008E9FD00082FF300085E
:10008000EDFD0008F1FD0008F5FD0008F9FD000890
:10009000FDFD000801FE000805FE000809FE00083D
:1000A0000DFE000811FE000815FE000819FE0008EC
:1000B0001DFE0008000000000000000021FE0008F6
:1000C00025FE000829FE00082DFE000831FE00086C
:1000D00035FE000839F3000839FE000843F3000834
:1000E0003DFE00084DF30008000000000000000085
:1000F0000000000000000000000000000000000000
:100100000000000041FE00080000000045FE00085D
:10011000000000000000000049FE00084DFE00083D
:1001200051FE000855FE000859FE00085DFE00085B
:1001300061FE000800000000000000000000000058
:1001400065FE000869FE00086DFE000871FE0008EB
:1001500075FE000857F3000861F3000879FE0008F7
:100160007DFE000881FE000885FE000800000000FA
:1001700089FE00088DFE000891FE000800000000C6
:1001800095FE000899FE00089DFE000810B50400C9
:100190000121DFF8F00C02F07AF9012010BD30B532
:1001A00087B004001421002202AD280002F08AF971
:1001B000DFF8880BD0E90023CDE9002302A80090E6
:1001C000DFF87C5B2978684600F0C7FA2878687009
:1001D000BDF80410009801F07CFADFF8680B807815
:1001E000042809D12878042803DA2878401C2870CC
:1001F00001E00020287008E02878022803DA287837
:10020000401C287001E000202870DFF8785C022193
:10021000280002F02DF90321280002F038F921000E
:10022000C9B2280002F033F9012007B030BD10B583
:100230000400DFF8541C8888002810D0DFF84C0C2C
:1002400002888B889A4208D1002101800221DFF8C0
:10025000340C02F00DF9012008E0898801802100AA
:10026000C9B2DFF8200C02F012F9012010BD2DE90F
:10027000F041040000250026DFF80C7CB888032834
:100280003DDB3868B988084410F8010C3968BA8831
:10029000114411F8021C51EA00210E00B988891E90
:1002A000386802F042F905002800310080B289B2B6
:1002B00088421DD10821DFF8CC0B02F0E8F838683D
:1002C000007801280DD1DFF8788A012198F8010023
:1002D00000F05CFA98F80120D7E9000100F046FA36
:1002E00013E00021DFF8580A407800F04FFA0CE0E4
:1002F0000021DFF84C0A407800F048FA05E00021C0
:10030000DFF83C0A407800F041FADFF8340A407820
:1003100000F098F80221DFF86C0B02F0CAF8012017
:10032000BDE8F0810100DFF8840C0278032A01D0D7
:10033000042202700120704710B504000020DFF88D
:10034000501B08702100C9B2DFF8380B02F09FF88B
:10035000012010BD10B504002100C9B2DFF8240B44
:1003600002F095F8012010BD38B50400DFF8245BD9
:10037000287800280DD101220121DFF8340C02F089
:1003800038FC0520DFF8FC1A88672878401C2870A4
:100390000BE000220121DFF8180C02F02AFCFA2001
:1003A000DFF8E01A8867002028702100C9B2DFF862
:1003B000D40A02F06CF8012032BD38B50400DFF831
:1003C000F41B0878002820D101200870DFF8E85BD2
:1003D00001221021280002F00CFC00220821280034
:1003E00002F007FC00220421DFF8D00B02F001FC30
:1003F0004FF4FA60DFF88C1AC1F8880002F054FC60
:1004000002F0FDFD02F0ECFD13E000200870012277
:100410000821DFF8A40B02F0ECFB01220421DFF835
:100420009C0B02F0E6FB4EF66020DFF8581AC1F88C
:1004300088002100C9B2DFF84C0A02F028F8012038
:1004400032BD000038B52DED028B04009FED8F8A80
:100450002000C0B2022842D1DFF8645B95ED010AAA
:10046000DFEDBB0A20EE200ABDEEC00A10EE100A36
:1004700000F09EF885ED010A95ED010A00F008F9FB
:1004800085ED030A95ED020A00F066F985ED040A90
:1004900095ED040AD5ED060A30EE200A85ED040A32
:1004A00095ED030AD5ED050A30EE200AB0EE408A3C
:1004B0009FEDA80AB4EE408AF1EE10FA02DBB0EE2E
:1004C000000A09E0B5EE408AF1EE10FA02D59FED80
:1004D0006F0A01E0B0EE480A85ED030AFFE7DFF896
:1004E000E05A2878002807D10020686095ED010ABD
:1004F00000F0CEF885ED030A2878002807D1002007
:10050000A86095ED020A00F027F985ED040ABDEC1C
:10051000028B31BD2DE9F04100242500EDB20A2DFA
:1005200043DA00252E00F6B2092E3CDA2E00F6B290
:1005300001EB860676682F00FFB251F82770BE42A5
:100540002FDA00262F00FFB251F82770AC465FFA71
:100550008CFC01EB8C0CDCF804C0AE465FFA8EFE1E
:1005600041F82EC0AC465FFA8CFC01EB8C0CCCF849
:100570000470AC465FFA8CFC50F82CC0AE465FFAB3
:100580008EFE00EB8E0EDEF804E0A8465FFA88F8D7
:1005900040F828E0AE465FFA8EFE00EB8E0ECEF8F5
:1005A00004C06D1CBEE7641CB7E7BDE8F081000025
:1005B00038B52DED028B04009FED348ADFF8041A64
:1005C000087800282AD10120087000210800C0B254
:1005D0000A2815DA0800C0B2DFF8EC290B00DBB2FC
:1005E00042F82300DFF8E4290800C0B252F82000E6
:1005F000002803D10800C0B242F82040491CE5E7BA
:10060000DFF8C859092300222900DFF8BC09FFF7E9
:1006100081FF95ED050AB8EEC00A30E00020010028
:10062000C9B20A291EDADFF8A0190200D2B251F8C5
:100630002220092A0BD100220300DBB241F823203B
:10064000DFF888190200D2B241F8224008E0020027
:10065000D2B251F82220521C0300DBB241F8232011
:10066000401CDCE7DFF86459092300222900DFF889
:100670005809FFF74FFF95ED050AB8EEC00ADFED08
:10068000340A80EE200ABDEC028B31BD0000000070
:10069000F0EE400A9FED951A9FED953ADFED953A01
:1006A000F5EE400AF1EE10FA40D0F0EE603A9FED20
:1006B000920ADFF81C0990ED004A34EE634AB4EE6A
:1006C000404AF1EE10FA08DA90ED004A33EEC44ADF
:1006D000B4EE404AF1EE10FA03DB9FED880A21EEFA
:1006E000001ADFF8F00890ED000AF0EE401ADFF88B
:1006F000E81891ED000A30EE010AB0EE402A32EE21
:10070000030A82EE000AF0EE402A33EEE10AB0EE70
:10071000614A00EE224A80ED004AB7EE000A30EE50
:10072000620A20EE020A81ED000A08E0DFF8A8085C
:100730005FF07E510160DFF89C0800210160DFF866
:100740009408DFF88C1802680A6090ED000A704780
:100750000000C84201000040704738B504000D0099
:100760002900C9B2200000F01BF831BD70B50400AB
:100770000D00160020000078C0B2012805D132001B
:10078000D2B22000290000F0BBF870BD38B50400DB
:100790000D002900C9B22000C0B200F08AF931BDB5
:1007A00070B52DED028B84B004000D0004210022F1
:1007B00002AE300001F086FE9FED4E8A0026280032
:1007C000C0B200280BD0022835D02BD3042844D047
:1007D0003AD306285ED049D307286FD082E0FE21A5
:1007E0004FF42F7002F0DCFEB0EE408AB0EE480A03
:1007F00002F0C4FF06003000000A8DF8080002A8CD
:1008000046703100090E81703100090CC17002A8D8
:10081000019002200090262310220121200001F0E7
:10082000F0FE5FE00220009005230322012120005A
:1008300001F099FE56E004200090012303220121DB
:10084000200001F090FE4DE00220009005230322DD
:100850000121200001F087FE44E0022000902423C3
:1008600003220121200001F07EFE3BE0DFF8F00DC5
:10087000818804290DD1016801918088022190FBB3
:10088000F1F080B20090242310220121200001F019
:10089000B8FE27E0DFF8C80D818802290DD1016874
:1008A00001918088022190FBF1F080B200903E23FC
:1008B00006220121200001F0A4FE13E0DFF8A00DC4
:1008C000818802290DD1016801918088022190FB65
:1008D000F1F080B200903F2306220121200001F0B8
:1008E00090FEFFE704B0BDEC028B70BD95BFD63320
:1008F00017B7D13800000000CDCC4C3E00007A4440
:100900002DE9F0472DED028B82B004000D0016009A
:100910000020ADF8000000279FEDA48A3000C0B28F
:1009200000280FD002281FD00DD3042800F0A68085
:100930006ED3062800F0B580C0F0B380072800F021
:10094000B080B1E0B0E00320ADF8000004226946B9
:10095000200000F08BFE0700FE21380002F064FD4D
:10096000DFF8001D48819FE00320ADF8000004225D
:100970006946200000F07AFE8046DFF8EC9C19F111
:100980000401404602F07AFC04226946200000F08F
:100990006DFE070019F10801380002F06FFCDFED71
:1009A000B88ADFF8C0AC99ED020A20EE280ABDEE45
:1009B000C00A10EE102A12B2DFF8D40490ED010A3A
:1009C00020EE280ABDEEC00A10EE101A09B2BAF8DD
:1009D0000A0000F003FBB0EE408A28EE280ABDEEC4
:1009E000C00A10EE100AAAF80000BAF900000028A8
:1009F00002D50020AAF80000BAF90000642190FB9B
:100A0000F1F000EE100AB8EEC00A89ED010A4BE0E1
:100A10000320ADF8000004226946200000F026FE05
:100A20000700DFF8408CFE21380002F0FDFCA8F83A
:100A30000A00DFED938ADFF8300C90ED020ABDEE7C
:100A4000C00A10EE102A12B2DFF8440490ED010A39
:100A500020EE280ABDEEC00A10EE101A09B2B8F84E
:100A60000A0000F0BBFAB0EE408A28EE280ABDEE7C
:100A7000C00A10EE100AA8F8000015E00320ADF837
:100A8000000004226946200000F0F0FD0700DFF8B6
:100A9000D88B98F81E10380002F0C6FCA8F81C008D
:100AA00002E000F0D2FDFFE702B0BDEC028BBDE832
:100AB000F0870200D2B2002A072A1DD80A00D2B25B
:100AC000012A10D1DFF8F82400235370012313709A
:100AD0000200D2B2022A0ED1DFF8082D0123D37012
:100AE0000123137107E0DFF8D8245378032B02DACF
:100AF00053785B1C5370FFE7DFF8C4345A78002A40
:100B000012D05A78032A0FDB00221A7000225A6092
:100B100000229A6000229A8300221A62DFF8C42C15
:100B20000023D3700023137170473EB504000821E1
:100B300000226D46280001F0C5FC0025DFF8240BDB
:100B400084806946B0F9042012122B00DBB2CA542B
:100B50006D1C80882A00D2B288546D1C2A00D2B243
:100B600092B26946DFF8AC0B02F090FE37BDDFF8B9
:100B7000A40B0078C0B2FF280FD0DFF89C1BDFF871
:100B80009C0B0078C0B2000288808A88DFF8900B46
:100B90000078C0B202438A8003E00120DFF8781BAE
:100BA0008880FC20DFF8701B88717047000000000F
:100BB0002DE9F04385B004000D0016001F00BDF9BB
:100BC000308014210022E946484601F07BFC5FF0AA
:100BD00000096846210089B2090A4A46D2B2815406
:100BE00019F101094946C9B2445419F10109290012
:100BF00089B2090A4A46D2B2815419F1010949461B
:100C0000C9B2455419F10109310009B209124A4625
:100C1000D2B2815419F101094946C9B2465419F1B9
:100C20000109390009B209124A46D2B2815419F1B8
:100C300001094946C9B2475419F10109414609B2AF
:100C400009124A46D2B2815419F101094946C9B282
:100C500000F8018019F10109DFF8080A8481C581D3
:100C600006824782A0F814804A46D2B292B2694600
:100C7000DFF8740B02F00AFE05B0BDE8F083000057
:100C80000000C842DFF8600B0078C0B2FF2843D0F4
:100C9000DFF8841ADFF8540B0078C0B200028881B4
:100CA0008A89DFF8E40B0078C0B202438A81DFF85A
:100CB000DC0B0078C0B20002C881CA89DFF8D00B13
:100CC0000078C0B20243CA81DFF8C80B0078C0B216
:100CD000000208820A8ADFF8C00B0078C0B2024323
:100CE0000A82DFF8B80B0078C0B2000248824A8A54
:100CF000DFF8AC0B0078C0B202434A82DFF8A40BE5
:100D00000078C0B2000288828A8ADFF89C0B0078E3
:100D1000C0B202438A820FE0DFF8FC094FF4C871C9
:100D2000818140F2A141C1817221018240F6EA2114
:100D3000418240F2E9218182704700003CFD0008B9
:100D40002A2700209C2600202DE9F14F88B00D00B5
:100D500016001F00129CBDF94C80BDF95090BDF9E2
:100D600054A01E210022EB46584601F0ABFB5FF079
:100D7000000B6846BDF8201089B2090A5A46D2B263
:100D800081541BF1010BBDF820105A46D2B2815498
:100D90001BF1010B290009B209125A46D2B2815443
:100DA0001BF1010B5946C9B245541BF1010B31002F
:100DB00009B209125A46D2B281541BF1010B5946AD
:100DC000C9B246541BF1010B390009B209125A4647
:100DD000D2B281541BF1010B5946C9B247541BF1E1
:100DE000010B210089B2090A5A46D2B281541BF183
:100DF000010B5946C9B244541BF1010B414609B2DB
:100E000009125A46D2B281541BF1010B5946C9B29C
:100E100000F801801BF1010B494609B209125A463C
:100E2000D2B281541BF1010B5946C9B200F80190AE
:100E30001BF1010B514609B209125A46D2B2815434
:100E40001BF1010B5946C9B200F801A01BF1010BBF
:100E5000DFF81008BDF82010C18205834683878320
:100E6000C483A0F82080A0F82290A0F824A05A46BD
:100E7000D2B292B26946DFF8440A02F007FD09B027
:100E8000BDE8F08F6C050020880A0020282700208C
:100E90000406002036270020DFF8C817FE2008725D
:100EA000DFF8180A0078C0B2FF2868D0DFF8100A0F
:100EB0000078C0B20002C882CA8ADFF8540A0078FB
:100EC000C0B20243CA82DFF84C0A0078C0B2000206
:100ED00008830A8BDFF8400A0078C0B202430A8315
:100EE000DFF8380A0078C0B2000248834A8BDFF886
:100EF000300A0078C0B202434A83DFF8280A00783B
:100F0000C0B2000288838A8BDFF81C0A0078C0B266
:100F100002438A83DFF8140A0078C0B20002C88353
:100F2000CA8BDFF80C0A0078C0B20243CA83DFF82C
:100F30006C0A0078C0B2000208840A8CDFF8600AEC
:100F40000078C0B202430A84DFF8580A0078C0B2C1
:100F5000000248844A8CDFF8500A0078C0B202438D
:100F60004A84DFF8480A0078C0B2000288848A8C7C
:100F7000DFF8980B0078C0B202438A8415E040F293
:100F80002B50C8827220088340F6BD20488340F26F
:100F9000BA2088834FF48D60C8837020088440F69F
:100FA0002830488440F2163088847047CC250020D1
:100FB000000800483727002000040048000C0048C3
:100FC0001426002038270020542500207C250020EE
:100FD00004270020002700200C0600202DE9F54FF3
:100FE00081B02DED108B92B00C0000201090DFF836
:100FF0001C0A0F9000200E9000200D9000200C90F5
:1010000000200B9000200A90002009900020ADF8ED
:1010100000000020ADF8120000200190DFED98FAEA
:101020009FED978A0020ADF81800DFED958A9FEDBF
:10103000949ADFED939A0020ADF810000020ADF8EF
:101040000E000020ADF80C000020ADF80A000020D2
:10105000ADF808005FF0000A5FF000095FF00008DB
:10106000200000B2002802D14FF42F7004000321A9
:10107000002205AD280001F025FA0621002207AD67
:10108000280001F01FFA01208DF81400DFF8D45574
:10109000B5F91400ADF81C0005AB0220587007AE7E
:1010A000A88B708003209870A88CB080002001006D
:1010B000C9B203294BDA00210A00D2B2022A44DA6B
:1010C00007AA0F00FFB202EB4702B2F902200F009D
:1010D000FFB236F91770BA4235DA00220F00FFB2BC
:1010E00036F917700DF11C0C8E465FFA8EFE0CEB74
:1010F0004E0CBCF802C08E465FFA8EFE26F81EC06B
:101100000DF11C0C8E465FFA8EFE0CEB4E0CACF80B
:1011100002708C465FFA8CFC13F80CC00DF1140EB3
:101120008B465FFA8BFBDE449EF801E08B465FFA4C
:101130008BFB03F80BE00DF1140E8B465FFA8BFB73
:10114000DE448EF801C0491CB6E7401CAFE702211F
:1011500001222000B6F9027000B2B84213DAB6F9E3
:101160000260200000B2361A27003FB2BDF91C0011
:101170003F1ABE4203DA5E789DF8147014E09DF8C1
:1011800014605F7810E027003FB2B6F902003F1A02
:10119000B6F90460200000B2361AB74202DA5E786F
:1011A0009F7801E09E785F783000C0B2012804D0BB
:1011B00033D3032821D010D32FE0E889ADF81000F5
:1011C000B5F91000ADF80E00B5F91200ADF80C003D
:1011D000B5F91400ADF80A001FE0E88AADF8100078
:1011E000B5F91800ADF80E00B5F91A00ADF80C000D
:1011F000B5F91C00ADF80A000FE0E88BADF810005F
:10120000B5F92000ADF80E00B5F92200ADF80C00DC
:10121000B5F92400ADF80A00FFE73800C0B2012894
:1012200004D02AD303281BD00DD326E0E889ADF8DB
:101230000800B5F910008246B5F912008146B5F9EB
:101240001400804619E0E88AADF80800B5F91800E6
:101250008246B5F91A008146B5F91C0080460CE0BB
:10126000E88BADF80800B5F920008246B5F92200F8
:101270008146B5F924008046FFE79FED01AA01E011
:1012800000000000DFED9EAAA979B5F9040002F084
:1012900087F9B0EE40BAFE21BDF9900002F080F966
:1012A000F0EE40BAFE21200000B202F079F9B0EE73
:1012B00040CAB5F80CB0BDF81000ADF81200FE2120
:1012C000BDF90E0002F06CF9F0EE40CAFE21BDF946
:1012D0000C0002F065F9B0EE40DAFE21BDF90A001B
:1012E00002F05EF9F0EE40DABDF80800ADF8180043
:1012F000FE21504600B202F053F9B0EE40EAFE2162
:10130000484600B202F04CF9F0EE40EAFE214046B9
:1013100000B202F045F9B0EE40FABDF81810584698
:1013200080B2091A00EE101AB8EEC00ABDF8121009
:10133000584680B2091A00EE901AF8EEE00A80EEE4
:10134000200A20EE2C0AB5F904000A2190FBF1F2E4
:1013500001FB1200002808D17EEECD0AB7EE001A7C
:1013600000EE8B1A21EE008A2BE0B5F904000A2169
:1013700090FBF1F201FB1200012808D17DEE6E0A0C
:10138000B7EE001A00EE8B1A21EE008A19E0B5F9CB
:1013900004000A2190FBF1F201FB1200022808D19F
:1013A0007DEE6E0AB7EE001A00EE8B1A80EE018A0F
:1013B00007E07EEECD0AB7EE001A00EE8B1A80EE43
:1013C000018ACEEE088A18EE900A02F0A7FA02000F
:1013D0000B000020DFF8D01802F0C4FACDE90001BC
:1013E0003DEECF0A10EE100A02F098FA02000B0050
:1013F000DDE9000102F028FB02F04AFC00EE900A51
:10140000B0EE681A00EECF1AF0EE411A40EE8C1AD8
:10141000BDF88C10584680B2091A00EE101AB8EECA
:10142000C00ABDF81210584680B2091A02EE101A0E
:10143000B8EEC22A80EE020A20EE2C0AB5F90400AA
:101440000A2190FBF1F201FB1200002808D13BEECB
:10145000CD2AF7EE002A42EE0B2A62EE802A2BE01C
:10146000B5F904000A2190FBF1F201FB12000128FA
:1014700008D13DEE6B2AF7EE002A42EE0B2A62EE0F
:10148000802A19E0B5F904000A2190FBF1F201FB72
:101490001200022808D13DEE6B2AF7EE002A42EE38
:1014A0000B2AC0EE222A07E03BEECD2AF7EE002AF7
:1014B00042EE0B2AC0EE222A21EEA22ABDF88C00B1
:1014C00000280AD0200000B2012806DBBDF99000F8
:1014D000012802DBB0EE420A01E09FED090A12B0DA
:1014E000BDEC108BBDE8F78FDFF8D8281070DFF85F
:1014F000D82811600122DFF8D4381A707047000034
:101500000000000038B584B00025DFF8BC0804688E
:101510000320DFF8B8180870322002F0AEFDDFF8C3
:10152000A4080078002807D0022833D011D304285B
:1015300000F0848058D386E07748B0F91410009109
:10154000B0F91230B0F91020C1894089FFF730FBA3
:1015500079E071489FEDA20ADFF87418D1ED010A15
:1015600060EE800AFDEEE00A10EE901A09B20091DA
:10157000DFF81C1BD1ED020A20EE800ABDEEC00A86
:1015800010EE103A1BB2220012B241898089FFF797
:101590000FFB58E060489FED920AB0F924100391C8
:1015A000B0F922100291B0F920100191C18B009185
:1015B000DFF81C18D1ED010A60EE800AFDEEE00AAA
:1015C00010EE903A1BB2DFF8C81AD1ED020A20EEF5
:1015D000800ABDEEC00A10EE102A12B2210009B234
:1015E0004089FFF7B1FB2EE04B489FED7D0ADFF805
:1015F000E017D1ED010A60EE800AFDEEE00A10EE80
:10160000901A09B20391DFF8881AD1ED020A20EE90
:10161000800ABDEEC00A10EE101A09B20291210034
:1016200009B2019141890091B0F91C30B0F91A203A
:10163000B0F91810C08AFFF787FB04E0200080B2E1
:10164000FFF773FAFFE705B030BD80B50320DFF880
:101650007C1708700421DFF83C0A00F02AFF01BD66
:10166000FC050020A425002014260020F0B403006F
:1016700000200C881500EDB2042D16D12500ADB266
:101680001D44AE782500ADB21D44ED7855EA06251F
:101690002600B6B29E5D2700BFB21F447F7857EA8E
:1016A000062757EA054738000DE01500EDB2022D78
:1016B00009D12500ADB25D5D2600B6B21E44767834
:1016C00056EA052630000D8855FA82F50D80F0BCEB
:1016D000704770B504000D00DFF8C06901224FF4B7
:1016E0008051300001F085FA0A2003F061F801F022
:1016F0006FFC4FF47A732A0092B22100DFF8BC0B22
:1017000003F0A7F800224FF48051300001F071FA85
:1017100070BD000000200208A4250020022002085D
:10172000032002082DE9F0412DED028B8EB0F0EE82
:10173000408AB0EE608A322100226C46200000F020
:10174000C1FE002700240025DFF84489C8ED058A82
:1017500088ED068A98ED050A02F010F8060098ED6B
:10176000060A02F00BF8804668463100090E3A007E
:10177000D2B281547F1C3100090C3A00D2B281549C
:101780007F1C3100090A3A00D2B281547F1C390013
:10179000C9B246547F1C4146090E3A00D2B2815468
:1017A0007F1C4146090C3A00D2B281547F1C41464D
:1017B000090A3A00D2B281547F1C3900C9B200F83C
:1017C00001807F1C3A00D2B292B26946DFF8D0089D
:1017D00002F05CF80EB0BDEC028BBDE8F0810000B9
:1017E0000000C842D0260020002802080228020873
:1017F00070B500240025DFF8A8080078C0B2FF28E3
:101800003AD0DFF8A0080178C9B20906DFF89808D5
:101810000078C0B251EA0041DFF890080078C0B209
:1018200051EA0021DFF888080078C0B201430C00BB
:10183000DFF880080178C9B20906DFF87C08007873
:10184000C0B251EA0041DFF874080078C0B251EA32
:101850000021DFF86C080078C0B201430D00DFF80A
:10186000306816F11401200001F008FD16F118018E
:10187000280001F003FD05E0DFF8140800214161B4
:101880000021816170BD00000328020804280208BD
:101890000528020806280208072802080828020866
:1018A000092802080A2802080B280208DFF8E007C6
:1018B00064218183FE218177704700000030020897
:1018C0000230020878B591B004000D003C210022DE
:1018D00002AE300000F0F6FD0020ADF80400032158
:1018E000022004F006F90B2000900023DFF8D42A30
:1018F00001A902A801F0ACFC4FF47A73BDF80420F2
:1019000002A9DFF8C40A02F0A4FF12B070BD000003
:1019100003300208043002080530020806300208CD
:101920000730020808300208093002080A300208AD
:101930000B30020878B591B004000D003C21002264
:1019400002AE300000F0BEFD0020ADF80400DFF86C
:10195000500701F06BFFDFF86C0901F067FFDFF85B
:10196000600900210170DFF8581A8160DFF84C1A15
:1019700041600D2000900023DFF8502A01A902A841
:1019800001F066FC4FF47A73BDF8042002A9DFF879
:10199000380A02F05EFF12B070BD00000C30020881
:1019A0000D3002080E3002080F3002081030020815
:1019B00038B590B004000D0003A8DFF8141A3222E5
:1019C00004F0AAFADFF80C0AD0E90023CDE90123DC
:1019D00003A801900023DFF8000A027802A903A8F7
:1019E00001F0C1FB022000900023ADA202A903A8D0
:1019F00001F02EFC4FF47A73BDF808200199DFF84E
:101A0000C80902F026FF11B030BD00006F12833A02
:101A1000F8B504000D0000262068007830283EDB71
:101A2000206800783A283ADA002700200100C9B27D
:101A3000A28889B291420FD221680200D2B2895C99
:101A4000302905DB21680200D2B2895C3A2900DB2B
:101A500002E07F1C401CE9E73900C9B2206801F0B0
:101A6000AFFC0600B6F5807F0FD2DFF86C09417835
:101A70003000C0B204F03DF84FF47A73022289A11D
:101A8000DFF8440902F0E5FE12E04FF47A73052214
:101A9000DFF84819DFF8300902F0DBFE08E04FF408
:101AA0007A730522DFF83419DFF81C0902F0D1FE41
:101AB000F1BD38B590B004000D0003A8DFF820197F
:101AC000322204F029FADFF81C09D0E90023CDE91D
:101AD000012303A801900023DFF8FC08427802A943
:101AE00003A801F040FB0220009000236CA202A991
:101AF00003A801F0ADFB4FF47A73BDF808200199FB
:101B0000DFF8C40802F0A5FE11B030BD11300208A4
:101B1000F8B504000D0000262068007830283DDB71
:101B2000206800783A2839DA002700200100C9B27D
:101B3000A28889B291420FD221680200D2B2895C98
:101B4000302905DB21680200D2B2895C3A2900DB2A
:101B500002E07F1C401CE9E73900C9B2206801F0AF
:101B60002FFC06000C2E0FD23100C9B2DFF8680836
:101B7000007803F0BEFF4FF47A73022249A1DFF828
:101B8000480802F066FE12E04FF47A730522DFF88F
:101B90004C18DFF8340802F05CFE08E04FF47A736A
:101BA0000522DFF83818DFF8200802F052FEF1BDF8
:101BB00030B59BB004000D0002A8DFF82C18642299
:101BC00004F0BAF9DFF82408D0E90023CDE90023B6
:101BD00002A80090DFF818088379B0F9042001A961
:101BE00002A801F0C0FA4FF47A73BDF804200099FE
:101BF000DFF8D40702F02DFE1BB030BDF8B50500AC
:101C00000E0000242868007830283EDB2868007821
:101C10003A283ADA002700200100C9B2AA8889B21E
:101C200091420FD229680200D2B2895C302905DBCB
:101C300029680200D2B2895C3A2900DB02E07F1CED
:101C4000401CE9E73900C9B2286801F0B9FB04007B
:101C500042F2117084420ED2002C0CD0200080B2CF
:101C6000FEF763FF4FF47A7302220EA1DFF85807E4
:101C700002F0EFFD12E04FF47A730522DFF85C17F3
:101C8000DFF8440702F0E5FD08E04FF47A7305221F
:101C9000DFF84817DFF8300702F0DBFDF1BD000088
:101CA0000D0A00004F4B00000000F03F78B5B5B0C2
:101CB00004000D0003A8DFF83C17C82204F03CF92B
:101CC000DFF83407D0E90023CDE9012303A8019010
:101CD000DFF81C67FE23728902A903A801F043FA0A
:101CE000062000900023DFF8142702A903A801F0C2
:101CF000AFFAFE23B28902A903A801F034FA072043
:101D000000900023DFF8F82602A903A801F0A0FA4A
:101D1000FE23F28902A903A801F025FA052000900C
:101D20000023DFF8E02602A903A801F091FAFE23C0
:101D3000B6F9102002A903A801F015FA06200090B8
:101D40000023DFF8C42602A903A801F081FAFE23CC
:101D5000B6F9122002A903A801F005FA04200090A8
:101D60000023DFF8A82602A903A801F071FAFE23D8
:101D7000B6F9142002A903A801F0F5F90920009092
:101D80000023DFF88C2602A903A801F061FAFE23E4
:101D9000B6F9002002A903A801F0E5F9032000909C
:101DA000002370A202A903A801F052FA4FF47A733B
:101DB000BDF808200199DFF8100602F04AFD36B0A0
:101DC00070BD000035270020FC260020CC25002017
:101DD000040600202DE9FE4F05000E00002400201F
:101DE00000212A6817782A6892F801802A68D27838
:101DF000302AC0F2AB802868C0783A2880F2A680EA
:101E00005FF0000903200100C9B2AA8889B291429B
:101E100010D229680200D2B2895C302905DB29681A
:101E20000200D2B2895C3A2900DB03E019F1010912
:101E3000401CE8E74946C9B22868C01C01F0C0FA56
:101E4000040041F28930844276D2002C74D0DFF84D
:101E5000A0058189ADF80A10C189ADF80810B0F964
:101E60001010ADF80610B0F91210ADF80410B0F96A
:101E700014A05FF0010B3800C0B25A2807D14046C9
:101E8000C0B2302803D12000ADF80A0030E038009D
:101E9000C0B2532807D14046C0B2302803D1200039
:101EA000ADF8080024E03800C0B2432807D140460E
:101EB000C0B2302803D12000ADF8060018E0380089
:101EC000C0B2542807D14046C0B2302803D1200008
:101ED000ADF804000CE03800C0B2502806D14046EE
:101EE000C0B2302802D12000824601E000208346A3
:101EF0005846C0B2012815D1504600B20090BDF935
:101F00000430BDF90620BDF80810BDF80A00FEF740
:101F10004FFE4FF47A7302225FA1DFF8AC0402F0A7
:101F200098FC1CE04FF47A730522DFF8B014DFF858
:101F3000980402F08EFC12E04FF47A730522DFF869
:101F40009C14DFF8840402F084FC08E04FF47A73F8
:101F50000522DFF88814DFF8700402F07AFCBDE88F
:101F6000F78F0000454E440078B5B5B004000D0071
:101F700003A8DFF8A014C82203F0DEFFDFF89804FE
:101F8000D0E90023CDE9012303A80190DFF86064C4
:101F9000FE23F28A02A903A801F0E5F806200090CA
:101FA0000023DFF8782402A903A801F051F9FE23E9
:101FB000B6F9182002A903A801F0D5F8072000906F
:101FC0000023DFF85C2402A903A801F041F9FE23F5
:101FD000B6F91A2002A903A801F0C5F8052000905F
:101FE0000023DFF8402402A903A801F031F9FE2301
:101FF000B6F91C2002A903A801F0B5F8062000904C
:102000000023DFF8242402A903A801F021F9FE230C
:10201000F28B02A903A801F0A6F806200090002385
:10202000DFF8082402A903A801F012F9FE23B6F98B
:10203000202002A903A801F096F8072000900023B1
:10204000DFF8EC2302A903A801F002F9FE23B6F998
:10205000222002A903A801F086F8052000900023A1
:10206000DFF8D02302A903A801F0F2F8FE23B6F9A5
:10207000242002A903A801F076F84FF47A73BDF882
:1020800008200199DFF8400302F0E3FB36B070BD91
:10209000142600206C0500204F4B0000000800486B
:1020A00000080208020802080308020804080208DF
:1020B00005080208060802080708020808080208BE
:1020C000090802082DE9F84F88B005000E00002429
:1020D000002000212A6817782A6892F801802A686F
:1020E000D278302AC0F2E0802868C0783A2880F29E
:1020F000DB805FF0000903200100C9B2AA8889B221
:10210000914210D229680200D2B2895C302905DBE5
:1021100029680200D2B2895C3A2900DB03E019F198
:102120000109401CE8E74946C9B22868C01C01F013
:1021300047F9040041F28930844280F0AD80002CE0
:1021400000F0AA80AA48C18AADF81C10B0F9181096
:10215000ADF81A10B0F91A10ADF81810B0F91C103B
:10216000ADF81610C18BADF81410B0F92010ADF811
:102170001210B0F92210ADF81010B0F924A05FF0E1
:10218000010B3800C0B2412807D14046C0B2312807
:1021900003D12000ADF81C0054E03800C0B2432841
:1021A00007D14046C0B2312803D12000ADF81A0053
:1021B00048E03800C0B2542807D14046C0B23128A8
:1021C00003D12000ADF818003CE03800C0B2502820
:1021D00007D14046C0B2312803D12000ADF8160027
:1021E00030E03800C0B2412807D14046C0B23228A2
:1021F00003D12000ADF8140024E03800C0B2432819
:1022000007D14046C0B2322803D12000ADF81200F9
:1022100018E03800C0B2542807D14046C0B2322876
:1022200003D12000ADF810000CE03800C0B25028F7
:1022300006D14046C0B2322802D12000824601E0D9
:10224000002083465846C0B201281DD1504600B236
:102250000390BDF910000290BDF912000190BDF885
:1022600014000090BDF91630BDF91820BDF91A1000
:10227000BDF81C00FEF768FD4FF47A7302224EA1F0
:10228000514802F0E6FA16E04FF47A7305225349FA
:102290004D4802F0DEFA0EE04FF47A7305224F4902
:1022A000494802F0D6FA06E04FF47A7305224B490A
:1022B000454802F0CEFA09B0BDE8F08F202000209A
:1022C000B82600200010020880B5FFF791FAFFF74A
:1022D000EDFAFEF7D7FCFEF7DFFDFEF748FC5648A7
:1022E0005649C0F8A4135649C0F8B4135549C0F86C
:1022F000C4135549C0F8D4135449C0F8E4135449E1
:10230000C0F8F4135349C0F804145349C0F8141426
:102310005249C0F824145249C0F834145149C0F845
:1023200044145149C0F8541400F069FE00F058FEFE
:1023300001BD000070B50020002400252800C0B2B7
:10234000092836DA494E2800C0B2000130444078EE
:1023500001282CD1012004002800C0B20001304423
:10236000406800280ED003F02BFE2900C9B20901F5
:1023700031444968401A2900C9B2090131448968C9
:10238000884214D300202900C9B2090131444870A1
:1023900003F016FE2900C9B2090131444860280043
:1023A000C0B22900C9B209013144C96888476D1C0F
:1023B000C4E72000C0B270BD4F4B0000000048428F
:1023C00000001644E0FA0008101F00209CF80008E6
:1023D0001CF4000844FD0008D80A0020D4FC0008C2
:1023E00050F400084CFD0008B0E4000854FD00085B
:1023F000A425002074F100085CFD0008DCFC000846
:10240000E4FC0008ECFC0008F4FC0008FCFC0008FC
:10241000ECFA00083CF2000864FD000804FD000826
:102420000CFD000814FD00081CFD000824FD000838
:102430002CFD000834FD000818060020C51800080F
:1024400035190008B1190008111A0008B31A00085C
:10245000111B0008B11B0008FD1B0008AD1C000883
:10246000D51D0008691F0008C52000086C05002064
:10247000020001200B00DBB21B0113445870002046
:102480000B00DBB21B01134458600120704738B5C4
:1024900004000D0001202900C9B20901214448703F
:1024A00003F08EFD2900C9B20901214448600120D2
:1024B00032BD020000200B00DBB21B011344587038
:1024C0000120704762F30F2262F31F42401810F0A0
:1024D000030308D0C91A1FD3DB0748BF00F8012D3A
:1024E00028BF20F8022D130030B4144615461039C9
:1024F00028BF20E93C00FAD8490728BF20E90C0092
:1025000048BF40F8042D890028BF20F8022D48BF9D
:1025100000F8012D30BC7047C91818BF00F8012D14
:10252000CB0728BF00F8012D704730B403004FF6E9
:10253000FF7000248C4213DA1A5D50400822002AF2
:102540000CD0C50706D580B2400880F4204090F03A
:10255000010001E080B24008521EF0E7641CE9E788
:1025600080B230BC70472DE9F84305000E0017001B
:102570009846089C5FF000092868494689B246548D
:1025800019F101092868494689B2475419F101092E
:10259000404680B2000A29684A4692B2885419F12E
:1025A00001092868494689B200F8018019F101093A
:1025B000200080B2000A29684A4692B2885419F174
:1025C00001092868494689B2445419F1010949466C
:1025D00089B22868FFF7A9FF010028684A4692B22D
:1025E000815419F10109080080B2000A2A684B469B
:1025F0009BB2D05419F10109A5F804900120BDE85F
:10260000F2832DE9F84F06000F00904699460A9D87
:10261000DDF82CA0002400213068220092B28754FB
:10262000641C3068220092B200F80280641C4846A4
:1026300080B2000A326823009BB2D054641C306818
:10264000220092B200F80290641C4046C0B20628F4
:1026500002D0102807D01CE0280080B2012801D049
:10266000002040E015E0280080B2000A3268230014
:102670009BB2D054641C3068220092B28554641C12
:102680002800C0B24000326823009BB2D054641CC2
:10269000FFE75FF0000B584680B2290089B2B0EB2B
:1026A000410F0BDA584680B21AF800003168220058
:1026B00092B28854641C1BF1010BECE7210089B233
:1026C0003068FFF732FF01003068220092B2815477
:1026D000641C080080B2000A326823009BB2D05408
:1026E000641CB4800120BDE8F28F2DE9F84F05008D
:1026F0000E00170098460A9CDDF82C905FF0000B46
:10270000002029685A4692B28E541BF1010B2968A9
:102710005A4692B28F541BF1010B2100C9B24900F5
:102720002A685B469BB2D1541BF1010B5FF0000A93
:10273000504680B2210089B2B0EB410F0CDA50460E
:1027400080B219F8000029685A4692B288541BF1E9
:10275000010B1AF1010AEBE7594689B22868FFF725
:10276000E4FE010028685A4692B281541BF1010B25
:10277000080080B2000A2A685B469BB2D0541BF165
:10278000010BA5F804B00120BDE8F28F2DE9F84F48
:1027900005000E00170098460A9CDDF82C905FF0AB
:1027A000000B5FF0000A2868594689B246541BF1B5
:1027B000010B2868594689B247541BF1010B40466A
:1027C00080B2000A29685A4692B288541BF1010B64
:1027D0002868594689B200F801801BF1010B3800C6
:1027E000C0B2062802D010281DD02CE0200080B2F4
:1027F000012801D000203EE000208246504680B2F1
:10280000210089B2B0EB410F0CDA504680B219F8C2
:10281000000029685A4692B288541BF1010B1AF144
:10282000010AEBE70FE0200080B2000A29685A464F
:1028300092B288541BF1010B2868594689B244545E
:102840001BF1010BFFE7594689B22868FFF76DFEBF
:10285000010028685A4692B281541BF1010B08000E
:1028600080B2000A2A685B469BB2D0541BF1010B70
:10287000A5F804B00120BDE8F28F30B4002513E0C4
:1028800050F8042BD30744BFA9F101039A18091F7C
:10289000042942F8045BFAD213468C0744BF158022
:1028A0009B1CC90748BF1D7050F8041B0029E7D1C5
:1028B00030BC7047F8B4030000250868E8400028E1
:1028C00000F0D78001260F6816FA05F007403A009D
:1028D000002A00F0CC80087910F00300012804D011
:1028E000087910F0030002281DD19F685FF0030CE7
:1028F0002800C0B240001CFA00FC37EA0C07D1F8EF
:102900000CC02800C0B240001CFA00FC5CEA0707BB
:102910009F605868AE40B0434E68C6F30016AE40A4
:10292000304304005C60087910F0030003280ED0E7
:10293000DE6803272800C0B240008740BE438F688E
:102940002800C0B2400087403E433400DC60087974
:1029500010F00300022818D12800C00803EB800003
:10296000066A0F2715F00700C0B280008740BE43FB
:102970000F6915F00700C0B2800087403E43340065
:102980002800C00803EB800004621E6803272800AB
:10299000C0B240008740BE430F7917F003072800FC
:1029A000C0B2400087403E4334001C60486810F4C9
:1029B000403F5CD09548066856F001060660006806
:1029C00010F0010000900098914F2800800857F8FF
:1029D00020605FF00F0C15F00300C0B280001CFAFD
:1029E00000FC36EA0C06B3F1904F01D1002414E04C
:1029F0008848834201D101240FE08748834201D1F6
:102A000002240AE08548834201D1032405E084487A
:102A1000834201D1042400E0072415F00300C0B272
:102A20008000844026432800800847F820607D4CC1
:102A3000206890434F68FF0200D5104320607A4E13
:102A4000346894434F68BF0200D514433460774E16
:102A5000306890434F68BF0300D510433060744E18
:102A6000346894434F68FF0300D5144334606D1CF1
:102A700023E7F1BC70472DE9F04103000025080071
:102A8000E840002800F0A880012616FA05F008406A
:102A90000200002A00F09E80DFF874C12800800840
:102AA0005CF820000F2715F0030E5FFA8EFE5FEA38
:102AB0008E0E17FA0EFE1EEA00000400B3F1904FCE
:102AC00002D15FF0000E19E05248834202D15FF05C
:102AD000010E13E05048834202D15FF0020E0DE078
:102AE0004E48834202D15FF0030E07E04C48834218
:102AF00002D15FF0040E01E05FF0070E15F0030055
:102B0000C0B280001EFA00FE74452CD14848D0F8AF
:102B100000E03EEA020EC0F800E04448D0F800E0D1
:102B20003EEA020EC0F800E03F48D0F800E03EEA7E
:102B3000020EC0F800E03B48D0F800E03EEA020E8A
:102B4000C0F800E015F00300C0B2800017FA00F0F2
:102B50000400280080085CF82000A043AE465FEA2D
:102B60009E0E4CF82E005FF0030C1868AE465FFA1C
:102B70008EFE5FEA4E0E1CFA0EFE5EEA0000186042
:102B80002800C00803EB800E2800C00803EB80007B
:102B9000D0F8208015F00700C0B28000874038EAE6
:102BA0000707CEF8207098682F00FFB27F001CFA4C
:102BB00007F7B84398605868AE4030EA06065E6092
:102BC000DE682800C0B240001CFA00FC36EA0C0C9B
:102BD000C3F80CC06D1C52E7BDE8F081020010691B
:102BE0000B009BB2184201D0012000E00020C0B2CF
:102BF00070471300DBB2002B03D00B009BB2836144
:102C000002E00B009BB2836270470000601002403C
:102C1000080001400004004800080048000C00487B
:102C200000100048080401400C0401400404014065
:102C30000004014080B5D448D44901605FF4E1311B
:102C40004160002181600021C160002101610C21EF
:102C5000416100218161002101620021416201F096
:102C6000BBFD002801D003F010FA01BD80B5C848B3
:102C7000C84901604FF41651416000218160002174
:102C8000C160002101610C214161002181610021AD
:102C9000C161002101620021416201F09DFD002817
:102CA00001D003F0F2F901BD80B5BB48BB4901601A
:102CB0004FF416514160002181600021C160002164
:102CC00001610C214161002181610021C16100216C
:102CD00001620021416201F07FFD002801D003F074
:102CE000D4F901BD38B59EB0040014220021684615
:102CF00003F0CDF96022002106A803F0C8F920688E
:102D0000A249884252D1202006900020119006A8A6
:102D100003F0C8F9002801D003F0B7F9A048016812
:102D200051F001010160006810F001000590059864
:102D30009C48016851F002010160006810F0020037
:102D4000059005984FF4406000900220019000200B
:102D50000290032003900820049069469248FFF7F0
:102D6000A9FD924D92482860042068600020A86068
:102D70000020E86080202861002068610020A861B0
:102D80000020E86100202862280003F0FFFB0028F3
:102D900001D003F07AF96567AC6200220021462079
:102DA00003F095FE462003F0A7FEABE020687949CA
:102DB000884251D10120069000200E9006A803F011
:102DC00071F9002801D003F060F97A48016851F4E4
:102DD00080410160006810F48040059005987148BA
:102DE000016851F002010160006810F002000590D6
:102DF0000598C0200090022001900020029003203E
:102E000003900720049069466748FFF753FD6A4D19
:102E10006A482860022068600020A8600020E860FE
:102E200080202861002068610020A8610020E861FE
:102E300000202862280003F0A9FB002801D003F03D
:102E400024F96567AC6200220021252003F03FFED3
:102E5000252003F051FE55E020685049884251D1A9
:102E6000042006900020109006A803F01BF900280B
:102E700001D003F00AF95248016851F48021016041
:102E8000006810F48020059005984648016851F0CC
:102E900004010160006810F00400059005984FF4EB
:102EA00040600090022001900020029003200390D7
:102EB0000720049069464348FFF7FCFC424D434815
:102EC0002860022068600020A8600020E860802060
:102ED0002861002068610020A8610020E8610020CE
:102EE0002862280003F052FB002801D003F0CDF83F
:102EF0006567AC6200220021272003F0E8FD27204F
:102F000003F0FAFD1FB030BD10B5040020681F4962
:102F1000884210D1224801684908490001604FF4F5
:102F200040612148FFF7A7FD606F03F09FFB46203B
:102F300003F0E9FD27E02068164988420FD11D48BB
:102F4000016831F480410160C0211748FFF793FD0B
:102F5000606F03F08BFB252003F0D5FD13E02068A4
:102F60000E4988420FD11648016831F48021016072
:102F70004FF440611348FFF77EFD606F03F076FB6E
:102F8000272003F0C0FD10BD101F0020008000406E
:102F9000981F0020003801402020002000480040F9
:102FA0005C1002404C1002400004004850240020F5
:102FB0008004024060100240982400205800024023
:102FC0005810024000080048E02400203000024071
:102FD00080B5184803F0FEFD02201749087001BDB6
:102FE00080B501221549164801F099FC0022012103
:102FF000272003F06CFD272003F07EFD01BD704704
:1030000038B504000B480D490A78036885885A557D
:103010008288521C8280828840F2FF139A4201D338
:10302000002282800122064801F079FC0120024939
:10303000087031BD880A00203B2700203A27002075
:103040002020002001000800C0B2002801D101208A
:1030500021E00800C0B2FF2801D10A201BE00800CF
:10306000C0B2FE2801D1642015E00800C0B2FD28DE
:1030700002D14FF47A700EE00800C0B2FC2802D1F1
:1030800042F2107007E00800C0B2FB2802D1DFF85E
:10309000C00600E0012070472DE9F24F82469346BA
:1030A000002000210A260027B046B946009A15885C
:1030B000BBF1000F08D5DBF100042D202A0092B2ED
:1030C0000AF802006D1C00E05C4620000021424628
:1030D0004B4603F045FE002901D1002808D0A6FB8D
:1030E000080106FB091107FB081180468946ECE739
:1030F000404649460A22002303F032FE06000F0034
:10310000002F01D1002E28D02000002132003B00EA
:1031100003F026FE3030290089B20AF801006D1C48
:10312000A0465FF000092000002132003B0003F0C0
:1031300017FEA6FB002306FB013307FB0033B8EBA9
:10314000020079EB03010400300039000A22002359
:1031500003F006FE06000F00D2E700980580280065
:10316000C0B2BDE8F28F2DE9FE4F06000F00904679
:103170000020ADF800000020002400215FF0000BCB
:10318000B7F80090B8F1000F02D5D8F1000500E0C3
:103190004546424639003000FFF77EFFB7F800A0F1
:1031A000002D4FD09DF80800FFF74CFF01008D4225
:1031B00005D20A2045431BF1010B002DF7D15846DB
:1031C000C0B2002821D050460200D2B2324412F8D8
:1031D000012C2D2A06D00200D2B24B4692B29BB2ED
:1031E0009A4208D130220300DBB2F2541AF1010AEC
:1031F000BBF1010BE3E70200D2B2324412F8012C1A
:103200000300DBB2F254401EDEE70A20B1FBF0F40B
:1032100050468346002C15D00A20B4FBF0F45846E3
:10322000C0B2304410F8010C5946C9B27054BBF119
:10323000010B002CEED12E205946C9B270541AF160
:10324000010AE7E7A7F800A05046C0B2BDE8FE8F2C
:10325000F0B4049C00252E00B6B2A6420BD20E8814
:10326000771C0F802F00BFB217FA83F7D75DB6B275
:1032700087556D1CEFE7F0BC704700002DE9F34F58
:1032800081B02DED028B9FED658A0024012500267B
:10329000F7EE008A00273800C0B2202864DA0398CD
:1032A000F84010F0010004003800C0B2172829DAF5
:1032B00018EE900A00F032FB82468B462000C0B226
:1032C00003F066FE804689463800C0B2D0F1170090
:1032D0005FF0FF31484303F069FE41EC110B9FEDB5
:1032E000500B03F078FE51EC100B42464B4603F0B6
:1032F0007BFE52465B4603F049FF00F0C9FC08EE36
:10330000900A2FE03800C0B21F2824DA3000C0B283
:1033100003F03EFE82468B462000C0B203F038FE2A
:10332000804689463800C0B2173803F03FFE41ECB2
:10333000110B9FED3B0B03F04EFE51EC100B424680
:103340004B4603F051FE52465B4603F01FFF03F06D
:10335000DBFF060006E02000C0B2012802D15FF0CA
:10336000FF3005007F1C96E7280040B203F01EFEE8
:10337000804689463000C0B27F3803F017FE41EC2A
:10338000110B9FED270B03F026FE51EC100B42466C
:103390004B4603F029FE8046894618EE900A00F05D
:1033A000BDFA42464B4603F01FFE00F071FC00EEF2
:1033B000100A049880ED000ABDEC028BBDE8F78F7F
:1033C00070B4030000220024002000252A000E0013
:1033D000D2B2F6B2B2421FD22A00D2B29A5C302ADE
:1033E0000ADB2A00D2B29A5C3A2A05DA2A00D2B263
:1033F0009A5C303A140001E0002214002A00D2B294
:10340000002A03D12200D2B2100003E00A22504366
:1034100050FA84F06D1CD9E770BC704700000000C2
:103420000000000000000040F8B52DED028B82B0D6
:1034300004000D000020009000269FED4E8A00271A
:10344000DFED568A69462000FFF718FF2800C0B25A
:1034500000280AD0FB2836D0FC282BD0FD2820D00D
:10346000FE2815D0FF2809D036E09FED420AB0EEC5
:10347000408A9FED4A0AF0EE408A2DE00A2000EED5
:10348000100AB0EE408A9FED3C0AF0EE408A23E03D
:103490009FED3A0AB0EE408A9FED390AF0EE408A7D
:1034A0001AE09FED380AB0EE408A9FED370AF0EE41
:1034B000408A11E09FED350AB0EE408A9FED340A54
:1034C000F0EE408A08E09FED330AB0EE408A9FEDAF
:1034D000320AF0EE408AFFE79DED000AB5EE400AA1
:1034E000F1EE10FA1BDBB8EE480ADDED000A20EE23
:1034F000200AF2EE040A20EE200ABCEEC00A10EE0A
:10350000100A0A22B0FBF2F102FB1101052923D3B4
:103510009DED000A30EE280A8DED000A1CE0B8EEA1
:10352000480ADDED000AF1EE600A20EE800AF2EEB4
:10353000040A20EE200ABCEEC00A10EE100A0A228D
:10354000B0FBF2F102FB1101052905D39DED000A44
:1035500030EE680A8DED000AB8EE480ADDED000A8B
:1035600020EE200ABDEEC00A10EE100A02B0BDEC3B
:10357000028BF2BD01000000CDCCCC3D6400000008
:103580000AD7233CE80300006F12833A102700009B
:1035900017B7D138A0860100ACC52737000000005E
:1035A0002DE9F0412DED028B07000E009FED678A9B
:1035B0003000C0B200280BD0FB2800F09E80FC2811
:1035C00077D0FD2851D0FE282CD0FF2807D0B7E0B7
:1035D00000EE107AB8EEC00AB0EE408AB0E00A20E1
:1035E00097FBF0F000EE100AB8EEC00A5FF00A0890
:1035F00010EE100A00F092F904000D0097FBF8F0AD
:1036000008FB1078404603F0D1FC524A524B03F0BD
:10361000EBFC22002B0003F0B9FD00F039FB08EEB3
:10362000100A8DE0642097FBF0F000EE100AB8EE6F
:10363000C00A5FF0640810EE100A00F06FF9040091
:103640000D0097FBF8F008FB1078404603F0AEFC45
:10365000424A434B03F0C8FC22002B0003F096FDC6
:1036600000F016FB08EE100A6AE04FF47A7097FB40
:10367000F0F000EE100AB8EEC00A4FF47A7810EEBF
:10368000100A00F04BF904000D0097FBF8F008FB5E
:103690001078404603F08AFC324A334B03F0A4FC16
:1036A00022002B0003F072FD00F0F2FA08EE100A7F
:1036B00046E042F2107097FBF0F000EE100AB8EE10
:1036C000C00A42F2107810EE100A00F027F9040048
:1036D0000D0097FBF8F008FB1078404603F066FCFD
:1036E000224A234B03F080FC22002B0003F04EFD06
:1036F00000F0CEFA08EE100A22E0154897FBF0F031
:1037000000EE100AB8EEC00ADFF8448010EE100A8E
:1037100000F004F904000D0097FBF8F008FB1078A6
:10372000404603F043FC134A134B03F05DFC2200B8
:103730002B0003F02BFD00F0ABFA08EE100AFFE7B8
:10374000B0EE480ABDEC028BBDE8F081000000003D
:10375000A08601009A9999999999B93F7B14AE472F
:10376000E17A843FFCA9F1D24D62503F2D431CEB1E
:10377000E2361A3FF168E388B5F8E43E10B42DED67
:10378000010A00206A460023042B07D2D45C1900EA
:10379000C9B2C9008C4020435B1CF5E712BC7047DE
:1037A0002DE9F74F82B000265FF0000A5FF0000BB2
:1037B00054465D46002000900127DDF80C80DDF8BE
:1037C0000890049810F0070F2BD10498C00800212E
:1037D00082468B4603F00EFE4FF47A7003F022FE11
:1037E00000200600300080B20021594517D801D3CF
:1037F000504514D2D8E9000104000D0022002B002E
:103800004946002003F09EFD07003800C0B20128A1
:1038100005D019F1080918F10808761CE2E703F051
:10382000FAFD3800C0B205B0BDE8F08F70B50400F5
:10383000012503F0DFFD06004FF47A7003F0F2FD7E
:103840003000C0B200280FD1C4F3CC20B0F5807F87
:1038500005D20121C4F3CC2003F050FE04E0012185
:10386000C4F3CC2003F04AFE4FF47A7003F0DAFD83
:1038700005000548016831F00201016003F0CBFD4D
:103880002800C0B270BD0000142002402DE9F041B4
:10389000C0B004000D00160000274FF48071002214
:1038A000E8464046FEF70EFE2000FFF7BFFFA520CA
:1038B0008DF8000030008DF801005FF000084046F0
:1038C000310080B289B288420AD2404680B2285C78
:1038D0006946424692B21144887018F10108EEE739
:1038E000B61C300080B20821B6B20836361A90FBFA
:1038F000F1F001FB0066320092B269462000FFF74A
:103900004FFF002801D0002000E0012040B0BDE8BA
:10391000F0810268531C036011707047C0F3C751F7
:1039200081B1FF2906D0C110400721F0E04101F12B
:103930006051704741020CBF40F4E0016FF000415C
:103940000020704700F0004100020AD0B0FA80FC6D
:1039500000FA0CF001F16051A1EB0C5101EBD02108
:103960004005704770B44FF0004591EA030F43F1F2
:1039700015846B40841A71EB030603D2001BB1411E
:10398000121973414FF4001C1CEB410F34BF7CEB48
:10399000430442E00C0DA4EB1356352E4FDC45EAF0
:1039A000C323DB0A45EAC121C912B6F120050DDDAA
:1039B00063FA05F6EB4086EA0305124218BF45F0AC
:1039C0000105C01851F100010CD213E062FA06F5AE
:1039D000F2405540F3415A40B340F3405A408018FA
:1039E000594107D349085FEA30005FEA350528BF2F
:1039F00045F0010501F58011420875F1004250F1D2
:103A0000000041EB04514E0016F5001F70BC38BF9A
:103A100070470020090D090570471CEB410F10D2BB
:103A200052EA43060BD0BCEB410F05D80C0DAB435B
:103A3000661E342EB6DD02E0AB438018594170BCDF
:103A4000704770BC70472E00F0B540F2FF7581EAF8
:103A5000030C0CF0004C15EA11541DBF15EA135766
:103A6000AC42AF42E5E0BC41C1F31301C3F3130321
:103A7000801A994143F4801304D2641E40004941E6
:103A800080185941C90241EA5051B1FBF3F603FBDA
:103A90001611A2FB0675D7EBC020A94102D2761EF3
:103AA00080185941C90241EA5051B1FBF3FE03FBB2
:103AB0001E11A2FB0E75D7EBC020A94103D2AEF1B7
:103AC000010E80185941890241EA9051760546EA73
:103AD0008E2EB1FBF3F603FB1611A2FB0675D7EB96
:103AE0008020A94102D2761E80185941C90241EABC
:103AF00050514EEA060EB1FBF3F603FB1611A2FB82
:103B00000675D7EBC020A94102D2761E8018594114
:103B1000C90241EA5051B1FBF3F703FB1711A2FBB5
:103B20000735D3EBC020A94167F100070CBF004265
:103B300047F0010766F3D5274FEA1E31B80814F5A0
:103B4000806412DDBD0775F1004250EB0E5051EB61
:103B5000045111F5801F5CBF41EA0C01F0BD4CF02F
:103B60007F6141F0E0410020F0BDBD076D0840EAF3
:103B70000E5041F48011D4F10104B4F120060ADAA8
:103B8000C4F120060200E04001FA06F3E1401843C8
:103B9000B24015430EE0342C13DCC6F1200445EA94
:103BA00040056D0820FA06F2154321FA06F0A140FF
:103BB0000D43002175F1004250F1000051EB0C0162
:103BC000F0BD00205FEA0C01F0BDCFB992185B4157
:103BD000B3FA83F704BFB2FA82F6BF190B3FB7F10D
:103BE00020062FBF02FA06F3BB40C7F1200622FAD7
:103BF00006F638BF3343BA401CB1E419641E33E7FC
:103C00007F4231F00041B1FA81F404BFB0FA80F68E
:103C1000A4190B3CB4F120062FBF00FA06F1A14015
:103C2000C4F1200620FA06F638BF3143A0403C1B01
:103C30001AE7AC421ABF05EA1357AF4212E050EA46
:103C400041061CBF52EA4306BFE750EA410730462F
:103C500061461CBF41EA0551F0BD52EA430C08BF62
:103C6000C143F0BD00204FF4001616EB410F98BF82
:103C700016EB430F08BF16EB410F24BFC14305E00D
:103C800016EB430F0CBF61464CEA0551F0BD000036
:103C900001F000428B1AA3F16051B1F5801F0ADBDD
:103CA000B1F17F6F1FD242EAC102C10071F1004140
:103CB00042EB507070470B15C3F10903212B10D252
:103CC000890241EA905180020128494141F00041B6
:103CD00021FA03F0C3F12003994071F100415041F2
:103CE0007047100070476FF0000013EB103F5CBF8F
:103CF000000E42EAC050704780B500224FF40071B8
:103D0000DFF8240AFEF775FF00224FF400715FF020
:103D10009040FEF76EFF03F041FCDFF8100ADFF879
:103D2000101A4A1CC0F840210A1DC0F8582111F190
:103D30002002026211F11002826311F11402026585
:103D4000DFF8F02912F10A03C0F8883112F11003EC
:103D5000C0F8B831137A80F8BD3112F11803C0F8F9
:103D6000D031137A80F8D53112F12003C0F8E83150
:103D7000137A80F8ED31131DC0F80032927980F883
:103D8000052211F11802C0F830221C31C0F8481287
:103D9000DFF8A4190968C0F89012DFF8A0190968C3
:103DA000C0F8C01201BD38B5002000242000C0B208
:103DB000072835DADFF888592000C0B2000128440E
:103DC000407801282AD12000C0B200012844406870
:103DD00000280ED002F0F4F82100C9B209012944EC
:103DE0004968401A2100C9B20901294489688842FA
:103DF00014D300202100C9B209012944487002F0FF
:103E0000DFF82100C9B20901294448602000C0B28E
:103E10002100C9B209012944C9688847641CC5E763
:103E2000002032BD38B50400DFF818596878002842
:103E30001FD100224FF40071DFF8EC08FEF7D9FE25
:103E400000224FF400715FF09040FEF7D2FE03F0C5
:103E5000A5FB89200090202307220521DFF8E80830
:103E600003F0ECFB012068700221DFF8D408FEF7B4
:103E7000FFFA012032BD7CB50400DFF8D058287865
:103E8000002803D0022823D003D33DE003F01EFD19
:103E90003AE003F07DFD89200090202307220521D0
:103EA000DFF8A40803F0CAFBDFF8A42803212C20C4
:103EB00003F0DEFCDFF89C280421082003F0D8FC86
:103EC00003F0D5FD41F28830DFF8741888611BE0FB
:103ED0000120DFF870184870892000902023072205
:103EE0000521DFF8640803F0A9FBDFF8546802211C
:103EF0003000FEF7BDFA03213000FEF7B9FA0421C5
:103F00003000FEF7B5FAFFE72878401C2870210042
:103F1000C9B2DFF82C08FEF7BAFA012076BD70B5F9
:103F2000040000F0BDF8DFF81C586878012803D1C0
:103F3000A87800F024FB04E00021DFF80408FEF775
:103F400097FADFF81408A9780278914207D0A97887
:103F50000170DFF808080068DFF804180860A87826
:103F6000082812D1DFF8F8674FF4FA61306802F0E0
:103F7000E9FD012809D1DFF8E40700683060062276
:103F800015F10801A81C02F085FE2100C9B2DFF876
:103F9000B007FEF77CFA012070BD10B50400DFF811
:103FA000C417DFF8C407006902F0CCFD012827D14F
:103FB000DFF8B8070178012905D100210170002040
:103FC000DFF880178870DFF8A8070188491C018096
:103FD00042F21071DFF868272300DBB21B011A449C
:103FE0009268B1FBF2F102888A420DD30021018070
:103FF000DFF850178878002806D00020887003E08A
:104000000120DFF8681708702100C9B2DFF8300717
:10401000FEF73DFA012010BD38B5040003F09AFD0B
:10402000DFF84457287A012808D10521DFF8100766
:10403000FEF71EFADFF82407006828612100C9B2E4
:10404000DFF8FC06FEF723FA012032BD10B50400AC
:1040500003F066FDDFF810070021017000210172F6
:10406000012010BD10B5040000224FF40051DFF80C
:10407000B806FEF7BEFD012010BD10B504000122F8
:104080004FF40051DFF8A006FEF7B3FDDFF8B006ED
:10409000210089B281660621FEF7F9F910BD000002
:1040A000DFF88C06DFF8CC160A784270DFF8C826F5
:1040B000497852F8211041609FED1F0ADFF8BC16C5
:1040C000D1ED010A60EE800AFDEEE00AC0ED020AC1
:1040D000D1ED020A60EE800AFDEEE00AC0ED030AAF
:1040E000D1ED030A60EE800AFDEEE00AC0ED040A9D
:1040F000D1ED040A60EE800AFDEEE00AC0ED050A8B
:10410000D1ED050A60EE800AFDEEE00AC0ED060A78
:10411000D1ED060A60EE800AFDEEE00AC0ED070A66
:10412000DFF85C16D1ED010A20EE800ABDEEC00A70
:1041300080ED080A704700000000C8422DE9F84FE2
:104140008AB006002021002202AC2000FEF7BAF956
:104150000024002500208DF8050000208DF80600C1
:104160001827DFF8C8853000C0B27843404490F883
:1041700015903000C0B2784340444068002842D0D7
:1041800001213000C0B200F0A9F900280ED13000A2
:10419000C0B27843404442683000C0B278434044E3
:1041A000017D4846C0B203F063FB1EE05FF0000AE9
:1041B0003000C0B278434044406804F0E3FC51460C
:1041C000C9B2814207D2202002A95246D2B28854F5
:1041D0001AF1010AECE702AA3000C0B27843404469
:1041E000017D4846C0B203F043FB3000C0B27843C3
:1041F0004044406804F0C6FCDFF888150979491C82
:10420000484310FA89F93000C0B2784340448068CE
:10421000002800F03A813000C0B278434044007B6F
:1042200000280BD002281ED012D3042830D024D36B
:10423000062845D036D307283ED044E03000C0B22F
:104240007843404480680078002104000D003AE083
:104250003000C0B278434044806890F90000C11734
:1042600004000D002FE03000C0B278434044806865
:104270000088002104000D0025E03000C0B2784322
:1042800040448068B0F90000C11704000D001AE036
:104290003000C0B2784340448068006800210400C8
:1042A0000D0010E03000C0B27843404480680068E0
:1042B000C11704000D0006E001208DF8050002E0A2
:1042C00002208DF805009DF8050000280CD1300073
:1042D000C0B278434044407B40420200D2B202A9BF
:1042E000200002F047FC26E09DF8050001281AD1C5
:1042F0003000C0B278434044806804F043FC20287A
:1043000019D23000C0B278434044806804F03AFCCF
:10431000020092B23000C0B278434044816802A8E3
:1043200002F0B8FC07E03000C0B278434044806837
:1043300000788DF8080002213000C0B200F0CEF8FD
:10434000012823D13000C0B278434044807DC0B200
:1043500000098DF806009DF806000F2805D02020E2
:1043600002A99DF80620885410E05FF0000A02A818
:1043700004F008FC5146C9B2814207D2202002A9AC
:104380005246D2B288541AF1010AF0E73000C0B2A6
:1043900002285ED15FF0000A00208DF80400300092
:1043A000C0B278434044407B002802D009208DF8F9
:1043B0000400392000902E2315220F21DFF8C803B6
:1043C00004F0FCFB02A804F0DDFB8346DFF8B40335
:1043D0000079401C00FB0BFB5846C0B2022190FB49
:1043E000F1F01F280BDA5846C0B2022190FBF1F021
:1043F000D0F140009DF8041050FA81FA07E05846C9
:10440000C0B2D0F15F009DF8041050FA81FA02AA00
:104410003000C0B278434044007D401CC0B2DFF899
:1044200064134979D1EBC001491EC9B25046C0B2EC
:1044300004F06EFD5AFA8BF09DF80490B0EB090978
:1044400089200090202307220521BF4803F0F6F8B9
:104450001BE089200090202307220521BA4803F0A1
:10446000EDF802AA3000C0B278434044017D4846CE
:10447000C0B203F0FDF902A804F084FBC149097938
:10448000491C484310FA89F081463000C0B2784395
:104490004044006900281ED03000C0B27843404438
:1044A0008068002817D03000C0B27843404480684C
:1044B000B64988420FD03000C0B278434044026908
:1044C0003000C0B207FB00F708EB0700017D48464B
:1044D000C0B203F0CDF90BB0BDE8F08F70B50400A9
:1044E0000D0092492200D2B21820424301EB020093
:1044F000817D2800C0B201402800C0B281422ED187
:10450000A34E4FF496712A00D2B28020424306EBAC
:1045100002002200D2B250F8220002F013FB012860
:1045200026D12900C9B28020414306EB01002100B9
:10453000C9B28A4A126840F8212096482900C9B2B7
:10454000490101442200D2B22B00DBB25B011844C6
:104550002300DBB2C05CD0F10100885408E08D4834
:104560002900C9B2490108442100C9B200224254BD
:104570008848EDB269010844E4B2005D70BD70B5D1
:104580000400002603F004FA00F077F82000C0B21F
:1045900000F07DF82000C0B200F093F8002528005C
:1045A00080B2202811DA61492A0092B218204243D1
:1045B00001EB0200C07D2100C9B2884203D128006E
:1045C000C0B2FFF7BBFD6D1CE9E703F050FA70BD08
:1045D000F0B44271C47803792500EDB2AB420AD33E
:1045E000F025524E2700FFB218235F4306EB070366
:1045F0009D75641CEFE718234C4C85785D4325447A
:104600004679AE75002904D0857803FB05F3234471
:104610009960F0BC70472DE9F84F07008846914635
:104620009A460A9E0B9DDDF830B00D9C87F80080FD
:1046300087F8019087F802A0FE703D712200D2B287
:1046400059463800FFF7C4FFBDE8F18F10B40100F0
:1046500000221000C0B204280CD21000C0B2085CC6
:104660004D4B1400E4B21B5D984201D0002002E0E3
:10467000521CEEE7012010BC704780B5012000906D
:1046800008237F220821002004F0C6FC01BD10B5DC
:1046900004002000C0B2002812D138480078002859
:1046A00007D11FA2214890F85C10782003F0E0F8B1
:1046B00006E01CA21D4890F85C10782003F0D8F8A2
:1046C00010BD0100C9B2072924D119490978002970
:1046D00006D002290ED008D3042915D00FD318E034
:1046E0002E49124AC2F8D81218E02D490F4AC2F8D2
:1046F000D81213E02B490D4AC2F8D8120EE02A490D
:104700000A4AC2F8D81209E02849084AC2F8D81261
:1047100004E003E02149054AC2F8D81270470000BE
:10472000200000004E00000000080048D8000020D3
:10473000CC250020A4250020700400207C0000204F
:104740000C0000209C26002060EF00082F2700208E
:10475000C8FA000898F6000830270020102700202B
:10476000EC260020C0270900542600203127002015
:1047700022270020D80A0020F80400201426002058
:1047800004060020AC26002038ED0008DA0A0020DC
:10479000901D0020F02300208400002088000020CD
:1047A00098000020A8000020B8000020C8000020C9
:1047B00070B5040001F004FC0500260016F1010F9D
:1047C00002D004480078361801F0FAFB401BB042D2
:1047D000FAD370BDDB0A002010B50400002C01D113
:1047E000012035E0A0690028FFD1E06F002805D145
:1047F000002084F878002000FEF774FA2420E06797
:10480000206800684008400021680860606A00284D
:1048100002D0200000F0DEFB200000F05FFA01284B
:1048200001D1012014E02068406830F490402168F4
:1048300048602068806830F02A002168886020681D
:10484000006850F0010021680860200000F02FFC93
:1048500010BD2DE9FC4706000D0017009846F06FCB
:10486000202859D1002D03D0380080B2002801D172
:10487000012052E00020C6F884002120F06701F0FA
:104880009FFB8146A6F85070A6F85270B068B0F54C
:10489000805F05D13069002802D10024AA4602E0D9
:1048A0002C005FF0000AB6F85200002822D0CDF8A4
:1048B00000804B4600228021300000F061FC00287F
:1048C00003D02020F067032027E0002C08D1BAF89D
:1048D0000000C005C00D316808851AF1020A03E026
:1048E000207831680885641CB6F85200401EA6F88E
:1048F0005200D8E7CDF800804B460022402130001E
:1049000000F03EFC002803D02020F067032004E0E4
:104910002020F067002000E00220BDE8F68770B597
:1049200005000C001600D5F88000202824D1002CAA
:1049300003D0300080B2002801D101201DE000200A
:1049400028662868DFF8901388420ED028684068EF
:1049500000020AD5286850E8000F50F0806001007E
:104960002A6842E800100028F4D1320092B22100F7
:10497000280000F054FC00E0022070BD2DE9F04753
:1049800006003068C7693068D0F800803068D0F819
:10499000089040F60F043C40002C0BD1B80609D516
:1049A0005FEA886006D5B06E002802D03000B16E94
:1049B00088478FE1002C00F0AA805FEAC97005D417
:1049C000DFF8080618EA000F00F0A18017F00100D8
:1049D000C0B200280BD05FEAC85008D5012031686A
:1049E0000862D6F8840050F00100C6F88400B807C9
:1049F0000DD519F00100C0B2002808D0022031689E
:104A00000862D6F8840050F00400C6F884007807E5
:104A10000DD519F00100C0B2002808D0042031687B
:104A20000862D6F8840050F00200C6F88400380707
:104A300010D55FEA886004D419F00100C0B20028E4
:104A400008D0082031680862D6F8840050F00800C9
:104A5000C6F8840038050CD55FEA481009D54FF434
:104A6000006031680862D6F8840050F02000C6F873
:104A70008400D6F88400002848D0B80608D55FEA3C
:104A8000886005D5B06E002802D03000B16E88472E
:104A9000D6F88400050030688068400602D415F01E
:104AA000280F2DD0300000F09EFC30688068400652
:104AB00022D53068083050E8000F30F04000010087
:104AC000306810F1080242E800100028F1D1706F40
:104AD00000280DD0DFF8F804716F8863706F01F063
:104AE000A5FE002812D0706F716F896B88470DE0AA
:104AF000300004F065FB09E0300004F061FB05E0E4
:104B0000300004F05DFB0020C6F88400E2E0306E67
:104B1000012840F0BD80F80640F1BA805FEAC86025
:104B200040F1B68010203168086230688068400625
:104B30006DD5706F0068D0F804A0504680B2002890
:104B400052D05046B6F8581080B288424CD2A6F8DF
:104B50005AA0706F00680068800639D4306850E849
:104B6000000F30F480700100326842E80010002825
:104B7000F4D13068083050E8000F400840000100D0
:104B8000306810F1080242E800100028F1D13068C6
:104B9000083050E8000F30F040000100306810F19C
:104BA000080242E800100028F1D12020C6F8800059
:104BB00000203066306850E8000F30F0100001002F
:104BC000326842E800100028F4D1706F01F004FE52
:104BD00002207066B6F85810B6F85A00091A89B261
:104BE000300004F0CEFA11E05046B6F8581080B20A
:104BF00088420BD1706F00680068800606D50220DD
:104C00007066B6F85810300004F0BBFA62E0B6F8EF
:104C10005800B6F85AA0B0EB0A0AB6F85A000028B5
:104C200035D0504680B2002831D0306850E8000FAF
:104C300030F490700100326842E800100028F4D18E
:104C40003068083050E8000F40084000010030682C
:104C500010F1080242E800100028F1D12020C6F827
:104C60008000002030660020B066306850E8000FF9
:104C700030F010000100326842E800100028F4D142
:104C800002207066514689B2300004F07AFA21E0C1
:104C9000F8020AD55FEA492007D55FF48010316831
:104CA0000862300004F01EFB14E0380609D55FEA04
:104CB000086006D5F06E002802D03000F16E8847FB
:104CC00008E0780606D55FEA486003D5300000F0BA
:104CD00054FCFFE7BDE8F087008000402DE9F04775
:104CE00004000026DFF8A81920688842FFD0A268D7
:104CF0002069024360690243E06902432068036857
:104D0000DFF890090340134320680360206843687C
:104D100033F44053E068034320684360D4F81880BC
:104D20002068884202D0206A50EA0808206880681B
:104D300030F4306058EA0000226890602068DFF8A4
:104D4000482A904216D1DFF8440A006810F00300A8
:104D5000002805D0022805D006D3032806D007E096
:104D6000012760E002275EE004275CE008275AE0A4
:104D7000102758E02068DFF8182A904217D1DFF892
:104D80000C0A006810F00C00002806D0042808D097
:104D9000082804D00C2806D007E0002743E00227AB
:104DA00041E004273FE008273DE010273BE0206872
:104DB000DFF8E029904217D1DFF8D009006810F041
:104DC0003000002806D0102808D0202804D0302831
:104DD00006D007E0002726E0022724E0042722E08F
:104DE000082720E010271EE0206888421AD1DFF84B
:104DF0009C09006810F44060002809D0B0F5806F6D
:104E00000AD0B0F5006F05D0B0F5406F06D007E0CE
:104E1000002708E0022706E0042704E0082702E054
:104E2000102700E010272068884246D13800C0B221
:104E3000002806D0022808D0042809D008280BD062
:104E40000DE004F0BFFE81460DE0DFF84C990AE06A
:104E500004F04BFE814606E04FF4004903E05FF0AA
:104E6000000901200600B9F1000F00F0A58061687B
:104E700003204143894505D361684FF48050414385
:104E8000494502D20120060096E04FF48072606826
:104E900040080021E2FB09016268002301F060FF85
:104EA0000500B5F5407F05D3B5F5801F02D2206817
:104EB000C56081E0012006007EE0E069B0F5004FAA
:104EC00041D13800C0B2002808D001280AD00228F9
:104ED0000CD004280DD008280FD011E004F072FE89
:104EE000814611E004F07BFE81460DE0DFF8A898D2
:104EF0000AE004F0FAFD814606E04FF4004903E0C1
:104F00005FF0000901200600B9F1000F54D060687D
:104F1000400810EB49006168B0FBF1F00500102D6E
:104F20000ED3B5F5803F0BD24FF6F0712940C5F393
:104F3000420001438A46504680B22168C8603BE087
:104F40000120060038E03800C0B2002808D001284F
:104F50000AD002280CD004280DD008280FD011E068
:104F600004F030FE814611E004F039FE81460DE088
:104F7000DFF824980AE004F0B8FD814606E04FF41B
:104F8000004903E05FF0000901200600B9F1000FBD
:104F900012D0606819EB50006168B0FBF1F00500B9
:104FA000102D07D3B5F5803F04D2280080B22168C8
:104FB000C86001E0012006000020A0660020E06635
:104FC0003000C0B2BDE8F0870000000020010004FE
:104FD0006155000890F82410090707D501684A6850
:104FE00032F40042416B0A4301684A6090F8241091
:104FF000C90707D501684A6832F40032816A0A435A
:1050000001684A6090F82410890707D501684A684A
:1050100032F48032C16A0A4301684A6090F8241071
:10502000490707D501684A6832F48022016B0A43B8
:1050300001684A6090F82410C90607D501688A689B
:1050400032F48052816B0A4301688A6090F8241020
:10505000890607D501688A6832F40052C16B0A4399
:1050600001688A6090F82410490613D501684A68DF
:1050700032F48012016C0A4301684A60016CB1F598
:10508000801F07D101684A6832F4C002416C0A43AC
:1050900001684A6090F82410090607D501684A683B
:1050A00032F40022816C0A4301684A60704738B5C7
:1050B00004000020C4F8840000F082FF050020688E
:1050C000006800071DD57FF07E4000902B00002275
:1050D0005FF40011200000F053F8002811D0206880
:1050E00050E8000F30F080000100226842E8001014
:1050F0000028F4D12020E067002084F87800032005
:105100003DE02068006840072CD57FF07E4000908D
:105110002B0000225FF48001200000F031F800280D
:1051200020D0206850E8000F30F490700100226811
:1051300042E800100028F4D12068083050E8000F41
:10514000400840000100206810F1080242E8001009
:105150000028F1D12020C4F88000002084F87800D5
:1051600003200CE02020E0672020C4F8800000200D
:10517000206600206066002084F87800002032BDA0
:105180002DE9F04105000E0090461F00069C28689E
:10519000C0693040B04201D1012000E0002041460A
:1051A000C9B2884238D114F1010FF0D000F008FFE5
:1051B000C01B844201D3002C01D103202DE02868BC
:1051C00000684007E3D5802EE1D0402EDFD028686C
:1051D000C06900070DD5082029680862280000F082
:1051E00002F90820C5F88400002085F87800012025
:1051F00013E02868C0690005C9D54FF4006029682C
:105200000862280000F0EFF82020C5F88400002094
:1052100085F87800032000E00020BDE8F08130B47C
:1052200003005965A3F85820A3F85A200020986677
:105230009868B0F5805F0BD11869002804D140F25E
:10524000FF10A3F85C0023E0FF20A3F85C001FE040
:10525000986800280AD11869002803D1FF20A3F814
:105260005C0015E07F20A3F85C0011E09868B0F1C5
:10527000805F0AD11869002803D17F20A3F85C0061
:1052800006E03F20A3F85C0002E00020A3F85C00E9
:105290000020C3F884002220C3F88000186808307A
:1052A00050E8000F50F001000400186810F10805E4
:1052B00045E800400028F1D19868B0F5805F06D13C
:1052C0001869002803D10FF2D130986602E00FF27E
:1052D000D5209866186900280BD0186850E8000F90
:1052E00050F4907004001D6845E800400028F4D197
:1052F0000AE0186850E8000F50F0200004001D6814
:1053000045E800400028F4D1002030BC704770B55B
:1053100004000D0016006565A4F858600020C4F86C
:1053200084002220C4F88000606F002821D00FF292
:105330001510616FC8620FF2B110616F08630FF250
:10534000D110616F48630020616F886333009BB2A6
:10535000626D206810F12401606F01F0F1F90028FE
:1053600007D01020C4F884002020C4F88000012059
:105370002AE0206900280AD0206850E8000F50F485
:1053800080700100226842E800100028F4D12068F3
:10539000083050E8000F50F001000100206810F1C3
:1053A000080242E800100028F1D12068083050E8D7
:1053B000000F50F040000100206810F1080242E8A0
:1053C00000100028F1D1002070BD016851E8001FD5
:1053D00031F0C0010A00036843E800210029F4D13C
:1053E0002021C1677047016851E8001F31F49071B6
:1053F0000A00036843E800210029F4D1016808315C
:1054000051E8001F490849000A00016811F108032A
:1054100043E800210029F1D1016E01290AD1016878
:1054200051E8001F31F010010A00036843E8002131
:105430000029F4D12021C0F880100021016600214C
:105440008166704738B50400A56A20680068800648
:105450003AD40020A5F85A00286850E8000F30F42C
:10546000807001002A6842E800100028F4D1286802
:10547000083050E8000F400840000100286810F193
:10548000080242E800100028F1D12868083050E8EE
:10549000000F30F040000100286810F1080242E8D7
:1054A00000100028F1D12020C5F88000286E0128C6
:1054B0000AD1286850E8000F30F0100001002A6877
:1054C00042E800100028F4D100206866286E012808
:1054D00005D1B5F85810280003F053FE02E028006B
:1054E00003F034FE31BD000038B50400A56A012088
:1054F0006866286E012807D1B5F85810490889B2A6
:10550000280003F03EFE02E0280004F0EBFB31BD72
:10551000F8B50400A56AEE6FD5F880702868806839
:10552000000607D5212E05D10020A5F8520028003D
:10553000FFF74BFF28688068400607D5222F05D16A
:105540000020A5F85A002800FFF74DFFD5F8840089
:1055500050F01000C5F88400280003F031FEF1BDC2
:1055600038B50400A56A0020A5F85A000020A5F867
:105570005200280003F024FE31BD10B5040020685D
:1055800050E8000F30F040000100226842E80010AF
:105590000028F4D12020E0670020E066200004F01D
:1055A000A2FB10BD70B50500B5F85C60D5F88000B1
:1055B000222866D12868808C040016EA0400696DF0
:1055C0000870686D401C6865B5F85A00401EA5F863
:1055D0005A00B5F85A00002859D1286850E8000F41
:1055E00030F4907001002A6842E800100028F4D1DD
:1055F0002868083050E8000F400840000100286883
:1056000010F1080242E800100028F1D12020C5F86E
:1056100080000020A8660020686628681C4988422F
:105620000ED02868406800020AD5286850E8000FAC
:1056300030F0806001002A6842E800100028F4D1B0
:10564000286E012819D100202866286850E8000F2C
:1056500030F0100001002A6842E800100028F4D160
:105660002868C069C00602D5102029680862B5F80C
:105670005810280003F085FD09E0280003F066FDBE
:1056800005E02868008B50F008002968088370BD89
:1056900000800040F369FFEFF8B50500B5F85C70D5
:1056A000D5F88000222867D12868808C0400686DB6
:1056B000060017EA04003080686D801C6865B5F844
:1056C0005A00401EA5F85A00B5F85A00002859D1D2
:1056D000286850E8000F30F4907001002A6842E812
:1056E00000100028F4D12868083050E8000F400866
:1056F00040000100286810F1080242E8001000286C
:10570000F1D12020C5F880000020A866002068663E
:105710002868224988420ED02868406800020AD5CD
:10572000286850E8000F30F0806001002A6842E8E5
:1057300000100028F4D1286E012819D10020286615
:10574000286850E8000F30F0100001002A6842E895
:1057500000100028F4D12868C069C00602D51020C6
:1057600029680862B5F85810280003F00AFD09E01E
:10577000280003F0EBFC05E02868008B50F00800DF
:1057800029680883F1BD00000038014088100240FC
:1057900000440040004800400024F4000080004025
:1057A00002000020704730B40200DFF83807002301
:1057B00004688588635583885B1C8380DFF82837FD
:1057C0001B7804688588635583885B1C838001206F
:1057D00030BC7047F8B504000D00002000212E00F9
:1057E00022683300DBB2D25C23683700FFB23B444F
:1057F0005F7857EA02273A0092B2B2F5807F23DA47
:10580000380080B200281FD0DFF8D80621683200A7
:10581000D2B2895C02688388D1548188491C818016
:1058200021683200D2B21144497802688388D15489
:105830008188491C8180DFF8B00641783800C0B209
:1058400000F057F9012000E00020F2BD30B4020062
:10585000DFF89006002304688588635583885B1C05
:105860008380DFF884365B78046885886355838895
:105870005B1C8380012030BC7047F8B504000D002C
:10588000002000212E0022683300DBB2D25C2368A6
:105890003700FFB23B445F7857EA02273A0092B2E2
:1058A0000B2A1FDADFF83C0621683200D2B2895C8D
:1058B00002688388D1548188491C81802168320024
:1058C000D2B21144497802688388D1548188491C36
:1058D00081803900C9B2DFF81006007800F009F9BC
:1058E000012000E00020F2BDF8B504000D00002604
:1058F000DFF8F80590ED030AFDF740FF0100DFF83F
:10590000E4050A00120A03688788DA558288521C67
:10591000828002688388D1548288521C82800A0067
:10592000120E03688788DA558288521C82800A002A
:10593000120C03688788DA558288521C8280012005
:10594000F2BDF8B504000D000026DFF8A00590EDCB
:10595000040AFDF713FF0100DFF888050A00120AA8
:1059600003688788DA558288521C8280026883889F
:10597000D1548288521C82800A00120E03688788E4
:10598000DA558288521C82800A00120C03688788CC
:10599000DA558288521C82800120F2BDF8B50400DD
:1059A0000D000026DFF8480590ED010AFDF7E6FE40
:1059B0000100DFF830050A00120A03688788DA550B
:1059C0008288521C828002688388D1548288521C4B
:1059D00082800A00120E03688788DA558288521C7A
:1059E00082800A00120C03688788DA558288521C6C
:1059F00082800120F2BD2DE9F84304000D0000264D
:105A0000002000900027A84620684146C9B20844FB
:105A1000817820684246D2B21044C07850EA012012
:105A200021684246D2B2895C22684346DBB21A44FE
:105A300092F8019059EA012959EA0049DFF8A404D3
:105A400021684246D2B2895C02688388D154818839
:105A5000491C818021684246D2B2114449780268CB
:105A60008388D1548188491C818021684246D2B202
:105A70001144897802688388D1548188491C8180C7
:105A800021684246D2B21144C97802688388D15451
:105A90008188491C818069464846FDF7EFFBDFF8A5
:105AA000500400994160012101700521DFF8440490
:105AB000FCF7EDFC0120BDE8F28370B504000D0099
:105AC000DFF83464012220213000FDF792F80A202B
:105AD000FEF76EFE4FF47A732A0092B22100DFF8CF
