:020000040800F2
:10000000702C0020390501089DFC00089FFC0008A9
:10001000A1FC0008A3FC0008A5FC000800000000EB
:10002000000000000000000000000000A7FC000825
:10003000A9FC000800000000ABFC0008ADFC0008B3
:100040000109010805090108090901080D0901084C
:100050001109010815090108190901081D090108FC
:100060002109010825090108290901082D090108AC
:1000700031090108FDFC00083509010807FD0008E9
:10008000390901083D09010841090108450901082C
:10009000490901084D0901085109010855090108DC
:1000A000590901085D09010861090108650901088C
:1000B0006909010800000000000000006D09010846
:1000C0007109010875090108790901087D0901080C
:1000D0008109010811FD0008850901081BFD0008C0
:1000E0008909010825FD000800000000000000004B
:1000F0000000000000000000000000000000000000
:10010000000000008D0901080000000091090108AD
:10011000000000000000000095090108990901088D
:100120009D090108A1090108A5090108A9090108FB
:10013000AD09010800000000000000000000000000
:10014000B1090108B5090108B9090108BD0901088B
:10015000C10901082FFD000839FD0008C509010883
:10016000C9090108CD090108D109010800000000F2
:10017000D5090108D9090108DD09010800000000BE
:10018000E1090108E5090108E909010810B50400C1
:100190000121DFF8380D02F05CFA012010BD30B506
:1001A00087B004001421002202AD280002F06CFA8E
:1001B000DFF8C80BD0E90023CDE9002302A80090A6
:1001C000DFF8BC5B2978684600F0E9FA28786870A7
:1001D000BDF80410009801F09AFADFF8A80B8078B7
:1001E000042809D12878042803DA2878401C2870CC
:1001F00001E00020287008E02878022803DA287837
:10020000401C287001E000202870DFF8C05C02214B
:10021000280002F00FFA0321280002F01AFA210048
:10022000C9B2280002F015FA012007B030BD10B5A0
:100230000400DFF8541B8888002810D0DFF84C0B2E
:1002400002888B889A4208D1002101800221DFF8C0
:100250007C0C02F0EFF9012008E089880180210080
:10026000C9B2DFF8680C02F0F4F9012010BD2DE9E5
:10027000F041040000250026DFF80C7BB888032835
:100280003DDB3868B988084410F8010C3968BA8831
:10029000114411F8021C51EA00210E00B988891E90
:1002A000386802F024FA05002800310080B289B2D3
:1002B00088421DD10721DFF8140C02F0CAF9386812
:1002C000007801280DD1DFF8B88A012198F80100E3
:1002D00000F07EFA98F80120D7E9000100F068FAF2
:1002E00013E00021DFF8980A407800F071FA0CE082
:1002F0000021DFF88C0A407800F06AFA05E000215E
:10030000DFF87C0A407800F063FADFF8740A40787E
:1003100000F0BAF80221DFF8B40B02F0ACF90120CA
:10032000BDE8F0810100DFF8CC0C0278032A01D08F
:10033000042202700120704710B504000020DFF88D
:10034000901B08702100C9B2DFF8800B02F081F920
:10035000012010BD10B50400DFF8780B01780129E9
:1003600036D1DFF8741BC978012931D1DFF86C1B55
:1003700091ED030AD0ED020AB4EE600AF1EE10FA34
:1003800008DA91ED030AD0ED010AB4EE600AF1EE4D
:1003900010FA0ED501224FF400615FF0904002F098
:1003A0000AFD01224FF480515FF0904002F003FDFE
:1003B0001CE000224FF400615FF0904002F0FBFC73
:1003C00000224FF480515FF0904002F0F4FC0DE009
:1003D00000224FF400615FF0904002F0ECFC00223C
:1003E0004FF480515FF0904002F0E5FCDFF8DC0A4A
:1003F0004FF47A7181662100C9B202F02AF9012016
:1004000010BD38B50400DFF8F01B087800281FD1B4
:1004100001200870DFF8E45B01221021280002F0BF
:10042000CAFC00220821280002F0C5FC0022042199
:10043000DFF8CC0B02F0BFFC4FF4FA60DFF88C1A47
:10044000886702F013FD02F0BCFE02F0ABFE12E082
:100450000020087001220821DFF8A00B02F0ABFC9D
:1004600001220421DFF8980B02F0A5FC4EF6602073
:10047000DFF8581A88672100C9B2DFF8500A02F085
:10048000E8F8012032BD000038B52DED028B0400E4
:100490009FED8F8A2000C0B2022842D1DFF83C5A7B
:1004A00095ED010ADFEDBB0A20EE200ABDEEC00A81
:1004B00010EE100A00F09EF885ED010A95ED010A94
:1004C00000F008F985ED030A95ED020A00F066F9DF
:1004D00085ED040A95ED040AD5ED060A30EE200AF2
:1004E00085ED040A95ED030AD5ED050A30EE200AE4
:1004F000B0EE408A9FEDA80AB4EE408AF1EE10FA01
:1005000002DBB0EE000A09E0B5EE408AF1EE10FA27
:1005100002D59FED6F0A01E0B0EE480A85ED030AAF
:10052000FFE7DFF8B8592878002807D10020686075
:1005300095ED010A00F0CEF885ED030A2878002831
:1005400007D10020A86095ED020A00F027F985ED9B
:10055000040ABDEC028B31BD2DE9F04100242500D9
:10056000EDB20A2D43DA00252E00F6B2092E3CDA50
:100570002E00F6B201EB860676682F00FFB251F826
:100580002770BE422FDA00262F00FFB251F82770E5
:10059000AC465FFA8CFC01EB8C0CDCF804C0AE4678
:1005A0005FFA8EFE41F82EC0AC465FFA8CFC01EB80
:1005B0008C0CCCF80470AC465FFA8CFC50F82CC064
:1005C000AE465FFA8EFE00EB8E0EDEF804E0A84623
:1005D0005FFA88F840F828E0AE465FFA8EFE00EB3E
:1005E0008E0ECEF804C06D1CBEE7641CB7E7BDE8F4
:1005F000F081000038B52DED028B04009FED348AA8
:10060000DFF8001A087800282AD10120087000219C
:100610000800C0B20A2815DA0800C0B2DFF8E829DD
:100620000B00DBB242F82300DFF8E0290800C0B27B
:1006300052F82000002803D10800C0B242F8204040
:10064000491CE5E7DFF8C459092300222900DFF837
:10065000B809FFF781FF95ED050AB8EEC00A30E052
:1006600000200100C9B20A291EDADFF89C19020035
:10067000D2B251F82220092A0BD100220300DBB2AA
:1006800041F82320DFF884190200D2B241F8224059
:1006900008E00200D2B251F82220521C0300DBB263
:1006A00041F82320401CDCE7DFF8605909230022D1
:1006B0002900DFF85409FFF74FFF95ED050AB8EE62
:1006C000C00ADFED340A80EE200ABDEC028B31BD9A
:1006D00000000000F0EE400A9FED951A9FED953A5C
:1006E000DFED953AF5EE400AF1EE10FA40D0F0EE6B
:1006F000603A9FED920ADFF8180990ED004A34EE57
:10070000634AB4EE404AF1EE10FA08DA90ED004A7E
:1007100033EEC44AB4EE404AF1EE10FA03DB9FED2B
:10072000880A21EE001ADFF8EC0890ED000AF0EEDE
:10073000401ADFF8E41891ED000A30EE010AB0EE3D
:10074000402A32EE030A82EE000AF0EE402A33EE2F
:10075000E10AB0EE614A00EE224A80ED004AB7EEAF
:10076000000A30EE620A20EE020A81ED000A08E07B
:10077000DFF8A4085FF07E510160DFF898080021DF
:100780000160DFF89008DFF8881802680A6090EDD1
:10079000000A70470000C84201000040704738B5A9
:1007A00004000D002900C9B2200000F01BF831BD83
:1007B00070B504000D00160020000078C0B20128BA
:1007C00005D13200D2B22000290000F0BBF870BD84
:1007D00038B504000D002900C9B22000C0B200F0F5
:1007E0008BF931BD70B52DED028B84B004000D0086
:1007F0000421002202AE300001F046FF9FED4E8A38
:1008000000262800C0B200280BD0022835D02BD3F8
:10081000042844D03AD306285ED049D307286FD0A5
:1008200082E0FE214FF42F7002F09CFFB0EE408A70
:10083000B0EE480A03F084F806003000000A8DF894
:10084000080002A846703100090E81703100090CC1
:10085000C17002A8019002200090262310220121DD
:10086000200001F0B0FF5FE002200090052303228A
:100870000121200001F059FF56E0042000900123DF
:1008800003220121200001F050FF4DE002200090E2
:10089000052303220121200001F047FF44E002204C
:1008A0000090242303220121200001F03EFF3BE0C1
:1008B000DFF8EC0D818804290DD101680191808851
:1008C000022190FBF1F080B200902423102201213C
:1008D000200001F078FF27E0DFF8C40D81880229AD
:1008E0000DD1016801918088022190FBF1F080B266
:1008F00000903E2306220121200001F064FF13E056
:10090000DFF89C0D818802290DD101680191808852
:10091000022190FBF1F080B200903F2306220121DA
:10092000200001F050FFFFE704B0BDEC028B70BD6A
:1009300095BFD63317B7D13800000000CDCC4C3E60
:1009400000007A442DE9F0472DED028B82B00400BF
:100950000D0016000020ADF8000000279FEDA38ACF
:100960003000C0B200280FD002281FD00DD30428B9
:1009700000F0A7806FD3062800F0B680C0F0B480E6
:10098000072800F0B180B2E0B1E00320ADF800002C
:1009900004226946200000F087FE0700FE2138008F
:1009A00002F024FEDFF8FC1C4881A0E00320ADF833
:1009B000000004226946200000F076FE8046DFF841
:1009C0001C9519F10401404602F03AFD04226946E3
:1009D000200000F069FE070019F10801380002F05C
:1009E0002FFDDFEDB78ADFF8BCAC99ED020A20EEEF
:1009F000280ABDEEC00A10EE102A12B2DFF8D004A9
:100A000090ED010A20EE280ABDEEC00A10EE101A81
:100A100009B2BAF80A0000F001FBB0EE408A28EEF5
:100A2000280ABDEEC00A10EE100AAAF80000BAF9B2
:100A30000000002802D50020AAF80000BAF9000042
:100A400000EE100AB8EEC00ADFED9D0A80EE200A23
:100A500089ED010A4BE00320ADF80000042269464D
:100A6000200000F021FE0700DFF8388CFE2138005E
:100A700002F0BCFDA8F80A00DFED918ADFF85C0403
:100A800090ED020ABDEEC00A10EE102A12B2DFF895
:100A9000400490ED010A20EE280ABDEEC00A10EED7
:100AA000101A09B2B8F80A0000F0B8FAB0EE408A9D
:100AB00028EE280ABDEEC00A10EE100AA8F80000C1
:100AC00015E00320ADF8000004226946200000F084
:100AD000EBFD0700DFF8048498F81E10380002F0E0
:100AE00085FDA8F81C0002E000F0CFFDFFE702B092
:100AF000BDEC028BBDE8F0870200D2B2002A072AC3
:100B00001BD80A00D2B2012A0FD1DFF8D02300236C
:100B10005370012313700200D2B2022A0CD1EE4AA4
:100B20000123D3700123137106E0EC4A5378032BA1
:100B300002DA53785B1C5370FFE7E84B5A78002ABF
:100B400011D05A78032A0EDB00221A7000225A6054
:100B500000229A6000229A8300221A62DE4A002351
:100B6000D3700023137170473EB5040008210022A2
:100B70006D46280001F088FD0025DFF8280B8480F1
:100B80006946B0F9042012122B00DBB2CA546D1C66
:100B900080882A00D2B288546D1C2A00D2B292B248
:100BA0006946DFF8AC0B02F053FF37BDDFF8A00B4E
:100BB0000078C0B2FF280FD0DFF8981BDFF8980B41
:100BC0000078C0B2000288808A88DFF8900B007835
:100BD000C0B202438A8003E00120DFF8781B8880DE
:100BE000FC20DFF8701B88717047000000000000D7
:100BF0002DE9F04385B004000D0016001F00BDF97B
:100C0000308014210022E946484601F03DFD5FF0A6
:100C100000096846210089B2090A4A46D2B28154C5
:100C200019F101094946C9B2445419F101092900D1
:100C300089B2090A4A46D2B2815419F101094946DA
:100C4000C9B2455419F10109310009B209124A46E5
:100C5000D2B2815419F101094946C9B2465419F179
:100C60000109390009B209124A46D2B2815419F178
:100C700001094946C9B2475419F10109414609B26F
:100C800009124A46D2B2815419F101094946C9B242
:100C900000F8018019F10109DFF8080A8481C58193
:100CA00006824782A0F814804A46D2B292B26946C0
:100CB000DFF86C0B02F0CCFE05B0BDE8F08300005D
:100CC0000000C842DFF8580B0078C0B2FF2843D0BC
:100CD000DFF8801ADFF84C0B0078C0B20002888180
:100CE0008A89DFF8DC0B0078C0B202438A81DFF822
:100CF000D40B0078C0B20002C881CA89DFF8C80BE3
:100D00000078C0B20243CA81DFF8C00B0078C0B2DD
:100D1000000208820A8ADFF8B80B0078C0B20243EA
:100D20000A82DFF8B00B0078C0B2000248824A8A1B
:100D3000DFF8A40B0078C0B202434A82DFF89C0BB4
:100D40000078C0B2000288828A8ADFF8940B0078AB
:100D5000C0B202438A820FE0DFF8F8094FF4C8718D
:100D6000818140F2A141C1817221018240F6EA21D4
:100D7000418240F2E9218182704700008808010821
:100D800054280020C0270020740B00205228002087
:100D90002DE9F14F88B00D0016001F00129CBDF91F
:100DA0004C80BDF95090BDF954A01E210022EB46A5
:100DB000584601F069FC5FF0000B6846BDF8201052
:100DC00089B2090A5A46D2B281541BF1010BBDF80F
:100DD00020105A46D2B281541BF1010B290009B2EE
:100DE00009125A46D2B281541BF1010B5946C9B2BD
:100DF00045541BF1010B310009B209125A46D2B217
:100E000081541BF1010B5946C9B246541BF1010B29
:100E1000390009B209125A46D2B281541BF1010BB2
:100E20005946C9B247541BF1010B210089B2090A86
:100E30005A46D2B281541BF1010B5946C9B24454EF
:100E40001BF1010B414609B209125A46D2B2815434
:100E50001BF1010B5946C9B200F801801BF1010BCF
:100E6000494609B209125A46D2B281541BF1010B0C
:100E70005946C9B200F801901BF1010B514609B265
:100E800009125A46D2B281541BF1010B5946C9B21C
:100E900000F801A01BF1010BDFF80808BDF82010D5
:100EA000C182058346838783C483A0F82080A0F88D
:100EB0002290A0F824A05A46D2B292B26946DFF836
:100EC000A40B02F0C5FD09B0BDE8F08F6806002054
:100ED000F0060020DC270020F4270020382700201F
:100EE000DFF8C017FE200872DFF8780B0078C0B278
:100EF000FF2868D0DFF8BC0B0078C0B20002C882BF
:100F0000CA8ADFF8B40B0078C0B20243CA82DFF8A5
:100F1000AC0B0078C0B2000208830A8BDFF8A00B8C
:100F20000078C0B202430A83DFF8980B0078C0B2A1
:100F3000000248834A8BDFF8900B0078C0B202436E
:100F40004A83DFF8880B0078C0B2000288838A8B5E
:100F5000DFF8E00B0078C0B202438A83DFF8D80BD9
:100F60000078C0B20002C883CA8BDFF8D00B0078CB
:100F7000C0B20243CA83DFF8C80B0078C0B20002D7
:100F800008840A8CDFF8BC0B0078C0B202430A84E4
:100F9000DFF8B40B0078C0B2000248844A8CDFF856
:100FA000AC0B0078C0B202434A84DFF8000C007832
:100FB000C0B2000288848A8CDFF8F40C0078C0B2DA
:100FC00002438A8415E040F22B50C88272200883C5
:100FD00040F6BD20488340F2BA2088834FF48D60EC
:100FE000C8837020088440F62830488440F21630C8
:100FF000888470477C00002061280020000400489D
:10100000000C0048622800209C260020C4260020F6
:101010002C28002028280020F80600202DE9F54F74
:1010200081B02DED108B92B00C0000201090DFF8F5
:10103000800B0F9000200E9000200D9000200C904F
:1010400000200B9000200A90002009900020ADF8AD
:1010500000000020ADF8120000200190DFED98FAAA
:101060009FED978A0020ADF81800DFED958A9FED7F
:10107000949ADFED939A0020ADF810000020ADF8AF
:101080000E000020ADF80C000020ADF80A00002092
:10109000ADF808005FF0000A5FF000095FF000089B
:1010A000200000B2002802D14FF42F700400032169
:1010B000002205AD280001F0E7FA0621002207AD65
:1010C000280001F0E1FA01208DF81400DFF8D45572
:1010D000B5F91400ADF81C0005AB0220587007AE3E
:1010E000A88B708003209870A88CB080002001002D
:1010F000C9B203294BDA00210A00D2B2022A44DA2B
:1011000007AA0F00FFB202EB4702B2F902200F005C
:10111000FFB236F91770BA4235DA00220F00FFB27B
:1011200036F917700DF11C0C8E465FFA8EFE0CEB33
:101130004E0CBCF802C08E465FFA8EFE26F81EC02A
:101140000DF11C0C8E465FFA8EFE0CEB4E0CACF8CB
:1011500002708C465FFA8CFC13F80CC00DF1140E73
:101160008B465FFA8BFBDE449EF801E08B465FFA0C
:101170008BFB03F80BE00DF1140E8B465FFA8BFB33
:10118000DE448EF801C0491CB6E7401CAFE70221DF
:1011900001222000B6F9027000B2B84213DAB6F9A3
:1011A0000260200000B2361A27003FB2BDF91C00D1
:1011B0003F1ABE4203DA5E789DF8147014E09DF881
:1011C00014605F7810E027003FB2B6F902003F1AC2
:1011D000B6F90460200000B2361AB74202DA5E782F
:1011E0009F7801E09E785F783000C0B2012804D07B
:1011F00033D3032821D010D32FE0E889ADF81000B5
:10120000B5F91000ADF80E00B5F91200ADF80C00FC
:10121000B5F91400ADF80A001FE0E88AADF8100037
:10122000B5F91800ADF80E00B5F91A00ADF80C00CC
:10123000B5F91C00ADF80A000FE0E88BADF810001E
:10124000B5F92000ADF80E00B5F92200ADF80C009C
:10125000B5F92400ADF80A00FFE73800C0B2012854
:1012600004D02AD303281BD00DD326E0E889ADF89B
:101270000800B5F910008246B5F912008146B5F9AB
:101280001400804619E0E88AADF80800B5F91800A6
:101290008246B5F91A008146B5F91C0080460CE07B
:1012A000E88BADF80800B5F920008246B5F92200B8
:1012B0008146B5F924008046FFE79FED01AA01E0D1
:1012C00000000000DFED9EAAA979B5F9040002F044
:1012D00049FAB0EE40BAFE21BDF9900002F042FAA0
:1012E000F0EE40BAFE21200000B202F03BFAB0EE70
:1012F00040CAB5F80CB0BDF81000ADF81200FE21E0
:10130000BDF90E0002F02EFAF0EE40CAFE21BDF942
:101310000C0002F027FAB0EE40DAFE21BDF90A0017
:1013200002F020FAF0EE40DABDF80800ADF818003F
:10133000FE21504600B202F015FAB0EE40EAFE215E
:10134000484600B202F00EFAF0EE40EAFE214046B6
:1013500000B202F007FAB0EE40FABDF81810584695
:1013600080B2091A00EE101AB8EEC00ABDF81210C9
:10137000584680B2091A00EE901AF8EEE00A80EEA4
:10138000200A20EE2C0AB5F904000A2190FBF1F2A4
:1013900001FB1200002808D17EEECD0AB7EE001A3C
:1013A00000EE8B1A21EE008A2BE0B5F904000A2129
:1013B00090FBF1F201FB1200012808D17DEE6E0ACC
:1013C000B7EE001A00EE8B1A21EE008A19E0B5F98B
:1013D00004000A2190FBF1F201FB1200022808D15F
:1013E0007DEE6E0AB7EE001A00EE8B1A80EE018ACF
:1013F00007E07EEECD0AB7EE001A00EE8B1A80EE03
:10140000018ACEEE088A18EE900A02F069FB02000B
:101410000B000020DFF8341A02F086FBCDE9000152
:101420003DEECF0A10EE100A02F05AFB02000B004C
:10143000DDE9000102F0EAFB02F00CFD00EE900A8B
:10144000B0EE681A00EECF1AF0EE411A40EE8C1A98
:10145000BDF88C10584680B2091A00EE101AB8EE8A
:10146000C00ABDF81210584680B2091A02EE101ACE
:10147000B8EEC22A80EE020A20EE2C0AB5F904006A
:101480000A2190FBF1F201FB1200002808D13BEE8B
:10149000CD2AF7EE002A42EE0B2A62EE802A2BE0DC
:1014A000B5F904000A2190FBF1F201FB12000128BA
:1014B00008D13DEE6B2AF7EE002A42EE0B2A62EECF
:1014C000802A19E0B5F904000A2190FBF1F201FB32
:1014D0001200022808D13DEE6B2AF7EE002A42EEF8
:1014E0000B2AC0EE222A07E03BEECD2AF7EE002AB7
:1014F00042EE0B2AC0EE222A21EEA22ABDF88C0071
:1015000000280AD0200000B2012806DBBDF99000B7
:10151000012802DBB0EE420A01E09FED090A12B099
:10152000BDEC108BBDE8F78FDFF83C2A1070DFF8B8
:101530003C2A11600122DFF8383A1A707047000027
:101540000000000038B584B00025DFF8200A0468E8
:101550000320DFF81C1A0870322002F096FEDFF834
:10156000080A0078002807D0022833D011D30428B5
:1015700000F0848058D386E07648B0F914100091CA
:10158000B0F91230B0F91020C1894089FFF730FB63
:1015900079E070489FEDA10ADFF8D819D1ED010A72
:1015A00060EE800AFDEEE00A10EE901A09B200919A
:1015B000DFF8801CD1ED020A20EE800ABDEEC00AE1
:1015C00010EE103A1BB2220012B241898089FFF757
:1015D0000FFB58E05F489FED910AB0F9241003918A
:1015E000B0F922100291B0F920100191C18B009145
:1015F000DFF88019D1ED010A60EE800AFDEEE00A05
:1016000010EE903A1BB2DFF82C1CD1ED020A20EE4E
:10161000800ABDEEC00A10EE102A12B2210009B2F3
:101620004089FFF7B5FB2EE04A489FED7C0ADFF8C2
:101630004419D1ED010A60EE800AFDEEE00A10EED9
:10164000901A09B20391DFF8EC1BD1ED020A20EEEB
:10165000800ABDEEC00A10EE101A09B202912100F4
:1016600009B2019141890091B0F91C30B0F91A20FA
:10167000B0F91810C08AFFF78BFB04E0200080B29D
:10168000FFF772FAFFE705B030BD80B50320DFF841
:10169000E01808700421DFF8A00B00F0ECFF01BD9A
:1016A000E8060020EC260020F0B4030000200C889F
:1016B0001500EDB2042D16D12500ADB21D44AE7853
:1016C0002500ADB21D44ED7855EA06252600B6B2D8
:1016D0009E5D2700BFB21F447F7857EA062757EA6E
:1016E000054738000DE01500EDB2022D09D12500A7
:1016F000ADB25D5D2600B6B21E44767856EA052688
:1017000030000D8855FA82F50D80F0BC704770B539
:1017100004000D00DFF8286B01224FF480513000E7
:1017200001F049FB0A2003F09BF901F033FD4FF46F
:101730007A732A0092B22100DFF8240D03F0E1F958
:1017400000224FF48051300001F035FB70BD0000E5
:1017500000200208EC2600200220020803200208D4
:101760002DE9F0412DED028B8EB0F0EE408AB0EE07
:10177000608A322100226C46200000F085FF00279D
:1017800000240025DFF8AC8AC8ED058A88ED068ABA
:1017900098ED050A02F0D4F8060098ED060A02F06A
:1017A000CFF8804668463100090E3A00D2B2815423
:1017B0007F1C3100090C3A00D2B281547F1C3100E9
:1017C000090A3A00D2B281547F1C3900C9B246548A
:1017D0007F1C4146090E3A00D2B281547F1C41461B
:1017E000090C3A00D2B281547F1C4146090A3A00E2
:1017F000D2B281547F1C3900C9B200F801807F1C2D
:101800003A00D2B292B26946DFF8380A02F020F903
:101810000EB0BDEC028BBDE8F08100000000C842B4
:10182000002802080228020870B500240025DFF80D
:10183000140A0078C0B2FF283AD0DFF80C0A017809
:10184000C9B20906DFF8040A0078C0B251EA0041C3
:10185000DFF8FC090078C0B251EA0021DFF8F40992
:101860000078C0B201430C00DFF8EC090178C9B27E
:101870000906DFF8E8090078C0B251EA0041DFF854
:10188000E0090078C0B251EA0021DFF8D8090078F9
:10189000C0B201430D00DFF89C6916F1140120006D
:1018A00001F0CEFD16F11801280001F0C9FD05E098
:1018B000DFF88009002141610021816170BD0000D5
:1018C000032802080428020805280208062802083E
:1018D0000728020808280208092802080A2802081E
:1018E0000B2802082DE9F0472DED028B8EB0040085
:1018F000F0EE408AB0EE608A322100226D46280068
:1019000000F0C2FE002500260027DFF858AB8AF859
:1019100000408AED028ACAED018A9AED020A02F0BD
:101920000FF880469AED010A02F00AF881466846EF
:101930009AF800102A00D2B281546D1C4146090E5B
:101940002A00D2B281546D1C4146090C2A00D2B241
:1019500081546D1C4146090A2A00D2B281546D1C83
:101960002900C9B200F801806D1C4946090E2A0001
:10197000D2B281546D1C4946090C2A00D2B281545E
:101980006D1C4946090A2A00D2B281546D1C2900F7
:10199000C9B200F801906D1C2A00D2B292B2694619
:1019A000DFF8340B02F054F80EB0BDEC028BBDE84A
:1019B000F08770B500240025DFF81C0B0078C0B25A
:1019C000FF283DD0DFF89C6ADFF8100B00783070FC
:1019D000DFF80C0B0178C9B20906DFF8080B0078B4
:1019E000C0B251EA0041DFF8000B0078C0B251EA02
:1019F0000021DFF8F80A0078C0B201430C00DFF8DC
:101A0000F00A0178C9B20906DFF8E80A0078C0B226
:101A100051EA0041DFF8E00A0078C0B251EA002143
:101A2000DFF8600B0078C0B201430D0016F1080129
:101A3000200001F005FD311D280001F001FD08E046
:101A4000DFF8200A002101705FF0804181600021F1
:101A5000416070BDDFF8DC0764218183FE2181775E
:101A6000704700000030020878B591B004000D0006
:101A70003C21002202AE300000F006FE0020ADF84E
:101A800004000321022004F0FBFA0B200090002345
:101A9000DFF8F42A01A902A801F0BCFC4FF47A7324
:101AA000BDF8042002A9DFF8E40A03F02AF812B016
:101AB00070BD000002300208033002080430020842
:101AC0000530020806300208073002080830020814
:101AD00078B591B004000D003C21002202AE300028
:101AE00000F0D2FD0020ADF80400DFF8580701F047
:101AF0007FFFDFF8E40901F07BFFDFF868090021D0
:101B000001705FF080418160002141600D200090F4
:101B10000023DFF87C2A01A902A801F07BFC4FF426
:101B20007A73BDF8042002A9DFF8600A02F0E9FF29
:101B300012B070BD093002080A3002080B300208EA
:101B40000C3002080D3002080E3002080F30020877
:101B500038B590B004000D0003A8DFF8381A32221F
:101B600004F0A4FCDFF8300AD0E90023CDE901231A
:101B700003A801900023DFF8240A027802A903A831
:101B800001F0D3FB022000900023AEA202A903A81B
:101B900001F040FC4FF47A73BDF808200199DFF89A
:101BA000EC0902F0AEFF11B030BD000010300208A9
:101BB0006F12833AF8B504000D0000262068007803
:101BC00030283EDB206800783A283ADA00270020E7
:101BD0000100C9B2A28889B291420FD221680200E5
:101BE000D2B2895C302905DB21680200D2B2895C5F
:101BF0003A2900DB02E07F1C401CE9E73900C9B24A
:101C0000206801F0BFFC0600B6F5807F0FD2DFF838
:101C10008C0941783000C0B204F032FA4FF47A7384
:101C2000022289A1DFF8640902F06BFF12E04FF491
:101C30007A730522DFF86819DFF8500902F061FFB6
:101C400008E04FF47A730522DFF85419DFF83C09F5
:101C500002F057FFF1BD38B590B004000D0003A8A5
:101C6000DFF84019322204F021FCDFF83C09D0E90A
:101C70000023CDE9012303A801900023DFF81C090C
:101C8000427802A903A801F050FB02200090002333
:101C90006CA202A903A801F0BDFB4FF47A73BDF852
:101CA00008200199DFF8E40802F02BFF11B030BDE5
:101CB00011300208F8B504000D00002620680078F5
:101CC00030283DDB206800783A2839DA00270020E8
:101CD0000100C9B2A28889B291420FD221680200E4
:101CE000D2B2895C302905DB21680200D2B2895C5E
:101CF0003A2900DB02E07F1C401CE9E73900C9B249
:101D0000206801F03FFC06000C2E0FD23100C9B252
:101D1000DFF88808007804F0B3F94FF47A730222F0
:101D200049A1DFF8680802F0ECFE12E04FF47A7384
:101D30000522DFF86C18DFF8540802F0E2FE08E034
:101D40004FF47A730522DFF85818DFF8400802F0E4
:101D5000D8FEF1BD30B59BB004000D0002A8DFF83D
:101D60004C18642204F0B2FBDFF84408D0E90023E9
:101D7000CDE9002302A80090DFF838088379B0F994
:101D8000042001A902A801F0D0FA4FF47A73BDF83B
:101D900004200099DFF8F40702F0B3FE1BB030BD59
:101DA000F8B505000E0000242868007830283EDBD6
:101DB000286800783A283ADA002700200100C9B2E2
:101DC000AA8889B291420FD229680200D2B2895CF6
:101DD000302905DB29680200D2B2895C3A2900DB90
:101DE00002E07F1C401CE9E73900C9B2286801F015
:101DF000C9FB040042F2117084420ED2002C0CD0B8
:101E0000200080B2FEF7B0FE4FF47A7302220EA1DA
:101E1000DFF8780702F075FE12E04FF47A730522BE
:101E2000DFF87C17DFF8640702F06BFE08E04FF480
:101E30007A730522DFF86817DFF8500702F061FEB9
:101E4000F1BD00000D0A00004F4B00000000F03F04
:101E500078B5B5B004000D0003A8DFF85C17C82200
:101E600004F034FBDFF85407D0E90023CDE9012367
:101E700003A80190DFF83C67FE23728902A903A83A
:101E800001F053FA062000900023DFF8342702A95E
:101E900003A801F0BFFAFE23B28902A903A801F04A
:101EA00044FA072000900023DFF8182702A903A8AE
:101EB00001F0B0FAFE23F28902A903A801F035FA75
:101EC000052000900023DFF8002702A903A801F0F5
:101ED000A1FAFE23B6F9102002A903A801F025FA01
:101EE000062000900023DFF8E42602A903A801F0F1
:101EF00091FAFE23B6F9122002A903A801F015FAFF
:101F0000042000900023DFF8C82602A903A801F0EE
:101F100081FAFE23B6F9142002A903A801F005FAFC
:101F2000092000900023DFF8AC2602A903A801F0E5
:101F300071FAFE23B6F9002002A903A801F0F5F911
:101F400003200090002370A202A903A801F062FA06
:101F50004FF47A73BDF808200199DFF8300602F0DB
:101F6000D0FD36B070BD000060280020242800207D
:101F70007C000020F00600202DE9FE4F05000E0039
:101F80000024002000212A6817782A6892F801802E
:101F90002A68D278302AC0F2AB802868C0783A2804
:101FA00080F2A6805FF0000903200100C9B2AA8870
:101FB00089B2914210D229680200D2B2895C3029DC
:101FC00005DB29680200D2B2895C3A2900DB03E014
:101FD00019F10109401CE8E74946C9B22868C01C4C
:101FE00001F0D0FA040041F28930844276D2002C0C
:101FF00074D0DFF8C0058189ADF80A10C189ADF849
:102000000810B0F91010ADF80610B0F91210ADF8C4
:102010000410B0F914A05FF0010B3800C0B25A28C8
:1020200007D14046C0B2302803D12000ADF80A00E5
:1020300030E03800C0B2532807D14046C0B2302843
:1020400003D12000ADF8080024E03800C0B24328D6
:1020500007D14046C0B2302803D12000ADF80600B9
:1020600018E03800C0B2542807D14046C0B230282A
:1020700003D12000ADF804000CE03800C0B25028B5
:1020800006D14046C0B2302802D12000824601E08D
:10209000002083465846C0B2012815D1504600B2F0
:1020A0000090BDF90430BDF90620BDF80810BDF858
:1020B0000A00FEF79DFD4FF47A7302225FA1DFF85C
:1020C000CC0402F01EFD1CE04FF47A730522DFF809
:1020D000D014DFF8B80402F014FD12E04FF47A7364
:1020E0000522DFF8BC14DFF8A40402F00AFD08E0C2
:1020F0004FF47A730522DFF8A814DFF8900402F099
:1021000000FDBDE8F78F0000454E440078B5B5B03E
:1021100004000D0003A8DFF8C014C82204F0D6F9AB
:10212000DFF8B804D0E90023CDE9012303A801902A
:10213000DFF88064FE23F28A02A903A801F0F5F813
:10214000062000900023DFF8982402A903A801F0DC
:1021500061F9FE23B6F9182002A903A801F0E5F8F9
:10216000072000900023DFF87C2402A903A801F0D7
:1021700051F9FE23B6F91A2002A903A801F0D5F8F7
:10218000052000900023DFF8602402A903A801F0D5
:1021900041F9FE23B6F91C2002A903A801F0C5F8F5
:1021A000062000900023DFF8442402A903A801F0D0
:1021B00031F9FE23F28B02A903A801F0B6F806203C
:1021C00000900023DFF8282402A903A801F022F9D7
:1021D000FE23B6F9202002A903A801F0A6F80720E3
:1021E00000900023DFF80C2402A903A801F012F9E3
:1021F000FE23B6F9222002A903A801F096F80520D3
:1022000000900023DFF8F02302A903A801F002F9EF
:10221000FE23B6F9242002A903A801F086F84FF4A2
:102220007A73BDF808200199DFF8600302F069FCB9
:1022300036B070BD38270020680600204F4B0000E4
:102240000008004800080208020802080308020803
:102250000408020805080208060802080708020820
:1022600008080208090802082DE9F84F88B005009F
:102270000E000024002000212A6817782A6892F8AE
:1022800001802A68D278302AC0F2E0802868C078BD
:102290003A2880F2DB805FF0000903200100C9B218
:1022A000AA8889B2914210D229680200D2B2895C10
:1022B000302905DB29680200D2B2895C3A2900DBAB
:1022C00003E019F10109401CE8E74946C9B2286852
:1022D000C01C01F057F9040041F28930844280F0BB
:1022E000AD80002C00F0AA80B248C18AADF81C1065
:1022F000B0F91810ADF81A10B0F91A10ADF818109E
:10230000B0F91C10ADF81610C18BADF81410B0F96F
:102310002010ADF81210B0F92210ADF81010B0F97D
:1023200024A05FF0010B3800C0B2412807D140461D
:10233000C0B2312803D12000ADF81C0054E03800B1
:10234000C0B2432807D14046C0B2312803D1200093
:10235000ADF81A0048E03800C0B2542807D1404612
:10236000C0B2312803D12000ADF818003CE038009D
:10237000C0B2502807D14046C0B2312803D1200056
:10238000ADF8160030E03800C0B2412807D1404611
:10239000C0B2322803D12000ADF8140024E0380088
:1023A000C0B2432807D14046C0B2322803D1200032
:1023B000ADF8120018E03800C0B2542807D14046EA
:1023C000C0B2322803D12000ADF810000CE0380074
:1023D000C0B2502806D14046C0B2322802D12000F7
:1023E000824601E0002083465846C0B201281DD134
:1023F000504600B20390BDF910000290BDF91200E2
:102400000190BDF814000090BDF91630BDF91820F8
:10241000BDF91A10BDF81C00FEF7BAFC4FF47A7330
:10242000022257A1594802F06CFB16E04FF47A7370
:1024300005225B49554802F064FB0EE04FF47A73C5
:1024400005225749514802F05CFB06E04FF47A73CD
:10245000052253494D4802F054FB09B0BDE8F08F06
:1024600054210020DC27002080B5FFF7DDF9FFF7BD
:10247000A0FAFFF7EFFAFEF725FCFEF731FDFEF7B5
:1024800095FB5E485E49C0F8A4135E49C0F8B413DA
:102490005D49C0F8C4135D49C0F8D4135C49C0F865
:1024A000E4135C49C0F8F4135B49C0F804145B49B9
:1024B000C0F814145A49C0F824145A49C0F8341406
:1024C0005949C0F844145949C0F8541400F079FE31
:1024D00000F068FE01BD00000010020802100208B2
:1024E0000310020804100208051002080610020872
:1024F00007100208081002080910020870B5002031
:10250000002400252800C0B2082836DA484E2800EA
:10251000C0B200013044407801282CD101200400D1
:102520002800C0B200013044406800280ED004F0FA
:1025300011F82900C9B2090131444968401A29003B
:10254000C9B2090131448968884214D300202900A6
:10255000C9B209013144487003F0FCFF2900C9B237
:102560000901314448602800C0B22900C9B20901FC
:102570003144C96888476D1CC4E72000C0B270BDF3
:102580004F4B00000A1002082406010844200020D6
:102590006803010890FF000890080108C40B0020A0
:1025A00020080108C4FF000898080108D8EF0008B7
:1025B000A0080108EC26002088FD0008A8080108F2
:1025C00028080108300801083808010840080108F7
:1025D000480801083006010850FE0008B00801084C
:1025E0005008010858080108600801086808010837
:1025F0007008010878080108800801080407002015
:10260000691A0008D11A0008511B0008B51B000800
:10261000571C0008B51C0008551D0008A11D000826
:10262000511E0008791F00080D21000869220008CA
:1026300068060020020001200B00DBB21B011344DE
:10264000587000200B00DBB21B01134458600120BE
:10265000704738B504000D0001202900C9B20901F6
:102660002144487003F076FF2900C9B209012144D2
:102670004860012032BD020000200B00DBB21B01CC
:10268000134458700120704762F30F2262F31F4217
:10269000401810F0030308D0C91A1FD3DB0748BF46
:1026A00000F8012D28BF20F8022D130030B4144685
:1026B0001546103928BF20E93C00FAD8490728BF41
:1026C00020E90C0048BF40F8042D890028BF20F8FD
:1026D000022D48BF00F8012D30BC7047C91818BF43
:1026E00000F8012DCB0728BF00F8012D704730B44A
:1026F00003004FF6FF7000248C4213DA1A5D50403D
:102700000822002A0CD0C50706D580B2400880F404
:10271000204090F0010001E080B24008521EF0E736
:10272000641CE9E780B230BC70472DE9F84305002E
:102730000E0017009846089C5FF00009286849467B
:1027400089B2465419F101092868494689B24754AB
:1027500019F10109404680B2000A29684A4692B23E
:10276000885419F101092868494689B200F80180A6
:1027700019F10109200080B2000A29684A4692B284
:10278000885419F101092868494689B2445419F15D
:102790000109494689B22868FFF7A9FF01002868A6
:1027A0004A4692B2815419F10109080080B2000A28
:1027B0002A684B469BB2D05419F10109A5F8049040
:1027C0000120BDE8F2832DE9F84F06000F00904686
:1027D00099460A9DDDF82CA00024002130682200D3
:1027E00092B28754641C3068220092B200F80280D2
:1027F000641C484680B2000A326823009BB2D05461
:10280000641C3068220092B200F80290641C4046BA
:10281000C0B2062802D0102807D01CE0280080B2E1
:10282000012801D0002040E015E0280080B2000A15
:10283000326823009BB2D054641C3068220092B2EC
:102840008554641C2800C0B24000326823009BB24B
:10285000D054641CFFE75FF0000B584680B229009B
:1028600089B2B0EB410F0BDA584680B21AF800007B
:102870003168220092B28854641C1BF1010BECE712
:10288000210089B23068FFF732FF01003068220072
:1028900092B28154641C080080B2000A326823009E
:1028A0009BB2D054641CB4800120BDE8F28F2DE9A6
:1028B000F84F05000E00170098460A9CDDF82C9092
:1028C0005FF0000B002029685A4692B28E541BF12B
:1028D000010B29685A4692B28F541BF1010B21005B
:1028E000C9B249002A685B469BB2D1541BF1010B67
:1028F0005FF0000A504680B2210089B2B0EB410F70
:102900000CDA504680B219F8000029685A4692B293
:1029100088541BF1010B1AF1010AEBE7594689B201
:102920002868FFF7E4FE010028685A4692B28154F5
:102930001BF1010B080080B2000A2A685B469BB2BB
:10294000D0541BF1010BA5F804B00120BDE8F28FB3
:102950002DE9F84F05000E00170098460A9CDDF897
:102960002C905FF0000B5FF0000A2868594689B28E
:1029700046541BF1010B2868594689B247541BF194
:10298000010B404680B2000A29685A4692B2885428
:102990001BF1010B2868594689B200F801801BF130
:1029A000010B3800C0B2062802D010281DD02CE040
:1029B000200080B2012801D000203EE000208246A5
:1029C000504680B2210089B2B0EB410F0CDA50467C
:1029D00080B219F8000029685A4692B288541BF157
:1029E000010B1AF1010AEBE70FE0200080B2000AA8
:1029F00029685A4692B288541BF1010B286859463F
:102A000089B244541BF1010BFFE7594689B228688B
:102A1000FFF76DFE010028685A4692B281541BF1FF
:102A2000010B080080B2000A2A685B469BB2D054B2
:102A30001BF1010BA5F804B00120BDE8F28F30B402
:102A4000002513E050F8042BD30744BFA9F101037C
:102A50009A18091F042942F8045BFAD213468C071E
:102A600044BF15809B1CC90748BF1D7050F8041B4C
:102A70000029E7D130BC7047F8B40300002508688E
:102A8000E840002800F0D78001260F6816FA05F00C
:102A900007403A00002A00F0CC80087910F00300CB
:102AA000012804D0087910F0030002281DD19F6886
:102AB0005FF0030C2800C0B240001CFA00FC37EAAB
:102AC0000C07D1F80CC02800C0B240001CFA00FC72
:102AD0005CEA07079F605868AE40B0434E68C6F393
:102AE0000016AE40304304005C60087910F003002B
:102AF00003280ED0DE6803272800C0B240008740BC
:102B0000BE438F682800C0B2400087403E43340077
:102B1000DC60087910F00300022818D12800C008F2
:102B200003EB8000066A0F2715F00700C0B2800093
:102B30008740BE430F6915F00700C0B28000874090
:102B40003E4334002800C00803EB800004621E6886
:102B500003272800C0B240008740BE430F7917F01A
:102B600003072800C0B2400087403E4334001C6089
:102B7000486810F4403F5CD09548066856F001065E
:102B80000660006810F0010000900098914F280046
:102B9000800857F820605FF00F0C15F00300C0B2FA
:102BA00080001CFA00FC36EA0C06B3F1904F01D10C
:102BB000002414E08848834201D101240FE08748B3
:102BC000834201D102240AE08548834201D10324D3
:102BD00005E08448834201D1042400E0072415F075
:102BE0000300C0B28000844026432800800847F8D4
:102BF00020607D4C206890434F68FF0200D5104351
:102C000020607A4E346894434F68BF0200D5144365
:102C10003460774E306890434F68BF0300D510434F
:102C20003060744E346894434F68FF0300D51443FA
:102C300034606D1C23E7F1BC70472DE9F0410300BF
:102C400000250800E840002800F0A880012616FAB8
:102C500005F008400200002A00F09E80DFF874C1F1
:102C6000280080085CF820000F2715F0030E5FFA9B
:102C70008EFE5FEA8E0E17FA0EFE1EEA00000400BA
:102C8000B3F1904F02D15FF0000E19E05248834239
:102C900002D15FF0010E13E05048834202D15FF091
:102CA000020E0DE04E48834202D15FF0030E07E0B2
:102CB0004C48834202D15FF0040E01E05FF0070E42
:102CC00015F00300C0B280001EFA00FE74452CD13E
:102CD0004848D0F800E03EEA020EC0F800E0444860
:102CE000D0F800E03EEA020EC0F800E03F48D0F81D
:102CF00000E03EEA020EC0F800E03B48D0F800E0F9
:102D00003EEA020EC0F800E015F00300C0B28000F9
:102D100017FA00F00400280080085CF82000A043A7
:102D2000AE465FEA9E0E4CF82E005FF0030C18686A
:102D3000AE465FFA8EFE5FEA4E0E1CFA0EFE5EEAAB
:102D4000000018602800C00803EB800E2800C008AF
:102D500003EB8000D0F8208015F00700C0B280009F
:102D6000874038EA0707CEF8207098682F00FFB236
:102D70007F001CFA07F7B84398605868AE4030EA05
:102D800006065E60DE682800C0B240001CFA00FC47
:102D900036EA0C0CC3F80CC06D1C52E7BDE8F0819C
:102DA000020010690B009BB2184201D0012000E024
:102DB0000020C0B270471300DBB2002B03D00B0021
:102DC0009BB2836102E00B009BB2836270470000FC
:102DD000601002400800014000040048000800485C
:102DE000000C004800100048080401400C04014099
:102DF000040401400004014080B5D448D449016076
:102E00005FF4E1314160002181600021C160002157
:102E100001610C21416100218161002101620021D9
:102E2000416201F031FE002801D003F0F8FB01BD42
:102E300080B5C848C84901604FF41651416000216F
:102E400081600021C160002101610C2141610021EC
:102E500081610021C161002101620021416201F014
:102E600013FE002801D003F0DAFB01BD80B5BB489A
:102E7000BB4901604FF4165141600021816000217F
:102E8000C160002101610C214161002181610021AB
:102E9000C161002101620021416201F0F5FD0028BD
:102EA00001D003F0BCFB01BD38B59EB00400142274
:102EB0000021684603F0B5FB6022002106A803F05C
:102EC000B0FB2068A249884252D120200690002001
:102ED000119006A803F0B0FB002801D003F09FFB7F
:102EE000A048016851F001010160006810F0010084
:102EF000059005989C48016851F002010160006846
:102F000010F00200059005984FF4406000900220F8
:102F1000019001200290032003900820049069464C
:102F20009248FFF7A9FD924D9248286004206860FE
:102F30000020A8600020E8608020286100206861EF
:102F40000020A8610020E86100202862280003F02A
:102F5000E7FD002801D003F062FB6567AC62002248
:102F60000021462004F07DF8462004F08FF8ABE005
:102F700020687949884251D10120069000200E90A6
:102F800006A803F059FB002801D003F048FB7A485B
:102F9000016851F480410160006810F480400590A0
:102FA00005987148016851F002010160006810F055
:102FB000020005900598C02000900220019000209A
:102FC0000290032003900720049069466748FFF7AA
:102FD00053FD6A4D6A482860022068600020A8609E
:102FE0000020E86080202861002068610020A8613E
:102FF0000020E86100202862280003F091FD0028ED
:1030000001D003F00CFB6567AC6200220021252093
:1030100004F027F8252004F039F855E020685049DD
:10302000884251D1042006900020109006A803F099
:1030300003FB002801D003F0F2FA5248016851F472
:1030400080210160006810F48020059005984648B2
:10305000016851F004010160006810F0040005905F
:1030600005984FF4406000900220019000200290EB
:10307000032003900720049069464348FFF7FCFCB7
:10308000424D43482860022068600020A86000206C
:10309000E86080202861002068610020A86100208D
:1030A000E86100202862280003F03AFD002801D0E2
:1030B00003F0B5FA6567AC6200220021272003F017
:1030C000D0FF272003F0E2FF1FB030BD10B5040091
:1030D00020681F49884210D12248016849084900E8
:1030E00001604FF440612148FFF7A7FD606F03F0D6
:1030F00087FD462003F0D1FF27E02068164988426B
:103100000FD11D48016831F480410160C02117488A
:10311000FFF793FD606F03F073FD252003F0BDFF03
:1031200013E020680E4988420FD11648016831F437
:10313000802101604FF440611348FFF77EFD606F0E
:1031400003F05EFD272003F0A8FF10BD44200020FF
:1031500000800040CC200020003801405421002095
:10316000004800405C1002404C100240000400483F
:10317000982500208004024060100240E0250020D5
:10318000580002405810024000080048282600203D
:103190003000024080B5184803F0E6FF02201749CE
:1031A000087001BD80B501221549164801F00FFDD8
:1031B00000220121272003F054FF272003F066FF9F
:1031C00001BD704738B504000B480D490A78036803
:1031D00085885A558288521C8280828840F2FF136B
:1031E0009A4201D3002282800122064801F0EFFCBE
:1031F00001200249087031BD740B002065280020B1
:10320000642800205421002001000800C0B20028DA
:1032100001D1012021E00800C0B2FF2801D10A201D
:103220001BE00800C0B2FE2801D1642015E00800B0
:10323000C0B2FD2802D14FF47A700EE00800C0B28F
:10324000FC2802D142F2107007E00800C0B2FB284F
:1032500002D1DFF8C00600E0012070472DE9F24FEF
:1032600082469346002000210A260027B046B94630
:10327000009A1588BBF1000F08D5DBF100042D2062
:103280002A0092B20AF802006D1C00E05C462000A1
:10329000002142464B4604F02DF8002901D10028B8
:1032A00008D0A6FB080106FB091107FB08118046A0
:1032B0008946ECE7404649460A22002304F01AF802
:1032C00006000F00002F01D1002E28D02000002181
:1032D00032003B0004F00EF83030290089B20AF8C1
:1032E00001006D1CA0465FF00009200000213200A3
:1032F0003B0003F0FFFFA6FB002306FB013307FBA7
:103300000033B8EB020079EB030104003000390010
:103310000A22002303F0EEFF06000F00D2E7009818
:1033200005802800C0B2BDE8F28F2DE9FE4F0600EF
:103330000F0090460020ADF800000020002400217E
:103340005FF0000BB7F80090B8F1000F02D5D8F18C
:10335000000500E04546424639003000FFF77EFF99
:10336000B7F800A0002D4FD09DF80800FFF74CFFE4
:1033700001008D4205D20A2045431BF1010B002DAF
:10338000F7D15846C0B2002821D050460200D2B230
:10339000324412F8012C2D2A06D00200D2B24B463C
:1033A00092B29BB29A4208D130220300DBB2F254AF
:1033B0001AF1010ABBF1010BE3E70200D2B2324479
:1033C00012F8012C0300DBB2F254401EDEE70A20A3
:1033D000B1FBF0F450468346002C15D00A20B4FB14
:1033E000F0F45846C0B2304410F8010C5946C9B246
:1033F0007054BBF1010B002CEED12E205946C9B2FE
:1034000070541AF1010AE7E7A7F800A05046C0B2CD
:10341000BDE8FE8FF0B4049C00252E00B6B2A64293
:103420000BD20E88771C0F802F00BFB217FA83F7DC
:10343000D75DB6B287556D1CEFE7F0BC7047000052
:103440002DE9F34F81B02DED028B9FED658A0024AD
:1034500001250026F7EE008A00273800C0B2202898
:1034600064DA0398F84010F0010004003800C0B29C
:10347000172829DA18EE900A00F032FB82468B46B4
:103480002000C0B204F04EF8804689463800C0B231
:10349000D0F117005FF0FF31484304F051F841ECE0
:1034A000110B9FED500B04F060F851EC100B4246ED
:1034B0004B4604F063F852465B4604F031F900F0E5
:1034C000C9FC08EE900A2FE03800C0B21F2824DAA9
:1034D0003000C0B204F026F882468B462000C0B20D
:1034E00004F020F8804689463800C0B2173804F04E
:1034F00027F841EC110B9FED3B0B04F036F851EC33
:10350000100B42464B4604F039F852465B4604F035
:1035100007F904F0C3F9060006E02000C0B2012854
:1035200002D15FF0FF3005007F1C96E7280040B213
:1035300004F006F8804689463000C0B27F3803F0B8
:10354000FFFF41EC110B9FED270B04F00EF851EC3F
:10355000100B42464B4604F011F88046894618EE9F
:10356000900A00F0BDFA42464B4604F007F800F01E
:1035700071FC00EE100A049880ED000ABDEC028B8D
:10358000BDE8F78F70B4030000220024002000255E
:103590002A000E00D2B2F6B2B2421FD22A00D2B234
:1035A0009A5C302A0ADB2A00D2B29A5C3A2A05DAFF
:1035B0002A00D2B29A5C303A140001E000221400D2
:1035C0002A00D2B2002A03D12200D2B2100003E0B6
:1035D0000A22504350FA84F06D1CD9E770BC704742
:1035E000000000000000000000000040F8B52DEDD4
:1035F000028B82B004000D000020009000269FED99
:103600004E8A0027DFED568A69462000FFF718FF33
:103610002800C0B200280AD0FB2836D0FC282BD0C6
:10362000FD2820D0FE2815D0FF2809D036E09FEDD8
:10363000420AB0EE408A9FED4A0AF0EE408A2DE041
:103640000A2000EE100AB0EE408A9FED3C0AF0EE30
:10365000408A23E09FED3A0AB0EE408A9FED390A96
:10366000F0EE408A1AE09FED380AB0EE408A9FEDF6
:10367000370AF0EE408A11E09FED350AB0EE408A3D
:103680009FED340AF0EE408A08E09FED330AB0EE79
:10369000408A9FED320AF0EE408AFFE79DED000A76
:1036A000B5EE400AF1EE10FA1BDBB8EE480ADDED8C
:1036B000000A20EE200AF2EE040A20EE200ABCEEF8
:1036C000C00A10EE100A0A22B0FBF2F102FB11014F
:1036D000052923D39DED000A30EE280A8DED000A5E
:1036E0001CE0B8EE480ADDED000AF1EE600A20EEBB
:1036F000800AF2EE040A20EE200ABCEEC00A10EEA8
:10370000100A0A22B0FBF2F102FB1101052905D3D0
:103710009DED000A30EE680A8DED000AB8EE480A09
:10372000DDED000A20EE200ABDEEC00A10EE100A00
:1037300002B0BDEC028BF2BD01000000CDCCCC3D4F
:10374000640000000AD7233CE80300006F12833AAC
:103750001027000017B7D138A0860100ACC5273765
:10376000000000002DE9F0412DED028B07000E0056
:103770009FED678A3000C0B200280BD0FB2800F014
:103780009E80FC2877D0FD2851D0FE282CD0FF2821
:1037900007D0B7E000EE107AB8EEC00AB0EE408A6B
:1037A000B0E00A2097FBF0F000EE100AB8EEC00A75
:1037B0005FF00A0810EE100A00F092F904000D0004
:1037C00097FBF8F008FB1078404603F0B9FE524A28
:1037D000524B03F0D3FE22002B0003F0A1FF00F0B8
:1037E00039FB08EE100A8DE0642097FBF0F000EE44
:1037F000100AB8EEC00A5FF0640810EE100A00F07C
:103800006FF904000D0097FBF8F008FB10784046B4
:1038100003F096FE424A434B03F0B0FE22002B0019
:1038200003F07EFF00F016FB08EE100A6AE04FF48A
:103830007A7097FBF0F000EE100AB8EEC00A4FF471
:103840007A7810EE100A00F04BF904000D0097FB97
:10385000F8F008FB1078404603F072FE324A334B12
:1038600003F08CFE22002B0003F05AFF00F0F2FA66
:1038700008EE100A46E042F2107097FBF0F000EEFE
:10388000100AB8EEC00A42F2107810EE100A00F0EA
:1038900027F904000D0097FBF8F008FB107840466C
:1038A00003F04EFE224A234B03F068FE22002B0059
:1038B00003F036FF00F0CEFA08EE100A22E01548B9
:1038C00097FBF0F000EE100AB8EEC00ADFF8448073
:1038D00010EE100A00F004F904000D0097FBF8F058
:1038E00008FB1078404603F02BFE134A134B03F0FD
:1038F00045FE22002B0003F013FF00F0ABFA08EEA8
:10390000100AFFE7B0EE480ABDEC028BBDE8F0817B
:1039100000000000A08601009A9999999999B93FF1
:103920007B14AE47E17A843FFCA9F1D24D62503F4F
:103930002D431CEBE2361A3FF168E388B5F8E43E0C
:1039400010B42DED010A00206A460023042B07D293
:10395000D45C1900C9B2C9008C4020435B1CF5E758
:1039600012BC70472DE9F74F82B000265FF0000AC5
:103970005FF0000B54465D46002000900127DDF803
:103980000C80DDF80890049810F0070F2BD10498F4
:10399000C008002182468B4603F0F6FF4FF47A7090
:1039A00004F00AF800200600300080B200215945DA
:1039B00017D801D3504514D2D8E9000104000D00F6
:1039C00022002B004946002003F086FF0700380044
:1039D000C0B2012805D019F1080918F10808761CB1
:1039E000E2E703F0E2FF3800C0B205B0BDE8F08FB7
:1039F00070B50400012503F0C7FF06004FF47A708C
:103A000003F0DAFF3000C0B200280FD1C4F3CC209D
:103A1000B0F5807F05D20121C4F3CC2004F038F842
:103A200004E00121C4F3CC2004F032F84FF47A70A2
:103A300003F0C2FF05000548016831F00201016092
:103A400003F0B3FF2800C0B270BD00001420024094
:103A50002DE9F041C0B004000D00160000274FF41E
:103A600080710022E8464046FEF70EFE2000FFF778
:103A7000BFFFA5208DF8000030008DF801005FF039
:103A800000084046310080B289B288420AD24046DE
:103A900080B2285C6946424692B21144887018F19F
:103AA0000108EEE7B61C300080B20821B6B2083635
:103AB000361A90FBF1F001FB0066320092B26946C3
:103AC0002000FFF74FFF002801D0002000E0012078
:103AD00040B0BDE8F0810268531C0360117070476C
:103AE000C0F3C75181B1FF2906D0C110400721F0B2
:103AF000E04101F16051704741020CBF40F4E00128
:103B00006FF000410020704700F0004100020AD031
:103B1000B0FA80FC00FA0CF001F16051A1EB0C51FD
:103B200001EBD0214005704770B44FF0004591EA99
:103B3000030F43F1FD856B40841A71EB030603D23A
:103B4000001BB141121973414FF4001C1CEB410FD3
:103B500034BF7CEB430442E00C0DA4EB1356352E2E
:103B60004FDC45EAC323DB0A45EAC121C912B6F19D
:103B700020050DDD63FA05F6EB4086EA03051242E7
:103B800018BF45F00105C01851F100010CD213E037
:103B900062FA06F5F2405540F3415A40B340F34013
:103BA0005A408018594107D349085FEA30005FEA5C
:103BB000350528BF45F0010501F58011420875F172
:103BC000004250F1000041EB04514E0016F5001F79
:103BD00070BC38BF70470020090D090570471CEB09
:103BE000410F10D252EA43060BD0BCEB410F05D86F
:103BF0000C0DAB43661E342EB6DD02E0AB438018DD
:103C0000594170BC704770BC70472E00F0B540F24F
:103C1000FF7581EA030C0CF0004C15EA11541DBF2E
:103C200015EA1357AC42AF42E5E0BC41C1F31301C2
:103C3000C3F31303801A994143F4801304D2641E22
:103C40004000494180185941C90241EA5051B1FB35
:103C5000F3F603FB1611A2FB0675D7EBC020A941B2
:103C600002D2761E80185941C90241EA5051B1FB77
:103C7000F3FE03FB1E11A2FB0E75D7EBC020A9417A
:103C800003D2AEF1010E80185941890241EA9051E8
:103C9000760546EA8E2EB1FBF3F603FB1611A2FB66
:103CA0000675D7EB8020A94102D2761E80185941B3
:103CB000C90241EA50514EEA060EB1FBF3F603FB8E
:103CC0001611A2FB0675D7EBC020A94102D2761EC1
:103CD00080185941C90241EA5051B1FBF3F703FB87
:103CE0001711A2FB0735D3EBC020A94167F10007EC
:103CF0000CBF004247F0010766F3D5274FEA1E319B
:103D0000B80814F5806412DDBD0775F1004250EB70
:103D10000E5051EB045111F5801F5CBF41EA0C01BC
:103D2000F0BD4CF07F6141F0E0410020F0BDBD07E7
:103D30006D0840EA0E5041F48011D4F10104B4F151
:103D400020060ADAC4F120060200E04001FA06F378
:103D5000E1401843B24015430EE0342C13DCC6F1A9
:103D6000200445EA40056D0820FA06F2154321FAC1
:103D700006F0A1400D43002175F1004250F1000012
:103D800051EB0C01F0BD00205FEA0C01F0BDCFB992
:103D900092185B41B3FA83F704BFB2FA82F6BF19F7
:103DA0000B3FB7F120062FBF02FA06F3BB40C7F165
:103DB000200622FA06F638BF3343BA401CB1E41994
:103DC000641E33E77F4231F00041B1FA81F404BF51
:103DD000B0FA80F6A4190B3CB4F120062FBF00FA0C
:103DE00006F1A140C4F1200620FA06F638BF31439F
:103DF000A0403C1B1AE7AC421ABF05EA1357AF427A
:103E000012E050EA41061CBF52EA4306BFE750EAFF
:103E10004107304661461CBF41EA0551F0BD52EAF8
:103E2000430C08BFC143F0BD00204FF4001616EB51
:103E3000410F98BF16EB430F08BF16EB410F24BF8D
:103E4000C14305E016EB430F0CBF61464CEA055138
:103E5000F0BD000001F000428B1AA3F16051B1F5F2
:103E6000801F0ADBB1F17F6F1FD242EAC102C1009D
:103E700071F1004142EB507070470B15C3F109031B
:103E8000212B10D2890241EA905180020128494138
:103E900041F0004121FA03F0C3F12003994071F190
:103EA000004150417047100070476FF0000013EB65
:103EB000103F5CBF000E42EAC050704780B5002240
:103EC0004FF40071DFF8040BFEF775FF00224FF48A
:103ED00000715FF09040FEF76EFF03F029FEDFF8FF
:103EE000F00ADFF8F01A4A1CC0F858210A1DC0F881
:103EF000702111F12402026211F1140282630A7A24
:103F000080F83D2011F1180202654A7A80F85520A8
:103F1000DFF8CC2A12F10A03C0F8A03111F10C032A
:103F2000C0F8B8310B7A80F8BD3112F11003C0F837
:103F3000E831137A80F8ED3112F11803C0F800323D
:103F4000137A80F8053212F12003C0F81832137A80
:103F500080F81D32131DC0F83032927980F8352276
:103F600011F11C02C0F860220A7A80F8652211F172
:103F70002002C0F878224A7A80F87D22DFF8642A8D
:103F8000C0F8A82211F12802C0F8C0228A7A80F86D
:103F9000C52211F12C02C0F8D822897A80F8DD12EE
:103FA000DFF8441A0968C0F82013DFF8401A0968DE
:103FB000C0F8501301BD38B5002000242000C0B265
:103FC000072835DADFF8285A2000C0B2000128445B
:103FD000407801282AD12000C0B20001284440685E
:103FE00000280ED002F0B6FA2100C9B20901294416
:103FF0004968401A2100C9B20901294489688842E8
:1040000014D300202100C9B209012944487002F0EC
:10401000A1FA2100C9B20901294448602000C0B2B8
:104020002100C9B209012944C9688847641CC5E751
:10403000002032BD38B50400DFF8B8596878002890
:104040001FD100224FF40071DFF88009FEF7B3FEA4
:1040500000224FF400715FF09040FEF7ACFE03F0D9
:1040600067FD89200090202307220521DFF88809B9
:1040700003F0B6FD012068700221DFF87409FEF735
:10408000D9FA012032BD7CB50400DFF870592878D8
:10409000002803D0022823D003D33DE003F0E8FE3C
:1040A0003AE003F05BFF89200090202307220521DE
:1040B000DFF8440903F094FDDFF8442903212C20A4
:1040C00003F0A8FEDFF83C290421082003F0A2FE3B
:1040D00003F0A1FF41F28830DFF8141988611BE07A
:1040E0000120DFF810194870892000902023072252
:1040F0000521DFF8040903F073FDDFF8F4680221FD
:104100003000FEF797FA03213000FEF793FA0421FE
:104110003000FEF78FFAFFE72878401C2870210056
:10412000C9B2DFF8CC08FEF794FA012076BD70B56D
:10413000040000F0BDF8DFF8BC586878012803D10E
:10414000A87800F073FB04E00021DFF8A408FEF774
:1041500071FADFF8B408A9780278914207D0A978FB
:104160000170DFF8A8080068DFF8A4180860A878D4
:10417000092812D1DFF898684FF4FA61306802F02C
:10418000ABFF012809D1DFF88408006830600622FF
:1041900015F10801A81C03F047F82100C9B2DFF8A7
:1041A0005008FEF756FA012070BD10B50400DFF884
:1041B0006418DFF86408006902F08EFF012827D137
:1041C000DFF858080178012905D10021017000208D
:1041D000DFF820188870DFF848080188491C018042
:1041E00042F21071DFF808282300DBB21B011A44E9
:1041F0009268B1FBF2F102888A420DD3002101805E
:10420000DFF8F0178878002806D00020887003E0D7
:104210000120DFF8081808702100C9B2DFF8D007C4
:10422000FEF717FA012010BD38B5040003F07AFF3D
:10423000DFF8E457287A012808D10521DFF8B00714
:10424000FEF7F8F9DFF8C407006828612100C9B259
:10425000DFF89C07FEF7FDF9012032BD10B5040020
:1042600003F046FFDFF8B007002101700021017262
:10427000012010BD10B5040000224FF40051DFF8FA
:104280004C07FEF798FD012010BD10B50400012277
:104290004FF40051DFF83407FEF78DFDDFF85007CB
:1042A000210089B281660621FEF7D3F910BD000016
:1042B00038B5DFF82047DFF86C0701786170DFF868
:1042C0006817407851F820006060207AFEF79CFF64
:1042D00000EE100ADFF85457B8EE400AD5ED010A97
:1042E00020EE200ABDEEC00A84ED030A607AFEF7D4
:1042F0008BFF00EE100AB8EE400AD5ED020A20EE60
:10430000200ABDEEC00A84ED040A207AFEF77CFF85
:1043100000EE100AB8EE400AD5ED030A20EE200A9E
:10432000BDEEC00A84ED050A607AFEF76DFF00EE6F
:10433000100AB8EE400AD5ED040A20EE200ABDEEC0
:10434000C00A84ED060A207AFEF75EFF00EE100A2E
:10435000B8EE400AD5ED050A20EE200ABDEEC00AEF
:1043600084ED070A607AFEF74FFF00EE100AB8EE00
:10437000400AD5ED060A20EE200ABDEEC00A84ED03
:10438000080AA07AFEF740FF00EE100ADFF8545644
:10439000B8EE400AD5ED020A20EE200ABDEEC00AB2
:1043A00084ED0A0AA07AFEF72FFF00EE100AB8EE9D
:1043B000400AD5ED010A20EE200ABDEEC00A84EDC8
:1043C0000B0ADFF86C0690ED010ADFED040A20EE1F
:1043D000200ABDEEC00A84ED090A31BD0000C842C2
:1043E0002DE9F84F8AB006002021002202AC2000FF
:1043F000FEF74AF90024002500208DF80500002072
:104400008DF806001827DFF8C8853000C0B2784361
:10441000404490F815903000C0B278434044406862
:10442000002842D001213000C0B200F0A9F90028D4
:104430000ED13000C0B27843404442683000C0B270
:1044400078434044017D4846C0B203F0E3FC1EE0DF
:104450005FF0000A3000C0B278434044406805F085
:1044600039F95146C9B2814207D2202002A95246E9
:10447000D2B288541AF1010AECE702AA3000C0B2A5
:1044800078434044017D4846C0B203F0C3FC30008D
:10449000C0B278434044406805F01CF9DFF8941539
:1044A0000979491C484310FA89F93000C0B27843B1
:1044B00040448068002800F03A813000C0B2784360
:1044C0004044007B00280BD002281ED012D30428C1
:1044D00030D024D3062845D036D307283ED044E038
:1044E0003000C0B278434044806800780021040066
:1044F0000D003AE03000C0B278434044806890F943
:104500000000C11704000D002FE03000C0B2784356
:10451000404480680088002104000D0025E0300040
:10452000C0B2784340448068B0F90000C11704006D
:104530000D001AE03000C0B2784340448068006843
:10454000002104000D0010E03000C0B27843404468
:1045500080680068C11704000D0006E001208DF896
:10456000050002E002208DF805009DF805000028F6
:104570000CD13000C0B278434044407B404202003E
:10458000D2B202A9200002F0BFFD26E09DF805008E
:1045900001281AD13000C0B278434044806805F049
:1045A00099F8202819D23000C0B27843404480687E
:1045B00005F090F8020092B23000C0B27843404457
:1045C000816802A802F030FE07E03000C0B27843F4
:1045D0004044806800788DF8080002213000C0B2A5
:1045E00000F0CEF8012823D13000C0B27843404417
:1045F000807DC0B200098DF806009DF806000F28E6
:1046000005D0202002A99DF80620885410E05FF014
:10461000000A02A805F05EF85146C9B2814207D2ED
:10462000202002A95246D2B288541AF1010AF0E7BA
:104630003000C0B202285ED15FF0000A00208DF881
:1046400004003000C0B278434044407B002802D0D0
:1046500009208DF80400392000902E2315220F2107
:10466000DFF8D40305F052F802A805F033F88346CA
:10467000DFF8C0030079401C00FB0BFB5846C0B2BA
:10468000022190FBF1F01F280BDA5846C0B202213C
:1046900090FBF1F0D0F140009DF8041050FA81FA3F
:1046A00007E05846C0B2D0F15F009DF8041050FA00
:1046B00081FA02AA3000C0B278434044007D401C19
:1046C000C0B2DFF870134979D1EBC001491EC9B2FD
:1046D0005046C0B205F0C4F95AFA8BF09DF8049028
:1046E000B0EB090989200090202307220521C24848
:1046F00003F076FA1BE08920009020230722052191
:10470000BD4803F06DFA02AA3000C0B278434044BD
:10471000017D4846C0B203F07DFB02A804F0DAFF39
:10472000C4490979491C484310FA89F08146300090
:10473000C0B278434044006900281ED03000C0B2A7
:10474000784340448068002817D03000C0B27843D6
:1047500040448068B94988420FD03000C0B27843E5
:10476000404402693000C0B207FB00F708EB0700C5
:10477000017D4846C0B203F04DFB0BB0BDE8F08FA1
:10478000F8B504000D0092492200D2B2182042432D
:1047900001EB0200817D2800C0B201402800C0B2B8
:1047A00081422FD19826A64F4FF496712800C0B2AF
:1047B000704338442200D2B250F8220002F08CFC40
:1047C00001282AD12800C0B206FB00F607EB06003C
:1047D0002100C9B28D4A126840F82120262099494B
:1047E0002A00D2B242430A442300DBB22E00F6B2C2
:1047F00000FB06F008442100C9B2405CD0F1010082
:10480000D0540AE08F492A00D2B22620424301EB5D
:1048100002002100C9B2002242548A49EDB226208A
:10482000454301EB0500E4B2005DF2BD70B5040044
:10483000002603F093FB00F077F82000C0B200F0F0
:104840007DF82000C0B200F093F80025280080B267
:10485000262811DA5E492A0092B21820424301EB61
:104860000200C07D2100C9B2884203D12800C0B235
:10487000FFF7B6FD6D1CE9E703F0CDFB70BDF0B4AA
:104880004271C47803792500EDB2AB420AD3F0251A
:104890004F4E2700FFB218235F4306EB07039D75B9
:1048A000641CEFE718234A4C85785D43254446791C
:1048B000AE75002904D0857803FB05F32344996085
:1048C000F0BC70472DE9F84F0700884691469A469C
:1048D0000A9E0B9DDDF830B00D9C87F8008087F8AC
:1048E000019087F802A0FE703D712200D2B25946B5
:1048F0003800FFF7C4FFBDE8F18F10B401000022BB
:104900001000C0B204280CD21000C0B2085C4E4B9C
:104910001400E4B21B5D984201D0002002E0521C5A
:10492000EEE7012010BC704780B5012000900823FD
:104930007F220821002005F017F901BD10B5040001
:104940002000C0B2002812D138480078002807D1D2
:1049500021A21F4890F85C10782003F05BFA06E073
:104960001EA21B4890F85C10782003F053FA10BD8B
:104970000100C9B2082924D116490978002906D0B6
:1049800002290ED008D3042915D00FD318E02F49DF
:104990000F4AC2F8681318E02D490D4AC2F868138F
:1049A00013E02C490A4AC2F868130EE02A49084A63
:1049B000C2F8681309E02949054AC2F8681304E0FF
:1049C00003E02249024AC2F8681370470008004811
:1049D000080100207C000020200000004E000000A4
:1049E000EC260020DC27002030050020AC00002051
:1049F0000C000020C027002088FA00085928002059
:104A00000C060108B40101085A28002038280020AB
:104A100010280020C0270900782700205B280020EC
:104A20004C280020C40B0020F4050020382700206B
:104A3000F0060020D027002060F80008C60B0020F8
:104A40007C1E00205C240020B4000020B800002060
:104A5000C8000020D8000020E8000020F800002056
:104A600070B5040001F076FD0500260016F1010F77
:104A700002D004480078361801F06CFD401BB042AB
:104A8000FAD370BDC70B002010B50400002C01D173
:104A9000012035E0A0690028FFD1E06F002805D192
:104AA000002084F878002000FEF7FEF92420E0675B
:104AB000206800684008400021680860606A00289B
:104AC00002D0200000F0DEFB200000F05FFA012899
:104AD00001D1012014E02068406830F49040216842
:104AE00048602068806830F02A002168886020686B
:104AF000006850F0010021680860200000F02FFCE1
:104B000010BD2DE9FC4706000D0017009846F06F18
:104B1000202859D1002D03D0380080B2002801D1BF
:104B2000012052E00020C6F884002120F06701F047
:104B300011FD8146A6F85070A6F85270B068B0F525
:104B4000805F05D13069002802D10024AA4602E026
:104B50002C005FF0000AB6F85200002822D0CDF8F1
:104B600000804B4600228021300000F061FC0028CC
:104B700003D02020F067032027E0002C08D1BAF8EA
:104B80000000C005C00D316808851AF1020A03E073
:104B9000207831680885641CB6F85200401EA6F8DB
:104BA0005200D8E7CDF800804B460022402130006B
:104BB00000F03EFC002803D02020F067032004E032
:104BC0002020F067002000E00220BDE8F68770B5E5
:104BD00005000C001600D5F88000202824D1002CF8
:104BE00003D0300080B2002801D101201DE0002058
:104BF00028662868DFF8901388420ED0286840683D
:104C000000020AD5286850E8000F50F080600100CB
:104C10002A6842E800100028F4D1320092B2210044
:104C2000280000F054FC00E0022070BD2DE9F047A0
:104C300006003068C7693068D0F800803068D0F866
:104C4000089040F60F043C40002C0BD1B80609D563
:104C50005FEA886006D5B06E002802D03000B16EE1
:104C600088478FE1002C00F0AA805FEAC97005D464
:104C7000DFF8080618EA000F00F0A18017F0010025
:104C8000C0B200280BD05FEAC85008D501203168B7
:104C90000862D6F8840050F00100C6F88400B80716
:104CA0000DD519F00100C0B2002808D002203168EB
:104CB0000862D6F8840050F00400C6F88400780733
:104CC0000DD519F00100C0B2002808D004203168C9
:104CD0000862D6F8840050F00200C6F88400380755
:104CE00010D55FEA886004D419F00100C0B2002832
:104CF00008D0082031680862D6F8840050F0080017
:104D0000C6F8840038050CD55FEA481009D54FF481
:104D1000006031680862D6F8840050F02000C6F8C0
:104D20008400D6F88400002848D0B80608D55FEA89
:104D3000886005D5B06E002802D03000B16E88477B
:104D4000D6F88400050030688068400602D415F06B
:104D5000280F2DD0300000F09EFC3068806840069F
:104D600022D53068083050E8000F30F040000100D4
:104D7000306810F1080242E800100028F1D1706F8D
:104D800000280DD0DFF8F804716F8863706F02F0AF
:104D900017F8002812D0706F716F896B88470DE08B
:104DA000300004F0B5FF09E0300004F0B1FF05E089
:104DB000300004F0ADFF0020C6F88400E2E0306E61
:104DC000012840F0BD80F80640F1BA805FEAC86073
:104DD00040F1B68010203168086230688068400673
:104DE0006DD5706F0068D0F804A0504680B20028DE
:104DF00052D05046B6F8581080B288424CD2A6F82D
:104E00005AA0706F00680068800639D4306850E896
:104E1000000F30F480700100326842E80010002872
:104E2000F4D13068083050E8000F4008400001001D
:104E3000306810F1080242E800100028F1D1306813
:104E4000083050E8000F30F040000100306810F1E9
:104E5000080242E800100028F1D12020C6F88000A6
:104E600000203066306850E8000F30F0100001007C
:104E7000326842E800100028F4D1706F01F076FF2C
:104E800002207066B6F85810B6F85A00091A89B2AE
:104E9000300004F01EFF11E05046B6F8581080B202
:104EA00088420BD1706F00680068800606D502202A
:104EB0007066B6F85810300004F00BFF62E0B6F8E8
:104EC0005800B6F85AA0B0EB0A0AB6F85A00002803
:104ED00035D0504680B2002831D0306850E8000FFD
:104EE00030F490700100326842E800100028F4D1DC
:104EF0003068083050E8000F40084000010030687A
:104F000010F1080242E800100028F1D12020C6F874
:104F10008000002030660020B066306850E8000F46
:104F200030F010000100326842E800100028F4D18F
:104F300002207066514689B2300004F0CAFE21E0BA
:104F4000F8020AD55FEA492007D55FF4801031687E
:104F50000862300004F06EFF14E0380609D55FEAFD
:104F6000086006D5F06E002802D03000F16E884748
:104F700008E0780606D55FEA486003D5300000F007
:104F800054FCFFE7BDE8F087008000402DE9F047C2
:104F900004000026DFF8A81920688842FFD0A26824
:104FA0002069024360690243E069024320680368A4
:104FB000DFF89009034013432068036020684368CA
:104FC00033F44053E068034320684360D4F818800A
:104FD0002068884202D0206A50EA08082068806869
:104FE00030F4306058EA0000226890602068DFF8F2
:104FF000482A904216D1DFF8440A006810F00300F6
:10500000002805D0022805D006D3032806D007E0E3
:10501000012760E002275EE004275CE008275AE0F1
:10502000102758E02068DFF8182A904217D1DFF8DF
:105030000C0A006810F00C00002806D0042808D0E4
:10504000082804D00C2806D007E0002743E00227F8
:1050500041E004273FE008273DE010273BE02068BF
:10506000DFF8E029904217D1DFF8D009006810F08E
:105070003000002806D0102808D0202804D030287E
:1050800006D007E0002726E0022724E0042722E0DC
:10509000082720E010271EE0206888421AD1DFF898
:1050A0009C09006810F44060002809D0B0F5806FBA
:1050B0000AD0B0F5006F05D0B0F5406F06D007E01C
:1050C000002708E0022706E0042704E0082702E0A2
:1050D000102700E010272068884246D13800C0B26F
:1050E000002806D0022808D0042809D008280BD0B0
:1050F0000DE005F00FFB81460DE0DFF84C990AE06A
:1051000005F09BFA814606E04FF4004903E05FF0AA
:10511000000901200600B9F1000F00F0A5806168C8
:1051200003204143894505D361684FF480504143D2
:10513000494502D20120060096E04FF48072606873
:1051400040080021E2FB09016268002302F0D2F866
:105150000500B5F5407F05D3B5F5801F02D2206864
:10516000C56081E0012006007EE0E069B0F5004FF7
:1051700041D13800C0B2002808D001280AD0022846
:105180000CD004280DD008280FD011E005F0C2FA89
:10519000814611E005F0CBFA81460DE0DFF8A898D2
:1051A0000AE005F04AFA814606E04FF4004903E0C0
:1051B0005FF0000901200600B9F1000F54D06068CB
:1051C000400810EB49006168B0FBF1F00500102DBC
:1051D0000ED3B5F5803F0BD24FF6F0712940C5F3E1
:1051E000420001438A46504680B22168C8603BE0D5
:1051F0000120060038E03800C0B2002808D001289D
:105200000AD002280CD004280DD008280FD011E0B5
:1052100005F080FA814611E005F089FA81460DE03B
:10522000DFF824980AE005F008FA814606E04FF41A
:10523000004903E05FF0000901200600B9F1000F0A
:1052400012D0606819EB50006168B0FBF1F0050006
:10525000102D07D3B5F5803F04D2280080B2216815
:10526000C86001E0012006000020A0660020E06682
:105270003000C0B2BDE8F08700000000200100044B
:105280001158000890F82410090707D501684A68EA
:1052900032F40042416B0A4301684A6090F82410DE
:1052A000C90707D501684A6832F40032816A0A43A7
:1052B00001684A6090F82410890707D501684A6898
:1052C00032F48032C16A0A4301684A6090F82410BF
:1052D000490707D501684A6832F48022016B0A4306
:1052E00001684A6090F82410C90607D501688A68E9
:1052F00032F48052816B0A4301688A6090F824106E
:10530000890607D501688A6832F40052C16B0A43E6
:1053100001688A6090F82410490613D501684A682C
:1053200032F48012016C0A4301684A60016CB1F5E5
:10533000801F07D101684A6832F4C002416C0A43F9
:1053400001684A6090F82410090607D501684A6888
:1053500032F40022816C0A4301684A60704738B514
:1053600004000020C4F8840001F0F4F8050020686F
:10537000006800071DD57FF07E4000902B000022C2
:105380005FF40011200000F053F8002811D02068CD
:1053900050E8000F30F080000100226842E8001061
:1053A0000028F4D12020E067002084F87800032052
:1053B0003DE02068006840072CD57FF07E400090DB
:1053C0002B0000225FF48001200000F031F800285B
:1053D00020D0206850E8000F30F49070010022685F
:1053E00042E800100028F4D12068083050E8000F8F
:1053F000400840000100206810F1080242E8001057
:105400000028F1D12020C4F88000002084F8780022
:1054100003200CE02020E0672020C4F8800000205A
:10542000206600206066002084F87800002032BDED
:105430002DE9F04105000E0090461F00069C2868EB
:10544000C0693040B04201D1012000E00020414657
:10545000C9B2884238D114F1010FF0D001F07AF8C6
:10546000C01B844201D3002C01D103202DE0286809
:1054700000684007E3D5802EE1D0402EDFD02868B9
:10548000C06900070DD5082029680862280000F0CF
:1054900002F90820C5F88400002085F87800012072
:1054A00013E02868C0690005C9D54FF40060296879
:1054B0000862280000F0EFF82020C5F884000020E2
:1054C00085F87800032000E00020BDE8F08130B4CA
:1054D00003005965A3F85820A3F85A2000209866C5
:1054E0009868B0F5805F0BD11869002804D140F2AC
:1054F000FF10A3F85C0023E0FF20A3F85C001FE08E
:10550000986800280AD11869002803D1FF20A3F861
:105510005C0015E07F20A3F85C0011E09868B0F112
:10552000805F0AD11869002803D17F20A3F85C00AE
:1055300006E03F20A3F85C0002E00020A3F85C0036
:105540000020C3F884002220C3F8800018680830C7
:1055500050E8000F50F001000400186810F1080531
:1055600045E800400028F1D19868B0F5805F06D189
:105570001869002803D10FF2D130986602E00FF2CB
:10558000D5209866186900280BD0186850E8000FDD
:1055900050F4907004001D6845E800400028F4D1E4
:1055A0000AE0186850E8000F50F0200004001D6861
:1055B00045E800400028F4D1002030BC704770B5A9
:1055C00004000D0016006565A4F858600020C4F8BA
:1055D00084002220C4F88000606F002821D00FF2E0
:1055E0001510616FC8620FF2B110616F08630FF29E
:1055F000D110616F48630020616F886333009BB2F4
:10560000626D206810F12401606F01F063FB0028D7
:1056100007D01020C4F884002020C4F880000120A6
:105620002AE0206900280AD0206850E8000F50F4D2
:1056300080700100226842E800100028F4D1206840
:10564000083050E8000F50F001000100206810F110
:10565000080242E800100028F1D12068083050E824
:10566000000F50F040000100206810F1080242E8ED
:1056700000100028F1D1002070BD016851E8001F22
:1056800031F0C0010A00036843E800210029F4D189
:105690002021C1677047016851E8001F31F4907103
:1056A0000A00036843E800210029F4D101680831A9
:1056B00051E8001F490849000A00016811F1080378
:1056C00043E800210029F1D1016E01290AD10168C6
:1056D00051E8001F31F010010A00036843E800217F
:1056E0000029F4D12021C0F880100021016600219A
:1056F0008166704738B50400A56A20680068800696
:105700003AD40020A5F85A00286850E8000F30F479
:10571000807001002A6842E800100028F4D128684F
:10572000083050E8000F400840000100286810F1E0
:10573000080242E800100028F1D12868083050E83B
:10574000000F30F040000100286810F1080242E824
:1057500000100028F1D12020C5F88000286E012813
:105760000AD1286850E8000F30F0100001002A68C4
:1057700042E800100028F4D100206866286E012855
:1057800005D1B5F85810280004F0A3FA02E028006B
:1057900004F084FA31BD000038B50400A56A012088
:1057A0006866286E012807D1B5F85810490889B2F3
:1057B000280004F08EFA02E0280005F03BF831BD25
:1057C000F8B50400A56AEE6FD5F880702868806887
:1057D000000607D5212E05D10020A5F8520028008B
:1057E000FFF74BFF28688068400607D5222F05D1B8
:1057F0000020A5F85A002800FFF74DFFD5F88400D7
:1058000050F01000C5F88400280004F081FAF1BDC2
:1058100038B50400A56A0020A5F85A000020A5F8B4
:105820005200280004F074FA31BD10B5040020685D
:1058300050E8000F30F040000100226842E80010FC
:105840000028F4D12020E0670020E066200004F06A
:10585000F2FF10BD70B50500B5F85C60D5F88000AA
:10586000222866D12868808C040016EA0400696D3D
:105870000870686D401C6865B5F85A00401EA5F8B0
:105880005A00B5F85A00002859D1286850E8000F8E
:1058900030F4907001002A6842E800100028F4D12A
:1058A0002868083050E8000F4008400001002868D0
:1058B00010F1080242E800100028F1D12020C5F8BC
:1058C00080000020A8660020686628681C4988427D
:1058D0000ED02868406800020AD5286850E8000FFA
:1058E00030F0806001002A6842E800100028F4D1FE
:1058F000286E012819D100202866286850E8000F7A
:1059000030F0100001002A6842E800100028F4D1AD
:105910002868C069C00602D5102029680862B5F859
:105920005810280004F0D5F909E0280004F0B6F971
:1059300005E02868008B50F008002968088370BDD6
:1059400000800040F369FFEFF8B50500B5F85C7022
:10595000D5F88000222867D12868808C0400686D03
:10596000060017EA04003080686D801C6865B5F891
:105970005A00401EA5F85A00B5F85A00002859D11F
:10598000286850E8000F30F4907001002A6842E85F
:1059900000100028F4D12868083050E8000F4008B3
:1059A00040000100286810F1080242E800100028B9
:1059B000F1D12020C5F880000020A866002068668C
:1059C0002868224988420ED02868406800020AD51B
:1059D000286850E8000F30F0806001002A6842E833
:1059E00000100028F4D1286E012819D10020286663
:1059F000286850E8000F30F0100001002A6842E8E3
:105A000000100028F4D12868C069C00602D5102013
:105A100029680862B5F85810280004F05AF909E01E
:105A2000280004F03BF905E02868008B50F00800DE
:105A300029680883F1BD0000003801408810024049
:105A400000440040004800400024F4000080004072
:105A500002000020704730B40200DFF8180A00236B
:105A600004688588635583885B1C8380DFF8083A67
:105A70001B7804688588635583885B1C83800120BC
:105A800030BC7047F8B504000D00002000212E0046
:105A900022683300DBB2D25C23683700FFB23B449C
:105AA0005F7857EA02273A0092B2B2F5807F23DA94
:105AB000380080B200281FD0DFF8B8092168320012
:105AC000D2B2895C02688388D1548188491C818064
:105AD00021683200D2B21144497802688388D154D7
