:020000040800F2
:10000000702A002021FB0008FDF20008FFF2000822
:1000100001F3000803F3000805F3000800000000E6
:1000200000000000000000000000000007F30008CE
:1000300009F30008000000000BF300080DF30008AE
:1000400039FE00083DFE000841FE000845FE00089C
:1000500049FE00084DFE000851FE000855FE00084C
:1000600059FE00085DFE000861FE000865FE0008FC
:1000700069FE00081DF300086DFE000827F3000864
:1000800071FE000875FE000879FE00087DFE00087C
:1000900081FE000885FE000889FE00088DFE00082C
:1000A00091FE000895FE000899FE00089DFE0008DC
:1000B000A1FE00080000000000000000A5FE0008EE
:1000C000A9FE0008ADFE0008B1FE0008B5FE00085C
:1000D000B9FE000831F30008BDFE00083BF300083C
:1000E000C1FE000845F30008000000000000000009
:1000F0000000000000000000000000000000000000
:1001000000000000C5FE000800000000C9FE000855
:100110000000000000000000CDFE0008D1FE000835
:10012000D5FE0008D9FE0008DDFE0008E1FE00084B
:10013000E5FE0008000000000000000000000000D4
:10014000E9FE0008EDFE0008F1FE0008F5FE0008DB
:10015000F9FE00084FF3000859F30008FDFE0008FF
:1001600001FF000805FF000809FF0008000000006B
:100170000DFF000811FF000815FF00080000000037
:1001800019FF00081DFF000821FF000801000120E1
:10019000704730B587B004001421002202AD28005A
:1001A00002F0D0F8DFF8E00BD0E90023CDE900231E
:1001B00002A80090DFF8D45B2978684600F057FA6F
:1001C00028786870BDF80410009801F000FADFF894
:1001D000C00B8078042809D12878042803DA28780D
:1001E000401C287001E00020287001E000202870E9
:1001F000DFF8BC5C0221280002F0D7F803212800B8
:1002000002F0E2F82100C9B2280002F0DDF8012076
:1002100007B030BD10B50400DFF8781B88880028CF
:1002200010D0DFF8740B02888B889A4208D1002125
:1002300001800221DFF8780C02F0B7F8012008E015
:10024000898801802100C9B2DFF8640C02F0BCF893
:10025000012010BD2DE9F041040000250026DFF843
:10026000347BB88803283DDB3868B988084410F827
:10027000010C3968BA88114411F8021C51EA0021B6
:100280000E00B988891E386802F0B9F80500280008
:10029000310080B289B288421DD10321DFF8100CF1
:1002A00002F092F83868007807280DD1DFF8DC8A70
:1002B000012198F8010000F0F3F998F80120D7E93E
:1002C000000100F0DDF913E00021DFF8C00A4078FA
:1002D00000F0E6F90CE00021DFF8B00A407800F009
:1002E000DFF905E00021DFF8A40A407800F0D8F932
:1002F000DFF8980A407800F039F80221DFF8B00BF7
:1003000002F074F80120BDE8F0810100DFF8A40BD1
:100310000278032A01D0042202700120704710B530
:1003200004000020DFF8901B08702100C9B2DFF83C
:100330008C0B02F049F8012010BD10B5040021001B
:10034000C9B2DFF8780B02F03FF8012010BD10B5FC
:100350000400DFF86C0B02F033FA2100C9B2DFF8B9
:100360005C0B02F031F8012010BD000038B52DED16
:10037000028B04009FEDBB8A2000C0B202283ED150
:10038000DFF8405B95ED010ABDEEC00A10EE100AE1
:1003900000F09EF885ED010A95ED010A00F002F9E2
:1003A00085ED030A95ED020A00F060F985ED040A77
:1003B00095ED040AD5ED060A30EE200A85ED040A13
:1003C00095ED030AD5ED050A30EE200AB0EE408A1D
:1003D0009FEDA50AB4EE408AF1EE10FA02DBB0EE12
:1003E000000A09E0B5EE408AF1EE10FA02D59FED61
:1003F0009D0A01E0B0EE480A85ED030AFFE7DFF849
:10040000C45A2878002807D10020686095ED010AB9
:1004100000F0C8F885ED030A2878002807D10020ED
:10042000A86095ED020A00F021F985ED030ABDEC04
:10043000028B31BD2DE9F04100242500EDB20A2DDB
:1004400043DA00252E00F6B2092E3CDA2E00F6B271
:1004500001EB860676682F00FFB251F82770BE4286
:100460002FDA00262F00FFB251F82770AC465FFA52
:100470008CFC01EB8C0CDCF804C0AE465FFA8EFEFF
:1004800041F82EC0AC465FFA8CFC01EB8C0CCCF82A
:100490000470AC465FFA8CFC50F82CC0AE465FFA94
:1004A0008EFE00EB8E0EDEF804E0A8465FFA88F8B8
:1004B00040F828E0AE465FFA8EFE00EB8E0ECEF8D6
:1004C00004C06D1CBEE7641CB7E7BDE8F081000006
:1004D00038B52DED028B04009FED628ADFF8E81934
:1004E000087800282AD10120087000210800C0B235
:1004F0000A2815DA0800C0B2DFF8D0290B00DBB2F9
:1005000042F82300DFF8C8290800C0B252F82000E2
:10051000002803D10800C0B242F82040491CE5E79A
:10052000DFF8AC59092300222900DFF8A009FFF702
:1005300081FF95ED050AB8EEC00A30E00020010009
:10054000C9B20A291EDADFF884190200D2B251F8C2
:100550002220092A0BD100220300DBB241F823201C
:10056000DFF86C190200D2B241F8224008E0020024
:10057000D2B251F82220521C0300DBB241F82320F2
:10058000401CDCE7DFF84859092300222900DFF886
:100590003C09FFF74FFF95ED050AB8EEC00ABDEC28
:1005A000028B31BDF0EE400A9FED951A9FED953A12
:1005B000DFED2C3AF5EE400AF1EE10FA40D0F0EE05
:1005C000603A9FED910ADFF80C0990ED004A34EE95
:1005D000634AB4EE404AF1EE10FA08DA90ED004AB0
:1005E00033EEC44AB4EE404AF1EE10FA03DB9FED5D
:1005F000870A21EE001ADFF8E00890ED000AF0EE1D
:10060000401ADFF8D81891ED000A30EE010AB0EE7A
:10061000402A32EE030A82EE000AF0EE402A33EE60
:10062000E10AB0EE614A00EE224A80ED004AB7EEE0
:10063000000A30EE620A20EE020A81ED000A08E0AC
:10064000DFF898085FF07E510160DFF88C08002128
:100650000160DFF88408DFF87C1802680A6090ED1A
:10066000000A70470000000001000040704738B5E4
:1006700004000D002900C9B2200000F01BF831BDB4
:1006800070B504000D00160020000078C0B20728E5
:1006900005D13200D2B22000290000F0B9F870BDB7
:1006A00038B504000D002900C9B22000C0B200F026
:1006B0008BF931BD70B52DED028B84B004000D00B7
:1006C0000421002202AE300001F03CFE9FEDBD8A05
:1006D00000262800C0B200280BD0022835D02BD32A
:1006E000042844D03AD306285ED049D307286FD0D7
:1006F00082E0FE214FF42F7002F034FBB0EE408A0E
:10070000B0EE480A02F01CFC06003000000A8DF82A
:10071000080002A846703100090E81703100090CF2
:10072000C17002A801900220009026231022072108
:10073000200001F0D0FE5FE002200090052303229C
:100740000721200001F079FE56E0042000900123EB
:1007500003220721200001F070FE4DE002200090EE
:10076000052303220721200001F067FE44E0022058
:100770000090242303220721200001F05EFE3BE0CD
:10078000DFF8D80D818804290DD101680191808896
:10079000022190FBF1F080B2009024231022072167
:1007A000200001F098FE27E0DFF8B00D81880229D3
:1007B0000DD1016801918088022190FBF1F080B297
:1007C00000903E2306220721200001F084FE13E062
:1007D000DFF8880D818802290DD101680191808898
:1007E000022190FBF1F080B200903F230622072106
:1007F000200001F070FEFFE704B0BDEC028B70BD7D
:1008000095BFD63317B7D138CDCC4C3E00007A44D3
:100810002DE9F0472DED028B82B004000D0016008B
:100820000020ADF8000000279FED668A3000C0B2BE
:1008300000280FD002281FD00DD3042800F0A68076
:100840006ED3062800F0B580C0F0B380072800F012
:10085000B080B1E0B0E00320ADF8000004226946AA
:10086000200000F081FE0700FE21380002F0BEF9F2
:10087000DFF8EC1C48819FE00320ADF80000042263
:100880006946200000F070FE8046DFF8D89C19F120
:100890000401404602F0D4F804226946200000F02A
:1008A00063FE070019F10801380002F0C9F8DFED16
:1008B000B88ADFF8ACAC99ED020A20EE280ABDEE4A
:1008C000C00A10EE102A12B2DFF8EC0590ED010A12
:1008D00020EE280ABDEEC00A10EE101A09B2BAF8CE
:1008E0000A0000F0FDFAB0EE408A28EE280ABDEEBC
:1008F000C00A10EE100AAAF80000BAF90000002899
:1009000002D50020AAF80000BAF90000642190FB8B
:10091000F1F000EE100AB8EEC00A89ED010A4BE0D2
:100920000320ADF8000004226946200000F01CFE00
:100930000700DFF82C8CFE21380002F057F9A8F8E8
:100940000A00DFED938ADFF81C0C90ED020ABDEE81
:10095000C00A10EE102A12B2DFF85C0590ED010A11
:1009600020EE280ABDEEC00A10EE101A09B2B8F83F
:100970000A0000F0B5FAB0EE408A28EE280ABDEE73
:10098000C00A10EE100AA8F8000015E00320ADF828
:10099000000004226946200000F0E6FD0700DFF8B1
:1009A000C48B98F81E10380002F020F9A8F81C003B
:1009B00002E000F0C7FDFFE702B0BDEC028BBDE82E
:1009C000F0870000000000000200D2B2002A072ACF
:1009D0001DD80A00D2B2012A10D1DFF8E824002382
:1009E0005370012313700200D2B2022A0ED1DFF835
:1009F000EC2C0123D3700123137107E0DFF8C4242A
:100A00005378032B02DA53785B1C5370FFE7DFF84F
:100A1000B4345A78002A12D05A78032A0FDB002205
:100A20001A7000225A6000229A6000229A830022E3
:100A30001A62DFF8A82C0023D370002313717047CB
:100A40003EB50400082100226D46280001F07AFC22
:100A50000025DFF80C0B84806946B0F904201212DF
:100A60002B00DBB2CA546D1C80882A00D2B2885495
:100A70006D1C2A00D2B292B26946DFF8900B02F0E8
:100A8000E7FA37BDDFF8840B0078C0B2FF280FD03B
:100A9000DFF87C1BDFF87C0B0078C0B20002888096
:100AA0008A88DFF8740B0078C0B202438A8003E0C2
:100AB0000120DFF85C1B8880FC20DFF8541B887164
:100AC00070472DE9F04385B004000D0016001F00AB
:100AD000BDF9308014210022E946484601F032FC7D
:100AE0005FF000096846210089B2090A4A46D2B27D
:100AF000815419F101094946C9B2445419F1010957
:100B0000290089B2090A4A46D2B2815419F1010971
:100B10004946C9B2455419F10109310009B2091217
:100B20004A46D2B2815419F101094946C9B2465424
:100B300019F10109390009B209124A46D2B28154A9
:100B400019F101094946C9B2475419F10109414651
:100B500009B209124A46D2B2815419F10109494633
:100B6000C9B200F8018019F10109DFF8F4098481A4
:100B7000C58106824782A0F814804A46D2B292B25A
:100B80006946DFF85C0B02F063FA05B0BDE8F0835C
:100B90000000C842DFF8480B0078C0B2FF2843D0FD
:100BA000DFF86C1ADFF8D40B0078C0B2000288813D
:100BB0008A89DFF8CC0B0078C0B202438A81DFF863
:100BC000C40B0078C0B20002C881CA89DFF8B80B34
:100BD0000078C0B20243CA81DFF8B00B0078C0B21F
:100BE000000208820A8ADFF8A80B0078C0B202432C
:100BF0000A82DFF8A00B0078C0B2000248824A8A5D
:100C0000DFF8940B0078C0B202434A82DFF88C0B05
:100C10000078C0B2000288828A8ADFF8840B0078EC
:100C2000C0B202438A820FE0DFF8E4094FF4C871D2
:100C3000818140F2A141C1817221018240F6EA2105
:100C4000418240F2E921818270472DE9F14F88B05D
:100C50000D0016001F00129CBDF94C80BDF950908C
:100C6000BDF954A01E210022EB46584601F06AFB54
:100C70005FF0000B6846BDF8201089B2090A5A4699
:100C8000D2B281541BF1010BBDF820105A46D2B2EA
:100C900081541BF1010B290009B209125A46D2B244
:100CA00081541BF1010B5946C9B245541BF1010B8C
:100CB000310009B209125A46D2B281541BF1010B1C
:100CC0005946C9B246541BF1010B390009B2091249
:100CD0005A46D2B281541BF1010B5946C9B247544E
:100CE0001BF1010B210089B2090A5A46D2B2815484
:100CF0001BF1010B5946C9B244541BF1010B41468B
:100D000009B209125A46D2B281541BF1010B59465D
:100D1000C9B200F801801BF1010B494609B2091262
:100D20005A46D2B281541BF1010B5946C9B200F8A0
:100D300001901BF1010B514609B209125A46D2B279
:100D400081541BF1010B5946C9B200F801A01BF1F7
:100D5000010BDFF80C08BDF82010C1820583468323
:100D60008783C483A0F82080A0F82290A0F824A054
:100D70005A46D2B292B26946DFF8380A02F068F9F0
:100D800009B0BDE8F08F0000C8FD0008562600201D
:100D9000C8250020F009002054260020DFF8C017E5
:100DA000FE200872DFF80C0A0078C0B2FF2868D075
:100DB000DFF8500A0078C0B20002C882CA8ADFF8A1
:100DC000480A0078C0B20243CA82DFF8400A0078BD
:100DD000C0B2000208830A8BDFF8340A0078C0B280
:100DE00002430A83DFF82C0A0078C0B2000248836D
:100DF0004A8BDFF8240A0078C0B202434A83DFF846
:100E00001C0A0078C0B2000288838A8BDFF8100ABF
:100E10000078C0B202438A83DFF8080A0078C0B2C3
:100E20000002C883CA8BDFF8680A0078C0B20243A8
:100E3000CA83DFF8600A0078C0B2000208840A8C16
:100E4000DFF8540A0078C0B202430A84DFF84C0A83
:100E50000078C0B2000248844A8CDFF8440A007867
:100E6000C0B202434A84DFF83C0A0078C0B20002F4
:100E700088848A8CDFF88C0B0078C0B202438A84A5
:100E800015E040F22B50C8827220088340F6BD2046
:100E9000488340F2BA2088834FF48D60C883702065
:100EA000088440F62830488440F216308884704721
:100EB000A4040020342500206C050020E404002058
:100EC000B825002010250020612600207424002071
:100ED0009C240020302600202C26002074050020B1
:100EE0002DE9F54F81B02DED108B92B00C00002054
:100EF0001090DFF8100A0F9000200E9000200D9047
:100F000000200C9000200B9000200A9000200990F7
:100F10000020ADF800000020ADF812000020019084
:100F2000DFED98FA9FED978A0020ADF81800DFED0D
:100F3000958A9FED949ADFED939A0020ADF810000A
:100F40000020ADF80E000020ADF80C000020ADF838
:100F50000A000020ADF808005FF0000A5FF0000909
:100F60005FF00008200000B2002802D14FF42F707B
:100F700004000321002205AD280001F0E3F9062159
:100F8000002207AD280001F0DDF901208DF81400E2
:100F9000DFF8CC55B5F91400ADF81C0005AB022004
:100FA000587007AEA88B708003209870A88CB08012
:100FB00000200100C9B203294BDA00210A00D2B295
:100FC000022A44DA07AA0F00FFB202EB4702B2F985
:100FD00002200F00FFB236F91770BA4235DA00224C
:100FE0000F00FFB236F917700DF11C0C8E465FFA38
:100FF0008EFE0CEB4E0CBCF802C08E465FFA8EFEE5
:1010000026F81EC00DF11C0C8E465FFA8EFE0CEB0E
:101010004E0CACF802708C465FFA8CFC13F80CC0D6
:101020000DF1140E8B465FFA8BFBDE449EF801E057
:101030008B465FFA8BFB03F80BE00DF1140E8B4629
:101040005FFA8BFBDE448EF801C0491CB6E7401CFA
:10105000AFE7022101222000B6F9027000B2B842C7
:1010600013DAB6F90260200000B2361A27003FB248
:10107000BDF91C003F1ABE4203DA5E789DF8147079
:1010800014E09DF814605F7810E027003FB2B6F9D5
:1010900002003F1AB6F90460200000B2361AB742C7
:1010A00002DA5E789F7801E09E785F783000C0B207
:1010B000012804D033D3032821D010D32FE0E889AE
:1010C000ADF81000B5F91000ADF80E00B5F912003A
:1010D000ADF80C00B5F91400ADF80A001FE0E88A7D
:1010E000ADF81000B5F91800ADF80E00B5F91A000A
:1010F000ADF80C00B5F91C00ADF80A000FE0E88B64
:10110000ADF81000B5F92000ADF80E00B5F92200D9
:10111000ADF80C00B5F92400ADF80A00FFE738007F
:10112000C0B2012804D02AD303281BD00DD326E057
:10113000E889ADF80800B5F910008246B5F912004B
:101140008146B5F91400804619E0E88AADF8080038
:10115000B5F918008246B5F91A008146B5F91C00A8
:1011600080460CE0E88BADF80800B5F92000824617
:10117000B5F922008146B5F924008046FFE79FEDCE
:1011800001AA01E000000000DFED9EAAA979B5F9EF
:10119000040001F0E7FDB0EE40BAFE21BDF9900079
:1011A00001F0E0FDF0EE40BAFE21200000B201F0B7
:1011B000D9FDB0EE40CAB5F80CB0BDF81000ADF8DE
:1011C0001200FE21BDF90E0001F0CCFDF0EE40CA88
:1011D000FE21BDF90C0001F0C5FDB0EE40DAFE21A4
:1011E000BDF90A0001F0BEFDF0EE40DABDF80800DE
:1011F000ADF81800FE21504600B201F0B3FDB0EE8C
:1012000040EAFE21484600B201F0ACFDF0EE40EAB3
:10121000FE21404600B201F0A5FDB0EE40FABDF857
:101220001810584680B2091A00EE101AB8EEC00A1B
:10123000BDF81210584680B2091A00EE901AF8EE66
:10124000E00A80EE200A20EE2C0AB5F904000A21FB
:1012500090FBF1F201FB1200002808D17EEECD0ACE
:10126000B7EE001A00EE8B1A21EE008A2BE0B5F9DA
:1012700004000A2190FBF1F201FB1200012808D1C1
:101280007DEE6E0AB7EE001A00EE8B1A21EE008A90
:1012900019E0B5F904000A2190FBF1F201FB1200FC
:1012A000022808D17DEE6E0AB7EE001A00EE8B1A06
:1012B00080EE018A07E07EEECD0AB7EE001A00EE5E
:1012C0008B1A80EE018ACEEE088A18EE900A01F0A1
:1012D00007FF02000B000020DFF8BC1801F024FF1C
:1012E000CDE900013DEECF0A10EE100A01F0F8FE44
:1012F00002000B00DDE9000101F088FF02F0AAF80E
:1013000000EE900AB0EE681A00EECF1AF0EE411A25
:1013100040EE8C1ABDF88C10584680B2091A00EEC7
:10132000101AB8EEC00ABDF81210584680B2091A59
:1013300002EE101AB8EEC22A80EE020A20EE2C0A43
:10134000B5F904000A2190FBF1F201FB120000281C
:1013500008D13BEECD2AF7EE002A42EE0B2A62EED0
:10136000802A2BE0B5F904000A2190FBF1F201FB81
:101370001200012808D13DEE6B2AF7EE002A42EE5A
:101380000B2A62EE802A19E0B5F904000A2190FBCD
:10139000F1F201FB1200022808D13DEE6B2AF7EEB4
:1013A000002A42EE0B2AC0EE222A07E03BEECD2AAD
:1013B000F7EE002A42EE0B2AC0EE222A21EEA22AE4
:1013C000BDF88C0000280AD0200000B2012806DBFE
:1013D000BDF99000012802DBB0EE420A01E09FED6A
:1013E000090A12B0BDEC108BBDE8F78FDFF8C028FA
:1013F0001070DFF8C02811600122DFF8BC381A70C5
:1014000070470000000000001FB50020DFF8A4189E
:101410000C680321DFF8A0281170DFF89418097810
:10142000002907D0022933D011D3042900F0848089
:1014300058D386E07648B0F914100091B0F9123014
:10144000B0F91020C1894089FFF73BFB79E0704873
:101450009FEDA10ADFF86418D1ED010A60EE800A61
:10146000FDEEE00A10EE901A09B20091DFF8001BC1
:10147000D1ED020A20EE800ABDEEC00A10EE103A4D
:101480001BB2220012B241898089FFF71AFB58E093
:101490005F489FED910AB0F924100391B0F9221032
:1014A0000291B0F920100191C18B0091DFF80C1866
:1014B000D1ED010A60EE800AFDEEE00A10EE903AEE
:1014C0001BB2DFF8AC1AD1ED020A20EE800ABDEEA5
:1014D000C00A10EE102A12B2210009B24089FFF7AB
:1014E000B4FB2EE04A489FED7C0ADFF8D017D1ED1F
:1014F000010A60EE800AFDEEE00A10EE901A09B2D1
:101500000391DFF86C1AD1ED020A20EE800ABDEEDD
:10151000C00A10EE101A09B20291210009B201911D
:1015200041890091B0F91C30B0F91A20B0F91810B7
:10153000C08AFFF78AFB04E0200080B2FFF780FA40
:10154000FFE71FBD80B50320DFF86C17087004218A
:10155000DFF8200A00F04AFF01BD0000640500200A
:10156000C424002010250020F0B4030000200C88C3
:101570001500EDB2042D16D12500ADB21D44AE7894
:101580002500ADB21D44ED7855EA06252600B6B219
:101590009E5D2700BFB21F447F7857EA062757EAAF
:1015A000054738000DE01500EDB2022D09D12500E8
:1015B000ADB25D5D2600B6B21E44767856EA0526C9
:1015C00030000D8855FA82F50D80F0BC704770B57B
:1015D00004000D00DFF8A46901224FF480513000AF
:1015E00002F00BF90A2002F029F94FF47A732A006D
:1015F00092B22100DFF80C0C02F071F900224FF4D6
:101600008051300002F0F9F870BD0000002002089F
:10161000C424002002200208032002082DE9F04122
:101620002DED028B8EB0F0EE408AB0EE608A322152
:1016300000226C46200000F085FE002700240025D3
:10164000DFF82C89C8ED058A88ED068A98ED050A31
:1016500001F076FC060098ED060A01F071FC804668
:1016600068463100090E3A00D2B281547F1C310025
:10167000090C3A00D2B281547F1C3100090A3A00A9
:10168000D2B281547F1C3900C9B246547F1C4146F6
:10169000090E3A00D2B281547F1C4146090C3A002F
:1016A000D2B281547F1C4146090A3A00D2B2815419
:1016B0007F1C3900C9B200F801807F1C3A00D2B209
:1016C00092B26946DFF8B80801F0C2FC0EB0BDEC7A
:1016D000028BBDE8F08100000000C842FC2500201C
:1016E0000028020870B500240025DFF8940800786F
:1016F000C0B2FF283AD0DFF88C080178C9B20906D9
:10170000DFF884080078C0B251EA0041DFF87C08B5
:101710000078C0B251EA0021DFF874080078C0B246
:1017200001430C00DFF86C080178C9B20906DFF844
:1017300068080078C0B251EA0041DFF8600800781C
:10174000C0B251EA0021DFF858080078C0B2014366
:101750000D00DFF81C6816F11401200001F070F98B
:1017600016F11801280001F06BF905E0DFF8000818
:10177000002141610021816170BD00000228020842
:10178000032802080428020805280208062802087F
:101790000728020808280208092802080A2802085F
:1017A0000B280208DFF8C80764218183FE218177B6
:1017B000704700000030020878B591B004000D00B9
:1017C0003C21002202AE300000F0BCFD0020ADF84C
:1017D000040003211A2003F02CFA0B2000900023B0
:1017E000DFF8B82A01A902A801F014F94FF47A73BE
:1017F000BDF8042002A9DFF80C0A02F070F812B05C
:1018000070BD0000023002080330020804300208F4
:1018100005300208063002080730020808300208C6
:10182000093002080A30020878B591B004000D00B2
:101830003C21002202AE300000F084FD0020ADF813
:101840000400DFF83C0701F0D3FBDFF8BC0901F02E
:10185000CFFBDFF8400900210170DFF83C1A8160FE
:10186000DFF8301A41600D2000900023DFF8302AA5
:1018700001A902A801F0CEF84FF47A73BDF8042054
:1018800002A9DFF8800902F02AF812B070BD00004A
:101890000B3002080C3002080D3002080E3002082E
:1018A0000F3002081030020838B590B004000D0067
:1018B00003A8DFF8F019322203F0CEFBDFF8E809C5
:1018C000D0E90023CDE9012303A801900023DFF82C
:1018D000DC09027802A903A801F027F80220009091
:1018E0000023ABA202A903A801F094F84FF47A7385
:1018F000BDF808200199DFF80C0901F0F0FF11B0E4
:1019000030BD00006F12833AF8B504000D000026C8
:101910002068007830283EDB206800783A283ADAE0
:10192000002700200100C9B2A28889B291420FD2DB
:1019300021680200D2B2895C302905DB21680200EF
:10194000D2B2895C3A2900DB02E07F1C401CE9E747
:101950003900C9B2206801F015F90600B6F5807F9C
:101960000FD2DFF8480941783000C0B203F061F9C6
:101970004FF47A73022287A1DFF8880801F0AFFFE5
:1019800012E04FF47A730522DFF82419DFF87408A7
:1019900001F0A5FF08E04FF47A730522DFF8101973
:1019A000DFF8600801F09BFFF1BD38B590B004008E
:1019B0000D0003A8DFF8FC18322203F04DFBDFF81E
:1019C000F808D0E90023CDE9012303A80190002302
:1019D000DFF8D808427802A903A800F0A6FF022089
:1019E000009000236AA202A903A801F013F84FF4A3
:1019F0007A73BDF808200199DFF8080801F06FFF3D
:101A000011B030BD11300208F8B504000D000026F9
:101A10002068007830283DDB206800783A2839DAE1
:101A2000002700200100C9B2A28889B291420FD2DA
:101A300021680200D2B2895C302905DB21680200EE
:101A4000D2B2895C3A2900DB02E07F1C401CE9E746
:101A50003900C9B2206801F095F806000C2E0FD2AB
:101A60003100C9B2DFF84408007803F0E2F84FF41F
:101A70007A73022247A1DFF88C0701F030FF12E0F1
:101A80004FF47A730522DFF82818DFF8780701F0A1
:101A900026FF08E04FF47A730522DFF81418DFF808
:101AA000640701F01CFFF1BD30B59BB004000D00D0
:101AB00002A8DFF80818642203F0DEFADFF8000855
:101AC000D0E90023CDE9002302A80090DFF8F40755
:101AD0008379B0F9042001A902A800F026FF0023B1
:101AE000BDF804200099DFF81C0701F0F8FE1BB0D8
:101AF00030BDF8B505000E000024286800783028B5
:101B00003CDB286800783A2838DA002700200100FA
:101B1000C9B2AA8889B291420FD229680200D2B212
:101B2000895C302905DB29680200D2B2895C3A2938
:101B300000DB02E07F1C401CE9E73900C9B22868DD
:101B400001F020F8040042F2117084420DD2002C02
:101B50000BD0200080B2FEF773FF002302220DA1FC
:101B6000DFF8A00601F0BBFE10E000230522DFF83D
:101B70004017DFF8900601F0B2FE07E000230522CF
:101B8000DFF82C17DFF87C0601F0A9FEF1BD00009C
:101B90000D0A00004F4B00000000F03F70B59CB0F4
:101BA00004000D0003A8DFF82017642203F064FA94
:101BB000DFF81807D0E90023CDE9012303A801903D
:101BC000DFF80067FE23728902A903A800F0ADFECA
:101BD000062000900023DFF8F82602A903A800F0F1
:101BE00019FFFE23B28902A903A800F09EFE072078
:101BF00000900023DFF8DC2602A903A800F00AFF0A
:101C0000FE23F28902A903A800F08FFE05200090B0
:101C10000023DFF8C42602A903A800F0FBFEFE2380
:101C2000B6F9102002A903A800F07FFE062000905C
:101C30000023DFF8A82602A903A800F0EBFEFE238C
:101C4000B6F9122002A903A800F06FFE042000904C
:101C50000023DFF88C2602A903A800F0DBFEFE2398
:101C6000B6F9142002A903A800F05FFE0920009035
:101C70000023DFF8702602A903A800F0CBFEFE23A4
:101C8000B6F9002002A903A800F04FFE032000903F
:101C900000236DA202A903A800F0BCFE0023BDF83A
:101CA00008200199DFF85C0501F019FE1CB070BD39
:101CB0006026002028260020342500206C05002006
:101CC0002DE9FE4F05000E000024002000212A68A7
:101CD00017782A6892F801802A68D278302AC0F2F0
:101CE000A8802868C0783A2880F2A3805FF00009B5
:101CF00003200100C9B2AA8889B2914210D2296892
:101D00000200D2B2895C302905DB29680200D2B218
:101D1000895C3A2900DB03E019F10109401CE8E77E
:101D20004946C9B22868C01C00F02CFF040041F2EB
:101D30008930844274D2002C72D0DFF88805818902
:101D4000ADF80A10C189ADF80810B0F91010ADF85F
:101D50000610B0F91210ADF80410B0F914A05FF03D
:101D6000010B3800C0B25A2807D14046C0B2302813
:101D700003D12000ADF80A0030E03800C0B253288B
:101D800007D14046C0B2302803D12000ADF808008A
:101D900024E03800C0B2432807D14046C0B2302802
:101DA00003D12000ADF8060018E03800C0B2542876
:101DB00007D14046C0B2302803D12000ADF804005E
:101DC0000CE03800C0B2502806D14046C0B23028DE
:101DD00002D12000824601E0002083465846C0B26E
:101DE000012814D1504600B20090BDF90430BDF96D
:101DF0000620BDF80810BDF80A00FEF762FE0023B9
:101E000002225DA1DFF8FC0301F069FD19E0002367
:101E10000522DFF89C14DFF8EC0301F060FD10E010
:101E200000230522DFF88814DFF8D80301F057FDFE
:101E300007E000230522DFF87814DFF8C80301F07B
:101E40004EFDBDE8F78F0000454E440070B59CB0D4
:101E500004000D0003A8DFF89014642203F00CF9CD
:101E6000DFF88804D0E90023CDE9012303A801901D
:101E7000DFF85064FE23F28A02A903A800F055FDA2
:101E8000062000900023DFF8682402A903A800F0D0
:101E9000C1FDFE23B6F9182002A903A800F045FDF4
:101EA000072000900023DFF84C2402A903A800F0CB
:101EB000B1FDFE23B6F91A2002A903A800F035FDF2
:101EC000052000900023DFF8302402A903A800F0C9
:101ED000A1FDFE23B6F91C2002A903A800F025FDF0
:101EE000062000900023DFF8142402A903A800F0C4
:101EF00091FDFE23F28B02A903A800F016FD062037
:101F000000900023DFF8F82302A903A800F082FD67
:101F1000FE23B6F9202002A903A800F006FD072041
:101F200000900023DFF8DC2302A903A800F072FD73
:101F3000FE23B6F9222002A903A800F0F6FC052032
:101F400000900023DFF8C02302A903A800F062FD7F
:101F5000FE23B6F9242002A903A800F0E6FC002322
:101F6000BDF808200199A74801F0B9FC1CB070BD6C
:101F700010250020E40400204F4B0000000800481A
:101F80000008020802080208030802080408020800
:101F900005080208060802080708020808080208DF
:101FA000090802082DE9F84F88B005000E0000244A
:101FB000002000212A6817782A6892F801802A6890
:101FC000D278302AC0F2DD802868C0783A2880F2C2
:101FD000D8805FF0000903200100C9B2AA8889B245
:101FE000914210D229680200D2B2895C302905DB07
:101FF00029680200D2B2895C3A2900DB03E019F1BA
:102000000109401CE8E74946C9B22868C01C00F035
:10201000B9FD040041F28930844280F0AB80002C8D
:1020200000F0A880A748C18AADF81C10B0F91810BC
:10203000ADF81A10B0F91A10ADF81810B0F91C105C
:10204000ADF81610C18BADF81410B0F92010ADF832
:102050001210B0F92210ADF81010B0F924A05FF002
:10206000010B3800C0B2412807D14046C0B2312828
:1020700003D12000ADF81C0054E03800C0B2432862
:1020800007D14046C0B2312803D12000ADF81A0074
:1020900048E03800C0B2542807D14046C0B23128C9
:1020A00003D12000ADF818003CE03800C0B2502841
:1020B00007D14046C0B2312803D12000ADF8160048
:1020C00030E03800C0B2412807D14046C0B23228C3
:1020D00003D12000ADF8140024E03800C0B243283A
:1020E00007D14046C0B2322803D12000ADF812001B
:1020F00018E03800C0B2542807D14046C0B2322898
:1021000003D12000ADF810000CE03800C0B2502818
:1021100006D14046C0B2322802D12000824601E0FA
:10212000002083465846C0B201281CD1504600B258
:102130000390BDF910000290BDF912000190BDF8A6
:1021400014000090BDF91630BDF91820BDF91A1021
:10215000BDF81C00FEF779FD002302224CA129489E
:1021600001F0BDFB13E0002305225149254801F091
:10217000B6FB0CE0002305224D49224801F0AFFBDD
:1021800005E0002305224A491E4801F0A8FB09B0DA
:10219000BDE8F08FE425002080B5FFF7A3FAFFF734
:1021A00001FBFEF7F7FCFEF7F9FDFEF76BFC574865
:1021B0005749C0F8A4135749C0F8B4135649C0F89A
:1021C000C4135649C0F8D4135549C0F8E41355490F
:1021D000C0F8F4135449C0F804145449C0F8141456
:1021E0005349C0F824145349C0F834145249C0F874
:1021F00044145249C0F8541402F091FF02F080FFD9
:1022000001BD00004C1F00200010020870B5002026
:10221000002400252800C0B2092836DA484E2800DC
:10222000C0B200013044407801282CD101200400C4
:102230002800C0B200013044406800280ED002F0EF
:1022400091FF2900C9B2090131444968401A2900A7
:10225000C9B2090131448968884214D30020290099
:10226000C9B209013144487002F07CFF2900C9B2AB
:102270000901314448602800C0B22900C9B20901EF
:102280003144C96888476D1CC4E72000C0B270BDE6
:102290004F4B0000000048420000164494FB000829
:1022A00050F90008DCF40008D0FD0008400A0020C6
:1022B00060FD000810F50008D8FD000838E80008A7
:1022C000E0FD0008C424002014F40008E8FD000824
:1022D00068FD000870FD000878FD000880FD00081A
:1022E00088FD0008A0FB000878F40008F0FD000855
:1022F00090FD000898FD0008A0FD0008A8FD00085A
:10230000B0FD0008B8FD0008C0FD000880050020F1
:10231000B917000829180008A918000809190008A9
:10232000AB190008091A0008A91A0008F31A0008D6
:102330009D1B0008C11C00084D1E0008A51F0008B9
:10234000E404002062F30F2262F31F42401810F0F1
:10235000030308D0C91A1FD3DB0748BF00F8012DBB
:1023600028BF20F8022D130030B41446154610394A
:1023700028BF20E93C00FAD8490728BF20E90C0013
:1023800048BF40F8042D890028BF20F8022D48BF1F
:1023900000F8012D30BC7047C91818BF00F8012D96
:1023A000CB0728BF00F8012D7047020001200B0069
:1023B000DBB21B011344587000200B00DBB21B0181
:1023C000134458600120704738B504000D00012007
:1023D0002900C9B209012144487002F0C3FE290056
:1023E000C9B2090121444860012032BD0200002029
:1023F0000B00DBB21B01134458700120704730B44E
:1024000003004FF6FF7000248C4213DA1A5D50402F
:102410000822002A0CD0C50706D580B2400880F4F7
:10242000204090F0010001E080B24008521EF0E729
:10243000641CE9E780B230BC70472DE9F843050021
:102440000E0017009846089C5FF00009286849466E
:1024500089B2465419F101092868494689B247549E
:1024600019F10109404680B2000A29684A4692B231
:10247000885419F101092868494689B200F8018099
:1024800019F10109200080B2000A29684A4692B277
:10249000885419F101092868494689B2445419F150
:1024A0000109494689B22868FFF7A9FF0100286899
:1024B0004A4692B2815419F10109080080B2000A1B
:1024C0002A684B469BB2D05419F10109A5F8049033
:1024D0000120BDE8F2832DE9F84F06000F00904679
:1024E00099460A9DDDF82CA00024002130682200C6
:1024F00092B28754641C3068220092B200F80280C5
:10250000641C484680B2000A326823009BB2D05453
:10251000641C3068220092B200F80290641C4046AD
:10252000C0B2062802D0102807D01CE0280080B2D4
:10253000012801D0002040E015E0280080B2000A08
:10254000326823009BB2D054641C3068220092B2DF
:102550008554641C2800C0B24000326823009BB23E
:10256000D054641CFFE75FF0000B584680B229008E
:1025700089B2B0EB410F0BDA584680B21AF800006E
:102580003168220092B28854641C1BF1010BECE705
:10259000210089B23068FFF732FF01003068220065
:1025A00092B28154641C080080B2000A3268230091
:1025B0009BB2D054641CB4800120BDE8F28F2DE999
:1025C000F84F05000E00170098460A9CDDF82C9085
:1025D0005FF0000B002029685A4692B28E541BF11E
:1025E000010B29685A4692B28F541BF1010B21004E
:1025F000C9B249002A685B469BB2D1541BF1010B5A
:102600005FF0000A504680B2210089B2B0EB410F62
:102610000CDA504680B219F8000029685A4692B286
:1026200088541BF1010B1AF1010AEBE7594689B2F4
:102630002868FFF7E4FE010028685A4692B28154E8
:102640001BF1010B080080B2000A2A685B469BB2AE
:10265000D0541BF1010BA5F804B00120BDE8F28FA6
:102660002DE9F84F05000E00170098460A9CDDF88A
:102670002C905FF0000B5FF0000A2868594689B281
:1026800046541BF1010B2868594689B247541BF187
:10269000010B404680B2000A29685A4692B288541B
:1026A0001BF1010B2868594689B200F801801BF123
:1026B000010B3800C0B2062802D010281DD02CE033
:1026C000200080B2012801D000203EE00020824698
:1026D000504680B2210089B2B0EB410F0CDA50466F
:1026E00080B219F8000029685A4692B288541BF14A
:1026F000010B1AF1010AEBE70FE0200080B2000A9B
:1027000029685A4692B288541BF1010B2868594631
:1027100089B244541BF1010BFFE7594689B228687E
:10272000FFF76DFE010028685A4692B281541BF1F2
:10273000010B080080B2000A2A685B469BB2D054A5
:102740001BF1010BA5F804B00120BDE8F28F38B5EC
:102750000400002C01D1012031E04CF6CC4021686E
:10276000086045F25550216808606068216848603B
:10277000A0682168886002F0F5FC05002068C06848
:1027800010F0070F0DD002F0EDFC401B41F60201E6
:102790008842F3D32068C06810F0070FEED0032002
:1027A0000DE020680069E168884203D0E068216894
:1027B000086103E04AF6AA2021680860002032BDC3
:1027C00001004AF6AA200A6810600020704730B461
:1027D000002513E050F8042BD30744BFA9F10103EF
:1027E0009A18091F042942F8045BFAD213468C0791
:1027F00044BF15809B1CC90748BF1D7050F8041BBF
:102800000029E7D130BC704701000800C0B20028A1
:1028100001D1012021E00800C0B2FF2801D10A2027
:102820001BE00800C0B2FE2801D1642015E00800BA
:10283000C0B2FD2802D14FF47A700EE00800C0B299
:10284000FC2802D142F2107007E00800C0B2FB2859
:1028500002D1DFF8C00600E0012070472DE9F24FF9
:1028600082469346002000210A260027B046B9463A
:10287000009A1588BBF1000F08D5DBF100042D206C
:102880002A0092B20AF802006D1C00E05C462000AB
:10289000002142464B4602F06BFC002901D1002882
:1028A00008D0A6FB080106FB091107FB08118046AA
:1028B0008946ECE7404649460A22002302F058FCCC
:1028C00006000F00002F01D1002E28D0200000218B
:1028D00032003B0002F04CFC3030290089B20AF88B
:1028E00001006D1CA0465FF00009200000213200AD
:1028F0003B0002F03DFCA6FB002306FB013307FB77
:102900000033B8EB020079EB03010400300039001A
:102910000A22002302F02CFC06000F00D2E70098E8
:1029200005802800C0B2BDE8F28F2DE9FE4F0600F9
:102930000F0090460020ADF8000000200024002188
:102940005FF0000BB7F80090B8F1000F02D5D8F196
:10295000000500E04546424639003000FFF77EFFA3
:10296000B7F800A0002D4FD09DF80800FFF74CFFEE
:1029700001008D4205D20A2045431BF1010B002DB9
:10298000F7D15846C0B2002821D050460200D2B23A
:10299000324412F8012C2D2A06D00200D2B24B4646
:1029A00092B29BB29A4208D130220300DBB2F254B9
:1029B0001AF1010ABBF1010BE3E70200D2B2324483
:1029C00012F8012C0300DBB2F254401EDEE70A20AD
:1029D000B1FBF0F450468346002C15D00A20B4FB1E
:1029E000F0F45846C0B2304410F8010C5946C9B250
:1029F0007054BBF1010B002CEED12E205946C9B208
:102A000070541AF1010AE7E7A7F800A05046C0B2D7
:102A1000BDE8FE8FF0B4049C00252E00B6B2A6429D
:102A20000BD20E88771C0F802F00BFB217FA83F7E6
:102A3000D75DB6B287556D1CEFE7F0BC704700005C
:102A40002DE9F34F81B02DED028B9FED658A0024B7
:102A500001250026F7EE008A00273800C0B22028A2
:102A600064DA0398F84010F0010004003800C0B2A6
:102A7000172829DA18EE900A00F032FB82468B46BE
:102A80002000C0B202F08CFC804689463800C0B2FB
:102A9000D0F117005FF0FF31484302F08FFC41ECAA
:102AA000110B9FED500B02F09EFC51EC100B4246B7
:102AB0004B4602F0A1FC52465B4602F06FFD00F06F
:102AC000C9FC08EE900A2FE03800C0B21F2824DAB3
:102AD0003000C0B202F064FC82468B462000C0B2D7
:102AE00002F05EFC804689463800C0B2173802F01A
:102AF00065FC41EC110B9FED3B0B02F074FC51ECBB
:102B0000100B42464B4602F077FC52465B4602F001
:102B100045FD02F001FE060006E02000C0B20128DB
:102B200002D15FF0FF3005007F1C96E7280040B21D
:102B300002F044FC804689463000C0B27F3802F083
:102B40003DFC41EC110B9FED270B02F04CFC51ECCE
:102B5000100B42464B4602F04FFC8046894618EE69
:102B6000900A00F0BDFA42464B4602F045FC00F0E8
:102B700071FC00EE100A049880ED000ABDEC028B97
:102B8000BDE8F78F70B40300002200240020002568
:102B90002A000E00D2B2F6B2B2421FD22A00D2B23E
:102BA0009A5C302A0ADB2A00D2B29A5C3A2A05DA09
:102BB0002A00D2B29A5C303A140001E000221400DC
:102BC0002A00D2B2002A03D12200D2B2100003E0C0
:102BD0000A22504350FA84F06D1CD9E770BC70474C
:102BE000000000000000000000000040F8B52DEDDE
:102BF000028B82B004000D000020009000269FEDA3
:102C00004E8A0027DFED568A69462000FFF718FF3D
:102C10002800C0B200280AD0FB2836D0FC282BD0D0
:102C2000FD2820D0FE2815D0FF2809D036E09FEDE2
:102C3000420AB0EE408A9FED4A0AF0EE408A2DE04B
:102C40000A2000EE100AB0EE408A9FED3C0AF0EE3A
:102C5000408A23E09FED3A0AB0EE408A9FED390AA0
:102C6000F0EE408A1AE09FED380AB0EE408A9FED00
:102C7000370AF0EE408A11E09FED350AB0EE408A47
:102C80009FED340AF0EE408A08E09FED330AB0EE83
:102C9000408A9FED320AF0EE408AFFE79DED000A80
:102CA000B5EE400AF1EE10FA1BDBB8EE480ADDED96
:102CB000000A20EE200AF2EE040A20EE200ABCEE02
:102CC000C00A10EE100A0A22B0FBF2F102FB110159
:102CD000052923D39DED000A30EE280A8DED000A68
:102CE0001CE0B8EE480ADDED000AF1EE600A20EEC5
:102CF000800AF2EE040A20EE200ABCEEC00A10EEB2
:102D0000100A0A22B0FBF2F102FB1101052905D3DA
:102D10009DED000A30EE680A8DED000AB8EE480A13
:102D2000DDED000A20EE200ABDEEC00A10EE100A0A
:102D300002B0BDEC028BF2BD01000000CDCCCC3D59
:102D4000640000000AD7233CE80300006F12833AB6
:102D50001027000017B7D138A0860100ACC527376F
:102D6000000000002DE9F0412DED028B07000E0060
:102D70009FED678A3000C0B200280BD0FB2800F01E
:102D80009E80FC2877D0FD2851D0FE282CD0FF282B
:102D900007D0B7E000EE107AB8EEC00AB0EE408A75
:102DA000B0E00A2097FBF0F000EE100AB8EEC00A7F
:102DB0005FF00A0810EE100A00F092F904000D000E
:102DC00097FBF8F008FB1078404602F0F7FA524AF9
:102DD000524B02F011FB22002B0002F0DFFB00F04F
:102DE00039FB08EE100A8DE0642097FBF0F000EE4E
:102DF000100AB8EEC00A5FF0640810EE100A00F086
:102E00006FF904000D0097FBF8F008FB10784046BE
:102E100002F0D4FA424A434B02F0EEFA22002B00B1
:102E200002F0BCFB00F016FB08EE100A6AE04FF45B
:102E30007A7097FBF0F000EE100AB8EEC00A4FF47B
:102E40007A7810EE100A00F04BF904000D0097FBA1
:102E5000F8F008FB1078404602F0B0FA324A334BE3
:102E600002F0CAFA22002B0002F098FB00F0F2FAFE
:102E700008EE100A46E042F2107097FBF0F000EE08
:102E8000100AB8EEC00A42F2107810EE100A00F0F4
:102E900027F904000D0097FBF8F008FB1078404676
:102EA00002F08CFA224A234B02F0A6FA22002B00F1
:102EB00002F074FB00F0CEFA08EE100A22E015488A
:102EC00097FBF0F000EE100AB8EEC00ADFF844807D
:102ED00010EE100A00F004F904000D0097FBF8F062
:102EE00008FB1078404602F069FA134A134B02F0CF
:102EF00083FA22002B0002F051FB00F0ABFA08EE3F
:102F0000100AFFE7B0EE480ABDEC028BBDE8F08185
:102F100000000000A08601009A9999999999B93FFB
:102F20007B14AE47E17A843FFCA9F1D24D62503F59
:102F30002D431CEBE2361A3FF168E388B5F8E43E16
:102F400010B42DED010A00206A460023042B07D29D
:102F5000D45C1900C9B2C9008C4020435B1CF5E762
:102F600012BC70472DE9F74F82B000265FF0000ACF
:102F70005FF0000B54465D46002000900127DDF80D
:102F80000C80DDF80890049810F0070F2BD10498FE
:102F9000C008002182468B4602F034FC4FF47A7060
:102FA00002F048FC00200600300080B200215945A4
:102FB00017D801D3504514D2D8E9000104000D0000
:102FC00022002B004946002002F0C4FB0700380015
:102FD000C0B2012805D019F1080918F10808761CBB
:102FE000E2E702F020FC3800C0B205B0BDE8F08F87
:102FF00070B50400012502F005FC06004FF47A705C
:1030000002F018FC3000C0B200280FD1C4F3CC206D
:10301000B0F5807F05D20121C4F3CC2002F076FC0C
:1030200004E00121C4F3CC2002F070FC4FF47A706C
:1030300002F000FC05000548016831F00201016062
:1030400002F0F1FB2800C0B270BD00001420024065
:103050002DE9F041C0B004000D00160000274FF428
:1030600080710022E8464046FFF76CF92000FFF728
:10307000BFFFA5208DF8000030008DF801005FF043
:1030800000084046310080B289B288420AD24046E8
:1030900080B2285C6946424692B21144887018F1A9
:1030A0000108EEE7B61C300080B20821B6B208363F
:1030B000361A90FBF1F001FB0066320092B26946CD
:1030C0002000FFF74FFF002801D0002000E0012082
:1030D00040B0BDE8F0810268531C03601170704776
:1030E000C0F3C75181B1FF2906D0C110400721F0BC
:1030F000E04101F16051704741020CBF40F4E00132
:103100006FF000410020704700F0004100020AD03B
:10311000B0FA80FC00FA0CF001F16051A1EB0C5107
:1031200001EBD0214005704770B44FF0004591EAA3
:10313000030F42F13B826B40841A71EB030603D20A
:10314000001BB141121973414FF4001C1CEB410FDD
:1031500034BF7CEB430442E00C0DA4EB1356352E38
:103160004FDC45EAC323DB0A45EAC121C912B6F1A7
:1031700020050DDD63FA05F6EB4086EA03051242F1
:1031800018BF45F00105C01851F100010CD213E041
:1031900062FA06F5F2405540F3415A40B340F3401D
:1031A0005A408018594107D349085FEA30005FEA66
:1031B000350528BF45F0010501F58011420875F17C
:1031C000004250F1000041EB04514E0016F5001F83
:1031D00070BC38BF70470020090D090570471CEB13
:1031E000410F10D252EA43060BD0BCEB410F05D879
:1031F0000C0DAB43661E342EB6DD02E0AB438018E7
:10320000594170BC704770BC70472E00F0B540F259
:10321000FF7581EA030C0CF0004C15EA11541DBF38
:1032200015EA1357AC42AF42E5E0BC41C1F31301CC
:10323000C3F31303801A994143F4801304D2641E2C
:103240004000494180185941C90241EA5051B1FB3F
:10325000F3F603FB1611A2FB0675D7EBC020A941BC
:1032600002D2761E80185941C90241EA5051B1FB81
:10327000F3FE03FB1E11A2FB0E75D7EBC020A94184
:1032800003D2AEF1010E80185941890241EA9051F2
:10329000760546EA8E2EB1FBF3F603FB1611A2FB70
:1032A0000675D7EB8020A94102D2761E80185941BD
:1032B000C90241EA50514EEA060EB1FBF3F603FB98
:1032C0001611A2FB0675D7EBC020A94102D2761ECB
:1032D00080185941C90241EA5051B1FBF3F703FB91
:1032E0001711A2FB0735D3EBC020A94167F10007F6
:1032F0000CBF004247F0010766F3D5274FEA1E31A5
:10330000B80814F5806412DDBD0775F1004250EB7A
:103310000E5051EB045111F5801F5CBF41EA0C01C6
:10332000F0BD4CF07F6141F0E0410020F0BDBD07F1
:103330006D0840EA0E5041F48011D4F10104B4F15B
:1033400020060ADAC4F120060200E04001FA06F382
:10335000E1401843B24015430EE0342C13DCC6F1B3
:10336000200445EA40056D0820FA06F2154321FACB
:1033700006F0A1400D43002175F1004250F100001C
:1033800051EB0C01F0BD00205FEA0C01F0BDCFB99C
:1033900092185B41B3FA83F704BFB2FA82F6BF1901
:1033A0000B3FB7F120062FBF02FA06F3BB40C7F16F
:1033B000200622FA06F638BF3343BA401CB1E4199E
:1033C000641E33E77F4231F00041B1FA81F404BF5B
:1033D000B0FA80F6A4190B3CB4F120062FBF00FA16
:1033E00006F1A140C4F1200620FA06F638BF3143A9
:1033F000A0403C1B1AE7AC421ABF05EA1357AF4284
:1034000012E050EA41061CBF52EA4306BFE750EA09
:103410004107304661461CBF41EA0551F0BD52EA02
:10342000430C08BFC143F0BD00204FF4001616EB5B
:10343000410F98BF16EB430F08BF16EB410F24BF97
:10344000C14305E016EB430F0CBF61464CEA055142
:10345000F0BD000001F000428B1AA3F16051B1F5FC
:10346000801F0ADBB1F17F6F1FD242EAC102C100A7
:1034700071F1004142EB507070470B15C3F1090325
:10348000212B10D2890241EA905180020128494142
:1034900041F0004121FA03F0C3F12003994071F19A
:1034A000004150417047100070476FF0000013EB6F
:1034B000103F5CBF000E42EAC0507047F8B40300F2
:1034C00000250868E840002800F0D78001260F6832
:1034D00016FA05F007403A00002A00F0CC8008797F
:1034E00010F00300012804D0087910F0030002282E
:1034F0001DD19F685FF0030C2800C0B240001CFA89
:1035000000FC37EA0C07D1F80CC02800C0B240001C
:103510001CFA00FC5CEA07079F605868AE40B043A5
:103520004E68C6F30016AE40304304005C60087974
:1035300010F0030003280ED0DE6803272800C0B275
:1035400040008740BE438F682800C0B240008740DB
:103550003E433400DC60087910F00300022818D1E3
:103560002800C00803EB8000066A0F2715F007004B
:10357000C0B280008740BE430F6915F00700C0B29B
:10358000800087403E4334002800C00803EB8000E1
:1035900004621E6803272800C0B240008740BE4373
:1035A0000F7917F003072800C0B2400087403E4360
:1035B00034001C60486810F4403F5CD095480668B1
:1035C00056F001060660006810F0010000900098B7
:1035D000914F2800800857F820605FF00F0C15F01D
:1035E0000300C0B280001CFA00FC36EA0C06B3F1FE
:1035F000904F01D1002414E08848834201D1012476
:103600000FE08748834201D102240AE085488342C3
:1036100001D1032405E08448834201D1042400E061
:10362000072415F00300C0B2800084402643280020
:10363000800847F820607D4C206890434F68FF0267
:1036400000D5104320607A4E346894434F68BF021F
:1036500000D514433460774E306890434F68BF0301
:1036600000D510433060744E346894434F68FF03B4
:1036700000D5144334606D1C23E7F1BC70472DE97D
:10368000F041030000250800E840002800F0A88071
:10369000012616FA05F008400200002A00F09E807C
:1036A000DFF874C1280080085CF820000F2715F0AF
:1036B000030E5FFA8EFE5FEA8E0E17FA0EFE1EEA0A
:1036C00000000400B3F1904F02D15FF0000E19E04A
:1036D0005248834202D15FF0010E13E0504883420A
:1036E00002D15FF0020E0DE04E48834202D15FF03E
:1036F000030E07E04C48834202D15FF0040E01E064
:103700005FF0070E15F00300C0B280001EFA00FE45
:1037100074452CD14848D0F800E03EEA020EC0F8CB
:1037200000E04448D0F800E03EEA020EC0F800E0B5
:103730003F48D0F800E03EEA020EC0F800E03B4807
:10374000D0F800E03EEA020EC0F800E015F00300F9
:10375000C0B2800017FA00F00400280080085CF86E
:103760002000A043AE465FEA9E0E4CF82E005FF0AC
:10377000030C1868AE465FFA8EFE5FEA4E0E1CFA26
:103780000EFE5EEA000018602800C00803EB800E01
:103790002800C00803EB8000D0F8208015F0070057
:1037A000C0B28000874038EA0707CEF820709868DA
:1037B0002F00FFB27F001CFA07F7B84398605868E3
:1037C000AE4030EA06065E60DE682800C0B2400007
:1037D0001CFA00FC36EA0C0CC3F80CC06D1C52E756
:1037E000BDE8F081020010690B009BB2184201D0C5
:1037F000012000E00020C0B270471300DBB2002BB4
:1038000003D00B009BB2836102E00B009BB283628A
:1038100070470000601002400800014000040048AA
:1038200000080048000C004800100048080401404F
:103830000C040140040401400004014070B5040080
:1038400001F090FC0500260016F1010F02D004489B
:103850000078361801F086FC401BB042FAD370BDE8
:10386000430A002010B50400002C01D1012035E0EE
:10387000A0690028FFD1E06F002805D1002084F85E
:103880007800200002F0EAF82420E0672068006851
:103890004008400021680860606A002802D02000CB
:1038A00000F038FC200000F0B9FA012801D1012015
:1038B00014E02068406830F4904021684860206837
:1038C000806830F02A00216888602068006850F025
:1038D000010021680860200000F089FC10BD2DE97E
:1038E000FC4706000D0017009846F06F202859D1BC
:1038F000002D03D0380080B2002801D1012052E011
:103900000020C6F884002120F06701F02BFC8146DE
:10391000A6F85070A6F85270B068B0F5805F05D177
:103920003069002802D10024AA4602E02C005FF092
:10393000000AB6F85200002822D0CDF800804B468D
:1039400000228021300000F0BBFC002803D02020A2
:10395000F067032027E0002C08D1BAF80000C0056A
:10396000C00D316808851AF1020A03E02078316839
:103970000885641CB6F85200401EA6F85200D8E72D
:10398000CDF800804B4600224021300000F098FC2A
:10399000002803D02020F067032004E02020F067F7
:1039A000002000E00220BDE8F68770B505000C009D
:1039B0001600D5F88000202824D1002C03D0300038
:1039C00080B2002801D101201DE00020286628686F
:1039D000DFF8441488420ED02868406800020AD5F7
:1039E000286850E8000F50F0806001002A6842E823
:1039F00000100028F4D1320092B22100280000F01B
:103A0000AEFC00E0022070BD70B50400E56FD4F894
:103A1000806020688068000624D5212D22D120688E
:103A2000083050E8000F30F080000100206810F1ED
:103A3000080242E800100028F1D1206F00280ED0C3
:103A4000206F02F0A7FA002809D0206F02F074FB63
:103A5000202804D11020C4F8840003202CE020008A
:103A600000F053FD20688068400624D5222E22D124
:103A70002068083050E8000F30F040000100206856
:103A800010F1080242E800100028F1D1606F002810
:103A90000ED0606F02F07EFA002809D0606F02F04D
:103AA0004BFB202804D11020C4F88400032003E03D
:103AB000200000F038FD002070BD2DE9F047060021
:103AC0003068C7693068D0F800803068D0F8089056
:103AD00040F60F043C40002C0BD1B80609D55FEA34
:103AE000886006D5B06E002802D03000B16E8847DD
:103AF0008FE1002C00F0AA805FEAC97005D4DFF8DE
:103B00000C0618EA000F00F0A18017F00100C0B207
:103B100000280BD05FEAC85008D501203168086240
:103B2000D6F8840050F00100C6F88400B8070DD51F
:103B300019F00100C0B2002808D0022031680862E4
:103B4000D6F8840050F00400C6F8840078070DD53C
:103B500019F00100C0B2002808D0042031680862C2
:103B6000D6F8840050F00200C6F88400380710D55B
:103B70005FEA886004D419F00100C0B2002808D0C0
:103B8000082031680862D6F8840050F00800C6F8B2
:103B9000840038050CD55FEA481009D54FF4006061
:103BA00031680862D6F8840050F02000C6F884001E
:103BB000D6F88400002848D0B80608D55FEA8860A7
:103BC00005D5B06E002802D03000B16E8847D6F817
:103BD0008400050030688068400602D415F0280F84
:103BE0002DD0300000F09FFC30688068400622D560
:103BF0003068083050E8000F30F0400001003068B5
:103C000010F1080242E800100028F1D1706F00287E
:103C10000DD0DFF8FC04716F8863706F02F0E4F977
:103C2000002812D0706F716F896B88470DE03000EB
:103C300002F0D6FA09E0300002F0D2FA05E03000D6
:103C400002F0CEFA0020C6F88400E2E0306E0128CF
:103C500040F0BD80F80640F1BA805FEAC86040F1EC
:103C6000B6801020316808623068806840066DD5E3
:103C7000706F0068D0F804A0504680B2002852D07F
:103C80005046B6F8581080B288424CD2A6F85AA0D6
:103C9000706F00680068800639D4306850E8000F03
:103CA00030F480700100326842E800100028F4D13E
:103CB0003068083050E8000F4008400001003068CC
:103CC00010F1080242E800100028F1D130680830F5
:103CD00050E8000F30F040000100306810F1080299
:103CE00042E800100028F1D12020C6F88000002012
:103CF0003066306850E8000F30F010000100326884
:103D000042E800100028F4D1706F02F043F902205D
:103D10007066B6F85810B6F85A00091A89B2300021
:103D200002F040FA11E05046B6F8581080B28842CE
:103D30000BD1706F00680068800606D5022070669F
:103D4000B6F85810300002F02DFA62E0B6F85800CC
:103D5000B6F85AA0B0EB0A0AB6F85A00002835D0D7
:103D6000504680B2002831D0306850E8000F30F45F
:103D700090700100326842E800100028F4D13068E9
:103D8000083050E8000F400840000100306810F192
:103D9000080242E800100028F1D12020C6F8800077
:103DA000002030660020B066306850E8000F30F028
:103DB00010000100326842E800100028F4D102200F
:103DC0007066514689B2300002F0ECF921E0F80249
:103DD0000AD55FEA492007D55FF480103168086290
:103DE000300002F08DFA14E0380609D55FEA086069
:103DF00006D5F06E002802D03000F16E884708E04A
:103E0000780606D55FEA486003D5300000F055FC1F
:103E1000FFE7BDE8F0870000008000402DE9F04793
:103E200004000026DFF8A81920688842FFD0A268A5
:103E30002069024360690243E06902432068036825
:103E4000DFF890090340134320680360206843684B
:103E500033F44053E068034320684360D4F818808B
:103E60002068884202D0206A50EA080820688068EA
:103E700030F4306058EA0000226890602068DFF873
:103E8000482A904216D1DFF8440A006810F0030077
:103E9000002805D0022805D006D3032806D007E065
:103EA000012760E002275EE004275CE008275AE073
:103EB000102758E02068DFF8182A904217D1DFF861
:103EC0000C0A006810F00C00002806D0042808D066
:103ED000082804D00C2806D007E0002743E002277A
:103EE00041E004273FE008273DE010273BE0206841
:103EF000DFF8E029904217D1DFF8D009006810F010
:103F00003000002806D0102808D0202804D03028FF
:103F100006D007E0002726E0022724E0042722E05D
:103F2000082720E010271EE0206888421AD1DFF819
:103F30009C09006810F44060002809D0B0F5806F3B
:103F40000AD0B0F5006F05D0B0F5406F06D007E09D
:103F5000002708E0022706E0042704E0082702E023
:103F6000102700E010272068884246D13800C0B2F0
:103F7000002806D0022808D0042809D008280BD031
:103F80000DE002F02DFE81460DE0DFF84C990AE0CD
:103F900002F0B9FD814606E04FF4004903E05FF00E
:103FA000000901200600B9F1000F00F0A58061684A
:103FB00003204143894505D361684FF48050414354
:103FC000494502D20120060096E04FF480726068F5
:103FD00040080021E2FB09016268002301F0C8F8F3
:103FE0000500B5F5407F05D3B5F5801F02D22068E6
:103FF000C56081E0012006007EE0E069B0F5004F79
:1040000041D13800C0B2002808D001280AD00228C7
:104010000CD004280DD008280FD011E002F0E0FDEC
:10402000814611E002F0E9FD81460DE0DFF8A89835
:104030000AE002F068FD814606E04FF4004903E023
:104040005FF0000901200600B9F1000F54D060684C
:10405000400810EB49006168B0FBF1F00500102D3D
:104060000ED3B5F5803F0BD24FF6F0712940C5F362
:10407000420001438A46504680B22168C8603BE056
:104080000120060038E03800C0B2002808D001281E
:104090000AD002280CD004280DD008280FD011E037
:1040A00002F09EFD814611E002F0A7FD81460DE081
:1040B000DFF824980AE002F026FD814606E04FF47E
:1040C000004903E05FF0000901200600B9F1000F8C
:1040D00012D0606819EB50006168B0FBF1F0050088
:1040E000102D07D3B5F5803F04D2280080B2216897
:1040F000C86001E0012006000020A0660020E06604
:104100003000C0B2BDE8F0870000000020010004CC
:10411000A146000890F82410090707D501684A68ED
:1041200032F40042416B0A4301684A6090F824105F
:10413000C90707D501684A6832F40032816A0A4328
:1041400001684A6090F82410890707D501684A6819
:1041500032F48032C16A0A4301684A6090F8241040
:10416000490707D501684A6832F48022016B0A4387
:1041700001684A6090F82410C90607D501688A686A
:1041800032F48052816B0A4301688A6090F82410EF
:10419000890607D501688A6832F40052C16B0A4368
:1041A00001688A6090F82410490613D501684A68AE
:1041B00032F48012016C0A4301684A60016CB1F567
:1041C000801F07D101684A6832F4C002416C0A437B
:1041D00001684A6090F82410090607D501684A680A
:1041E00032F40022816C0A4301684A60704738B596
:1041F00004000020C4F8840000F0B4FF050020682B
:10420000006800071DD57FF07E4000902B00002243
:104210005FF40011200000F053F8002811D020684E
:1042200050E8000F30F080000100226842E80010E2
:104230000028F4D12020E067002084F878000320D3
:104240003DE02068006840072CD57FF07E4000905C
:104250002B0000225FF48001200000F031F80028DC
:1042600020D0206850E8000F30F4907001002268E0
:1042700042E800100028F4D12068083050E8000F10
:10428000400840000100206810F1080242E80010D8
:104290000028F1D12020C4F88000002084F87800A4
:1042A00003200CE02020E0672020C4F880000020DC
:1042B000206600206066002084F87800002032BD6F
:1042C0002DE9F04105000E0090461F00069C28686D
:1042D000C0693040B04201D1012000E000204146D9
:1042E000C9B2884238D114F1010FF0D000F03AFF82
:1042F000C01B844201D3002C01D103202DE028688B
:1043000000684007E3D5802EE1D0402EDFD028683A
:10431000C06900070DD5082029680862280000F050
:1043200002F90820C5F88400002085F878000120F3
:1043300013E02868C0690005C9D54FF400602968FA
:104340000862280000F0EFF82020C5F88400002063
:1043500085F87800032000E00020BDE8F08130B44B
:1043600003005965A3F85820A3F85A200020986646
:104370009868B0F5805F0BD11869002804D140F22D
:10438000FF10A3F85C0023E0FF20A3F85C001FE00F
:10439000986800280AD11869002803D1FF20A3F8E3
:1043A0005C0015E07F20A3F85C0011E09868B0F194
:1043B000805F0AD11869002803D17F20A3F85C0030
:1043C00006E03F20A3F85C0002E00020A3F85C00B8
:1043D0000020C3F884002220C3F880001868083049
:1043E00050E8000F50F001000400186810F10805B3
:1043F00045E800400028F1D19868B0F5805F06D10B
:104400001869002803D10FF2D130986602E00FF24C
:10441000D5209866186900280BD0186850E8000F5E
:1044200050F4907004001D6845E800400028F4D165
:104430000AE0186850E8000F50F0200004001D68E2
:1044400045E800400028F4D1002030BC704770B52A
:1044500004000D0016006565A4F858600020C4F83B
:1044600084002220C4F88000606F002821D00FF261
:104470001510616FC8620FF2B110616F08630FF21F
:10448000D110616F48630020616F886333009BB275
:10449000626D206810F12401606F01F02FFD00288B
:1044A00007D01020C4F884002020C4F88000012028
:1044B0002AE0206900280AD0206850E8000F50F454
:1044C00080700100226842E800100028F4D12068C2
:1044D000083050E8000F50F001000100206810F192
:1044E000080242E800100028F1D12068083050E8A6
:1044F000000F50F040000100206810F1080242E86F
:1045000000100028F1D1002070BD016851E8001FA3
:1045100031F0C0010A00036843E800210029F4D10A
:104520002021C1677047016851E8001F31F4907184
:104530000A00036843E800210029F4D1016808312A
:1045400051E8001F490849000A00016811F10803F9
:1045500043E800210029F1D1016E01290AD1016847
:1045600051E8001F31F010010A00036843E8002100
:104570000029F4D12021C0F880100021016600211B
:104580008166704738B50400A56A20680068800617
:104590003AD40020A5F85A00286850E8000F30F4FB
:1045A000807001002A6842E800100028F4D12868D1
:1045B000083050E8000F400840000100286810F162
:1045C000080242E800100028F1D12868083050E8BD
:1045D000000F30F040000100286810F1080242E8A6
:1045E00000100028F1D12020C5F88000286E012895
:1045F0000AD1286850E8000F30F0100001002A6846
:1046000042E800100028F4D100206866286E0128D6
:1046100005D1B5F85810280001F0C4FD02E02800CB
:1046200001F0A6FD31BD000038B50400A56A0120E7
:104630006866286E012807D1B5F85810490889B274
:10464000280001F0AFFD02E0280002F059FB31BD67
:10465000F8B50400A56AEE6FD5F880702868806808
:10466000000607D5212E05D10020A5F8520028000C
:10467000FFF74BFF28688068400607D5222F05D139
:104680000020A5F85A002800FFF74DFFD5F8840058
:1046900050F01000C5F88400280001F0A1FDF1BD24
:1046A00038B50400A56A0020A5F85A000020A5F836
:1046B0005200280001F094FD31BD10B504002068BF
:1046C00050E8000F30F040000100226842E800107E
:1046D0000028F4D12020E0670020E066200002F0EE
:1046E00010FB10BD70B50500B5F85C60D5F8800012
:1046F000222866D12868808C040016EA0400696DBF
:104700000870686D401C6865B5F85A00401EA5F831
:104710005A00B5F85A00002859D1286850E8000F0F
:1047200030F4907001002A6842E800100028F4D1AB
:104730002868083050E8000F400840000100286851
:1047400010F1080242E800100028F1D12020C5F83D
:1047500080000020A8660020686628681C498842FE
:104760000ED02868406800020AD5286850E8000F7B
:1047700030F0806001002A6842E800100028F4D17F
:10478000286E012819D100202866286850E8000FFB
:1047900030F0100001002A6842E800100028F4D12F
:1047A0002868C069C00602D5102029680862B5F8DB
:1047B0005810280001F0F6FC09E0280001F0D8FCB0
:1047C00005E02868008B50F008002968088370BD58
:1047D00000800040F369FFEFF8B50500B5F85C70A4
:1047E000D5F88000222867D12868808C0400686D85
:1047F000060017EA04003080686D801C6865B5F813
:104800005A00401EA5F85A00B5F85A00002859D1A0
:10481000286850E8000F30F4907001002A6842E8E0
:1048200000100028F4D12868083050E8000F400834
:1048300040000100286810F1080242E8001000283A
:10484000F1D12020C5F880000020A866002068660D
:104850002868224988420ED02868406800020AD59C
:10486000286850E8000F30F0806001002A6842E8B4
:1048700000100028F4D1286E012819D100202866E4
:10488000286850E8000F30F0100001002A6842E864
:1048900000100028F4D12868C069C00602D5102095
:1048A00029680862B5F85810280001F07BFC09E07F
:1048B000280001F05DFC05E02868008B50F008003E
:1048C00029680883F1BD00000038014088100240CB
:1048D00000440040004800400024F40000800040F4
:1048E00002000020704730B40200DFF838070023D0
:1048F00004688588635583885B1C8380DFF82837CC
:104900001B7804688588635583885B1C838001203D
:1049100030BC7047F8B504000D00002000212E00C7
:1049200022683300DBB2D25C23683700FFB23B441D
:104930005F7857EA02273A0092B2B2F5807F23DA15
:10494000380080B200281FD0DFF8D8062168320076
:10495000D2B2895C02688388D1548188491C8180E5
:1049600021683200D2B21144497802688388D15458
:104970008188491C8180DFF8B00641783800C0B2D8
:1049800000F057F9012000E00020F2BD30B4020031
:10499000DFF89006002304688588635583885B1CD4
:1049A0008380DFF884365B78046885886355838864
:1049B0005B1C8380012030BC7047F8B504000D00FB
:1049C000002000212E0022683300DBB2D25C236875
:1049D0003700FFB23B445F7857EA02273A0092B2B1
:1049E0000B2A1FDADFF83C0621683200D2B2895C5C
:1049F00002688388D1548188491C818021683200F3
:104A0000D2B21144497802688388D1548188491C04
:104A100081803900C9B2DFF81006007800F009F98A
:104A2000012000E00020F2BDF8B504000D000026D2
:104A3000DFF8F80590ED010AFEF782FA0100DFF8D1
:104A4000E4050A00120A03688788DA558288521C36
:104A5000828002688388D1548288521C82800A0036
:104A6000120E03688788DA558288521C82800A00F9
:104A7000120C03688788DA558288521C82800120D4
:104A8000F2BDF8B504000D000026DFF8A00590ED9A
:104A9000020AFEF755FA0100DFF888050A00120A3B
:104AA00003688788DA558288521C8280026883886E
:104AB000D1548288521C82800A00120E03688788B3
:104AC000DA558288521C82800A00120C036887889B
:104AD000DA558288521C82800120F2BDF8B50400AC
:104AE0000D000026DFF8480590ED010AFEF728FAD0
:104AF0000100DFF830050A00120A03688788DA55DA
:104B00008288521C828002688388D1548288521C19
:104B100082800A00120E03688788DA558288521C48
:104B200082800A00120C03688788DA558288521C3A
:104B300082800120F2BD2DE9F84304000D0000261B
:104B4000002000900027A84620684146C9B20844CA
:104B5000817820684246D2B21044C07850EA0120E1
:104B600021684246D2B2895C22684346DBB21A44CD
:104B700092F8019059EA012959EA0049DFF8A404A2
:104B800021684246D2B2895C02688388D154818808
:104B9000491C818021684246D2B21144497802689A
:104BA0008388D1548188491C818021684246D2B2D1
:104BB0001144897802688388D1548188491C818096
:104BC00021684246D2B21144C97802688388D15420
:104BD0008188491C818069464846FDF731FFDFF82E
:104BE000500400994160012101700521DFF844045F
:104BF000FDF7EAFB0120BDE8F28370B504000D006B
:104C0000DFF83464012220213000FEF7F6FD0A208F
:104C1000FEF714FE4FF47A732A0092B22100DFF8F7
:104C20001C04FEF75CFE002220213000FEF7E5FDAB
:104C300070BD7CB504000D00082100226E463000D6
:104C4000FDF780FB0026DFF8E0030470457069463D
:104C500002783300DBB2CA54761C40783200D2B2FC
:104C60008854761C3200D2B292B26946DFF8D00383
:104C7000FEF7EEF973BDDFF8C8030078C0B2FF2875
:104C80000AD0DFF8A403DFF8BC1309780170DFF85D
:104C9000B8130978417005E0DFF88C031A21017020
:104CA0000321417070472DE9F04F87B004000027C1
:104CB0005FF000085FF000090025DFF89023D2E9DB
:104CC0000001CDE902010026DFF88423D2E90001CA
:104CD000CDE90401DFF84CA3504602F05BF8A08850
:104CE0000828C0F29B812068A188084410F8010CB4
:104CF0002168A288114411F8021C51EA0021ADF884
:104D00001810A188891E2068FDF779FBADF81A00FC
:104D1000BDF81A00BDF81810884240F07D81206867
:104D20000078C1490978884240F07681206880780F
:104D30002168CF7857EA002720684078032805D0FB
:104D400006286CD0102800F0C38061E1206800794B
:104D50002168497951EA00210D005FF001084046C1
:104D6000C0B2062836DA5FF01409DFF8E8B2404630
:104D7000C0B209FB00F058444068390089B288424B
:104D800025D1280080B24146C9B209FB01F159443E
:104D9000896888421BDB002100204246D2B209FB11
:104DA00002F25A44D268904701280FD14046C0B25F
:104DB00009FB00F0584480682D1A4046C0B209FB38
:104DC00000F90BEB09008068C71900E002E018F158
:104DD0000108C4E7BAF8040000281FD0BAF804009C
:104DE000022190FBF1F201FB1200002816D1DAF843
:104DF00000000190BAF80400022190FBF1F080B2AB
:104E000000903B009BB203222068017804A8FDF7C4
:104E1000D6FBBDF814100498FFF7EFFEFAE004206B
:104E20000100C9B2A288921E91420EDA21680200E6
:104E3000D2B2895C029ABDF80C30D154BDF80C1086
:104E4000491CADF80C10401CEAE75FF00108404631
:104E5000C0B2062817DA14227E4B4046C0B2504337
:104E600018444068390089B2884209D1002102A85B
:104E7000C4465FFA8CFC02FB0CF21A44126990479C
:104E800018F10108E3E7BAF8040000281FD0BAF8C7
:104E90000400022190FBF1F201FB1200002816D160
:104EA000DAF800000190BAF80400022190FBF1F05A
:104EB00080B200903B009BB206222068017804A8D3
:104EC000FDF7CEFBBDF814100498FFF796FEA1E0A5
:104ED00000200600206800792168497951EA002104
:104EE0000D0007200100C9B2A288921E91420EDA7D
:104EF00021680200D2B2895C029ABDF80C30D1540C
:104F0000BDF80C10491CADF80C10401CEAE7280055
:104F100080B240002168897988424DD1BDF80C00EB
:104F20002168897989B2884246D15FF001084046FC
:104F3000C0B2062840DA5FF01409DFF818B1404625
:104F4000C0B209FB00F058444068390089B2884279
:104F50002FD1280080B24146C9B209FB01F1594462
:104F60008968884225DB310089B202A84246D2B264
:104F700009FB02F25A4412699047012818D14046B1
:104F8000C0B209FB00F058448068400010FA86F671
:104F90004046C0B209FB00F0584480682D1A4046D4
:104FA000C0B209FB00F90BEB09008068C71900E0EB
:104FB00002E018F10108BAE7BAF80400002826D088
:104FC000BAF80400022190FBF1F201FB1200002864
:104FD0001DD1206880782168C97851EA00210F002E
:104FE000DAF800000190BAF80400022190FBF1F019
:104FF00080B200903B009BB210222068017804A888
:10500000FDF72EFBBDF814100498FFF7F6FD01E044
:10501000002004E0012002E0002000E0002007B0B2
:10502000BDE8F08F9C040020400A002010250020DD
:105030006C050020E404002000040048C41E002089
:1050400000000208020002080300020850FD0008E8
:1050500058FD0008F803002062B38B0708D0521EE9
:1050600011F8013B00F8013B00F024808B07F6D1DA
:10507000830740F0208000BF103A07D330B4B1E876
:105080003810103AA0E83810F9D230BC530724BFCA
:10509000B1E80810A0E8081044BF51F8043B40F8FC
:1050A000043BD20724BF31F8022B20F8022B44BF67
:1050B0000B7803707047121F17D35B0009D151F8AA
:1050C000043B20F8023B1B0C121F20F8023BF6D2D7
:1050D0000BE051F8043B00F8013B1B0A20F8023BAF
:1050E0001B0C121F00F8013BF3D238BF121D521ED9
:1050F00024BF11F8013B00F8013BF8D870470000CD
:1051000080B5012215491648FEF74FFC0022012107
:10511000272001F094FF272001F0A6FF01BD704772
:1051200038B504000B480D490A78036885885A553C
:105130008288521C8280828840F2FF139A4201D3F7
:105140000022828001220648FEF72FFC012002493E
:10515000087031BDF009002064260020632600207D
:105160004C1F002001480068704700BF1C2600202B
:10517000BBBBE1B1B2F5803F80F07E80022A1ED930
:105180008C46B1FBF2F102FB11C31B0443EA10434E
:10519000B3FBF2FC02FB1C3380B240EA0343B3FBD7
:1051A000F2F002FB103240EA0C4000237047022A62
:1051B00005D98446B0FBF2F002FB10C270474AB139
:1051C00005D100F0010249085FEA30007047002273
:1051D0000023704701F06EBF0B0002000021002089
:1051E0007047904271EB030CF6D3B3F5803F2FD29A
:1051F000F0B5B3FA83F7B1FA81F4A7F10F0E3D1BB6
:105200005340CEF1200602FA0EF2F3415340B5F1BD
:105210000F0746D80F3C2C444140C4F12006A04063
:10522000F1414140B1FBF3F603FB1611A2FB064529
:10523000001BA94102D2761E8018594180EA010262
:1052400021FA0EF362FA0EF200215A403046F0BD08
:1052500030B4B1FBF3FC03FB1C11A2FB0C45001B9B
:10526000A94103D2ACF1010C8018594130BC02466F
:105270000B46604600217047B2F1807F65D3F0B5E0
:10528000B2FA82F7B1FA81F4C7F10F063D1B22FA98
:1052900006F307F1110EF24120355A40B5F10F0720
:1052A000B8D94140C4F12006A040F1414140B1FBD2
:1052B000F3FC03FB1C11A2FB0C45001BA94103D20C
:1052C000BCF1010C801859410F2F12D30F3FC903B5
:1052D00041EA5041B1FBF3F603FB1611A2FB064570
:1052E000D4EBC030A94102D2761E8018594146EA5B
:1052F000CC3C07B34140C7F12006B840F1414140E2
:10530000B1FBF3F603FB1611A2FB0645001BA941F6
:1053100002D2761E8018594180EA010221FA0EF36A
:10532000C7F1200462FA0EF20CFA07F05A402CFA88
:1053300004F13043F0BD80EA010221FA0EF30021AE
:1053400062FA0EF260465A40F0BD8C46B1FBF2F1B3
:1053500002FB11C31B0243EA1063B3FBF2FC02FB26
:105360001C331B024CEA002043EA1063B3FBF2FC3F
:1053700002FB1C331B024CEA002043EA1063B3FB20
:10538000F2FC02FB1C331B024CEA002043EA1063D0
:10539000B3FBF2FC02FB1C324CEA002000237047F6
:1053A000014648B1B0FA80F18840C91CC1F584615A
:1053B000090501EBD021400570470000C11768B115
:1053C0004840401AB0FA80F29040D21CC907C2F59A
:1053D000846241EA025202EBD0214005704700008E
:1053E00041EC100B01BD80B553EC112B51EC100BAF
:1053F00001F062FEF4E70000B0B581EA030C0CF0A6
:10540000004C40F2FF7515EA11541DBF15EA135701
:10541000AC42AF4239E0E41923EA455343F4801328
:10542000C90241F0004141EA505EC7021100A7FBEA
:10543000020200284FF00000EEFB01204FF00001B7
:10544000E3FB072118BF42F0010240180021494147
:10545000E3FB0E01A4F580640F0302D25200404129
:10546000494154F101046CDD470872F1004250F1EA
:10547000000051EB0451A1F580115CBF41EA0C0121
:10548000B0BD4CEA05510020B0BD05EA1357AC424F
:1054900014BFAF4241E050EA410E1CBF52EA430E36
:1054A00002E061460020B0BD24423C441BD15FEACB
:1054B000070EF6D0090302BF01460020AEF1140E1C
:1054C000B1FA81F7AEEB070401FA07FE0C37C7F11A
:1054D000200100FA07F7C8404EEA000E23EA4553C0
:1054E00043F48013A2E733F00043B3FA83F704BF19
:1054F000B2FA82FE77440B3FE41BB7F1200E2FBFB8
:1055000002FA0EF3BB40C7F1200E22FA0EFE38BF9E
:1055100043EA0E03BA40641C82E750EA410E14BF0E
:1055200052EA430E6FF000014FF4001717EB430FE0
:105530008ABF194617EB410FB5E74CEA0551002029
:10554000B0BDD4F10104B4F120070FDAC4F1200793
:10555000520828BF42F0010210FA07F501FA07F7D6
:10556000E1BF2A43E0403843E1400FE0352C98DCAE
:10557000C7F1200452EA400220FA07F218BF42F0B5
:10558000010231FA07F0A1400A43002172F1004202
:1055900050F1000051EB0C01B0BD000070B44FF0B1
:1055A000004591EA030F7DF5C7AD6B40841A71EB9E
:1055B000030604D26E40001BB141121973414FF42F
:1055C000001C1CEB410F34BF7CEB430683E00C0D49
:1055D000A4EB1356362E00F37C80012E45EAC3233C
:1055E00041DC43EA525312BFD20292025B08240507
:1055F00045EAC12141EA5051D2EBC020994125D45E
:1056000007D1B0FA80F610FA06F162D000202036F9
:1056100008E0B1FA81F6B140C6F1200220FA02F2A8
:105620001143B0404FEAF474B4EB465434F0010631
:105630004FEA74040AD8D6F50016760D04F000443B
:10564000F04061FA06F25040F1404840C00A40EA9A
:10565000415021F0004128BF5FEA500550F10000A1
:1056600044EBD12135E0DB0A45EAC121C90AB6F194
:1056700020050EDD42EA0242120CC5F1200603FAB3
:1056800006F6EB4042EA06056D42984161F10001E1
:105690000DE062FA06F5F240554063FA06FC82EA34
:1056A0000C02F3405A406D42904161EB030111F44A
:1056B000801F05D1641E620502D06D004041494142
:1056C00021F48011430875F1004350F1000041EBD3
:1056D000045170BC70471CEB410F15D223F00043FE
:1056E00052EA43060BD04FEA4C0CBCEB410F04D8F6
:1056F0000C0D661E342EB7DDEBE7801A994150EA97
:10570000410608BF0021E4E708BF1CEB430F28BF98
:105710006FF00001DDE70000C1F30A5340F2FE32F2
:105720009B1A14DDD3F120034FEAE17208DDC902B0
:1057300041EA505141F00040D84080185040704735
:1057400003F2E13010B1D24382F0004070470020F4
:10575000704700002DE9F84F82468B4614001D006B
:105760000026DFF884713878012801D1022047E053
:10577000012038704CF25038404600F05BF881460A
:105780004846C0B2002837D100207860DFF85C01BD
:105790000168490506D5016831F480610160022085
:1057A000387701E000203877BAF1000F07D12200E6
:1057B0002B00584600F071F8012006000FE0BAF106
:1057C000010F02D0BAF1020F09D12100584600F0B2
:1057D00071F8BAF1020F02D15FF480200600404652
:1057E00000F028F88146002E04D0DFF8040101689B
:1057F000B143016000F09FF8002038704846C0B205
:10580000BDE8F28F00203A490A68002A09D53C4ACF
:105810003C4B13603C4B13600968002901D5012102
:105820000800C0B270473248016851F00041016081
:105830000020704770B50400FFF794FC05002D4A66
:105840001068C00309D514F1010FF8D0FFF78AFCE6
:10585000401BA042F3D303201EE0116826480140FC
:10586000002913D0204843680B43436011F0404F98
:1058700005D0224B1E6811F0404006431E60880090
:1058800002D021F040401060012005E01068C00700
:1058900001D501201060002070BD10B414490C68BF
:1058A00054F001040C600260BFF36F8F011D0B60A8
:1058B00010BC704770B4402304000D000C4A1668F9
:1058C00056F480261660EFF3108272B62E682660BA
:1058D000241D2D1D5B1E1E00F6B2002EF6D182F394
:1058E000108870BC70470000540300200020024064
:1058F0001420024010200240FAC302001820024087
:105900000820024023016745AB89EFCD10B4DFF8D2
:105910009820136833F47E73C40014F4FF642343A7
:105920001360136853F002031360136853F4803359
:10593000136010BC7047DFF86800017F0A00D2B224
:10594000012A03D00A00D2B2032A11D1DFF8542071
:10595000136833F400731360136853F40063136027
:10596000136833F400631360136853F40073136017
:105970000A00D2B2022A03D00A00D2B2032A0CD102
:10598000084A136853F480531360136833F4805348
:105990001360136853F4806313600022027770472A
:1059A00054030020002002401420024080B5D44857
:1059B000D44901605FF4E131416000218160002140
:1059C000C160002101610C21416100218161002140
:1059D000016200214162FDF745FF002801D001F07E
:1059E00042FF01BD80B5C848C84901604FF4165157
:1059F0004160002181600021C160002101610C2112
:105A00004161002181610021C16100210162002109
:105A10004162FDF727FF002801D001F024FF01BDFE
:105A200080B5BB48BB4901604FF41651416000216D
:105A300081600021C160002101610C2141610021D0
:105A400081610021C1610021016200214162FDF7F5
:105A500009FF002801D001F006FF01BD38B59EB056
:105A6000040014220021684601F0FFFE602200219C
:105A700006A801F0FAFE2068A249884252D12020EF
:105A800006900020119006A801F0FAFE002801D02F
:105A900001F0E9FEA048016851F0010101600068D1
:105AA00010F00100059005989C48016851F0020132
:105AB0000160006810F00200059005984FF4406006
:105AC0000090022001900020029003200390082003
:105AD000049069469248FDF7F1FC924D9248286087
