:020000040800F2
:10000000802D0020D10F01083507010837070108AE
:10001000390701083B0701083D07010800000000FF
:100020000000000000000000000000003F07010881
:1000300041070108000000004307010845070108C7
:10004000E1130108E5130108E9130108ED130108A4
:10005000F1130108F5130108F9130108FD13010854
:100060000114010805140108091401080D14010800
:100070001114010895070108151401089F070108CC
:10008000191401081D140108211401082514010880
:10009000291401082D140108311401083514010830
:1000A000391401083D1401084114010845140108E0
:1000B0004914010800000000000000004D14010870
:1000C0005114010855140108591401085D14010860
:1000D00061140108A907010865140108B3070108A4
:1000E00069140108BD0701080000000000000000BD
:1000F0000000000000000000000000000000000000
:10010000000000006D1401080000000071140108D7
:1001100000000000000000007514010879140108B7
:100120007D1401088114010885140108891401084F
:100130008D14010800000000000000000000000015
:100140009114010895140108991401089D140108DF
:10015000A1140108C7070108D1070108A514010867
:10016000A9140108AD140108B11401080000000031
:10017000B5140108B9140108BD14010800000000FD
:10018000C1140108C5140108C914010810B5040000
:100190000121DFF85C0D02F0D4FB012010BD30B569
:1001A00087B004001421002202AD280002F0E4FB15
:1001B000DFF8EC0BD0E90023CDE9002302A8009082
:1001C000DFF8E05B2978684600F0FFFA287868706D
:1001D000BDF80410009801F0AEFADFF8CC0B80787F
:1001E000042809D12878042803DA2878401C2870CC
:1001F00001E00020287008E02878022803DA287837
:10020000401C287001E000202870DFF8E45C022127
:10021000280002F087FB0321280002F092FB210056
:10022000C9B2280002F08DFB012007B030BD10B527
:100230000400DFF8781B8888002810D0DFF8700BE6
:1002400002888B889A4208D1002101800221DFF8C0
:10025000A00C02F067FB012008E0898801802100E2
:10026000C9B2DFF88C0C02F06CFB012010BD2DE947
:10027000F041040000250026DFF8307BB888032811
:100280003DDB3868B988084410F8010C3968BA8831
:10029000114411F8021C51EA00210E00B988891E90
:1002A000386802F09CFB05002800310080B289B25A
:1002B00088421DD10721DFF8380C02F042FB386874
:1002C000007801280DD1DFF8DC8A012198F80100BF
:1002D00000F094FA98F80120D7E9000100F07EFAC6
:1002E00013E00021DFF8BC0A407800F087FA0CE048
:1002F0000021DFF8B00A407800F080FA05E0002124
:10030000DFF8A00A407800F079FADFF8980A407820
:1003100000F0BAF80221DFF8D80B02F024FB01202C
:10032000BDE8F0810100DFF8F00C0278032A01D06B
:10033000042202700120704710B504000020DFF88D
:10034000B41B08702100C9B2DFF8A40B02F0F9FA5F
:10035000012010BD10B50400DFF89C0B01780129C5
:1003600036D1DFF8981BC978012931D1DFF8901B0D
:1003700091ED030AD0ED020AB4EE600AF1EE10FA34
:1003800008DA91ED030AD0ED010AB4EE600AF1EE4D
:1003900010FA0ED501224FF400615FF0904002F098
:1003A00082FE01224FF480515FF0904002F07BFE0C
:1003B0001CE000224FF400615FF0904002F073FEF9
:1003C00000224FF480515FF0904002F06CFE0DE08F
:1003D00000224FF400615FF0904002F064FE0022C2
:1003E0004FF480515FF0904002F05DFEDFF8000BAB
:1003F0004FF47A7181662100C9B202F0A2FA01209D
:1004000010BD38B50400DFF8141C087800281FD18F
:1004100001200870DFF8085C01221021280002F09A
:1004200042FE00220821280002F03DFE00220421A5
:10043000DFF8F00B02F037FE4FF4FA60DFF8B01A85
:10044000886702F08BFE03F034F803F023F812E023
:100450000020087001220821DFF8C40B02F023FEFF
:1004600001220421DFF8BC0B02F01DFE4EF66020D5
:10047000DFF87C1A88672100C9B2DFF8740A02F03D
:1004800060FA012032BD000038B52DED028B04006A
:100490009FEDCB8A2000C0B202285AD1DFF8605A03
:1004A00095ED010ADFEDC70A20EE200ABDEEC00A75
:1004B00010EE100A00F0B6F885ED010A95ED010A7C
:1004C00000F01EF985ED030A95ED020A00F07CF9B3
:1004D00085ED040A95ED040AD5ED060A30EE200AF2
:1004E000DFF8440BD0ED020AF4EE400AF1EE10FA08
:1004F00002D5D0ED020A0BE0D0ED030AB4EE600A9B
:10050000F1EE10FA02D5D0ED030A01E0F0EE400A58
:10051000C5ED040AD5ED030A95ED051A30EE818A82
:10052000D0ED000AF4EE480AF1EE10FA02D590ED93
:10053000000A0BE090ED010AB4EE408AF1EE10FAE9
:1005400002D590ED010A01E0B0EE480A85ED030AFC
:10055000FFE7DFF8AC592878002807D10020686051
:1005600095ED010A00F0CCF885ED030A2878002803
:1005700007D10020A86095ED020A00F025F985ED6D
:10058000040ABDEC028B31BD2DE9F04100242500A9
:10059000EDB20A2D43DA00252E00F6B2092E3CDA20
:1005A0002E00F6B201EB860676682F00FFB251F8F6
:1005B0002770BE422FDA00262F00FFB251F82770B5
:1005C000AC465FFA8CFC01EB8C0CDCF804C0AE4648
:1005D0005FFA8EFE41F82EC0AC465FFA8CFC01EB50
:1005E0008C0CCCF80470AC465FFA8CFC50F82CC034
:1005F000AE465FFA8EFE00EB8E0EDEF804E0A846F3
:100600005FFA88F840F828E0AE465FFA8EFE00EB0D
:100610008E0ECEF804C06D1CBEE7641CB7E7BDE8C3
:10062000F081000038B52DED028B04009FED648A47
:10063000DFF8F819087800282AD101200870002175
:100640000800C0B20A2815DA0800C0B2DFF8E029B5
:100650000B00DBB242F82300DFF8D8290800C0B253
:1006600052F82000002803D10800C0B242F8204010
:10067000491CE5E7DFF8BC59092300222900DFF80F
:10068000B009FFF781FF95ED050AB8EEC00A30E02A
:1006900000200100C9B20A291EDADFF8941902000D
:1006A000D2B251F82220092A0BD100220300DBB27A
:1006B00041F82320DFF87C190200D2B241F8224031
:1006C00008E00200D2B251F82220521C0300DBB233
:1006D00041F82320401CDCE7DFF8585909230022A9
:1006E0002900DFF84C09FFF74FFF95ED050AB8EE3A
:1006F000C00ADFED340A80EE200ABDEC028B31BD6A
:10070000F0EE400A9FED951A9FED953ADFED2C3AF9
:10071000F5EE400AF1EE10FA40D0F0EE603A9FEDAF
:10072000910ADFF8140990ED004A34EE634AB4EE02
:10073000404AF1EE10FA08DA90ED004A33EEC44A6E
:10074000B4EE404AF1EE10FA03DB9FED870A21EE8A
:10075000001ADFF8E80890ED000AF0EE401ADFF822
:10076000E01891ED000A30EE010AB0EE402A32EEB8
:10077000030A82EE000AF0EE402A33EEE10AB0EE00
:10078000614A00EE224A80ED004AB7EE000A30EEE0
:10079000620A20EE020A81ED000A08E0DFF8A008F4
:1007A0005FF07E510160DFF8940800210160DFF8FE
:1007B0008C08DFF8841802680A6090ED000A704720
:1007C000000000000000C842704738B504000D006A
:1007D0002900C9B2200000F01BF831BD70B504003B
:1007E0000D00160020000078C0B2012805D13200AB
:1007F000D2B22000290000F0B9F870BD38B504006D
:100800000D002900C9B22000C0B200F08BF931BD43
:1008100070B52DED028B84B004000D000421002280
:1008200002AE300002F0A8F89FEDBD8A0026280035
:10083000C0B200280BD0022835D02BD3042844D0D6
:100840003AD306285ED049D307286FD082E0FE2134
:100850004FF42F7003F0FEF8B0EE408AB0EE480A75
:1008600003F0E6F906003000000A8DF8080002A83F
:1008700046703100090E81703100090CC17002A868
:10088000019002200090262310220121200002F076
:1008900012F95FE0022000900523032201212000CD
:1008A00002F0BBF856E0042000900123032201214E
:1008B000200002F0B2F84DE0022000900523032250
:1008C0000121200002F0A9F844E002200090242336
:1008D00003220121200002F0A0F83BE0DFF8E80D40
:1008E000818804290DD1016801918088022190FB43
:1008F000F1F080B20090242310220121200002F0A8
:10090000DAF827E0DFF8C00D818802290DD10168EF
:1009100001918088022190FBF1F080B200903E238B
:1009200006220121200002F0C6F813E0DFF8980D3E
:10093000818802290DD1016801918088022190FBF4
:10094000F1F080B200903F2306220121200002F046
:10095000B2F8FFE704B0BDEC028B70BD95BFD63393
:1009600017B7D138CDCC4C3E00007A442DE9F04782
:100970002DED028B82B004000D0016000020ADF8B2
:10098000000000279FED668A3000C0B200280FD01B
:1009900002281FD00DD3042800F0A7806FD30628AB
:1009A00000F0B680C0F0B480072800F0B180B2E05B
:1009B000B1E00320ADF8000004226946200000F0F9
:1009C00087FE0700FE21380002F088FFDFF8FC1CDC
:1009D0004881A0E00320ADF8000004226946200011
:1009E00000F076FE8046DFF8189519F104014046C4
:1009F00002F09EFE04226946200000F069FE070016
:100A000019F10801380002F093FEDFEDB68ADFF835
:100A1000BCAC99ED020A20EE280ABDEEC00A10EE29
:100A2000102A12B2DFF8CC0490ED010A20EE280A59
:100A3000BDEEC00A10EE101A09B2BAF80A0000F0B2
:100A400001FBB0EE408A28EE280ABDEEC00A10EE87
:100A5000100AAAF80000BAF90000002802D5002008
:100A6000AAF80000BAF9000000EE100AB8EEC00AB9
:100A7000DFED9C0A80EE200A89ED010A4BE003209D
:100A8000ADF8000004226946200000F021FE0700B6
:100A9000DFF8388CFE21380002F020FFA8F80A00A9
:100AA000DFED908ADFF8580490ED020ABDEEC00A2F
:100AB00010EE102A12B2DFF83C0490ED010A20EE8D
:100AC000280ABDEEC00A10EE101A09B2B8F80A00E2
:100AD00000F0B8FAB0EE408A28EE280ABDEEC00A4F
:100AE00010EE100AA8F8000015E00320ADF8000091
:100AF00004226946200000F0EBFD0700DFF80084C7
:100B000098F81E10380002F0E9FEA8F81C0002E078
:100B100000F0CFFDFFE702B0BDEC028BBDE8F0872F
:100B2000000000000200D2B2002A072A1BD80A00E7
:100B3000D2B2012A0FD1DFF8C8230023537001235A
:100B400013700200D2B2022A0CD1EC4A0123D370F6
:100B50000123137106E0EA4A5378032B02DA537833
:100B60005B1C5370FFE7E64B5A78002A11D05A7885
:100B7000032A0EDB00221A7000225A6000229A60BB
:100B800000229A8300221A62DC4A0023D3700023D9
:100B9000137170473EB50400082100226D462800FD
:100BA00001F0EAFE0025DFF8240B84806946B0F9E5
:100BB000042012122B00DBB2CA546D1C80882A005C
:100BC000D2B288546D1C2A00D2B292B26946DFF8C4
:100BD000A80B03F0B5F837BDDFF89C0B0078C0B266
:100BE000FF280FD0DFF8941BDFF8940B0078C0B219
:100BF000000288808A88DFF88C0B0078C0B202433C
:100C00008A8003E00120DFF8741B8880FC20DFF875
:100C10006C1B887170472DE9F04385B004000D000E
:100C200016001F00BDF9308014210022E946484615
:100C300001F0A2FE5FF000096846210089B2090AAE
:100C40004A46D2B2815419F101094946C9B2445405
:100C500019F10109290089B2090A4A46D2B2815420
:100C600019F101094946C9B2455419F10109310088
:100C700009B209124A46D2B2815419F10109494612
:100C8000C9B2465419F10109390009B209124A469C
:100C9000D2B2815419F101094946C9B2475419F138
:100CA0000109414609B209124A46D2B2815419F1EA
:100CB00001094946C9B200F8018019F10109DFF8BC
:100CC0000C0A8481C58106824782A0F814804A46B6
:100CD000D2B292B26946DFF8700B03F031F805B07A
:100CE000BDE8F0830000C842DFF85C0B0078C0B2BA
:100CF000FF2843D0DFF8841ADFF8500B0078C0B229
:100D0000000288818A89DFF8E00B0078C0B20243D4
:100D10008A81DFF8D80B0078C0B20002C881CA8986
:100D2000DFF8CC0B0078C0B20243CA81DFF8C40BF5
:100D30000078C0B2000208820A8ADFF8BC0B007893
:100D4000C0B202430A82DFF8B40B0078C0B20002DE
:100D500048824A8ADFF8A80B0078C0B202434A8270
:100D6000DFF8A00B0078C0B2000288828A8ADFF820
:100D7000980B0078C0B202438A820FE0DFF8FC09CA
:100D80004FF4C871818140F2A141C1817221018279
:100D900040F6EA21418240F2E92181827047000059
:100DA0006013010868290020C4280020200C0020BE
:100DB000662900202DE9F14F88B00D0016001F00B4
:100DC000129CBDF94C80BDF95090BDF954A01E2174
:100DD0000022EB46584601F0CFFD5FF0000B68465D
:100DE000BDF8201089B2090A5A46D2B281541BF1CB
:100DF000010BBDF820105A46D2B281541BF1010BF1
:100E0000290009B209125A46D2B281541BF1010BD2
:100E10005946C9B245541BF1010B310009B2091200
:100E20005A46D2B281541BF1010B5946C9B24654FD
:100E30001BF1010B390009B209125A46D2B2815492
:100E40001BF1010B5946C9B247541BF1010B21009C
:100E500089B2090A5A46D2B281541BF1010B594694
:100E6000C9B244541BF1010B414609B209125A465A
:100E7000D2B281541BF1010B5946C9B200F801806E
:100E80001BF1010B494609B209125A46D2B28154EC
:100E90001BF1010B5946C9B200F801901BF1010B7F
:100EA000514609B209125A46D2B281541BF1010BC4
:100EB0005946C9B200F801A01BF1010BDFF80C087C
:100EC000BDF82010C182058346838783C483A0F8C0
:100ED0002080A0F82290A0F824A05A46D2B292B264
:100EE0006946DFF8980B02F02BFF09B0BDE8F08FE0
:100EF000140700209C070020F0280020082900206B
:100F00003C280020DFF8C417FE200872DFF86C0BC5
:100F10000078C0B2FF2868D0DFF8640B0078C0B258
:100F20000002C882CA8ADFF85C0B0078C0B20243B4
:100F3000CA82DFF8540B0078C0B2000208830A8B23
:100F4000DFF8480B0078C0B202430A83DFF8400B99
:100F50000078C0B2000248834A8BDFF8380B007873
:100F6000C0B202434A83DFF8300B0078C0B20002FF
:100F700088838A8BDFF8240B0078C0B202438A830F
:100F8000DFF81C0B0078C0B20002C883CA8BDFF800
:100F9000140B0078C0B20243CA83DFF80C0B007850
:100FA000C0B2000208840A8CDFF8000B0078C0B2DF
:100FB00002430A84DFF8F80A0078C0B200024884CD
:100FC0004A8CDFF8540C0078C0B202434A84DFF840
:100FD0004C0C0078C0B2000288848A8CDFF86C0D5B
:100FE0000078C0B202438A8415E040F22B50C882D8
:100FF0007220088340F6BD20488340F2BA208883DF
:101000004FF48D60C8837020088440F628304884EF
:1010100040F21630888470477C000020752900203B
:1010200000040048000C0048D42800207629002045
:10103000A0270020C8270020402900203C290020AC
:10104000A40700202DE9F54F81B02DED108B92B053
:101050000C0000201090DFF8C80B0F9000200E90BD
:1010600000200D9000200C9000200B9000200A9092
:10107000002009900020ADF800000020ADF812001B
:1010800000200190DFED98FA9FED978A0020ADF8DF
:101090001800DFED958A9FED949ADFED939A00207A
:1010A000ADF810000020ADF80E000020ADF80C00E7
:1010B0000020ADF80A000020ADF808005FF0000A3B
:1010C0005FF000095FF00008200000B2002802D1A4
:1010D0004FF42F7004000321002205AD280001F019
:1010E0004BFC0621002207AD280001F045FC012041
:1010F0008DF81400DFF8D455B5F91400ADF81C00D4
:1011000005AB0220587007AEA88B70800320987042
:10111000A88CB08000200100C9B203294BDA00215D
:101120000A00D2B2022A44DA07AA0F00FFB202EB89
:101130004702B2F902200F00FFB236F91770BA4227
:1011400035DA00220F00FFB236F917700DF11C0CD2
:101150008E465FFA8EFE0CEB4E0CBCF802C08E463B
:101160005FFA8EFE26F81EC00DF11C0C8E465FFA4B
:101170008EFE0CEB4E0CACF802708C465FFA8CFCC9
:1011800013F80CC00DF1140E8B465FFA8BFBDE4496
:101190009EF801E08B465FFA8BFB03F80BE00DF144
:1011A000140E8B465FFA8BFBDE448EF801C0491C9F
:1011B000B6E7401CAFE7022101222000B6F9027019
:1011C00000B2B84213DAB6F90260200000B2361A53
:1011D00027003FB2BDF91C003F1ABE4203DA5E7819
:1011E0009DF8147014E09DF814605F7810E02700FB
:1011F0003FB2B6F902003F1AB6F90460200000B20F
:10120000361AB74202DA5E789F7801E09E785F78FE
:101210003000C0B2012804D033D3032821D010D32A
:101220002FE0E889ADF81000B5F91000ADF80E0018
:10123000B5F91200ADF80C00B5F91400ADF80A00CC
:101240001FE0E88AADF81000B5F91800ADF80E00FF
:10125000B5F91A00ADF80C00B5F91C00ADF80A009C
:101260000FE0E88BADF81000B5F92000ADF80E00E6
:10127000B5F92200ADF80C00B5F92400ADF80A006C
:10128000FFE73800C0B2012804D02AD303281BD0BE
:101290000DD326E0E889ADF80800B5F910008246C4
:1012A000B5F912008146B5F91400804619E0E88AC4
:1012B000ADF80800B5F918008246B5F91A00814664
:1012C000B5F91C0080460CE0E88BADF80800B5F9D4
:1012D00020008246B5F922008146B5F924008046F7
:1012E000FFE79FED01AA01E000000000DFED9EAAEC
:1012F000A979B5F9040002F0ADFBB0EE40BAFE21C9
:10130000BDF9900002F0A6FBF0EE40BAFE212000ED
:1013100000B202F09FFBB0EE40CAB5F80CB0BDF8C9
:101320001000ADF81200FE21BDF90E0002F092FB94
:10133000F0EE40CAFE21BDF90C0002F08BFBB0EECE
:1013400040DAFE21BDF90A0002F084FBF0EE40DA3B
:10135000BDF80800ADF81800FE21504600B202F0BA
:1013600079FBB0EE40EAFE21484600B202F072FB83
:10137000F0EE40EAFE21404600B202F06BFBB0EE18
:1013800040FABDF81810584680B2091A00EE101A3B
:10139000B8EEC00ABDF81210584680B2091A00EE25
:1013A000901AF8EEE00A80EE200A20EE2C0AB5F939
:1013B00004000A2190FBF1F201FB1200002808D181
:1013C0007EEECD0AB7EE001A00EE8B1A21EE008AEF
:1013D0002BE0B5F904000A2190FBF1F201FB1200A9
:1013E000012808D17DEE6E0AB7EE001A00EE8B1AC6
:1013F00021EE008A19E0B5F904000A2190FBF1F210
:1014000001FB1200022808D17DEE6E0AB7EE001A29
:1014100000EE8B1A80EE018A07E07EEECD0AB7EE71
:10142000001A00EE8B1A80EE018ACEEE088A18EEC2
:10143000900A02F0CDFC02000B000020DFF8141B24
:1014400002F0EAFCCDE900013DEECF0A10EE100AF1
:1014500002F0BEFC02000B00DDE9000102F04EFDCF
:1014600002F070FE00EE900AB0EE681A00EECF1A9D
:10147000F0EE411A40EE8C1ABDF88C10584680B23E
:10148000091A00EE101AB8EEC00ABDF8121058463C
:1014900080B2091A02EE101AB8EEC22A80EE020AD1
:1014A00020EE2C0AB5F904000A2190FBF1F201FBB1
:1014B0001200002808D13BEECD2AF7EE002A42EEBA
:1014C0000B2A62EE802A2BE0B5F904000A2190FB7A
:1014D000F1F201FB1200012808D13DEE6B2AF7EE74
:1014E000002A42EE0B2A62EE802A19E0B5F90400C8
:1014F0000A2190FBF1F201FB1200022808D13DEE17
:101500006B2AF7EE002A42EE0B2AC0EE222A07E0F1
:101510003BEECD2AF7EE002A42EE0B2AC0EE222A3D
:1015200021EEA22ABDF88C0000280AD0200000B2CB
:10153000012806DBBDF99000012802DBB0EE420A6B
:1015400001E09FED090A12B0BDEC108BBDE8F78FEA
:10155000DFF8F42A1070DFF8F42A11600122DFF8B6
:10156000F03A1A70704700000000000038B584B0EF
:101570000025DFF8D80A04680320DFF8D41A0870C1
:10158000322003F015F8DFF8C00A0078002807D0F1
:10159000022833D011D3042800F0848058D386E089
:1015A0007648B0F914100091B0F91230B0F910205B
:1015B000C1894089FFF72FFB79E070489FEDA10AB0
:1015C000DFF8901AD1ED010A60EE800AFDEEE00A24
:1015D00010EE901A09B20091DFF83C1CD1ED020A1E
:1015E00020EE800ABDEEC00A10EE103A1BB22200B7
:1015F00012B241898089FFF70EFB58E05F489FEDEA
:10160000910AB0F924100391B0F922100291B0F9B7
:1016100020100191C18B0091DFF8381AD1ED010A39
:1016200060EE800AFDEEE00A10EE903A1BB2DFF8A1
:10163000E81BD1ED020A20EE800ABDEEC00A10EED2
:10164000102A12B2210009B24089FFF7B3FB2EE045
:101650004A489FED7C0ADFF8FC19D1ED010A60EEE3
:10166000800AFDEEE00A10EE901A09B20391DFF84D
:10167000A81BD1ED020A20EE800ABDEEC00A10EED2
:10168000101A09B20291210009B201914189009119
:10169000B0F91C30B0F91A20B0F91810C08AFFF761
:1016A00089FB04E0200080B2FFF774FAFFE705B081
:1016B00030BD80B50320DFF8981908700421DFF8E9
:1016C000F00C01F050F901BD94070020F027002034
:1016D000F0B4030000200C881500EDB2042D16D1E3
:1016E0002500ADB21D44AE782500ADB21D44ED78A5
:1016F00055EA06252600B6B29E5D2700BFB21F44FC
:101700007F7857EA062757EA054738000DE01500AD
:10171000EDB2022D09D12500ADB25D5D2600B6B255
:101720001E44767856EA052630000D8855FA82F573
:101730000D80F0BC704770B504000D00DFF8DC6A66
:1017400001224FF48051300001F0ADFC0A2003F07B
:1017500065FB01F097FE4FF47A732A0092B22100E4
:10176000DFF8A40D03F0ABFB00224FF480513000F2
:1017700001F099FC70BD000000200208F027002055
:1017800002200208032002082DE9F0412DED028B12
:101790008EB0F0EE408AB0EE608A322100226C46B4
:1017A000200001F0E9F8002700240025DFF8688A0E
:1017B000C8ED058A88ED068A98ED050A02F038FA28
:1017C000060098ED060A02F033FA804668463100BA
:1017D000090E3A00D2B281547F1C3100090C3A0044
:1017E000D2B281547F1C3100090A3A00D2B281542E
:1017F0007F1C3900C9B246547F1C4146090E3A008D
:10180000D2B281547F1C4146090C3A00D2B28154B5
:101810007F1C4146090A3A00D2B281547F1C39002C
:10182000C9B200F801807F1C3A00D2B292B2694678
:10183000DFF8840B02F084FA0EB0BDEC028BBDE839
:10184000F08100000000C8420028020802280208B7
:1018500070B500240025DFF8600B0078C0B2FF28C7
:101860003AD0DFF8580B0178C9B20906DFF8500BFF
:101870000078C0B251EA0041DFF8480B0078C0B2EE
:1018800051EA0021DFF8400B0078C0B201430C00A0
:10189000DFF8380B0178C9B20906DFF8340B00789D
:1018A000C0B251EA0041DFF82C0B0078C0B251EA17
:1018B0000021DFF8240B0078C0B201430D00DFF8EF
:1018C000586916F11401200001F032FF16F11801D9
:1018D000280001F02DFF05E0DFF83C0900214161FF
:1018E0000021816170BD000003280208042802085D
:1018F0000528020806280208072802080828020806
:10190000092802080A2802080B2802082DE9F047D6
:101910002DED028B8EB00400F0EE408AB0EE608AAE
:10192000322100226D46280001F026F8002500260D
:101930000027DFF8A8AA8AF800408AED028ACAEDDB
:10194000018A9AED020A02F073F980469AED010AC3
:1019500002F06EF9814668469AF800102A00D2B269
:1019600081546D1C4146090E2A00D2B281546D1C6F
:101970004146090C2A00D2B281546D1C4146090A25
:101980002A00D2B281546D1C2900C9B200F801802E
:101990006D1C4946090E2A00D2B281546D1C49467D
:1019A000090C2A00D2B281546D1C4946090A2A004A
:1019B000D2B281546D1C2900C9B200F801906D1C8F
:1019C0002A00D2B292B26946DFF8440B02F0B8F9AD
:1019D0000EB0BDEC028BBDE8F08770B50024002589
:1019E000DFF82C0B0078C0B2FF283DD0DFF8EC699F
:1019F000DFF8200B00783070DFF81C0B0178C9B2DB
:101A00000906DFF8180B0078C0B251EA0041DFF890
:101A1000100B0078C0B251EA0021DFF8080B007803
:101A2000C0B201430C00DFF8000B0178C9B209060F
:101A3000DFF8F80A0078C0B251EA0041DFF8F00A96
:101A40000078C0B251EA0021DFF8E80A0078C0B29D
:101A500001430D0016F10801200001F069FE311D5F
:101A6000280001F065FE08E0DFF870090021017030
:101A70005FF0804181600021416070BD003002084C
:101A80000230020803300208043002080530020860
:101A90000630020807300208083002080930020840
:101AA0000A3002080B3002080C3002080D30020820
:101AB0000E3002082DE9F84F2DED048B8EB0F0EEBC
:101AC000409AB0EE608AF0EE418AB0EE619A32211F
:101AD000002201AC200000F04FFF5FF0000B00205F
:101AE0000090002400250026DFF84CAACAED009AD9
:101AF0008AED018ACAED028A8AED039A9AED000AFC
:101B000002F096F807009AED010A02F091F880467B
:101B10009AED020A02F08CF881469AED030A02F06F
:101B200087F8824601A83900090E5A46D2B281547C
:101B30001BF1010B3900090C5A46D2B281541BF13A
:101B4000010B3900090A5A46D2B281541BF1010B2C
:101B50005946C9B247541BF1010B4146090E5A467A
:101B6000D2B281541BF1010B4146090C5A46D2B244
:101B700081541BF1010B4146090A5A46D2B28154E5
:101B80001BF1010B5946C9B200F801801BF1010B92
:101B90004946090E5A46D2B281541BF1010B4946FF
:101BA000090C5A46D2B281541BF1010B4946090A6D
:101BB0005A46D2B281541BF1010B5946C9B200F802
:101BC00001901BF1010B5146090E5A46D2B28154C5
:101BD0001BF1010B5146090C5A46D2B281541BF13C
:101BE000010B5146090A5A46D2B281541BF1010B2E
:101BF0005946C9B200F801A01BF1010B5A46D2B2F6
:101C000092B201A9DFF82C0B02F09AF80EB0BDECED
:101C1000048BBDE8F18F00000F300208103002087D
:101C20006F12833A2DE9F041002400250026002799
:101C3000DFF8000B0078C0B2FF2871D0DFF8F80A97
:101C40000178C9B20906DFF8F40A0078C0B251EA97
:101C50000041DFF8EC0A0078C0B251EA0021DFF859
:101C6000E40A0078C0B201430C00DFF8DC0A017816
:101C7000C9B20906DFF8D40A0078C0B251EA0041BF
:101C8000DFF8CC0A0078C0B251EA0021DFF8C40ABC
:101C90000078C0B201430D00DFF8BC0A0178C9B278
:101CA0000906DFF82C0B0078C0B251EA0041DFF8DA
:101CB000240B0078C0B251EA0021DFF81C0B007839
:101CC000C0B201430E00DFF8140B0178C9B2090657
:101CD000DFF80C0B0078C0B251EA0041DFF8040BCA
:101CE0000078C0B251EA0021DFF8FC0A0078C0B2E7
:101CF00001430F00DFF840884146200001F018FD45
:101D000018F10401280001F013FD18F1080130005A
:101D100001F00EFD18F10C01380001F009FD0BE097
:101D2000DFF814085FF08041016000214160DFF8B6
:101D3000441B81600021C160BDE8F081DFF8D80458
:101D400064218183FE2181777047000011300208F1
:101D500078B591B004000D003C21002202AE3000A5
:101D600000F00AFE0020ADF804000321022004F078
:101D700065FB0B2000900023DFF8FC2A01A902A8D4
:101D800001F0C0FC4FF47A73BDF8042002A9DFF81B
:101D9000EC0A03F094F812B070BD78B591B004006D
:101DA0000D003C21002202AE300000F0E5FD0020D5
:101DB000ADF80400DFF8000601F092FFDFF85007ED
:101DC00001F08EFFDFF81406002101705FF0804102
:101DD0008160002141600D2000900023DFF8A02ADF
:101DE00001A902A801F08EFC4FF47A73BDF804201B
:101DF00002A9DFF8880A03F062F812B070BD38B5A6
:101E000090B004000D0003A8DFF8781A322204F025
:101E10002BFDDFF8740AD0E90023CDE9012303A8E4
:101E200001900023DFF8640A027802A903A801F0F8
:101E3000F4FB02200090002382A202A903A801F073
:101E400061FC4FF47A73BDF808200199DFF82C0A81
:101E500003F035F811B030BDF8B504000D000026D0
:101E60002068007830283EDB206800783A283ADA8B
:101E7000002700200100C9B2A28889B291420FD286
:101E800021680200D2B2895C302905DB216802009A
:101E9000D2B2895C3A2900DB02E07F1C401CE9E7F2
:101EA0003900C9B2206801F0E5FC0600B6F5807F74
:101EB0000FD2DFF8D80941783000C0B204F0BEFA82
:101EC0004FF47A7302228DA1DFF8B00902F0F7FF18
:101ED00012E04FF47A730522DFF8B419DFF89C0999
:101EE00002F0EDFF08E04FF47A730522DFF8A01945
:101EF000DFF8880902F0E3FFF1BD38B590B00400C7
:101F00000D0003A8DFF88C19322204F0ADFCDFF8D5
:101F10008809D0E90023CDE9012303A8019000231B
:101F2000DFF86809427802A903A801F076FB0220D5
:101F30000090002343A202A903A801F0E3FB4FF4A1
:101F40007A73BDF808200199DFF8300902F0B7FF75
:101F500011B030BD0000F03FF8B504000D000026C0
:101F60002068007830283DDB206800783A2839DA8C
:101F7000002700200100C9B2A28889B291420FD285
:101F800021680200D2B2895C302905DB2168020099
:101F9000D2B2895C3A2900DB02E07F1C401CE9E7F1
:101FA0003900C9B2206801F065FC06000C2E0FD282
:101FB0003100C9B2DFF8D408007804F03FFA4FF4DA
:101FC0007A7302224DA1DFF8B40802F078FF12E024
:101FD0004FF47A730522DFF8B818DFF8A00802F092
:101FE0006EFF08E04FF47A730522DFF8A418DFF8DB
:101FF0008C0802F064FFF1BD30B59BB004000D0009
:1020000002A8DFF89818642204F03EFCDFF890087C
:10201000D0E90023CDE9002302A80090DFF884086E
:102020008379B0F9042001A902A801F0F6FA4FF46F
:102030007A73BDF804200099DFF8400802F03FFFF2
:102040001BB030BD0D0A0000742900203829002083
:102050007C0000209C070020F8B505000E0000243D
:102060002868007830283EDB286800783A283ADA79
:10207000002700200100C9B2AA8889B291420FD27C
:1020800029680200D2B2895C302905DB2968020088
:10209000D2B2895C3A2900DB02E07F1C401CE9E7F0
:1020A0003900C9B2286801F0E5FB040042F2117062
:1020B00084420ED2002C0CD0200080B2FEF76AFDC4
:1020C0004FF47A7302220DA1DFF8B00702F0F7FE99
:1020D00012E04FF47A730522DFF8B417DFF89C079B
:1020E00002F0EDFE08E04FF47A730522DFF8A01746
:1020F000DFF8880702F0E3FEF1BD00004F4B00005F
:1021000078B5B5B004000D0003A8DFF89C17C8220D
:1021100004F0BAFBDFF89407D0E90023CDE90123EE
:1021200003A80190DFF87C67FE23728902A903A847
:1021300001F073FA062000900023DFF8742702A94B
:1021400003A801F0DFFAFE23B28902A903A801F077
:1021500064FA072000900023DFF8582702A903A89B
:1021600001F0D0FAFE23F28902A903A801F055FA82
:10217000052000900023DFF8402702A903A801F002
:10218000C1FAFE23B6F9102002A903A801F045FA0E
:10219000062000900023DFF8242702A903A801F0FD
:1021A000B1FAFE23B6F9122002A903A801F035FA0C
:1021B000042000900023DFF8082702A903A801F0FB
:1021C000A1FAFE23B6F9142002A903A801F025FA0A
:1021D000092000900023DFF8EC2602A903A801F0F3
:1021E00091FAFE23B6F9002002A903A801F015FA1E
:1021F0000320009000236FA202A903A801F082FA35
:102200004FF47A73BDF808200199DFF8700602F0E8
:1022100056FE36B070BD00003C2800200008004883
:102220002DE9FE4F05000E000024002000212A6841
:1022300017782A6892F801802A68D278302AC0F28A
:10224000AB802868C0783A2880F2A6805FF0000949
:1022500003200100C9B2AA8889B2914210D229682C
:102260000200D2B2895C302905DB29680200D2B2B3
:10227000895C3A2900DB03E019F10109401CE8E719
:102280004946C9B22868C01C01F0F4FA040041F2C2
:102290008930844276D2002C74D0DFF80806818918
:1022A000ADF80A10C189ADF80810B0F91010ADF8FA
:1022B0000610B0F91210ADF80410B0F914A05FF0D8
:1022C000010B3800C0B25A2807D14046C0B23028AE
:1022D00003D12000ADF80A0030E03800C0B2532826
:1022E00007D14046C0B2302803D12000ADF8080025
:1022F00024E03800C0B2432807D14046C0B230289D
:1023000003D12000ADF8060018E03800C0B2542810
:1023100007D14046C0B2302803D12000ADF80400F8
:102320000CE03800C0B2502806D14046C0B2302878
:1023300002D12000824601E0002083465846C0B208
:10234000012815D1504600B20090BDF90430BDF906
:102350000620BDF80810BDF80A00FEF75CFC4FF43B
:102360007A73022269A1DFF8140502F0A8FD1CE0CF
:102370004FF47A730522DFF81815DFF8000502F034
:102380009EFD12E04FF47A730522DFF80415DFF8A2
:10239000EC0402F094FD08E04FF47A730522DFF8B4
:1023A000F014DFF8D80402F08AFDBDE8F78F0000D2
:1023B00014070020454E44000008020802080208E5
:1023C00003080208040802080508020806080208B3
:1023D000070802080808020809080208F028002077
:1023E00078B5B5B004000D0003A8DFF8DC14C822EE
:1023F00004F04AFADFF8D404D0E90023CDE9012340
:1024000003A80190DFF89C64FE23F28A02A903A8C6
:1024100001F003F9062000900023DFF8B42402A99C
:1024200003A801F06FF9FE23B6F9182002A903A84A
:1024300001F0F3F8072000900023DFF8982402A9A8
:1024400003A801F05FF9FE23B6F91A2002A903A838
:1024500001F0E3F8052000900023DFF87C2402A9B6
:1024600003A801F04FF9FE23B6F91C2002A903A826
:1024700001F0D3F8062000900023DFF8602402A9C1
:1024800003A801F03FF9FE23F28B02A903A801F093
:10249000C4F8062000900023DFF8442402A903A812
:1024A00001F030F9FE23B6F9202002A903A801F0BB
:1024B000B4F8072000900023DFF8282402A903A81D
:1024C00001F020F9FE23B6F9222002A903A801F0A9
:1024D000A4F8052000900023DFF80C2402A903A82B
:1024E00001F010F9FE23B6F9242002A903A801F097
:1024F00094F84FF47A73BDF808200199DFF87C0353
:1025000002F0DDFC36B070BD482200204F4B0000C9
:10251000001002080210020803100208041002084A
:102520000510020806100208071002080810020829
:10253000091002080A100208D42800202DE9F84FDB
:1025400088B005000E000024002000212A681778BA
:102550002A6892F801802A68D278302AC0F2E08096
:102560002868C0783A2880F2DB805FF000090320F9
:102570000100C9B2AA8889B2914210D2296802002A
:10258000D2B2895C302905DB29680200D2B2895CAD
:102590003A2900DB03E019F10109401CE8E749464C
:1025A000C9B22868C01C01F065F9040041F2893005
:1025B000844280F0AD80002C00F0AA80B948C18A26
:1025C000ADF81C10B0F91810ADF81A10B0F91A10C7
:1025D000ADF81810B0F91C10ADF81610C18BADF89D
:1025E0001410B0F92010ADF81210B0F92210ADF8A7
:1025F0001010B0F924A05FF0010B3800C0B24128E0
:1026000007D14046C0B2312803D12000ADF81C00EC
:1026100054E03800C0B2432807D14046C0B2312848
:1026200003D12000ADF81A0048E03800C0B25428A9
:1026300007D14046C0B2312803D12000ADF81800C0
:102640003CE03800C0B2502807D14046C0B2312823
:1026500003D12000ADF8160030E03800C0B24128A8
:1026600007D14046C0B2322803D12000ADF8140093
:1026700024E03800C0B2432807D14046C0B2322817
:1026800003D12000ADF8120018E03800C0B2542881
:1026900007D14046C0B2322803D12000ADF8100067
:1026A0000CE03800C0B2502806D14046C0B23228F3
:1026B00002D12000824601E0002083465846C0B285
:1026C00001281DD1504600B20390BDF910000290C0
:1026D000BDF912000190BDF814000090BDF916304C
:1026E000BDF91820BDF91A10BDF81C00FEF762FBF9
:1026F0004FF47A7302225EA1604802F0E0FB16E01C
:102700004FF47A73052262495C4802F0D8FB0EE070
:102710004FF47A7305225E49584802F0D0FB06E078
:102720004FF47A7305225A49544802F0C8FB09B0A5
:10273000BDE8F08F002002080220020803200208F2
:1027400004200208052002080620020807200208CB
:1027500008200208092002080A20020880B5FFF7B5
:1027600077F8FFF73AF9FFF75DFAFFF7E7FAFEF7B8
:10277000BBFAFEF7C7FBFEF72FFA5C485C49C0F8CE
:10278000A4135C49C0F8B4135B49C0F8C4135B4997
:10279000C0F8D4135A49C0F8E4135A49C0F8F413E6
:1027A0005949C0F804145949C0F814145849C0F8DC
:1027B00024145849C0F834145749C0F844145749F0
:1027C000C0F8541400F075FE00F064FE01BD000076
:1027D0000B2002080C2002080D2002080E2002081F
:1027E0000F200208102002081120020870B50020F6
:1027F000002400252800C0B2082836DA484E2800F8
:10280000C0B200013044407801282CD101200400DE
:102810002800C0B200013044406800280ED004F007
:1028200077F82900C9B2090131444968401A2900E2
:10283000C9B2090131448968884214D300202900B3
:10284000C9B209013144487004F062F82900C9B2E4
:102850000901314448602800C0B22900C9B2090109
:102860003144C96888476D1CC4E72000C0B270BD00
:102870004F4B00000000A042EC100108382100205E
:10288000000E0108280A010868130108700C0020D6
:10289000F81201085C0A01087013010870FA0008B8
:1028A00078130108F0270020200801088013010890
:1028B0000013010808130108101301081813010878
:1028C00020130108F8100108E8080108881301081E
:1028D00028130108301301083813010840130108B8
:1028E000481301085013010858130108B0070020CD
:1028F000511D00089B1D0008FF1D0008591E0008FF
:10290000FB1E0008591F0008F91F00085920000885
:102910000121000821220008E12300083D250008CC
:1029200014070020020001200B00DBB21B0113443E
:10293000587000200B00DBB21B01134458600120CB
:10294000704738B504000D0001202900C9B2090103
:102950002144487003F0DCFF2900C9B20901214479
:102960004860012032BD020000200B00DBB21B01D9
:10297000134458700120704762F30F2262F31F4224
:10298000401810F0030308D0C91A1FD3DB0748BF53
:1029900000F8012D28BF20F8022D130030B4144692
:1029A0001546103928BF20E93C00FAD8490728BF4E
:1029B00020E90C0048BF40F8042D890028BF20F80A
:1029C000022D48BF00F8012D30BC7047C91818BF50
:1029D00000F8012DCB0728BF00F8012D704730B457
:1029E00003004FF6FF7000248C4213DA1A5D50404A
:1029F0000822002A0CD0C50706D580B2400880F412
:102A0000204090F0010001E080B24008521EF0E743
:102A1000641CE9E780B230BC70472DE9F84305003B
:102A20000E0017009846089C5FF000092868494688
:102A300089B2465419F101092868494689B24754B8
:102A400019F10109404680B2000A29684A4692B24B
:102A5000885419F101092868494689B200F80180B3
:102A600019F10109200080B2000A29684A4692B291
:102A7000885419F101092868494689B2445419F16A
:102A80000109494689B22868FFF7A9FF01002868B3
:102A90004A4692B2815419F10109080080B2000A35
:102AA0002A684B469BB2D05419F10109A5F804904D
:102AB0000120BDE8F2832DE9F84F06000F00904693
:102AC00099460A9DDDF82CA00024002130682200E0
:102AD00092B28754641C3068220092B200F80280DF
:102AE000641C484680B2000A326823009BB2D0546E
:102AF000641C3068220092B200F80290641C4046C8
:102B0000C0B2062802D0102807D01CE0280080B2EE
:102B1000012801D0002040E015E0280080B2000A22
:102B2000326823009BB2D054641C3068220092B2F9
:102B30008554641C2800C0B24000326823009BB258
:102B4000D054641CFFE75FF0000B584680B22900A8
:102B500089B2B0EB410F0BDA584680B21AF8000088
:102B60003168220092B28854641C1BF1010BECE71F
:102B7000210089B23068FFF732FF0100306822007F
:102B800092B28154641C080080B2000A32682300AB
:102B90009BB2D054641CB4800120BDE8F28F2DE9B3
:102BA000F84F05000E00170098460A9CDDF82C909F
:102BB0005FF0000B002029685A4692B28E541BF138
:102BC000010B29685A4692B28F541BF1010B210068
:102BD000C9B249002A685B469BB2D1541BF1010B74
:102BE0005FF0000A504680B2210089B2B0EB410F7D
:102BF0000CDA504680B219F8000029685A4692B2A1
:102C000088541BF1010B1AF1010AEBE7594689B20E
:102C10002868FFF7E4FE010028685A4692B2815402
:102C20001BF1010B080080B2000A2A685B469BB2C8
:102C3000D0541BF1010BA5F804B00120BDE8F28FC0
:102C40002DE9F84F05000E00170098460A9CDDF8A4
:102C50002C905FF0000B5FF0000A2868594689B29B
:102C600046541BF1010B2868594689B247541BF1A1
:102C7000010B404680B2000A29685A4692B2885435
:102C80001BF1010B2868594689B200F801801BF13D
:102C9000010B3800C0B2062802D010281DD02CE04D
:102CA000200080B2012801D000203EE000208246B2
:102CB000504680B2210089B2B0EB410F0CDA504689
:102CC00080B219F8000029685A4692B288541BF164
:102CD000010B1AF1010AEBE70FE0200080B2000AB5
:102CE00029685A4692B288541BF1010B286859464C
:102CF00089B244541BF1010BFFE7594689B2286899
:102D0000FFF76DFE010028685A4692B281541BF10C
:102D1000010B080080B2000A2A685B469BB2D054BF
:102D20001BF1010BA5F804B00120BDE8F28F30B40F
:102D3000002513E050F8042BD30744BFA9F1010389
:102D40009A18091F042942F8045BFAD213468C072B
:102D500044BF15809B1CC90748BF1D7050F8041B59
:102D60000029E7D130BC7047F8B40300002508689B
:102D7000E840002800F0D78001260F6816FA05F019
:102D800007403A00002A00F0CC80087910F00300D8
:102D9000012804D0087910F0030002281DD19F6893
:102DA0005FF0030C2800C0B240001CFA00FC37EAB8
:102DB0000C07D1F80CC02800C0B240001CFA00FC7F
:102DC0005CEA07079F605868AE40B0434E68C6F3A0
:102DD0000016AE40304304005C60087910F0030038
:102DE00003280ED0DE6803272800C0B240008740C9
:102DF000BE438F682800C0B2400087403E43340085
:102E0000DC60087910F00300022818D12800C008FF
:102E100003EB8000066A0F2715F00700C0B28000A0
:102E20008740BE430F6915F00700C0B2800087409D
:102E30003E4334002800C00803EB800004621E6893
:102E400003272800C0B240008740BE430F7917F027
:102E500003072800C0B2400087403E4334001C6096
:102E6000486810F4403F5CD09548066856F001066B
:102E70000660006810F0010000900098914F280053
:102E8000800857F820605FF00F0C15F00300C0B207
:102E900080001CFA00FC36EA0C06B3F1904F01D119
:102EA000002414E08848834201D101240FE08748C0
:102EB000834201D102240AE08548834201D10324E0
:102EC00005E08448834201D1042400E0072415F082
:102ED0000300C0B28000844026432800800847F8E1
:102EE00020607D4C206890434F68FF0200D510435E
:102EF00020607A4E346894434F68BF0200D5144373
:102F00003460774E306890434F68BF0300D510435C
:102F10003060744E346894434F68FF0300D5144307
:102F200034606D1C23E7F1BC70472DE9F0410300CC
:102F300000250800E840002800F0A880012616FAC5
:102F400005F008400200002A00F09E80DFF874C1FE
:102F5000280080085CF820000F2715F0030E5FFAA8
:102F60008EFE5FEA8E0E17FA0EFE1EEA00000400C7
:102F7000B3F1904F02D15FF0000E19E05248834246
:102F800002D15FF0010E13E05048834202D15FF09E
:102F9000020E0DE04E48834202D15FF0030E07E0BF
:102FA0004C48834202D15FF0040E01E05FF0070E4F
:102FB00015F00300C0B280001EFA00FE74452CD14B
:102FC0004848D0F800E03EEA020EC0F800E044486D
:102FD000D0F800E03EEA020EC0F800E03F48D0F82A
:102FE00000E03EEA020EC0F800E03B48D0F800E006
:102FF0003EEA020EC0F800E015F00300C0B2800007
:1030000017FA00F00400280080085CF82000A043B4
:10301000AE465FEA9E0E4CF82E005FF0030C186877
:10302000AE465FFA8EFE5FEA4E0E1CFA0EFE5EEAB8
:10303000000018602800C00803EB800E2800C008BC
:1030400003EB8000D0F8208015F00700C0B28000AC
:10305000874038EA0707CEF8207098682F00FFB243
:103060007F001CFA07F7B84398605868AE4030EA12
:1030700006065E60DE682800C0B240001CFA00FC54
:1030800036EA0C0CC3F80CC06D1C52E7BDE8F081A9
:10309000020010690B009BB2184201D0012000E031
:1030A0000020C0B270471300DBB2002B03D00B002E
:1030B0009BB2836102E00B009BB283627047000009
:1030C0006010024008000140000400480008004869
:1030D000000C004800100048080401400C040140A6
:1030E000040401400004014080B5D448D449016083
:1030F0005FF4E1314160002181600021C160002165
:1031000001610C21416100218161002101620021E6
:10311000416201F097FE002801D003F05EFC01BD82
:1031200080B5C848C84901604FF41651416000217C
:1031300081600021C160002101610C2141610021F9
:1031400081610021C161002101620021416201F021
:1031500079FE002801D003F040FC01BD80B5BB48DA
:10316000BB4901604FF4165141600021816000218C
:10317000C160002101610C214161002181610021B8
:10318000C161002101620021416201F05BFE002863
:1031900001D003F022FC01BD38B59EB0040014221A
:1031A0000021684603F01BFC6022002106A803F002
:1031B00016FC2068A249884252D1202006900020A7
:1031C000119006A803F016FC002801D003F005FCBE
:1031D000A048016851F001010160006810F0010091
:1031E000059005989C48016851F002010160006853
:1031F00010F00200059005984FF440600090022006
:103200000190012002900320039008200490694659
:103210009248FFF7A9FD924D92482860042068600B
:103220000020A8600020E8608020286100206861FC
:103230000020A8610020E86100202862280003F037
:103240004DFE002801D003F0C8FB6567AC62002288
:103250000021462004F0E3F8462004F0F5F8ABE046
:1032600020687949884251D10120069000200E90B3
:1032700006A803F0BFFB002801D003F0AEFB7A489C
:10328000016851F480410160006810F480400590AD
:1032900005987148016851F002010160006810F062
:1032A000020005900598C0200090022001900020A7
:1032B0000290032003900720049069466748FFF7B7
:1032C00053FD6A4D6A482860022068600020A860AB
:1032D0000020E86080202861002068610020A8614B
:1032E0000020E86100202862280003F0F7FD002894
:1032F00001D003F072FB6567AC620022002125203B
:1033000004F08DF8252004F09FF855E0206850491E
:10331000884251D1042006900020109006A803F0A6
:1033200069FB002801D003F058FB5248016851F4B2
:1033300080210160006810F48020059005984648BF
:10334000016851F004010160006810F0040005906C
:1033500005984FF4406000900220019000200290F8
:10336000032003900720049069464348FFF7FCFCC4
:10337000424D43482860022068600020A860002079
:10338000E86080202861002068610020A86100209A
:10339000E86100202862280003F0A0FD002801D089
:1033A00003F01BFB6567AC6200220021272004F0BC
:1033B00036F8272004F048F81FB030BD10B50400DF
:1033C00020681F49884210D12248016849084900F5
:1033D00001604FF440612148FFF7A7FD606F03F0E3
:1033E000EDFD462004F037F827E0206816498842B2
:1033F0000FD11D48016831F480410160C021174898
:10340000FFF793FD606F03F0D9FD252004F023F84A
:1034100013E020680E4988420FD11648016831F444
:10342000802101604FF440611348FFF77EFD606F1B
:1034300003F0C4FD272004F00EF810BD3821002051
:1034400000800040C02100200038014048220020B8
:10345000004800405C1002404C100240000400484C
:103460009C2600208004024060100240E4260020D8
:103470005800024058100240000800482C27002045
:103480003000024080B5184804F04CF8022017497B
:10349000087001BD80B501221549164801F075FD7F
:1034A00000220121272003F0BAFF272003F0CCFFE0
:1034B00001BD704738B504000B480D490A78036810
:1034C00085885A558288521C8280828840F2FF1378
:1034D0009A4201D3002282800122064801F055FD64
:1034E00001200249087031BD200C002079290020FC
:1034F000782900204822002001000800C0B20028DE
:1035000001D1012021E00800C0B2FF2801D10A202A
:103510001BE00800C0B2FE2801D1642015E00800BD
:10352000C0B2FD2802D14FF47A700EE00800C0B29C
:10353000FC2802D142F2107007E00800C0B2FB285C
:1035400002D1DFF8C00600E0012070472DE9F24FFC
:1035500082469346002000210A260027B046B9463D
:10356000009A1588BBF1000F08D5DBF100042D206F
:103570002A0092B20AF802006D1C00E05C462000AE
:10358000002142464B4604F093F8002901D100285F
:1035900008D0A6FB080106FB091107FB08118046AD
:1035A0008946ECE7404649460A22002304F080F8A9
:1035B00006000F00002F01D1002E28D0200000218E
:1035C00032003B0004F074F83030290089B20AF868
:1035D00001006D1CA0465FF00009200000213200B0
:1035E0003B0004F065F8A6FB002306FB013307FB54
:1035F0000033B8EB020079EB03010400300039001E
:103600000A22002304F054F806000F00D2E70098C5
:1036100005802800C0B2BDE8F28F2DE9FE4F0600FC
:103620000F0090460020ADF800000020002400218B
:103630005FF0000BB7F80090B8F1000F02D5D8F199
:10364000000500E04546424639003000FFF77EFFA6
:10365000B7F800A0002D4FD09DF80800FFF74CFFF1
:1036600001008D4205D20A2045431BF1010B002DBC
:10367000F7D15846C0B2002821D050460200D2B23D
:10368000324412F8012C2D2A06D00200D2B24B4649
:1036900092B29BB29A4208D130220300DBB2F254BC
:1036A0001AF1010ABBF1010BE3E70200D2B2324486
:1036B00012F8012C0300DBB2F254401EDEE70A20B0
:1036C000B1FBF0F450468346002C15D00A20B4FB21
:1036D000F0F45846C0B2304410F8010C5946C9B253
:1036E0007054BBF1010B002CEED12E205946C9B20B
:1036F00070541AF1010AE7E7A7F800A05046C0B2DB
:10370000BDE8FE8FF0B4049C00252E00B6B2A642A0
:103710000BD20E88771C0F802F00BFB217FA83F7E9
:10372000D75DB6B287556D1CEFE7F0BC704700005F
:103730002DE9F34F81B02DED028B9FED658A0024BA
:1037400001250026F7EE008A00273800C0B22028A5
:1037500064DA0398F84010F0010004003800C0B2A9
:10376000172829DA18EE900A00F032FB82468B46C1
:103770002000C0B204F0B4F8804689463800C0B2D8
:10378000D0F117005FF0FF31484304F0B7F841EC87
:10379000110B9FED500B04F0C6F851EC100B424694
:1037A0004B4604F0C9F852465B4604F097F900F026
:1037B000C9FC08EE900A2FE03800C0B21F2824DAB6
:1037C0003000C0B204F08CF882468B462000C0B2B4
:1037D00004F086F8804689463800C0B2173804F0F5
:1037E0008DF841EC110B9FED3B0B04F09CF851EC74
:1037F000100B42464B4604F09FF852465B4604F0DD
:103800006DF904F029FA060006E02000C0B2012894
:1038100002D15FF0FF3005007F1C96E7280040B220
:1038200004F06CF8804689463000C0B27F3804F05E
:1038300065F841EC110B9FED270B04F074F851EC87
:10384000100B42464B4604F077F88046894618EE46
:10385000900A00F0BDFA42464B4604F06DF800F0C5
:1038600071FC00EE100A049880ED000ABDEC028B9A
:10387000BDE8F78F70B4030000220024002000256B
:103880002A000E00D2B2F6B2B2421FD22A00D2B241
:103890009A5C302A0ADB2A00D2B29A5C3A2A05DA0C
:1038A0002A00D2B29A5C303A140001E000221400DF
:1038B0002A00D2B2002A03D12200D2B2100003E0C3
:1038C0000A22504350FA84F06D1CD9E770BC70474F
:1038D000000000000000000000000040F8B52DEDE1
:1038E000028B82B004000D000020009000269FEDA6
:1038F0004E8A0027DFED568A69462000FFF718FF41
:103900002800C0B200280AD0FB2836D0FC282BD0D3
:10391000FD2820D0FE2815D0FF2809D036E09FEDE5
:10392000420AB0EE408A9FED4A0AF0EE408A2DE04E
:103930000A2000EE100AB0EE408A9FED3C0AF0EE3D
:10394000408A23E09FED3A0AB0EE408A9FED390AA3
:10395000F0EE408A1AE09FED380AB0EE408A9FED03
:10396000370AF0EE408A11E09FED350AB0EE408A4A
:103970009FED340AF0EE408A08E09FED330AB0EE86
:10398000408A9FED320AF0EE408AFFE79DED000A83
:10399000B5EE400AF1EE10FA1BDBB8EE480ADDED99
:1039A000000A20EE200AF2EE040A20EE200ABCEE05
:1039B000C00A10EE100A0A22B0FBF2F102FB11015C
:1039C000052923D39DED000A30EE280A8DED000A6B
:1039D0001CE0B8EE480ADDED000AF1EE600A20EEC8
:1039E000800AF2EE040A20EE200ABCEEC00A10EEB5
:1039F000100A0A22B0FBF2F102FB1101052905D3DE
:103A00009DED000A30EE680A8DED000AB8EE480A16
:103A1000DDED000A20EE200ABDEEC00A10EE100A0D
:103A200002B0BDEC028BF2BD01000000CDCCCC3D5C
:103A3000640000000AD7233CE80300006F12833AB9
:103A40001027000017B7D138A0860100ACC5273772
:103A5000000000002DE9F0412DED028B07000E0063
:103A60009FED678A3000C0B200280BD0FB2800F021
:103A70009E80FC2877D0FD2851D0FE282CD0FF282E
:103A800007D0B7E000EE107AB8EEC00AB0EE408A78
:103A9000B0E00A2097FBF0F000EE100AB8EEC00A82
:103AA0005FF00A0810EE100A00F092F904000D0011
:103AB00097FBF8F008FB1078404603F01FFF524ACE
:103AC000524B03F039FF22002B0004F007F800F0FE
:103AD00039FB08EE100A8DE0642097FBF0F000EE51
:103AE000100AB8EEC00A5FF0640810EE100A00F089
:103AF0006FF904000D0097FBF8F008FB10784046C2
:103B000003F0FCFE424A434B03F016FF22002B0059
:103B100003F0E4FF00F016FB08EE100A6AE04FF431
:103B20007A7097FBF0F000EE100AB8EEC00A4FF47E
:103B30007A7810EE100A00F04BF904000D0097FBA4
:103B4000F8F008FB1078404603F0D8FE324A334BB9
:103B500003F0F2FE22002B0003F0C0FF00F0F2FAA7
:103B600008EE100A46E042F2107097FBF0F000EE0B
:103B7000100AB8EEC00A42F2107810EE100A00F0F7
:103B800027F904000D0097FBF8F008FB1078404679
:103B900003F0B4FE224A234B03F0CEFE22002B009A
:103BA00003F09CFF00F0CEFA08EE100A22E0154860
:103BB00097FBF0F000EE100AB8EEC00ADFF8448080
:103BC00010EE100A00F004F904000D0097FBF8F065
:103BD00008FB1078404603F091FE134A134B03F0A4
:103BE000ABFE22002B0003F079FF00F0ABFA08EEE9
:103BF000100AFFE7B0EE480ABDEC028BBDE8F08189
:103C000000000000A08601009A9999999999B93FFE
:103C10007B14AE47E17A843FFCA9F1D24D62503F5C
:103C20002D431CEBE2361A3FF168E388B5F8E43E19
:103C300010B42DED010A00206A460023042B07D2A0
:103C4000D45C1900C9B2C9008C4020435B1CF5E765
:103C500012BC70472DE9F74F82B000265FF0000AD2
:103C60005FF0000B54465D46002000900127DDF810
:103C70000C80DDF80890049810F0070F2BD1049801
:103C8000C008002182468B4604F05CF84FF47A703D
:103C900004F070F800200600300080B20021594581
:103CA00017D801D3504514D2D8E9000104000D0003
:103CB00022002B004946002003F0ECFF07003800EB
:103CC000C0B2012805D019F1080918F10808761CBE
:103CD000E2E704F048F83800C0B205B0BDE8F08F64
:103CE00070B50400012504F02DF806004FF47A7039
:103CF00004F040F83000C0B200280FD1C4F3CC204B
:103D0000B0F5807F05D20121C4F3CC2004F09EF8E9
:103D100004E00121C4F3CC2004F098F84FF47A7049
:103D200004F028F805000548016831F0020101603F
:103D300004F019F82800C0B270BD00001420024041
:103D40002DE9F041C0B004000D00160000274FF42B
:103D500080710022E8464046FEF70EFE2000FFF785
:103D6000BFFFA5208DF8000030008DF801005FF046
:103D700000084046310080B289B288420AD24046EB
:103D800080B2285C6946424692B21144887018F1AC
:103D90000108EEE7B61C300080B20821B6B2083642
:103DA000361A90FBF1F001FB0066320092B26946D0
:103DB0002000FFF74FFF002801D0002000E0012085
:103DC00040B0BDE8F0810268531C03601170704779
:103DD000C0F3C75181B1FF2906D0C110400721F0BF
:103DE000E04101F16051704741020CBF40F4E00135
:103DF0006FF000410020704700F0004100020AD03F
:103E0000B0FA80FC00FA0CF001F16051A1EB0C510A
:103E100001EBD0214005704770B44FF0004591EAA6
:103E2000030F43F163866B40841A71EB030603D2E0
:103E3000001BB141121973414FF4001C1CEB410FE0
:103E400034BF7CEB430442E00C0DA4EB1356352E3B
:103E50004FDC45EAC323DB0A45EAC121C912B6F1AA
:103E600020050DDD63FA05F6EB4086EA03051242F4
:103E700018BF45F00105C01851F100010CD213E044
:103E800062FA06F5F2405540F3415A40B340F34020
:103E90005A408018594107D349085FEA30005FEA69
:103EA000350528BF45F0010501F58011420875F17F
:103EB000004250F1000041EB04514E0016F5001F86
:103EC00070BC38BF70470020090D090570471CEB16
:103ED000410F10D252EA43060BD0BCEB410F05D87C
:103EE0000C0DAB43661E342EB6DD02E0AB438018EA
:103EF000594170BC704770BC70472E00F0B540F25D
:103F0000FF7581EA030C0CF0004C15EA11541DBF3B
:103F100015EA1357AC42AF42E5E0BC41C1F31301CF
:103F2000C3F31303801A994143F4801304D2641E2F
:103F30004000494180185941C90241EA5051B1FB42
:103F4000F3F603FB1611A2FB0675D7EBC020A941BF
:103F500002D2761E80185941C90241EA5051B1FB84
:103F6000F3FE03FB1E11A2FB0E75D7EBC020A94187
:103F700003D2AEF1010E80185941890241EA9051F5
:103F8000760546EA8E2EB1FBF3F603FB1611A2FB73
:103F90000675D7EB8020A94102D2761E80185941C0
:103FA000C90241EA50514EEA060EB1FBF3F603FB9B
:103FB0001611A2FB0675D7EBC020A94102D2761ECE
:103FC00080185941C90241EA5051B1FBF3F703FB94
:103FD0001711A2FB0735D3EBC020A94167F10007F9
:103FE0000CBF004247F0010766F3D5274FEA1E31A8
:103FF000B80814F5806412DDBD0775F1004250EB7E
:104000000E5051EB045111F5801F5CBF41EA0C01C9
:10401000F0BD4CF07F6141F0E0410020F0BDBD07F4
:104020006D0840EA0E5041F48011D4F10104B4F15E
:1040300020060ADAC4F120060200E04001FA06F385
:10404000E1401843B24015430EE0342C13DCC6F1B6
:10405000200445EA40056D0820FA06F2154321FACE
:1040600006F0A1400D43002175F1004250F100001F
:1040700051EB0C01F0BD00205FEA0C01F0BDCFB99F
:1040800092185B41B3FA83F704BFB2FA82F6BF1904
:104090000B3FB7F120062FBF02FA06F3BB40C7F172
:1040A000200622FA06F638BF3343BA401CB1E419A1
:1040B000641E33E77F4231F00041B1FA81F404BF5E
:1040C000B0FA80F6A4190B3CB4F120062FBF00FA19
:1040D00006F1A140C4F1200620FA06F638BF3143AC
:1040E000A0403C1B1AE7AC421ABF05EA1357AF4287
:1040F00012E050EA41061CBF52EA4306BFE750EA0D
:104100004107304661461CBF41EA0551F0BD52EA05
:10411000430C08BFC143F0BD00204FF4001616EB5E
:10412000410F98BF16EB430F08BF16EB410F24BF9A
:10413000C14305E016EB430F0CBF61464CEA055145
:10414000F0BD000001F000428B1AA3F16051B1F5FF
:10415000801F0ADBB1F17F6F1FD242EAC102C100AA
:1041600071F1004142EB507070470B15C3F1090328
:10417000212B10D2890241EA905180020128494145
:1041800041F0004121FA03F0C3F12003994071F19D
:10419000004150417047100070476FF0000013EB72
:1041A000103F5CBF000E42EAC050704780B500224D
:1041B0004FF40071DFF8C80BFEF775FF00224FF4D3
:1041C00000715FF09040FEF76EFF03F08FFEDFF8A6
:1041D000B40BDFF8B41B0163DFF8B01B421CC1F85D
:1041E0007021021DC1F8882110F124020A6210F129
:1041F00014028A63027A81F83D2010F118020A65E0
:10420000427A81F85520DFF8882B12F10A03C1F8B1
:10421000B83110F10C03C1F8D031037A81F8D531EF
:1042200012F11003C1F80032137A81F8053212F14D
:104230001803C1F81832137A81F81D3212F12003E5
:10424000C1F83032137A81F83532131DC1F8483283
:10425000927981F84D2210F11C02C1F87822027A7D
:1042600081F87D2210F12002C1F89022427A81F873
:10427000952210F12802C1F8D822827A81F8DD2235
:1042800010F12C02C1F8F022827A81F8F52210F1A7
:104290003402C1F82023C27A81F8252310F13802B4
:1042A000C1F83823C27A81F83D2310F13C02C1F8ED
:1042B0005023C27A81F8552310F14002C1F86823D7
:1042C000C07A81F86D03DFF8D40A0068C1F8B00342
:1042D000DFF8CC0A0068C1F8E00301BD38B5002062
:1042E00000242000C0B2072835DADFF8B85A2000D1
:1042F000C0B200012844407801282AD12000C0B271
:1043000000012844406800280ED002F001FB210083
:10431000C9B2090129444968401A2100C9B20901FA
:1043200029448968884214D300202100C9B20901B8
:104330002944487002F0ECFA2100C9B2090129446D
:1043400048602000C0B22100C9B209012944C968EF
:104350008847641CC5E7002032BD38B50400DFF88B
:10436000485A687800281FD100224FF40071DFF806
:10437000100AFEF798FE00224FF400715FF09040A3
:10438000FEF791FE03F0B2FD892000902023072262
:104390000521DFF8180A03F001FE012068700221F0
:1043A000DFF8000AFEF7BEFA012032BD7CB504003A
:1043B000DFF8FC592878002803D0022823D003D343
:1043C0003DE003F033FF3AE003F0A6FF89200090C0
:1043D000202307220521DFF8D40903F0DFFDDFF8F1
:1043E000D42903212C2003F0F3FEDFF8CC2904218B
:1043F000082003F0EDFE03F0ECFF41F28830DFF817
:10440000A41988611BE00120DFF89C1948708920FD
:104410000090202307220521DFF8900903F0BEFD5C
:10442000DFF8806902213000FEF77CFA03213000BA
:10443000FEF778FA04213000FEF774FAFFE72878D7
:10444000401C28702100C9B2DFF85809FEF779FA3C
:10445000012076BD70B5040000F0BCF8DFF84859C3
:104460006878012803D1A87800F0BAFB04E00021A5
:10447000DFF83009FEF756FADFF84009A97802782C
:10448000914207D0A9780170DFF834090068DFF89D
:1044900034190860A8780A2812D1DFF828694FF487
:1044A000FA61306802F0F6FF012809D1DFF810093F
:1044B00000683060062215F10801A81C03F092F88C
:1044C0002100C9B2DFF8DC08FEF73BFA012070BD1D
:1044D00010B50400DFF8F018DFF8F008006902F00A
:1044E000D9FF012827D1DFF8E8080178012905D193
:1044F000002101700020DFF8B0188870DFF8D408C0
:104500000188491C018042F21071DFF898282300CD
:10451000DBB21B011A449268B1FBF2F102888A42B5
:104520000DD300210180DFF880188878002806D09C
:104530000020887003E00120DFF894180870210043
:10454000C9B2DFF86008FEF7FCF9012010BD38B5EC
:10455000040003F0C4FFDFF87458287A012808D15A
:104560000521DFF84008FEF7DDF9DFF854080068A0
:1045700028612100C9B2DFF82C08FEF7E2F901201A
:1045800032BD10B5040003F091FFDFF840080021B0
:10459000017000210172012010BD10B5040000223D
:1045A0004FF40051DFF8D807FEF77DFD012010BD64
:1045B00010B5040001224FF40051DFF8C407FEF7E4
:1045C00072FDDFF8E007210089B281660621FEF75F
:1045D000B8F910BD38B5DFF8AC47DFF8FC07216B40
:1045E000097850F82100DFF8A417C1F8C002DFF8FD
:1045F000EC0701786170DFF8E817407851F8200087
:104600006060207AFEF778FF00EE100ADFF8D457DA
:10461000B8EE400AD5ED010A20EE200ABDEEC00A30
:1046200084ED030A607AFEF767FF00EE100AB8EE29
:10463000400AD5ED020A20EE200ABDEEC00A84ED44
:10464000040A207AFEF758FF00EE100AB8EE400A7E
:10465000D5ED030A20EE200ABDEEC00A84ED050A5E
:10466000607AFEF749FF00EE100AB8EE400AD5ED79
:10467000040A20EE200ABDEEC00A84ED060A207A64
:10468000FEF73AFF00EE100AB8EE400AD5ED050A33
:1046900020EE200ABDEEC00A84ED070A607AFEF71C
:1046A0002BFF00EE100AB8EE400AD5ED060A20EE08
:1046B000200ABDEEC00A84ED080AA07AFEF71CFFAE
:1046C00000EE100ADFF8C056B8EE400AD5ED020A37
:1046D00020EE200ABDEEC00A84ED0A0AA07AFEF799
:1046E0000BFF00EE100AB8EE400AD5ED010A20EEED
:1046F000200ABDEEC00A84ED0B0ADFF8EC0690ED4F
:10470000010ADFED230A20EE200ABDEEC00A84ED87
:10471000090AE07AFEF7F0FE00EE100ADFF8CC5648
:10472000B8EE400AD5ED000A20EE200ABDEEC00A20
:1047300084ED0D0AE07AFEF7DFFE00EE100AB8EE17
:10474000400AD5ED010A20EE200ABDEEC00A84ED34
:104750000E0AE07AFEF7D0FE00EE100AB8EE400A2C
:10476000D5ED020A20EE200ABDEEC00A84ED0F0A44
:10477000E07AFEF7C1FE00EE100AB8EE400AD5ED71
:10478000030A20EE200ABDEEC00A84ED100A31BDF6
:104790000000C8422DE9F84F8AB00600202100220F
:1047A00002AC2000FEF7E8F80024002500208DF878
:1047B000050000208DF806001827DFF8D0853000AE
:1047C000C0B27843404490F815903000C0B27843AE
:1047D00040444068002842D001213000C0B200F0BF
:1047E000A9F900280ED13000C0B278434044426895
:1047F0003000C0B278434044017D4846C0B203F067
:10480000E7FC1EE05FF0000A3000C0B2784340448D
:10481000406805F0ABFC5146C9B2814207D2202066
:1048200002A95246D2B288541AF1010AECE702AA50
:104830003000C0B278434044017D4846C0B203F026
:10484000C7FC3000C0B278434044406805F08EFC9D
:10485000DFF89C150979491C484310FA89F93000A2
:10486000C0B2784340448068002800F03A813000AC
:10487000C0B278434044007B00280BD002281ED0F1
:1048800012D3042830D024D3062845D036D30728A5
:104890003ED044E03000C0B27843404480680078A5
:1048A000002104000D003AE03000C0B278434044DB
:1048B000806890F90000C11704000D002FE030005F
:1048C000C0B27843404480680088002104000D0095
:1048D00025E03000C0B2784340448068B0F9000061
:1048E000C11704000D001AE03000C0B27843404404
:1048F00080680068002104000D0010E03000C0B2A4
:104900007843404480680068C11704000D0006E049
:1049100001208DF8050002E002208DF805009DF8C9
:10492000050000280CD13000C0B278434044407BE1
:1049300040420200D2B202A9200002F0C3FD26E0EC
:104940009DF8050001281AD13000C0B278434044D8
:10495000806805F00BFC202819D23000C0B27843E3
:104960004044806805F002FC020092B23000C0B200
:1049700078434044816802A802F034FE07E030002A
:10498000C0B278434044806800788DF80800022166
:104990003000C0B200F0CEF8012823D13000C0B200
:1049A00078434044807DC0B200098DF806009DF830
:1049B00006000F2805D0202002A99DF80620885463
:1049C00010E05FF0000A02A805F0D0FB5146C9B222
:1049D000814207D2202002A95246D2B288541AF14D
:1049E000010AF0E73000C0B202285ED15FF0000A91
:1049F00000208DF804003000C0B278434044407B72
:104A0000002802D009208DF80400392000902E23C0
:104A100015220F21DFF8DC0305F0C4FB02A805F026
:104A2000A5FB8346DFF8C8030079401C00FB0BFBA5
:104A30005846C0B2022190FBF1F01F280BDA58460D
:104A4000C0B2022190FBF1F0D0F140009DF80410BB
:104A500050FA81FA07E05846C0B2D0F15F009DF8E5
:104A6000041050FA81FA02AA3000C0B278434044E0
:104A7000007D401CC0B2DFF878134979D1EBC0014A
:104A8000491EC9B25046C0B205F036FD5AFA8BF045
:104A90009DF80490B0EB090989200090202307229B
:104AA0000521C24803F07AFA1BE0892000902023F8
:104AB00007220521BD4803F071FA02AA3000C0B2F6
:104AC00078434044017D4846C0B203F081FB02A810
:104AD00005F04CFBC6490979491C484310FA89F096
:104AE00081463000C0B278434044006900281ED09F
:104AF0003000C0B2784340448068002817D03000AE
:104B0000C0B2784340448068BB4988420FD030002F
:104B1000C0B27843404402693000C0B207FB00F7DE
:104B200008EB0700017D4846C0B203F051FB0BB013
:104B3000BDE8F08FF8B504000D0094492200D2B210
:104B40001820424301EB0200817D2800C0B20140E1
:104B50002800C0B281422FD1B026A84F4FF49671E1
:104B60002800C0B2704338442200D2B250F822006C
:104B700002F090FC01282AD12800C0B206FB00F602
:104B800007EB06002100C9B28D4A126840F82120C7
:104B90002C209B492A00D2B242430A442300DBB2B4
:104BA0002E00F6B200FB06F008442100C9B2405CBA
:104BB000D0F10100D0540AE091492A00D2B22C2051
:104BC000424301EB02002100C9B2002242548C4949
:104BD000EDB22C20454301EB0500E4B2005DF2BDCF
:104BE00070B50400002603F097FB00F077F8200072
:104BF000C0B200F07DF82000C0B200F093F80025AC
:104C0000280080B22C2811DA60492A0092B21820BC
:104C1000424301EB0200C07D2100C9B2884203D1AA
:104C20002800C0B2FFF7B6FD6D1CE9E703F0D1FB29
:104C300070BDF0B44271C47803792500EDB2AB4287
:104C40000AD3F025514E2700FFB218235F4306EB2D
:104C500007039D75641CEFE718234C4C85785D4372
:104C600025444679AE75002904D0857803FB05F309
:104C700023449960F0BC70472DE9F84F070088463F
:104C800091469A460A9E0B9DDDF830B00D9C87F840
:104C9000008087F8019087F802A0FE703D71220025
:104CA000D2B259463800FFF7C4FFBDE8F18F10B407
:104CB000010000221000C0B204280CD21000C0B2C3
:104CC000085C504B1400E4B21B5D984201D00020F8
:104CD00002E0521CEEE7012010BC704780B50120B5
:104CE000009008237F220821002005F089FC01BDE7
:104CF00010B504002000C0B2002812D13948007855
:104D0000002807D123A2214890F85C10782003F0F6
:104D10005FFA06E020A21D4890F85C10782003F0AE
:104D200057FA10BD0100C9B2092924D115490978E3
:104D3000002906D002290ED008D3042915D00FD39C
:104D400018E03149114AC2F8F81318E02F490F4A08
:104D5000C2F8F81313E02E490C4AC2F8F8130EE01B
:104D60002C490A4AC2F8F81309E02B49074AC2F84D
:104D7000F81304E003E02449044AC2F8F81370472A
:104D8000000800487C000020F028002024010020BA
:104D9000F0270020200000004E000000DC0500206D
:104DA000C00000200C000020C428002020050108BD
:104DB0006D290020D41001084C0C01086E29002038
:104DC0004C29002024290020C02709007C2800202D
:104DD0006F290020602900201C010020700C002099
:104DE000A00600203C2800209C070020D42800209A
:104DF000E4280020F8020108720C00202819002085
:104E0000D0220020C8000020CC000020DC000020C0
:104E1000EC000020FC0000200C01002070B5040014
:104E200001F076FD0500260016F1010F02D00448BE
:104E30000078361801F06CFD401BB042FAD370BD0B
:104E4000730C002010B50400002C01D1012035E0C6
:104E5000A0690028FFD1E06F002805D1002084F868
:104E600078002000FEF798F92420E06720680068A9
:104E70004008400021680860606A002802D02000D5
:104E800000F0DEFB200000F05FFA012801D10120D4
:104E900014E02068406830F4904021684860206841
:104EA000806830F02A00216888602068006850F02F
:104EB000010021680860200000F02FFC10BD2DE9E2
:104EC000FC4706000D0017009846F06F202859D1C6
:104ED000002D03D0380080B2002801D1012052E01B
:104EE0000020C6F884002120F06701F011FD814602
:104EF000A6F85070A6F85270B068B0F5805F05D182
:104F00003069002802D10024AA4602E02C005FF09C
:104F1000000AB6F85200002822D0CDF800804B4697
:104F200000228021300000F061FC002803D0202006
:104F3000F067032027E0002C08D1BAF80000C00574
:104F4000C00D316808851AF1020A03E02078316843
:104F50000885641CB6F85200401EA6F85200D8E737
:104F6000CDF800804B4600224021300000F03EFC8E
:104F7000002803D02020F067032004E02020F06701
:104F8000002000E00220BDE8F68770B505000C00A7
:104F90001600D5F88000202824D1002C03D0300042
:104FA00080B2002801D101201DE000202866286879
:104FB000DFF8901388420ED02868406800020AD5B6
:104FC000286850E8000F50F0806001002A6842E82D
:104FD00000100028F4D1320092B22100280000F025
:104FE00054FC00E0022070BD2DE9F0470600306857
:104FF000C7693068D0F800803068D0F8089040F673
:105000000F043C40002C0BD1B80609D55FEA88603C
:1050100006D5B06E002802D03000B16E88478FE10F
:10502000002C00F0AA805FEAC97005D4DFF80806FA
:1050300018EA000F00F0A18017F00100C0B20028AC
:105040000BD05FEAC85008D5012031680862D6F855
:10505000840050F00100C6F88400B8070DD519F09F
:105060000100C0B2002808D0022031680862D6F8DA
:10507000840050F00400C6F8840078070DD519F0BC
:105080000100C0B2002808D0042031680862D6F8B8
:10509000840050F00200C6F88400380710D55FEA9B
:1050A000886004D419F00100C0B2002808D008209C
:1050B00031680862D6F8840050F00800C6F8840011
:1050C00038050CD55FEA481009D54FF40060316807
:1050D0000862D6F8840050F02000C6F88400D6F8A4
:1050E0008400002848D0B80608D55FEA886005D556
:1050F000B06E002802D03000B16E8847D6F8840028
:10510000050030688068400602D415F0280F2DD0C5
:10511000300000F09EFC30688068400622D5306880
:10512000083050E8000F30F040000100306810F106
:10513000080242E800100028F1D1706F00280DD05D
:10514000DFF8F804716F8863706F02F017F80028B9
:1051500012D0706F716F896B88470DE0300005F0D9
:1051600023FB09E0300005F01FFB05E0300005F0EF
:105170001BFB0020C6F88400E2E0306E012840F0FE
:10518000BD80F80640F1BA805FEAC86040F1B680A1
:105190001020316808623068806840066DD5706FF5
:1051A0000068D0F804A0504680B2002852D0504683
:1051B000B6F8581080B288424CD2A6F85AA0706F48
:1051C00000680068800639D4306850E8000F30F479
:1051D00080700100326842E800100028F4D1306885
:1051E000083050E8000F400840000100306810F11E
:1051F000080242E800100028F1D13068083050E879
:10520000000F30F040000100306810F1080242E861
:1052100000100028F1D12020C6F880000020306660
:10522000306850E8000F30F010000100326842E8AA
:1052300000100028F4D1706F01F076FF0220706634
:10524000B6F85810B6F85A00091A89B2300005F0BD
:105250008CFA11E05046B6F8581080B288420BD153
:10526000706F00680068800606D502207066B6F888
:105270005810300005F079FA62E0B6F85800B6F838
:105280005AA0B0EB0A0AB6F85A00002835D05046AA
:1052900080B2002831D0306850E8000F30F49070B0
:1052A0000100326842E800100028F4D1306808306C
:1052B00050E8000F400840000100306810F108027B
:1052C00042E800100028F1D12020C6F8800000201C
:1052D00030660020B066306850E8000F30F01000F3
:1052E0000100326842E800100028F4D10220706604
:1052F000514689B2300005F038FA21E0F8020AD5AB
:105300005FEA492007D55FF48010316808623000F9
:1053100005F0DCFA14E0380609D55FEA086006D526
:10532000F06E002802D03000F16E884708E0780661
:1053300006D55FEA486003D5300000F054FCFFE773
:10534000BDE8F087008000402DE9F047040000260A
:10535000DFF8A81920688842FFD0A26820690243BC
:1053600060690243E069024320680368DFF890093E
:1053700003401343206803602068436833F44053BC
:10538000E068034320684360D4F8188020688842AE
:1053900002D0206A50EA08082068806830F4306043
:1053A00058EA0000226890602068DFF8482A90429E
:1053B00016D1DFF8440A006810F00300002805D079
:1053C000022805D006D3032806D007E0012760E0B5
:1053D00002275EE004275CE008275AE0102758E027
:1053E0002068DFF8182A904217D1DFF80C0A00680D
:1053F00010F00C00002806D0042808D0082804D09B
:105400000C2806D007E0002743E0022741E00427EC
:105410003FE008273DE010273BE02068DFF8E02967
:10542000904217D1DFF8D009006810F03000002852
:1054300006D0102808D0202804D0302806D007E055
:10544000002726E0022724E0042722E0082720E0A6
:1054500010271EE0206888421AD1DFF89C090068F6
:1054600010F44060002809D0B0F5806F0AD0B0F584
:10547000006F05D0B0F5406F06D007E0002708E0C8
:10548000022706E0042704E0082702E0102700E0D6
:1054900010272068884246D13800C0B2002806D0C4
:1054A000022808D0042809D008280BD00DE005F008
:1054B0007DFE81460DE0DFF84C990AE005F009FE1B
:1054C000814606E04FF4004903E05FF00009012047
:1054D0000600B9F1000F00F0A58061680320414388
:1054E000894505D361684FF480504143494502D254
:1054F0000120060096E04FF48072606840080021A9
:10550000E2FB09016268002302F0D2F80500B5F55C
:10551000407F05D3B5F5801F02D22068C56081E0C9
:10552000012006007EE0E069B0F5004F41D138006F
:10553000C0B2002808D001280AD002280CD00428C4
:105540000DD008280FD011E005F030FE814611E0A3
:1055500005F039FE81460DE0DFF8A8980AE005F075
:10556000B8FD814606E04FF4004903E05FF0000912
:1055700001200600B9F1000F54D06068400810EB1C
:1055800049006168B0FBF1F00500102D0ED3B5F5B0
:10559000803F0BD24FF6F0712940C5F34200014322
:1055A0008A46504680B22168C8603BE00120060070
:1055B00038E03800C0B2002808D001280AD00228FC
:1055C0000CD004280DD008280FD011E005F0EEFD16
:1055D000814611E005F0F7FD81460DE0DFF82498E3
:1055E0000AE005F076FD814606E04FF4004903E04D
:1055F0005FF0000901200600B9F1000F12D06068C9
:1056000019EB50006168B0FBF1F00500102D07D3D5
:10561000B5F5803F04D2280080B22168C86001E05F
:10562000012006000020A0660020E0663000C0B225
:10563000BDE8F0870000000020010004CD5B0008F9
:1056400090F82410090707D501684A6832F400422F
:10565000416B0A4301684A6090F82410C90707D5D6
:1056600001684A6832F40032816A0A4301684A607C
:1056700090F82410890707D501684A6832F480320F
:10568000C16A0A4301684A6090F82410490707D5A7
:1056900001684A6832F48022016B0A4301684A605B
:1056A00090F82410C90607D501688A6832F4805240
:1056B000816B0A4301688A6090F82410890607D537
:1056C00001688A6832F40052C16B0A4301688A603B
:1056D00090F82410490613D501684A6832F4801204
:1056E000016C0A4301684A60016CB1F5801F07D163
:1056F00001684A6832F4C002416C0A4301684A609A
:1057000090F82410090607D501684A6832F400228F
:10571000816C0A4301684A60704738B50400002074
:10572000C4F8840001F0F4F8050020680068000760
:105730001DD57FF07E4000902B0000225FF4001109
:10574000200000F053F8002811D0206850E8000F26
:1057500030F080000100226842E800100028F4D1F7
:105760002020E067002084F8780003203DE02068D6
:10577000006840072CD57FF07E4000902B0000226F
:105780005FF48001200000F031F8002820D020686C
:1057900050E8000F30F490700100226842E80010D9
:1057A0000028F4D12068083050E8000F400840007D
:1057B0000100206810F1080242E800100028F1D131
:1057C0002020C4F88000002084F8780003200CE03A
:1057D0002020E0672020C4F8800000202066002000
:1057E0006066002084F87800002032BD2DE9F04189
:1057F00005000E0090461F00069C2868C0693040D6
:10580000B04201D1012000E000204146C9B28842E7
:1058100038D114F1010FF0D001F07AF8C01B8442A6
:1058200001D3002C01D103202DE028680068400737
:10583000E3D5802EE1D0402EDFD02868C069000774
:105840000DD5082029680862280000F002F9082018
:10585000C5F88400002085F87800012013E028684E
:10586000C0690005C9D54FF40060296808622800A6
:1058700000F0EFF82020C5F88400002085F87800BB
:10588000032000E00020BDE8F08130B4030059653A
:10589000A3F85820A3F85A20002098669868B0F51D
:1058A000805F0BD11869002804D140F2FF10A3F8E3
:1058B0005C0023E0FF20A3F85C001FE0986800284C
:1058C0000AD11869002803D1FF20A3F85C0015E075
:1058D0007F20A3F85C0011E09868B0F1805F0AD1E6
:1058E0001869002803D17F20A3F85C0006E03F2060
:1058F000A3F85C0002E00020A3F85C000020C3F8DD
:1059000084002220C3F880001868083050E8000F97
:1059100050F001000400186810F1080545E8004047
:105920000028F1D19868B0F5805F06D11869002889
:1059300003D10FF2D130986602E00FF2D5209866BD
:10594000186900280BD0186850E8000F50F49070C8
:1059500004001D6845E800400028F4D10AE01868FA
:1059600050E8000F50F0200004001D6845E800409A
:105970000028F4D1002030BC704770B504000D0041
:1059800016006565A4F858600020C4F88400222041
:10599000C4F88000606F002821D00FF21510616FED
:1059A000C8620FF2B110616F08630FF2D110616F1E
:1059B00048630020616F886333009BB2626D20688A
:1059C00010F12401606F01F063FB002807D0102064
:1059D000C4F884002020C4F8800001202AE0206957
:1059E00000280AD0206850E8000F50F480700100B1
:1059F000226842E800100028F4D12068083050E8FE
:105A0000000F50F001000100206810F1080242E888
:105A100000100028F1D12068083050E8000F50F045
:105A200040000100206810F1080242E80010002840
:105A3000F1D1002070BD016851E8001F31F0C001B4
:105A40000A00036843E800210029F4D12021C1673E
:105A50007047016851E8001F31F490710A00036833
:105A600043E800210029F4D10168083151E8001F02
:105A7000490849000A00016811F1080343E80021C0
:105A80000029F1D1016E01290AD1016851E8001FF6
:105A900031F010010A00036843E800210029F4D125
:105AA0002021C0F880100021016600218166704726
:105AB00038B50400A56A2068006880063AD4002042
:105AC000A5F85A00286850E8000F30F480700100F3
:105AD0002A6842E800100028F4D12868083050E80D
